:100000000C94BC010C94D9010C94F4010C94D9010A
:100010000C94D9010C948F280C94D9010C94D9011B
:100020000C94D9010C9460280C94D9010C943128BB
:100030000C94D9010C94D9010C94D9010C94D901D8
:100040000C94D9010C94D9010C94D9010C94D901C8
:100050000C94D901FE21EA211A22EE21F021F2218D
:10006000F6211822FA21FC21F82106222022002262
:100070002422282231222A222A222A222A222A2221
:100080002A222A222A222A22162214222222042268
:1000900026222C22EC212A222A222A222A222A2241
:1000A0002A222A222A222A222A222A222A222A22F0
:1000B0002A222A222A222A222A222A222A222A22E0
:1000C0002A222A222A222A222A22082210220C222A
:1000D000F42102221C222A222A222A222A222A222D
:1000E0002A222A222A222A222A222A222A222A22B0
:1000F0002A222A222A222A222A222A222A222A22A0
:100100002A222A222A222A222A220A2212220E22E3
:100110001E2205010906A101050719E029E71500BE
:1001200025019508750181029501750881039505E2
:1001300075010508190129059102950175039103BF
:100140000507190029FF95067508150026FF00818F
:1001500000C00600FF0901A101150026FF00750877
:10016000850195070900B20201850295830900B255
:100170000201C005010980A1018504150125B719F7
:100180000129B7751095018100C0050C0901A10175
:1001900085031501269C0219012A9C027510950100
:1001A0008100C009023B00020100A0FA090400001E
:1001B000010301010009210101000122400007059E
:1001C0008103080001090401000103000000092166
:1001D0000101000122510007058303080001FEF818
:1001E000F6FB01020408102040800000FC001C32D5
:1001F0002123242B3433433B424B3A31444D152DBC
:100200001B2C3C2A1D22351A161E26252E363D3E55
:1002100046455A76660D294E55545B5D5D4C520E2F
:1002200041494A580506040C030B830A0109780763
:100230007C7E7C706C7D71697A746B7275774A7C98
:100240007B795A69727A6B73746C757D7071612FEA
:10025000001412111F145911270000373F5E481077
:100260003A38302820184D153B34233221502B408A
:100270004B1C43221D0000F1F2370F0810182028F4
:100280003038404850575F6D000081008200830085
:100290008A012102230224022502260227022A02C1
:1002A000B500B600B700CD00E200E900EA00830126
:1002B00092019401000000000000000000009190F5
:1002C000666768696A6B6C6D6E6F70717273858634
:1002D000464800488E8D007172738F006A6B6E6D98
:1002E0006546494A4B4C4D4E52504F5154587172CD
:1002F000737475767778797A7B7C7D7E7F80818256
:10030000838485868788898A8F00494C4A4D4B4E65
:100310006A6E65504F525154003953470004030927
:10032000041C03770069006E006B00650079006CA7
:10033000006500730073002E006B007200120370E2
:100340000073003200610076007200470042001224
:1003500001100100000008A0202D4205010102004B
:100360000145464765666700202B2D2E303132331C
:10037000343536373839680011241FBECFE5D8E050
:10038000DEBFCDBF10E0A0E6B0E0E0E1F9E502C0DD
:1003900005900D92A238B107D9F714E0A2E8B0E0B9
:1003A00001C01D92A13FB107E1F70E9418290C94EA
:1003B000862C0C940000A82FB92F80E090E041E03B
:1003C00050EA609530E009C02D9182279795879576
:1003D00010F084279527305EC8F36F5FA8F3089567
:1003E000EADF8D939D930895CF93CFB7CF93C395B5
:1003F000839BE9F7839B0EC0839B0CC0839B0AC041
:10040000839B08C0839B06C0C091C804C395C0935A
:10041000C804A3C0DF93C091C704DD27C153DB4FDD
:10042000839B02C0DF91E6CF2F930F931F9300B3FE
:100430002FEF03FB20F94F933F9310B34FEF0127AA
:1004400003FB21F93BE031C04E7F012F10B3216047
:1004500028C0102F4D7F2260000000B329C04B7FC1
:100460002460012F000010B32BC010B3477F286019
:100470002AC04F7E00B320612CC04F7D10B3206294
:100480002FC04F7B00B3206432C0422700B3499392
:100490004FEF0000102713FB20F910B31C70C9F1B7
:1004A000297F91F2012703FB21F900B3237F89F211
:1004B000315058F1102713FB22F910B3277E79F23F
:1004C000012703FB23F92F7C81F200B3102713FBD4
:1004D00024F92F7971F200C010B3012703FB25F92D
:1004E0002F7359F200C000B3102713FB26F92230F6
:1004F00040F200C010B3012703FB27F9243028F68F
:100500004F77206810B30000F9CF10E81ABF00271A
:1005100019C03B503195C31BD04010E81ABF088169
:10052000033CF9F00B34E9F02091C4041981110F58
:100530001213EDCF4A81441F093641F10D3211F0FB
:10054000013E29F70093CD043F914F911F910F91E8
:100550002F91DF91CAB7C7FD4ACFCF91CFBFCF91BF
:1005600018952091CD04222379F31091CB04112307
:10057000C1F53430C2F13093CB042093C6041091FE
:10058000C7043BE0311B3093C7042DC00091CB045E
:1005900001303CF50AE54F7049F430917F0034FD9D
:1005A00024C000937F00CDEAD4E023C0433049F05B
:1005B0003091B80434FD19C00093B804C9EBD4E0FD
:1005C00018C03091E50434FD10C00093E504C6EE78
:1005D000D4E00FC02795A8F45150A9F4220F0000D1
:1005E000F9CF4AE503C042ED01C0432FC4E1D0E09A
:1005F00032E011B31C60939A11BB02B320E41CE0FB
:100600005F93012756E002BB279520F4515021F457
:10061000220FF9CF012756E000003B5A02BBD0F26F
:10062000279528F4515029F4220F0000F9CF012713
:1006300056E0279502BB20F4515021F4220FF9CF48
:10064000012756E02991332302BB21F6037F109145
:10065000CC04110FC651D04002BB11F01093C4045A
:1006600010E81ABF086011B3137F402F437F5F91DA
:1006700000C000C002BB11BB42BB66CF0F931F93EB
:10068000982FF801442321F0222391F484E003C041
:10069000222371F082E08083662329F08091260175
:1006A000892B8093260180912501892B8093250138
:1006B0001F910F9108952091A100222309F457C0A2
:1006C0008091A7009091A80001969093A800809334
:1006D000A700853691050CF452C0213011F023306B
:1006E000E1F480912501982F80FF07C080912601B9
:1006F00080FF02C0909A01C0909891FF07C080913E
:10070000260181FF02C0919A01C0919895FF27C0F0
:100710008091260185FF20C021C0243011F02230B5
:10072000F1F480912501982F80FF07C08091260168
:1007300080FF02C0909801C0909A91FF07C08091FD
:10074000260181FF02C0919801C0919A95FF07C0D0
:100750008091260185FF02C0959801C0959A10925C
:10076000A8001092A70021502093A1000895109294
:100770002601109225011092A8001092A70008955A
:10078000662361F0813011F4909A0895823011F45B
:10079000919A0895843069F4959A0895813011F4FE
:1007A00090980895823011F491980895843009F456
:1007B0009598089581B3836381BB82B38C7C82BB9F
:1007C0000895CF93DF93FC0180916800818380912D
:1007D0008900828380910D0190910E0163E070E0A9
:1007E0000E94932A6383EF012496A6E1B1E083E09F
:1007F0000D9009928150E1F7EF012796A9E1B1E050
:1008000083E00D9009928150E1F7EF012A96ACE167
:10081000B1E083E00D9009928150E1F788EF90E01C
:100820009F01235F3F4FE901DC0143E00D900992F6
:100830004150E1F703962D5F3F4F41E08D30940723
:1008400091F78091830082A3EF01A396AFE1B1E01D
:1008500083E00D9009928150E1F780918A0086A390
:100860008091690087A38091880080A780916700AC
:1008700081A7EF01E096A9EAB0E083E00D9009922C
:100880008150E1F790916B009295907F80916A0082
:100890008F70982B93A7DF91CF910895809183005B
:1008A0008F5F80938300833011F4109283008091D6
:1008B00084008160809384000895EF92FF920F93EB
:1008C0001F9320910D0130910E01809114019091A0
:1008D00015018217930720F08FEF8093AF001DC0A2
:1008E00060911201709113017B01E81AF90A621BF1
:1008F000730B80E090E02DEC30E040E050E00E948F
:10090000682A0027F7FC0095102FA80197010E9484
:10091000BA2A2E5C3F4F2093AF001F910F91FF909A
:10092000EF90089520910F013091100180910D01F9
:1009300090910E012817390720F430930E0120936F
:100940000D010895882309F448C0809368008F3F03
:1009500011F48CE003C0893118F088E180936800BD
:10096000209168008CEC95E1622F70E00E94A72A2C
:10097000709313016093120132E06B3F730734F000
:100980008AEF92E090931301809312018EE898E031
:10099000622F70E00E94A72A7093150160931401E2
:1009A00022E06B3F720734F08AEF92E090931501DA
:1009B0008093140180918100882329F4809114018F
:1009C0009091150104C080911201909113019093B0
:1009D000100180930F010E949204089510928500E7
:1009E00008958093A20008958091A2000895209117
:1009F000670030E0AC01429FC001439F900D529FC1
:100A0000900D11246FEF70E00E94932A8091AF0047
:100A1000482F50E09B014617570708F49A01C90177
:100A200008958F929F92AF92BF92CF92DF92EF92F2
:100A3000FF920F931F93CF93DF93EC01298198804E
:100A4000822F90E0890D911D8A80880D911D609103
:100A50000D0170910E016817790760F57B0100E0C8
:100A600010E05C01CC24DD2430E040E050E0C8011F
:100A7000B7010E94682AA60195010E94BA2A29831B
:100A8000692D70E080E090E0A80197010E94682A3B
:100A9000A60195010E94BA2A2883682D70E080E0A3
:100AA00090E0A80197010E94682AA60195010E9482
:100AB000BA2A2A839981933050F08881981739F4A3
:100AC0008A81981721F49150988391509A83DF91ED
:100AD000CF911F910F91FF90EF90DF90CF90BF903B
:100AE000AF909F908F90089581E080939B00089530
:100AF00080938900853010F010928900662329F4D4
:100B000010929A000E94740503C082E080939A00BC
:100B100080918700816080938700089508950F93E6
:100B20001F93CF93DF938C019091680040EB50E0CE
:100B300083E0989FB0011124EB01C40FD51F09C0B9
:100B4000DA01F80183E001900D928150E1F74D5FE9
:100B50005F4F4C175D07A1F760931101DF91CF91B3
:100B60001F910F9108951092B1001092B000109251
:100B7000B2001092230110922201109224011092CF
:100B8000AD00EDEAF0E012921092AE00CF010E94AB
:100B90008F05089580919F008F5F80939F0087301D
:100BA00010F010929F000895FC018081873010F0B2
:100BB0008750808308950F931F93CF93DF93EC01A9
:100BC0000E94D4050091680010E019C02881822F8E
:100BD00090E0FC01EE0FFF1FE80FF91FE850FF4FF8
:100BE0008181882371F48081882359F4828188234C
:100BF00041F42F5F2883CE010E94D4051F5F101798
:100C000028F3DF91CF911F910F910895DF93CF9338
:100C100000D00F92CDB7DEB769837A838B83CE0184
:100C200001960E941105909123018A81981751F431
:100C3000909122018981981729F4909124018B8148
:100C4000981769F0A2E2B1E0FE01319683E00190CD
:100C50000D928150E1F7CE0101960E948F050F9011
:100C60000F900F90CF91DF9108951F93FC01DB014E
:100C70001081E12FF0E05C91252F30E0642F70E0CF
:100C8000CB01820F931F8E179F0714F4540F06C0D9
:100C9000261B370BE217F3071CF4541B5C9301C0AF
:100CA0001C931F910895FF920F931F93CF93DF938F
:100CB00010929D00F0906800C0EBD0E083E0F89EB9
:100CC000800111240C0F1D1F1DC08DE990E00E94B2
:100CD000DB0580919D0090E0FC01EE0FFF1FE80F07
:100CE000F91FDE01E850FF4F83E001900D92815023
:100CF000E1F7CE010E94110580919D008F5F8093E6
:100D00009D002396C017D10701F78F2D90E0FC01BD
:100D1000EE0FFF1FE80FF91FACEAB0E0E055FF4F00
:100D200083E001900D928150E1F7DF91CF911F9107
:100D30000F91FF9008950F931F93182F092F0E9472
:100D40005D04ACEAB0E0212F302FC901FC0183E043
:100D500001900D928150E1F76091AC007091AD006F
:100D60008091AE000E9406061F910F91089581E0C8
:100D70008093950008959C0180918200882319F446
:100D8000C9010E942E28089590918800913029F47D
:100D900010928C0010928B000895923029F48FEFFE
:100DA00090E00E94F7041BC0892F83508230A8F482
:100DB00083E080939000943019F481E08093900058
:100DC000809190009FEF899FC00111246CE070E03A
:100DD0000E94A72A60938F00089580E090E00E940F
:100DE000BB06089580918800823011F40E94C406E9
:100DF00008950E945D04809189008250833018F428
:100E000082E080939A000E94F206809187008460BD
:100E10008093870008958130A1F4809167008E311E
:100E200081F18951809367008E3118F48EE18093AF
:100E300067000E94F206809187008260809387009D
:100E400008958230F1F480910D0190910E01853664
:100E5000910518F482E390E002C08456904090938C
:100E60000E0180930D0180910D0190910E01C297AA
:100E700030F482E390E090930E0180930D010E9484
:100E8000F90608958130A9F4809167008F3F09F138
:100E900090E049968F3F910511F00CF08FEF809311
:100EA00067000E94F206809187008260809387002D
:100EB0000895823071F480910D0190910E018C594A
:100EC0009F4F90930E0180930D010E9492040E9407
:100ED000F9060895109282000E94C4060E947405CB
:100EE000089580E090E00E94BB06949881E0809392
:100EF00086008093820008959098919895980E941A
:100F0000710708950F931F93082F122F0E945D1FE2
:100F1000882309F048C080918200882309F043C0EB
:100F2000112369F120918800233008F184EF91E0CA
:100F300090938E0080938D00809190008C3030F4DF
:100F4000233011F48F5F05C0882329F0243019F471
:100F5000815080939000809190009FEF899FC00105
:100F600011246CE070E00E94932A60938F00053F8B
:100F7000D1F081E08093970080939A0014C082E0C2
:100F8000809397008091A000882369F01092A000C0
:100F900080919800882321F081E08093990003C01C
:100FA00081E080939B001F910F9108951F93182F4C
:100FB0000E945D1F8823E1F4113089F4809188003C
:100FC0008F5F80938800853011F4109288000E9412
:100FD000C4068091870081608093870009C0123029
:100FE00039F4809189008F5F609183000E947805B9
:100FF0001F9108950F931F93082F162F0E94A81E6C
:10100000112369F0093359F4109282008230C1F043
:101010008032B1F0813089F0803129F40EC00D3F6B
:1010200021F41092820081E00CC0013F69F410921B
:101030008200813011F0803119F40E944E0421C0E9
:1010400082E00E94D6071DC00A3F61F41092820020
:10105000823011F0803211F482E001C081E00E9400
:1010600042070FC0093F11F081E00CC010928200CE
:10107000823011F0803211F482E001C081E00E94E0
:101080000B0780E01F910F910895CF92DF92EF92AE
:10109000FF920F931F93CF93DF9380918200882359
:1010A00009F09AC020918800213009F046C0809153
:1010B00091009091920001969093920080939100FC
:1010C000089709F089C010929200109291008091C7
:1010D0008B00882331F480918C0090E00E94F7040B
:1010E0000AC0823061F420918C008FEF90E0821B67
:1010F00091090E94F70490E00E94BB0609C081306C
:1011000011F0833029F480918C008F5F80938C00E4
:1011100080918C008F3F69F410928C0080918B003D
:101120008F5F80938B00843008F456C010928B0040
:1011300053C08F5F80938C004FC0822F83508230CA
:1011400008F04AC080918D0090918E001816190603
:1011500034F4019790938E0080938D0035C0233036
:1011600029F480918F00882339F426C0243039F582
:1011700080918F008F3F19F180918C008F5F809359
:101180008C00883008F110928C0080918F00233001
:1011900011F4815001C08F5F80938F0020918F00E8
:1011A0008FEF90E0821B91096BEE7FEF0E94A72AE0
:1011B000645F6093900008C01092900003C08CE0C0
:1011C0008093900010928C0080918F0090E00E949C
:1011D000F70490E00E94BB068091930090919400E8
:1011E00001969093940080939300889708F4D4C25A
:1011F000109294001092930080919500882311F032
:101200000E94B305809196008823A1F00E94B30547
:10121000809196000E94A2040E945D040E94C40670
:101220000E947405809187008860809387001092E7
:101230009600B2C280918600882329F01092860021
:101240000E94B305A9C280918200882309F0A4C23C
:1012500080919700813009F041C0109297008091F1
:1012600083008130B9F4A0EBB0E0EFE1F1E083E07E
:1012700001900D928150E1F780EB90E00E94110502
:10128000A2E2B1E0E0EBF0E083E001900D9281504A
:10129000E1F71FC0823009F07FC28091AC008095D9
:1012A0008093B0008091AD0080958093B1008091D3
:1012B000AE0080958093B20080EB90E00E94110513
:1012C000A2E2B1E0E0EBF0E083E001900D9281500A
:1012D000E1F780EB90E00E948F055EC28230A1F5BD
:1012E0001092970080919800882321F080919900B6
:1012F0008823C9F080919A008130E9F480918900B7
:10130000813051F480918A00833019F40E94530691
:1013100012C0843081F007C0882329F48CEA90E061
:101320000E948F0508C06091AC007091AD00809163
:10133000AE000E94060680919A00823011F40E944D
:10134000740510929A0028C280919900882341F177
:101350001092990010922301109222011092240100
:101360000E940223823051F480916B000EC08130C4
:1013700089F489E191E00E949B060EC20E9402233B
:10138000833009F009C280916A00882381F786E1E1
:1013900091E0F1CF823009F0FFC18CE191E0EBCF19
:1013A00080916B008F3029F00E940223823009F473
:1013B000F3C180916A008F3029F00E9402238330AC
:1013C00009F4EAC180919B00882309F44FC0109270
:1013D0009B0080918900813079F40E945D04109215
:1013E0009C0010929D0010929E001092230110927A
:1013F00022011092240137C0823061F40E945D0402
:10140000ACEAB0E0E6E1F1E083E001900D928150BA
:10141000E1F71BC0833061F40E945D04ACEAB0E0E8
:10142000E9E1F1E083E001900D928150E1F70DC018
:101430008430A1F40E945D04ACEAB0E0ECE1F1E09C
:1014400083E001900D928150E1F76091AC007091C2
:10145000AD008091AE000E94060605C00E94B30553
:101460008FEF8093AF000E94F20696C180919A00A0
:10147000813029F480918300882309F08DC1809107
:101480008900813009F088C180918A00813031F56E
:1014900080919C00815080939C008F5F09F07CC1FB
:1014A0008091690080939C0080919F0090E0FC01F6
:1014B000EE0FFF1FE80FF91FACEAB0E0E850FF4F56
:1014C00083E001900D928150E1F76091AC00709142
:1014D000AD008091AE000E9406065CC1823009F02A
:1014E00078C090919D0080916800981708F03DC0E9
:1014F00000E013E031C0802F90E0201778F4FC0169
:10150000EE0FFF1FE80FF91FE055FF4FACEAB0E008
:1015100083E00D9001928150E1F716C0DC01AA0F23
:10152000BB1FA80FB91F80919F0090E0FC01EE0F38
:10153000FF1FE80FF91FA055BF4FE850FF4F83E092
:1015400001900D928150E1F7019FC0011124805557
:101550009F4F0E9411050F5F8091680020919D00B0
:10156000081748F22F5F20939D0090919D00809175
:1015700068009817C1F49F5F90939D0080919F0031
:1015800090E0FC01EE0FFF1FE80FF91FACEAB0E09E
:10159000E850FF4F83E001900D928150E1F78CEA13
:1015A00090E00E94110590919D008091680089173C
:1015B00008F0F2C080919E008F5F80939E00909112
:1015C0006900891708F4E8C010929E0010929D00EF
:1015D000E1C0833059F480919C008F5F80939C0020
:1015E000815009F0D9C00E945306D6C0909169007D
:1015F00020919F00843009F07FC020939D008FE0F0
:10160000989FC001112466E07FEF0E94A72A7B010A
:1016100084E190E0E80EF91EDD2413E0C12E3DC008
:101620008DE990E00E94DB0580919D008C9DC001BA
:1016300011248E01000F111F0C0F1D1FB8016F54D4
:101640007F4F87509F4F4E2D0E94350680919D0001
:101650008C9DC0011124B80160557F4F88509F4F69
:101660004E2D0E94350680919D008C9DC001112455
:101670000E541F4F86509F4FB8014E2D0E943506C5
:10168000DC9CC001112480559F4F0E941105809160
:101690009D008F5F80939D00D39480916800CD2D35
:1016A000D0E0D81608F4BCCFFE01EE0FFF1FEC0F00
:1016B000FD1FACEAB0E0E055FF4F83E001900D92D2
:1016C0008150E1F720919E002E0D20939E0030E086
:1016D0008FEF90E08E199F092817390708F45CC036
:1016E00010929E0080919F008F5F80939F008FE9F2
:1016F00090E00E94DB0550C0892F90E06BEF7FEFF8
:101700000E94A72A8B010D5C1F4F73E0F72E2F9DBF
:10171000C001112487509F4F6DEA70E0402F0E9456
:10172000350680919F008F9DC001112488509F4FE6
:101730006CEA70E0402F0E94350680919F008F9DDB
:10174000C001112486509F4F6EEA70E0402F0E9426
:1017500035066091AC007091AD008091AE000E94A2
:10176000060680919F0090E0FC01EE0FFF1FE80F3E
:10177000F91FE850FF4F91818091AD00981761F4F7
:1017800090818091AC00981739F492818091AE00DD
:10179000981711F40E94CA05DF91CF911F910F9104
:1017A000FF90EF90DF90CF9008950E94FC228093ED
:1017B0008200882321F40E94C4060E9474050895C3
:1017C000FF920F931F93DF93CF930F92CDB7DEB7A6
:1017D000F62E042F1982813041F582B3862B82BB0D
:1017E00040E08091A200802309F041E020E0809158
:1017F000A300802309F021E08F2D61E08E010F5FAF
:101800001F4F0E943E038981882309F0BAC00E94BD
:101810000223182F0E94052340E0111141E020E02F
:10182000811121E08F2D61E0A7C0823051F582B394
:10183000962F9095982392BB40E08091A200802340
:1018400009F041E020E08091A300802309F021E02D
:101850008F2D60E08E010F5F1F4F0E943E03898134
:10186000882309F08EC00E940223182F0E940523AE
:1018700040E0111141E020E0811121E08F2D60E076
:101880007BC08823A9F41091A200142319F082B31D
:10189000862B04C092B3862F8095892382BB0E9439
:1018A0000223082F0E94052360E01123C1F016C017
:1018B0008330D1F41091A200142329F092B3862F23
:1018C0008095892302C082B3862B82BB0E940223AB
:1018D000082F0E94052360E0112309F461E040E035
:1018E000011141E020E045C0843091F40E940223C0
:1018F000823019F482B38F2904C092B38F2D809562
:10190000892382BB0E94022360E0823041F526C019
:10191000853091F40E940223833019F482B38F2919
:1019200004C092B38F2D8095892382BB0E9402232D
:1019300060E08330A1F412C0863019F50E940223C2
:10194000882319F082B38F2904C092B38F2D80951C
:10195000892382BB0E94022360E0811161E040E0A4
:101960008091A200802309F041E020E08091A30053
:101970008023811121E08F2D8E010F5F1F4F0E9468
:101980003E0389810F90CF91DF911F910F91FF90BE
:1019900008958091A90061E041E00E94E00B882356
:1019A00011F08093A1008091AA0062E042E00E94C1
:1019B000E00B882311F08093A1008091AB0060E2DE
:1019C00044E00E94E00B882311F08093A1008091F5
:1019D000A2008093A30080916B008F3021F00E94C1
:1019E0000223823041F080916A008F3051F00E94D2
:1019F0000223833031F481E08093A000809398002B
:101A00000895809198008823A9F080916B008F3011
:101A100021F00E940223823041F480916A008F30CD
:101A200049F00E940223833029F081E08093A000D6
:101A30001092980008950E94C90C0E94D50B089539
:101A4000CF93DF93DC0111968C9111978F3119F4AC
:101A50001092A40036C1803109F043C09091A400D7
:101A6000892F8150833038F5892F90E00197FC0150
:101A7000EE0FFF1FE80FF91FEE0FFF1FE850FF4F9B
:101A8000ED01229683E0099001928150E1F7809167
:101A9000A40090E0880F991F0197FC01EE0FFF1F33
:101AA000E80FF91FE850FF4F159683E00D90019263
:101AB0008150E1F710C0943071F4CAE0D1E0FD012B
:101AC000329683E0019009928150E1F7809187007E
:101AD0008068809387008091A4008F5F8093A4002A
:101AE000F0C0813169F4C6E1D1E0FD01329683E0B6
:101AF000019009928150E1F78091870080610EC0CA
:101B0000823189F4C9E1D1E0FD01329683E0019090
:101B100009928150E1F7809187008062809387006D
:101B20000E947405CEC0833169F4CCE1D1E0FD019F
:101B3000329683E0019009928150E1F7809187000D
:101B40008064ECCF813A69F4CFE1D1E0FD013296B7
:101B500083E0019009928150E1F7809184008260D6
:101B6000AEC0803241F41092820012968C9160E0F7
:101B70000E947805A6C08034B9F412968C9123E0B7
:101B8000829FC001112490930E0180930D01892B37
:101B900031F483E090E090930E0180930D010E9458
:101BA00092040E94F906BCCF813241F412968C91C6
:101BB0008093830080918400816081C0833281F4AE
:101BC00012968C9180938A0010929C0010929D0036
:101BD00010929F0010929E008091840084606FC0DC
:101BE000803329F412968C91809396006AC08038D5
:101BF00071F412968C9180938800809187008160A7
:101C000080938700109282000E94C4065AC08138D7
:101C100061F412968C91809367000E94F206809185
:101C200087008260809387004CC0843841F412960C
:101C30008C918093690080918400886040C08538D1
:101C400029F412968C918093A9000DC0863829F44E
:101C500012968C918093AA0006C0873851F4129690
:101C60008C918093AB000E94C90C809184008061AC
:101C700026C08A3831F512968C9112978F70809316
:101C80006A0012968C9182958F7080936B000E94EF
:101C90000223823021F480916B008F3041F00E944A
:101CA0000223833041F480916A008F3021F481E077
:101CB00080939B0003C081E08093990081E0809332
:101CC0008400DF91CF9108951092870010928400D4
:101CD00089E090E00E94402C809367008BE090E0C8
:101CE0000E94402C8F70809388008F3011F41092E6
:101CF00088008BE090E00E94402C82958F7080934A
:101D000089008F3011F41092890086E191E06AE831
:101D100071E043E050E00E94302C89E191E06DE8F1
:101D200071E043E050E00E94302C8CE191E060E9EA
:101D300071E043E050E00E94302C88EF90E065E7CE
:101D400071E045E150E00E94302C85E090E00E9477
:101D5000402C80938A0082E090E00E94402C90E02A
:101D60008F3F910519F42DEE30E005C09C01220F44
:101D7000331F280F391F30930E0120930D0184E08B
:101D800090E00E94402C0E94A20483E090E00E9418
:101D9000402C8F70809383008F3011F41092830059
:101DA0008FE191E065EE73E043E050E00E94302C5B
:101DB00083E991E00E94402C809369008F3F11F4E9
:101DC00088E703C08B3F18F08AEF8093690089EAA7
:101DD00090E064E971E043E050E00E94302C809193
:101DE000A9008F3F11F41092A9008091AA008F3FA3
:101DF00011F41092AA008091AB008F3F11F4109261
:101E0000AB008AE991E00E94402C8F7080936A00B9
:101E10008AE991E00E94402C82958F7080936B003C
:101E20000E945D040E94D50B80918200882311F0EE
:101E30000E9471070895882371F080E00E94E627D0
:101E400089B78B7F89BF80E090E00E94BB069498A1
:101E50000E94272808950E94EB270E942028809145
:101E60008800823011F40E94C40608958091850094
:101E7000882359F481E08093850088E00E94172828
:101E800080E00E941B0F0E94640E0895CF93DF93A1
:101E9000EC018091A9008130E1F0882329F4809140
:101EA000A20080FD16C00DC0833029F48091A200ED
:101EB00080FF0FC006C0843021F40E9402238230CC
:101EC00041F08091A900853031F40E9402238330D3
:101ED00011F4909801C0909A8091AA008130E1F0AD
:101EE000882329F48091A20081FD16C00DC08330A3
:101EF00029F48091A20081FF0FC006C0843021F434
:101F00000E940223823041F08091AA00853031F492
:101F10000E940223833011F4919801C0919ACE015E
:101F20000E94D7208091A9008130E1F0882329F414
:101F30008091A20080FD16C00DC0833029F48091ED
:101F4000A20080FF0FC006C0843021F40E9402234B
:101F5000823041F08091A900853031F40E94022343
:101F6000833011F4909A01C090988091AA0081303A
:101F7000E1F0882329F48091A20081FF0EC015C0F2
:101F8000833029F48091A20081FD07C00EC0843007
:101F900021F40E940223823041F08091AA00853012
:101FA00031F40E940223833011F4919A01C0919878
:101FB000DF91CF9108950E94C6228823E1F080919D
:101FC000A5009091A60001969093A6008093A5008D
:101FD000855893409CF090916C00913011F4919849
:101FE00001C0919A1092A6001092A50081E0982756
:101FF00090936C00089581E080936C000895809127
:102000008500882309F492C00E945D1F882341F057
:1020100080918600882309F489C00E9445080895AC
:102020000E94DB0F0E945B0380918700882329F4C4
:1020300080918400882309F477C0609189006295BB
:10204000607F809188008F70682B8BE090E00E9409
:10205000582C89E090E0609167000E94582C809194
:102060000D0190910E0163E070E00E94932A82E0DE
:1020700090E00E94582C84E090E0609168000E94FB
:10208000582C86E191E06AE871E043E050E00E945C
:10209000482C89E191E06DE871E043E050E00E9456
:1020A000482C8CE191E060E971E043E050E00E944F
:1020B000482C88EF90E065E771E045E150E00E9430
:1020C000482C85E090E060918A000E94582C609135
:1020D00083006F7083E090E00E94582C8FE191E0C4
:1020E00065EE73E043E050E00E94482C83E991E004
:1020F000609169000E94582C89EA90E064E971E0DF
:1021000043E050E00E94482C60916B006295607F34
:1021100080916A008F70682B8AE991E00E94582CA8
:1021200010928700109284000E9445080895FF9243
:102130000F931F938C010E94E10387E090E065E01C
:102140000E94E020F82E0E940B24F294FF0C90EEE7
:10215000F922880F880F880F8F298095F80182A7B0
:1021600081E084A785E085A716A617A60E94BE2851
:10217000F80183AB0E947C19F80184AB85E380836E
:102180001F910F91FF900895CF93DF93EC010E9470
:10219000200D8981823841F490E08A81811191E09B
:1021A000892F0E940E2415C0883821F48A810E944C
:1021B000C1280FC0893821F48A810E949A1A09C067
:1021C0008B3839F490E08A81811191E0892F0E9447
:1021D0000424DF91CF910895FC018381813261F065
:1021E0008232D9F0823081F583EA91E09093CA047B
:1021F0008093C9048BE308958281882319F081308C
:1022000019F503C085EB91E002C08EEC91E090934C
:10221000CA048093C90489E0089584819581009758
:1022200019F0019789F408C082E191E09093CA0403
:102230008093C90480E4089582E591E09093CA04F4
:102240008093C90481E5089580E00895DF92EF92BC
:10225000FF920F931F93D62EE090C904F090CA040A
:10226000062F10E0B701A8010E94302C0E0D1F1D93
:102270001093CA040093C9048D2D1F910F91FF90F4
:10228000EF90DF9008951F939C01162F80912901F4
:10229000882329F01092290112502E5F3F4F609140
:1022A0002A0170912B0141E06D357407BCF4CB011C
:1022B000810F911D8E55914014F01DE5161BC9012B
:1022C000412F50E00E94482C80912A0190912B01CF
:1022D000810F911D90932B0180932A011F910895E6
:1022E0001F939C01162F80912901882329F01092B9
:1022F000290112502E5F3F4F60912A0170912B01EE
:1023000043E0653E7407BCF4CB01810F911D865EEE
:10231000934014F015EE161BC901412F50E00E94A6
:10232000482C80912A0190912B01810F911D90934F
:102330002B0180932A011F910895FC0180912801AF
:10234000813041F4613091F580810E946E261092B7
:1023500028012CC08230C9F48181882369F4683057
:10236000B1F482818F3F29F481E090E060E00E9427
:10237000692C0E94F6131AC0813049F482818130A1
:1023800009F080E00E94EA2211C0843021F4CF01DC
:102390000E94C4100BC0853021F4CF010E9470113F
:1023A00005C0863019F4CF010E94431181E00895E1
:1023B0000F931F93CF93DF93EC010E9445248881F4
:1023C0008076803209F03CC10981013009F0C8C033
:1023D0008A819B8122E08030920741F48AE994E06F
:1023E0009093CA048093C90488E02BC143E08230F3
:1023F0009407B1F42E813F812538310519F40093FB
:1024000062011EC1C901845B90400C9730F0C90184
:10241000805C90400C9708F013C12093620110C1BA
:102420008150934009F00CC12E813F812436310543
:1024300059F40DE211E0C8010E9497101093CA04EC
:102440000093C90485E3FDC025363105B1F40E942F
:10245000C622882331F080E00E94EA2210922C01EB
:1024600005C081E00E94EA2200932C018CE291E0F9
:102470009093CA048093C904E1C0C9018957904070
:10248000049780F480E48093C5042F5A3F4F36951B
:10249000322F2227379527953093CA042093C904F9
:1024A00088E7CFC0C901885A90400C97A8F480E40F
:1024B0008093C50488EA90E0AC01249FC001259F69
:1024C000900D349F900D1124805496409093CA042F
:1024D0008093C90488EAB5C02639310559F480E4EF
:1024E0008093C50480E895E69093CA048093C9045C
:1024F00080E8A7C0C901845B90400C97A8F480E8ED
:102500008093C50480E390E0AC01249FC001259F27
:10251000900D349F900D11248B5190429093CA04DA
:102520008093C90480E38DC0C901805C90400C9702
:10253000A8F480E88093C5048CE190E0AC01249F6E
:10254000C001259F900D349F900D1124835F94410D
:102550009093CA048093C9048CE173C0822F71C028
:10256000093009F04EC08A819B8152E08030950786
:1025700039F48C819D81892B09F062C081E03DC0D6
:1025800023E082309207A9F590916201913039F4ED
:102590008FE18983CE010E94C41084E025C0892F79
:1025A000845B8C3078F481E08093290180E3989FEC
:1025B000C00111248B51904290932B0180932A01EA
:1025C00085E012C0892F805C8C3080F481E080939C
:1025D00029018CE1989FC0011124835F944190935D
:1025E0002B0180932A0186E08093280110926201DA
:1025F00006C08150934021F582E0809328018FEF3F
:1026000020C0023019F48091270114C00A3031F43F
:102610000E9449248B818093270112C0033031F43A
:102620008B81882369F410926D000BC00B3041F44C
:1026300080916D008093C9041092CA0481E001C0AA
:1026400080E0DF91CF911F910F910895813011F0BB
:1026500090E006C090E0613009F091E081E09827B9
:10266000892F089517BA8FEF88BB1ABA14BA8F98BA
:102670008E988BBB85BB979A969A089521E030E09F
:1026800002C0220F331F8A95E2F727BB209528BB93
:1026900084E18A95F1F70895882311F489B33FC046
:1026A000813021F489B3809584700895823021F4BB
:1026B00089B3809588700895833011F489B335C04B
:1026C000843011F489B30FC0853011F489B315C07B
:1026D000863011F489B31DC0873011F483B319C05B
:1026E000883021F483B3809580720895893011F485
:1026F00083B309C08A3021F483B380958074089530
:102700008B3021F489B38095817008958C3021F449
:1027100080B38095807808958D3021F483B38095BF
:10272000827008958E3021F483B38095807108956E
:102730008F3011F080E0089580B380958074089503
:102740006F927F928F929F92AF92BF92CF92DF92C1
:10275000EF92FF920F931F93CF93DF93782EA92EC2
:102760006B0100E010E081E0882E912C66246394D8
:10277000802F0E943E13C401002E02C0880F991FB3
:102780000A94E2F7E82EB82EB094272D3A2DC9010D
:10279000EC01FF248F2D0E944C13282F98818E2D41
:1027A000892319F0222329F008C0222331F09E2921
:1027B00001C09B219883F6016082F3942196F0E199
:1027C000FF1641F70F5F1F4F0830110589F6DF91A3
:1027D000CF911F910F91FF90EF90DF90CF90BF901E
:1027E000AF909F908F907F906F9008950E94B70652
:1027F00008958A98929A089592988A9A08958B9843
:10280000939A089593988B9A089580936401F8940D
:102810008091A7048F7E8093A7048091A70488608D
:102820008093A70478940895F8948091A7048B7FEF
:102830008093A70478948091630108958091A70400
:1028400090E09695879596958795817008958091EB
:10285000A70490E034E0969587953A95E1F781706A
:1028600008958FEC82BF8091A2049091A304A0915F
:10287000A404B091A5040196A11DB11D8093A204EA
:102880009093A304A093A404B093A5048091A604FC
:10289000833000F50E94FF138091A70480FF23C0BE
:1028A000829BA3C08091A604813031F0813040F03A
:1028B000823009F0F6C006C0839902C08DE096C050
:1028C00082E094C08091A70483FFEBC00E940214B1
:1028D00084E28CC08091A6048A3108F079C080918E
:1028E000A70480FD08C08091A70481608093A7049D
:1028F0000E94F9130895829B76C08091A6048731C7
:1029000040F4803118F58D3061F08F3009F055C0FA
:102910000CC08831E1F1883158F1893109F04DC09E
:1029200049C08091A7048D7F4DC08091A7048B7F03
:102930008093A704839B05C080E88093630181E0B6
:1029400014C0109266011092630137C08091630138
:10295000869580936301839B30C08091630180687A
:1029600080936301809166018F5F8093660125C02B
:10297000839B05C0809166018F5F80936601809183
:10298000660180FD1AC08091A704826010C08399FF
:1029900005C08091A70482608093A7048091A7045A
:1029A00081FD0BC00E9402148091A7048460809373
:1029B000A70403C00E94FF136CC00E94FC13809107
:1029C000A7048E7F8093A7048091A6048F5F0EC01A
:1029D0008091A6048F3208F064C08091A70480FF24
:1029E00010C0829906C00E94FF1381E08093A60464
:1029F00008958091A7048E7F8093A7040E94FC1302
:102A000008958091A70481608093A7040E94F91320
:102A10008091A6048C3228F4853280F48432E1F56A
:102A200007C08D3299F18D32E8F08E32A9F531C0B0
:102A30008091640180936501109266018091650127
:102A400080FF08C00E94FF13809166018F5F809312
:102A5000660102C00E9402148091650186958093F0
:102A600065011AC08091660180FF03C00E940214B4
:102A700002C00E94FF138091A704877F8093A70460
:102A80008091A70480618093A70406C00E94FF1371
:102A900003C01092A60408958091A6048F5F8093CE
:102AA000A60408951092A60481E18093A7040E94D1
:102AB000F9130E94FF1382E00E94D92780E061E3AE
:102AC00074E10E9401288FEC82BF89B7816089BFC1
:102AD0000895282F8F3F31F410926A0181E080938E
:102AE0006F0108958E3F21F08D3F29F410926A0105
:102AF00010926F01089580916F01882351F08091A9
:102B00006A01E82FF0E0E35CFD4F20838F5F809344
:102B10006A0180916B0190916C01019690936C0118
:102B200080936B01883C910524F010926C01109207
:102B30006B0180916D0190916E01E0916B01F091BC
:102B40006C018E179F0759F4009719F487EC90E0F9
:102B500001C0019790936C0180936B010895EC582C
:102B6000FE4F2083089540E020916D0130916E0169
:102B700080916B0190916C012817390709F441E0AD
:102B8000842F089510926E0110926D0110926C01C5
:102B900010926B0110926A0110927001109247021C
:102BA000109248021092490210924A020895282F6A
:102BB000882379F08CEF90E09093730180937201F9
:102BC0001092A2041092A3041092A4041092A504DF
:102BD00002C01092690120937101089580917101E2
:102BE00008950E94B31590E0882309F491E0892F9D
:102BF0000895FF920F931F93182F882309F4A0C004
:102C00008D3B08F09DC0A82FB0E0FD01E651FE4FBE
:102C10000491662309F463C080933C02109247023A
:102C2000109248021092490210924A021092AA048D
:102C3000A55BBD4F8C91F82E81FF2DC0163419F085
:102C40001834F1F50EC08FEF0E94691580EE0E94D6
:102C5000691582E10E94691580EE0E9469158CE772
:102C600027C08DEF0E94691581EE0E94691584E1ED
:102C70000E94691587E70E94691581EE0E94691517
:102C800080EF0E94691584E10E94691580EF0E941F
:102C9000691587E710C082FF02C0802F0CC08FEF3C
:102CA0000E946915F0FE03C080EE0E946915802F16
:102CB0000E9469158EEF0E9469158CEF0E946915BC
:102CC000F5FE40C0809169018823E1F581E08093A1
:102CD0006901173411F40E94A81E8BEF2EC0809159
:102CE0003C02811711F410926A01E12FF0E0E55BDC
:102CF000FD4F808181FF13C0163421F580EE0E94C4
:102D0000691580EF0E9469158CE70E94691580EEB5
:102D10000E94691580EF0E94691582E10BC082FD57
:102D200011C080FF03C080EE0E94691580EF0E94F1
:102D30006915802F0E9469158CEF0E94691502C0E9
:102D400080E001C081E01F910F91FF900895809174
:102D50009704882329F481E0809397040E944229F4
:102D600008951F93162F8E3F11F08093A9040E949F
:102D700005141093AA041F9108950E942B1C089516
:102D80008F929F92AF92BF92CF92DF92EF92FF927B
:102D90000F931F9388E08093AA040E945215EBE4DE
:102DA000F2E0119222E0EB3EF207D9F720ED32E09B
:102DB00006C0FC01E55BFD4F808182608083F901E4
:102DC000849190E02F5F3F4F009799F723ED32E019
:102DD00006C0FC01E55BFD4F808184608083F901C2
:102DE000849190E02F5F3F4F009799F727ED32E0F5
:102DF00006C0FC01E55BFD4F808188608083F9019E
:102E0000849190E02F5F3F4F009799F72CED32E0CF
:102E100006C0FC01E55BFD4F808181608083F90184
:102E2000849190E02F5F3F4F009799F72AE033E0BD
:102E300006C0FC01E55BFD4F808180618083F90164
:102E4000849190E02F5F3F4F009799F729E133E09D
:102E500006C0FC01E55BFD4F808180628083F90143
:102E6000849190E02F5F3F4F009799F70E94C21521
:102E700086E090E00E94402C823011F485E005C08D
:102E8000833011F48AE001C081E0809368018EE60E
:102E900090E00E94A51B80E790E00E94E3280E943A
:102EA0008B1A0E94881F789499249394A5E0AA2EE7
:102EB000B12CC12CD12CF6E98F2E0E94EE1588235F
:102EC00079F08091A2049091A304A091A404B09100
:102ED000A5044597A105B10518F080E00E94D7151B
:102EE0008091A70481FF07C0F8948091A7048D7F8B
:102EF0008093A70478940E941E14882309F4DAC0F2
:102F000080917201909173018C3F910529F00E948C
:102F1000B315882309F4CEC00E941414182F80938F
:102F2000EB0280E00E94D7156091AA04623009F498
:102F300059C0633018F4613039F44EC0663009F47A
:102F4000A5C0673009F457C0133F79F1143F70F4FE
:102F50001E3ED1F01F3E20F41D3E09F0A7C022C046
:102F6000103FE9F0123F09F0A1C010C0163F39F13F
:102F7000173F20F4143F09F099C01AC01E3F61F0BA
:102F80001F3F09F093C005C08EEE92C08AEF64E047
:102F90008FC08AEF68E08CC08091A90489C08AEF55
:102FA00062E086C08AEF66E083C08AEF67E080C097
:102FB0008AEF60E00E94B1160E94A7167BC0909233
:102FC0007200A0927300B0927400C0927500D0920B
:102FD00076000E94C2156AC0153F09F467C08AEFE7
:102FE00061E066C00E94C215112311F060E001C0CB
:102FF00063E08AEF5DC0812F90E09C012076307005
:10300000E5E035952795EA95E1F7209372009C015C
:10301000277030703093ED022093EC02887190702D
:1030200073E0959587957A95E1F79093EF028093F9
:10303000EE0241E050E020E030E004C0440F551FB4
:103040002F5F3F4F28173907CCF34093F20250937C
:10305000F3023093F1022093F0028091EC02909100
:10306000ED029C01429FC001439F900D529F900D25
:103070001124AA2797FDA095BA2F809373009093EF
:103080007400A0937500B093760010C00E94A7163C
:103090008091EB02982F80E090FD84E091FD8160AB
:1030A00092FD82600E94F1040E94C90C8AEF60E0E8
:1030B0000E94B1160E942714882309F4FECE0E94B4
:1030C000EE15882309F0F9CE8091AA04843009F422
:1030D00007C1853030F4882371F0833009F0EDCEDC
:1030E000FDC0883009F401C18C3009F482C08530FC
:1030F00009F0E3CEF8C00E94B315882311F00E94B6
:10310000BD1620916D0130916E0180916B019091FF
:103110006C012817390711F480E014C0C901019629
:1031200090936E0180936D01883C910524F010927C
:103130006E0110926D01E0916D01F0916E01EC58FD
:10314000FE4F8081282F30E030937301209372016D
:103150002B3F310521F481E00E94D715AECE2C3FE4
:10316000310509F4AACE232B61F060E00E94B1166C
:1031700010924702109248021092490210924A029D
:10318000AAC080916A01882309F4A5C02091470252
:10319000309148024091490250914A022F5F3F4FBF
:1031A0004F4F5F4F209347023093480240934902AC
:1031B00050934A0280917200889DC00111248A5167
:1031C0009F4FAA2797FDA095BA2F281739074A07BE
:1031D0005B070CF480C010924702109248021092D4
:1031E000490210924A02109270018CE08093AA0466
:1031F00072C080917001882311F40E94BD168091E5
:103200006A01882321F00E94B315882359F4109293
:10321000AA0410924702109248021092490210929A
:103220004A024BCE8091470290914802A0914902F8
:10323000B0914A020197A105B10521F0809170017A
:103240008823A9F090917001E92FF0E0E35CFD4F35
:1032500080819F5F909370016CE00E94B116609135
:103260006A01809170010E94872A90937001E0901A
:103270004702F09048020091490210914A020894D6
:10328000E11CF11C011D111D60917300709174000F
:1032900080917500909176002AE030E040E050E0A7
:1032A0000E94682A6D5F7F4F8F4F9F4F209168016A
:1032B00030E040E050E00E94682A9B01AC01C80168
:1032C000B7010E94DC2A6093470270934802809302
:1032D000490290934A020E94EF22EFCD82E008C09B
:1032E0008BEA65E006C083E803C00E94C2158AEA43
:1032F00060E00E94B116E1CD8091140381500895E1
:1033000080917700089590911603891711F090E04D
:1033100006C090E080911703681709F491E0892FA7
:1033200008958FE7809316038093170308958E3FC7
:1033300011F481E00EC0883F11F482E00AC0863F9C
:1033400011F483E006C08B3F19F4109278000895C1
:1033500083E680937800089590E08091780083362A
:1033600009F091E0892F089584E093E0089584EFB7
:1033700092E008950E94B419A4EFB2E0FC0180E14C
:1033800001900D928150E1F781E080937700E4E0B5
:10339000F3E08081882319F01092770005C0319600
:1033A00083E0E431F807A9F70E948019882311F01F
:1033B0000E94C41D0895DF93CF930F92CDB7DEB75F
:1033C000198284E093E0BE016F5F7F4F0E94A013DB
:1033D0008981882319F01092150309C09091150373
:1033E00080911403891718F09F5F9093150320E0D4
:1033F0009091150380911403981709F421E0822F0E
:103400000F90CF91DF9108950E94DB1908950E94DB
:10341000BE28882319F00E94BE2808950E94022326
:10342000882311F00E94022308958F929F92AF92F9
:10343000BF92CF92DF92EF92FF920F931F93DF9391
:10344000CF930F92CDB7DEB780917800833609F025
:1034500054C00E94071AD82E0E94B4197C0100E0C3
:1034600081E0A82EB12C8D2D82508983F7018081B7
:103470008823D9F188249924C82C9501082C02C0EE
:10348000220F331F0A94E2F7F7018081822331F182
:103490008D2D602F482D0E94241F182F0E94FF227F
:1034A000882329F4812F61E00E94F91D182F1E3F07
:1034B00011F481E00EC0183F11F482E00AC0163FFB
:1034C00011F483E006C01B3F49F4F981F23030F477
:1034D00080E0C0921603009317030FC00894811C6C
:1034E000911C88E08816910439F60F5F0894E11C5E
:1034F000F11C003109F0BACF8D2D0F90CF91DF91E3
:103500001F910F91FF90EF90DF90CF90BF90AF9001
:103510009F908F90089580E1E4EFF2E0DF01982F13
:103520001D929A95E9F7E4E0F3E0DF011D928A9598
:10353000E9F70895682F6F5F6093140389E991E0BC
:103540000E94582C809114038D5F80931503089579
:1035500089E991E00E94402C809314038F3F19F475
:103560008AE0809314030E943213809114038D5FCC
:10357000809315030E9491190E948B1A089586E08A
:1035800084BD8091AB049091AC0401969093AC04FF
:103590008093AB040895809118030895982F8C3080
:1035A00048F080E3989FC00111248B5990400E94FD
:1035B000402C07C0E8EA8E9FF0011124E050F84942
:1035C000849190E081508E3F08F491E0892F089516
:1035D00080E00E94F4270895109218030E94E81AD0
:1035E0000895EF92FF920F931F931092AC041092E4
:1035F000AB0410921A031092190398EAE92E80E3A3
:10360000F82E0CE14091790020911B0330911C03AE
:103610004C3020F02C3431053CF003C0283A310501
:103620001CF00E94EC1A58C020911B0330911C031F
:103630004C3018F1C90101962033310574F0909394
:103640001C0380931B0323573140409FC00111246A
:10365000820F931F0E94402C0DC090931C038093F7
:103660001B032B5930404F9DC0011124820F931F23
:103670000E94402C282F10E017C04E9DA00111245D
:10368000C9010196240F351F20503849F9012491B2
:10369000019690931C0380931B030197480F591FB9
:1036A00040505849FA011491822F81508E3F80F486
:1036B000822F0E946021912F9F7709F4A3CF8BE482
:1036C000989FC001112490931A038093190304C09A
:1036D0000E94EC1A0E94B0211F910F91FF90EF9071
:1036E000089580911803882369F02091AB043091EC
:1036F000AC048091190390911A032817390714F02C
:103700000E94F11A0895982F80911803882391F44C
:1037100081E0809318039093790010921A0310921D
:10372000190310921C0310921B030E94F11A85B515
:10373000836085BD08950E94F92785E06FEB7AE1EB
:103740000E9401280E94E81A089590931E03809316
:103750001D030895E0911D03F0911E030190F08177
:10376000E02D099508950E94AA1B0895DF92EF921B
:10377000FF920F931F93182F062FF42EE22E642F23
:10378000422F202F0E9482070E94071AD82E8F2DC9
:103790006E2D0E9483198823E9F0002321F40E94F2
:1037A000AC198823B9F08D2D6E2D4F2D0E94241F4A
:1037B000182F002331F061E00E94F91D0E94971933
:1037C00005C080E00E9497190E949119812F865DA3
:1037D0008831D8F51123C9F1812F602F0E941F2451
:1037E000182F6F2D4E2D202F0E943323D82E812F7E
:1037F000602F0E94131E812F602F0E94B91E00238C
:1038000011F00E94561E0E94A51F882349F0812FA7
:103810006F2D4E2D202F0E94AE1F182F8823A9F048
:10382000DD2099F0812F0E94471F882371F4002327
:1038300029F0812F0E943920882339F4812F60E0FC
:103840000E94F91D602F0E94AA1B1F910F91FF90EB
:10385000EF90DF9008952F923F924F925F926F9278
:103860007F928F929F92AF92BF92CF92DF92EF9210
:10387000FF920F931F93DF93CF9300D000D0CDB76B
:10388000DEB70E9441228823E1F00E94B321882301
:10389000C1F40E949022092F813019F4892F61E030
:1038A0000EC0892F8756883040F40E94A81E182F1A
:1038B000802F0E94561F182321F4802F60E00E9461
:1038C000AA1B0E94041A882309F4BFC00E94151A7B
:1038D00089830E94B419182F092F0E94B7191C015F
:1038E000212F302FC9012C019981892F90E044E0CC
:1038F000880F991F4A95E1F7815E9C4F9C838B83CB
:103900003FE1832E33E0932EAA24BB24AA82F10147
:103910008081882329F4F2018081882309F47DC005
:10392000CC24DD246C2C21E0E22EF12C0C2C02C0E6
:10393000EE0CFF1C0A94E2F77E2CF20110811E218E
:1039400009F011E090E0F1018081872109F091E018
:10395000911709F45AC00E94C622882341F011230E
:1039600009F453C08A81662D0E94C9226CC08981E6
:103970006A81462D0E94241F082F612F0E94112367
:10398000802F0E942123882309F43FC0112341F096
:10399000EB81FC81808187298083802F61E031C0A9
:1039A000F401808190E08E219F21892B11F010E09D
:1039B00013C0F401808990E08E219F21892B11F0A2
:1039C00011E00AC0F40180A190E08E219F21892B93
:1039D00011F4198101C012E0812F6A81462D0E94E5
:1039E000241FE12FF0E094E0EE0FFF1F9A95E1F71E
:1039F000EA0DFB1DE15EFC4F70949081972190834E
:103A000060E0462D2A810E94B61B0894C11CD11C7F
:103A1000F8E0CF16D10409F085CF0894A11CB11CA1
:103A20000894211C311C0894411C511C8B819C81E1
:103A300001969C838B830894811C911C90E1A916AC
:103A4000B10409F063CF0E94BA190F900F900F9044
:103A50000F90CF91DF911F910F91FF90EF90DF902A
:103A6000CF90BF90AF909F908F907F906F905F901E
:103A70004F903F902F900895982F8091500380FF92
:103A80000FC0993611F49AE60BC09A3611F499E6F4
:103A900007C09D3611F49EE603C09E3609F49DE6EC
:103AA000892F089580E00E949E1E882319F01092AD
:103AB000510308950E94A81E982F80914F039817D4
:103AC00091F09C3221F0903E11F0943A41F4109222
:103AD00055031092540382E08093510302C0109268
:103AE000510390934F03409151034423B1F18091CE
:103AF000540390915503019690935503809354037A
:103B000020915203309153032817390734F542307E
:103B1000E1F482E390E00E94460F8091500380FF21
:103B200004C08E7F8093500310C081608093500347
:103B300084EF91E02CE231E0F9013197F1F7019740
:103B4000D9F784E690E00E94460F88E090E060910B
:103B500050030E94582C10925103089588E090E081
:103B60000E94402C809350038F3F11F41092500319
:103B700088E893E10E94DA289093530380935203DC
:103B80000895809157030895109256031092570399
:103B9000109258030895E82FF0E0E651FE4CEE0F26
:103BA000FF1FE4918E2F0E94211F0895E82FF0E05F
:103BB000EE0FFF1FEB52FC49E4918E2F0E94211F54
:103BC00008950F931F93082F865D883110F0102FF2
:103BD0000CC0802F0E94CB1D182F0E94471F8823E6
:103BE00021F0802F0E94D61D182F812F1F910F9139
:103BF00008951F93182F865D883190F4662341F451
:103C00000E94C11D882361F080915603811721F421
:103C1000812F0E94CB1D03C0812F0E94E11D182F10
:103C2000812F1F9108951F93182F865D662399F0A9
:103C3000883168F40E948019882349F080915603E6
:103C4000882329F410935603109257032DC081E066
:103C50008093570329C0883138F5109156031123FA
:103C600019F10E94C11D8823F9F4812F0E94D61DED
:103C7000182F0E946021812F0E946021109256030C
:103C800010925A03109259030E94A51F882361F0D5
:103C9000812F60E040E021E00E94AE1F812F60E0B4
:103CA00040E020E00E94AE1F1F9108951F931091E5
:103CB0005603112311F10E94C11D8823F1F0809158
:103CC00058038823D1F4812F0E94CB1D61E00E940C
:103CD000B31B0E94A51F882349F0809156030E94C0
:103CE000CB1D60E040E021E00E94AE1F10925A031D
:103CF0001092590381E0809358031F910895809199
:103D000056038823A9F080915703882389F4809172
:103D1000590390915A03019690935A038093590343
:103D2000855F914028F081E0809357030E94561EE2
:103D3000089580916303811181E00895863010F029
:103D400080E00895E82FF0E0E55AFC4F8081089567
:103D500080916103089510926203109261031092A2
:103D6000630386E0EBE5F3E0DF011D928A95E9F756
:103D700008950F931F93162F0E94E11D082F875659
:103D8000112329F1883038F410916103802F0E94AB
:103D9000561F182B25C0809163038F5F80936303A8
:103DA000809162038630A8F50D3B98F58BE593E092
:103DB000602F0E9408218F5F9F4F59F58091620309
:103DC000E82FF0E0E55AFC4F00838F5F20C0883079
:103DD00050F410916103802F0E94561F8095182384
:103DE0001093610316C08091630381508093630335
:103DF0008BE593E0602F0E940821BC0197FD09C06C
:103E00008BE593E00E942221809162038150809390
:103E100062031F910F910895E82FF0E0E653FF4FE2
:103E200094E0EE0FFF1F9A95E1F7E60FF11D83E096
:103E3000EE0FFF1F8A95E1F7E40FF11DE4918E2F3D
:103E400008950E943C1D0895FF920F931F93182F11
:103E5000062FF42E0E94A51F882361F0812F602F6A
:103E60004F2D0E940C1F182F0E94971F882341F08E
:103E700010E006C0812F602F4F2D0E940C1F182FBD
:103E8000812F0E94211F1F910F91FF900895982F5D
:103E9000EEEDF1E08491981711F481E008953196E8
:103EA00081E0E23EF807B1F780E00895E82FF0E006
:103EB000E558FE4FE4918E2F089580916403089594
:103EC00080916403882311F40E947C0781E0809331
:103ED00064030895809164038823C9F48091650385
:103EE00090916603019690936603809365038053D7
:103EF000954768F0109266031092650380916703FE
:103F00008F5F809367038A3011F40E94601F0895C9
:103F100080916403882311F00E941B0D10926403AA
:103F2000109266031092650310926703089590E063
:103F30008D5B883108F491E0892F089590E0895CC9
:103F40008C3008F491E0892F0895809169030895D9
:103F50001092690381E08093DE0308950F931F930D
:103F6000022F60E00E94F91D182F8D3B80F5002381
:103F700069F080916803863250F58F5F8093680303
:103F80008CE693E0612F0E9454210EC08CE693E0F2
:103F9000612F0E940821BC018FEF6F3F7807B9F0B5
:103FA0008CE693E00E94222180916B03E82FF0E0E1
:103FB000EE56FC4F10838F5F80936B038C3440F080
:103FC00080916903882321F00E94A81F01C010E09E
:103FD000812F1F910F9108959CE4E2E9F3E0DF0146
:103FE000292F1D922A95E9F710926B03ECE6F3E076
:103FF000DF011D929A95E9F71092680380936A0396
:1040000081E0809369031092DE0388EC90E00E94C7
:10401000460F88EE93E02CE231E0F9013197F1F799
:104020000197D9F784E690E00E94460F08958091A9
:104030006A038C30E8F460E3869FB00111246B556D
:104040007E4F82E993E040E350E00E94482C60916B
:104050006A038CE1689FB0011124635F7F4F82EC9B
:1040600093E04CE150E00E94482C8FEF80936A036C
:1040700008951F93182F0E94971F8823C9F00E944C
:104080004122882361F41D5B812F0E94CE1A882370
:1040900071F00E944B22812F0E94831B08C00E9456
:1040A000AD21882321F00E946E220E94B02181E080
:1040B0001F9108958F929F92AF92BF92DF92EF92DD
:1040C000FF920F931F93DF93CF930F92CDB7DEB77D
:1040D0008C01DD244E010894811C911C80E6A82EE1
:1040E00080E0B82E33C000D000D000D0EDB7FEB7CE
:1040F0003196ADB7BEB712969C928E921197B3824D
:10410000A282800F911FDC018C91848315820E9412
:10411000AE2B8DB79EB706960FB6F8949EBF0FBE16
:104120008DBF89810E94C2217C01882319F088E615
:104130000E9460218F2D0E9460218F2D0E9460219E
:10414000EE2019F088E60E946021D3948D2D90E036
:10415000F80101900020E9F73197E01BF10B8E1771
:104160009F0708F20F90CF91DF911F910F91FF9061
:10417000EF90DF90BF90AF909F908F9008958091C7
:10418000DE03882399F00E948019882379F00E9429
:104190004122882359F41092DE030E9417208FEFEA
:1041A00080936A0384E690E00E94460F089528EB0E
:1041B0003BE003C0F9013197F1F70197D9F7089572
:1041C0001F93162F0E94402C90E002C09595879572
:1041D0001A95E2F7809581701F9108950F931F93B0
:1041E000162F042F0E94402C21E030E002C0220F45
:1041F000331F1A95E2F7622F60956823002309F4B4
:10420000622B87E090E00E94582C1F910F91089537
:10421000CF93DF93EC01DC010D900020E9F71197BB
:10422000A81BB90B70E0AD010E94392B009719F45F
:10423000EFEFFFEF03C0FC01EC1BFD0BCF01DF91A3
:10424000CF9108959B01FC0101900020E9F731977F
:10425000E81BF90B6F5F7F4F680F791FE21BF30BB1
:10426000820F931FAF010E944F2B0895FF920F936F
:104270001F93F42E9B01DC010D900020E9F78C01C7
:10428000060F171FA81BB90BA61BB70B2F5F3F4FBD
:10429000820F931FB801AD010E944F2BF801F082ED
:1042A0001F910F91FF900895462FDC010D90002083
:1042B000E9F71197A81BB90BBD010E94362108959B
:1042C000282F80910E0490910F04019690930F0473
:1042D00080930E048435910524F010920F041092FF
:1042E0000E0480910C0490910D04E0910E04F09165
:1042F0000F048E179F0759F4009719F483E590E097
:1043000001C0019790930F0480930E040895EF5E0F
:10431000FB4F2083089520910C0430910D0480916F
:104320000E0490910F042817390711F480E00895C6
:10433000C901019690930D0480930C048435910576
:1043400024F010920D0410920C04E0910C04F091F2
:104350000D04EF5EFB4F8081089580911004089555
:1043600010921004089540E020910C0430910D0447
:1043700080910E0490910F042817390709F441E049
:10438000842F0895982F81568A3118F4292F2D559E
:1043900010C0892F81548A3120F4292F2D5332E007
:1043A00009C0892F8153893010F020E002C0292FE5
:1043B000235130E0892F90E0FC01B097EF35F105F3
:1043C00008F048C0E65DFF4FEE0FFF1F0590F49127
:1043D000E02D09942EE141C02FE13FC020E23DC015
:1043E00021E23BC022E239C023E237C024E235C0DB
:1043F00025E233C026E231C027E22FC02CE22EC0D6
:104400002DE22CC02DE229C02EE228C02EE225C0CC
:104410002FE224C02FE221C020E320C020E31DC0F2
:1044200021E31CC021E319C023E318C023E315C016
:1044300024E314C024E311C025E310C025E30DC01C
:1044400026E30CC026E309C027E308C027E305C024
:1044500028E304C0222311F428E332E0832F922FB3
:10446000089527E2FBCF0F931F930FED13E090E029
:10447000B8014AE050E00E94612BC8011F910F91E2
:1044800008950E94B321882319F481E090E00895F3
:104490000E94CB1A08950E94B321882339F08AE242
:1044A000E2EEF3E0DF011D928A95E9F7089510929C
:1044B0000F0410920E0410920D0410920C0484E567
:1044C000E1E1F4E0DF011D928A95E9F78AE2E2EE8C
:1044D000F3E0DF011D928A95E9F70895CF93DF930A
:1044E00010920F0410920E0410920D0410920C04FE
:1044F00084E5E1E1F4E0DF011D928A95E9F7C2EE7F
:10450000D3E08881882339F00E9460212196B4E0AD
:10451000CC30DB07B1F70E94EC1ADF91CF91089500
:104520001F93CF93DF930E948B21182F0E94971F18
:10453000882361F00E946E22812F8D5B0E94831B75
:1045400081E08093100482E010E01BC0C2EED3E053
:10455000112331F48AE2FE0111928A95E9F70AC02B
:10456000CE01612F0E940821BC0197FD05C0CE013C
:104570000E94222182E005C0CE01612F0E945421B9
:1045800081E0912FDF91CF911F9108958091650473
:104590000895EF92FF920F931F93E82EF62E03E6F5
:1045A00010E0C8010E945A208F2D0E9433220E94E1
:1045B0005A2085E690E00E945A208E2D0E943322D8
:1045C0000E945A20C8010E945A201F910F91FF900B
:1045D000EF900895809365040E94C90C08950E948D
:1045E000BF200E94521D0E94711B0E94DC230E946A
:1045F0007F1E0E94FF0F089580916B0408958091A3
:104600006604089580916704089580916804089570
:10461000FC018081823011F483E001C081E080835D
:104620000895662369F0843F29F48CE694E00E94A3
:1046300008230895833F21F48DE694E00E94082327
:104640000895982F80916C04823059F080916D0408
:10465000823029F49A3629F080E09E3619F081E004
:10466000089580E008950F931F93022F0E94E11D8B
:10467000182F0E94471F882309F07AC0002309F4ED
:1046800069C01C3F41F0173F31F0809166048823D8
:1046900041F11A3231F580916704809368041A322F
:1046A00099F0882319F41C3F59F404C01C3F21F4ED
:1046B000823051F082E005C0173F31F4833021F0A1
:1046C00083E08093670402C0109267040E94C90CC3
:1046D000809167048093680480E01A3209F049C031
:1046E00041C080916904882361F0812F0E949E1F40
:1046F000882339F0195C10937A0081E080936A0472
:1047000037C0193221F481E08093660432C0153F2E
:1047100071F480916B0491E0892780936B04882366
:1047200019F40E946A0724C00E94710721C0123F39
:1047300059F40E94A51F882319F00E94A81F18C0D1
:1047400081E08093690414C0812F609166040E9407
:10475000FA070FC01C3F61F0173F51F0193221F4E6
:104760001092660481E005C0123FE1F710926904DF
:1047700080E01F910F910895FC0180818130A1F4A8
:1047800082E0808382E390E00E94460F84EF91E014
:104790002CE231E0F9013197F1F70197D9F784E67E
:1047A00090E00E94460F0895833029F4108284E639
:1047B00090E00E94460F08950E948019882341F0DE
:1047C0008CE694E00E94BC238DE694E00E94BC231A
:1047D0000E948019882379F080916A04882359F017
:1047E00010926A0480917A008F3F29F00E94EC1F9A
:1047F0008FEF80937A00089587E090E065E00E9453
:10480000E02080936B040895482F87E090E065E0F6
:104810000E94EE20089580916F040895482F8093A0
:104820006F0487E090E063E00E94EE20089587E047
:1048300090E063E00E94E02080936F0408950F935E
:104840001F93182F062F893229F40E940B248823E6
:1048500019F417C0803BA9F4002351F00E94A81E50
:10486000823011F0803261F481E080936E0406C0E2
:1048700080916E04882321F010926E0415E301C02C
:1048800019E2812F1F910F91089581E08093970481
:10489000089581E0809374041092750480937004ED
:1048A0000895982F81578A31B0F481E0809376047F
:1048B000662369F0E92FF0E0EE0FFF1FE855FE4F89
:1048C0008591949190937804809377040895109241
:1048D0007804109277040895982F81578330B0F4AC
:1048E00081E080937904662369F0E92FF0E0EE0F10
:1048F000FF1FE855FE4F8591949190937B04809320
:104900007A04089510927B0410927A04089580919D
:104910007104811181E008950F931F93082F815036
:104920008C3B08F059C080578A3108F455C081E0AB
:1049300080937104802F8756662341F1883038F4C4
:1049400010917204802F0E94561F182B28C080914E
:104950007304863008F040C0802F8D58823128F4CF
:10496000E02FF0E0EF5CFD4F04918EE794E0602FC4
:104970000E9408218F5F9F4F79F58EE794E0602FAA
:104980000E945421809173048F5F24C0883050F4BA
:1049900010917204802F0E94561F80951823109347
:1049A00072041AC0802F8D58823128F4E02FF0E075
:1049B000EF5CFD4F04918EE794E0602F0E94082188
:1049C000BC0197FD09C08EE794E00E9422218091EE
:1049D00073048150809373041F910F9108951F9366
:1049E000182F662351F061E00E948C24812F61E032
:1049F0000E945124812F61E009C060E00E948C2454
:104A0000812F60E00E945124812F60E00E946C247D
:104A100081E01F9108952F923F924F925F926F9283
:104A20007F928F929F92AF92BF92CF92DF92EF923E
:104A3000FF920F931F93DF93CF9300D00F92CDB7C8
:104A4000DEB782B3837F82BB81B3837F81BB0E9449
:104A5000802688E991E00E94402C882351F48B9AAB
:104A600020E048EB5BE0A895CA010197F1F72150DF
:104A7000D1F78B988BE790E00E94A51B8DE790E023
:104A80000E94E32886E0EEE7F4E0DF011D928A95BC
:104A9000E9F7109273041092720410927804109245
:104AA00077047894BB24EE24FF24CC24DD2473E027
:104AB000772E64E0662E5AE9852E54E0952E48E064
:104AC000A42E32E0232E312C280C391C2EE7422E46
:104AD00024E0522E809197048823A9F4B1E1CB16EB
:104AE000B7E2DB0624F40894C11CD11C0CC0F89476
:104AF0008B9A2CE088E190E00FB6F894A89581BDE0
:104B00000FBE21BDFFCF8091C804882351F01092C1
:104B1000C804109270040E94881FBB24EE24FF2456
:104B200020C080917004882339F0E1E0E093C8044C
:104B30000E94881FBB2415C0BB2099F487010F5F1A
:104B40001F4FF9EEEF16F3E0FF0654F00E948019B4
:104B5000882331F00E94601F7801BB24B39401C008
:104B600078010E94BB268091B80484FF6CC08091BC
:104B70007604882331F480917904882311F40E940B
:104B80002B1C80917104882309F441C08091970403
:104B9000882309F49FCFBB2001F1F89422B331B3ED
:104BA000929A939881B38C6081BB88EE93E0ECE29B
:104BB000F1E03197F1F70197D1F782B3862582BBF7
:104BC00082B38A2582BB88E293E20197F1F722BB88
:104BD00031BB7894109271047DCFD401EA2D1D92DF
:104BE000EA95E9F78091720480939A0410929B04ED
:104BF00040917304C101B20150E00E94462B8AE942
:104C000094E068E00E94B626109271041AC0809168
:104C10007404813081F4F2E0F0937404D401EA2D3D
:104C20001D92EA95E9F78AE994E068E00E94B626C9
:104C30000E948B1A06C080917504823011F4709224
:104C400075040E94EF228091E50484FF24C08091C6
:104C50007604882371F080917704909178047982AA
:104C60009B838A83CE01019663E00E94B126109255
:104C7000760480917904882371F080917A04909170
:104C80007B0469829B838A83CE01019663E00E9444
:104C9000B1261092790480917404823009F01ACF01
:104CA00080917C0490917D049C012F5F3F4F309355
:104CB0007D0420937C04883C910519F40E944229CC
:104CC00009CF293C31050CF405CF89EC90E0909395
:104CD0007D0480937C0470927404FCCE0E94F104E5
:104CE0000E94C90C80917504882319F482E0809396
:104CF000750408958BE48093B9048093E6040895C5
:104D000085B7886085BF8BB780688BBF0E947A2685
:104D10008AE58093B8048093E50408951F93CF93A8
:104D2000DF93DC01162FEA01888184FF05C08981A9
:104D300098E88927898302C08AE58883AE014E5F9F
:104D40005F4FFA01212F8D9181932150E1F7CA0124
:104D5000612F0E94F0011C5F1883DF91CF911F919A
:104D6000089545EE54E00E948E26089548EB54E0E5
:104D70000E948E2608951F93CF93DF936091CB04FA
:104D8000635067FDAEC08091C704CCE0D0E0C81B83
:104D9000D109C153DB4F8091C6048D3209F08EC01A
:104DA000683009F09CC083EC8093AD048AE5809361
:104DB0007F001092C5048881807629F0CE010E9480
:104DC000D811282F68C09A811092B604898188234F
:104DD00031F41092B70486EB94E022E058C085309D
:104DE00019F49093CC0450C08630D1F58B8181307A
:104DF00031F489B78B7F89BF8FE493E01DC0823087
:104E000029F18330F9F48A81882341F48DE193E01C
:104E10009093CA048093C90424E01EC0813041F4F9
:104E200081E293E09093CA048093C9042CE114C0FA
:104E3000823089F48DE393E09093CA048093C9048F
:104E400022E10AC0813211F0823229F4CE010E949F
:104E5000EC10282F01C020E080E48093C5041BC023
:104E6000883019F48EEC94E009C0893019F49093DD
:104E7000CE040AC08A3021F486EB94E021E007C01A
:104E80008B3011F40E947A2686EB94E020E0909318
:104E9000CA048093C9042F3F39F4888187FD2E818D
:104EA00080E88093C50406C08F81882319F48E8121
:104EB000821708F0822F8093800011C08091C50472
:104EC00087FF0DC0CE010E949D118F3F21F48EE11E
:104ED00080937F0004C0882311F01092800010920C
:104EE000CB0480917F0084FF56C0809180008F3F6B
:104EF00009F451C0182F893008F018E0811B809305
:104F000080008091AD0498E889278093AD04112337
:104F100079F18091C50487FF07C08EEA94E0612F84
:104F20000E942611182F22C02091C9043091CA0472
:104F300086FF0AC0F901912FAEEAB4E084918D9307
:104F400031969150D9F708C0D901912FEEEAF4E0DB
:104F50008D9181939150E1F7C90101961150810F14
:104F6000911D1F5F9093CA048093C904193068F49F
:104F70008EEA94E0612F0E94F001612F6C5F6C302B
:104F800041F08FEF8093800004C08FEF809380000A
:104F90006EE160937F0094E180B38C7031F49150A6
:104FA000D9F71092CC041092C404DF91CF911F91D5
:104FB000089593B7987F982B93BF089582E00E943D
:104FC000D92712BE89B7816089BF08959EB5987FA1
:104FD000982B9EBD089582E00E94E6271DBC1CBC54
:104FE00089B7846089BF089595B5987F982B95BD42
:104FF000089584E00E94F42714BC89B7806489BFB7
:105000000895883040F4E82FF0E0EE0FFF1FEC57D2
:10501000FB4F718360830895883040F4E82FF0E0FF
:10502000EE0FFF1FEC57FB4F1182108208958FB5D2
:105030008D7F8FBD8FB581608FBD19BC18BC089561
:105040008FB580628FBD8FB58F7E8FBD08958FB570
:105050008F7D8FBD8FB58F7E8FBD089599BD88BD23
:10506000089578941F920F920FB60F9211242F93E8
:105070003F934F935F936F937F938F939F93AF93E0
:10508000BF93EF93FF93789480918404909185046B
:10509000892B29F0E0918404F09185040995FF9112
:1050A000EF91BF91AF919F918F917F916F915F91A0
:1050B0004F913F912F910F900FBE0F901F90189519
:1050C00078941F920F920FB60F9211242F933F9353
:1050D0004F935F936F937F938F939F93AF93BF9300
:1050E000EF93FF9378948091860490918704892BA5
:1050F00029F0E0918604F09187040995FF91EF91E2
:10510000BF91AF919F918F917F916F915F914F91DF
:105110003F912F910F900FBE0F901F90189578948C
:105120001F920F920FB60F9211242F933F934F931C
:105130005F936F937F938F939F93AF93BF93EF93FF
:10514000FF93789480918E0490918F04892B29F09D
:10515000E0918E04F0918F040995FF91EF91BF913A
:10516000AF919F918F917F916F915F914F913F91FF
:105170002F910F900FBE0F901F901895809194045F
:105180000895682F8093940487E991E00E94582C39
:10519000089587E991E00E94402C809394048F3F0A
:1051A00011F41092940408958D98959A08958D9A0B
:1051B000959808959C0180918100882311F435957C
:1051C0002795C901089590939904809398040895B0
:1051D000E0919804F09199040190F081E02D0995F7
:1051E0000895F8940E94EE0410929604109295048B
:1051F0001092970408951F93182F0E94A81A112344
:1052000099F010E0812F0E940C281F5F1730D1F712
:1052100089B78E7F89BF89B78B7F89BF89B78F7B1D
:1052200089BF0E94D42802C00E94D7281F910895E8
:105230008CE090E00E94402C809381000E94AE1D83
:105240000E94FC230E94C9280E9417240E94AB1EC2
:1052500080918100882361F40E94F12882E390E02C
:105260000E94460F80E00E94FB280E94C01607C0E3
:105270000E94F12881E00E94FB280E940B2581E01A
:1052800090E008950E94DA030E94360F0E949B1B53
:105290000895ABE0B0E0EFE4F9E20C94FB2A5C0186
:1052A0004B017A01FC0117821682838181FD08C0BF
:1052B0006FEF7FEF08C142E050E0E40EF51E04C03E
:1052C0003E010894611C711CF501D380F401D3FCEC
:1052D0008591D3FE81914F01882309F4F1C0853275
:1052E00059F4D3FC6591D3FE61914F01653219F0F9
:1052F000062F10E01BC085E290E02BC0002309F4CC
:10530000DFC088E693E0602F70E00E942E2B892B8F
:1053100039F4033211F4106103C00C3661F41068E3
:10532000F401D3FC0591D3FE01914F0117FFE6CFA5
:10533000002309F4C5C081E693E0602F70E00E946D
:105340002E2B892B51F044E050E0E40EF51E8FE344
:1053500090E0B5010E94822BB7CF033629F00337C6
:1053600079F00335F1F40BC087010E5F1F4FF70191
:1053700080819181B5010E94822B7801A5CF1160B7
:10538000F701C080D18004C090E0B5010E94822B5B
:10539000F60110FD859110FF81916F018823A1F71F
:1053A0008ACF043611F0093639F517FF08C0F70126
:1053B000208131814281538184E090E00AC0F7016D
:1053C000808191819C01442737FD4095542F82E0D4
:1053D00090E0E80EF91E1F7E57FF08C050954095DB
:1053E000309521953F4F4F4F5F4F1064CA01B9016F
:1053F000A3012AE030E034C00037A9F0013730F4CF
:105400000835B1F00F3609F05BC006C0053739F03A
:10541000083709F055C008C028E030E00CC01F7EF6
:105420002AE030E008C01061146220E130E003C0DF
:10543000146020E132E017FF08C0F701608171813C
:105440008281938144E050E008C0F701808191811E
:10545000BC0180E090E042E050E0E40EF51EA301C4
:105460000E94D22BD82ED618012F10E006FF05C0BF
:105470008DE290E0B5010E94822B04FF15C0FE0171
:10548000ED0DF11D8081803379F080E390E0B5016E
:105490000E94822B02FF08C000721070C801885A57
:1054A0009F4FB5010E94822BDA94F301ED0DF11D9F
:1054B000808190E0B5010E94822BDD20A9F704CF06
:1054C000F50166817781CB012B96EEE00C94172BCA
:1054D000629FD001739FF001829FE00DF11D649FD8
:1054E000E00DF11D929FF00D839FF00D749FF00D64
:1054F000659FF00D9927729FB00DE11DF91F639F05
:10550000B00DE11DF91FBD01CF0111240895991BB4
:1055100079E004C0991F961708F0961B881F7A95AA
:10552000C9F780950895AA1BBB1B51E107C0AA1FAC
:10553000BB1FA617B70710F0A61BB70B881F991F34
:105540005A95A9F780959095BC01CD01089597FBD8
:10555000092E07260AD077FD04D0E5DF06D000200B
:105560001AF4709561957F4F0895F6F7909581959F
:105570009F4F0895A1E21A2EAA1BBB1BFD010DC06F
:10558000AA1FBB1FEE1FFF1FA217B307E407F507F3
:1055900020F0A21BB30BE40BF50B661F771F881FCF
:1055A000991F1A9469F760957095809590959B0165
:1055B000AC01BD01CF01089597FB092E05260ED041
:1055C00057FD04D0D7DF0AD0001C38F45095409521
:1055D000309521953F4F4F4F5F4F0895F6F79095C7
:1055E0008095709561957F4F8F4F9F4F08952F92B3
:1055F0003F924F925F926F927F928F929F92AF9263
:10560000BF92CF92DF92EF92FF920F931F93CF93AF
:10561000DF93CDB7DEB7CA1BDB0B0FB6F894DEBF46
:105620000FBECDBF09942A88398848885F846E846C
:105630007D848C849B84AA84B984C884DF80EE80B6
:10564000FD800C811B81AA81B981CE0FD11D0FB6BF
:10565000F894DEBF0FBECDBFED010895FC010590AB
:10566000061621F00020D9F7C00108953197CF0127
:105670000895FC014150504030F001900616D1F7DA
:105680003197CF010895882799270895FB01DC0100
:1056900002C001900D9241505040D8F7089568170C
:1056A000790768F4FB01DC01E40FF51FA40FB51FB7
:1056B00002C002900E9241505040D8F708950C94C9
:1056C000462BFB019F01E8944230C4F04532B4F40C
:1056D0004A3029F497FB1EF4909581959F4F642FD3
:1056E00077270E94932A805D8A330CF0895D81932D
:1056F000CB010097A1F716F45DE251931082C90126
:105700000C94762C0F931F93CF93DF938C01EB01B6
:105710008B8181FF1BC082FF0DC02E813F818C8158
:105720009D812817390764F4E881F9810193F98391
:10573000E88306C0E885F985802F0995892B31F427
:105740008E819F8101969F838E8302C00FEF1FEF92
:10575000C801DF91CF911F910F910895AEE0B0E0A5
:10576000E4EBFBE20C94052B0D891E8986E08C830B
:105770001A8309838FEF9FE79E838D839E01275EA7
:105780003F4FCE0101966F89788DA9010E9449296A
:105790002F813885020F131FF80110822E96E4E046
:1057A0000C94212BFA01AA27283051F1203181F1E4
:1057B000E8946F936E7F6E5F7F4F8F4F9F4FAF4F19
:1057C000B1E03ED0B4E03CD0670F781F891F9A1F2C
:1057D000A11D680F791F8A1F911DA11D6A0F711DE0
:1057E000811D911DA11D20D009F468943F912AE0EC
:1057F000269F11243019305D3193DEF6CF010895D4
:10580000462F4770405D4193B3E00FD0C9F7F6CF04
:10581000462F4F70405D4A3318F0495D31FD4052CC
:10582000419302D0A9F7EACFB4E0A6959795879562
:1058300077956795BA95C9F7009761057105089541
:105840009B01AC010A2E06945795479537952795ED
:10585000BA95C9F7620F731F841F951FA01D089585
:10586000DC01CB01FC01E199FECF06C0FFBBEEBB22
:10587000E09A31960DB20D9241505040B8F708951C
:10588000E199FECF9FBB8EBBE09A99278DB3089517
:10589000DC01A40FB51F4150504048F0CB01840FEC
:1058A000951F2E910E94592C41505040D0F70895D9
:1058B000262FE199FECF9FBB8EBBE09A01970DB2D8
:1058C000021631F02DBB0FB6F894E29AE19A0FBEA2
:1058D0000895262FE199FECF9FBB8EBB2DBB0FB63F
:1058E000F894E29AE19A0FBE01960895DC01FC015A
:1058F000672F71917723E1F7329704C07C916D9304
:1059000070836291AE17BF07C8F30895F894FFCF74
:105910002563002E002C00FF0C780F0F0101F915F4
:10592000F11502050000000163FFFFEF2487245AF0
:02593000FFFF77
:00000001FF
