:100000000C94B8020C94FC020C9417030C94FC02A0
:100010000C94FC020C94FC020C94FC020C94FC0268
:100020000C94FC020C94BD0D0C94951F0C94FC02D6
:100030000C94FC020C94FC020C94FC020C94FC0248
:100040000C94FC020C94FC020C94FC020C94FC0238
:100050000C94FC0229001E001F0020002100220039
:10006000230024002500260027002D002E002A0052
:100070004A002B0014001A000800150017001C008D
:1000800018000C00120013002F0030004C004B0031
:10009000390004001600070009000A000B000D00DB
:1000A0000E000F0033003400310028004E00E10044
:1000B00000001D001B0006001900050011001000C3
:1000C000360037003800E10052004D00E000E30048
:1000D000E2000000000000002C0000000000000012
:1000E0000000E400500051004F0001000100010039
:1000F00001000100010001000100010001000100F8
:1001000001000100010001000100010001000100E7
:1001100001000100010001000100010001000100D7
:1001200001000100010001000100010001000100C7
:1001300001000100010001000100010001000100B7
:1001400001000100010000000100010001000100A8
:100150000100010001000100010001000100010097
:10016000010001000100010000000000000001008A
:10017000000000000000000001000100010001007B
:100180000100010001000100010001000100010067
:100190000100010001000100010001000100010057
:1001A0000100010001000100010001000100010047
:1001B0000100010001000100010001000100010037
:1001C0000100010001000100010001000100010027
:1001D0000100010001000100010001000000010018
:1001E0000100010001000100010001000100010007
:1001F00001000100010001000100010001000000F8
:1002000000000000010000000000000000000100EC
:1002100001000100010001000100010001000100D6
:1002200001000100010001000100010001000100C6
:1002300001000100010001000100010001000100B6
:1002400001000100010001000100010001000100A6
:100250000100010001000100010001000100010096
:100260000100010001000100010001000100010086
:100270000100000001000100010001000100010077
:100280000100010001000100010001000100010066
:10029000010001000000000000000100000000005B
:1002A000000000000100010001000100000000004A
:1002B000000000002A2B28000000000000000000C1
:1002C0000000000000000029000000002C1E342067
:1002D000212224342627252E362D3738271E1F208D
:1002E0002122232425263333362E37381F040506D2
:1002F0000708090A0B0C0D0E0F1011121314151616
:100300001718191A1B1C1D2F3130232D3504050613
:100310000708090A0B0C0D0E0F10111213141516F5
:100320001718191A1B1C1D2F3130354C0000000006
:1003300000000000000000000000000000000000BD
:1003400000000000000000000000000000000000AD
:100350007E0F00D4FFFFFFC7000000780000000000
:100360000000000000000001010203040506080A65
:100370000C0F1114181C2024292E33393F464C53DE
:100380005B626A7179818A929AA2AAB2B9C1C8CF16
:10039000D5DCE1E7EBF0F4F7FAFCFDFEFFFEFDFC37
:1003A000FAF7F4F0EBE7E1DCD5CFC8C1B9B2AAA205
:1003B0009A928A8179716A625B534C463F39332E37
:1003C0002924201C1814110F0C0A08060504030226
:1003D00001010000000000000000000009025B00B5
:1003E000030100A0FA090400000103010100092132
:1003F00001010001224000070581030800010904F2
:100400000100020300000009210101000122220075
:100410000705840308000107050403080001090417
:1004200002000103000000092101010001227B00FC
:100430000705830308000112011001000000084CA9
:100440004D096502000102000120034D00650063B3
:100450000068006C006F00760069006E00390020B3
:10046000005200650076003200000022034D006556
:1004700000630068006C006F00760069006E002069
:1004800000530074007500640069006F00000004F0
:100490000309040660FF0961A1010962150026FF36
:1004A000009520750881020963150026FF0095203C
:1004B00075089102C005010902A10185020901A187
:1004C0000005091901290815002501950875018104
:1004D000020501093009311581257F9502750881D2
:1004E0000609381581257F950175088106050C0AD6
:1004F00038021581257F950175088106C0C0050168
:100500000980A101850319012AB700150126B7004A
:10051000950175108100C0050C0901A10185041920
:10052000012AA002150126A002950175108100C0C4
:1005300005010906A101050719E029E715002501B4
:100540009508750181029501750881030507190059
:1005500029FF150026FF009506750881000508197A
:10056000012905950575019102950175039103C057
:1005700011241FBECFE5D8E0DEBFCDBF04B603FE19
:1005800024C08091C0029091C102A091C202B0919A
:10059000C3028730904BA740B04BB9F41092C00211
:1005A0001092C1021092C2021092C30214BE84B70C
:1005B000877F84BF0FB6F894A89581B5886181BD07
:1005C00011BC0FBEE0E0F8E3099510E0A0E6B0E052
:1005D000E2E0F9E402C005900D92AE3EB107D9F712
:1005E00022E0AEEEB0E001C01D92A03CB207E1F700
:1005F0000E940C200C9447240C940000A82FB92FC3
:1006000080E090E041E050EA609530E009C02D9133
:1006100082279795879510F084279527305EC8F339
:100620006F5FA8F30895EADF8D939D930895CF93AC
:10063000CFB7CF93DF93C395839BE9F7839B10C01C
:10064000839B0EC0839B0CC0839B0AC0839B08C006
:10065000839B06C0C0919702C395C09397028EC03A
:100660006F93C0919602DD27C256DD4F2F9365E54B
:10067000839B03C02F916F91E1CF0F931F934F93F3
:1006800020E040E15F9300B30C7003FB27F93F9338
:1006900050E03BE039C01C7040642F77012F5F5F52
:1006A0001EC0406810B31C702F7752501FC04064AA
:1006B00000B32F770C70D1F15F5F00C023C04062A0
:1006C00010B32F771C7091F15F5F00C025C00C70D4
:1006D0001027515012F45D5F0000115027952C3FF8
:1006E00010B3C8F61C700127015027952C3FC8F69F
:1006F0004227499300B30C7010274F731150279570
:100700002C3FA8F64695469510B31C7079F001274A
:10071000015027952C3F98F66B5A60F3315000B387
:10072000B0F600C010E81ABF00271CC03B5031953E
:10073000C31BD04010E81ABF0881033C21F10B34E1
:1007400011F1209193021981110F1213EDCF4A81FB
:10075000441F093679F10D3211F0013E29F74F702F
:1007600009F0042F00939C023F915F914F911F91DC
:100770000F912F916F91CAB7C7FD5DCFDF91CF91D8
:10078000CFBFCF91189520919C02222369F310913D
:100790009A02112309F049C034300AF448C030935A
:1007A0009A0220939502109196023BE0311B309300
:1007B00096023DC000919A020130BCF50AE54F70E7
:1007C00049F43091760034FD33C000937600C0E7E1
:1007D000D2E032C0433059F0443091F030917B0286
:1007E00034FD26C000937B02CCE7D2E025C03091D7
:1007F000B40234FD1DC00093B402C5EBD2E01CC0AE
:100800003091870234FD14C000938702C8E8D2E01B
:1008100013C0052710E000C0000002BB1AC0052766
:1008200010E0221F1DC010E021C04AE502C032EDD9
:10083000432FC4E1D0E032E011B31C60939A02B3BD
:1008400011BB5CE020E865E320FF052702BB27958C
:1008500017951C3FF0F66695B8F7B1F720FF05270E
:1008600002BB279517951C3FD0F62795179517FFC4
:10087000052700001C3F02BBB0F629913A9519F7F5
:10088000037F10919B02110FC651D04002BB11F0A3
:100890001093930210E81ABF086011B3137F402F22
:1008A000437F54E05A95F1F702BB11BB42BB5CCFCA
:1008B00081E0089581E008950C945A0408950C9401
:1008C0005E041F93CF93DF9300D000D00F92CDB77B
:1008D000DEB749835A836B833091200189819A81E5
:1008E00031111DC06623B9F02223A9F00E94E01C3B
:1008F000182F682F89819A810E948C1C69817A81C6
:10090000812F0F900F900F900F900F90DF91CF914C
:100910001F910C9489100E94B81C182FEFCF0E94D1
:10092000E01C69817A81EDCFFC01262F4081518145
:100930006281738184810C946104CF93DF93EC0115
:1009400060E00E949404BE01DF91CF910C945F049B
:100950008F929F92AF92BF92CF92DF92EF92FF92CF
:100960000F931F936B017C0181E090E0A0E0B0E069
:100970004C015D0104C0880C991CAA1CBB1C4A9543
:10098000D2F7B501A4014C015D0104C0880C991C8B
:10099000AA1CBB1C2A95D2F7482959296A297B2908
:1009A00004C0880F991FAA1FBB1F0A95D2F78A019E
:1009B0009B010C211D212E213F210417150726071D
:1009C000370789F48C299D29AE29BF29BC01CD01A7
:1009D0001F910F91FF90EF90DF90CF90BF90AF905D
:1009E0009F908F90089580959095A095B0958C21BB
:1009F0009D21AE21BF21EACF0F93382F262F609182
:100A00008B0170918C0180918D0190918E01042F4A
:100A1000432F0E94A8040F910C94CA1B0E94D31F5D
:100A20000E942C1E811102C00E94D91E0E945906EC
:100A30000E94280E0C9460080C94630808950E948C
:100A4000F6170E941E052FEF84E39CE021508040A2
:100A50009040E1F700C000000C94B91F0F931F9362
:100A6000CF93DF93EC0161E00E9494048C01BE01FE
:100A70000E94910E882389F1BE01C8010E945C0486
:100A8000882359F1BE01C8010E941F0D882329F156
:100A9000BE01C8010E94C0118823F9F0BE01C8013F
:100AA0000E9412128823C9F0BE01C8010E943513AA
:100AB000882399F08A81882339F001158CE518077D
:100AC00051F00E3D1C4579F0CE01DF91CF911F9181
:100AD0000F910C9458040E941F0580E0DF91CF9184
:100AE0001F910F9108950E94D91EF7CFDF92EF92C8
:100AF000FF920F931F93CF93DF93E82FF0E0E4551D
:100B0000FD4FD490282F26952695269530E0F901A3
:100B1000E45BFC4F0491877010E0082E02C015952D
:100B200007950A94E2F701701127F901E45CFC4F84
:100B3000E490F12C082E02C0F594E7940A94E2F7B1
:100B400091E0E922FF24F901E45DFC4FC491D0E07B
:100B500002C0D595C7958A95E2F7C170DD270115CA
:100B6000110519F081EE0E94E114E114F10419F06D
:100B700086EE0E94E1148D2D0E947515EF2819F064
:100B800086EE0E942F15012B19F081EE0E942F1581
:100B9000CD2B51F08CE2DF91CF911F910F91FF90FF
:100BA000EF90DF900C947515DF91CF911F910F910D
:100BB000FF90EF90DF900895EF92FF920F931F93B5
:100BC000CF93DF93EC01162F0AE08881882309F484
:100BD00054C0813009F04EC08981813099F47E0182
:100BE00022E0E20EF11C8A810E947515E701219630
:100BF000812F815050F3EFE9FFE03197F1F700C00A
:100C00000000F7CF823041F47E0182E0E80EF11C53
:100C10008A810E94E114EACF833041F47E01E2E050
:100C2000EE0EF11C8A810E942F15E0CF843011F066
:100C30002196DDCF2A81229690E080E0AE014F5FC1
:100C40005F4F2053330B2A30310548F0019778F27B
:100C5000EFE9FFE03197F1F700C00000F7CF089F00
:100C6000B001099F700D1124C901860F971F2981BA
:100C7000EA01E4CF0E947605BACFDF91CF911F91B0
:100C80000F91FF90EF90089560E00C94DC050895BB
:100C90000C94470681E00895CF93C82F0E944A061E
:100CA000882319F0C1FF03C0DF9ACF910895DF9820
:100CB000FCCFD79ADF980895CF93C82F0E9448069B
:100CC0008C2FCF910C944C0690E080E0089508950D
:100CD000FC01EE0FFF1FE45AFC4F8591949108959B
:100CE000CF93DF930E9489100E948507EC01811544
:100CF00020E5920708F042C0811530E4930708F020
:100D0000BDC0883E910528F5803E910508F09DC044
:100D1000883A910588F4853A910508F08FC08130B2
:100D2000910509F492C0009709F48FC0049708F068
:100D30008CC0D0E0C0E089C08F3B910508F489C029
:100D4000805C9109C03CD105A0F30E946806EC01CB
:100D50007CC08115904250F4C11581E0D80708F09D
:100D600074C0C03FD10528F3D0656FC0C11590E3B2
:100D7000D90708F079C0CE019F70E7CF811525E52E
:100D8000920758F5811534E5930708F0A6C0811540
:100D900042E5940750F4C11581E5D80708F471C005
:100DA000DC2FCC27C16FD06A50C0982F96959695AE
:100DB0009E0123703327C115D34508F07FC0C1E0E1
:100DC000D0E002C0CC0FDD1F2A95E2F720E2929F0F
:100DD000C0011124C82BD92B6FC0C11589E5D807D4
:100DE000A8F4C11598E5D90708F07CC0C11526E51F
:100DF000D20708F09ECF8C2F0E941C08C82FD0E08D
:100E0000DC2FCC27CC27DF71D0621FC0C1153AE59B
:100E1000D30708F46CC0CE0190568115904208F0BB
:100E200088CF8D2F8F710E941C0890E0982F882703
:100E300088279F719C012C2BE901E6CFC55AD0E091
:100E4000CB55DF4FC881D0E0D064CE01DF91CF9188
:100E50000895C85AD0E0CC0FDD1FC958DF4F099064
:100E6000D881C02DD464F1CFCE019927D3FF03C020
:100E7000EC01D86CEACFEC01D06CE7CFDF70D06A20
:100E8000E4CFCE01E4E096958795EA95E1F783708B
:100E90002C2F26952695237090E2299F90011124EE
:100EA000382B8C2F8370C1E0D0E002C0CC0FDD1F47
:100EB0008A95E2F7C22BD32BDC68C7CFC1E0D0E024
:100EC00002C0CC0FDD1F2A95E2F730E2939FC001EC
:100ED0001124C82BD92BDA68B8CFD82FCC27C46FF0
:100EE000D06AB3CFDC2FCC27C06FD06AAECF8C2FA7
:100EF0008F700E941C0834E0D695C7953A95E1F7AB
:100F0000CF709C2FEC01D069A0CF82389105B1F150
:100F1000B0F48133910509F475C048F48932910524
:100F200009F469C08A32910509F473C008958533C4
:100F3000910509F459C08933910501F10895833E63
:100F40009105A9F138F4803E9105F9F0823E9105B2
:100F500049F10895863E9105A9F1873E9105C9F1B1
:100F6000843E910519F520916F0221FF1FC08091E9
:100F70006E0284FD14C087EE90E0089520916E0209
:100F80002370A1F080EE90E0089520916E0220FD84
:100F900047C030916F0230FF09C024FF44C090E089
:100FA00080E004C020916E0222FDF7CF08952091C9
:100FB0006E0222FD3BC030916F0230FDE3CF24FF73
:100FC000F5CFEDCF20916E0223FFF0CF24FDE7CFC8
:100FD000D2CF20916E0223FD2CC030916F0231FFE1
:100FE000EECF84EE90E0089520916E0225FFDECFD3
:100FF00089E290E0089520916E0225FFD7CF85E326
:1010000090E0089520916E0226FFD0CF8AE290E012
:10101000089520916E0226FFC9CF81E390E00895E4
:1010200089E390E0089583EE90E0089582EE90E0E9
:10103000089586EE90E0089590916E0292FF06C0AA
:10104000282F28712830F9F4877F846093FF06C029
:10105000282F28712831F1F4877E846120916F0256
:1010600020FF06C0382F38713830D9F4877F81606F
:1010700021FF06C0282F28712831D1F4877E816195
:1010800094FD877E0895282F24712430F9F68B7FF4
:101090008860DCCF282F2471243101F78B7E886192
:1010A000DDCF382F3171313019F78E7F8860E0CF76
:1010B000282F2171213121F78E7E8861E1CF08959B
:1010C0000C945F0808950C946208E82FF0E0EE0F8E
:1010D000FF1FE15AFD4F808191810895089580EAB4
:1010E0008A95F1F7089500C008950C946F08F8945C
:1010F000E82FE295EF70F0E031A9282F2F7081E002
:1011000090E001C0880F2A95EAF7982F90959323D5
:1011100091AB92A9892B82AB789408950F931F937A
:10112000CF93DF9380E90E94770881E90E947708D6
:1011300082E90E94770883E90E94770884E90E9487
:101140007708C8EAD0E007EB10E089910E947708A1
:101150000C171D07D1F710925602109255021092EB
:10116000600210925F021092580210925702109281
:1011700062021092610210925A0210925902109269
:1011800064021092630210925C0210925B02109251
:1011900066021092650210925E0210925D02109239
:1011A00068021092670285E00E946009DF91CF918A
:1011B0001F910F910C940E05AF92BF92CF92DF92C8
:1011C000EF92FF920F931F93CF93DF9307EB10E003
:1011D000C5E5D2E0C12CD12CEE24E394F12CF8012A
:1011E00081918F01F894E82FE295EF70F0E021A94A
:1011F0008F70A70102C0440F551F8A95E2F7CA01FC
:10120000922F982B91AB92A98095892382AB7894E9
:101210000E947308E8EAF0E030E020E0B12CA12C55
:101220004191A42FA295AF70B0E0D0968C9190E040
:101230004F7002C0959587954A95E2F780FD3BC0B7
:10124000C701022E02C0880F991F0A94E2F7A82A4C
:10125000B92A2F5F3F4F2F30310511F7F801319731
:1012600080810E94770854E0C5120E947508888129
:101270009981A816B90611F1B982A88281E0D82A0D
:10128000C394229685E0C812AACF2D2D45E06FE5C4
:1012900072E085E592E00E9461090E941C058D2D97
:1012A000DF91CF911F910F91FF90EF90DF90CF9042
:1012B000BF90AF90089590E080E0C9CF80E0DFCF8D
:1012C0000895FF920F931F93CF93DF93F82E092F6A
:1012D000162FD72FC42F222349F081E08093F200EC
:1012E0000E946E1F9093F1008093F0008091F200B5
:1012F0008823A1F08091F0009091F1000E94861F58
:10130000069760F0EF2DF02FA12FBD2F90E080E029
:10131000D0E08C179D0744F01092F200DF91CF913E
:101320001F910F91FF900895219131912D933D933D
:101330000196EFCF8091F90080FF12C060916500A7
:1013400085E0689FB001112475956795759567953F
:1013500060387105A8F561157105A1F1862F089512
:1013600081FF09C06091650085E0689FB00111248C
:1013700075956795EDCF6091650082FD0AC08091FB
:10138000F8008823D1F0909164006091650089177E
:1013900028F085E0689FB0011124DACF869FB00164
:1013A000112485E0869F9001879F300D1124692FBD
:1013B00070E0C9010E94A923CBCF65E070E0CECFD9
:1013C0008FE7089581E008958091F90080FF0CC0B7
:1013D0006091610070E075956795759567956115E9
:1013E000710549F1862F089581FF06C06091610063
:1013F00070E075956795F3CF6091610082FD0BC039
:101400009091F7009923A1F06091600080916100B4
:10141000961738F0682F70E06038710500F38FE799
:101420000895899FC001112470E00E94A923F4CF80
:1014300061E070E0D7CF81E00895803F31F40E94F1
:101440009A0981958093FD000895813F19F40E94C7
:101450009A09F8CF823F31F40E949A0981958093CE
:10146000FC000895833F19F40E949A09F8CF893F40
:1014700029F40E94E4098093FE0008958A3F21F434
:101480000E94E4098195F7CF8B3F31F40E94E40973
:1014900081958093FF0008958C3F19F40E94E40920
:1014A000F8CF9CE0980F953070F4845F990B21E0A1
:1014B00030E001C0220F8A95EAF78091FB00822B71
:1014C0008093FB0008958D3F31F48091F900816095
:1014D0008093F90008958E3F21F48091F900826095
:1014E000F7CF8F3FB9F78091F9008460F1CF409139
:1014F000FC00803F59F48091FD0087FF0DC01092E1
:10150000FD0041110BC01092F80008C0813F81F42A
:101510008091FD0018169CF3442381F08091FE0019
:101520009091FF00892B09F05AC01092F70008959E
:10153000823F49F447FFF0CF1092FC008091FD00FC
:101540008111ECCFE0CF833F19F41416ACF3E4CF54
:101550009091FE00893F29F41916F4F61092FE00CE
:10156000DBCF8A3F19F497FFD7CFF8CF9091FF00D8
:101570008B3F29F497FFD0CF1092FF00CDCF8C3F47
:1015800019F41916CCF3C8CF9CE0980F953090F45D
:10159000845F990B21E030E0B90102C0660F771F2C
:1015A0008A95E2F7CB0180959091FB008923809387
:1015B000FB00B2CF8D3F31F48091F9008E7F809394
:1015C000F900AACF8E3F21F48091F9008D7FF7CFEB
:1015D0008F3F09F0A1CF8091F9008B7FF0CF089564
:1015E0000E946E1F9C019091FC008091FD00982B41
:1015F00021F03093F6002093F5009091FE00809149
:10160000FF00982B21F03093F4002093F3008AEF31
:1016100090E00C947B13EF92FF920F931F93CF9364
:10162000DF9300D000D000D0CDB7DEB786E0EAEF80
:10163000F0E0DE01119601900D928A95E1F7E090BD
:10164000FC00F090FD000091FE001091FF00109250
:10165000FC001092FD001092FE001092FF008E2DF3
:101660008F2991F08091F5009091F6000E94861FDD
:10167000AC019091F800992309F43FC08091660075
:101680008417150608F447C0802F812B91F08091B4
:10169000F3009091F4000E94861FAC019091F70036
:1016A000992309F477C0809162008417150608F425
:1016B0007FC08091FC009091FD00892B9091FE00ED
:1016C000892B9091FF00892B11F00E94F00A86E08F
:1016D000FE013196AAEFB0E001900D928A95E1F7F4
:1016E00026960FB6F894DEBF0FBECDBFDF91CF9127
:1016F0001F910F91FF90EF900895209167008AE06D
:10170000289F900111242417350708F0BDCF9F5F53
:101710009093F80002C09F3FD1F7EE2059F00E944D
:101720009A099FEF1E140CF491E0899F802D1124DB
:101730008093FC00FF2059F00E949A099FEF1F142C
:101740000CF491E0899F802D11248093FD0030914D
:10175000FC00332309F498CF2091FD00222309F4E3
:1017600093CF45EB3403C0011124992359F0909392
:10177000FC0045EB240390011124332339F030930E
:10178000FD0082CF81E08093FC00F3CF81E0809365
:10179000FD007ACF209163008AE0289F90011124F8
:1017A0002417350708F085CF9F5F9093F70002C09C
:1017B0009F3FD1F7002359F00E94E4099FEF1016D4
:1017C0000CF491E0899F802D11248093FE00112359
:1017D00059F00E94E4099FEF11160CF491E0899FE3
:1017E000802D11248093FF003091FE00332309F4F3
:1017F00060CF2091FF00222309F45BCF45EB340337
:10180000C0011124992359F09093FE0045EB240365
:1018100090011124332339F03093FF004ACF81E047
:101820008093FE00F3CF81E08093FF0042CF86E0FB
:10183000EAEFF0E0DF011D928A95E9F71092F800D7
:101840001092F7001092F9000895809169020C94AB
:101850005E1E809169028695869586950895809191
:10186000690281FD07C08260809369020E945E1E4A
:101870000C94AC0D08958091690281FF07C08D7FA3
:10188000809369020E945E1E0C94B60D08958091AB
:10189000690281FD0C943B0C0C942F0C8091690221
:1018A0008695817008958091680008950E942C1E8D
:1018B000811102C00E94D91E0E945A1E80936902A3
:1018C000803220F08770886180936902909169026C
:1018D000892F817090FF04C0892F86958695869503
:1018E0000C94880D80916902982F969596959695FF
:1018F000933040F49F5F990F990F990F8770892B50
:1019000080936902809169028160809369020E94DC
:101910005E1E809169028695869586950C94880D49
:1019200080916902982F987F79F08850809369029E
:10193000887F91E009F490E08091690290FB80F942
:10194000809369020E945E1E809169028695869549
:1019500086950C94880D8091690280FD13C081608A
:1019600080936902813019F489E080936902809143
:1019700069020E945E1E8091690286958695869511
:101980000C94880D08958091690280FF08C08E7FB5
:10199000809369020E945E1E80E00C94880D089579
:1019A0008091690280FD0C94C30C0C94AB0C909157
:1019B0006902892F8695869586958F5F8F719770BE
:1019C0008430D8F4880F880F880F892B80936902A0
:1019D00080916902887F91E009F490E0809169022A
:1019E00090FB80F9809369020E945E1E80916902DB
:1019F0008695869586950C94880D90936902E8CF1C
:101A0000843008F083E0909169029770282F220FAC
:101A1000220F220F922B90936902987F21E009F404
:101A200020E09091690220FB90F9909369020C9458
:101A3000880D0E94000D809169020C945E1EFC01CD
:101A4000DB0112968C918823F9F0EB5BFC45E730C3
:101A5000F105D8F4E75BFB4D0C94DF2383E00E9493
:101A6000190D80E0089580E0FACF0E94900CF9CF24
:101A70000E94720CF6CF0E94D00CF3CF0E94D70CBC
:101A8000F0CF0E94470CEDCF81E008958C9A949896
:101A9000089594980895CF92DF92EF92FF928C3739
:101AA00024E1920750F469E070E00E949523CB0195
:101AB000FF90EF90DF90CF900895B0E0A0E0BC01E0
:101AC000CD016A50774D8F4F9F4F982F872F762FDC
:101AD000662725EF38E241E050E00E94BD2369010E
:101AE0007A01CA01B9010E9485239B01AC01C7019B
:101AF000B6010E948523672F782F892F99276115BA
:101B0000710521E08207910591F66FEF7FEFCFCF4E
:101B1000CF93C82F8430D0F4811119C08FB58F7D39
:101B20008FBD0E94490D2C2F30E0AFEFBFEF0E9418
:101B3000EC2323E030E040E050E00E94BD23C901E7
:101B40000E944B0D99BD88BDCF910895C3E08FB51C
:101B500080628FBDE8CF08951092010110920001BC
:101B60001092020189B7846089BF089589B78B7F7D
:101B700089BF0E94290C0C94880D1F920F920FB6FA
:101B80000F9211242F933F934F935F936F937F9303
:101B90008F939F93AF93BF93CF93EF93FF930E9445
:101BA000530C40910001509101014F5F5F4F94EF42
:101BB000899F90011124CA01B9010E949523909335
:101BC000010180930001B901660F672F661F770B33
:101BD00071950E9495236F7780910201823031F4D4
:101BE000603441F489B78B7F89BF04C0813011F420
:101BF0006F37C1F3E62FF0E0E45AFC4FC4910E9426
:101C0000290C282F41E051E0C49FC001C59F900DD1
:101C1000112463E070E00E949523269FC001279F56
:101C2000900D11240E944B0D99BD88BDFF91EF913D
:101C3000CF91BF91AF919F918F917F916F915F9164
:101C40004F913F912F910F900FBE0F901F901895BD
:101C50000E94460D82E28FBD89E18EBD8FEF9FEF1E
:101C600097BD86BD0E94560C0E944E0C81110C94AB
:101C7000AC0D089582E290E00E940624813289F43E
:101C800083E290E00E940624853059F484E290E0DB
:101C90000E94062491E0863209F090E0892F81703D
:101CA000089580E0FCCFCF93C82F6FEF811161E2E0
:101CB00082E290E00E9414246FEFC11165E083E29C
:101CC00090E00E9414246FEFC11166E284E290E07C
:101CD000CF910C94142480E00E94530E0C94261E85
:101CE000089585E290E00E940624682F70E090E05D
:101CF00080E0089585E290E00C9414240E94700E18
:101D00000E943A0E81110CC060E070E0CB010E948D
:101D10007A0E0E9401100E94ED1081E00C94530E87
:101D20000895CF93FB01C281CC2309F19C0122517C
:101D30003F452031310520F582510E94FD10C0E061
:101D40008C2FCF91089581E00E94F01B43E062E068
:101D500081E00E94FC04F3CF81E00E94111C43E06B
:101D600062E081E00E94FC04EBCF82E0F6CF80319C
:101D7000FFE59F0789F381319F45B9F3C1E0E0CFCB
:101D80008031EFE59E07F9F281319F45C9F682E087
:101D9000DBCF2FEFFC0120830895CF93DF93EC017D
:101DA0008881893029F08A3079F0DF91CF910895C8
:101DB0000E94290C2FEF829FC001112463E070E084
:101DC0000E9495236983F1CF0E944E0C8983EDCF49
:101DD000FC018081893019F08A3069F00895818191
:101DE00023E0829FC00111246FEF70E00E949523D1
:101DF000862F0C94000D8181811102C00C943B0C44
:101E00000C942F0CEF92FF920F931F93CF93DF93BD
:101E1000EC01062FDC01ED91CD01E150E33108F03A
:101E2000ADC0F0E0E05BFB4D0C94DF23198289E04C
:101E30008A83602FCE01DF91CF911F910F91FF9088
:101E4000EF900C9427218981823069F0833071F002
:101E50008130D9F40E947A1F0E94E5236A837B8334
:101E60008C839D83E6CF0E94710EF6CF7E0110E039
:101E7000812F0E946508F701928383831F5FF2E040
:101E8000EF0EF11C1530A1F7D4CF602FCE010E94C8
:101E9000C90ECFCF89818230C1F76A817B818C8165
:101EA0009D810E94E5230E947A0EC3CF4B816A81F7
:101EB00089810E94D30F9827892798279D838C8337
:101EC000B8CF2C813D813227232732274B816A816D
:101ED00089810E94EC0FADCF0E940110AACF0E9411
:101EE000E80EA7CF0E94CD0EA4CF0E94250CA1CF53
:101EF0000E94961089839DCF0E9498109827892769
:101F000098279A83898395CF6B8170E089819A8124
:101F1000AE014C5F5F4F9827892798270E949B103E
:101F200088CF6B8170E089819A81AE014C5F5F4FF1
:101F30009827892798270E94C2107BCF0E94ED1016
:101F400078CF0E94C10FD6CF6B8170E089819A81D2
:101F5000AE014C5F5F4F9827892798270E94391060
:101F600068CF6B8170E089819A81AE014C5F5F4FD1
:101F70009827892798270E945F105BCF8FEF88836F
:101F800058CF84E0089550E0440F551F9EE1699FAB
:101F9000400D511D112496E9899F400D511D1124BA
:101FA000CA01869608950F931F93CF93DF930E94E3
:101FB000C30F8C010E940624C82FD0E0DC2FCC2751
:101FC000C80101960E9406249E01282BC901DF91B9
:101FD000CF911F910F9108950F931F93CF93DF938C
:101FE000122F032F0E94C30FEC01602F0E941424B4
:101FF000612FCE010196DF91CF911F910F910C942B
:102000001424AF92BF92CF92DF92EF92FF921F9370
:10201000CF93DF9384E5C82E80E0D82ED0E0760100
:10202000C0E014C0F50125913491412F6C2F8D2F04
:102030000E94EC0F82E0A80EB11C1F5F1F3091F7C9
:102040008EE1E80EF11CCF5FC53019F0570110E0AA
:10205000E9CFDF5F86E9C80ED11CD43001F7DF91EC
:10206000CF911F91FF90EF90DF90CF90BF90AF90F6
:102070000895EF92FF920F931F93CF93DF93EC019C
:102080008A017C01E60EF71ECE018696CE15DF058D
:1020900039F4DF91CF911F910F91FF90EF90089548
:1020A000C83522E0D20740F40E940624F80180835C
:1020B0000F5F1F4F2196E8CFF8011082F9CFCF9222
:1020C000DF92EF92FF920F931F93CF93DF937C01E8
:1020D0006A018C01060F171FEC01CE018696C0170E
:1020E000D10749F4DF91CF911F910F91FF90EF90AD
:1020F000DF90CF900895C83522E0D20740F4FE016A
:10210000EE19FF09EC0DFD1D60810E94142421963B
:10211000E4CF462F843038F4753028F46F3018F44B
:10212000672F0C94D30F90E080E0089580E108952C
:1021300082E891E00895EF92FF920F931F93CF935F
:10214000DF93EC018A017C01E60EF71ECE01825876
:102150009D4FCE15DF0539F4DF91CF911F910F917F
:10216000FF90EF900895C23821E0D20740F40E941A
:102170000624F80180830F5F1F4F2196E7CFF801F7
:102180001082F9CFCF92DF92EF92FF920F931F93BD
:10219000CF93DF937C016A018C01060F171FEC01BE
:1021A000CE0182589D4FC017D10749F4DF91CF91DE
:1021B0001F910F91FF90EF90DF90CF900895C2385C
:1021C00021E0D20740F4FE01EE19FF09EC0DFD1DE0
:1021D00060810E9414242196E3CFCF93DF93CEE752
:1021E000D2E060E0CE010E9414242196C11584E063
:1021F000D807B9F7DF91CF910895DF92EF92FF9260
:102200000F931F93CF93DF9300D000D0CDB7DEB7ED
:10221000F82E8FE08F1540F08FEF93E00E94062498
:102220000EE712E08823C1F00F900F900F900F90EF
:10223000DF91CF911F910F91FF90EF90DF90089564
:10224000011584E0180781F3C8010E94062481115A
:1022500001C0FA940F5F1F4FF110F2CF19821A825A
:102260001B821C82DD24D39478018FEFE81AF80AD0
:10227000C8010E94062489831A828823A9F29FEF4D
:10228000980F933078F48A83D9820E5F1F4FC7016D
:102290000E9406248B83882339F2CE0101960E9486
:1022A0004406E2CF8701F9CF0F931F93CF93DF93BB
:1022B000C42FD22FFC0182818823C9F040930501ED
:1022C0000E946E1F909304018093030180E28C0FA3
:1022D000883008F050C0C77081E001C0880FCA95EF
:1022E000EAF7DF91CF911F910F910C947D1510911A
:1022F0000501141335C080910301909104010E94DF
:10230000861F883C910560F5C0E2CD0F1D17B9F01E
:1023100080E2810F883040F4177081E001C0880F9F
:102320001A95EAF70E948415C83048F481E09D2F81
:10233000977001C0880F9A95EAF70E947D15802F4B
:102340000E947515C830B8F4D77081E001C0880FBD
:10235000DA95EAF7DF91CF911F910F910C948415D4
:1023600080E28C0F883038F4C77081E001C0880F9C
:10237000CA95EAF7EFCFDF91CF911F910F910895A2
:102380000F939C01CB01233F4CE5340759F1A8F48E
:10239000283DFCE53F0701F1293D4CE53407D1F12B
:1023A000273D3C4591F406E221EE41EE67ED7CE5E8
:1023B0000E94541180E00F910895253FFCE53F07EE
:1023C000E9F0B0F0263F3C45F9F0FC01828188231A
:1023D00039F110920501EFCF07E225EE45EE68EDE9
:1023E0007CE5E6CF06E221EE40EE63EF7CE5E0CF50
:1023F00007E225EE44EE64EF7CE5DACF06E221EE5B
:1024000042EE65EF7CE5D4CF07E225EE46EE66EFBF
:102410007CE5CECF08E221E045EE69ED7CE5C8CF52
:1024200081E0C9CFCF93DF93EC01FB018281882348
:1024300009F419C1C230FCE5DF07C0F1C6319CE5E3
:10244000D90730F09E012A5F3C452930310570F5EF
:102450000E943F1E90936F0280936E02C031ECE5A4
:10246000DE0709F4CFC008F05BC0C8308CE5D807A0
:1024700009F4B6C088F5C430ECE5DE0709F4A8C05D
:10248000C0F4C2308CE5D80709F49CC080916E027C
:102490008260C330DC4509F498C080916E0290914F
:1024A0006F020E944D1E0E94F61780E0DF91CF91CF
:1024B000089580916E028061C630ECE5DE0709F474
:1024C00084C080916E028860C730DC4508F47DC00E
:1024D00080916E02806279C0CC308CE5D80709F417
:1024E00089C070F480916E028C60CA30ECE5DE0722
:1024F00009F46BC008F478C080916E028E7F65C0CD
:10250000CE308CE5D80709F479C080916E028B7FBC
:10251000CF30DC4508F459C080916E028F7E55C0E3
:10252000CB3FECE5DE0709F457C030F5C3318CE54D
:10253000D80709F46FC078F4C131ECE5DE0709F47F
:1025400065C0C231DC4509F0A8CF0E94F617809122
:102550006E028F773AC0C5318CE5D80709F462C0A6
:1025600008F476C080916F028160CA3FDC4509F0B3
:1025700094CF80936F0291CFCF3FFCE5DF0709F442
:102580004DC088F480916F028D7FCD3F9CE5D907C7
:1025900081F380916F028E7FCE3FDC4550F38091B6
:1025A0006F028360E6CFC130FDE5DF0709F459C053
:1025B00008F444C080E0C230DD4509F06ECF0E94CF
:1025C000DB1E6BCF80916E02816080936E0265CFBF
:1025D00080916E028460F9CF80916F028260C9CFD2
:1025E00080916E028064F1CF0E94F61780916E0296
:1025F0008068EBCF80916E028D7FE7CF80916E0275
:10260000877FE3CF80916E028F7DDFCF80916E0256
:102610008F7BDBCF80916E02837FD7CF80916F025B
:102620008C7FA7CF80916E0282FB992790F921E0E1
:10263000922790FB82F990FB83F9C7CF80916F02BC
:10264000982F909591708E7F892B90FB81F991CF77
:102650000E94F61790916E02892F97FB87F9805898
:10266000B4CF81E0ACCF81E021CFCF93DF93EB01FA
:1026700086319C4511F50E94751D9A81992399F028
:102680008A7A91E009F490E090930601811109C0E3
:1026900089E20E94501D0E94C11D80E0DF91CF9110
:1026A000089585E3F6CF80910601811104C089E287
:1026B0000E94571DF0CF85E3FBCF81E0EFCF9093D1
:1026C0000C0180930B010895E0910B01F0910C0136
:1026D000309721F00190F081E02D099480E0089579
:1026E000E0910B01F0910C01309721F00280F38111
:1026F000E02D09940895E0910B01F0910C013097C1
:1027000039F022E0DC012C930480F581E02D09945E
:1027100008952091090130910A012817390771F0B5
:1027200090930A0180930901E0910B01F0910C0153
:10273000309721F00680F781E02D099408952091CB
:102740000701309108012817390771F090930801AB
:1027500080930701E0910B01F0910C01309721F07B
:102760000084F185E02D099408950E947A1F6093FA
:102770001C0170931D0180931E0190931F016093B3
:1027800018017093190180931A0190931B01089509
:1027900084B7806884BF84B7806884BF0895089533
:1027A00008950C94CF1308950C94D3130E94C8136A
:1027B00084E29EE10E94CC1F0E94D0130C94D1139E
:1027C00081E008950C94E013089508950E94671F16
:1027D0000E948E080E947E0E0E94EA1F0E94560CE4
:1027E0000C94D4138F929F92AF92BF92CF92DF92AC
:1027F000EF92FF920F931F93CF93DF93CDB7DEB786
:102800002A970FB6F894DEBF0FBECDBF0E94E41327
:102810000E94E5130E94DC0881110E94B5135EE05E
:10282000852E51E0952E10E000E0A02E802F0E9412
:1028300065086C01F401E190F1904F01E816F9068A
:1028400009F45EC08091A00181FD0E946E08C7015D
:102850008C259D25B12CEE24E394F12C9C012E2196
:102860003F21232B09F446C00E94E2138823A9F0DC
:10287000BE82AF82CE20DF2081E0CD2809F480E047
:1028800088870E946E1F8160782F9A8789874E8182
:102890005F8168858A850E94AA14000F111FF801C4
:1028A000E25FFE4F80819181E826F926F182E08285
:1028B0000E94AB0D0E940B0B0E94641390910D01BE
:1028C0008917A9F10E94641380930D012A960FB60F
:1028D000F894DEBF0FBECDBFDF91CF911F910F9156
:1028E000FF90EF90DF90CF90BF90AF909F908F9030
:1028F0000C945C06B394EE0CFF1CFFE0BF12AECF4D
:102900000F5F1F4F0530110509F08FCF8FEF8983BF
:102910008A831B820E946E1F8160782F9D838C8327
:1029200049815A816B818D810E94AA14C1CF2A9658
:102930000FB6F894DEBF0FBECDBFDF91CF911F91D0
:102940000F91FF90EF90DF90CF90BF90AF909F904E
:102950008F900895DF92EF92FF920F931F93CF9382
:10296000DF93CDB7DEB72B970FB6F894DEBF0FBE5F
:10297000CDBF7A878B87F42E052F162FE72ED82E02
:1029800061110E94951D1E821D827E2DEC82DD82CA
:102990004F2D502F612F8D2D9E812B960FB6F894C1
:1029A000DEBF0FBECDBFDF91CF911F910F91FF9082
:1029B000EF90DF900C946C1AFC01808191810C9453
:1029C000221DCF93C82F882309F447C08CEF8C0FAA
:1029D000813AA0F46C2F8091690090916A000E9466
:1029E000F21E882329F08C2F0E94571D0E94C11DC2
:1029F0008C2F0E94501DCF910C94C11D80E28C0F32
:102A0000883048F4C77081E001C0880FCA95EAF7A2
:102A10000E94781DF0CFEBE5EC0FE33040F4F0E0DE
:102A2000E651FF4F808190E0CF910C948913E8E547
:102A3000EC0FE73150F4F0E0EE0FFF1FE454FF4FCE
:102A400080819181CF910C949F13C03F30F08C2FE7
:102A50000E941D0ACF910C94F00ACF91089588230B
:102A600061F19CEF980F913A20F40E94571D0C944D
:102A7000C11D90E2980F983050F4877091E001C02A
:102A8000990F8A95EAF7892F0E947E1DF0CF9BE56A
:102A9000980F933020F490E080E00C94891398E52F
:102AA000980F973120F490E080E00C949F13803FC2
:102AB00020F00E94770A0C94F00A08951F93CF9398
:102AC000DF93182FEB010E94E114209731F4812F3E
:102AD000DF91CF911F910C942F158FE99FE0019703
:102AE000F1F700C000002197F0CF70E060E089337B
:102AF00011F460E570E00C945E15882321F00E94CB
:102B0000781D0C94C11D0895882321F00E947E1D1C
:102B10000C94C11D0895BF92CF92DF92EF92FF9265
:102B20000F931F93CF93DF936C01D62FC72FFC0118
:102B30001281058102950F700E946E1DE82E882378
:102B4000A1F0E12E112389F08C2F807F803429F0B1
:102B500080E28D0FE12C883040F082E00E940C1E54
:102B60000E946E1D91E0E82EE926BC2EB2949FE0F3
:102B7000B922EB2DF0E0ED59FB4D0C94DF230C2F27
:102B80000F70C07F11F00295007F1123A9F0002380
:102B900059F080E28D0F883010F0D11109C0802FDC
:102BA0000E94781D0E94C11D8D2F0E94E11414C047
:102BB000802F0E94881DF6CF8D2F0E942F15002395
:102BC00059F080E28D0F883010F0D1112CC0802F89
:102BD0000E947E1D0E94C11D2B2D2850330B2430D6
:102BE000310520F40E9464130E945C06EE2009F473
:102BF0009EC10E946A1D80FD9AC1F60112820E9448
:102C0000641D0E94F01BC6010E94B8170E94641D3B
:102C1000DF91CF911F910F91FF90EF90DF90CF90B8
:102C2000BF900C94111C802F0E948E1DD3CFFC2FBF
:102C3000FF70FF2EC07FC03219F0F29480EFF822AF
:102C4000DD2369F0D13049F1112391F1002351F1D5
:102C5000F601858180FFA8CF8F70858323C0112363
:102C600081F0011106C00E94A81D8F290E947D15C8
:102C7000B3CF0130C1F70E94A81D8F290E94AE1D5D
:102C8000ABCF011106C00E94B71D8F2D0E94841585
:102C9000A3CF013009F4A0CFF6CF112329F00630DD
:102CA00008F09ACF8F2DE2CF053008F095CFEDCF09
:102CB000002359F3D93349F4FFEF27EE33E0F15005
:102CC00020403040E1F700C000008D2F0E942F15FA
:102CD00083CF8C2F86958695837069F0813009F0BB
:102CE0007BCF8D2F9C2F9370111102C090E080E05C
:102CF0000E949F1371CF8D2F9C2F9370111102C0D2
:102D000090E080E00E94891367CF8D2F112329F076
:102D10000E941D0A0E94F00A5FCF0E94770AFACF34
:102D20008C2F837009F041C0111156CF4D2F429561
:102D300046954770440F440F0D2F0F7010E030E0A0
:102D400020E0042E04C0000F111F221F331F0A941D
:102D5000D2F760E070E0CB01D4FF0FC06FE070E00D
:102D600080E090E004C0660F771F881F991F4A9586
:102D7000D2F76095709580959095C695C695C3706D
:102D8000602B712B822B932BC23049F058F4C13049
:102D900019F00E94A21B20CF0E94901B1DCF0E9401
:102DA000B41B1ACF0E948E1B17CF8695112311F0EA
:102DB0008C2F8170882309F40FCF4D2F42954695B3
:102DC0004770440F440F0D2F0F7010E030E020E0EB
:102DD000042E04C0000F111F221F331F0A94D2F7C4
:102DE00060E070E0CB01D4FF0FC06FE070E080E0E6
:102DF00090E004C0660F771F881F991F4A95D2F78D
:102E00006095709580959095C695C695C370602B1A
:102E1000712B822B932BC23049F058F4C13019F03A
:102E20000E94671CD9CE0E94551CD6CE0E94791CE8
:102E3000D3CE0E94CA1BD0CECF70112329F08C2F85
:102E40000E94F01B8D2F12CF8D2F0E9484158C2F86
:102E50000E94111CC1CED23F89F160F4D03FC9F06D
:102E6000D13F29F1112309F442C001119DCE8C2FCD
:102E70008F7121C0D33F39F1D43FA1F7112369F1FC
:102E8000CF718C2F0E94F01B63E08C2F0E94F71DE6
:102E9000A3CE112341F0053008F09ECE8C2F8F7108
:102EA0000E94341C99CE063008F096CEF7CF8C2FB6
:102EB0008F71112369F20E94F01B8ECE8C2F8F71BF
:102EC0001123C9F3C5CF112329F08C2F8F710E94D4
:102ED000DB1B82CE0E94D61B7FCE81E00E940C1E9F
:102EE000023008F479CE82E00E940C1E75CE0023D9
:102EF00059F0D93309F0E9CE8FEF97EEE3E0815036
:102F00009040E040E1F7DFCE8C2F8F71A1CF4C2FA6
:102F10004F706D2FC6010E9464060E94061B5CCE96
:102F20004C2F4F706D2FC6010E94670655CEDF9162
:102F3000CF911F910F91FF90EF90DF90CF90BF90B6
:102F400008950F931F93CF93DF93EC0168817981EC
:102F50008A810E942C1D8C010E948B1C0E948D1B5B
:102F6000B801CE01DF91CF911F910F910C948B1579
:102F7000CF93DF93EC018B819C81892B29F0888191
:102F8000998189238F3F59F4DF91CF910895CE0124
:102F90000E94A117CE01DF91CF910C949D04CE0128
:102FA0000E942E058111F3CF0E946E1D882361F3CC
:102FB0008A81882349F382E0DF91CF910C940C1E23
:102FC00090E080E00E94891390E080E00E949F13CF
:102FD0000E94951D0E94A51D0E94C11D0E94170CF4
:102FE0000C94F00A0E945E1D0C94E0170E94851D4F
:102FF0000C94F217E92FE295EF70E250EE3070F486
:10300000F0E0ED58FB4D0C94DF23803F19F020F4E5
:10301000883E20F481E00895843FE1F380E0089544
:10302000883EC0F3813FD1F7F5CF93FB882780F925
:1030300008950E94221D0C94FA17CF93DF9300D0BD
:1030400000D00F92CDB7DEB70F900F900F900F907A
:103050000F90DF91CF910895CF93DF9300D000D0F0
:1030600000D0CDB7DEB726960FB6F894DEBF0FBE00
:10307000CDBFDF91CF9108951F93CF93DF93C09180
:10308000210116E0809122018C1304C0DF91CF91C1
:103090001F910895D0E01C9FF0011D9FF00D112499
:1030A000ED5DFE4F40815181628173818481958104
:1030B0000E942C182196C770E5CF40915301509182
:1030C0005401609155017091560180915701909182
:1030D00058010C942C181F93CF93DF9380915801C3
:1030E000807FA9F480915501882389F08091210186
:1030F000C09122016091530170915401A091560139
:10310000B0915701D62FD72316E0C81304C0DF9122
:10311000CF911F91089590E0109711F0DF3F19F4BF
:1031200001968770F2CF189F9001199F300D1124DE
:10313000F901ED5DFE4F41814713F2CF4081461307
:10314000EFCF42814111ECCF438154814A1B5B0B8D
:10315000483C510528F7809158018F708061809319
:103160005801F901E85DFE4F80818F708061808396
:1031700083E591E00E94B817DF91CF911F910C94E5
:103180003C18AF92BF92CF92DF92EF92FF920F93D3
:103190001F93CF93DF93CDB7DEB761970FB6F89447
:1031A000DEBF0FBECDBF8C0185E0F801DE011D96AC
:1031B00001900D928A95E1F7F80140815181E280FA
:1031C00083E5C82E81E0D82E609156017091570199
:1031D0006115710509F461C1909153012091540169
:1031E000892F82238F3F09F458C1A380B480F090C7
:1031F0005501F501E61BF70BFF2009F4FCC0809197
:103200005801382F307FE83CF10508F0B2C0311189
:1032100079C0FE2C251323C0941321C0E1101FC0D8
:103220008F708061809358010E945D18C6010E94D2
:10323000B81780915801F80185838F2D61960FB6DC
:10324000F894DEBF0FBECDBFDF91CF911F910F91DC
:10325000FF90EF90DF90CF90BF90AF900895AB2894
:1032600029F0842F85238F3F09F033C180E0F82FA8
:10327000F170DF2E80FF3CC080912101209122015E
:1032800036E0821315C04D875E878D859E850E942E
:10329000221D292F22952F702230F0F0243018F5AE
:1032A0009F70F1F0F8019581907FD1F4D12C1EC070
:1032B00090E0389FF001399FF00D1124ED5DFE4F35
:1032C0006181651306C06081641303C062816E1161
:1032D0000FC001968770D5CF9F7011F0882331F30E
:1032E000805E883018F3C8010E94B817FD2CA5CF66
:1032F000EE2009F4A2CF809158018160809358019B
:10330000F12C9BCF251306C0941304C0F801EE20C6
:1033100009F48DC04D875E878D859E850E941918A2
:10332000882319F1EE2009F180915801803270F064
:10333000209153013091540138872F831986BB8621
:10334000AA868C87CE0107960E94B81786E0F801FE
:10335000A3E5B1E001900D928A95E1F70E946B1808
:103360000E945D18FF24F39468CFC8010E94B8172B
:10337000F9CF311113C07A2DB98AA88A6E2D8989A7
:103380000E941D1883E591E00E94B81786E0F601BF
:1033900011928A95E9F70E945D18B2CF25130FC0EC
:1033A00094130DC0E1100BC0F8018583C8010E9481
:1033B000B81786E0F60111928A95E9F73ECF4D875E
:1033C0005E878D859E850E941918882371F2EE20F4
:1033D00061F280915801803208F4B8CF20915301F6
:1033E000309154013A8329831B82BD82AC828E8343
:1033F000CE010196A9CFE83CF10508F041C0FE2CB2
:10340000EE2009F4B2CF25132AC0941328C080916E
:10341000580180FD1BC0982F907FC1F0F801858373
:10342000903F31F0982F907F905F8F70892B85832C
:10343000C8010E94B81786E0F801A3E5B1E0019049
:103440000D928A95E1F70E945D18F7CE86E0F801AB
:10345000A3E5B1E001900D928A95E1F7EECE4D879C
:103460005E878D859E850E94191881116FCF80918E
:103470005801816080935801C8010E94B817DDCEC1
:103480007A2DB98AA88A6E2D89890E941D1886E036
:10349000F60111928A95E9F7D6CFEE2009F465CFAF
:1034A0004D875E878D859E850E941918F82E88238A
:1034B00009F45BCF86E0F801A3E5B1E001900D923D
:1034C0008A95E1F783E591E00E94DC140E946B1875
:1034D000BACF81E08E25CBCE1F93CF93DF93CDB7AC
:1034E000DEB72C970FB6F894DEBF0FBECDBF4F836B
:1034F000588769877A878B879C87CE0107960E94B9
:10350000C118882369F08A859B85892B39F04F8102
:103510005885842F85238F3F09F071C016E05FC066
:1035200086E0FE013796DE01119601900D928A9594
:10353000E1F78A859B85892B89F38F81988589237B
:103540008F3F61F32091220130E0C901019687701D
:103550009927409121014817190671F40E94F61726
:10356000109222011092210186E0E3E5F1E0DF01F3
:103570001D928A95E9F7D2CF96E0929FD001939F52
:10358000B00D1124AD5DBE4FFE01319601900D923C
:103590009A95E1F7809322010E943C18BFCF819F4A
:1035A000C00111248D5D9E4F0E94C1188823E9F04F
:1035B000E09121011E9FF0011124ED5DFE4F40813D
:1035C000518162817381848195810E942C18809140
:1035D000210190E0019687709927809321018091C5
:1035E0002101909122018913DACF2C960FB6F8941D
:1035F000DEBF0FBECDBFDF91CF911F9108956985CA
:103600007A858B859C850E942C1888CFEF92FF923B
:103610000F931F93CF93DF938C01892B81F0F12CB3
:10362000EE24E394E8012196F8018491843770F444
:10363000843008F05FC08130B1F08230A1F1DF91B9
:10364000CF911F910F91FF90EF900895853709F466
:103650004CC008F43DC09CE7980F903780F78F77F7
:103660000E942F1549C00E5F1F4FFE01849190E20A
:10367000980F983060F48770FE2D01C0FF0F8A9577
:10368000EAF78F2F0E94981D0E94C11D02C00E9460
:10369000E1148F2D815030F2EFE9FFE03197F1F71F
:1036A00000C00000F7CF0E5F1F4FFE01849190E233
:1036B000980F983050F48770FE2D01C0FF0F8A9547
:1036C000EAF78F2F0E949E1DDFCF0E942F15E1CFBA
:1036D0000E5F1F4FFE01C491C150D8F28FE99FE0E9
:1036E0000197F1F700C00000F7CF0E5F1F4FFE01FA
:1036F000F490CFCF0E94E1148E01CBCF08950C94AB
:103700007E1B0E947F1B60938F01709390018093BA
:103710009101909392010C94E01708950C94811BF1
:103720000F931F9300918F011091900120919101AF
:1037300030919201602B712B822B932B1F910F9153
:103740000C94811B0F931F9300918F011091900196
:103750002091910130919201602371238223932360
:103760001F910F910C94811B0F931F9300918F0158
:103770001091900120919101309192016027712761
:10378000822793271F910F910C94811B0C947E1B11
:103790000C94C61B0E94C81B60938B0170938C0114
:1037A00080938D0190938E010C94E01760E070E09F
:1037B000CB010C94CA1B0F931F9341E050E060E0D3
:1037C00070E08A019B0104C0000F111F221F331FEC
:1037D0008A95D2F7C901B8011F910F910C94CA1BA9
:1037E0000F931F9341E050E060E070E004C0440F8D
:1037F000551F661F771F8A95D2F780918B01909194
:103800008C01A0918D01B0918E018A019B01082B42
:10381000192B2A2B3B2BC901B8011F910F910C9436
:10382000CA1B0F931F9341E050E060E070E004C0BA
:10383000440F551F661F771F8A95D2F7CB01BA0137
:10384000609570958095909500918B0110918C01F9
:1038500020918D0130918E01602371238223932367
:103860001F910F910C94CA1B0F931F9341E050E0DE
:1038700060E070E004C0440F551F661F771F8A95F3
:10388000D2F780918B0190918C01A0918D01B09124
:103890008E018A019B01082719272A273B27C90186
:1038A000B8011F910F910C94CA1B0F931F930091A5
:1038B0008B0110918C0120918D0130918E01602B34
:1038C000712B822B932B1F910F910C94CA1B0F937A
:1038D0001F9300918B0110918C0120918D013091EB
:1038E0008E0160237123822393231F910F910C94E7
:1038F000CA1B0F931F9300918B0110918C01209193
:103900008D0130918E0160277127822793271F91A7
:103910000F910C94CA1B08952FE0929F800D1124E3
:10392000982F977041E001C0440F9A95EAF7869569
:103930008695869595E0899FF0011124E75AFE4F00
:1039400090E080E070E05191DF0111979B01082E1B
:1039500002C0369527950A94E2F721702195252714
:10396000242325272C9301968530910561F708952E
:103970002FE0929F800D1124982F97708695869541
:10398000869525E0829FF0011124E75AFE4F50E012
:1039900040E080E0219130E0092E02C03695279565
:1039A0000A94E2F721703327042E01C0220F0A94F3
:1039B000EAF7822B4F5F5F4F4530510559F7089565
:1039C000BF92CF92DF92EF92FF920F931F93CF930C
:1039D000DF938C01C0908B01D0908C01E0908D0121
:1039E000F0908E0180918F0190919001A0919101B2
:1039F000B0919201C82AD92AEA2AFB2ACFE1D0E065
:103A0000BC2ED701C6010C2E04C0B695A79597957C
:103A100087950A94D2F780FD0EC0219788F7B12CC4
:103A20008B2DDF91CF911F910F91FF90EF90DF9041
:103A3000CF90BF900895B8018C2F0E947006019717
:103A400061F3EECFCF93DF93EC010E94E01CBE0147
:103A5000DF91CF910C9470061F93CF93DF93EB010E
:103A600090912001992331F0CB01DF91CF911F91EB
:103A70000C94221D882379F0CB010E94E01C182FA2
:103A8000682FCE010E948C1CBE01812FDF91CF9147
:103A90001F910C947006CB010E94B81C182FF4CF14
:103AA000682F8091690090916A000C94281F682FFC
:103AB0008091690090916A000C942A1F809169009E
:103AC00090916A000C942C1F8091930185958595A7
:103AD0008595089580919301877008959091930141
:103AE000977081E009F480E0089580919F01089526
:103AF00090919F01892B80939F01089580959091CB
:103B00009F01982390939F01089510929F0108951B
:103B100090919E01892B80939E01089580959091AC
:103B20009E01982390939E01089510929E010895FE
:103B300090919D01892B80939D010895809590918E
:103B40009D01982390939D01089510929D010895E1
:103B500080919401089508950C94AB1D9091940167
:103B6000981721F0809394010C94AC1D08958091D6
:103B70009401882329F01092940180E00C94AC1DEC
:103B80000895E0916900F0916A0080919F0180831F
:103B9000E0916900F0916A00808190919E01892BEB
:103BA0008083E0916900F0916A00808190919D018D
:103BB000892B808390919401992381F0E091690091
:103BC000F0916A008081892B8083809169009091B7
:103BD0006A000E94E01E81110E94B71D8091690059
:103BE00090916A000C94701308950C94F41D98E061
:103BF000899F90011124622B609393010E94F01B16
:103C0000809193018595859585950C94F51D10926D
:103C1000930180E00C94F51D909193018095892388
:103C200080939301282F277071F4282F082E000C01
:103C3000330B9217130639F08595859585950E946B
:103C4000111C0C94071E089580E008956FEF7FEF1C
:103C500090E080E00C94312490E080E00E940E24FB
:103C600021E08B3E9E4F09F020E0822F089582E0F4
:103C700090E00C94062483E090E00C940624CF930B
:103C800084E090E00E940624C82F81E290E00E9428
:103C90000624982F8C2FCF910895CF93C92F682F8A
:103CA00084E090E00E9414246C2F81E290E0CF9198
:103CB0000C94142486E090E00C940624682F86E08F
:103CC00090E00C941424AB01BC018FE090E00C94C4
:103CD0002524AB01BC0183E190E00C94252460E035
:103CE00070E0CB010C94691E60E070E0CB010E9493
:103CF000631E0C946F1E6BEE7EEF90E080E00E94DE
:103D0000312460E082E090E00E94142460E083E0CF
:103D100090E00E94142410928F0110929001109252
:103D200091011092920160E084E090E00E941424DE
:103D300060E081E290E00E94142460E085E090E081
:103D40000E94142460E086E090E00E9414246FEF4B
:103D500087E090E00E94142440E050E0BA0188E03F
:103D600090E00E94252460E08DE090E00E94142401
:103D700040E050E0BA0188E190E00E94252460E034
:103D800087E190E00E94142440E050E0BA018CE109
:103D900090E00E94252460E080E290E00E941424DC
:103DA00040E050E0BA0188E190E00E9425240C94A4
:103DB000741E0C947B1E682F8EE090E00C941424EB
:103DC0009C012E5F3F4FAC01485F5F4F80E024179E
:103DD000350709F40895F90191919F019923B9F3E9
:103DE0008F5FF5CF662349F0FC013296089621914A
:103DF000261729F0E817F907D1F780E0089581E048
:103E000008959C01FC0132969FEF80E04191461796
:103E100051F09F3F19F4411101C0982F8F5F8630F8
:103E2000A9F79F3F09F40895290F311D97FD3A9591
:103E3000F90162830895FC013296089621912613B8
:103E400003C0DF0111971C92E817F907B9F708952D
:103E50000C94011F0C941B1F029626E0FC0111928A
:103E60002A95E9F70895089508950C94341F8091D8
:103E7000A101882341F00E94351F80E00E94880D37
:103E800080E00C945C0608950895CF930E94331F40
:103E90000E94DC080E94441FC0E08C2F0E9465082D
:103EA000892B31F4CF5FC530C1F780E0CF91089501
:103EB00081E0FCCF08950C945A1F0E94F6170E94CF
:103EC000560C0E9464130E945C060C945B1F8BE0EE
:103ED00083BF8AEF8CBF82E089BF08952FB7F89423
:103EE00080916A0290916B02A0916C02B0916D0278
:103EF0002FBF08952FB7F89460916A0270916B02FA
:103F000080916C0290916D022FBF08959C014FB774
:103F1000F89480916A0290916B02A0916C02B0912A
:103F20006D024FBF821B930B089578941F921FB6AA
:103F30001F9211248F939F93AF93BF9380916A0236
:103F400090916B02A0916C02B0916D020196A11D3F
:103F5000B11D80936A0290936B02A0936C02B093A0
:103F60006D02BF91AF919F918F911F901FBE1F90C7
:103F7000189588E198E00FB6F894A89581BD0FBE1A
:103F800091BDA895F894D8E0CEE528E3299320E0E8
:103F9000299314BEFFCF08959093EF008093EE0015
:103FA00008950C946B0E0E94DC082FEF86E791E0D9
:103FB000215080409040E1F700C000000E94DC08E2
:103FC00080E00E94650880FF04C00E94D11F0C940D
:103FD000B91F08950E942C1E811102C00E94D91E93
:103FE0000E94371E8093A0010E943F1E90936F0293
:103FF00080936E020E943B1E682F70E090E080E08C
:104000000E948E1B60918B0170918C0180918D01BB
:1040100090918E010C94C81B0E946E1FEC010E94AF
:10402000D6130E946A238B9A80E0815009F047C022
:104030008B9878940E94E6130E9461210E945F137E
:10404000FFEF20E732E0F15020403040E1F700C0C0
:10405000000001E01CE0809197028823C1F11092DA
:1040600097020E946E1FEC018091A101882321F02C
:104070001092A1010E945D1F8091A1018823A9F1E6
:104080000E94371F0E94451F882329F3F89491B39B
:10409000939A892F8C6081BB82B3812782BB8FE783
:1040A000E8E3F1E08150E040F040E1F700C00000BB
:1040B00082B3812782BB91BB93987894CCCFA8958B
:1040C000EFE9FFE03197F1F700C00000AECF80913B
:1040D000A1018111D1CFCE010E94861F069760F207
:1040E0000093A1010E94371FC7CF0E947A228091BE
:1040F0009D02882329F080917B0284FD0E94F213A7
:104100000E94CE200E947A2280919D02882329F06D
:104110008091B40284FD0E9455210E94E4130E9404
:10412000E51399CF809154020895CF93DF9300D087
:104130000F92CDB7DEB79091A401981307C02091DC
:10414000A2013091A3012617370791F08093A401B3
:104150007093A3016093A20189837B836A8380911A
:10416000B40284FF05C063E0CE0101960E94722272
:104170000F900F900F90DF91CF910895BC0184E0D4
:104180000C949520BC0183E00C9495202091B402FE
:1041900024FF03C066E00C9472220895CF93DF934E
:1041A000CAE0D0E080917B0284FF1AC08091D101E7
:1041B0009091D201981789F028E0829FC0011124C4
:1041C00068E08D529E4F0E946E228091D10190E056
:1041D00001968F7099278093D101DF91CF91089537
:1041E0000E947A228FE99FE00197F1F700C000005A
:1041F0002197C1F6F2CFCF93DF93EC01A091D201CA
:10420000B0E0CD0101968F7099272091D101281738
:1042100079F093E0AA0FBB1F9A95E1F7AD52BE4F1C
:1042200098E0FE0101900D929A95E1F78093D201FA
:104230000E947A220E94CE2088E0FE01A9ECB1E023
:1042400001900D928A95E1F7DF91CF9108950F9338
:104250001F93CF93DF93EC01603211F58C01005E68
:104260001F4F02C00E947A228091870284FFFACFFA
:1042700068E0CE010E9476222896C017D107A1F7E8
:104280008091870284FF09C060E090E080E0DF91C8
:10429000CF911F910F910C9476220E947A22F0CF39
:1042A000DF91CF911F910F9108958091A8018032E5
:1042B00039F460E289EA91E00E94020F1092A801AD
:1042C00008958BE690E00895FC018081807680322D
:1042D000F1F48181813061F484819581892BB9F475
:1042E00089EC91E0909399028093980288E0089578
:1042F000823041F483E592E0909399028093980292
:1043000081E008958A3029F483818093530280E00C
:1043100008958930E1F7828193818115924069F493
:1043200084819581892B49F481E08093A70186815E
:1043300097819093A6018093A5018FEF0895FC01CA
:104340008091A5019091A601892B61F08091A70130
:10435000813041F49081909354021092A601109202
:10436000A50108958FEF0895683019F01092A80103
:1043700008952091A8012931C8F7FC01A22FB0E0CF
:10438000A755BE4F089631913D93E817F907D9F725
:10439000285F2093A8010895FC018381833089F16F
:1043A00030F48130F1F0823021F180E008958132E3
:1043B00009F446C08232C9F72481358121303105A4
:1043C00009F45CC02115310509F450C022303105D3
:1043D00061F785EB94E090939902809398028BE7C4
:1043E000089587E394E0909399028093980282E184
:1043F00008958CED93E090939902809398028BE559
:10440000089582818130A1F0882351F0823069F6CD
:1044100089E494E0909399028093980280E2089551
:104420008FE894E0909399028093980284E0089535
:104430008BE694E0909399028093980282E208952B
:104440008281813081F0882331F0823009F0ADCF54
:1044500087E294E002C08EEE93E0909399028093FD
:10446000980289E0089587E094E0F7CF80E395E033
:10447000909399028093980280E4089523E934E0B0
:10448000309399022093980208951F93CF93DF935E
:10449000E82F792F162FEA01888184FF1CC029811B
:1044A00088E828272983CE010296DC012E2F372F9A
:1044B000512F5E0FF90121912D939F01452F4E1B26
:1044C0001416C4F3612F0E9413031C5F1883DF913D
:1044D000CF911F9108958AE58883E5CF4BE752E09D
:1044E0000C94452244EB52E00C94452247E852E0FC
:1044F0000C944522CF93DF9360919A02635067FD3D
:1045000012C080919602CCE0D0E0C81BD109C256FF
:10451000DD4F80919502803108F054C0CE010E9499
:10452000B42110929A028091760084FF3EC080915F
:1045300075008F3FD1F1C82F893008F0C8E0982F5F
:104540009C1B909375009091700228E8922790939D
:1045500070028823E9F0809198029091990220914D
:10456000940226FFAEC0FC012C2FA1E7B2E03491EB
:104570003D9331962150D9F79C012F5F3F4F8FEF2C
:104580008C0F820F932F911D909399028093980224
:104590006C2F81E792E00E941303CC5FCC3019F0BE
:1045A0008FEF80937500C093760084E190B39C7088
:1045B00031F48150D9F710929B0210929302DF914F
:1045C000CF9108958D3209F069C0683009F0A9CF04
:1045D00083EC809370028AE58093760010929402B7
:1045E0008881807671F0CE010E9464218F3FC1F4F2
:1045F000988197FD8E8190E8909394028093750046
:1046000090CF2A81109279029981911111C0109254
:104610007A0229E732E082E03093990220939802EF
:104620009F819111EBCF9E81981740F7892FE6CF9C
:10463000953029F420939B0229E732E0EDCF9630A4
:1046400099F49B81913021F4CE010E94CC2108C0C5
:104650009230D1F39330C1F39132B1F39232A1F39E
:1046600090E490939402C2CF983089F0993019F475
:1046700020939D02E1CF9A3071F09B30E9F69BE4E4
:1046800090937C029093B50290938802D5CF2DE948
:1046900032E081E0C1CF29E732E0FBCF8091940284
:1046A00087FF3FCFCE010E949F218F3F21F48EE1F3
:1046B0008093760036CF882309F433CF10927500AB
:1046C00030CFDC012C2FE1E7F2E03D913193215016
:1046D000E1F752CFCF93DF9385B7886085BF8BB763
:1046E00080688BBFCBE7D2E08BE48983A4EBB2E098
:1046F00011968C931197E7E8F2E081838AE588832D
:104700008C938083DF91CF910895DB018F939F93EA
:104710000E94FB23BF91AF91A29F800D911DA39F8B
:10472000900DB29F900D11240895AA1BBB1B51E15F
:1047300007C0AA1FBB1FA617B70710F0A61BB70B11
:10474000881F991F5A95A9F780959095BC01CD01B6
:10475000089597FB072E16F4009407D077FD09D033
:104760000E94952307FC05D03EF4909581959F4FBC
:104770000895709561957F4F0895A1E21A2EAA1BA6
:10478000BB1BFD010DC0AA1FBB1FEE1FFF1FA21701
:10479000B307E407F50720F0A21BB30BE40BF50BFE
:1047A000661F771F881F991F1A9469F76095709587
:1047B000809590959B01AC01BD01CF010895EE0F4E
:1047C000FF1F0590F491E02D09946927962769272A
:1047D0007827872778270895A29FB001B39FC0014B
:1047E000A39F700D811D1124911DB29F700D811D1D
:1047F0001124911D08950E94EC23A59F900DB49F54
:10480000900DA49F800D911D11240895E199FECF74
:104810009FBB8EBBE09A99278DB30895A8E1B0E0C5
:1048200042E050E00C943924262FE199FECF9FBB43
:104830008EBBE09A01970DB2021631F02DBB0FB678
:10484000F894E29AE19A0FBE08950396272F0E94EA
:1048500015240E941424252F0E941524242F0C9423
:1048600015240196272F0E9415240C941424DC0192
:10487000CB01FC01E199FECF06C0FFBBEEBBE09A85
:1048800031960DB20D9241505040B8F70895F8940A
:10489000FFCF2E0D330D350D380D3B0D3E0D410D67
:1048A000160F230F4A0F560F610F6C0F6F0F720F09
:1048B000750FBE0FBE0F780F7C0F840F910F9E0FE8
:1048C000A10FA40FB10FBF15BF1517161716691644
:1048D0008516EC15EC1590161C172B172B17871740
:1048E000EC15EC159017051805180E180E18101871
:1048F0000E180E180E180518051815180E180E1893
:1049000015182808641E140A321E0695019220FB11
:1049100020C620C220BE20FF5AE200E900EA00B50E
:1049200000B600B700CD008301CC008A019201944B
:10493000012102230224022502260227022A02B3B1
:1049400000B4006F007000818283626160636465FF
:104950000001050607303332319091929394E200C2
:10496000E900EA00B500B600B700CD008301CC0035
:104970008A019201940121022302240225022602C7
:1049800027022A02B300B4006F0070008182830006
:10499000FFFFFFFFFFFFFFFFFFFFFFFFFFFFFFFF27
:1049A000FFFFFFFFFFFFFFFFFFFFFFFFFFFFFFFF17
:1049B000FFFFFFFFFFFFFFFFFFFFFFFFFFFFFFFF07
:1049C000FFFFFFFFFFFFFFFFFFFFFFFFFFFFFFFFF7
:1070000067C000009AC000007EC000007CC0000085
:107010007AC0000078C0000076C0000074C0000094
:1070200072C0000070C000006EC000006CC00000A4
:107030006AC0000068C0000066C0000064C00000B4
:1070400062C0000060C000005EC000005CC00000C4
:107050005AC000000600FF0901A101150026FF002B
:107060007508850195060900B2020185029583091C
:1070700000B20201C00902220001010080320904AD
:10708000000001030000000921010100012221008C
:10709000070581030800C81201100100000008C0A4
:1070A00016DF0500010102000110034800490044F9
:1070B0000042006F006F00740012036F00620064F2
:1070C00000650076002E00610074000403090400CE
:1070D00011241FBECFE5D8E0DEBFCDBF10E0A0E693
:1070E000B0E0E2EDF6E702C005900D92AA36B107D6
:1070F000D9F720E0AAE6B0E001C01D92AA39B20794
:10710000E1F73FD1E4C27CCFA82FB92F80E090E017
:1071100041E050EA609530E009C02D9182279795B3
:10712000879510F084279527305EC8F36F5FA8F32A
:107130000895EADF8D939D930895CF93CFB7CF93B2
:10714000DF93C395839BE9F7839B0BC0839B09C0A7
:10715000839B07C0839B05C0839B03C0839B01C0A7
:107160008BC06F93C0917D00DD27CC57DF4F2F93ED
:1071700065E5839B03C02F916F91E6CF0F931F931B
:107180004F9320E040E15F9300B30C7003FB27F9BD
:107190003F9350E03BE039C01C7040642F77012FD3
:1071A0005F5F1EC0406810B31C702F7752501FC025
:1071B000406400B32F770C70D1F15F5F00C023C033
:1071C000406210B32F771C7091F15F5F00C025C043
:1071D0000C701027515012F45D5F0000115027957C
:1071E0002C3F10B3C8F61C700127015027952C3F87
:1071F000C8F64227499300B30C7010274F73115003
:1072000027952C3FA8F64695469510B31C7079F04B
:107210000127015027952C3F98F66B5A60F33150A7
:1072200000B3B0F600C010E41ABF002719C03B50ED
:107230003195C31BD04010E41ABF0881033C09F10B
:107240000B34F9F020917B001981110F1213EDCF4F
:107250004A81441F093651F10D3211F0013E29F7E0
:10726000009382003F915F914F911F910F912F9159
:107270006F91CAB7C6FD65CFDF91CF91CFBFCF91D8
:10728000189520918200222369F310918000112328
:1072900049F534304AF13093800020937C001091FE
:1072A0007D003BE0311B30937D001EC000918000CB
:1072B0000130C4F40AE54F70A9F43091680034FD40
:1072C00014C000936800C0E7D0E013C0052710E0A9
:1072D00000C0000002BB1AC0052710E0221F1DC01D
:1072E00010E021C04AE502C032ED432FC4E1D0E0F6
:1072F00032E011B31C60939A02B311BB5CE020E84A
:1073000065E320FF052702BB279517951C3FF0F684
:107310006695B8F7B1F720FF052702BB27951795AB
:107320001C3FD0F62795179517FF052700001C3F37
:1073300002BBB0F629913A9519F7037F10918100AD
:10734000110FC651D04002BB11F010937B0010E426
:107350001ABF086011B3137F402F437F54E05A9542
:10736000F1F702BB11BB42BB7DCF80916F00811151
:1073700005C0B29903C081E080936F0080916F00D7
:107380000895BA98C29AD09AD89885E38A95F1F769
:107390000000EBDF81110DC0F89481E1809357006C
:1073A000E8951BBE15BE81E08BBF1BBEF0E0E0E0A0
:1073B000099581E08BBF82E08BBF85B7836085BF75
:1073C0008BB780648BBF8B9A80E0A895EFE9FFE0D4
:1073D0003197F1F700C000008150B9F78B9878948D
:1073E00010E0D0E0A895409180003DEF340F37FDCC
:1073F00037C080917D00ACE0B0E0A81BB109AC576C
:10740000BF4F80917C008D3209F00BC1383031F5CF
:1074100083EC809370008AE58093680010926E0080
:107420002C91822F807611969C911197882309F4D4
:1074300083C0993009F06BC012968C9112978230FC
:1074400009F060C010926B008FEF27FF02C0169604
:107450008C9190E890936E0080936700109280006A
:107460008091680084FF37C0809167008F3F99F159
:10747000C82F893008F0C8E0982F9C1B90936700B4
:107480009091700028E89227909370008823B9F0BB
:1074900080917E0020917F0030916E009C2F980F8C
:1074A000E82FF22FA1E7B0E036FF0CC184918D9355
:1074B00031969E13FBCFF0937F00E0937E006C2FFC
:1074C00081E790E036DECC5FCC3019F08FEF80930F
:1074D0006700C093680084E190B39C7031F48150E0
:1074E000D9F71092810010927B0080916A00882366
:1074F00029F0D15019F4115009F44ECF36DF811123
:1075000071CF4ACF81E080936A0080E009C091305A
:10751000E1F780E690E090937F0080937E0087E023
:1075200017969C911797911197CF16969C91981743
:1075300008F092CF892F90CF12962C91129710922B
:10754000790091110AC010927A0029E730E082E0B8
:1075500030937F0020937E00E3CF953029F4209371
:10756000810029E730E0F4CF963009F049C0139646
:107570009C911397913041F487E990E790937F00B5
:1075800080937E0082E109C0923059F485E790E74C
:1075900090937F0080937E0082E290E490936E004F
:1075A000BFCF9330C9F4211108C08BEC90E79093C2
:1075B0007F0080937E0084E0F0CF213019F489EBC6
:1075C00090E7DCCF223049F789EA90E790937F007B
:1075D00080937E0080E1E1CF913241F487E890E72B
:1075E00090937F0080937E0089E0D7CF9232A9F6F6
:1075F00084E590E790937F0080937E0081E2CDCF79
:10760000983059F0993019F420938300AACF81E083
:107610009A3009F4A6CF80E0A4CF23E830E081E0DF
:1076200097CF80916E0087FF19CF80916C00909169
:107630006D0020916B00211109C011968C9111975A
:1076400012969C911297149639EF340F230F2093C2
:107650006B00AD01682F6F7751F1F894FA01E1905A
:10766000F190AF0161E0FC01070160935700E895DC
:1076700011247894BC016E5F7F4FCB01C62FCF776A
:1076800049F4F894C5E0C0935700E895789407B69C
:1076900000FCFDCFE32FEA0FE413DCCF70936D0005
:1076A00060936C0027FFDACE10926700D7CEF89473
:1076B00063E0FC0160935700E895789407B600FCFE
:1076C000FDCFCBCF81918D939E13FCCFF4CEF89458
:1076D000FFCF01800000800000FF5A00FFFFFFFF86
:1076E000FFFFFFFFFFFFFFFFFFFFFFFFFFFFFFFFAA
:1076F000FFFFFFFFFFFFFFFFFFFFFFFFFFFFFFFF9A
:10770000FFFFFFFFFFFFFFFFFFFFFFFFFFFFFFFF89
:10771000FFFFFFFFFFFFFFFFFFFFFFFFFFFFFFFF79
:00000001FF
