:100000000C947C040C94C3040C94C3040C94C3049B
:100010000C94C3040C94C3040C94C3040C94C30444
:100020000C94C3040C94C3040C94A5230C94612376
:100030000C94A2240C94C3040C94C3040C94C30425
:100040000C94C3040C94C3040C94C3040C94C30414
:100050000C94C9240C947E240C94C3040C94C30403
:100060000C94C3040C94C3040C94C3040C94C304F4
:100070000C94C3040C94C3040C94C3040C94C304E4
:100080000C94C3040C94C3040C94C3040C94C304D4
:100090000C94C3040C94C3040C94C3040C94C304C4
:1000A0000C94C3040C94C3040C94C304050109020A
:1000B000A10185020901A1000509190129081500FE
:1000C0002501950875018102050109300931158165
:1000D000257F95027508810609381581257F9501D0
:1000E00075088106050C0A38021581257F95017572
:1000F000088106C0C005010980A101850319012AF4
:10010000B700150126B700950175108100C0050CD8
:100110000901A101850419012AA002150126A002E6
:10012000950175108100C005010906A1018506052C
:100130000719E029E71500250195087501810205D9
:1001400007190029EF1500250195F07501810205B9
:10015000081901290595057501910295017503910D
:1001600001C00660FF0961A1010962150026FF00B8
:100170009520750881020963150026FF00952075FA
:10018000089102C005010906A101050719E029E748
:1001900015002501950875018102950175088101F9
:1001A0000507190029FF150026FF0095067508812F
:1001B000000508190129059505750191029501753C
:1001C000039101C0000000000000000000000000DA
:1001D000000000000000000000000000000000001F
:1001E00000000000000000007E0F00D4FFFFFFC7EA
:1001F0000000007800000000000000002A2B28000A
:1002000000000000000000000000000000000029C5
:10021000000000002C1E3420212224342627252E05
:10022000362D3738271E1F2021222324252633333D
:10023000362E37381F0405060708090A0B0C0D0E69
:100240000F101112131415161718191A1B1C1D2F35
:100250003130232D350405060708090A0B0C0D0E55
:100260000F101112131415161718191A1B1C1D2F15
:100270003130354C1E0F0500047F3F1F643214647B
:100280003214783C1E1E140A05000101010101010F
:10029000010101020202020202020202030303033D
:1002A000030303030404040404040405050505050D
:1002B00006060606060707070707080808080909CB
:1002C00009090A0A0A0B0B0B0C0C0C0D0D0D0E0E76
:1002D0000E0F0F0F10101111111212131314141509
:1002E0001516161717181819191A1A1B1B1C1D1D7D
:1002F0001E1E1F20202122222324242526262728D3
:1003000029292A2B2C2D2D2E2F3031323233343502
:10031000363738393A3B3C3D3E3F40414243444505
:10032000464748494A4C4D4E4F50515354555658E4
:10033000595A5B5D5E5F616264656668696B6C6D8E
:100340006F7072737577787A7B7D7E808283858704
:10035000888A8C8E8F91939596989A9C9EA0A2A342
:10036000A5A7A9ABADAFB1B3B5B7BABCBEC0C2C447
:10037000C6C9CBCDCFD1D4D6D8DBDDDFE2E4E7E907
:10038000EBEEF0F3F5F8FAFDFFFFAA7F55402223CC
:10039000252628292A2C2D2F3032333536383A3B62
:1003A0003D3E4042434547494A4C4E5051535557B4
:1003B000595A5C5E6062646668696B6D6F717375D3
:1003C00077797B7D7F81838587898A8C8E909294D3
:1003D00096989A9C9E9FA1A3A5A7A8AAACAEAFB1E0
:1003E000B3B4B6B8B9BBBCBEBFC1C2C3C5C6C7C92A
:1003F000CACBCCCDCED0D1D2D2D3D4D5D6D7D7D8E4
:10040000D9D9DADADBDBDBDCDCDCDCDCDDDDDDDD35
:10041000DCDCDCDCDCDBDBDBDADAD9D9D8D7D7D63D
:10042000D5D4D3D2D2D1D0CECDCCCBCAC9C7C6C5F4
:10043000C3C2C1BFBEBCBBB9B8B6B4B3B1AFAEAC3A
:10044000AAA8A7A5A3A19F9E9C9A98969492908EE5
:100450008C8A89878583817F7D7B79777573716FBE
:100460006D6B6968666462605E5C5A59575553519A
:10047000504E4C4A4947454342403E3D3B3A383650
:10048000353332302F2D2C2A29282625232200000F
:100490000000000000000000000101020304050646
:1004A000080A0C0F1114181C2024292E33393F463A
:1004B0004C535B626A7179818A929AA2AAB2B9C1DD
:1004C000C8CFD5DCE1E7EBF0F4F7FAFCFDFEFFFE68
:1004D000FDFCFAF7F4F0EBE7E1DCD5CFC8C1B9B227
:1004E000AAA29A928A8179716A625B534C463F391B
:1004F000332E2924201C1814110F0C0A0806050499
:1005000003020101000000000000000000002900BB
:100510003A003B003C003D003E003F0040004100EF
:1005200042004300440045004C004600470048009C
:1005300035001E001F00200021002200230024009F
:100540002500260027002D002E002A0049004A0021
:100550004B002B0014001A000800150017001C00A7
:1005600018000C00120013002F00300031004C0066
:100570004D004E00390004001600070009000A0073
:100580000B000D000E000F00330034002002280085
:10059000000000000000E10031001D001B0006000B
:1005A0001900050011001000360037003800E10086
:1005B000E100000052000000E000E300E200000063
:1005C000000000002C00000000000000E200E3003A
:1005D0000151E000500051004F00010001000100F6
:1005E0000100010001000100010001000100010003
:1005F00001000100010001000100010001000100F3
:1006000001000100010001000100010001000100E2
:1006100001000100010001000100010001000100D2
:1006200001000100010001000100010001000100C2
:1006300001000100010001000100010001000100B2
:1006400001000100010001000100010001000100A2
:100650000100010001000100010001000000000094
:100660000000010001000100010001000100010083
:100670000100010001000100010001000100000073
:100680000100000001000100010000000000000066
:100690000100000000000000010001000100010055
:1006A0000100010001000100010001000100010042
:1006B0000100010001000100010001000100010032
:1006C0000100010001000100010001000100010022
:1006D0000100010001000100010001000100010012
:1006E0000100010001000100010001000100010002
:1006F00001000100010001000100010001000100F2
:1007000001000100010001000100010001000100E1
:1007100001000100010001000100010001000100D1
:1007200001000100010001000000000000000100C4
:1007300001000100010001000100010001000100B1
:1007400001000100010001000100000001000000A3
:100750000100010001000000000000000100000095
:100760000000000001000100010001000100010083
:100770000100010001000100010001000100010071
:100780000100010001000100010001000100010061
:100790000100010001000100010001000100010051
:1007A0000100010001000100010001000100010041
:1007B0000100010001000100010001000100010031
:1007C0000100010001000100010001000100010021
:1007D0000100010001000100010001000100010011
:1007E0000100010001000100010001000100010001
:1007F00001000100000000000000010001000100F4
:1008000001000100010001000100010001000100E0
:1008100001000100010000000100000001000100D2
:1008200001000000000000000100000000000000C6
:1008300001000100010001000100010001000902A6
:100840005B00030100A0FA0904000001030101009C
:100850000921110100012240000705810308000160
:100860000904010002030000000921110100012216
:100870002200070582032000010705030320000171
:1008800009040200010300000009211101000122F6
:10089000B6000705840320000112010002000000D9
:1008A000084C4D0287010001020001220349006E3D
:1008B00000660069006E0069007400790038003736
:1008C0000020007200650076002E00320000002239
:1008D000034D006500630068006C006F00760069DE
:1008E000006E002E00530074007500640069006FF4
:1008F000000000040309040011241FBECFEFDAE05A
:10090000DEBFCDBF04B603FE27C080918E03909159
:100910008F03A0919003B09191038730904BA74033
:10092000B04BD1F410928E0310928F03109290036B
:100930001092910314BE84B7877F84BF0FB6F894DA
:10094000A89580916000886180936000109260009B
:100950000FBEE0E0F8E3099523E0A2E9B1E001C0B1
:100960001D92AE38B207E1F711E0A0E0B1E0E2E499
:10097000FAE502C005900D92A239B107D9F70E949D
:100980003B250C94C12C0C940000E8EDF0E0808134
:100990008E7F80831092E2001092DA001092E100C4
:1009A000A0EEB0E08C9181608C9380818F77808302
:1009B00019BCA7EDB0E08C918E7F8C9380818F7EE7
:1009C000808310925B0308952091E4003091E5004C
:1009D00095E6A9012091EC00822F817020FF06C0CE
:1009E0008091E80080FF06C080E008952091E80033
:1009F00022FD1AC080918003882389F0853089F018
:100A00008091EB0085FD0FC02091E4003091E5005E
:100A100042175307F9F29150E1F684E0089582E01D
:100A2000089583E0089581E00895EF92FF920F9377
:100A30001F93CF937C018B010E94E404C82F811186
:100A400017C08091E80085FD0BC08091E8008E778B
:100A50008093E8000E94E404882399F3C82F08C01B
:100A6000F70181917F018093F1000150110949F74D
:100A70008C2FCF911F910F91FF90EF90089580914F
:100A8000820387FF13C08091E80082FF06C0809137
:100A9000E8008B778093E80004C080918003811187
:100AA000F2CF0895809180038823D9F38091E800E4
:100AB00080FFF8CF8091E8008E77ECCF982F90934D
:100AC000E900242F762F50E0891731F07091EC0067
:100AD0002091ED005091F00021FD07C09F5F9730FD
:100AE00071F78093E90081E008953091EB003E7F3B
:100AF0003093EB003091ED003D7F3093ED0030916D
:100B0000EB0031603093EB007093EC002093ED002C
:100B10005093F0002091EE0027FDE0CF80E0089593
:100B2000CF92DF92EF92FF920F931F93CF93DF93B9
:100B3000C8EDD0E088818F7E8883E7EDF0E080818A
:100B40008160808384E082BF81E080935B03888141
:100B50008E7F888302EE10E0F80110821092DA0096
:100B600081EEC82ED12CF601108288818F77888380
:100B700088818068888388818F7D888319BC1092E2
:100B800080031092810310927F0310927E0390EEF7
:100B9000E92EF12CF70180818B7F80838881816031
:100BA000888342E060E080E00E945E05F60180817B
:100BB0008E7F8083F801808181608083808188605E
:100BC0008083F70180818E7F808388818061888324
:100BD000DF91CF911F910F91FF90EF90DF90CF9019
:100BE0000895FC01809188039091890386179707E7
:100BF000A0F06115710529F49091E8009E7790931B
:100C0000E80090E06115710551F4911108C08091E0
:100C1000E80082FF34C080E00895BC01F2CF8091EB
:100C200080038823C1F18530C1F18091E80083FD04
:100C300030C08091E80082FDEACF8091E80080FF1B
:100C4000E1CF8091F3002091F200382F61157105FA
:100C500019F02830310558F091E02830310509F0BD
:100C600090E02091E8002E772093E800CBCF81918F
:100C70008093F100615071092F5F3F4FE7CF809162
:100C80008003882341F0853041F08091E80083FFA4
:100C9000BECF81E0089582E0089583E0089508952D
:100CA00080915D0308959C014FB7F89480915203A1
:100CB00090915303A0915403B09155034FBF821BF1
:100CC000930B08952FB7F89480915203909153039A
:100CD000A0915403B09155032FBF089520911F0197
:100CE0002223C9F02091560327FF15C0E62FE69571
:100CF000E695E695EE31D8F4E80FF92FF11D67700F
:100D000021E030E001C0220F6A95EAF72095828148
:100D1000282322830895FC013296089621916213BC
:100D200003C0DF0111971C92E817F907B9F708957E
:100D300020911F012223C1F02091560327FF14C0E8
:100D4000E62FE695E695E695EE31F8F4E80FF92FF3
:100D5000F11D677021E030E001C0220F6A95EAF7CB
:100D60008281822B82830895FC0132962FEF30E03E
:100D70004191641751F02F3F19F4411101C0232F05
:100D80003F5F3630A9F72F3F09F40895820F911D78
:100D900027FD9A95FC016283089520914F033091BD
:100DA00050032817390771F09093500380934F0335
:100DB000E0914D03F0914E03309721F00084F185CE
:100DC000E02D0994089520914B0330914C0328178E
:100DD000390771F090934C0380934B03E0914D03DE
:100DE000F0914E03309721F00680F781E02D0994B1
:100DF0000895E0914D03F0914E03309721F001905A
:100E0000F081E02D099480E008958F929F92AF9237
:100E1000BF92CF92DF92EF92FF920F931F93CF93E7
:100E2000DF938C0180918600909187006CE070E0E8
:100E30000E94692B6017710798F0C80169E070E0A3
:100E40000E94692BCB01DF91CF911F910F91FF90F1
:100E5000EF90DF90CF90BF90AF909F908F900895CC
:100E60008091860090918700E0908600F090870046
:100E7000C0908600D0908700C6E0D0E0BE010E94FE
:100E8000692B30E020E0060F171F211D311D48019E
:100E9000590185E0880C991CAA1CBB1C8A95D1F7C6
:100EA000C701BE010E94692BF12CE12CA70196011C
:100EB000260F371F411D511DC501B4010E94902C02
:100EC00069017A01E0918600F0918700CA01B901B9
:100ED0000E943F2B9B01AC01DF010E947D2C9B01F6
:100EE000AC01C701B6010E943F2B2FE09695879574
:100EF000779567952A95D1F7009186001091870024
:100F000030E020E0061717072807390708F09ACFC6
:100F1000609186007091870095CF8430F0F4811144
:100F20001DC0909180009F7D909380002E98A0918D
:100F30008600B0918700282F30E00E94B22C23E079
:100F400030E040E050E00E94902CC9010E9405076B
:100F500090938B0080938A00089583E090918000A5
:100F6000906290938000E3CF282F220F220F220F50
:100F7000909147039770922B90934703987F21E0BD
:100F800009F420E09091470320FB90F990934703E8
:100F90000C948D07FA01811101C0FB010994089599
:100FA00080914203982F9E7F29F481708260809304
:100FB000420308958635E8F381708465F8CFAF92D7
:100FC000BF92DF92EF92FF920F931F93CF93DF9325
:100FD000082F162FE901E42FF0E0E757FD4F6111CC
:100FE00010C0E4915E2F4E2F4983E8835A83DF912E
:100FF000CF911F910F91FF90EF90DF90BF90AF9036
:101000000895E62EF12C4491D42EE42FF0E026E052
:10101000829FC00111242FEF30E0B9010E94692B9B
:10102000802F90E0880F991F55E5569FD001579F5C
:10103000B00D11248A1B9B0B982F990F890F590112
:10104000AE18BF08AE9ED001AF9EB00DBE9EB00DD3
:1010500011245B2F189F80011124012F11275901A2
:10106000A01AB10AAE9E8001AF9E100DBE9E100D5B
:1010700011245901A81AB108AE9CC001AF9C900D73
:10108000BE9C900D1124892F9927281B390B2E9F68
:10109000C0012F9F900D3E9F900D1124E92F6230CB
:1010A0007105A1F050F46115710509F49DCF61300F
:1010B000710581F0EB2F512F97CF6430710569F0E6
:1010C00080F06630710509F48FCFF4CFE42F4B2FF9
:1010D000592F8ACFE42F412F87CFEB2F542F492F41
:1010E00083CF4B2F5D2DE12F7FCF0E9462069C01A5
:1010F0009091730280917402982B21F030937002CA
:1011000020936F029091750280917602982B21F0C6
:1011100030936E0220936D02E0914D03F0914E03E7
:10112000309749F082E0809371020480F581E02DD0
:1011300081E792E00994089540917302803F59F449
:101140008091740287FF0DC01092740241110BC090
:1011500010926B0208C0813F81F4809174021816CE
:101160009CF3442381F08091750290917602892B43
:1011700009F05AC010926A020895823F49F447FF6D
:10118000F0CF10927302809174028111ECCFE0CF06
:10119000833F19F41416ACF3E4CF90917502893FA4
:1011A00029F41916F4F610927502DBCF8A3F19F470
:1011B00097FFD7CFF8CF909176028B3F29F497FF16
:1011C000D0CF10927602CDCF8C3F19F41916CCF304
:1011D000C8CF9CE0980F953090F4845F990B21E084
:1011E00030E0B90102C0660F771F8A95E2F7CB01A4
:1011F000809590917202892380937202B2CF8D3FC5
:1012000031F480916C028E7F80936C02AACF8E3F66
:1012100021F480916C028D7FF7CF8F3F09F0A1CF31
:1012200080916C028B7FF0CF089580916C0280FDDD
:1012300016C081FD16C082FD16C080916A02882307
:10124000A1F0883280F428E0829FC001112468E276
:1012500070E00E947D2B862F672B39F0089582E085
:10126000089584E0089588E0089581E008958091CC
:101270006C0280FD14C081FD14C082FD16C08091F7
:101280006B02882381F0843180F422E3829FC001C5
:10129000112464E170E00E947D2B862F08958CE07C
:1012A000089589E1089585E0089582E30895803FD7
:1012B00031F40E9437098195809374020895813F2B
:1012C00019F40E943709F8CF823F31F40E943709A0
:1012D0008195809373020895833F19F40E94370922
:1012E000F8CF893F29F40E9415098093750208956B
:1012F0008A3F21F40E9415098195F7CF8B3F31F485
:101300000E94150981958093760208958C3F19F407
:101310000E941509F8CF9CE0980F953070F4845F17
:10132000990B21E030E001C0220F8A95EAF7809105
:101330007202822B8093720208958D3F31F4809166
:101340006C02816080936C0208958E3F21F480913D
:101350006C028260F7CF8F3FB9F780916C02846096
:10136000F1CF80E008959091560392FF06C0282F98
:1013700028712830F9F4877F846093FF06C0282FF6
:1013800028712831F1F4877E84612091570320FF72
:1013900006C0382F38713830D9F4877F816021FF3B
:1013A00006C0282F28712831D1F4877E816194FDF1
:1013B000877E0895282F24712430F9F68B7F88606A
:1013C000DCCF282F2471243101F78B7E8861DDCF9B
:1013D000382F3171313019F78E7F8860E0CF282F98
:1013E0002171213121F78E7E8861E1CFCF93DF9388
:1013F000EC0182389105A9F1D8F58133910509F402
:1014000096C048F58932910509F48AC08A9709F493
:1014100095C0C11521E5D20708F0BCC0C11530E563
:10142000D30708F014C1C83ED10508F09CC0C03EE7
:10143000D10560F5C83AD10508F087C0C53AD10595
:1014400008F0FDC0C130D10509F12097F9F0C43092
:10145000D105E0F440C08533910509F45AC0C9971D
:10146000C1F680915603837089F0C0EED0E00EC0C3
:10147000833E910599F170F4803E910501F1823E21
:10148000910539F68091560382FD21C0CE01DF918E
:10149000CF910895863E910561F1873E910571F1E6
:1014A000843E910509F0B5CF8091570381FFEECFBF
:1014B00080915603C7EED0E084FD0DC0E7CF809148
:1014C000560380FD12C19091570390FFDFCFC3EE0A
:1014D000D0E084FFDBCFD0E0C0E0D8CF80915603CE
:1014E00082FD06C19091570390FDBFCF84FFCECF00
:1014F000F2CF8091560383FDDDCFC8CF8091560394
:1015000083FDF9C09091570391FFF0CFC4EED0E076
:10151000BDCF8091560385FFB9CFC9E2D0E0B6CFE9
:101520008091560385FFB2CFC5E3D0E0AFCF809165
:10153000560386FFABCFCAE2D0E0A8CF8091560316
:1015400086FFA4CFC1E3D0E0A1CFCF3BD10518F6F1
:10155000C85AD0E0CC0FDD1FCD5DDE4F0990D88199
:10156000C02DD46493CFC11540E2D40758F4C115FF
:1015700081E0D80708F08ACFC03FD10508F4ABCF8F
:10158000D06584CFC11590E4D90708F4A4CFDF70EB
:10159000D06A7CCFC11525E5D20700F5C11534E529
:1015A000D30708F08AC0C11543E5D40708F071C01D
:1015B000C11582E5D80708F467C0CE01837099276A
:1015C00021E030E002C0220F331F8A95E2F7C69572
:1015D000C69580E2C89FE001112452C0C11599E56B
:1015E000D907A8F4C11528E5D20708F06BC0C115CA
:1015F00036E5D30708F06FCF8C2F0E94B309C82FB0
:10160000D0E0DC2FCC27CC27DF71D0623FCFC115D3
:101610004AE5D40708F45BC0CE019056811590428C
:1016200008F059CF8D2F8F710E94B30990E0982F49
:10163000882788279F719C012C2BE901E6CFC55A8A
:10164000D0E0C05EDE4FC881D0E0D0641FCFCE01B5
:10165000E4E096958795EA95E1F783702C2F26951F
:101660002695237040E2249F90011124382B8C2F63
:101670008370C1E0D0E002C0CC0FDD1F8A95E2F795
:10168000C22BD32BDC6802CFDC2FCC27C16FD06AF2
:10169000FDCECE018370992721E030E002C0220FF9
:1016A000331F8A95E2F7C695C69590E2C99FE0017F
:1016B0001124C22BD32BDA68E9CEDC2FCC27C46FE0
:1016C000D06AE4CEDC2FCC27C06FD06ADFCE8C2F5F
:1016D0008F700E94B30934E0D695C7953A95E1F72B
:1016E000CF709C2FEC01D069D1CEC9E3D0E0CECE33
:1016F000C2EED0E0CBCEC6EED0E0C8CE80911802CC
:1017000081111092180208958095909117029823E4
:101710009093170208958091170290911602892BD9
:1017200090911502892B809394019091180299232E
:10173000A1F0892B8093940180911F01882341F1AE
:101740008091560387FF24C08EE1E6E9F1E090E046
:10175000815000F591110E947E0BE0914D03F091B4
:101760004E033097E1F080911F01882359F080915A
:10177000560387FF07C0809194018093950186E00E
:10178000809394010280F381E02D84E991E0099433
:1017900086E0DBCF21912223D9F29F5FD9CF089534
:1017A000809113029091E201981301C008958F5F18
:1017B0008770FACF21E1929F800D1124982F9770A6
:1017C00086958695869523E0829FF0011124EB543F
:1017D000FE4F50E040E080E0219130E0092E02C051
:1017E000369527950A94E2F721703327042E01C01D
:1017F000220F0A94EAF7822B4F5F5F4F4330510567
:1018000059F7089521E1929F800D1124982F977028
:1018100041E001C0440F9A95EAF786958695869532
:1018200093E0899FF0011124EB54FE4F90E080E09B
:1018300070E05191DF0111979B01082E02C036958F
:1018400027950A94E2F7217021952527242325273F
:101850002C9301968330910561F7089590E080E024
:101860000E94E30690E080E00E94CD0610921602EE
:10187000109215020E948B0B86E0E1E7F2E0DF0197
:101880001D928A95E9F710926B0210926A021092EB
:101890006C020C94750880938D030C942E0C80912F
:1018A0008D03982F9670963019F488600C944B0C29
:1018B000877FFCCF21E030E001C0220F8A95EAF754
:1018C000209580918D0382230C944B0C90911402EF
:1018D0008095892380931402282F277091F4282F54
:1018E000082E000C330B9217130659F090915703F2
:1018F00092FD07C08595859585950E945A0C10929A
:101900001402089521E030E001C0220F8A95EAF721
:1019100080918D03822B0C944B0C809319020C94B4
:101920002E0C882321F00E94840B0C948B0B0895BD
:10193000882339F090911702982B909317020C94FA
:101940008B0B0895882379F19CEF980F913A38F426
:10195000682F84E991E00E946E060C948B0B90E254
:10196000980F983050F4877091E001C0990F8A95D4
:10197000EAF7892F0E94840BF0CF9BE5980F9330F4
:1019800020F490E080E00C94E30698E5980F9731FE
:1019900020F490E080E00C94CD06803F20F00E947F
:1019A0009C080C9475080895CF93C82F882309F4D8
:1019B0006FC08CEF8C0F813AC0F580911F01882396
:1019C00011F18091560387FF1EC0EC2FE695E69536
:1019D000E695F0E0EC56FE4F828190E04C2F477088
:1019E00021E030E002C0220F331F4A95E2F7822344
:1019F0009323892B91F06C2F84E991E00E946E066D
:101A00000E948B0B0AC0E6E9F1E08CE991E021919C
:101A1000C21789F38E179F07D1F76C2F84E991E0E5
:101A20000E949806CF910C948B0B80E28C0F88302B
:101A300068F4C77021E030E001C0220FCA95EAF7D0
:101A400080911702822B80931702ECCFEBE5EC0F0D
:101A5000E33040F4F0E0E05EFE4F808190E0CF9113
:101A60000C94E306E8E5EC0FE73150F4F0E0EE0FFC
:101A7000FF1FED5DFE4F80819181CF910C94CD06CB
:101A8000C03F30F08C2F0E945709CF910C947508FD
:101A9000CF91089580FF08C05F9A81FF07C05E9ACA
:101AA00082FF06C02C9A08955F98F7CF5E98F8CF12
:101AB0002C9808958093580370935A0360935903A8
:101AC000809180038430F9F48093E9008FEF909146
:101AD000E800815095FD06C095ED9A95F1F700005C
:101AE0008111F5CF8091E80085FF0DC050E040E006
:101AF00063E070E088E593E00E9415058091E800BE
:101B00008E778093E8000895BC0184E00C945A0D10
:101B1000BC0183E00C945A0D9C0184E08093E900A1
:101B20009FEF8091E800915085FD06C085ED8A9574
:101B3000F1F700009111F5CF8091E80085FF0CC00E
:101B400050E040E066E070E0C9010E941505809118
:101B5000E8008E778093E8000895CF93DF93EC013F
:101B600080911F018823B1F18091560387FF32C015
:101B700060E284E08093E9008FEF9091E80081506B
:101B800095FD06C095ED9A95F1F700008111F5CF0E
:101B90008091E80085FF1BC080911F0170E050E03C
:101BA00040E0811104C050E040E068E070E0CE0108
:101BB0000E9415058091E8008E778093E80080E20E
:101BC000FE01AEE5B3E001900D928A95E1F7DF9159
:101BD000CF91089568E081E0CDCF81E08093E0006F
:101BE00080E28093D8001092C9008FE19EE40197B3
:101BF000F1F700C0000087E090EBDC0180938E03DA
:101C000090938F03A0939003B093910388E19CE09D
:101C10000FB6F894A895809360000FBE9093600073
:101C2000FFCF8091420380FD0AC0E2E8F2E011821A
:101C300010821282339652E0EA3CF507C1F76A9AA5
:101C40003EB13B7F2EB124604FB7F89482E892E01A
:101C5000FC015191CF0168E02EB9000000C057FF90
:101C60003EB9550F000000C000C000C03EB900C022
:101C70006A9591F7F2E08A3C9F0751F74FBF8FE5D5
:101C800094E00197F1F700C000000895EF92FF92F1
:101C90000F931F93CF93DF938C01C2E8D2E0F12C16
:101CA000E12CF80194816091440380914303FCE0AE
:101CB000EF16F104FCF49923F9F09E0140914503DD
:101CC0000E94DF072FEFE21AF20A239688E1E81656
:101CD000F10439F70E94110EF801848190E0019619
:101CE000817099278483DF91CF911F910F91FF908D
:101CF000EF900895992309F39E0140E0E1CF8F9280
:101D00009F92AF92BF92CF92DF92EF92FF920F938A
:101D10001F93CF93DF93EC014C81042F10E09801C7
:101D2000D8010E94B22C9B01AC010E947D2C4B017A
:101D30005C01E0E2F0E0E01BF10BA5E5B0E0AC01F6
:101D40009B010E947D2C6B017C019F01DF010E94A1
:101D50009E2B9B01AC010E94882C9B01AC01280D9D
:101D6000391D4A1D5B1DC701B6010E94902CF22E41
:101D7000822F90E039E23F15D8F143E0249F900193
:101D8000112435952795122F109592E8C92E92E0CF
:101D9000D92E00E085E5E82EEF188E2D01FD8F2D60
:101DA0009601412F609144030E94DF070F5F53E0CB
:101DB000C50ED11C083189F70E94110E9C8181E06B
:101DC000992319F0903219F48FEF80931D018091BF
:101DD0001D01890F8C83DF91CF911F910F91FF908F
:101DE000EF90DF90CF90BF90AF909F908F9008952D
:101DF00025E530E0A901481B590BCA019A01220FC1
:101E0000331F280F391F37FFBCCF2F5F3F4FB9CF8C
:101E10000F931F93CF93DF93C2E8D2E0FE011182AC
:101E200010821282339682E0EA3CF807C1F710E094
:101E300000E080918002082E000C990B081719070A
:101E40008CF180911C01082E000C990B80179107D2
:101E50004CF19E01409145036091440380914303FE
:101E60000E94DF070F5F1F4F23960831110509F706
:101E70000E94110E80911B0190918002980F909307
:101E8000800220911C01280F20931C01121614F4CB
:101E900097311CF0819580931B01DF91CF911F91A9
:101EA0000F910895198218821A82DCCFBF92CF92C7
:101EB000DF92EF92FF920F931F93CF93DF93FC017A
:101EC0008281DD24DA9480FD02C0DD24D39402E80F
:101ED00012E0D0E0C0E028E1B22EF80111821082B9
:101EE000128294E0E92EF12CC12C80917F028C0D9E
:101EF00089310CF43DC06B2D0E945B2B892F082E7D
:101F0000000C990B8C179D0791F4809145038E9DD1
:101F1000A0018F9D500D11245595479555954795D6
:101F2000980160914403809143030E94DF07CD0C28
:101F3000F1E0EF1AF108C9F621960D5F1F4FC83185
:101F4000D10559F60E94110E80917F0291E0D912BD
:101F500015C0811111C087E180937F02DF91CF917D
:101F60001F910F91FF90EF90DF90CF90BF90089559
:101F700087FFC5CF885EC3CF8150EECF90E001963A
:101F8000BE010E947D2BE8CFEF92FF921F93CF936B
:101F9000DF93EC0182E8E82E82E0F82E10E08C81DD
:101FA00097014091450360914403810F0E94DF0730
:101FB000165F83E0E80EF11C103F89F70E94110EB6
:101FC0009A818C8190FF08C08F5F8C83DF91CF91C5
:101FD0001F91FF90EF9008958150F7CF90914203A9
:101FE00090FF0CC0E2E8F2E0818360834283339685
:101FF00092E0EA3CF907C1F70C94110E08950F9393
:102000001F93CF93DF9300D00F92CDB7DEB78C0133
:102010008091810281110AC09E012F5F3F4F4FEFD7
:102020006FEF0E94DF078A8180938102F80164814B
:10203000613069F08091810240E0662361F040E008
:10204000623011F44091810280E060E004C0609150
:10205000810240E080E00E94EE0FF801848190E070
:10206000019663E070E00E947D2B84830F900F90B7
:102070000F90DF91CF911F910F910895CF93DF9330
:1020800000D00F92CDB7DEB79091420390FF0AC007
:102090009E012F5F3F4F0E94DF074B8169818A813C
:1020A0000E94EE0F0F900F900F90DF91CF91089547
:1020B000CF93DF93EC01E2E4F3E0438162818C8112
:1020C0000E943E108C818F5F8C83DF91CF910895A9
:1020D000CF93DF93EC01EC81F0E0E257FC4F4491A9
:1020E000E2E4F3E0628181810E943E108C818F5F87
:1020F0008C83DF91CF9108952F923F924F925F9200
:102100006F927F928F929F92AF92BF92CF92DF9207
:10211000EF92FF920F931F93CF93DF9300D000D0E5
:1021200000D00F92CDB7DEB790E080E01E82812C08
:10213000912C540183948D83EFEFE80FE03128F464
:10214000F0E0ED53F34D0C94912B2D982F98889837
:1021500003C02D982F98889A289A20EA2A95F1F79B
:1021600095018401082E04C0000F111F221F331F88
:102170000A94D2F768017901C094D094E094F09465
:102180004DE1242E42E0342E41E551E05A8349834B
:10219000F1011F82FC83EB83408151816281738155
:1021A000A981BA817D90BA83A983A72DA295AF702A
:1021B000B0E09096AC914A2E512CB72DBF707B2E7B
:1021C000D20102C0B595A7957A94E2F72A013B01A6
:1021D000A0FD4AC0402A512A622A732A40825182B5
:1021E000628273823496AB81BC814D905D906D901C
:1021F0007C90441555056605770511F0B1E0BF8365
:1022000042E0E533F40731F6ED81E150E03188F545
:10221000F0E0ED52F34D0C94912B2D982F9A97CF1F
:102220002D982F9A98CF2D9A91CF2D9A93CF2D9AA2
:10223000F5CF2D9AF6CF2D982F98889803C02D981A
:102240002F98889A899A89CF2D982F9AF6CF2D9812
:102250002F9AF7CF2D9AF0CF2D9AF2CF2D9AF8CF53
:102260002D9AF3CF769879CF4C205D206E207F2079
:10227000B5CF2D9A2F9A889A03C02D9A2F9A8898B5
:1022800028985E81AF815A2B5E830196813191053A
:1022900009F051CF552309F44FC081E080931C020F
:1022A0000E94620690931B0280931A0280911A0288
:1022B00090911B020E945306059708F441C022E545
:1022C00032E0F10181919191A191B1911F01F90148
:1022D00081939193A193B1939F01F5E32F16F2E0BF
:1022E0003F0679F710921C022BC02D9A2F98C3CF6E
:1022F0002D9A2F98C4CF2D98BDCF2D98BFCF2D9854
:10230000F5CF2D98F6CF2D9A2F9A889A03C02D9A43
:102310002F9A88988998B5CF2D9A2F98F6CF2D9A15
:102320002F98F7CF2D98F0CF2D98F2CF2D98F8CF8A
:102330002D98F3CF769AA5CF80911C028111B6CF4C
:102340008E8127960FB6F894DEBF0FBECDBFDF910A
:10235000CF911F910F91FF90EF90DF90CF90BF90A2
:10236000AF909F908F907F906F905F904F903F9035
:102370002F9008951F93CF93DF93182FD0E0C0E0E4
:10238000893311F4C0E5D0E0812F0E94D40C20974E
:1023900031F4812FDF91CF911F910C94A20C8FE922
:1023A0009FE00197F1F700C000002197F0CF0F9355
:1023B0001F93CF93DF93C62FD42F022FFC0182816E
:1023C0008823A1F060938C030E94620690938B0394
:1023D00080938A03C77081E001C0880FCA95EAF72D
:1023E000DF91CF911F910F910C94980C80918C03E9
:1023F000681335C080918A0390918B030E94530625
:10240000883C910560F510E21D0FCD17B9F080E210
:102410008C0F883040F4C77081E001C0880FCA95E6
:10242000EAF70E94910C183048F481E09D2F9770D4
:1024300001C0880F9A95EAF70E94980C802F0E949D
:10244000BA11183098F4D77081E001C0880FDA957E
:10245000EAF7DF91CF911F910F910C94910CC77007
:1024600081E001C0880FCA95EAF7F3CFDF91CF91E1
:102470001F910F910895CF93DF93C7E5D3E060E0FC
:10248000CE010E942A2C2196C11584E0D807B9F705
:10249000DF91CF9108956F927F928F929F92AF922A
:1024A000BF92CF92DF92EF92FF920F931F93CF9341
:1024B000DF938EE0C82E85E0D82E95E1E92EFF242B
:1024C000F394E701CC5CD10936011BC0F50185907E
:1024D0009490692DC8010E942A2C682DC80101968C
:1024E0000E942A2C82E0A80EB11C0E5F1F4FC0175D
:1024F000D10761F782E2680E711CA296CE15DF0546
:1025000029F08E01025211095301E0CF7E018CECBB
:10251000E80EF11C8CECC80ED11C85E4E81684E0B2
:10252000F80679F6DF91CF911F910F91FF90EF9010
:10253000DF90CF90BF90AF909F908F907F906F90E3
:102540000895CF93C82F6FEF811162E283E290E08C
:102550000E942A2C6FEFC11161E084E290E00E949A
:102560002A2C6FEFC11164E285E290E0CF910C94C8
:102570002A2C80E00E94A11260E086E290E00E9496
:102580002A2C0E944B120E943B1281E00C94A11253
:10259000682F86E090E00C942A2C8091470381FFFD
:1025A00011C08D7F809347030E94C81280916F00F5
:1025B0008E7F80936F0080914703869586958695E0
:1025C0000C948D0708958091470381FD10C08260AF
:1025D000809347030E94C81210924A031092490345
:1025E0001092480380916F00816080936F0008957E
:1025F000CF93C0915703C2FB992790F9981799F090
:1026000080FBC2F9C09357036091560384E090E0C9
:102610000E942A2C6C2F82E290E00E942A2C82E0F9
:10262000CF910C94660CCF9108950F931F93CF9385
:10263000DF93C42FD0E0CC0FDD1F22E2629FC00DDC
:10264000D11D11243CEC839FC00DD11D1124CE015E
:1026500087960E94162C082F10E0102F0027CE011D
:1026600088960E94162C9801282BC901DF91CF91E2
:102670001F910F910895462F843038F4763028F456
:10268000613118F4672F0C94151390E080E00895E1
:10269000CF92DF92FF920F931F93CF93DF936C0142
:1026A00000918D0380911902082BC7E0D0E010E063
:1026B000FC2EC8010C2E02C0959587950A94E2F76E
:1026C00080FD0CC02197A0F7F12C8F2DDF91CF91C9
:1026D0001F910F91FF90DF90CF900895B6018C2F3E
:1026E0000E943B130E94F609019761F3EECFCF934E
:1026F000DF93EC010E944813BE010E943B13DF915F
:10270000CF910C94F609FC01808191810E9477138E
:10271000292F2F7092959F7092509E3078F4E92F58
:10272000F0E0ED51F34D0C94912B803F19F020F423
:10273000883E20F481E00895843FE1F380E008952D
:10274000883EC0F3813FD1F7F5CF822F86958695DD
:102750008695089583E290E00E94162C823289F4D7
:1027600084E290E00E94162C813059F485E290E0DA
:102770000E94162C91E0843209F090E0892F81703C
:10278000089580E0FCCFCF9384E090E00E94162C67
:10279000C82F82E290E00E94162C982F8C2FCF91A8
:1027A00008954F925F926F927F928F929F92AF9215
:1027B000BF92CF92DF92EF92FF920F931F93CF932E
:1027C000DF93FC016280448081E08483EEE8F3E0E3
:1027D0007490EDE0F4E0E491CAECD2E032E8E32E4C
:1027E00032E0F32E42E4C42E43E0D42E52E0A52E74
:1027F000BB24B39488248A94912C55245A94E719C5
:102800000E2F10E082E0861530F08091430388831C
:10281000809144038983411021C01B821A82970151
:102820004A81698188810E94DF07259683E0E80E4E
:10283000F11CCC16DD0631F7DF91CF911F910F917E
:10284000FF90EF90DF90CF90BF90AF909F908F90D0
:102850007F906F905F904F900C94110E8B81882326
:10286000E9F081508B83859DC00111246C8170E05B
:102870000E94692BFB01FF27E257FC4F8491E82F50
:10288000E719E59DC0011124B8010E94692B8091D0
:102890004503689FB00111247A83C1CF0E94F92BB0
:1028A00020914503269521582A9DA0012B9D500D6E
:1028B0001124452F5527841795070CF0B0CF82E0DF
:1028C000861588F40E94F92BB4010E947D2B888321
:1028D0000E94F92B209144032695622F70E00E94FC
:1028E0007D2B280F29831A8280914503893C20F093
:1028F00088EC8C838B8393CF8431D8F784E1F9CF34
:1029000060914203669570E04BE050E080E191E019
:102910000E94092C892B19F481E080937E020E9489
:10292000620690937802809377020895CF92DF92A7
:10293000EF92FF926B017C010E94D007B701A601C4
:1029400088E090E0FF90EF90DF90CF900C943C2CCB
:102950005F926F927F928F929F92AF92BF92CF922F
:10296000DF92EF92FF920F931F93CF93DF9300D0EC
:102970000F92CDB7DEB7182F762E042F622E9091CE
:10298000420390FF29C0E92FE695AE2FB0E0A95A87
:10299000BE4F8C9180937D029E7F923081F59E0187
:1029A0002F5F3F4F812F0E94DF074B8169818A8112
:1029B0000E94EE0F1093430370924403009345036B
:1029C000662051F06091420370914303809144036B
:1029D000909145030E9496140F900F900F90DF91F5
:1029E000CF911F910F91FF90EF90DF90CF90BF900C
:1029F000AF909F908F907F906F905F9008958230FE
:102A000019F400914503D6CF863019F41091430391
:102A1000D1CF8930D9F3893169F6E9518E2F817090
:102A2000582EE695F0E0E757FC4FA590B490BB24F4
:102A300082E8E82E82E0F82ED12CC12C98E1892E74
:102A4000912CC601B4010E94692B812F511013C033
:102A5000860F9701402F672D0E94DF07CA0CDB1CF1
:102A600083E0E80EF11C8AECE81682E0F80649F7EC
:102A70000E94110E9FCF861BECCFE2E4F3E043816E
:102A800028E0421B08F440E021E0628181810C943F
:102A9000A814E2E4F3E0438128E0420F08F44FEF8A
:102AA00021E0628181810C94A814E2E4F3E0628168
:102AB00028E0621B08F460E021E0438181810C94EE
:102AC000A814E2E4F3E0628128E0620F08F46FEFFB
:102AD00021E0438181810C94A814E2E4F3E0818138
:102AE00021E04381628188500C94A814E2E4F3E071
:102AF000818121E043816281885F0C94A8148091D8
:102B00004603882319F08150809346036091420365
:102B10007091430380914403909145030C94961463
:102B200080914603833018F48F5F80934603609151
:102B300042037091430380914403909145030C94A8
:102B400096149091420390FF36C09170811129C074
:102B5000926090934203662351F06091420370911A
:102B6000430380914403909145030E949614609121
:102B70004203669570E04BE050E080E191E00E94F6
:102B8000092C892BA9F010927E0281E080937A02B1
:102B900020E04091450360914403809143030C94ED
:102BA000A8148B3210F09465D4CF880F982BD1CF16
:102BB0000E948014EACF0895809142038695815047
:102BC00009F48AE261E00C94A11580914203869594
:102BD0008F5F8B3208F081E061E00C94A115909139
:102BE000420390FF07C09695981720F0961710F4AF
:102BF0000C94E51561E00C94A115E2E4F3E083E0A8
:102C0000808311828FEF828383831482608171813C
:102C1000828193810C94961469EE7EEF90E080E0BF
:102C20000E94482C60E082E090E00E942A2C60E044
:102C300083E090E00E942A2C1092190260E084E068
:102C400090E00E942A2C60E082E290E00E942A2C10
:102C500060E085E090E00E942A2C60E086E090E051
:102C60000E942A2C6FEF87E090E00E942A2C40E01F
:102C700050E0BA0188E090E00E943C2C60E08DE0DA
:102C800090E00E942A2C40E050E0BA0188E190E0F8
:102C90000E943C2C60E087E190E00E942A2C40E0FA
:102CA00050E0BA018CE190E00E943C2C70E060E0C2
:102CB00080E290E00E94482C40E050E0BA0188E1B8
:102CC00090E00E943C2C80E00E94A1120E94B91268
:102CD00040E050E0BA018FE090E00E943C2C40E0E0
:102CE00050E0BA0183E190E00C943C2C90E080E04D
:102CF0000E94242C893E9E4F11F40C94AA1380E06C
:102D000008950E94761681110AC00E940C168091C7
:102D1000470384708961809347030E94C81286E04C
:102D200090E00E94162C80934703803220F0877039
:102D300088618093470390914703892F817090FFAA
:102D400004C0892F8695869586950C948D071092E0
:102D5000170280911F01E6E9F1E0882359F0809184
:102D6000560387FF07C08EE1DF011D928A95E9F7C0
:102D70000C942E0C86E0F8CF1F93CF93DF93CDB742
:102D8000DEB7AA970FB6F894DEBF0FBECDBF82E8BC
:102D900093E02091F100DC012D93CD01B3E08A385E
:102DA0009B07B9F780918303833009F472C0B8F4AC
:102DB000813009F449C0823009F4B3C08091E80041
:102DC00083FF8BC280918203909183039A3008F035
:102DD00084C2E92FF0E0EF50F34D0C94912B8A3030
:102DE00009F48EC08B3009F471C0893039F78091B5
:102DF0008203813219F780918603909187030097AF
:102E000011F00297D9F68091E800877F8093E8005F
:102E10008091E80082FF38C09091F3008091F20029
:102E2000029731F48091F100813011F0863021F465
:102E30008091F10080935D038091E8008B7780930F
:102E4000E8000E943F05BACF80918203813A09F0E1
:102E5000B5CF8091E800877F8093E800809186035A
:102E600090918703892B61F460E28EE593E070E036
:102E70000E94F1058091E8008B778093E8009ECF57
:102E800060E090E080E0F3CF809180038111C0CFBB
:102E900095CF80918203813A09F090CF809186038B
:102EA00090918703892B09F089CF8091E800877F73
:102EB0008093E8008091E80080FFFCCF80911F01A3
:102EC0008093F1008091E8008E77B9CF80918203E2
:102ED000813209F073CF8091860390918703892B0B
:102EE00009F06CCF8091E800877F8093E8000E9412
:102EF0003F058091840380931F010E94A7165ECF37
:102F000080918203813209F059CF8091E800877F58
:102F10008093E8000E943F058091850380935C03C5
:102F20004DCF80918203813A09F048CF8091E8002B
:102F3000877F8093E8008091E80080FFFCCF80913C
:102F40005C03BECF803899F0823809F0C6C1809109
:102F500086038F70873008F0C0C18093E9008091AC
:102F6000EB0085FB882780F91092E90006C080916C
:102F70007E0390917F03911182609091E800977F8A
:102F80009093E8008093F1001092F1008091E800A6
:102F90008E779FC1882309F48DC1823009F09DC1CD
:102FA00080918403811190C1809186038F702FEFEF
:102FB000280F263008F091C18093E9002091EB00A2
:102FC00020FF82C1933031F48091EB0080628093C6
:102FD000EB007AC19091EB0090619093EB0021E0BF
:102FE00030E001C0220F8A95EAF72093EA001092A0
:102FF000EA008091EB008860EACF81116EC11091E8
:1030000084031F778091E3008078812B8093E30015
:103010008091E800877F8093E8000E943F058091BF
:10302000E80080FFFCCF8091E30080688093E3009C
:1030300082E0111183E0809380034FC18058823079
:1030400008F04BC120918403309185032C3DE3E0CF
:103050003E07A1F583E08A838AE289834FB7F8941B
:10306000DE01139620E03EE051E2E32FF0E05093C2
:103070005700E49120FF03C0E295EF703F5FEF70CF
:103080008E2F90E0EA30C0F0C7968D939D932F5F0E
:10309000243159F74FBF8091E800877F8093E80083
:1030A0006AE270E0CE0101960E94F1058091E8008D
:1030B0008B778093E80011C1C096E7CF809186039B
:1030C00090918703432F55274330510509F44AC097
:1030D00078F54130510509F47AC08BE590E0EEE3D4
:1030E000F8E04230510509F0F8C02091E800277F50
:1030F0002093E80020918803309189038217930779
:1031000008F49C0140E02115310509F065C041112A
:1031100063C08091E80082FDC9CF8091800388233D
:1031200029F2853019F28091E80083FFF2CFBECFFB
:103130004132510509F43CC04232510509F0CDC07D
:103140008330910508F0C9C0FC01EE0FFF1FEB575B
:10315000FE4F0190F081E02D8E579E4FDC018C9147
:1031600090E01AC0332721303105D1F02115310507
:1031700061F02230310509F0B0C0EBEAF8E0E491EB
:103180008E2F90E0EBEAF8E007C0E3EFF8E0E4917F
:103190008E2F90E0E3EFF8E0009709F49EC0A5CFF2
:1031A000EFECF8E0E4918E2F90E0EFECF8E0F4CF54
:1031B0008330910508F091C0880F991FFC01E557F5
:1031C000FE4F0190F081E02D89E090E08ECF82E10A
:1031D00090E0E9E9F8E089CF80918003882309F441
:1031E00065CF853009F462CF8091E80083FD5ECF22
:1031F0008091E80082FD8DCF8091E80080FF83CF31
:103200009091F3008091F2002115310519F088307A
:10321000910550F041E0089709F040E08091E80006
:103220008E778093E8006FCF44914093F100319600
:10323000215031090196E8CF803809F04EC08091C5
:10324000E800877F8093E800809181038093F100FC
:103250009DCE811142C0109184031230F0F580910F
:10326000E800877F8093E800109381030E943F0568
:10327000112311F084E005C08091E30087FDFACFAF
:1032800081E08093800342E061EC81E00E945E0572
:1032900042E261EC84E00E945E0542E261EC82E081
:1032A0000E945E0542E260EC83E00E945E05809130
:1032B000800313C080918403813079F481E09330DE
:1032C00009F080E080937F031092E9008091E8008C
:1032D000877F8093E8000E943F058091E80083FF8C
:1032E0000AC08091E800877F8093E8008091EB001E
:1032F00080628093EB00AA960FB6F894DEBF0FBEF3
:10330000CDBFDF91CF911F9108953F924F925F9271
:103310006F927F928F929F92AF92BF92CF92DF92E5
:10332000EF92FF920F931F93CF93DF9300D000D0C3
:103330000F92CDB7DEB78C01FC0183819481892B7C
:1033400031F08081918189238F3F09F0BAC50F90B8
:103350000F900F900F900F90DF91CF911F910F91D1
:10336000FF90EF90DF90CF90BF90AF909F908F90A5
:103370007F906F905F904F903F9008950E94481308
:10338000F82E682F89819A810E94020C69817A81C6
:103390008F2D0E943B137C01F8018281882309F460
:1033A00063C5C70182519F45409708F046C58FEF1E
:1033B00093E00E94162CFEEEEF0E57E5852E53E0AB
:1033C000952E8823A1F180911402877009F4BFCF54
:1033D000F8018281882309F4BACF8091570382FDD6
:1033E000B6CF82E00F900F900F900F900F90DF916B
:1033F000CF911F910F91FF90EF90DF90CF90BF90F2
:10340000AF909F908F907F906F905F904F903F9084
:103410000C94660C811424E09206A9F2C4010E9467
:10342000162C811101C0EA943FEF831A930AE11030
:10343000F1CF1C821B82442443944AE0342E740151
:103440008FEFE81AF80AC4010E94162C89831A82A9
:10345000882309F4B8CF9FEF980F933000F58A8343
:10346000498292E0890E911CC7010E94162C8B8321
:10347000882309F4A8CFFE0131967F01F70120814E
:103480002223E9F2213009F049C0918182819130F3
:1034900041F4F2E0EF0EF11C0E94BA1109C047019D
:1034A000EACF923049F422E0E20EF11C0E94D40CE3
:1034B0003FEFE31AF30AE2CF933031F432E0E30E48
:1034C000F11C0E94A20CF4CF943021F08FEFE81A87
:1034D000F80AEECF92E0E90EF11C30E020E0B701EF
:1034E0006F5F7F4FF70141818053990B8A309105BF
:1034F00050F021503109E0F28FE99FE00197F1F798
:1035000000C00000F6CF329EF001339EF00D112472
:103510009C012E0F3F1F842F7B01E1CFE22FF0E0B3
:10352000EC50FE4F5490822F86958695869590E0BC
:10353000FC01EC51FE4F64902770712C022E02C0EA
:10354000759467940A94E2F7E1E06E227724FC0117
:10355000EC52FE4FA490B12C022E02C0B594A79459
:103560000A94E2F7F1E0AF22BB24FC01EC53FE4FDA
:10357000C490D12C02C0D594C7942A95E2F721E0DB
:10358000C222DD246114710419F081EE0E94D40C72
:10359000A114B10419F086EE0E94D40C852D0E946E
:1035A000BA11AB2819F086EE0E94A20C672819F018
:1035B00081EE0E94A20CCD2809F47ACF8CE26CCF68
:1035C00081E00E94820C0E944F0CFDCE81E00E949F
:1035D0005A0CF9CF82E0F5CF82E0F9CF83E00E9468
:1035E000B407809147030E94C812EDCE80E0F7CF68
:1035F00080914703982F987F79F0885080934703F4
:10360000887F91E009F490E08091470390FB80F976
:10361000809347030E94C812809147038695869540
:1036200086950E948D07CFCE80914703982F96955F
:1036300096959695933040F49F5F990F990F990F47
:103640008770892B80934703809147038160E0CF87
:103650008091470380FF07C08E7F809347030E94BD
:10366000C81280E0DECF80FDAECE8160809347033C
:10367000813019F489E08093470380914703CACFD2
:1036800090914703892F8695869586958F5F8F71D8
:103690009770843048F4880F880F880F892B8093A7
:1036A000470380914703ACCF90934703FACF8091B3
:1036B000470381FF03C00E94CD1285CE0E94E31212
:1036C00082CE27E245EE65EEF8C326E241EE60EEDB
:1036D000F4C327E245EE64EEF0C326E241EE62EE6B
:1036E000ECC328E241E0EFCFE1E6EE16EDE5FE06A1
:1036F00009F439C58091170236E1E3163CE5F3067B
:1037000009F0F0C38A7A91E009F490E09093B40153
:1037100069E2811165E384E991E00E9498060E94C4
:103720008B0B51CE80915603806136E0E3163CE569
:10373000F30609F492C008F497C0809156038062A2
:103740008CC0809156038D7F9CE0E9169CE5F906BC
:1037500009F483C078F4809156038C60FAE0EF1688
:10376000FCE5FF0609F479C008F490C08091560387
:103770008E7F73C080915603877F3EE0E3163CE561
:10378000F30609F46AC008F48BC0809156038F7E5B
:1037900064C09CEFE9169CE5F90609F485C068F55C
:1037A000F4E1EF16FCE5FF0609F49AC060F432E19B
:1037B000E3163CE5F30609F483C008F47DC080916C
:1037C0005603837F4AC09AEFE9169CE5F90609F48F
:1037D0004FC008F053C0F5E1EF16FCE5FF0609F015
:1037E000EFC48091560382FB992790F921E092273C
:1037F00090FB82F990FB83F930C0E1142DE5F206CD
:1038000009F464C090F48EEFE8168CE5F80609F42C
:1038100043C0809157038D7F9FEFE9169CE5F90621
:1038200050F1809157038C7F26C0E2E0EE16EDE563
:10383000FE0609F464C008F45CC021E6E2162DE53A
:10384000F20609F0BDC490915603892F8F7E94FF34
:10385000806103C080915603816080935603B0C499
:10386000809156038460F9CF809156038860F5CF2C
:1038700080915703816080935703A2C480915703BE
:103880008260F9CF809156038064E7CF0E94A7162B
:10389000809156038068E1CF809157038360EBCF1E
:1038A000809156038B7FD9CF809157038E7FE3CFD2
:1038B000809156038F7DD1CF809156038F7BCDCFE2
:1038C0000E94A716809156038F77C7CF8091570328
:1038D000982F909591708E7F892B90FB81F9CBCF9B
:1038E0000E94A71690915603892F97FB87F980585D
:1038F000B4CF61E08EE090E00E942A2C61C460E0C9
:10390000F9CF8091420380FF1BC08E7F80934203DA
:103910006091420370914303809144039091450369
:103920000E94961410927E028FEF90E7E2E08150A1
:103930009040E040E1F700C000000E94110E43CD2E
:1039400081608093420361E086950E94A1153BCD82
:103950004CED55E165EE75E10E94CA0734CD45EEA8
:1039600055E16CED75E1F8CF46E755E16DE675E19F
:10397000F3CF45E555E161E675E1EECF4DE355E165
:1039800069E475E1E9CF49E455E16DE375E1E4CF20
:1039900040E955E16FE775E1DFCF61E081E0D5CF28
:1039A00065E082E00E94EF150ECD68E086E0FACF78
:1039B00064E18FE0F7CF67E185E1F4CF62E289E16E
:1039C000F1CF61E083E2C1CF9BE5E9169DE5F90601
:1039D00011F1ECE5EE16EDE5FE0609F0B5C28091B9
:1039E000570382FB882780F991E089270E94F8120B
:1039F000ABC20E94A716FFEF24E33CE0F150204049
:103A00003040E1F700C000000E94ED0D0E940C164E
:103A1000DACC81E0EBCF80E0E9CFC7010E94DA0B7E
:103A2000D82EA1C22F2D2F70C22E8F2D807F19F07E
:103A3000C29490EFC922DD20B9F0CC2069F080E279
:103A40008E0D883010F0811009C080911702C82AAD
:103A5000C09217020E948B0B8E2D4DC080911602D2
:103A6000C82AC0921602F6CF8E2D0E94A20CCC203E
:103A700009F443C080E28E0D883010F0811004C03C
:103A80008C2D0E94840B06C0C09480911602C8221F
:103A9000C09216020E948B0B30C03F2D3F70C32E88
:103AA0008F2D807F803219F0C29480EFC822882049
:103AB00089F081E0881609F481C0DD2009F48BC00B
:103AC000BB2009F481C0F801858180FFC5CF8F70CC
:103AD00085837AC02091570322FF4DC0DD2009F471
:103AE00044C0CC2039F080911702C82AC092170236
:103AF0000E948B0B80E00E94D40C292D2850330BA0
:103B00002430310520F40E94F9060E944A0DAA20B3
:103B100009F41DCC8091140280FD19CCF8011282A9
:103B20008595859585950E94820CC8010E9485190E
:103B3000809114028595859585950F900F900F9033
:103B40000F900F90DF91CF911F910F91FF90EF9009
:103B5000DF90CF90BF90AF909F908F907F906F90AD
:103B60005F904F903F900C945A0C80E00E94A20C02
:103B7000CC2019F285CFDD20A1F0909118028C2D78
:103B8000892BB11003C00E94980CB7CFE1E0BE12A0
:103B9000FACF22FDB2CF981709F4AFCF8093180265
:103BA000ACCFB11006C00E947E0B8C2D0E94910CF0
:103BB000A4CFF1E0BF1609F4A0CFF5CFDD2031F09E
:103BC00025E02B1508F499CF8C2DDDCF34E03B1583
:103BD00008F493CFEACFBB2041F3F9E38F1209C079
:103BE0002FEF37EE83E0215030408040E1F700C0F6
:103BF00000008E2D0E94A20C80CF8F2D8695869579
:103C0000837061F0813009F078CFC7019370D110D3
:103C100002C090E080E00E94CD066FCFC701937094
:103C2000D11002C090E080E00E94E30666CF8E2DA6
:103C3000DD2029F00E9457090E9475085ECF0E947E
:103C40009C08FACF8F2D837091F5D11056CF4E2D51
:103C5000429546954770440F440F8E2D8F70042E69
:103C600001C0880F0A94EAF72E2D2071E4FE07C0E8
:103C70002FE030E001C0220F4A95EAF720953F2D52
:103C8000369536953370323069F050F44091190210
:103C9000313029F0822B84230E948D0C2ECF842B6F
:103CA000822BFACF282B809119028227F5CF869597
:103CB000DD2011F08F2D8170882309F41ECF4E2D49
:103CC000429546954770440F440F8E2D8F70042EF9
:103CD00001C0880F0A94EAF72E2D2071E4FE07C078
:103CE0002FE030E001C0220F4A95EAF720953F2DE2
:103CF000369536953370323069F050F440918D032B
:103D0000313029F0822B84230E944B0CF6CE842B79
:103D1000822BFACF282B80918D038227F5CF9F2D00
:103D20009F70F92EDD2029F0892F0E94820C8E2DA4
:103D30002ACF8E2D0E94910C8F2D0E945A0CDDCE21
:103D40008E2DE2EF8E16B1F1E81570F0F0EF8F16C0
:103D5000D1F021EF821691F0DD2009F45EC0B110A0
:103D60007BCE8F2D8F712AC033EF831651F194EFE4
:103D70008912F2CF8091570382FF2FC08F2D8F7150
:103D8000DD20D9F21BC0DD2081F0E4E0EB1508F462
:103D9000B4CE2F2D2F7181E090E001C0880F2A95BD
:103DA000EAF790918D038927AFCFF5E0FB1508F472
:103DB000A4CEEFCF8F2D8F71D110BFCF0E94820C78
:103DC0009CCE80E0DD2009F49FCF9F2D9F7181E084
:103DD00001C0880F9A95EAF797CFDD2099F02F2D33
:103DE0002F71F22E822F0E94820C8091570382FD48
:103DF00007C038E0F39EC001112483608093140251
:103E00008F2DDCCF81E00E94660C81E08B1508F0DD
:103E100074CE82E00E94660C70CEBB2059F08933CC
:103E200009F0E7CE9FEFE7EEF3E09150E040F0407D
:103E3000E1F7DDCE8F2D8F7180CFF0E1EF16FFE53A
:103E4000FF0609F4BDCB21E1E2162FE5F20609F4E5
:103E5000C1CBF701EB5BFC45E730F10508F056C13B
:103E6000E550F34D0C94912B30E1E3163FE5F3065A
:103E700009F4ACCB81E1E8168FE5F80609F4ACCB88
:103E800023EFE2162CE5F20609F41FCC08F020C15E
:103E900088EDE8168CE5F80609F413CC99EDE916DF
:103EA0009CE5F90609F41DCCE7EDEE16ECE5FE06FF
:103EB00009F01CC126E241EE61EEC8010E94D71153
:103EC00082CA85E0DE01119601900D928A95E1F794
:103ED000F801228189819A81211150CA0E94DA0B4E
:103EE000F82E54CA82722CECE2162CE5F20609F484
:103EF0004FCD08F0ABC096ECE9169CE5F90609F445
:103F000033CD08F07AC0F3ECEF16FCE5FF0609F4B8
:103F10001FCD08F061C032ECE3163CE5F30609F46E
:103F2000F0CCFAE5EF16FDE5FF0609F472CD08F0D6
:103F30004BCDE1143CE5F30609F45BCD8EEDE816BC
:103F40008CE5F80609F462CDF8018281E080F18009
:103F5000882309F462CDC7010E944813D82E682F28
:103F6000C7010E94020CB7018D2D0E943B130E94D5
:103F7000F6097C01882EF801D280B580B2943FE02A
:103F8000B322809114028770C1F0AD2CDD20B1F016
:103F90008F2D807F803421F080E28E0D883068F094
:103FA0008091570382FD09C082E00E94660C8091D7
:103FB00014028770AA24A3948111A12C9F2C92949F
:103FC0002FE09222FBE0F91508F497CDE92DF0E0FF
:103FD000EE5FF24D0C94912B94ECE9169CE5F906FA
:103FE00009F4BDCC4DE655E166E775E1E5ECEE166A
:103FF000ECE5FE0609F4B0CC94CFF9ECEF16FCE545
:10400000FF0609F4BBCC88F437ECE3163CE5F30675
:1040100009F4AFCC41E655E165E575E198ECE916A8
:104020009CE5F90609F498CC7CCFEAECEE16ECE5B9
:10403000FE0609F4A8CC4FE755E160E975E1FBEC19
:10404000EF16FCE5FF0609F487CC6BCF21EDE216F5
:104050002CE5F20609F4ACCCB8F48EECE8168CE54D
:10406000F80609F49DCC08F498CCEFECEE16ECE5DC
:10407000FE0609F49ACC6EE089E0F0EDEF16FCE55F
:10408000FF0609F48FCC4DCF24EDE2162CE5F206A5
:1040900009F494CC78F482EDE8168CE5F80609F47E
:1040A0008ACC61E088E193EDE9169CE5F90609F414
:1040B0004CCC37CFE5EDEE16ECE5FE0609F481CCED
:1040C0006AE285E2FDE5EF16FF0609F46BCC29CF25
:1040D000F5EFEF16FCE5FF0609F4FFCA08F4F9CA8C
:1040E00036EFE3163CE5F30609F488C0F6E1EF1677
:1040F000FCE5FF0609F028CF8091B40169E2811147
:1041000065E384E991E00E946E0609CB83EFE8162F
:104110008CE5F80609F4D9CA08F062C0E8EDEE169D
:10412000ECE5FE0609F4CDCAF9EDEF16FCE5FF0655
:1041300009F4D7CA27EDE2162CE5F20609F4BACE47
:1041400010928C0383E0E8168DE5F80608F0CCCADF
:104150009AEFE9169CE5F90630F4C70182509C45B8
:10416000449708F0C7CA0E94C313909357038093E3
:104170005603F0E1EF16FCE5FF0609F499CB08F0D1
:1041800008CB38E0E3163CE5F30609F47BCB08F0F6
:10419000D8CA94E0E9169CE5F90609F461CB08F069
:1041A000C1CAF2E0EF16FCE5FF0609F453CB80919B
:1041B0005603826023E0E2162CE5F20609F44DCBAB
:1041C00060915603F090570384E090E00E942A2CFF
:1041D0006F2D82E290E00E942A2C0E94A716F3C85D
:1041E00035EFE3163CE5F30609F477CA08F471CA23
:1041F00096EFE9169CE5F90609F0A2CF27E245EE15
:1042000066EE5BCE1F93CF93DF938091E101807FB9
:10421000A9F48091DE01882389F080911302D09166
:10422000E2016091DC017091DD01A091DF01B091AC
:10423000E001C62FC72316E0D81304C0DF91CF9149
:104240001F91089590E0109711F0CF3F19F4019657
:104250008770F2CF189F9001199F300D1124F9013A
:10426000ED51FE4F41814713F2CF40814613EFCF0E
:1042700042814111ECCF438154814A1B5B0B483C86
:10428000510528F78091E1018F7080618093E101F1
:10429000F901E851FE4F80818F70806180838CED41
:1042A00091E00E948519DF91CF911F910C94D00B62
:1042B000AF92BF92CF92DF92EF92FF920F931F9334
:1042C000CF93DF93CDB7DEB761970FB6F894DEBF1B
:1042D0000FBECDBF8C0185E0F801DE011D96019077
:1042E0000D928A95E1F7F801E2808CEDA82E81E02D
:1042F000B82E6091DF017091E0016115710509F43C
:1043000032C19091DC014091DD01892F84238F3FE0
:1043100009F429C120813181C380D480F090DE016D
:10432000F601E61BF70BFF2009F4E8C08091E101DC
:10433000582F507FE83CF10508F0ABC0511177C011
:10434000FE2C431321C092131FC0E1101DC08F70BB
:1043500080618093E101C5010E9485198091E1018E
:10436000F80185838F2D61960FB6F894DEBF0FBEDE
:10437000CDBFDF91CF911F910F91FF90EF90DF9014
:10438000CF90BF90AF900895CD2829F0822F83233E
:104390008F3F09F003C180E0F82FF170DF2E80FF1E
:1043A0003CC0809113024091E20156E0841315C095
:1043B0002D873E878D859E850E947713292F229514
:1043C0002F702230F0F0243018F59F70F1F0F801D2
:1043D0009581907FD1F4D12C1EC090E0589FF001C0
:1043E000599FF00D1124ED51FE4F6181361306C027
:1043F0006081261303C06281E6120FC001968770A8
:10440000D5CF9F7011F0882331F3805E883018F388
:10441000C8010E948519FD2CA5CFEE2009F4A2CF7A
:104420008091E10181608093E101F12C9BCF4313E6
:1044300006C0921304C0F801EE2009F479C0C80147
:104440000E948313882309F1EE20F9F08091E101A5
:10445000803270F02091DC013091DD0138872F83AC
:104460001986DB86CA868C87CE0107960E9485193D
:1044700086E0F801ACEDB1E001900D928A95E1F78C
:104480000E940221FF24F3946DCFC8010E94851978
:10449000F9CF51110AC08CED91E00E94851986E098
:1044A000F50111928A95E9F7C0CF43130FC092131B
:1044B0000DC0E1100BC0F8018583C8010E94851969
:1044C00086E0F50111928A95E9F74CCFC8010E9468
:1044D00083138823D1F2EE20C1F28091E101803272
:1044E00038F22091DC013091DD013A8329831B826F
:1044F000DD82CC828E83CE010196B8CFE83CF105F7
:10450000F8F6FE2CEE2009F243131FC092131DC0D3
:104510008091E10180FD10C0982F907F69F0F80133
:104520008583903F31F0982F907F905F8F70892B1B
:104530008583C8010E94851986E0F801ACEDB1E0E1
:1045400001900D928A95E1F70DCFC8010E94831367
:1045500081118ECF8091E10181608093E101C801DA
:104560000E948519FFCEEE2009F48FCFC8010E946A
:104570008313F82E882309F488CF86E0F801ACED88
:10458000B1E001900D928A95E1F78091DC01909164
:10459000DD010E9477130E940221E4CE81E08E2586
:1045A000FBCE1F93CF93DF93CDB7DEB767970FB6E0
:1045B000F894DEBF0FBECDBF4B8B5C8B6D8B7E8BBB
:1045C0008F8B6111109216021A8A198A85E0FE01FA
:1045D0007396DE011D9601900D928A95E1F786E0B3
:1045E000FE013D96DE01179601900D928A95E1F746
:1045F000CE0107960E945821882389F016E0809109
:1046000013029091E201891349C067960FB6F8949E
:10461000DEBF0FBECDBFDF91CF911F91089586E021
:10462000FE013796DE01119601900D928A95E1F711
:104630008A859B85892B11F38F81988589238F3FEC
:10464000E9F22091E20130E0C901019687709927D3
:10465000409113024817190671F40E94A716109290
:10466000E2011092130286E0ECEDF1E0DF011D9211
:104670008A95E9F7C3CF96E0929FD001939FB00D42
:104680001124AD51BE4FFE01319601900D929A95C5
:10469000E1F78093E2010E94D00BB0CF819FC0016F
:1046A00011248D519E4F0E945821882309F4ADCFCB
:1046B0008091130290E001968770992780931302EE
:1046C0009ECF1F920F920FB60F9211242F933F93FC
:1046D0004F935F936F937F938F939F93AF93BF930A
:1046E000CF93DF93EF93FF93D091E900DF70809138
:1046F000EC00C82FC17080FDC0E81092E9008091E5
:10470000F000877F8093F00078940E94BC1610928E
:10471000E9008091F00088608093F000CD2BCF708D
:10472000C093E900FF91EF91DF91CF91BF91AF91DD
:104730009F918F917F916F915F914F913F912F91B9
:104740000F900FBE0F901F9018951F920F920FB6EB
:104750000F9211242F933F934F935F936F937F9307
:104760008F939F93AF93BF93EF93FF938091E1005B
:1047700082FF09C08091E20082FF05C08091E100C4
:104780008B7F8093E1008091DA0080FF24C08091CC
:10479000D80080FF20C08091DA008E7F8093DA00FD
:1047A0008091D90080FF9DC080E189BD82E189BDF3
:1047B00009B400FEFDCF81E08093800380915B030C
:1047C000811109C00E94C5040E9490058091E200F9
:1047D00084608093E2008091E10080FF17C08091A7
:1047E000E20080FF13C08091E2008E7F8093E200A0
:1047F0008091E20080618093E2008091D800806225
:104800008093D80019BC85E0809380038091E100FB
:1048100084FF2BC08091E20084FF27C080E189BD26
:1048200082E189BD89B5982F917080FFFBCF80917F
:10483000D8008F7D8093D8008091E1008F7E809397
:10484000E1008091E2008F7E8093E2008091E2009F
:1048500081608093E20080918103882309F447C03E
:1048600084E080938003809180038091E10083FF46
:1048700027C08091E20083FF23C08091E100877F01
:104880008093E10082E08093800310928103809105
:10489000E1008E7F8093E1008091E2008E7F809323
:1048A000E2008091E20080618093E20042E060E0FB
:1048B00080E00E945E058091F00088608093F000A7
:1048C000FF91EF91BF91AF919F918F917F916F91E8
:1048D0005F914F913F912F910F900FBE0F901F90BE
:1048E000189519BC1092800310925B0374CF8091CD
:1048F000E30087FD93E090938003B5CF78941F92F7
:104900001FB61F9211248F939F93AF93BF938091F3
:10491000520390915303A0915403B0915503019613
:10492000A11DB11D8093520390935303A093540390
:10493000B0935503BF91AF919F918F911F901FBE70
:104940001F9018951F921FB61F9211248F939F934B
:10495000AF93BF9380915103811113C08091520393
:1049600090915303A0915403B09155034196A11D1A
:10497000B11D8093520390935303A0935403B093BB
:104980005503BF91AF919F918F911F901FBE1F90B4
:1049900018951F920F920FB60F9211242F933F93E9
:1049A0004F935F936F937F938F939F93AF93BF9337
:1049B000EF93FF9380911E018230A1F08F5F80936F
:1049C0001E01FF91EF91BF91AF919F918F917F91C8
:1049D0006F915F914F913F912F910F900FBE0F906C
:1049E0001F90189581E080931E018091490390915A
:1049F0004A03019660ED72E00E94692B90934A038E
:104A00008093490365E070E00E94692B6F77809185
:104A10004803823041F4603451F480916F008E7FFE
:104A200080936F0004C0813011F46F37B1F3E62F2B
:104A3000F0E0E257FB4FE49120918600309187002F
:104A4000E29FC001E39F900D11246DEF72E00E9480
:104A5000692B80914703869586958695282F269FFA
:104A6000C001279F900D11240E94050790938B0091
:104A700080938A00A6CFCDB7DEB7E2970FB6F89441
:104A8000DEBF0FBECDBF84B7877F84BF0FB6F8945B
:104A9000A89580916000886180936000109260000A
:104AA0000FBE80E890E00FB6F89480936100909379
:104AB00061000FBE85B7806885BF85B7806885BFF8
:104AC00081EB99E090939301809392010E94C50439
:104AD0000E9490058091E20084608093E2007894C7
:104AE000809180038823A1F01091E9001F709091BC
:104AF000EC00892F817090FD80E8182B1092E9005E
:104B00008091E80083FD0E94BC161F701093E9009D
:104B100082E084BD93E095BD9AEF97BD80936E00CF
:104B20000E94AA13811102C00E94B912769A289895
:104B300089982D9A2F9A889AA1E5B1E047E551E02E
:104B400061E070E08D91E82FE295EF70F0E011A147
:104B50008F709B0101C0220F8A95EAF7922F9095E2
:104B6000912391A382A1822B82A34A175B0751F75D
:104B7000259A279A809A209A819A6E9AEDE1F2E01E
:104B800085E392E0A2E5B2E01192119211921192A6
:104B90001D921D921D921D928E179F07A9F70E94CC
:104BA0007616811102C00E940C1682E090E00E94ED
:104BB000162C809339020E94C3139093570380935D
:104BC00056030E947C108FE39CE90197F1F700C027
:104BD00000000E947C108091520280FF08C06FEF9D
:104BE0007FEF90E080E00E94482C0E94ED0D83E072
:104BF00090E00E94162C0E948D0C579A5F98569A4E
:104C00005E98249A2C98269A2E9882E280938000AF
:104C100089E1809381008FEF9FEF909387008093CD
:104C200086000E9481168091470381FF0BC010927D
:104C30004A03109249031092480380916F008160EB
:104C400080936F000E94811680913502811133C0DC
:104C50000E947616811104C00E940C160E94FD1558
:104C600088E090E00E941E2C6093420370934303FF
:104C700080934403909345036E7F71F40E94FD1569
:104C800088E090E00E941E2C6093420370934303DF
:104C900080934403909345030E94D00710927E02B4
:104CA0008091420380FF04C060E086950E94A115B8
:104CB00081E08093350284E091E090934E038093ED
:104CC0004D0338E1832E912C40E4342E5AE6A52E74
:104CD00052E0B52E80918003FF24F39400E112E1AD
:104CE000853009F403C20E947C10882359F08FB7E5
:104CF000F894409152035091530360915403709182
:104D000055038FBFEAE3F2E0A2E5B2E010E000E075
:104D1000902F4D915D916D917D9141905190619059
:104D20007190441655066606770609F406C27301AB
:104D30006201C426D526E626F726CFA6D8AAE9AA78
:104D4000FAAA80E0C12CD12C7601C3944FA458A8B4
:104D500069A87AA84C205D206E207F20452846282F
:104D6000472809F4E2C189A39AA34C215D216E2151
:104D70007F2181E0452B462B472B09F480E08BA354
:104D80000E9462068160782F9DA38CA349A15AA13D
:104D90006BA18DA10E94D122000F111F000F111FC6
:104DA000F801E65CFD4F80819181A281B3818C2561
:104DB0009D25AE25BF2580839183A283B3838091F7
:104DC0007E028823D1F180917D02E0914203E69535
:104DD000E81BE0937902823009F0C6C1F0E0EB579E
:104DE000FD4FE4910E2F10E088E6E82E80E1F82ECA
:104DF00080917A02882361F010927A020E94620602
:104E0000909378028093770210927C0210927B023A
:104E10000E946206E0917702F09178028E1B9F0B50
:104E20008F3F9F4750F4E00FF11FF0937802E0931B
:104E3000770287E792E0F701099586E0E1E7F2E083
:104E4000DE01119601900D928A95E1F7F0907302C0
:104E5000E090740210917502009176021092730234
:104E60001092740210927502109276028F2D8E2984
:104E700009F448C080916F02909170020E9453061D
:104E80009C0190916B02992309F4F4C323333105FB
:104E9000C8F19F3F19F09F5F90936B02FF2059F07C
:104EA0000E9437099FEF1F140CF491E0899F802D19
:104EB000112480937302EE2059F00E9437099FEF6E
:104EC0001E140CF491E0899F802D112480937402AC
:104ED000309173023323B1F020917402222391F0B8
:104EE00045EB3403C0011124992309F4A9C190931F
:104EF000730245EB240390011124332309F4A4C168
:104F000030937402812F802B09F448C080916D0288
:104F100090916E020E9453069C0190916A0299231F
:104F200009F4A3C325363105C8F19F3F19F09F5FEF
:104F300090936A02112359F00E9415099FEF1116F0
:104F40000CF491E0899F802D112480937502002339
:104F500059F00E9415099FEF10160CF491E0899FFB
:104F6000802D112480937602309175023323B1F0A5
:104F700020917602222391F045EB3403C0011124E5
:104F8000992309F465C19093750245EB24039001C0
:104F90001124332309F460C13093760280917302A7
:104FA00090917402892B90917502892B90917602D1
:104FB000892B11F00E94750886E0FE013196A1E769
:104FC000B2E001900D928A95E1F70E94F906909166
:104FD0003802891731F00E94F906809338020E9446
:104FE0004A0D80918003843009F074CE83E0809371
:104FF000E9008091E80082FF6DCE8091E80090E0AA
:1050000085FF06C00E94E404882309F429C191E0C9
:105010008091E8008B778093E800992309F45ACEB9
:10502000E981E150E33108F09AC1F0E0E25FF24D2E
:105030000C94912B80918003843009F443C080E06C
:105040000E948D0780E00E944A0D10927E0280919E
:105050003702811116C0F092370280914203982FD7
:105060009170909336028E7F809342039FEFE0E72A
:10507000F2E09150E040F040E1F700C000000E94F3
:10508000110E109251030FB6F894A895809260000B
:105090000FBE3092600083B7817F846083BF83B787
:1050A000816083BF7894889583B78E7F83BF0FB666
:1050B000F894A895809160008861809360001092B8
:1050C00060000FBE80917F03882381F00E947C10D6
:1050D000E2E5F2E081919191A191B191892B8A2B26
:1050E0008B2B09F0A3C2AE16BF06A1F780918003F7
:1050F000853009F49FCF0E94A7160E9481160E9456
:10510000F9060E944A0D10923702809136028823D8
:1051100049F08091420381608093420360E086956C
:105120000E94A1150E948014DECD8F5FCC0CDD1C87
:10513000EE1CFF1C813109F009CE0F5F1F4F0630B6
:10514000110509F0E5CD8FEF8EA38FA318A60E945D
:1051500062068160782F9AA789A74EA15FA168A5F2
:105160008AA50E94D1222BCE863059F4F0E0EE576A
:10517000FD4FE4910E2F10E0B8E5EB2EB0E1FB2ED1
:1051800037CE893061F4E695F0E0E158FD4FE491C7
:105190000E2F10E0A4ECEA2EAFE0FA2E29CE8F30CD
:1051A00061F4E695F0E0E458FD4FE4910E2F10E035
:1051B000F6E5EF2EFFE0FF2E1BCE853159F4F0E02F
:1051C000E758FD4FE4910E2F10E0E8E0EE2EEFE0FF
:1051D000FE2E0ECE08E210E05FE7E52E5EE0F52E33
:1051E000883109F405CE833249F4E7E7F2E005910E
:1051F00014917FEFE72E7FE0F72EFACD04EF11E058
:1052000046E4E42E4EE0F42E843209F4F1CD00EDB4
:1052100017E03FECE32E37E0F32E853209F0E8CDBE
:105220008E2F63E00E944F2BE92FF0E0EC58FD4FEA
:10523000E4910E2F10E061EDE62E63E1F62ED8CD5D
:1052400081E08093730255CE81E0809374025ACE40
:1052500081E08093750299CE81E0809376029ECEA4
:1052600000E210E0CE0101967C018091E80085FD0E
:105270000AC08091E8008B778093E8000E94E404E4
:10528000882399F3C4CE8091F100F70181937F01C7
:105290000150110951F7BBCE1A8289E08B831AC0E5
:1052A0008A81823009F4D8C18330D9F1813009F084
:1052B00056C02FB7F89460915203709153038091B8
:1052C0005403909155032FBF0E94972B6B837C83CF
:1052D0008D839E8380918003843009F0FBCC1091F4
:1052E000E9001F709091EC00892F817090FD80E89B
:1052F000182B82E08093E9008091E80080FF0DC0C8
:1053000050E040E060E270E0CE0101960E94150599
:105310008091E8008E778093E8001F701093E90079
:10532000D9CCFE013196A2E5B2E04D915D916D912F
:105330007D916283538344833396AA16BB06A9F7F3
:10534000C9CF8A81823059F46B817C818D819E81A5
:105350000E94972B86E290E00E942A2CBBCF8FEF11
:105360008983B8CF4C816B818A810E94151398275D
:10537000892798279E838D83ADCFED80FE80FE2404
:10538000EF24FE248A810B81F2E20F9F8001112419
:105390002CEC829F000D111D11248C8190E0880F50
:1053A000991F080F191F6F2DC80187960E942A2C7C
:1053B0006E2DC8018896D0CF0E944B128BCF8A8168
:1053C000893091F08A30E9F08A81813871F110F5E5
:1053D000803809F07FCF20E04B81609144038091B9
:1053E00043030E94A81476CF8B8143E0849FC001C1
:1053F00011246FEF70E00E94692B862F0E94B40782
:10540000E3CF8B81811103C00E94CD12DDCF0E94BA
:10541000E312DACF823859F1833809F05BCF20E00C
:10542000409145036C818B81DCCF60E08B810E94D1
:10543000A1159B8180914203911111C08E7F8093B1
:10544000420310927E028FEF90E7E2E0815090409D
:10545000E040E1F700C000000E94110E3BCF8160E8
:105460008093420360E086950E94A11533CF8B8123
:10547000809346032FCF8A81893059F08A30C1F05A
:10548000813839F1D0F4803809F024CF8091450378
:1054900005CF80914703869586958695FFEF8F9F70
:1054A000C001112463E070E00E94692B6B8312CF6E
:1054B0008091470386958170F1CE823891F08338D0
:1054C00009F008CF809143038B83809144038C8340
:1054D00001CF8091420380FF02C08695DFCE80E03D
:1054E000DDCE80914603DACE809147030E94C81238
:1054F000609142037091430380914403909145036E
:105500000E949614E7CE80E18A83E4CE1A8289EA6B
:10551000C5CE0A811B81102701271027CE010196D5
:105520006C01EC80FC01EE0DF11D7F01C801895A70
:105530009C4FCE14DF0409F4CDCE093A110550F486
:105540000E94162CF60184830F5F1F4FFFEFCF1AC6
:10555000DF0AECCFF6011482F7CF0A811B811027F6
:1055600001271027CE0101966C01EC80E00EF12E90
:10557000F11CC801895A9C4FE016F10609F4AACE25
:10558000093A110520F4F60164810E942A2CFFEFEC
:10559000CF1ADF0A0F5F1F4FECCF0E943B129ACE4B
:1055A00084E0B2CF0A811B81102701271027CE018A
:1055B00001966C01EC80FC01EE0DF11D7F01C8012C
:1055C0008796EC14FD0409F485CE0033F3E01F0741
:1055D00050F40E94162CF60184830F5F1F4FFFEFDB
:1055E000CF1ADF0AECCFF6011482F7CF0A811B81B4
:1055F000102701271027CE0101966C01EC80E00EE8
:10560000F12EF11CC8018796E016F10609F462CE6E
:105610000033E3E01E0720F4F60164810E942A2C87
:10562000FFEFCF1ADF0A0F5F1F4FECCF09BD19BD87
:1056300009B400FEFDCF8091D8008F7D8093D80003
:105640008091E00082608093E0008091E00081FD25
:10565000FCCF0E94A7164ACD86E290E00E94162C4D
:105660001B821C821D828E8335CE2D32314008F084
:105670005ECC94CC2D32314008F00DCC43CCDB0114
:105680008F939F930E947D2CBF91AF91A29F800D1D
:10569000911DA39F900DB29F900D11240895991B09
:1056A00079E004C0991F961708F0961B881F7A9519
:1056B000C9F78095089587FB082E062687FD8195FA
:1056C00067FD61950E944F2B0EF4919507FC819523
:1056D0000895AA1BBB1B51E107C0AA1FBB1FA61739
:1056E000B70710F0A61BB70B881F991F5A95A9F78B
:1056F00080959095BC01CD01089597FB072E16F477
:10570000009407D077FD09D00E94692B07FC05D0D3
:105710003EF4909581959F4F0895709561957F4FC8
:105720000895EE0FFF1F0590F491E02D099469276D
:105730009627692778278727782708950E94B22C13
:10574000332312F48A1B9B0B0C94A82B0E94B22CBF
:10575000B7FF0895821B930B08958F929F92AF928B
:10576000BF92CF92DF92EF92FF92CF93DF93EC0143
:10577000688179818A819B81611571058105910517
:1057800021F464E279ED8BE597E02DE133EF41E020
:1057900050E00E945E2C49015A019B01AC01A7EA2E
:1057A000B1E40E947D2C6B017C01ACEEB4EFA5014D
:1057B00094010E948B2CDC01CB018C0D9D1DAE1D34
:1057C000BF1DB7FF03C00197A109B0488883998323
:1057D000AA83BB839F77DF91CF91FF90EF90DF90FB
:1057E000CF90BF90AF909F908F9008950E94AD2B67
:1057F000089580E091E00E94AD2B0895B0E0A0E014
:105800008093000190930101A0930201B0930301E2
:105810000895FC014150504030F001900616D1F738
:105820003197CF010895882799270895F999FECFD8
:1058300092BD81BDF89A992780B50895A6E1B0E0A0
:1058400044E050E00C94502CA8E1B0E042E050E07D
:105850000C94502C262FF999FECF92BD81BDF89A59
:10586000019700B4021639F01FBA20BD0FB6F894A4
:10587000FA9AF99A0FBE08950396272F0E942B2CAF
:105880000E942A2C252F0E942B2C242F0C942B2C89
:105890000196272F0E942B2C0C942A2CDC01CB0183
:1058A000FC01F999FECF06C0F2BDE1BDF89A319630
:1058B00000B40D9241505040B8F70895052E97FB63
:1058C0001EF400940E94752C57FD07D00E94902C66
:1058D00007FC03D04EF40C94752C509540953095F0
:1058E00021953F4F4F4F5F4F08959095809570954C
:1058F00061957F4F8F4F9F4F08950E94B22CA59FB7
:10590000900DB49F900DA49F800D911D11240895BA
:10591000B7FF0C947D2C0E947D2C821B930B089565
:10592000A1E21A2EAA1BBB1BFD010DC0AA1FBB1FA3
:10593000EE1FFF1FA217B307E407F50720F0A21B15
:10594000B30BE40BF50B661F771F881F991F1A9482
:1059500069F760957095809590959B01AC01BD01AC
:10596000CF010895A29FB001B39FC001A39F700D06
:10597000811D1124911DB29F700D811D1124911D57
:105980000895F894FFCFA9100D11101113111511DE
:10599000171119111B111F11241127112A112C1174
:1059A0002E11301132113D11751178117B117D11BD
:1059B0007F118111831187118C118F119211941114
:1059C000961198119A11951395139E139E13A01377
:1059D0009E139E139E1395139513A5139E139E134A
:1059E000A513A217CA176D19CA176D19FD171E182E
:1059F0006D191C192919EE1AF61AF81A141B281B0E
:105A0000401B571B121D121D4D1D4D1DFD1D171E48
:105A10007D1D7D1D221E8F1EA01EA01E4C295029FB
:105A2000A129B229BD29DC29DF293B2A742AAF2903
:105A3000AF29832A862A892AAD2ACD2AD02AD22ABA
:025A4000F62A44
:105A4200010000005006AD0D8C0D880D840D4F062F
:105A520001191A1B1C1D1E1F202122010201010116
:105A6200818283E200E900EA00B500B600B700CD0A
:105A7200008301CC008A01920194012102230224B5
:105A8200022502260227022A02B300B4006F007028
:105A9200009592949390910001020202020606067A
:105AA2000909090909090F0F0F0F0F0F151515180D
:105AB200191919191919191919192324252525250F
:105AC20025254022B684016201AC0050086908898C
:025AD2000800CA
:00000001FF
