:100000000C94A5030C94DD030C94DD030C94DD0328
:100010000C94DD030C94DD030C94DD030C94DD03E0
:100020000C94DD030C94DD030C9471200C942D20B2
:100030000C946E210C94DD030C94DD030C94DD0311
:100040000C94DD030C94DD030C94DD030C94DD03B0
:100050000C94DD030C944A210C94DD030C94DD0315
:100060000C94DD030C94DD030C94DD030C94DD0390
:100070000C94DD030C94DD030C94DD030C94DD0380
:100080000C94DD030C94DD030C94DD030C94DD0370
:100090000C94DD030C94DD030C94DD030C94DD0360
:1000A0000C94DD030C94DD030C94DD0305010902BF
:1000B000A10185020901A1000509190129081500FE
:1000C0002501950875018102050109300931158165
:1000D000257F95027508810609381581257F9501D0
:1000E00075088106050C0A38021581257F95017572
:1000F000088106C0C005010980A101850319012AF4
:10010000B700150126B700950175108100C0050CD8
:100110000901A101850419012AA002150126A002E6
:10012000950175108100C00660FF0961A101096297
:10013000150026FF00952075088102096315002629
:10014000FF00952075089102C005010906A101056F
:100150000719E029E7150025019508750181029529
:1001600001750881010507190029FF150026FF0008
:100170009506750881000508190129059505750181
:100180009102950175039101C0000000000000007C
:10019000000000000000000000000000000000005F
:1001A000000000000000000000000000007E0F00C2
:1001B000D4FFFFFFC700000078000000000000002F
:1001C000002A2B28000000000000000000000000B2
:1001D0000000000029000000002C1E3420212224F1
:1001E000342627252E362D3738271E1F202122237F
:1001F0002425263333362E37381F04050607080911
:100200000A0B0C0D0E0F10111213141516171819D6
:100210001A1B1C1D2F3130232D3504050607080934
:100220000A0B0C0D0E0F10111213141516171819B6
:100230001A1B1C1D2F3130354C1E0F0500047F3F4B
:100240001F643214643214783C1E1E140A05000127
:100250000101010101010101020202020202020286
:100260000203030303030303030404040404040458
:10027000050505050506060606060707070707081C
:10028000080808090909090A0A0A0B0B0B0C0C0CCF
:100290000D0D0D0E0E0E0F0F0F1010111111121269
:1002A00013131414151516161717181819191A1AE6
:1002B0001B1B1C1D1D1E1E1F202021222223242447
:1002C000252626272829292A2B2C2D2D2E2F303183
:1002D0003232333435363738393A3B3C3D3E3F4095
:1002E0004142434445464748494A4C4D4E4F505180
:1002F0005354555658595A5B5D5E5F61626465663A
:1003000068696B6C6D6F7072737577787A7B7D7EC0
:100310008082838587888A8C8E8F91939596989A10
:100320009C9EA0A2A3A5A7A9ABADAFB1B3B5B7BA28
:10033000BCBEC0C2C4C6C9CBCDCFD1D4D6D8DBDDFC
:10034000DFE2E4E7E9EBEEF0F3F5F8FAFDFFFFAAF0
:100350007F55402223252628292A2C2D2F30323361
:100360003536383A3B3D3E4042434547494A4C4E7C
:100370005051535557595A5C5E6062646668696BA8
:100380006D6F71737577797B7D7F81838587898AAE
:100390008C8E90929496989A9C9E9FA1A3A5A7A8B4
:1003A000AAACAEAFB1B3B4B6B8B9BBBCBEBFC1C2E4
:1003B000C3C5C6C7C9CACBCCCDCED0D1D2D2D3D477
:1003C000D5D6D7D7D8D9D9DADADBDBDBDCDCDCDC95
:1003D000DCDDDDDDDDDCDCDCDCDCDBDBDBDADAD963
:1003E000D9D8D7D7D6D5D4D3D2D2D1D0CECDCCCBE5
:1003F000CAC9C7C6C5C3C2C1BFBEBCBBB9B8B6B403
:10040000B3B1AFAEACAAA8A7A5A3A19F9E9C9A9892
:10041000969492908E8C8A89878583817F7D7B7963
:10042000777573716F6D6B6968666462605E5C5A44
:100430005957555351504E4C4A4947454342403E07
:100440003D3B3A3836353332302F2D2C2A29282699
:1004500025232229001E001F002000210022002346
:100460000024002500260027002D002E002A004A27
:10047000002B0014001A000800150017001C0018BB
:10048000000C00120013002F0030004C004B00390C
:100490000004001600070009000A000B000D000E02
:1004A000000F0033003400310028004E00E10064EA
:1004B000001D001B00060019000500110010003689
:1004C0000037003800E10052004D00E000E300E298
:1004D000000000000000002C0000000000E600E723
:1004E00000E400500051004F000100010001000134
:1004F00000010001000100010001000100010001F4
:1005000000010001000100010001000100010001E3
:1005100000010001000100010001000100010001D3
:1005200000010001000100010001000100010001C3
:1005300000010001000100010001000100010001B3
:1005400000010001000100010001000100010001A3
:100550000001000100010001000100010001000193
:100560000001000100010000000000000001000087
:100570000000000100010001000100010001000174
:100580000001000100010001000100010001000163
:100590000001000100010001000100010001000153
:1005A0000001000100010001000100010001000143
:1005B0000001000100010001000100010001000133
:1005C0000001000100010001000100010001000123
:1005D0000001000100010001000100010001000113
:1005E0000001000100010001000100010001000103
:1005F00000010001000100010001000100000000F5
:1006000000000001000000000001000100010001E5
:1006100000010001000100010001000100010001D2
:1006200000010001000100010001000100010001C2
:1006300000010001000100010001000100010001B2
:1006400000010001000100010001000100010001A2
:100650000001000100010001000100010001000192
:100660000001000100010001000100010001000182
:100670000001000100010001000100010001000172
:100680000001000100010001000100010001000162
:100690000001000000000000000100000000000157
:1006A000000100010001000100010009025B0003DC
:1006B0000100A0FA09040000010301010009211151
:1006C000010001224000070581030800010904011F
:1006D000000203000000092111010001222200078D
:1006E000058203200001070503032000010904021D
:1006F000000103000000092111010001227B000715
:1007000005840320000112010002000000084C4D86
:1007100002650100010200010C034B006100790039
:100720003600350000001E035400650061006D00B6
:1007300020004D006500630068006C006F007600CB
:1007400069006E0000000403090411241FBECFEFEE
:10075000DAE0DEBFCDBF04B603FE18C080913A03D5
:1007600090913B03A0913C03B0913D038730904BA7
:10077000A740B04B59F410923A0310923B031092E9
:100780003C0310923D03E0E0F8E3099523E0AEE975
:10079000B1E001C01D92AA33B207E1F711E0A0E079
:1007A000B1E0E8EAF1E502C005900D92AE39B1077B
:1007B000D9F70E9495210C94A9280C940000E8ED2B
:1007C000F0E080818E7F80831092E2001092DA0048
:1007D0001092E100A0EEB0E08C9181608C9380815A
:1007E0008F77808319BCA7EDB0E08C918E7F8C93BE
:1007F00080818F7E808310921F0308952091E400F2
:100800003091E50095E6A9012091EC00822F8170DE
:1008100020FF06C08091E80080FF06C080E00895B8
:100820002091E80022FD1AC080912C03882389F0D2
:10083000853089F08091EB0085FD0FC02091E400A8
:100840003091E50042175307F9F29150E1F684E048
:10085000089582E0089583E0089581E00895EF927D
:10086000FF920F931F93CF937C018B010E94FE0395
:10087000C82F811117C08091E80085FD0BC08091C1
:10088000E8008E778093E8000E94FE03882399F3A6
:10089000C82F08C0F70181917F018093F1000150BA
:1008A000110949F78C2FCF911F910F91FF90EF9075
:1008B000089580912E0387FF13C08091E80082FF86
:1008C00006C08091E8008B778093E80004C0809197
:1008D0002C038111F2CF089580912C038823D9F342
:1008E0008091E80080FFF8CF8091E8008E77ECCF10
:1008F000982F9093E900242F762F50E0891731F03C
:100900007091EC002091ED005091F00021FD07C0A6
:100910009F5F973071F78093E90081E008953091EF
:10092000EB003E7F3093EB003091ED003D7F309344
:10093000ED003091EB0031603093EB007093EC00F0
:100940002093ED005093F0002091EE0027FDE0CFC2
:1009500080E00895CF92DF92EF92FF920F931F9362
:10096000CF93DF93C8EDD0E088818F7E8883E7ED59
:10097000F0E080818160808384E082BF81E08093A9
:100980001F0388818E7F888302EE10E0F8011082B9
:100990001092DA0081EEC82ED12CF60110828881E7
:1009A0008F77888388818068888388818F7D88831A
:1009B00019BC10922C0310922D0310922B0310924D
:1009C0002A0390EEE92EF12CF70180818B7F808342
:1009D00088818160888342E060E080E00E94780442
:1009E000F60180818E7F8083F80180818160808321
:1009F000808188608083F70180818E7F80838881F9
:100A000080618883DF91CF911F910F91FF90EF90CC
:100A1000DF90CF900895FC018091340390913503CD
:100A200086179707A0F06115710529F49091E800E9
:100A30009E779093E80090E06115710551F4911153
:100A400008C08091E80082FF34C080E00895BC01B6
:100A5000F2CF80912C038823C1F18530C1F18091C0
:100A6000E80083FD30C08091E80082FDEACF8091EC
:100A7000E80080FFE1CF8091F3002091F200382F51
:100A80006115710519F02830310558F091E02830D2
:100A9000310509F090E02091E8002E772093E800DE
:100AA000CBCF81918093F100615071092F5F3F4F4F
:100AB000E7CF80912C03882341F0853041F080916D
:100AC000E80083FFBECF81E0089582E0089583E0CF
:100AD000089508958091210308959C014FB7F894DB
:100AE0008091180390911903A0911A03B0911B03F0
:100AF0004FBF821B930B08952FB7F8948091180372
:100B000090911903A0911A03B0911B032FBF089570
:100B10009C01FC0132969FEF80E04191461751F015
:100B20009F3F19F4411101C0982F8F5F8630A9F7BC
:100B30009F3F09F40895290F311D97FD3A95F9015A
:100B40006283089520911503309116032817390701
:100B500071F09093160380931503E0911303F091C5
:100B60001403309721F00084F185E02D0994089555
:100B700020911103309112032817390771F09093D7
:100B8000120380931103E0911303F0911403309743
:100B900021F00680F781E02D09940895E091130378
:100BA000F0911403309721F00190F081E02D099429
:100BB00080E00895FA01811101C0FB0109940895B4
:100BC00080910C03982F9E7F29F48170826080931E
:100BD0000C0308958635E8F381708465F8CFAF92F1
:100BE000BF92DF92EF92FF920F931F93CF93DF9309
:100BF000082F162FE901E42FF0E0E25BFD4F6111B1
:100C000010C0E4915E2F4E2F4983E8835A83DF9111
:100C1000CF911F910F91FF90EF90DF90BF90AF9019
:100C20000895E62EF12C4491D42EE42FF0E026E036
:100C3000829FC00111242FEF30E0B9010E944427A8
:100C4000802F90E0880F991F55E5569FD001579F40
:100C5000B00D11248A1B9B0B982F990F890F5901F6
:100C6000AE18BF08AE9ED001AF9EB00DBE9EB00DB7
:100C700011245B2F189F80011124012F1127590186
:100C8000A01AB10AAE9E8001AF9E100DBE9E100D3F
:100C900011245901A81AB108AE9CC001AF9C900D57
:100CA000BE9C900D1124892F9927281B390B2E9F4C
:100CB000C0012F9F900D3E9F900D1124E92F6230AF
:100CC0007105A1F050F46115710509F49DCF6130F3
:100CD000710581F0EB2F512F97CF6430710569F0CA
:100CE00080F06630710509F48FCFF4CFE42F4B2FDD
:100CF000592F8ACFE42F412F87CFEB2F542F492F25
:100D000083CF4B2F5D2DE12F7FCF0E947C059C016F
:100D100090913D0280913E02982B21F030933A024F
:100D20002093390290913F0280914002982B21F04C
:100D30003093380220933702E0911303F0911403AB
:100D4000309749F082E080933B020480F581E02DEA
:100D50008BE392E00994089540913D02803F59F45D
:100D600080913E0287FF0DC010923E0241110BC0E0
:100D70001092350208C0813F81F480913E0218161E
:100D80009CF3442381F080913F0290914002892B93
:100D900009F05AC0109234020895823F49F447FF87
:100DA000F0CF10923D0280913E028111ECCFE0CF56
:100DB000833F19F41416ACF3E4CF90913F02893FBE
:100DC00029F41916F4F610923F02DBCF8A3F19F48A
:100DD00097FFD7CFF8CF909140028B3F29F497FF30
:100DE000D0CF10924002CDCF8C3F19F41916CCF31E
:100DF000C8CF9CE0980F953090F4845F990B21E068
:100E000030E0B90102C0660F771F8A95E2F7CB0187
:100E1000809590913C02892380933C02B2CF8D3F14
:100E200031F4809136028E7F80933602AACF8E3FB6
:100E300021F4809136028D7FF7CF8F3F09F0A1CF4B
:100E4000809136028B7FF0CF08958091360280FD2D
:100E500016C081FD16C082FD16C080913402882321
:100E6000A1F0883280F428E0829FC001112468E25A
:100E700070E00E945827862F672B39F0089582E092
:100E8000089584E0089588E0089581E008958091B0
:100E9000360280FD14C081FD14C082FD16C0809111
:100EA0003502882381F08E3180F420E5829FC001D5
:100EB00011246EE170E00E945827862F089584E186
:100EC000089588E2089588E0089580E50895803FB8
:100ED00031F40E944707819580933E020895813F37
:100EE00019F40E944707F8CF823F31F40E94470768
:100EF000819580933D020895833F19F40E9447072E
:100F0000F8CF893F29F40E94250780933F02089576
:100F10008A3F21F40E9425078195F7CF8B3F31F45A
:100F20000E94250781958093400208958C3F19F413
:100F30000E942507F8CF9CE0980F953070F4845FED
:100F4000990B21E030E001C0220F8A95EAF78091E9
:100F50003C02822B80933C0208958D3F31F48091B6
:100F6000360281608093360208958E3F21F480918D
:100F700036028260F7CF8F3FB9F7809136028460E6
:100F8000F1CF80E00895F894E82FE295EF70F0E05B
:100F900031A1282F2F7081E090E001C0880F2A95A1
:100FA000EAF7982F9095932391A392A1892B82A37E
:100FB000789408959091190292FF06C0282F287105
:100FC0002830F9F4877F846093FF06C0282F2871AA
:100FD0002831F1F4877E846120911A0220FF06C037
:100FE000382F38713830D9F4877F816021FF06C0EF
:100FF000282F28712831D1F4877E816194FD877E66
:101000000895282F24712430F9F68B7F8860DCCF77
:10101000282F2471243101F78B7E8861DDCF382F92
:101020003171313019F78E7F8860E0CF282F217120
:10103000213121F78E7E8861E1CFCF93DF93EC01E0
:1010400082389105A9F1D8F58133910509F496C04C
:1010500048F58932910509F48AC08A9709F495C048
:10106000C11521E5D20708F0BCC0C11530E5D30792
:1010700008F014C1C83ED10508F09CC0C03ED1059F
:1010800060F5C83AD10508F087C0C53AD10508F027
:10109000FDC0C130D10509F12097F9F0C430D10568
:1010A000E0F440C08533910509F45AC0C997C1F6F0
:1010B00080911902837089F0C0EED0E00EC0833EAB
:1010C000910599F170F4803E910501F1823E910500
:1010D00039F68091190282FD21C0CE01DF91CF91B6
:1010E0000895863E910561F1873E910571F1843E38
:1010F000910509F0B5CF80911A0281FFEECF809162
:101100001902C7EED0E084FD0DC0E7CF809119022F
:1011100080FD12C190911A0290FFDFCFC3EED0E0A4
:1011200084FFDBCFD0E0C0E0D8CF8091190282FDF0
:1011300006C190911A0290FDBFCF84FFCECFF2CFAF
:101140008091190283FDDDCFC8CF8091190283FD04
:10115000F9C090911A0291FFF0CFC4EED0E0BDCF5C
:101160008091190285FFB9CFC9E2D0E0B6CF809156
:10117000190285FFB2CFC5E3D0E0AFCF809119024D
:1011800086FFABCFCAE2D0E0A8CF8091190286FFDC
:10119000A4CFC1E3D0E0A1CFCF3BD10518F6C85A08
:1011A000D0E0CC0FDD1FCE5DDE4F0990D881C02D81
:1011B000D46493CFC11540E2D40758F4C11581E03F
:1011C000D80708F08ACFC03FD10508F4ABCFD0656F
:1011D00084CFC11590E4D90708F4A4CFDF70D06A9A
:1011E0007CCFC11525E5D20700F5C11534E5D3073D
:1011F00008F08AC0C11543E5D40708F071C0C115D5
:1012000082E5D80708F467C0CE018370992721E0F2
:1012100030E002C0220F331F8A95E2F7C695C695CB
:1012200080E2C89FE001112452C0C11599E5D90799
:10123000A8F4C11528E5D20708F06BC0C11536E542
:10124000D30708F06FCF8C2F0E94DA07C82FD0E0A9
:10125000DC2FCC27CC27DF71D0623FCFC1154AE508
:10126000D40708F45BC0CE0190568115904208F077
:1012700059CF8D2F8F710E94DA0790E0982F882721
:1012800088279F719C012C2BE901E6CFC55AD0E03D
:10129000C15EDE4FC881D0E0D0641FCFCE01E4E054
:1012A00096958795EA95E1F783702C2F26952695DC
:1012B000237040E2249F90011124382B8C2F8370DF
:1012C000C1E0D0E002C0CC0FDD1F8A95E2F7C22B4F
:1012D000D32BDC6802CFDC2FCC27C16FD06AFDCEC8
:1012E000CE018370992721E030E002C0220F331F26
:1012F0008A95E2F7C695C69590E2C99FE001112450
:10130000C22BD32BDA68E9CEDC2FCC27C46FD06A8E
:10131000E4CEDC2FCC27C06FD06ADFCE8C2F8F704D
:101320000E94DA0734E0D695C7953A95E1F7CF7079
:101330009C2FEC01D069D1CEC9E3D0E0CECEC2EE75
:10134000D0E0CBCEC6EED0E0C8CE80910A028111AB
:1013500010920A0208958095909109029823909323
:10136000090208958091FE019091CD01981301C06A
:1013700008958F5F8770FACF2FE0929F800D112420
:10138000982F977086958695869523E0829FF00129
:101390001124E755FE4F50E040E080E0219130E01D
:1013A000092E02C0369527950A94E2F7217033275B
:1013B000042E01C0220F0A94EAF7822B4F5F5F4F81
:1013C0004330510559F708952FE0929F800D112465
:1013D000982F977041E001C0440F9A95EAF78695DF
:1013E0008695869593E0899FF0011124E755FE4F7D
:1013F00090E080E070E05191DF0111979B01082E91
:1014000002C0369527950A94E2F721702195252789
:10141000242325272C9301968330910561F70895A5
:1014200081FF02C05E9A08955E98089580931C0320
:1014300070931E0360931D0380912C038430F9F494
:101440008093E9008FEF9091E800815095FD06C0F0
:1014500095ED9A95F1F700008111F5CF8091E800A4
:1014600085FF0DC050E040E063E070E08CE193E068
:101470000E942F048091E8008E778093E800089501
:10148000BC0184E00C94160ABC0183E00C94160A9B
:101490009C0184E08093E9009FEF8091E8009150E7
:1014A00085FD06C085ED8A95F1F700009111F5CF15
:1014B0008091E80085FF0CC050E040E066E070E0FD
:1014C000C9010E942F048091E8008E778093E80084
:1014D0000895CF93DF93EC0181E08093E9008FEFD3
:1014E0009091E800815095FD06C095ED9A95F1F731
:1014F00000008111F5CF8091E80085FF14C050E015
:1015000040E068E070E0CE010E942F048091E80086
:101510008E778093E80088E0FE01A2E2B3E00190BC
:101520000D928A95E1F7DF91CF91089581E0809344
:10153000E00080E28093D8001092C9008FE19EE421
:101540000197F1F700C0000087E090EBDC01809389
:101550003A0390933B03A0933C03B0933D0388E18F
:101560009CE00FB6F894A895809360000FBE90930E
:101570006000FFCF80910C0380FD0AC0ECE4F2E034
:10158000118210821282339652E0E439F507C1F7D6
:101590006A9A3EB13B7F2EB124604FB7F8948CE439
:1015A00092E0FC015191CF0168E02EB9000000C02B
:1015B00057FF3EB9550F000000C000C000C03EB943
:1015C00000C06A9591F7F2E084399F0751F74FBF49
:1015D0008FE594E00197F1F700C000000895EF92C5
:1015E000FF920F931F93CF93DF938C01CCE4D2E053
:1015F000F12CE12CF801948160910E0380910D0390
:10160000FCE0EF16F104FCF49923F9F09E014091FF
:101610000F030E94EF052FEFE21AF20A239688E1EA
:10162000E816F10439F70E94BA0AF801848190E0C3
:101630000196817099278483DF91CF911F910F913B
:10164000FF90EF900895992309F39E0140E0E1CFC8
:101650008F929F92AF92BF92CF92DF92EF92FF92C2
:101660000F931F93CF93DF93EC014C81042F10E075
:101670009801D8010E949A289B01AC010E9465281C
:101680004B015C01E0E2F0E0E01BF10BA5E5B0E00E
:10169000AC019B010E9465286B017C019F01DF0169
:1016A0000E9479279B01AC010E9470289B01AC012C
:1016B000280D391D4A1D5B1DC701B6010E947828FF
:1016C000F22E822F90E039E23F15D8F143E0249FBB
:1016D0009001112435952795122F10959CE4C92E61
:1016E00092E0D92E00E085E5E82EEF188E2D01FD61
:1016F0008F2D9601412F60910E030E94EF050F5F21
:1017000053E0C50ED11C083189F70E94BA0A9C81AA
:1017100081E0992319F0903219F48FEF80931D0125
:1017200080911D01890F8C83DF91CF911F910F91C3
:10173000FF90EF90DF90CF90BF90AF909F908F90F1
:10174000089525E530E0A901481B590BCA019A010B
:10175000220F331F280F391F37FFBCCF2F5F3F4F9A
:10176000B9CF0F931F93CF93DF93CCE4D2E0FE0168
:10177000118210821282339682E0E439F807C1F7B1
:1017800010E000E080914A02082E000C990B081727
:1017900019078CF180911C01082E000C990B801701
:1017A00091074CF19E0140910F0360910E038091CF
:1017B0000D030E94EF050F5F1F4F2396083111059F
:1017C00009F70E94BA0A80911B0190914A02980F72
:1017D00090934A0220911C01280F20931C0112169D
:1017E00014F497311CF0819580931B01DF91CF9108
:1017F0001F910F910895198218821A82DCCFBF922F
:10180000CF92DF92EF92FF920F931F93CF93DF93CC
:10181000FC018281DD24DA9480FD02C0DD24D394B2
:101820000CE412E0D0E0C0E028E1B22EF801118211
:101830001082128294E0E92EF12CC12C8091490291
:101840008C0D89310CF43DC06B2D0E943627892FF9
:10185000082E000C990B8C179D0791F480910F03B3
:101860008E9DA0018F9D500D11245595479555953E
:101870004795980160910E0380910D030E94EF053A
:10188000CD0CF1E0EF1AF108C9F621960D5F1F4F5C
:10189000C831D10559F60E94BA0A8091490291E0F7
:1018A000D91215C0811111C087E180934902DF91DF
:1018B000CF911F910F91FF90EF90DF90CF90BF904D
:1018C000089587FFC5CF885EC3CF8150EECF90E0EB
:1018D0000196BE010E945827E8CFEF92FF921F9316
:1018E000CF93DF93EC018CE4E82E82E0F82E10E039
:1018F0008C81970140910F0360910E03810F0E942C
:10190000EF05165F83E0E80EF11C103F89F70E9497
:10191000BA0A9A818C8190FF08C08F5F8C83DF9117
:10192000CF911F91FF90EF9008958150F7CF909144
:101930000C0390FF0CC0ECE4F2E0818360834283EF
:10194000339692E0E439F907C1F70C94BA0A089586
:101950000F931F93CF93DF9300D00F92CDB7DEB7D5
:101960008C0180914B0281110AC09E012F5F3F4F75
:101970004FEF6FEF0E94EF058A8180934B02F801D1
:101980006481613069F080914B0240E0662361F030
:1019900040E0623011F440914B0280E060E004C00E
:1019A00060914B0240E080E00E94970CF801848136
:1019B00090E0019663E070E00E94582784830F90C6
:1019C0000F900F90DF91CF911F910F910895CF93BA
:1019D000DF9300D00F92CDB7DEB790910C0390FF4C
:1019E0000AC09E012F5F3F4F0E94EF054B81698126
:1019F0008A810E94970C0F900F900F90DF91CF91EA
:101A00000895CF93DF93EC01ECE0F3E04381628132
:101A10008C810E94E70C8C818F5F8C83DF91CF914A
:101A20000895CF93DF93EC01EC81F0E0ED5AFC4F89
:101A30004491ECE0F3E0628181810E94E70C8C81AB
:101A40008F5F8C83DF91CF910895CF93DF93CFE7A2
:101A5000D2E060E0CE010E9412282196C11584E0F8
:101A6000D807B9F7DF91CF9108956F927F928F9247
:101A70009F92AF92BF92CF92DF92EF92FF920F931D
:101A80001F93CF93DF9383E5C82E84E0D82E9BED80
:101A9000E92EF12CE701C659D10936011BC0F50129
:101AA00085909490692DC8010E941228682DC80164
:101AB00001960E94122882E0A80EB11C0E5F1F4FF3
:101AC000C017D10761F78EE1680E711C6E96CE15B6
:101AD000DF0529F08E010E5111095301E0CF7E017F
:101AE00086E9E80EF11C86E9C80ED11C83E3E816EE
:101AF00083E0F80679F6DF91CF911F910F91FF9067
:101B0000EF90DF90CF90BF90AF909F908F907F909D
:101B10006F900895CF93C82F6FEF811162E283E237
:101B200090E00E9412286FEFC11163E084E290E020
:101B30000E9412286FEFC11160E285E290E0CF9120
:101B40000C94122880E00E948A0D60E086E290E00A
:101B50000E9412280E94350D0E94250D81E00C94F0
:101B60008A0D0F931F93CF93DF93C42FD0E0CC0F38
:101B7000DD1F2EE1629FC00DD11D112436E9839F28
:101B8000C00DD11D1124CE0187960E94FE27082F7B
:101B900010E0102F0027CE0188960E94FE279801A2
:101BA000282BC901DF91CF911F910F910895462FE6
:101BB000843038F4753028F46F3018F4672F0C94A3
:101BC000B10D90E080E00895CF92DF92FF920F93E5
:101BD0001F93CF93DF936C010091390380910B0227
:101BE000082BC7E0D0E010E0FC2EC8010C2E02C08C
:101BF000959587950A94E2F780FD0CC02197A0F790
:101C0000F12C8F2DDF91CF911F910F91FF90DF90DD
:101C1000CF900895B6018C2F0E94D70D0E941D0809
:101C2000019761F3EECFCF93DF93EC010E94E40DB7
:101C3000BE010E94D70DDF91CF910C941D08FC01CD
:101C4000808191810E94130E92959F70963091F041
:101C500058F4925F9F70923058F4803F19F030F43E
:101C6000883E30F481E008959A5FF4CF843FD1F349
:101C700080E00895883EB0F3813FD1F7F3CF83E24F
:101C800090E00E94FE27823289F484E290E00E9474
:101C9000FE27833059F485E290E00E94FE2791E010
:101CA000803209F090E0892F8170089580E0FCCFA8
:101CB000CF9384E090E00E94FE27C82F82E290E05C
:101CC0000E94FE27982F8C2FCF9108954F925F92FC
:101CD0006F927F928F929F92AF92BF92CF92DF923C
:101CE000EF92FF920F931F93CF93DF93FC016280DB
:101CF000448081E08483E3E5F3E07490E2EDF3E077
:101D0000E491C4E9D2E03CE4E32E32E0F32E4CE06F
:101D1000C42E43E0D42E52E0A52EBB24B3948824D5
:101D20008A94912C55245A94E7190E2F10E082E0E2
:101D3000861530F080910D03888380910E0389838E
:101D4000411021C01B821A8297014A8169818881D2
:101D50000E94EF05259683E0E80EF11CCC16DD0607
:101D600031F7DF91CF911F910F91FF90EF90DF90AE
:101D7000CF90BF90AF909F908F907F906F905F902B
:101D80004F900C94BA0A8B818823E9F081508B83A1
:101D9000859DC00111246C8170E00E944427FB01E5
:101DA000FF27ED5AFC4F8491E82FE719E59DC0010C
:101DB0001124B8010E94442780910F03689FB0014D
:101DC00011247A83C1CF0E94D42720910F03269536
:101DD00021582A9DA0012B9D500D1124452F5527D8
:101DE000841795070CF0B0CF82E0861588F40E9426
:101DF000D427B4010E94582788830E94D4272091B9
:101E00000E032695622F70E00E945827280F298321
:101E10001A8280910F03893C20F088EC8C838B839D
:101E200093CF8431D8F784E1F9CF60910C036695A4
:101E300070E04BE050E080E191E00E94E427892BC4
:101E400019F481E0809348020E947C05909342023D
:101E5000809341020895CF92DF92EF92FF926B013F
:101E60007C010E94E005B701A60188E090E0FF90A8
:101E7000EF90DF90CF900C9424285F926F927F9226
:101E80008F929F92AF92BF92CF92DF92EF92FF928A
:101E90000F931F93CF93DF9300D00F92CDB7DEB790
:101EA000182F762E042F622E90910C0390FF29C0DC
:101EB000E92FE695AE2FB0E0AC59BE4F8C918093E0
:101EC00047029E7F923081F59E012F5F3F4F812F09
:101ED0000E94EF054B8169818A810E94970C1093C3
:101EE0000D0370920E0300930F03662051F0609172
:101EF0000C0370910D0380910E0390910F030E94CB
:101F00002B0F0F900F900F90DF91CF911F910F919A
:101F1000FF90EF90DF90CF90BF90AF909F908F9009
:101F20007F906F905F900895823019F400910F03B5
:101F3000D6CF863019F410910D03D1CF8930D9F363
:101F4000893169F6E9518E2F8170582EE695F0E0BF
:101F5000E25BFC4FA590B490BB248CE4E82E82E0B9
:101F6000F82ED12CC12C98E1892E912CC601B401F8
:101F70000E944427812F511013C0860F9701402FD4
:101F8000672D0E94EF05CA0CDB1C83E0E80EF11CF4
:101F900084E9E81682E0F80649F70E94BA0A9FCF62
:101FA000861BECCFECE0F3E0438128E0421B08F411
:101FB00040E021E0628181810C943D0FECE0F3E090
:101FC000438128E0420F08F44FEF21E062818181D4
:101FD0000C943D0FECE0F3E0628128E0621B08F412
:101FE00060E021E0438181810C943D0FECE0F3E05F
:101FF000628128E0620F08F46FEF21E04381818164
:102000000C943D0FECE0F3E0818121E0438162819B
:1020100088500C943D0FECE0F3E0818121E0438196
:102020006281885F0C943D0F80911003882319F022
:1020300081508093100360910C0370910D03809187
:102040000E0390910F030C942B0F8091100383309B
:1020500018F48F5F8093100360910C0370910D034F
:1020600080910E0390910F030C942B0F90910C0311
:1020700090FF36C09170811129C0926090930C033B
:10208000662351F060910C0370910D0380910E0353
:1020900090910F030E942B0F60910C03669570E0E6
:1020A0004BE050E080E191E00E94E427892BA9F009
:1020B0001092480281E08093440220E040910F0397
:1020C00060910E0380910D030C943D0F8B3210F044
:1020D0009465D4CF880F982BD1CF0E94150FEACFEB
:1020E000089580910C038695815009F48AE261E09D
:1020F0000C94361080910C0386958F5F8B3208F01C
:1021000081E061E00C94361090910C0390FF07C0C1
:102110009695981720F0961710F40C947A1061E0B9
:102120000C943610ECE0F3E083E0808311828FEFB3
:1021300082838383148260817181828193810C9474
:102140002B0F69EE7EEF90E080E00E94302860E087
:1021500082E090E00E94122860E083E090E00E941C
:10216000122810920B0260E084E090E00E94122896
:1021700060E082E290E00E94122860E085E090E05A
:102180000E94122860E086E090E00E9412286FEF23
:1021900087E090E00E94122840E050E0BA0188E019
:1021A00090E00E94242860E08DE090E00E941228D8
:1021B00040E050E0BA0188E190E00E94242860E00D
:1021C00087E190E00E94122840E050E0BA018CE1E3
:1021D00090E00E94242870E060E080E290E00E949D
:1021E000302840E050E0BA0188E190E00E942428C5
:1021F00080E00E948A0D0E94A20D40E050E0BA01EA
:102200008FE090E00E94242840E050E0BA0183E192
:1022100090E00C9424284F925F926F927F928F925D
:102220009F92AF92BF92CF92DF92EF92FF920F9365
:102230001F93CF93DF93CDB7DEB72A970FB6F894ED
:10224000DEBF0FBECDBF8E010F5F1F4F8AE0F801CA
:1022500011928A95E9F790E5E92E91E0F92E68014F
:1022600025E5422E21E0522E66246394712C44E62B
:10227000842E41E0942EF70181917F018F3F09F474
:1022800045C0F894E82FE295EF70F0E021A18F703F
:10229000A30102C0440F551F8A95E2F7CA01922F8D
:1022A000982B91A392A18095892382A3789400C052
:1022B000E5E5F1E021E030E0B12CA12C41914F3F68
:1022C00009F47EC0A42FA295AF70B0E090968C91D7
:1022D00090E04F7002C0959587954A95E2F780FD92
:1022E0006FC0C901A82AB92A220F331F8E169F0674
:1022F00029F7F701319780818F3F11F00E94C307C2
:1023000050EA5A95F1F7F601B182A082F2E0CF0EC1
:10231000D11C4E145F0409F0AECF4AE050E0B80182
:102320008FE092E00E94F127FF24F394009709F4D4
:10233000F12C892B09F447C08AE0F801AFE0B2E044
:1023400001900D928A95E1F781E080930E020E9440
:102350007C0590930D0280930C0280910C02909169
:102360000D020E946D05059790F180910F029091EA
:10237000100290932B0280932A0280911102909177
:10238000120290932D0280932C028091130290915F
:10239000140290932F0280932E0280911502909147
:1023A000160290933102809330028091170290912F
:1023B0001802909333028093320210920E0207C0EB
:1023C00090E080E08FCF80910E028111C6CF8F2DDB
:1023D0002A960FB6F894DEBF0FBECDBFDF91CF9126
:1023E0001F910F91FF90EF90DF90CF90BF90AF9033
:1023F0009F908F907F906F905F904F900895809105
:10240000090290910802892B8093A00190910A0201
:10241000992391F0892B8093A00120E082EA91E03A
:10242000FC013191CF0131112F5FF1E0883A9F0714
:10243000B9F721110E94A50948E050E060E072E080
:1024400080EA91E00E94F127892BA9F088E0E0EA78
:10245000F1E0A0E0B2E001900D928A95E1F7E09101
:102460001303F0911403309731F00280F381E02DD3
:1024700080EA91E00994089590E080E00E94B80518
:1024800090E080E00E94A205109208020E94FF11D5
:1024900086E0EBE3F2E0DF011D928A95E9F7109206
:1024A000350210923402109236020C948506809305
:1024B00039030C943C1280913903982F9670963012
:1024C00019F488600C945712877FFCCF21E030E02C
:1024D00001C0220F8A95EAF7209580913903822363
:1024E0000C9457129091FF01809589238093FF01EE
:1024F000282F277091F4282F082E000C330B9217E9
:10250000130659F090911A0292FD07C085958595A2
:1025100085950E9466121092FF010895CF93C09195
:102520001A02C2FB992790F9981799F080FBC2F91B
:10253000C0931A026091190284E090E00E94122870
:102540006C2F82E290E00E94122882E0CF910C94DE
:102550007212CF91089521E030E001C0220F8A95D8
:10256000EAF780913903822B0C94571280930B0267
:102570000C943C1210920902E2EAF1E086E0DF01DD
:102580001D928A95E9F70C943C121F93CF93DF9329
:10259000CDB7DEB7AA970FB6F894DEBF0FBECDBF9A
:1025A0008EE293E02091F100DC012D93CD01B3E0A8
:1025B00086339B07B9F780912F03833009F472C0EB
:1025C000B8F4813009F449C0823009F4B3C0809175
:1025D000E80083FF8BC280912E0390912F039A30E5
:1025E00008F084C2E92FF0E0E555F74D0C946C2714
:1025F0008A3009F48EC08B3009F471C0893039F704
:1026000080912E03813219F7809132039091330328
:10261000009711F00297D9F68091E800877F8093A8
:10262000E8008091E80082FF38C09091F30080912B
:10263000F200029731F48091F100813011F0863080
:1026400021F48091F100809321038091E8008B7741
:102650008093E8000E945904BACF80912E03813AFA
:1026600009F0B5CF8091E800877F8093E8008091E2
:10267000320390913303892B61F468E082E293E0A6
:1026800070E00E940B058091E8008B778093E80052
:102690009ECF60E090E080E0F3CF80912C03811129
:1026A000C0CF95CF80912E03813A09F090CF8091D1
:1026B000320390913303892B09F089CF8091E80090
:1026C000877F8093E8008091E80080FFFCCF8091B5
:1026D0001E018093F1008091E8008E77B9CF809140
:1026E0002E03813209F073CF80913203909133032E
:1026F000892B09F06CCF8091E800877F8093E800F8
:102700000E9459048091300380931E010E94BA12E6
:102710005ECF80912E03813209F059CF8091E8007D
:10272000877F8093E8000E94590480913103809351
:1027300020034DCF80912E03813A09F048CF80913C
:10274000E800877F8093E8008091E80080FFFCCF5D
:1027500080912003BECF803899F0823809F0C6C13D
:10276000809132038F70873008F0C0C18093E900F8
:102770008091EB0085FB882780F91092E90006C064
:1027800080912A0390912B03911182609091E8002F
:10279000977F9093E8008093F1001092F100809170
:1027A000E8008E779FC1882309F48DC1823009F03B
:1027B0009DC180913003811190C1809132038F704F
:1027C0002FEF280F263008F091C18093E900209167
:1027D000EB0020FF82C1933031F48091EB008062E6
:1027E0008093EB007AC19091EB0090619093EB00A5
:1027F00021E030E001C0220F8A95EAF72093EA0039
:102800001092EA008091EB008860EACF81116EC1DE
:10281000109130031F778091E3008078812B8093A3
:10282000E3008091E800877F8093E8000E945904CC
:102830008091E80080FFFCCF8091E3008068809366
:10284000E30082E0111183E080932C034FC1805894
:10285000823008F04BC120913003309131032C3D80
:10286000E3E03E07A1F583E08A838AE289834FB7DC
:10287000F894DE01139620E03EE051E2E32FF0E011
:1028800050935700E49120FF03C0E295EF703F5F43
:10289000EF708E2F90E0EA30C0F0C7968D939D9335
:1028A0002F5F243159F74FBF8091E800877F8093D5
:1028B000E8006AE270E0CE0101960E940B0580916B
:1028C000E8008B778093E80011C1C096E7CF809134
:1028D000320390913303432F55274330510509F4B8
:1028E0004AC078F54130510509F47AC08BE590E093
:1028F000EBEAF6E04230510509F0F8C02091E8001B
:10290000277F2093E800209134033091350382170C
:10291000930708F49C0140E02115310509F065C0DA
:10292000411163C08091E80082FDC9CF80912C03E2
:10293000882329F2853019F28091E80083FFF2CFD5
:10294000BECF4132510509F43CC04232510509F075
:10295000CDC08330910508F0C9C0FC01EE0FFF1F08
:10296000EE56FE4F0190F081E02D81579E4FDC0125
:102970008C9190E01AC0332721303105D1F0211518
:10298000310561F02230310509F0B0C0E8E1F7E02F
:10299000E4918E2F90E0E8E1F7E007C0E6E4F7E08D
:1029A000E4918E2F90E0E6E4F7E0009709F49EC0F2
:1029B000A5CFE6E2F7E0E4918E2F90E0E6E2F7E0C3
:1029C000F4CF8330910508F091C0880F991FFC0166
:1029D000E856FE4F0190F081E02D89E090E08ECF27
:1029E00082E190E0E6E0F7E089CF80912C03882334
:1029F00009F465CF853009F462CF8091E80083FD4A
:102A00005ECF8091E80082FD8DCF8091E80080FF4D
:102A100083CF9091F3008091F2002115310519F0D8
:102A20008830910550F041E0089709F040E080912E
:102A3000E8008E778093E8006FCF44914093F100D7
:102A40003196215031090196E8CF803809F04EC007
:102A50008091E800877F8093E80080912D03809328
:102A6000F1009DCE811142C0109130031230F0F57B
:102A70008091E800877F8093E80010932D030E94E7
:102A80005904112311F084E005C08091E30087FD13
:102A9000FACF81E080932C0342E061EC81E00E9458
:102AA000780442E261EC84E00E94780442E261EC46
:102AB00082E00E94780442E260EC83E00E947804A5
:102AC00080912C0313C080913003813079F481E030
:102AD000933009F080E080932B031092E9008091FD
:102AE000E800877F8093E8000E9459048091E80005
:102AF00083FF0AC08091E800877F8093E80080917F
:102B0000EB0080628093EB00AA960FB6F894DEBFCC
:102B10000FBECDBFDF91CF911F910895882321F083
:102B20000E94AB090C94FF110895882339F090910D
:102B30000902982B909309020C94FF1108958823A1
:102B4000B1F19CEF980F913A70F4E2EAF1E09191C3
:102B5000891303C0DF0111971C9291E0E83AF9074D
:102B6000B1F70C94FF1190E2980F983050F48770F1
:102B700091E001C0990F8A95EAF7892F0E94AB096D
:102B8000F0CF9BE5980F933020F490E080E00C9418
:102B9000B80598E5980F973120F490E080E00C9408
:102BA000A205803F20F00E94AC060C948506089593
:102BB000CF93C82F882309F456C08CEF8C0F813A2D
:102BC000F8F4E2EAF1E088EA91E0DF012D91C21722
:102BD00059F08A179B07D1F76C2F80EA91E00E9489
:102BE0008805CF910C94FF112191C21303C0DF011E
:102BF00011971C928E179F07B9F70E94FF11ECCF17
:102C000080E28C0F883068F4C77021E030E001C0AA
:102C1000220FCA95EAF780910902822B809309025C
:102C2000E0CFEBE5EC0FE33040F4F0E0E15EFE4F87
:102C3000808190E0CF910C94B805E8E5EC0FE73186
:102C400050F4F0E0EE0FFF1FEE5DFE4F80819181AA
:102C5000CF910C94A205C03F30F08C2F0E946707E3
:102C6000CF910C948506CF9108951F93CF93DF9356
:102C7000182FD0E0C0E0893311F4C0E5D0E0812FF7
:102C80000E94D815209731F4812FDF91CF911F91A9
:102C90000C949F158FE99FE00197F1F700C00000A9
:102CA0002197F0CF0F931F93CF93DF93C62FD42F8D
:102CB000022FFC0182818823A1F0609338030E94D7
:102CC0007C059093370380933603C77081E001C081
:102CD000880FCA95EAF7DF91CF911F910F910C945D
:102CE000951580913803681335C080913603909113
:102CF00037030E946D05883C910560F510E21D0FB9
:102D0000CD17B9F080E28C0F883040F4C77081E0B5
:102D100001C0880FCA95EAF70E948E15183048F452
:102D200081E09D2F977001C0880F9A95EAF70E9465
:102D30009515802F0E943516183098F4D77081E0D1
:102D400001C0880FDA95EAF7DF91CF911F910F91BB
:102D50000C948E15C77081E001C0880FCA95EAF700
:102D6000F3CFDF91CF911F910F9108953F924F9232
:102D70005F926F927F928F929F92AF92BF92CF920B
:102D8000DF92EF92FF920F931F93CF93DF9300D0C8
:102D900000D00F92CDB7DEB78C01FC018381948106
:102DA000892B31F08081918189238F3F09F097C56C
:102DB0000F900F900F900F900F90DF91CF911F9178
:102DC0000F91FF90EF90DF90CF90BF90AF909F90CA
:102DD0008F907F906F905F904F903F9008950E94EA
:102DE000E40DF82E682F89819A810E94E409698197
:102DF0007A818F2D0E94D70D7C01F8018281882372
:102E000009F460C5970122513F452031310508F092
:102E100020C58FEF93E00E94FE27FEEEEF0E5FE7E6
:102E2000852E52E0952E8823A1F18091FF018770B5
:102E300009F4BECFF8018281882309F4B9CF8091CB
:102E40001A0282FDB5CF82E00F900F900F900F9085
:102E50000F90DF91CF911F910F91FF90EF90DF9036
:102E6000CF90BF90AF909F908F907F906F905F902A
:102E70004F903F900C947212811424E09206A9F2B4
:102E8000C4010E94FE27811101C0EA943FEF831A1A
:102E9000930AE110F1CF1C821B82442443944AE040
:102EA000342E74018FEFE81AF80AC4010E94FE273D
:102EB00089831A82882309F4B8CF9FEF980F933043
:102EC00000F58A83498292E0890E911CC7010E9415
:102ED000FE278B83882309F4A8CFFE0131967F015A
:102EE000F70120812223E9F2213009F049C09181C4
:102EF0008281913041F4F2E0EF0EF11C0E94351610
:102F000009C04701EACF923049F422E0E20EF11CF9
:102F10000E94D8153FEFE31AF30AE2CF933031F461
:102F200032E0E30EF11C0E949F15F4CF943021F0A3
:102F30008FEFE81AF80AEECF92E0E90EF11C30E0CC
:102F400020E0B7016F5F7F4FF70141818053990BFC
:102F50008A30910550F021503109E0F28FE99FE06D
:102F60000197F1F700C00000F6CF329EF001339ECA
:102F7000F00D11249C012E0F3F1F842F7B01E1CF08
:102F8000E22FF0E0E754FE4F5490822F869586950D
:102F9000869590E0FC01E755FE4F64902770712CF8
:102FA000022E02C0759467940A94E2F7E1E06E2263
:102FB0007724FC01E756FE4FA490B12C022E02C0EC
:102FC000B594A7940A94E2F7F1E0AF22BB24FC0188
:102FD000E757FE4FC490D12C02C0D594C7942A95D0
:102FE000E2F721E0C222DD246114710419F081EEC0
:102FF0000E94D815A114B10419F086EE0E94D815CC
:10300000852D0E943516AB2819F086EE0E949F157B
:10301000672819F081EE0E949F15CD2809F47ACF18
:103020008CE26CCF81E00E94AB120E945B12FDCE5D
:1030300081E00E946612F9CF82E0F5CF81115F9A9C
:10304000F8018281882309F45BC410923803F3E00D
:10305000EF16FDE5FF0608F072C02AEFE2162CE538
:10306000F20630F4C70182509C45449708F073C0C3
:103070000E94580E90931A028093190291E1E9166A
:103080009CE5F90609F454C108F0C6C0F9E0EF1652
:10309000FCE5FF0609F436C108F08BC035E0E31605
:1030A0003CE5F30609F426C108F06DC093E0E9168B
:1030B0009CE5F90609F414C108F018C180911902C1
:1030C0008160F2E0EF16FCE5FF0609F40CC16091A7
:1030D0001902F0901A0284E090E00E9412286F2DED
:1030E00082E290E00E9412280E94BA129ECE8823AB
:1030F00009F4A6CF5F98A4CFE5EFEE16ECE5FE0647
:10310000B9F090F026EFE2162CE5F20609F098CF20
:1031100027E245EE66EED2C327E245EE65EECEC36A
:1031200026E241EE60EECAC327E245EE64EEC6C376
:1031300026E241EE62EEC2C328E241E0EFCF31E683
:10314000E3163DE5F30609F493CF85EAE8168DE52D
:10315000F80609F48DCF26E1E2162CE5F20609F017
:10316000E8C3809109028A7A91E009F490E0909393
:10317000A80169E2811165E380EA91E00E94880577
:103180000E94FF1152CE80911902806227E0E21660
:103190002CE5F20609F4A7C080911902806138E09D
:1031A000E3163CE5F30608F49EC0809119028064A2
:1031B0009AC08DE0E8168CE5F80609F4ADC0B0F4CD
:1031C000809119028E7FEBE0EE16ECE5FE0609F425
:1031D0008AC0809119028C60FCE0EF16FCE5FF06C6
:1031E00008F481C0809119028D7F7DC08091190201
:1031F0008F7E2FE0E2162CE5F20609F474C0809170
:103200001902877F30E1E3163CE5F30608F46BC052
:10321000809119028F7D67C08DEFE8168CE5F80666
:1032200009F482C078F5E5E1EE16ECE5FE0609F456
:1032300089C0A0F480911902837F23E1E2162CE576
:10324000F20609F450C008F477C00E94BA129091B7
:103250001902892F97FB87F9805845C08BEFE81634
:103260008CE5F80609F44AC008F05AC080911A02A9
:103270008160EAEFEE16ECE5FE0609F028CF8093B8
:103280001A0225CFF1E0EF16FDE5FF0609F466C04E
:1032900098F480911A028C7F3FEFE3163CE5F30629
:1032A00071F3B0F180911A02982F909591708E7FF2
:1032B000892B90FB81F9E3CF91E6E9169DE5F906AC
:1032C00009F452C0E5EAEE16EDE5FE0609F453C036
:1032D000F2E0EF16FDE5FF0609F0F9CE60E03FC031
:1032E00080911902826080931902F1CE80911902B7
:1032F0008460F9CF809119028860F5CF80911A021D
:103300008260BDCF0E94BA12809119028068EBCF13
:1033100080911A028360B3CF809119028B7FE3CF33
:1033200080911A028E7FABCF80911A028D7FA7CF3A
:10333000809119028F7BD7CF0E94BA128091190217
:103340008F77D1CF8091190282FB992790F921E0E4
:10335000922790FB82F990FB83F9C5CF61E08EE064
:1033600090E00E941228B3CE90911902892F8F7E8F
:1033700094FF8061B8CF90911902892F8E7F90FFC2
:103380008160B1CF85E3C7C2816080930C0361E0A7
:1033900086950E94361049CD41E750E16AE770E119
:1033A0000E94DA0542CD4AE750E161E770E1F8CFCB
:1033B0004BE050E162E070E1F3CF4AEE5FE066EF90
:1033C0007FE0EECF42ED5FE06EED7FE0E9CF4EEDC6
:1033D0005FE062ED7FE0E4CF45E250E164E170E15F
:1033E000DFCF61E081E0D5CF65E082E00E9484100C
:1033F0001CCD68E086E0FACF64E18FE0F7CF67E1AB
:1034000085E1F4CF62E289E1F1CF61E083E2C1CFEF
:103410000E94BA12EFEFF4E32CE0E150F0402040BC
:10342000E1F700C000000E94960A81E0A8C280E097
:10343000A6C2C7010E94BC09D82EB2C22F2D2F7080
:10344000C22E8F2D807F19F0C29490EFC922DD200B
:10345000B9F0CC2069F080E28E0D883010F0811038
:1034600009C080910902C82AC09209020E94FF1176
:103470008E2D4DC080910802C82AC0920802F6CF56
:103480008E2D0E949F15CC2009F443C080E28E0D42
:10349000883010F0811004C08C2D0E94AB0906C04A
:1034A000C09480910802C822C09208020E94FF11B5
:1034B00030C03F2D3F70C32E8F2D807F803219F09A
:1034C000C29480EFC822882089F081E0881609F430
:1034D00081C0DD2009F48BC0BB2009F481C0F80154
:1034E000858180FFC5CF8F7085837AC020911A02B5
:1034F00022FF4DC0DD2009F444C0CC2039F080917A
:103500000902C82AC09209020E94FF1180E00E94AD
:10351000D815292D2850330B2430310520F40E9472
:10352000CE050E94100AAA2009F442CC8091FF0126
:1035300080FD3ECCF80112828595859585950E9487
:10354000AB12C8010E94B6168091FF018595859542
:1035500085950F900F900F900F900F90DF91CF9166
:103560001F910F91FF90EF90DF90CF90BF90AF90A1
:103570009F908F907F906F905F904F903F900C94B2
:10358000661280E00E949F15CC2019F285CFDD20C5
:10359000A1F090910A028C2D892BB11003C00E94DA
:1035A0009515B7CFE1E0BE12FACF22FDB2CF981742
:1035B00009F4AFCF80930A02ACCFB11006C00E94CD
:1035C000A5098C2D0E948E15A4CFF1E0BF1609F439
:1035D000A0CFF5CFDD2031F025E02B1508F499CFF1
:1035E0008C2DDDCF34E03B1508F493CFEACFBB2020
:1035F00041F3F9E38F1209C02FEF37EE83E021503A
:1036000030408040E1F700C000008E2D0E949F15E1
:1036100080CF8F2D86958695837061F0813009F07B
:1036200078CFC7019370D11002C090E080E00E9473
:10363000A2056FCFC7019370D11002C090E080E067
:103640000E94B80566CF8E2DDD2029F00E94670705
:103650000E9485065ECF0E94AC06FACF8F2D837044
:1036600091F5D11056CF4E2D429546954770440F97
:10367000440F8E2D8F70042E01C0880F0A94EAF734
:103680002E2D2071E4FE07C02FE030E001C0220F94
:103690004A95EAF720953F2D3695369533703230AE
:1036A00069F050F440910B02313029F0822B8423D1
:1036B0000E94B6122ECF842B822BFACF282B80911A
:1036C0000B028227F5CF8695DD2011F08F2D8170BA
:1036D000882309F41ECF4E2D429546954770440F1E
:1036E000440F8E2D8F70042E01C0880F0A94EAF7C4
:1036F0002E2D2071E4FE07C02FE030E001C0220F24
:103700004A95EAF720953F2D36953695337032303D
:1037100069F050F440913903313029F0822B842331
:103720000E945712F6CE842B822BFACF282B809141
:1037300039038227F5CF9F2D9F70F92EDD2029F0C8
:10374000892F0E94AB128E2D2ACF8E2D0E948E15AE
:103750008F2D0E946612DDCE8E2DE2EF8E16B1F116
:10376000E81570F0F0EF8F16D1F021EF821691F08E
:10377000DD2009F45EC0B1107BCE8F2D8F712AC081
:1037800033EF831651F194EF8912F2CF80911A0230
:1037900082FF2FC08F2D8F71DD20D9F21BC0DD205D
:1037A00081F0E4E0EB1508F4B4CE2F2D2F7181E009
:1037B00090E001C0880F2A95EAF790913903892794
:1037C000AFCFF5E0FB1508F4A4CEEFCF8F2D8F71AE
:1037D000D110BFCF0E94AB129CCE80E0DD2009F457
:1037E0009FCF9F2D9F7181E001C0880F9A95EAF7C6
:1037F00097CFDD2099F02F2D2F71F22E822F0E946E
:10380000AB1280911A0282FD07C038E0F39EC0011E
:10381000112483608093FF018F2DDCCF81E00E9413
:10382000721281E08B1508F074CE82E00E94721251
:1038300070CEBB2059F0893309F0E7CE9FEFE7EE59
:10384000F3E09150E040F040E1F7DDCE8F2D8F7135
:1038500080CFF0E1EF16FFE5FF0609F4E3CB21E1AD
:10386000E2162FE5F20609F4E7CB90E8E9169FE5AA
:10387000F90609F4E3CBE1E8EE16EFE5FE0609F4FC
:1038800036CCF3EFEF16FCE5FF0609F449CC08F05F
:1038900033CC38EDE3163CE5F30609F43DCC89ED75
:1038A000E8168CE5F80609F447CC97EDE9169CE597
:1038B000F90609F0C5CB26E241EE61EEC8010E948F
:1038C0005216B3CA30E1E3163FE5F30609F4B0CB74
:1038D00091E1E9169FE5F90641F682E0AACB85E081
:1038E000DE01119601900D928A95E1F7F80122818F
:1038F00089819A81211173CA0E94BC09F82E77CA66
:10390000F6E1EF16FCE5FF0609F083C08091A801FF
:10391000811138CD89E2E2EAF1E028EA31E09191C3
:10392000891303C0DF0111971C922E173F07B9F7C7
:1039300027CC2AE5E2162DE5F20609F476CD68F4E7
:10394000E1148CE5F80609F463CD9EEDE9169CE5DB
:10395000F906B9F40E94A11068CAEBE5EE16EDE590
:10396000FE0609F464CDFCE5EF16FDE5FF0649F41B
:1039700080911A0282FB882780F991E089270E94B2
:103980008E12F8018281E080F180882309F451CD04
:10399000C7010E94E40DD82E682FC7010E94E409D8
:1039A000B7018D2D0E94D70D0E941D087C01882E25
:1039B000F801D280B580B2943FE0B3228091FF013C
:1039C0008770C1F0AD2CDD20B1F08F2D807F803469
:1039D00021F080E28E0D883068F080911A0282FD1D
:1039E00009C082E00E9472128091FF018770AA24B0
:1039F000A3948111A12C9F2C92942FE09222FBE0A2
:103A0000F91508F486CDE92DF0E0EB54F74D0C9450
:103A10006C278091090282722CECE2162CE5F206EA
:103A200009F4DACC08F06DC096ECE9169CE5F906CD
:103A300009F4BECCE8F5F3ECEF16FCE5FF0609F45B
:103A4000ABCC28F532ECE3163CE5F30609F099CF50
:103A500080910C0380FF98CC8E7F80930C03609143
:103A60000C0370910D0380910E0390910F030E943F
:103A70002B0F109248023FEF80E792E031508040D8
:103A80009040E1F700C000000E94BA0ACEC994EC51
:103A9000E9169CE5F90609F486CC42E050E16BE0BA
:103AA00070E1E5ECEE16ECE5FE0609F479CC69CFA1
:103AB000F9ECEF16FCE5FF0609F484CC88F437EC4A
:103AC000E3163CE5F30609F478CC46EF5FE06AEED6
:103AD0007FE098ECE9169CE5F90609F461CC51CF3A
:103AE000EAECEE16ECE5FE0609F471CC44E150E197
:103AF00065E270E1FBECEF16FCE5FF0609F450CC43
:103B000040CF21EDE2162CE5F20609F475CCB8F4AD
:103B10008EECE8168CE5F80609F466CC08F461CC66
:103B2000EFECEE16ECE5FE0609F463CC6EE089E0FE
:103B3000F0EDEF16FCE5FF0609F458CC22CF24ED9A
:103B4000E2162CE5F20609F45DCC78F482EDE81675
:103B50008CE5F80609F453CC61E088E193EDE916B1
:103B60009CE5F90609F415CC0CCFE5EDEE16ECE575
:103B7000FE0609F44ACC6AE285E2FDE5EF16FF068F
:103B800009F434CCFECE1F93CF93DF938091CC0108
:103B9000807FA9F48091C901882389F08091FE017A
:103BA000D091CD016091C7017091C801A091CA0167
:103BB000B091CB01C62FC72316E0D81304C0DF9104
:103BC000CF911F91089590E0109711F0CF3F19F415
:103BD00001968770F2CF189F9001199F300D112424
:103BE000F901E253FE4F41814713F2CF4081461362
:103BF000EFCF42814111ECCF438154814A1B5B0BD3
:103C0000483C510528F78091CC018F7080618093EA
:103C1000CC01F901ED52FE4F80818F70806180836D
:103C200087EC91E00E94B616DF91CF911F910C9422
:103C3000B209AF92BF92CF92DF92EF92FF920F93B1
:103C40001F93CF93DF93CDB7DEB761970FB6F8948C
:103C5000DEBF0FBECDBF8C0185E0F801DE011D96F1
:103C600001900D928A95E1F7F801E28087ECA82E89
:103C700081E0B82E6091CA017091CB016115710588
:103C800009F432C19091C7014091C801892F842362
:103C90008F3F09F429C120813181C380D480F09005
:103CA000C901F601E61BF70BFF2009F4E8C080917B
:103CB000CC01582F507FE83CF10508F0ABC0511102
:103CC00077C0FE2C431321C092131FC0E1101DC00A
:103CD0008F7080618093CC01C5010E94B6168091DF
:103CE000CC01F80185838F2D61960FB6F894DEBF65
:103CF0000FBECDBFDF91CF911F910F91FF90EF903D
:103D0000DF90CF90BF90AF900895CD2829F0822FFB
:103D100083238F3F09F003C180E0F82FF170DF2E7D
:103D200080FF3CC08091FE014091CD0156E084139C
:103D300015C02D873E878D859E850E94130E292FE5
:103D400022952F702230F0F0243018F59F70F1F09A
:103D5000F8019581907FD1F4D12C1EC090E0589F3E
:103D6000F001599FF00D1124E253FE4F618136138B
:103D700006C06081261303C06281E6120FC001965F
:103D80008770D5CF9F7011F0882331F3805E883023
:103D900018F3C8010E94B616FD2CA5CFEE2009F439
:103DA000A2CF8091CC0181608093CC01F12C9BCF7C
:103DB000431306C0921304C0F801EE2009F479C041
:103DC000C8010E941F0E882309F1EE20F9F08091AE
:103DD000CC01803270F02091C7013091C801388742
:103DE0002F831986DB86CA868C87CE0107960E94B0
:103DF000B61686E0F801A7ECB1E001900D928A9525
:103E0000E1F70E94C31DFF24F3946DCFC8010E9407
:103E1000B616F9CF51110AC087EC91E00E94B61690
:103E200086E0F50111928A95E9F7C0CF43130FC0E0
:103E300092130DC0E1100BC0F8018583C8010E94E8
:103E4000B61686E0F50111928A95E9F74CCFC801C4
:103E50000E941F0E8823D1F2EE20C1F28091CC0186
:103E6000803238F22091C7013091C8013A8329830A
:103E70001B82DD82CC828E83CE010196B8CFE83CD6
:103E8000F105F8F6FE2CEE2009F243131FC0921341
:103E90001DC08091CC0180FD10C0982F907F69F0EB
:103EA000F8018583903F31F0982F907F905F8F705D
:103EB000892B8583C8010E94B61686E0F801A7EC1D
:103EC000B1E001900D928A95E1F70DCFC8010E94F3
:103ED0001F0E81118ECF8091CC0181608093CC0127
:103EE000C8010E94B616FFCEEE2009F48FCFC8019C
:103EF0000E941F0EF82E882309F488CF86E0F8016F
:103F0000A7ECB1E001900D928A95E1F78091C7018D
:103F10009091C8010E94130E0E94C31DE4CE81E05F
:103F20008E25FBCE1F93CF93DF93CDB7DEB7679778
:103F30000FB6F894DEBF0FBECDBF4B8B5C8B6D8B85
:103F40007E8B8F8B6111109208021A8A198A85E084
:103F5000FE017396DE011D9601900D928A95E1F7A0
:103F600086E0FE013D96DE01179601900D928A953E
:103F7000E1F7CE0107960E94191E882389F016E00A
:103F80008091FE019091CD01891349C067960FB6CB
:103F9000F894DEBF0FBECDBFDF91CF911F91089582
:103FA00086E0FE013796DE01119601900D928A950A
:103FB000E1F78A859B85892B11F38F819885892369
:103FC0008F3FE9F22091CD0130E0C9010196877061
:103FD00099274091FE014817190671F40E94BA1200
:103FE0001092CD011092FE0186E0E7ECF1E0DF01D6
:103FF0001D928A95E9F7C3CF96E0929FD001939FD7
:10400000B00D1124A253BE4FFE01319601900D92C6
:104010009A95E1F78093CD010E94B209B0CF819FBC
:10402000C001112482539E4F0E94191E882309F457
:10403000ADCF8091FE0190E0019687709927809323
:10404000FE019ECF90E080E00E940C28893E9E4FAA
:1040500011F40C943F0E80E008951F920F920FB65A
:104060000F9211242F933F934F935F936F937F93FE
:104070008F939F93AF93BF93CF93DF93EF93FF9370
:10408000D091E900DF708091EC00C82FC17080FDF5
:10409000C0E81092E9008091F000877F8093F000E3
:1040A00078940E94C5121092E9008091F000886017
:1040B0008093F000CD2BCF70C093E900FF91EF917A
:1040C000DF91CF91BF91AF919F918F917F916F9130
:1040D0005F914F913F912F910F900FBE0F901F90C6
:1040E00018951F920F920FB60F9211242F933F93A2
:1040F0004F935F936F937F938F939F93AF93BF93F0
:10410000EF93FF938091E10082FF09C08091E2006C
:1041100082FF05C08091E1008B7F8093E100809158
:10412000DA0080FF24C08091D80080FF20C08091F9
:10413000DA008E7F8093DA008091D90080FF9DC0E5
:1041400080E189BD82E189BD09B400FEFDCF81E037
:1041500080932C0380911F03811109C00E94DF030B
:104160000E94AA048091E20084608093E200809122
:10417000E10080FF17C08091E20080FF13C08091B2
:10418000E2008E7F8093E2008091E2008061809364
:10419000E2008091D80080628093D80019BC85E04D
:1041A00080932C038091E10084FF2BC08091E2007A
:1041B00084FF27C080E189BD82E189BD89B5982F40
:1041C000917080FFFBCF8091D8008F7D8093D800C5
:1041D0008091E1008F7E8093E1008091E2008F7EEC
:1041E0008093E2008091E20081608093E200809100
:1041F0002D03882309F447C084E080932C03809129
:104200002C038091E10083FF27C08091E20083FFAF
:1042100023C08091E100877F8093E10082E080935A
:104220002C0310922D038091E1008E7F8093E1009A
:104230008091E2008E7F8093E2008091E2008061B5
:104240008093E20042E060E080E00E947804809188
:10425000F00088608093F000FF91EF91BF91AF91E3
:104260009F918F917F916F915F914F913F912F918E
:104270000F900FBE0F901F90189519BC10922C0331
:1042800010921F0374CF8091E30087FD93E0909319
:104290002C03B5CF78941F921FB61F9211248F93D1
:1042A0009F93AF93BF938091180390911903A091AE
:1042B0001A03B0911B030196A11DB11D8093180331
:1042C00090931903A0931A03B0931B03BF91AF916E
:1042D0009F918F911F901FBE1F9018951F921FB620
:1042E0001F9211248F939F93AF93BF9380911703D5
:1042F000811113C08091180390911903A0911A03A2
:10430000B0911B034196A11DB11D8093180390939A
:104310001903A0931A03B0931B03BF91AF919F9110
:104320008F911F901FBE1F901895CDB7DEB7AA972B
:104330000FB6F894DEBF0FBECDBF84B7877F84BFB2
:104340000FB6F894A8958091600088618093600012
:10435000109260000FBE80E890E00FB6F894809352
:104360006100909361000FBE85B7806885BF85B7F7
:10437000806885BF81EC97E090939F0180939E01B8
:10438000579A0E94DF030E94AA048091E200846091
:104390008093E200789480912C038823A1F01091FF
:1043A000E9001F709091EC00892F817090FD80E8EA
:1043B000182B1092E9008091E80083FD0E94C5123D
:1043C0001F701093E90082E084BD93E095BD9AEFE1
:1043D00097BD80936E000E943F0E811102C00E9423
:1043E000A20D00E511E0D8018D918D018F3F11F0F4
:1043F0000E94C307B1E005351B07A9F705E511E0E9
:10440000E4E6EE2EE1E0FE2EF80181918F018F3F70
:1044100011F00E94C307E016F106B1F78AE0EAE264
:10442000F2E0DF01282F1D922A95E9F7EFE0F2E094
:10443000DF011D928A95E9F70E942220811102C0B6
:104440000E94A11082E090E00E94FE2780931E024D
:104450000E94580E90931A02809319020E940B1129
:10446000BFEFE6E7F1E0B150E040F040E1F700C017
:1044700000000E940B1180912A0280FF08C06FEF9C
:104480007FEF90E080E00E9430280E94960A83E04F
:1044900090E00E94FE270E94B612569A5E98809184
:1044A0001B02811133C00E942220811104C00E948E
:1044B000A1100E94921088E090E00E94062860936C
:1044C0000C0370930D0380930E0390930F036E7F84
:1044D00071F40E94921088E090E00E940628609398
:1044E0000C0370930D0380930E0390930F030E94AF
:1044F000E0051092480280910C0380FF04C060E048
:1045000086950E94361081E080931B0284E091E042
:10451000909314038093130358E1E52EF12C60E48B
:10452000B62E74E3C72E72E0D72E80912C03992407
:10453000939400E112E1853009F4D9C10E940B1176
:10454000882359F08FB7F8944091180350911903BC
:1045500060911A0370911B038FBFAAE2B2E0EFE1F2
:10456000F2E010E000E0702F8D919D91219131914A
:104570002817390709F4DEC12827392760E0882485
:104580008394912CA90148215921452B09F4CCC1D0
:1045900069A37AA39C012821392191E0232B09F4F6
:1045A00090E09BA30E947C058160782F9DA38CA343
:1045B00049A15AA16BA18DA10E94921F000F111F4A
:1045C000F801E15EFD4F80819181882699269182D4
:1045D0008082809148028823D1F180914702E09146
:1045E0000C03E695E81BE0934302823009F0B9C161
:1045F000F0E0E65BFD4FE4910E2F10E081E1882EA4
:104600008DE0982E80914402882361F0109244023C
:104610000E947C05909342028093410210924602D0
:10462000109245020E947C05E0914102F091420205
:104630008E1B9F0B8F3F9F4750F4E00FF11FF093AD
:104640004202E093410281E492E0F401099586E0A0
:10465000EBE3F2E0DE01119601900D928A95E1F70D
:1046600090903D0280903E0210913F0200914002E6
:1046700010923D0210923E0210923F0210924002B0
:10468000892D882909F448C08091390290913A0215
:104690000E946D059C0190913502992309F4D5C3C0
:1046A00025313105C8F19F3F19F09F5F9093350286
:1046B000992059F00E9447079FEF19140CF491E0DC
:1046C000899F802D112480933D02882059F00E94FB
:1046D00047079FEF18140CF491E0899F802D112457
:1046E00080933E0230913D023323B1F020913E028F
:1046F000222391F045EB3403C0011124992309F4DE
:104700009CC190933D0245EB240390011124332377
:1047100009F497C130933E02812F802B09F448C0E1
:1047200080913702909138020E946D059C01909112
:104730003402992309F484C321353105C8F19F3F20
:1047400019F09F5F90933402112359F00E942507BE
:104750009FEF11160CF491E0899F802D1124809316
:104760003F02002359F00E9425079FEF10160CF41A
:1047700091E0899F802D11248093400230913F0267
:104780003323B1F020914002222391F045EB340312
:10479000C0011124992309F458C190933F0245EBBD
:1047A000240390011124332309F453C130934002B0
:1047B00080913D0290913E02892B90913F02892B7E
:1047C00090914002892B11F00E94850686E0FE013F
:1047D0003196ABE3B2E001900D928A95E1F70E9429
:1047E000CE0590912902891721F0809329020E9419
:1047F000100A80912C03843009F097CE83E08093D7
:10480000E9008091E80082FF90CE8091E80090E07E
:1048100085FF06C00E94FE03882309F41EC191E0B3
:104820008091E8008B778093E800992309F47DCE8E
:10483000E981E150E33108F0ADC1F0E0EF53F74D0D
:104840000C946C2780912C03843009F440C080E0E4
:104850000E94100A1092480280911D02811116C018
:1048600090921D0280910C03982F917090931C02DE
:104870008E7F80930C032FEF40E782E02150404071
:104880008040E1F700C000000E94BA0A10921703AE
:104890000FB6F894A895E09260000FBEB092600049
:1048A00083B7817F846083BF83B7816083BF78943F
:1048B000889583B78E7F83BF0FB6F894A8958091B3
:1048C0006000886180936000109260000FBE80914C
:1048D0002B03882361F00E940B11EAE2F2E0819140
:1048E0009191892B09F08DC2CE16DF06C1F7809118
:1048F0002C03853009F4A6CF0E94BA120E94CE057F
:104900000E94100A10921D0280911C02882349F017
:1049100080910C03816080930C0360E086950E9477
:1049200036100E94150F0ACE6F5F880C991C6F30ED
:1049300009F028CE0F5F1F4F0530110509F013CE87
:104940008FEF8EA38FA318A60E947C058160782F1D
:104950009AA789A74EA15FA168A58AA50E94921F68
:1049600038CE863059F4F0E0E95BFD4FE4910E2F2C
:1049700010E0B1E08B2EBDE09B2E44CE893061F477
:10498000E695F0E0EC5BFD4FE4910E2F10E0ADE614
:104990008A2EACE09A2E36CE8F3061F4E695F0E0A8
:1049A000EF5BFD4FE4910E2F10E0FFEF8F2EFBE049
:1049B0009F2E28CE853159F4F0E0E25CFD4FE49162
:1049C0000E2F10E0E1EB8E2EEBE09E2E1BCE08E2C8
:1049D00010E058E2852E5BE0952E883109F412CE66
:1049E000833249F4ECE3F2E00591149178EA872EE2
:1049F0007CE0972E07CE04EF11E04FEE842E4AE0C4
:104A0000942E843209F4FECD00ED17E03FED832EA5
:104A100035E0932E853209F0F5CD8E2F63E00E94AC
:104A20002A27E92FF0E0E75CFD4FE4910E2F10E01C
:104A300066E6862E6EE0962EE5CD81E080933D02FF
:104A400062CE81E080933E0267CE81E080933F0298
:104A5000A6CE81E080934002ABCE00E210E0CE0112
:104A600001964C018091E80085FD0AC08091E80024
:104A70008B778093E8000E94FE03882399F3CFCEC2
:104A80008091F100D4018D934D010150110951F72E
:104A9000C6CE1A8289E08B831AC08A81823009F4DB
:104AA000C6C18330D9F1813009F074C02FB7F894B2
:104AB000609118037091190380911A0390911B0360
:104AC0002FBF0E9472276B837C838D839E8380918E
:104AD0002C03843009F029CD1091E9001F709091CA
:104AE000EC00892F817090FD80E8182B82E0809384
:104AF000E9008091E80080FF0DC050E040E060E2F6
:104B000070E0CE0101960E942F048091E8008E771C
:104B10008093E8001F701093E90007CD80912A026E
:104B200090912B029827892798279C838B838091CB
:104B30002C0290912D029827892798279E838D8398
:104B400080912E0290912F02982789279827988785
:104B50008F8380913002909131029827892798277E
:104B60009A8789878091320290913302982789270A
:104B700098279C878B87ABCF8A81823059F46B81D1
:104B80007C818D819E810E94722786E290E00E9446
:104B900012289DCF8FEF89839ACF4C816B818A81B8
:104BA0000E94B10D9827892798279E838D838FCFE8
:104BB0008D809E809824892498248A810B81BEE16F
:104BC0000B9F80011124E6E98E9F000D111D112419
:104BD0008C8190E0880F991F080F191F692DC8015B
:104BE00087960E941228682DC8018896D0CF0E940F
:104BF000350D6DCF8A818138C1F060F4803809F0BD
:104C000066CF20E04B8160910E0380910D030E94DE
:104C10003D0F5DCF823859F1833809F058CF20E03D
:104C200040910F036C818B81F2CF60E08B810E94F9
:104C300036109B8180910C03911111C08E7F80935F
:104C40000C0310924802FFEF20E742E0F1502040B1
:104C50004040E1F700C000000E94BA0A38CF8160EE
:104C600080930C0360E086950E94361030CF8B81D4
:104C7000809310032CCF8A81813899F030F48038EA
:104C800009F025CF80910F0306CF823891F0833849
:104C900009F01DCF80910D038B8380910E038C83CF
:104CA00016CF80910C0380FF02C08695F4CE80E081
:104CB000F2CE80911003EFCE60910C0370910D0342
:104CC00080910E0390910F030E942B0F00CF80E183
:104CD0008A83FDCE81E08A8381E8DDCE0A811B8153
:104CE000102701271027CE0101963C018C80DC01A2
:104CF000A80DB11D4D01C80181589D4F8614970420
:104D000009F4E5CE0138B1E01B0750F40E94FE27FC
:104D1000F30184830F5F1F4FBFEF6B1A7B0AEBCF4A
:104D2000D30114961C92F6CF0A811B81102701270C
:104D30001027FE0131963F018C80800E912E911C30
:104D4000C80181589D4F0815190509F4C0CE0138D6
:104D5000F1E01F0728F4D30114966C910E941228E9
:104D6000BFEF6B1A7B0A0F5F1F4FEACF0E94250D22
:104D7000AECE84E0ADCF0A811B811027012710271A
:104D8000FE0131963F018C80CF01880D911D4C01B1
:104D9000C80187966814790409F499CE0835A2E011
:104DA0001A0750F40E94FE27F30184830F5F1F4F00
:104DB000BFEF6B1A7B0AECCFD30114961C92F6CF8F
:104DC0000A811B81102701271027FE0131963F0120
:104DD0008C80800E912E911CC801879680169106BA
:104DE00009F475CE0835F2E01F0728F4D3011496B4
:104DF0006C910E941228BFEF6B1A7B0A0F5F1F4F46
:104E0000EBCF09BD19BD09B400FEFDCF8091D800DC
:104E10008F7D8093D8008091E00082608093E000D5
:104E20008091E00081FDFCCF0E94BA1260CD86E245
:104E300090E00E94FE271B821C821D828E8347CE3B
:104E40002B30310508F07DCCB3CC2B30310508F088
:104E50002CCC62CC991B79E004C0991F961708F0FE
:104E6000961B881F7A95C9F78095089587FB082EB1
:104E7000062687FD819567FD61950E942A270EF41D
:104E8000919507FC81950895AA1BBB1B51E107C0B2
:104E9000AA1FBB1FA617B70710F0A61BB70B881FCA
:104EA000991F5A95A9F780959095BC01CD01089559
:104EB00097FB072E16F4009407D077FD09D00E94C7
:104EC000442707FC05D03EF4909581959F4F0895A7
:104ED000709561957F4F0895EE0FFF1F0590F49137
:104EE000E02D09946927962769277827872778274F
:104EF00008950E949A28332312F48A1B9B0B0C946A
:104F000083270E949A28B7FF0895821B930B089568
:104F10008F929F92AF92BF92CF92DF92EF92FF92C9
:104F2000CF93DF93EC01688179818A819B81611540
:104F300071058105910521F464E279ED8BE597E037
:104F40002DE133EF41E050E00E94462849015A012B
:104F50009B01AC01A7EAB1E40E9465286B017C01CA
:104F6000ACEEB4EFA50194010E947328DC01CB01E3
:104F70008C0D9D1DAE1DBF1DB7FF03C00197A1097C
:104F8000B04888839983AA83BB839F77DF91CF91B1
:104F9000FF90EF90DF90CF90BF90AF909F908F9059
:104FA00008950E948827089580E091E00E94882754
:104FB0000895B0E0A0E08093000190930101A093D8
:104FC0000201B09303010895FC014150504030F0BC
:104FD00001900616D1F73197CF01089588279927B8
:104FE0000895FB01DC0104C08D910190801921F42A
:104FF00041505040C8F7881B990B0895F999FECF8E
:1050000092BD81BDF89A992780B50895A6E1B0E0D8
:1050100044E050E00C943828A8E1B0E042E050E0D1
:105020000C943828262FF999FECF92BD81BDF89AAD
:10503000019700B4021639F01FBA20BD0FB6F894DC
:10504000FA9AF99A0FBE08950396272F0E94132803
:105050000E941228252F0E941328242F0C94132815
:105060000196272F0E9413280C941228DC01CB01F3
:10507000FC01F999FECF06C0F2BDE1BDF89A319668
:1050800000B40D9241505040B8F70895052E97FB9B
:105090001EF400940E945D2857FD07D00E947828D6
:1050A00007FC03D04EF40C945D2850954095309544
:1050B00021953F4F4F4F5F4F089590958095709584
:1050C00061957F4F8F4F9F4F08950E949A28A59F0B
:1050D000900DB49F900DA49F800D911D11240895F3
:1050E000B7FF0C9465280E946528821B930B0895D6
:1050F000A1E21A2EAA1BBB1BFD010DC0AA1FBB1FDC
:10510000EE1FFF1FA217B307E407F50720F0A21B4D
:10511000B30BE40BF50B661F771F881F991F1A94BA
:1051200069F760957095809590959B01AC01BD01E4
:10513000CF010895A29FB001B39FC001A39F700D3E
:10514000811D1124911DB29F700D811D1124911D8F
:105150000895F894FFCFAB13D3137615D3137615B8
:10516000061427147615251532151E1A1E1A591AFB
:10517000591A091B231B891A891A2E1B9B1BAC1B4E
:10518000AC1B49254D25BC25CD25D825F725FA256D
:105190003B265C26CA25CA2567266A266E269426E3
:0851A000B626B926BB26E02665
:1051A800010000006A05690A480A440A400A6905BC
:1051B80001191A1B1C1D1E1F202122010201018139
:1051C8008283E200E900EA00B500B600B700CD002E
:1051D8008301CC008A019201940121022302240256
:1051E8002502260227022A02B300B4006F007000CD
:1051F8003793959466F7F6F5F4F1F067C630929117
:10520800903332310001020202020606060909093A
:105218000909090F0F0F0F0F0F151515181919196F
:105228001919191919191923242525252525254062
:0E523800227B49012701AC00BD06D606F60612
:00000001FF
