:020000040800F2
:102000000004002041220008432200084322000867
:10201000432200084322000843220008432200080C
:10202000432200084322000843220008898D00084B
:102030004322000843220008432200082B9F000887
:1020400043220008432200084322000843220008DC
:1020500043220008432200084322000843220008CC
:10206000432200084322000843220008819B000805
:10207000959B0008A99B0008BD9B0008D19B000808
:10208000E59B0008F99B0008432200084322000852
:102090003DA1000843220008432200084322000813
:1020A000432200084322000843220008432200087C
:1020B00043220008EDA00008432200084322000844
:1020C000432200084322000843220008432200085C
:1020D000432200084322000843220008432200084C
:1020E000432200084322000843220008432200083C
:1020F000432200084322000843220008432200082C
:10210000432200084322000843220008432200081B
:10211000432200084322000843220008432200080B
:1021200043220008432200084322000843220008FB
:1021300043220008432200084322000843220008EB
:1021400043220008432200084322000843220008DB
:1021500043220008432200084322000843220008CB
:082160004525000821250008B7
:1021680072B6274880F30888264880F309882648ED
:102178004EF60851CEF200010860022080F3148860
:10218800BFF36F8F06F07EFB06F04FF94FF0553026
:102198001E491B4A91423CBF41F8040BFAE71C490F
:1021A800184A91423CBF41F8040BFAE719491A4A08
:1021B8001A4B9A423EBF51F8040B42F8040BF8E759
:1021C80000201749174A91423CBF41F8040BFAE72F
:1021D80006F05CFB06F057FB134C144DAC4203DAD7
:1021E80054F8041B8847F9E702F0B2F8104C114D77
:1021F800AC4203DA54F8041B8847F9E706F044BBFD
:1022080000040020000C002000200008000000202E
:1022180000040020D4C20008000C0020200F002079
:10222800200F0020681B002060210008642100089E
:10223800642100086821000892E700F000F8FEE732
:102248002DE9F04FC1F80CD0C3689D46BDE8F08F6A
:10225800002383F311882846A047002006F0C6FC17
:10226800FEE706F080FC00DFFEE7000053B94AB93C
:10227800002908BF00281CBF4FF0FF314FF0FF3086
:1022880000F00CB8ADF1080C6DE904CE08F048FA7E
:10229800DDF804E0DDE9022304B07047704700BFB1
:1022A800830770B4CDB23DD0541E0AB30378AB4255
:1022B8001FD0431C05E014F1FF3419D30278AA4259
:1022C80017D013F0030F184603F10103F3D1032CC1
:1022D80011D84CB30378AB420BD00444431C02E042
:1022E8000278AA4205D09C42184603F10103F7D1AF
:1022F800002070BC704702460E02B6B22E4346EA72
:102308000646136810467340A3F1013121EA03031E
:1023180013F0803F02F10402DCD1043C032C104688
:10232800EFD8D6E71446D2E72046E2E7032A70B48E
:1023380012D940EA0105AD0704460B4620D11946DB
:10234800204653F8045B54F8046BAE4218D1043AA3
:10235800032A20461946F2D8541E72B103780A7827
:102368009A4208BF241806D00CE010F8013F11F873
:10237800012F934206D1A042F7D1002070BC7047CC
:10238800541EEBE7981A70BC704700BF844641EAB8
:10239800000313F0030349D1403A23D30B680360C9
:1023A8004B6843608B688360CB68C3600B690361CB
:1023B8004B6943618B698361CB69C3610B6A0362B3
:1023C8004B6A43628B6A8362CB6AC3620B6B03639B
:1023D8004B6B43638B6B8363CB6BC3634030403180
:1023E800403ADBD230320BD30B6803604B68436052
:1023F8008B688360CB68C36010301031103AF3D219
:102408000C3205D351F8043B40F8043B043AF9D2A6
:10241800043208D0D2071CBF11F8013B00F8013B79
:1024280001D30B8803806046704700BF082A13D386
:102438008B07B1D010F00303AED0C3F10403D21A56
:10244800DB071CBF11F8013B00F8013BA4D331F8AE
:10245800023B20F8023B9FE7043AD9D3013A11F82E
:10246800013B00F8013BF9D20B7803704B784370BD
:102478008B78837060467047F0B4860746D0541E48
:10248800002A3CD0CAB2034602E014F1FF3436D326
:1024980003F8012B9D07F8D1032C29D9CDB245EAC1
:1024A80005250F2C45EA054533D9A4F11006360950
:1024B80003F1200707EB061703F1100242E9045560
:1024C80042E902551032BA42F8D1721C14F00C0FCE
:1024D80003EB021204F00F0613D0331F23F003039B
:1024E8000433134442F8045B9342FBD106F003041F
:1024F8002CB1C9B21C4403F8011B9C42FBD1F0BCAF
:10250800704734461346002CF3D1F8E714460346C7
:10251800C2E71A462646E0E710B5054C237833B9DA
:10252800044B13B10448AFF300800123237010BD9E
:10253800200F002000000000D4C2000808B5034B9B
:102548001BB103490348AFF3008008BD0000000039
:10255800240F0020D4C2000808B538B921B1AA2038
:1025680000F0C5FA012008BDA920F9E7012804D127
:1025780009B15020F4E74F20F2E70228F2D109B15F
:102588005220EDE75120EBE701207047012070470A
:1025980008B5FFF7FBFF08BD704708B5FFF7FCFF5C
:1025A80008BD000013B502AB03E903000F4B1B780D
:1025B800B3B99DF8023073B16AB100F0D7FD044693
:1025C8000146009800F08EFD2046009902B0BDE853
:1025D800104004F04CBF009800F0A8FD0446F3E753
:1025E800009800F0C3FD0099F0E700BF3C0F002001
:1025F80003460A4600689988FFF7D4BF0120704750
:1026080010B504460021FFF7F3FF2146FFF7C5FF89
:1026180010BD10B5012404FA01F104FA02F20A43CC
:10262800D1B202408A4204FA03F406BF2043C0B282
:10263800A04310BD08B513460A4601460348007872
:10264800FFF7E7FFBDE8084000F0FABC3E0F0020A6
:1026580008B501F019FD00F05DF904F06FFBBDE865
:10266800084001F032BD01F035BD704708B500F0F3
:1026780070FCFFF7FAFF46F2A81006F0BCFABDE8B6
:10268800084005F023BB000038B501210546FFF7D7
:10269800AFFF2946044604F018FD08B9002038BDEC
:1026A80029462046FFF774FF0028F7D02946204620
:1026B80004F08EFA0028F1D02946204604F0BAFF2B
:1026C8000028EBD02946204605F00EF80028E5D072
:1026D8002946204605F0E2F80028DFD029462046A2
:1026E80004F05AF80028D9D0AB787BB145F65A5394
:1026F8009C4232D00ED845F601439C4218D045F68C
:10270800DE439C4226D0B4F5B84F0ED02846FFF7DA
:102718003BFFC4E745F65B539C4221D045F65C532A
:102728009C42F3D101F04AF8F0E7FFF79FFFB5E7C5
:102738000D4A1078C0F3000383F0010363F300002F
:1027480010F00104107003D0084802F029F9A5E739
:102758000748FAE701F0BAF9A0E701F03BF8D5E736
:1027680001F03BF8D2E700BFE80F002032AD0008C7
:1027780043AD0008F8B5174B1749C2081F5C174B43
:102788008D5C17499B5C00F007008E5C0341054196
:1027980013F0010446FA00F005F0010500F0010607
:1027A80002D0E12000F00CF915B1E62000F008F99C
:1027B800384600F09CF915B1E62000F051F914B143
:1027C800E12000F04DF926B1BDE8F8402C2000F0DA
:1027D8008EB9F8BD75AD000855AD0008F5AD000817
:1027E80065AD00082DE9F04104460E464FF00A0891
:1027F800214F207800283DD0012838D16378012B5B
:102808000ED1A078A51C00F072F92C46354601348B
:10281800002DEED06420013D06F0EDF9EDB2F7E7AA
:10282800022B04D1A078A51C00F0CAF8EDE7032B11
:1028380004D1A078A51C00F013F9E6E7042B01D019
:102848000134E3E72246002512F8023FD95D144619
:10285800490706D4002DD9D0642006F0CCF9013DF3
:10286800F8E7303B08FB053512F8013FEEE7FFF7C4
:1028780081FFCBE7BDE8F081D9A900080021FFF767
:10288800B1BF030943EA0013DBB298009B1003F0C1
:10289800330300F0CC0018434300401003F0AA03B0
:1028A80000F0550018437047024608B5C0B2FFF75C
:1028B800E8FF0146100AFFF7E4FF40EA012080B272
:1028C80008BD704708B5FFF7FCFF08BD0120704739
:1028D80010B50446FFF7FAFFB0B14FF400410B4BB7
:1028E80014F0010F14BF196159610421084BE2B2B9
:1028F80012F0020F14BF1961596112F0040F4FF45E
:10290800007214BF1A615A6110BD00BF0010014067
:10291800000C014010B50F4C062220464FF4004130
:1029280007F0A6F94FF40043A4F58064C4F8143402
:1029380006220421204607F09BF90423062263613E
:102948004FF40071204607F093F94FF40073636168
:1029580010BD00BF0010014010B50446FFF7B2FFDC
:102968002046FFF7B5FF10BD30B587B06C4684E848
:1029780003009DF80230BDF804500BB100F05CFF75
:102988000023ADF8163094E8030004AC0490ADF8C9
:10299800141094E8030002904DB14FF6FF73BDF890
:1029A80008209A4203D02046FFF728FE18B194E881
:1029B800030000F04BFE07B030BD008800F0F6BB06
:1029C80010B50446002845D0031FDBB2A02B15D84C
:1029D80002F08CFA00283DD11F4B2146186805F0FB
:1029E8001BF820B1204600F0A1FE00F06BFF204646
:1029F80000F094FEBDE8104000F064BF00F1200331
:102A0800DBB2072B07D800F007040120A040C0B2B2
:102A180000F0ECFEEEE700F15B03DBB2022B05D819
:102A2800BDE81040243880B204F0B8BF00F1580364
:102A3800DBB2162B06D8BDE81040084A32F813005E
:102A480004F0BCBFEF2805D902F014FBBDE8104024
:102A580002F0E4BB10BD00BF000C002006AE000869
:102A680008B590B3021FD2B2A02A05D800F05EFEC6
:102A7800BDE8084000F026BF00F12002D2B2072AC4
:102A880007D800F0070301209840C0B200F0B6FE56
:102A9800EEE700F15B02D2B2022A04D8BDE8084092
:102AA800002004F07BBF00F15802D2B2162A04D8E5
:102AB800BDE80840002004F081BFEF2805D902F0E6
:102AC80037FBBDE8084002F0A9BB08BD38B505468C
:102AD8000C46FFF775FF24B92846BDE83840FFF7D4
:102AE800BFBF6420013C06F086F8A4B2F3E739289A
:102AF8000CBF50210A21FFF7E9BF08B528B100F043
:102B080075FEBDE8084000F0DDBE08BD08B528B177
:102B180000F074FEBDE8084000F0D4BE08BD2DE901
:102B2800F047867980460C46857800F01DFE360908
:102B38000746A0B12F4695B1C4F3072303F0F0036D
:102B4800402B04D004F12003DBB2072B1ED902204E
:102B580000F008FF00F008FE80F00107FFB2C4F3A0
:102B68000339B9F10F0F3FD8DFE819F0120012004E
:102B780062006200AF00C6003E003E00D0002D019A
:102B88003D013D0193013E003E009C010027E6E720
:102B9800C4F30723C4F3032613F0F00F18BF36015C
:102BA800E4B295B156B104F12003DBB2072B3046ED
:102BB80000D93CB900F01AFE00F084FE2046FFF769
:102BC800FFFE11E000F028FEF6E72046FFF748FF79
:102BD80056B104F12003DBB2072B304600D924BBE1
:102BE80000F00CFE00F06EFEA9F10809B9F1030F20
:102BF80003D804F07FFEFFF7AFFE002F00F05981E5
:102C080000F0AAFD10F0010040F0538188F802009E
:102C180000F09AFD00F02AFA404600F05DF900F055
:102C280093FDBDE8F04700F02DBA00F0FDFDD9E7AF
:102C3800C4F3072303F0F003C4F3032A202BE4B200
:102C480018BF4FEA0A1A64B1012C28D07DB34EB3DD
:102C580098F80630DA07B1D56FF3071388F806300D
:102C680020E095B13EB900F003FE40EA0A00C0B288
:102C7800FFF743FFB8E7012EF5D100F0F9FD40EA70
:102C88000A00C0B200F000FEAEE72EB900F00EFE5A
:102C98005046FFF73BFFA7E7012EA5D0F6E71DB189
:102CA800052EA1D85046E3E7042E9DD8F0E7002E64
:102CB800EED0392C0CBF4FF4FA504FF47A7005F06F
:102CC8009AFF2046FFF7CCFE8EE714F4406FC4F35A
:102CD800812307D0012B87D165B1C4F3090004F023
:102CE8006DFE81E725B1C4F3090004F057FE7BE7C8
:102CF8002846FAE72846F2E7E0B225B102F0BAF929
:102D080002F08CFA70E702F013FAF9E714F4407F46
:102D180028D1002D7FF468AFC4F342108000C3B2FD
:102D280004F00F009840C2B214F010001EBF0F202C
:102D38009840C043C4F3812418BFC0B2022C40EAB3
:102D4800020009D0032C0AD0012C02D000F062F94D
:102D58004AE700F057F947E700F064F944E700F064
:102D68004EF941E7C4F301220DB312F0010F3FF40D
:102D78003BAFC4F342108000C2B204F00F0014F05D
:102D8800100300FA02F0C5B21EBF0F209040C043E6
:102D9800C4F3812418BFC3B2022C43EA05000CD047
:102DA800032C0DD0012C05D000F08AF91CE712F095
:102DB800020FDCE700F07CF916E700F089F913E769
:102DC80000F03EF910E7E6B2C4F3032425B120462B
:102DD80000F04CF930464BE73046FFF797FE2046A7
:102DE80000F050F900E75FFA84FAAAF1F003042B27
:102DF80039D8DFE803F0030E151A23003DB1042E7D
:102E08003FF6F2AEC4F3042000F046F9ECE6052ED6
:102E1800F6E7C4F30420002DE2D000F027F9E3E63A
:102E2800C4F30420002DF8D0DAE725B1C4F3042058
:102E380000F015F9D8E600F00FF9D5E64DB1C4F366
:102E48000424204600F012F90321204600F066FD14
:102E5800CAE6012000F086FD012E7FF6C5AE0220ED
:102E680000F080FDC0E62DB10EB15046A7E6C4F3D0
:102E78000420D2E756B1BAF1390F0CBF4FF4FA501B
:102E88004FF47A7005F0B7FE50461BE7C4F30420F0
:102E9800A6E7C4F30322E1B2404600F013FF00F0B6
:102EA800B5F9A1E64046C4F30322E1B200F00CFFF5
:102EB8009AE6BDE8F08738B501880446807800F0C6
:102EC80081F9054600F00CF900F098F829462046EB
:102ED800BDE83840FFF723BE13B504460068A38851
:102EE8000090D3B14FF6FF73BDF800209A4214D07A
:102EF8002046FFF7C9FB50B900F036FC68B1A3784B
:102F08005BB1022002B0BDE8104000F02BBD2046A6
:102F1800FFF7D1FF2046FFF773FB02B010BD08B5DD
:102F2800002004F03BFD002004F048FD00F084FC84
:102F380000F098FC00F0C6FC02F0A6FABDE80840D4
:102F480002F06CB908B500F0F9FBBDE80840FFF7DE
:102F5800E6BF08B500F05AFCBDE80840FFF7F2BF2D
:102F68000346C3F30332023AC0B20D2A1CD8DFE885
:102F780002F007071B1B141B1B1B0707181B1B183A
:102F8800F02813D004D8E7288CBF00200120704710
:102F9800F42814BF002001207047E72806D9F1283B
:102FA800F7E7C3F3C020704700207047012070473F
:102FB80008B5008800F0FAF8BDE80840FFF7D0BF70
:102FC80082B002AB03E9030002B0704782B002ABE3
:102FD80003E9030002B07047704708B5FFF7FCFF2C
:102FE80008BD000008B5FFF7F8FF034B1870BDE8EF
:102FF8000840FFF794BF00BF3D0F00207047FFF760
:10300800F1BF0000024B1B781843FFF7EBBF00BF6E
:103018003D0F0020024B1B781840FFF7E3BF00BFAD
:103028003D0F0020024B1B785840FFF7DBBF00BF65
:103038003D0F0020704708B5FFF7FCFF08BD0000F2
:1030480008B5FFF7F8FF034B1870BDE80840FFF715
:1030580066BF00BF3E0F00200020FFF7F1BF01232D
:1030680003FA00F0C0B2FFF7EBBF0000012303FA38
:1030780000F0034B1B781843C0B2FFF7E1BF00BF55
:103088003E0F00200123034A8340107820EA030002
:10309800FFF7D6BF3E0F0020012303FA00F0034BD1
:1030A8001B785840C0B2FFF7CBBF00BF3E0F0020CF
:1030B800024B1B781843FFF7C3BF00BF3E0F002029
:1030C800024B1B781840FFF7BBBF00BF3E0F002024
:1030D800024B1B785840FFF7B3BF00BF3E0F0020DC
:1030E8007047000037B501220024C0F30723C3EB63
:1030F8000313184400F007039A40C0F3C4000A4BB6
:1031080000EB4000D2B21844057821FA04F343F3E7
:1031180000036B40134001346B40032C00F8013B63
:10312800F2D103B030BD00BF3F0F00200022C0F332
:103138000723C3EB031313B518440B4900F0070426
:10314800C0F3C40000EB40000144104611F8013BF5
:10315800E34003F00103934001321843032AC0B24D
:10316800F4D102B010BD00BF3F0F002073B5072493
:103178000C4BADF804001E780B4B1B781E4346FA27
:1031880004F3DB07E5B205D4013CF8D20025284654
:1031980002B070BD2846019900F06AFE80B201288D
:1031A800F2D0F4E73E0F00203D0F002007B5ADF840
:1031B80004000198FFF7DAFF019903B05DF804EB0A
:1031C80000F056BE13B5104BADF804101B782BB1A8
:1031D800019802B0BDE81040FFF7E8BF70B1019850
:1031E800FFF7C4FF044601460198FFF77BFF20461E
:1031F800019902B0BDE8104000F03ABE0198FFF70F
:1032080095FF0446F3E700BF3C0F0020F8B50346DE
:1032180060B1002501261C4614F8010B74283CD027
:103228000BD802282AD002D8012812D0F8BD031FD3
:103238006F2BFBD8FFF7C4FB1AE0752837D000F1D5
:103248007C03DBB26F2BF1D800F07F00FFF708FC9E
:103258000EE09C1C5B7803F12002D2B2072A0BD83F
:1032680003F007039840C0B200F0ECFA00F02AFB24
:103278002F46FFB92346CEE71846DBE758789C1C53
:1032880000F12003DBB2072BE0D800F0070006FAB4
:1032980000F0C0B200F0DEFAE8E75F789C1C002F6F
:1032A800E6D06420013F05F0A6FCFFB2F7E75D78A1
:1032B8009C1CDDE76420013F05F09DFCFFB2D8E7C8
:1032C80070B5094B094E1C78094D3378A34200D1DB
:1032D80070BD05EBC40355F8340059680134FFF795
:1032E80075FE04F00704F0E7A70F0020A60F0020E2
:1032F800660F0020024B18685968FFF767BE00BFC9
:103308005E0F0020214BF7B59A7912F0F00F0AD121
:103318009A7842B14FF6FF771D4A1E4E12781E4D1D
:103328003178914201D103B0F0BD186800909888B7
:1033380040B3BDF80010B94224D005EBC20493F89D
:1033480001C061788C451DD193F800C015F8321082
:103358008C4517D1A178A9B9A188091A89B2C729BA
:1033680010D801229979094862F307119971A37954
:1033780062F30713A371FFF7AFFD03B0BDE8F04098
:10338800FFF79EBF013202F00702C9E75E0F002077
:10339800A70F0020A60F0020660F00202DE9F0439C
:1033A8000546A64CAB8885B00068ADF80430A38804
:1033B8000090ADF80C302068A388EC4629786A782C
:1033C800AF78B5F804800290002B00F0D6804FF655
:1033D800FF70BDF808E0864500F0CF80A678002E83
:1033E80000F0CB80A8EB0303A0799BB2C72B00F0B9
:1033F800F00900F29E802B88B9F1000F68D173455F
:10340800B94610D17FB9012363F30710A071FFF704
:1034180071FF2046FFF760FDA379AB7100263046A7
:1034280005B0BDE8F0838DF800108DF801208DF807
:1034380008108DF80920B8F1000F23D04FF6FF735C
:10344800BDF8080098421DD0F7B97D487D4B077834
:103458001B787D48BB421CD10098FFF7A7FEC0F33C
:103468000332012AC3B225D90E3202F00F02012A13
:1034780029D810F4706F22D0AA7912F0F00F1ED15B
:103488004E46CCE7002FC9D0A37943F00103A371BE
:10349800C4E700EBC30494F801C0944506D110F8C2
:1034A80033C08C4502D1A478002CB7D1013303F086
:1034B8000703CFE710F4706F01D0002BE0D0203362
:1034C800DBB2072BDCD92846FFF706FDB146D7E764
:1034D80073450BD157B9A8712846FFF7FDFC2B6837
:1034E80023606B686360FFF705FF98E72846FFF7DE
:1034F8005FFDD0B1CFB1A3791F2B0CD9228802A8C8
:10350800ADF808200022ADF80C808DF80A208DF85F
:103518000E30FFF7E1FC2B6823606B686360FFF7F0
:10352800F1FEFFF7E7FE012679E72846FFF7D4FC0E
:10353800F9E7B9F1000F13D18DF801208DF80010CB
:103548008DF802709CE80300FFF73AFD2046FFF76C
:10355800C3FCC4F80090C4F80490FFF7CBFE8FE7D3
:1035680022882B889A42C1D1002FBFD1A871284642
:10357800FFF7B2FC2760676051E720680290A088D7
:10358800ADF80C00002B46D04FF6FF70BDF8086070
:10359800864240D0A678002E3DD1A8EB03081FFA3A
:1035A80088F8B8F1C70F29D83E46002FBDD0228829
:1035B8002B889A4215D1A379DA070DD413F0F002BB
:1035C8000AD0F02AAB7187D0DBB2C3F30312013201
:1035D80062F30713AB717FE72B6823606B68636046
:1035E8001DE72846FFF7E4FC002894D1A379284674
:1035F80043F00103A371FFF76FFC10E78DF800108B
:103608008DF801208DF802709CE80300FFF7D8FCC4
:103618002660666067E7002F87D02846FFF7C8FC5A
:103628000646002881D02B68044823606B686360D5
:10363800FFF7C3F9FFF766FE55E700BF5E0F0020EE
:10364800A60F0020A70F0020660F0020F0B587B056
:103658006C4684E803002046FFF7A0FE2B4F054682
:10366800BDF804202A4E78B194E803000490ADF820
:1036780014103AB14FF6FF73BDF810209A4201D0EA
:10368800FFF7A4FC234C3AE004AB94E8030083E87A
:1036980003000290002AF5D04FF6FF72BDF808002B
:1036A8003C7890423178EDD0621C02F007028A42E1
:1036B8000BD003CB174D3A7005EBC40C45F834001A
:1036C800CCF80410FFF7FCFDDCE7FFF742FC124BD7
:1036D8003D7035701D605D60D4E704EBC000FFF7F6
:1036E8005DFE80B1337804EBC30254F833005168AF
:1036F800FFF76CFC3378013303F00703337030783D
:103708003B788342E9D107B0F0BD00BFA60F002087
:10371800A70F0020660F00205E0F0020024B014615
:10372800186804F0FDB900BF000C0020024B0146E8
:10373800186804F00DBA00BF000C0020014B18688F
:1037480004F01EBA000C0020024B93F90000C0F3ED
:10375800C7007047C90F0020024B187800F0070017
:10376800704700BFC90F0020034B187810F00700FE
:1037780018BF0120704700BFC90F00200C4A10B5C0
:1037880053780446C3F3800181420FD060F382036B
:103798005370108800F02EF9064B1B78DB0705D50F
:1037A8002146BDE81040044801F0FAB810BD00BF3A
:1037B800E0180020E80F002034AE0008044B5878C9
:1037C800C0F3800080F0010000F00100FFF7D6BFD1
:1037D800E01800200120FFF7D1BF0020FFF7CEBF7F
:1037E800014B1878704700BFCB0F0020024B1A78A6
:1037F80010431870704700BFCB0F0020024A13789F
:1038080023EA000313707047CB0F00200022014BFE
:103818001A707047CB0F0020024B1A7810431870AB
:10382800704700BFCC0F0020024A137823EA000338
:1038380013707047CC0F00200022014B1A7070479C
:10384800CC0F0020024B1A7810431870704700BF45
:10385800C80F0020024A137823EA00031370704748
:10386800C80F00200022014B1A707047C80F0020B3
:10387800014B1878704700BFCA0F0020704708B581
:10388800FFF7FCFF08BD0000064A08B5527852074A
:1038980006D4054A1178814202D01070FFF7EFFF75
:1038A80008BD00BFE0180020CA0F002008B5044B6F
:1038B8001A781AB100201870FFF7E1FF08BD00BFA1
:1038C800CA0F002010B50D4B0D4A1B7812780D4C0D
:1038D80013430D4A2068127813430C4A0370127878
:1038E80032B11343037004F079F808B1FFF7DEFF33
:1038F8002068BDE8104004F005B800BFCB0F0020D9
:10390800CC0F0020000C0020C80F0020CA0F002098
:10391800704708B5FFF7FCFF08BD00000A4A10B55C
:10392800527852070CD4094C41EAC0012170FFF7C4
:103938009DFB94F90000C0F3C700FFF7EAFF10BD34
:10394800BDE81040FFF792BBE0180020C90F002027
:10395800002008B5024B1870FFF7DBFF08BD00BF59
:10396800C90F002008B50C4A92F9003023EA00007C
:1039780040B21070420702D1DBB2834203D1074B39
:103988005B785B0707D5C0F3C700FFF77BFBBDE893
:103998000840FFF7DDBF08BDC90F0020E018002070
:1039A80008B501F08DFEBDE808404FF6FF71002014
:1039B80001F015BF08B5002001F00EFF4FF6E963CE
:1039C800984203D1BDE8084003F02CBB002008BD95
:1039D800022001F0FBBE032001F0F8BE10B5042060
:1039E80001F0F4FE0446222001F0F0FE44EA002033
:1039F80080B210BD10B50446C1B2042001F0E9FE42
:103A0800210A2220BDE8104001F0E3BE01460F2044
:103A180001F02BBF0146132001F027BF0020FFF75C
:103A2800F9BF08B50020FFF7F1FFFFF7F7FF08BD62
:103A380010B5002401F044FE4FF6E961002001F0C2
:103A4800CEFE0021022001F0C4FE0021032001F077
:103A5800C0FE1D4B214604201C7001F0BAFE214611
:103A6800222001F0B6FE2146052001F0B2FE2146D3
:103A7800062001F0AEFEFF21072001F0AAFE214634
:103A8800082001F0F2FE21460D2001F0A2FE214699
:103A9800182001F0EAFE2146172001F09AFE21467F
:103AA8001C2001F0E2FE2146202001F098FE21466C
:103AB800182001F0DAFE204603F0C9FA03F0EAFA0A
:103AC800FFF7AFFF10BD00BF3D0F0020FFF7B0BFED
:103AD80001460E2001F07DBE08B504F0C7F8024B80
:103AE8001860024B186008BDD40F0020D80F0020C2
:103AF80008B504F0BBF8024B1860024B186008BD0B
:103B0800D40F0020D00F00207047704708B5FFF78A
:103B1800FCFF08BD704708B5FFF7FCFF08BD0000B3
:103B280008B5054800F088FA01F080FDFFF7ECFFC2
:103B3800FFF7ECFF08BD00BF818300080120704734
:103B480008B5FFF7FBFF08BD7047704708B5FFF7DA
:103B5800FBFFFFF7FAFF08BD08B504F085F803F08E
:103B6800A9FA00F087FB02F01BFF02F0AFFC03F09C
:103B7800A9F9FFF7D0FF08BD38B50E4D04462B78DC
:103B8800580711D5D9070FD50B4800F009FF2B7836
:103B9800DA0709D52146094800F002FF2B78DB0730
:103BA80002D5074800F0FCFE2046BDE83840FEF785
:103BB800D3BE00BFE80F002049AE00085CAE000885
:103BC800D9B800082DE9F74F00F06CFB08B1FFF7F2
:103BD80083FFDFF8E4A000255646DFF8E080EFB267
:103BE800384600F07BFA3AF8024B814684424AD0C4
:103BF80098F800309B0701D500F076FA84EA0904AA
:103C0800A3B20022012423425FFA82FB36D0FFF7D9
:103C180097FFA8B119EA040F14BF012300238DF8F8
:103C280000B08DF802308DF8017004F03DF840F0D6
:103C38000100ADF8040002AB13E90300FEF794FE9F
:103C480036F815305C4026F8154002F00DFD03F0FB
:103C580067F803F077F908B1FFF74AFF01F052FB64
:103C680003F048FE164C2378834222D003F042FE2C
:103C7800207003B0BDE8F04FFFF77EBF013264004B
:103C88000F2AA4B2BFD10135052DA8D14FF6FF7375
:103C9800ADF8003000238DF8023004F005F840F04C
:103CA8000100ADF8040002AB13E90300FEF75CFE67
:103CB800CBE703B0BDE8F08FDE0F0020E80F00204F
:103CC800DC0F00200020704770470000014B33F8DC
:103CD8001000704790AE000810B500F0D5F8B0F5A8
:103CE800A04F044630D2B0F5804F80F08980DF289D
:103CF80012D8BF2878D8A7280AD8A42868D80128B5
:103D080004D0031F9BB2A12B28BF0024204610BD5E
:103D1800BF2861D10024F9E7B0F5005F0BD2FF2876
:103D2800F4D8E728F2D9A0F1F0039BB20F2BF1D811
:103D380040F4A04027E0B0F5405F5BD30205C3B272
:103D48005BD443F44044E1E7B0F5AA4F1DD2B0F587
:103D5800A84FC3B272D2B0F5A64F0AD2B0F5A44F9D
:103D680063D2B0F5A24F50D34AF2F10040EA0324DF
:103D7800CCE701209C0803F0030300FA03F343EAAD
:103D8800441040F40A4084B2C0E7B0F5B44F0FD2F3
:103D9800B0F5B24F5ED2B0F5AC4F52D3A0F5B043F8
:103DA8009BB2FF2BB6D84AF2F00040EA0420EAE7BB
:103DB800A0F5C0439BB2B3F5005FABD2C0F30420BB
:103DC80000F0E2F8000200F4F850E4B220433EE0CC
:103DD800243840F48040D6E7244B5834E4B233F812
:103DE800140040F4884491E7C03880B2FFF76EFFB2
:103DF80004468BE7C0F30B00F8E743F4484485E733
:103E0800C0F30B0040F4204480E7C0F30114C3F36F
:103E18008100400140EA0420012403F0030304FA6E
:103E280003F3184340F40C40ADE701209C0803F06D
:103E3800030300FA03F343EA4410F3E74AF2F400F9
:103E480094E7C0B200F0A0F8000200F4F85040F483
:103E580000545BE700F00F0000F096F8C4F3031479
:103E680040EA042040F410408DE700BF62AE00082D
:103E780007B5ADF80410019903F0F9FA03B05DF83D
:103E880004EBFFF729BF0000E7284DD8DF2807D843
:103E9800312861D00ED8292857D02A2863D07047F6
:103EA800A0F1E003072B3FD8DFE803F0123E2126FC
:103EB800303E3A3F392804D0822802D035283DD0F8
:103EC8007047304B1B7813F0030F18BFE020704782
:103ED8002C4A1378D9074DD4527812F0010F23D009
:103EE80013F0100F08BFE32018BF00207047254BC0
:103EF8001B7813F0040FF2E7224A137859073BD4D2
:103F08005278D2073AD413F0100FEDE71D4B5A78C8
:103F1800910709D51B7813F0100F08BFE720E3E7D6
:103F2800184B1B781A07F6D47047164A13781907E6
:103F380026D452789207E6D5E420F5E7114B1B7892
:103F480013F0200F18BF292070470E4B1B7813F071
:103F5800200F18BF352070470A4B1B7813F0400F0D
:103F680018BF2A207047074B1B7813F0400F18BF63
:103F78003120704739207047E2207047E0207047B1
:103F8800E6207047E0180020294A1378590707D51A
:103F980000F01801082927D100F0F70040F00400CC
:103FA800190707D500F01801182926D100F0E700F5
:103FB80040F014005278D10707D500F018010829FD
:103FC80024D100F0F70040F00100920707D500F077
:103FD8001802182A23D100F0E70040F01100DB0690
:103FE80048BF00F0E700704700F01401042904BF3F
:103FF80000F0FB0040F00800D2E700F0140114299B
:1040080004BF00F0EB0040F01800D3E700F0110106
:10401800012904BF00F0FE0040F00800D5E700F0D9
:104028001102112A04BF00F0EE0040F01800D6E794
:10403800E018002000207047014B1860704700BF4F
:10404800040C0020014B1B68184700BF040C00201B
:10405800FFF7A6BC08B500F025F940F6B83004F023
:10406800CAFD00F01FF9002000F038F8C30705D595
:10407800FFF7EEFFBDE8084003F028BE08BD08B50D
:10408800FFF7E8FF08BD000008B5FFF793FC08B983
:10409800FFF71CFDFFF79CFC084B1870FFF79EFC10
:1040A800074B1880FFF7EBFFFFF795FCFEF7A7FF1C
:1040B800044B1878BDE80840FEF7BDBFE80F0020A4
:1040C800E01800203E0F0020704708B5FFF7FCFFFE
:1040D80008BD704708B5FFF7FCFF08BD014B33F872
:1040E80010007047EC1800202DE9F0410F4800F04F
:1040F80057FC00240E4DDFF83C800F4F0F4E214631
:10410800404600F04DFC384600F04AFC35F8020BFA
:10411800FEF7CAFB0146304600F042FC013408486D
:1041280000F03EFC052CEAD1BDE8F08190AE000815
:10413800EC1800205CAE000859AE0008A7AE0008D5
:10414800D9B80008032004F056BD00BF00BF00BF67
:1041580000BF00BF00BF00BF00BF00BF00BF00BF5F
:1041680000BF00BF00BF00BF00BF00BF00BF704757
:1041780008B5FFF7E7FF08BD08B5202383F31188CA
:10418800012100F00F039940032220F00F0005F0F1
:104198006FFD002383F3118808BD000038B505249E
:1041A8000B4D55F8040B421C01D0FFF7E5FF013C0D
:1041B80014F0FF04F5D10F24064D55F8040B431CE9
:1041C80001D0FFF7D9FF013C14F0FF04F5D138BD49
:1041D800ECAE0008B0AE00082DE9F843234F0D46B9
:1041E80057F821300646591C3BD0202282F311880B
:1041F8004FF0010823F00F0903F00F0308FA03F446
:1042080021460622484605F033FDC9F8144000242B
:1042180084F31188FFF799FF2346154850F8041BCB
:104228004A1C20D021F00F02926801F00F0122FAF7
:1042380001F1CA0717D408FA03F212B20133224374
:104248000F2B94B2EAD157F82500431C01D0FFF791
:1042580093FF211E18BF01212846FFF789FF26F882
:104268001540BDE8F8830022E8E700BFECAE00087F
:10427800B0AE000808B5FFF791FF0023074A0520F4
:10428800136053601381064A13605360138100F072
:1042980037F8BDE80840FEF7DBB900BFE218002098
:1042A800EC18002030B5002485B0CDE90144ADF804
:1042B8000C40E1B201A80134FFF78EFF052CF8D1BC
:1042C8000D4C0A22204601A9FEF730F8002814BF39
:1042D8000125002505D001AA03CA13882060616062
:1042E80023812B4605220549034800F00BF8FEF709
:1042F800BAF9284605B030BDE2180020EC180020B5
:1043080070470000F8B506460F4615460E4C2BB10F
:104318000123237003F0AAFC0C4B186023782BB1FF
:104328000A4B186803F0CCFC04280AD8F8BD36F804
:10433800132027F8132001339D42F8DC0023237053
:10434800F4E70023F8E700BFE90F0020EC0F002096
:1043580008B503F02DFC04F076F804F077F804F0C3
:1043680095F8FFF7F3FBFAE770472DE9F04F8BB0AC
:10437800149C1646DDE918521F46019088469DF8A0
:10438800543016980CB922F0100212F4806B00D049
:1043980014B312F0200F14BF4FF041094FF0610918
:1043A800A44600240DF1080AA9F10A09BCFBF0FE95
:1043B80000FB1ECE5FFA8EF1BEF1090F94BF3031BB
:1043C8004944C9B284450AF8011B04F10104BCFB45
:1043D800F0F101D3202C0ED112F0020A1FD102F005
:1043E80001012DB121B113B912F00C0F00D0013D1C
:1043F8004FF0300C08E08C46D8E7202C08D00DF19F
:10440800080E0EF804C00134DDF85CE0A645F4D8C7
:104418004FF0300C19B1A54201D91F2C40D9D10653
:1044280020D5BBF1000F42D1002C40D01799A142F2
:1044380001D0AC423BD1611E38D0102841D1023C9A
:10444800910640D41F2C16D878200AA9214401F8D7
:10445800200C01341F2C0ED830200AA9214401F861
:10446800200C01341F2C06D89BB32D200AAB191938
:1044780001F8200C013493074BD0B146A1444846BB
:10448800A9EB0402002C48D1BAF1000F05D0A9EB22
:104498000609A94506EB090048D30BB0BDE8F08F23
:1044A8000DF1080E0EF804C00134B3E70C461028CD
:1044B800C6D00228CED11F2CDDD80AA962202144FB
:1044C800C5E70C46F5E71F2CD5D80AA95820214482
:1044D800BDE7500703D50AAB2B201919C8E7110708
:1044E800C9D50AAB20201919C2E73B46414620200E
:1044F800DDF804C0E04709F101094D450BEB09025D
:10450800F3D8A5EB0409A54238BF4FF00009B14420
:10451800B4E7A146A6EB040BEFE7013C02A83B4633
:104528004146005DDDF804C0E047A8E702463B4687
:1045380041462020019CA04709F10109A9E708B1DB
:10454800FFF780BD704700002DE9F04FB1F1000979
:104558008DB00693AF4B18BF034690460025169EB4
:104568000793069B187878B9454538BF2A464346CD
:1045780049464FF00000079C28BF08F1FF32A047CA
:1045880028460DB0BDE8F08F069B252803F10103EE
:10459800069307D02A466C1C4346079D4946A84700
:1045A8002546DEE7002206E02D2B14D0302B0CD157
:1045B80042F001020690069810F8013B2B2B0DD013
:1045C800F2D8202B0DD0232B0ED0A3F13004092CC8
:1045D80028D8002710E042F00202EBE742F004027C
:1045E800E8E742F00802E5E742F01002E2E70A21B4
:1045F80001FB07370690303F069810F8013BA3F1FE
:104608003004092CF3D9069B1B782E2B4BD1069B23
:1046180042F48062581C5B78A3F13004092C39D825
:10462800002411E02A2B08D156F8047B0690002FAD
:10463800BCBF42F002027F42E5E70027E3E70A2118
:10464800604601FB0434303C84461CF8013BA3F16E
:10465800300EBEF1090FF2D9034613F801CBBCF1B5
:104668006C0F29D022D8BCF1680F2ED0BCF16A0F8C
:1046780036D0034613F8010B782806938AD86128A8
:1046880031D8252886D0582884D142F020024FF00E
:10469800100C6FE02A2B07D156F8044B069824EA31
:1046A800E4740230D8E706980024D5E7BCF17A0F05
:1046B800DFD142F48072DDE790F801C0BCF16C0FE5
:1046C800F7D142F44072831CD4E790F801C0BCF1E2
:1046D800680F02D042F08002CCE742F0C002F2E755
:1046E80042F40072C6E7A0F16203162B3FF652AF00
:1046F80001A151F823F000BF5D47000821480008D8
:104708005D4700089D4500089D4500089D45000837
:104718009D4500085D4700089D4500089D45000827
:104728009D4500089D4500089D4500085D47000817
:10473800714900089D4500089D450008A1480008EA
:104748009D4500085D4700089D4500089D450008F7
:104758005D47000878289AD06F2800F01A816228EF
:1047680000F01A8169284FF00A0C22F0100203D0D9
:10477800642801D022F00C02510548BF22F0010242
:10478800692802F4007301D0642825D1002B7FF436
:10479800E8AED30506F1040A14D53368CDE902C49E
:1047A800CDE90472002B4FEAD3720192B8BF5B4285
:1047B8002A460093494643460798FFF7D6FD5646D2
:1047C8000546CEE612F0400F336801D0DBB2E5E7CC
:1047D800160648BF1BB2E1E7002B7FF4C2AED00536
:1047E80006F1040A06D5CDE90472CDE902C40193A5
:1047F8003368DDE712F0400F336807D0DBB2CDE94C
:1048080004720022CDE902C40192D1E7110648BF23
:104818009BB2F4E77143000812F0020427D04FF06E
:10482800010A56F8040B2A4605F1010B434649468E
:10483800079DC0B2A8476CB354465A4622E0434687
:1048480049462020DDF81CC0E0470AEB05020AF1C2
:10485800010A5745F3D8002F07F1FF3308BF00239B
:1048680007F1010A1D4408BF4FF0020AD9E7A24622
:10487800EBE7551C434649462020DDF81CC0E047BD
:104888002A460134BC42F4D3A7EB0A03574538BF84
:1048980000239B445D4664E6334653F804AB002C82
:1048A800089314BF23464FF0FF33D34653449BF875
:1048B800000008B15B4511D112F48063ABEB0A0B21
:1048C800099302D0A34528BFA34612F002030A9316
:1048D8001CD1ABEB05032A460B930AE00BF1010B45
:1048E800E5E7561C434649462020DDF81CC0E04752
:1048F80032460B9B1344BB42F3D3A7EB0B035F4534
:1049080038BF00230BF1010B1D449B445646A5EB11
:104918000A0A05E01C462A4643464946079DA84719
:104928000AEB060516F8010B28B1099B002BF2D0FB
:10493800631E002CEED10A9BA3B12A46ABEB0504FB
:1049480007E0561C434649462020DDF81CC0E047D6
:104958003246A318BB42F4D3A7EB0B035F4538BF1D
:1049680000231D44089EFCE5082342F02102CDE9FE
:104978000343059200231022CDE9013256F8043B87
:104988002A460093494643460798FFF7EEFC05463A
:10499800E7E54FF0080CEDE64FF0020CEAE600BF41
:1049A8000FB41FB506AA52F8043B02A9039200925D
:1049B80004484FF0FF32FFF7C7FD05B05DF804EB80
:1049C80004B07047474500081FB50A4B0A4A1B78D0
:1049D8000A4902930A4B0B481B7801930A4B1B7830
:1049E80000930A4B12781B780978FFF7D9FF05B0B6
:1049F8005DF804FB0F0C0020090C0020080C0020B7
:104A08000E0C002000AF00080B0C00200A0C002040
:104A180010B5014604460648FFF7C2FF0120A04032
:104A2800C0B2FEF7ECFABDE81040FEF792BA00BF3C
:104A38007DAF0008F0B5431F89B03E2B00F21C8102
:104A4800DFE813F09D008D00A3003F001A011A0152
:104A580089001A011A01CC001A01DB0001011A01B0
:104A68001A011A011A01EC001A011A01EA001A01C6
:104A7800B8001A011A0118011801180118011801C3
:104A8800180118011801180111011A019D0083006D
:104A98001A011A011A011A011A011A011A011A0136
:104AA8001A011A0111011A011A0189001A011501C6
:104AB800150115011501150115011501150115013E
:104AC8001101FEF788FF01466E48FFF769FFFEF700
:104AD8007FFFC0F3C0030193C0F38003014600F0D9
:104AE80001020093C0F340036748FFF759FFFEF740
:104AF80075FFC0F3C0130793C0F380130693C0F388
:104B080040130593C0F300130493C0F3C003039349
:104B1800C0F380030293C0F340230193C0F3002342
:104B2800014600F001020093C0F340035748FFF725
:104B380037FF01F0B1FE0146C0F3C40300F00102E3
:104B48005348FFF72DFF012017E05248FFF728FFD1
:104B5800FEF7BCFFF7E75048FFF722FFF3E74F4A9D
:104B68004F48137823F00F031370FFF719FF4D48D0
:104B7800FFF716FF01204C4B187009B0F0BD4B48E9
:104B8800FFF70EFFFDF772FDDDE7444C2378C3F312
:104B9800000282F0010262F30003DD07237001D5F1
:104BA8004348D9E74348FFF7FBFE237823F00E0379
:104BB8002370C8E7394C2378C3F3400282F001021E
:104BC80062F341039807237006D53B48FFF7E8FED8
:104BD800237843F00103EBE73848BDE72F4C2378EF
:104BE800C3F3800282F0010262F382035907237043
:104BF80001D53348EAE73348AEE7284C2378C3F3B6
:104C0800C00282F0010262F3C3031A07237001D5C0
:104C18002D48DBE72D489FE72D489DE702F06AFE07
:104C28002C4B04461E782C4B1F782C4B1D7803F018
:104C38001DF8ED09CDE900503B463246214628488B
:104C4800FFF7AEFE7FE7FEF784F924490B78C3F33C
:104C5800C01282F0010262F3C7130B701B064CBF2F
:104C68002048214878E70020FFF7D2FE6BE7393863
:104C7800C0B2F9E71D38FBE71C48FFF791FE00209A
:104C88007BE700BF82AF00089FAF0008E8AF0008CD
:104C9800CDB0000800B1000811B10008E80F0020ED
:104CA800C3B20008EAB20008F00F0020EEB2000814
:104CB8000AB3000816B3000823B3000830B300088D
:104CC8003EB300084DB300085DB3000869B300089F
:104CD80076B30008000F002024180020E0180020F8
:104CE80069B40008EDB40008F7B4000804B500087A
:104CF800292810B5614C55D029D813285FD015D86C
:104D0800072800F093800B2834D05D48A1E00A21E1
:104D18005C4B1B68002BF8D01A780A44FF2A40F332
:104D2800A380FF221A701978574858E0142839D000
:104D3800A0F11E03092BE8D81D38C0B22070013835
:104D480005286DD8DFE800F0414E545A60663828CF
:104D580010D04F38C3B2032BD7D80328D5D801A316
:104D680053F820F0174D0008614E0008674E000800
:104D78006D4E00084548FFF713FEFFF725FE012298
:104D880005214348FFF70CFE2178002970D0BDE8C3
:104D98001040404B40481A68404B002A08BF1A464A
:104DA800FFF7FEBD3E48FFF7FBFD2378002B64D0DC
:104DB8000023344A23701360364A1360E4E7394805
:104DC800FFF7EEFDFFF700FEDEE72E4B364A1A60CE
:104DD800304B364A1A6021780029D5D03448FFF77D
:104DE800DFFDD1E7274B334A1A602A4B324AF1E7F5
:104DF800244B324A1A60274B314AEBE7214B314AA0
:104E08001A60244B304AE5E71E4B304A1A60214BA2
:104E18002F4ADFE71B4B2F4A1A601E4B2E4AD9E751
:104E2800002317482370FFF7BBFDD4E71E221E4B53
:104E38002A481A7032221F4B1A700A221F4B1A7006
:104E48001422204B1A700822204B1A702822214B5A
:104E58001A70FFF7A5FD97E76FF0090158E74FF0C3
:104E6800FF3155E7012153E7002AB8BF002259E76F
:104E78001B48BDE81040FFF793BD10BDF80F002098
:104E88004CB60008FC0F00207FB9000806B50008E2
:104E980016B50008F40F002059B6000802B500083E
:104EA800E2B50008E5B50008080C0020F3B50008D5
:104EB80094B70008090C0020FCB500080A0C002073
:104EC80008B600080B0C002015B600080E0C0020D0
:104ED80024B600080F0C002037B600084FB60008AB
:104EE80062B60008002070470020704770B5264E53
:104EF80005463478012C14D0022C3FD0002C40D128
:104F0800FEF76EFC22280AD12846FFF7EBFF18B9F6
:104F18002846FFF78FFD00E0012000F0010420463D
:104F280070BDFEF75DFC2228284605D1FFF7DAFFA1
:104F38000028EDD02046F0E7FFF7D6FF0028EED195
:104F4800142D1ED008D80B2D0AD0102D10D00F48C4
:104F5800FFF726FD0024E2E7292D12D0382DF6D1DF
:104F68000B48FFF71DFD0B48FFF71AFD0124D6E794
:104F7800022338203370FFF7BBFED0E7FFF7B8FEF7
:104F8800F4E700243470CAE7F00F002004B50008E5
:104F9800C3B20008EAB20008194B1B78D90709D533
:104FA800184B187800EB800080087F2823D820B39E
:104FB800C0B270479A0705D5124B187800EB8000ED
:104FC8004008F2E75B0704D50E4B187800EB800029
:104FD800EBE70D4B1B7863B10C4A0A491278087845
:104FE8009342F3D2584300EB8000B0FBF2F080B25A
:104FF800DBE70520DCE77F2070470120704700BF12
:105008000A1000200A0C00200B1000200B0C0020B6
:10501800144B1B78D90705D5134B18788008F8B1BD
:10502800C0B270479A0703D50F4B18784008F6E7C7
:105038005B0705D50C4B18787F28F0D97F2070477F
:105048000A4B1B7853B10A4A0749127808789342E9
:1050580036BF584380B2B0FBF2F0EDE70120DFE73E
:10506800012070470A1000200E0C00200C100020B0
:105078000F0C0020F02808B505D1FFF78DFF40423E
:10508800294BD87008BDF12802D1FFF785FFF7E753
:10509800F22805D1FFF780FF4042234B9870F1E7D3
:1050A800F32802D1FFF778FFF7E7F92804D1FFF7D3
:1050B800AFFF1D4B1871E5E7FA2803D1FFF7A8FFEA
:1050C8004042F6E7FB2805D1FFF7A2FF4042164B06
:1050D8005871D7E7FC2802D1FFF79AFFF7E700F1EC
:1050E8000C03DBB2042B08D801230F4AF43803FA67
:1050F80000F0537818435070C4E7FD2805D10B4AD7
:10510800137843F001031370BCE7FE2804D1074A63
:10511800137843F00203F6E7FF28B3D1034A137864
:1051280043F00403EFE700BF041000200A1000203A
:10513800364BF02893F902200AD193F9031000297D
:105148000CDA0021D97052B90021314A117006E0F9
:10515800F1280DD193F903100029F2DC72B11A7904
:105168005B7913435AB2002B4FD12A4B1A70704700
:10517800F22806D1002AF1DA00229A7093F9032066
:10518800E1E7F32802D1002AF6DCE7E7F92893F9EA
:10519800041004D10029E1DD00211971DEE7FA28A5
:1051A80002D10029DADAF7E7FB2893F9051004D1D0
:1051B8000029D3DA00215971D0E7FC2802D100294F
:1051C800F8DCCBE700F10C01C9B2042907D80121AA
:1051D800F4388140587820EA01005870BEE7FD286D
:1051E80005D10D48017821F001010170B6E7FE28CC
:1051F80004D10948017821F00201F6E7FF28ADD172
:105208000548017821F00401EFE7704704100020F9
:105218000B1000200C1000200A1000202A4B10B59B
:105228001B782A4C13F0080F39D02948FFF7B8FB30
:1052380061782848FFF7B4FB2748FFF7B1FB94F9DA
:1052480002102648FFF7ACFB2548FFF7A9FB94F9A5
:1052580003102248FFF7A4FB2148FFF7A1FB94F9AC
:1052680004101E48FFF79CFB1D48FFF799FB94F9B3
:1052780005101A48FFF794FB1A48FFF791FB1A4BE1
:105288001A481978FFF78CFB1948FFF789FB194B67
:1052980016481978FFF784FB1748FFF781FB02F0DF
:1052A80003FDE378A278134318BF144B227918BF83
:1052B80018806379BDE8104013431CBF104B188059
:1052C800024802F061BB00BFE80F00200410002074
:1052D80066B600085CAE000889B600088BB6000800
:1052E80008B300088EB600080B10002091B600081D
:1052F80094B600080A10002096B600080010002096
:105308000210002000232DE9F047564C94F9028042
:1053180094F9037094F9046094F90550A370E3704C
:105328002371637158EA070394F800A094F8019078
:105338000AD04D4B188802F0BCFC4C490B783BB3A3
:105348004B4A127890422EDC56EA05030BD0494BA3
:10535800188802F0AEFC48490B78002B4ED0474A1B
:105368001278904255DCE278A378134322791343EC
:105378006279134301D0FFF751FF84F800A084F845
:10538800019084F80280E77026716571BDE8F087A6
:105398004FF00A0C3A4A12780CFB02F29042D3DD25
:1053A80001330B7001E0FF2BFAD1B8F1000F08D0E0
:1053B800FFF7F2FDB8F1000FCCBF0123FF235843DC
:1053C800A0703FB1FFF7E8FD002FCCBF0123FF23FA
:1053D8005843E07094F90220002AB5D094F90330BC
:1053E800002BB1D0B5214A434B43121208BF01220A
:1053F8001B1208BF0123A270E370A5E74FF00A0C47
:10540800204A12780CFB02F29042ACDD01330B709B
:1054180001E0FF2BFAD13EB1FFF7FAFD002ECCBF19
:105428000123FF23584320713DB1FFF7F1FD002D03
:10543800CCBF0123FF235843607194F90420002A4C
:1054480091D094F90530002B8DD0B5214A434B43B8
:10545800121208BF01221B1208BF012322716371B7
:1054680081E700BF04100020001000200B1000206E
:10547800090C0020021000200C1000200D0C002048
:10548800080C00200C0C00200023054A13609380B0
:10549800044A1370044A1370044A1370704700BF1B
:1054A800041000200B1000200C1000200A1000200F
:1054B80010B5074C00F05AFA064800F00FFA2046DB
:1054C80000F00CFA00F060FA034B1C6010BD00BF3E
:1054D80000FC010800F80108101400204FF6FF71C5
:1054E80038B520F00104A2B204F1006404F5FC34DC
:1054F80023888B4210D10A498D5AED43ADB29D42A3
:105508000CD000F033FA2046294600F009FA044688
:1055180000F03AFA204638BD0024FBE70524F9E7F5
:105528000E100020F8B5FFF7C3FF052500F01EFA9E
:105538000A4E0B4C0B4F36F8021B39B1C9432046B3
:1055480089B200F0EDF9052818BF05460234BC42BF
:10555800F1D100F019FA2846F8BD00BF0E1000205E
:1055680000F8010800FC0108F8B51C4B1C4F1E5A36
:105578003A68012E96BF022304231A4DC3F1006333
:1055880094BF45EA4635803803F500338ABF4FF4A7
:105598006045ADB280B29A4203D9BDE8F840FFF742
:1055A800C1BF45EA500400F0E1F938682146831C80
:1055B8003B6000F0B5F9B5F5604F044609D1F143F9
:1055C800386889B2831C3B6000F0AAF9052818BF27
:1055D800044600F0D9F92046F8BD00BF0E1000209F
:1055E800101400200080FFFF38B50D4D0D4B2A68C0
:1055F80004469A4203D9BDE83840FFF793BF00F04C
:10560800B5F9094B2868195D831C41EA042189B260
:105618002B6000F085F9044600F0B6F9204638BD45
:1056280010140020FFFF01080E1000201F4BF0B5DA
:105638001D461F4A1F4832F8021BC943824223F8FD
:10564800021BF8D14FF6FF7743F6FE761A4C138803
:10565800BB4206D0180409D4190A6B540232A2427C
:10566800F5D9164B4FF480601A60F0BD03F4C041C1
:10567800B1F5C04F0FD1901CA04215D85188C9432D
:1056880089B279B1024606EA43038033B3F5806FE5
:10569800E4D2E952E2E75904E0D4C3F3403106EA20
:1056A8004303F3E70246D9E70246DAE70E10002083
:1056B80000F8010800FC0108FFFF01081014002091
:1056C80008B5FFF7F5FEBDE80840FFF7AFBF0000DB
:1056D800B0F5806F10B5044614D20C4B1A5C8A42A0
:1056E80012D01954FFF7FAFE68B97F2C04D8204667
:1056F800BDE81040FFF778BF24F00100BDE8104076
:10570800FFF732BF072010BD0020FCE70E10002075
:10571800B0F5806FF8B505460E4634D210F0010496
:105728000DD0C9B2FFF7D4FF0446681C310A80B215
:10573800FFF7CEFF052818BF04462046F8BD134BD7
:105748001F5AB942F9D01952FFF7C8FE044600287B
:10575800F3D17F2D12D8FBB2F2B293420CD0284677
:10576800FFF742FF0446360AB6EB172FE5D0681C50
:1057780080B2FFF739FFDDE70524F4E72846BDE8E6
:10578800F840FFF7F1BE0724D7E700BF0E1000204E
:10579800B0F5806F3ABF024B185CFF20704700BF1E
:1057A8000E10002040F2FE3398420AD8064BC1077B
:1057B80003EB000243BF5278185C40EA0220185AF3
:1057C80070474FF6FF7070470E10002080B2FFF749
:1057D800DFBF80B2FFF77CBF80B2FFF7E3BF80B2C4
:1057E800FFF796BF38B510F0010F85B2284611D0E3
:1057F800FFF7CEFF0446681C80B2FFF7D3FF0335DE
:105808000246A8B2FFF7C4FF030643EA022343EAAD
:10581800040038BDFFF7C6FF0446A81C80B2FFF796
:10582800C1FF44EA0040F4E738B5C3070D4684B227
:1058380010D52046C9B2FFF74BFF601CC5F30F21F6
:1058480080B2FFF765FFE01C290E80B2BDE8384042
:10585800FFF73EBF204689B2FFF75AFFA01C290C6C
:1058680080B2BDE83840FFF753BFFFF7DDBF000047
:105878000B4BDA68D0070CD4DA6851070BD4DA6816
:10588800D2060AD4D86800F00100C0F10500C0B201
:10589800704701207047022070470320704700BFFF
:1058A8000020024073B504460025FFF7E1FFFF26FC
:1058B80001280FD114B9062002B070BD01950196D8
:1058C800019B1BB9FFF7D4FF013CF1E7019B013BAA
:1058D8000193F5E7002C08BF0620EDE738B505462B
:1058E80040F6FF70FFF7DEFF052815D10B4C40F698
:1058F800FF70236943F0020323616561236943F064
:1059080040032361FFF7CEFF06281EBF236923F05B
:10591800020323613423E36038BD00BF0020024046
:10592800104B00F178429A4270B505460E4616D8DB
:105938001F20FFF7B7FF052810D10B4C1F20236944
:1059480043F0010323612E80FFF7ACFF06281EBF3A
:10595800236923F0010323613423E36070BD07202A
:10596800FCE700BFFEFF070000200240044B1A6955
:10597800120641BF034A5A6002F188325A607047E2
:105988000020024023016745024A136943F080035F
:10599800136170470020024030B510F47F4F85B086
:1059A8000190C0F30725C0F3074217D109B1304B66
:1059B8009A5C8DF80C208DF80D208DF80E200020B3
:1059C8009DF80C3063F307009DF80D3063F30F204A
:1059D8009DF80E3063F3174005B030BD9DF80440C4
:1059E80061B3234B9A5C0620FF236043591BB0FB2D
:1059F800F3F06FF05403434303EB440303EB430317
:105A0800DBB203FB05F4C3F1FF036B4324121B1243
:105A1800C4F1FF04C3F1FF03514354435343C1F39B
:105A28000721C4F30724C3F30723D2B2062819D8E1
:105A3800DFE800F00608110F1418060092B2D2E74A
:105A480014461A468DF80C208DF80D408DF80E106E
:105A5800B5E7134622460C461946F3E71C4613469B
:105A68000A46F9E713460A4621461C46EAE700BFFC
:105A7800D8BC0008012184B004B0FFF78DBF70477F
:105A880084B004B0FFF7F6BF13B58DF802208DF887
:105A980000008DF8011000981C46FFF7F1FFC0F3D5
:105AA8000743C0F3072262702070A37002B010BDD4
:105AB800064A137813F0FE0F04D1012161F347035E
:105AC80013707047492BFCD92421F7E7F8180020F8
:105AD8000820FFF787BE08B5FFF7EAFFBDE80840D2
:105AE80001460820FFF7C1BE014B1868FFF7F3BF56
:105AF800F81800200022034B03481A711860FFF7BA
:105B0800EABF00BFF81800200300FFFF38B51C4C9F
:105B18002378D90732D51B48FEF742FF2378DA07E6
:105B28002CD5194D1948297801F00101FEF738FFE5
:105B38002378DB0722D5297815484908FEF730FF76
:105B48002378D8071AD569781248FEF729FF2378F1
:105B5800D90713D5A9781048FEF722FF2378DA076A
:105B68000CD5E9780D48FEF71BFF2378DB0705D530
:105B780029790B48BDE83840FEF712BF38BD00BF91
:105B8800E80F002099B60008F8180020B2B60008FF
:105B9800CFB60008EAB6000804B700081EB7000828
:105BA80038B70008034B1B7813F0010018BF5808DA
:105BB800704700BFF8180020054A1379022B9CBFD4
:105BC8000133137110B11068FFF785BF704700BF2C
:105BD800F81800200120FFF7EFBF0000044A1379EE
:105BE8000BB1013B137110B11068FFF774BF704718
:105BF800F81800200120FFF7F1BF0000014B1879C9
:105C0800704700BFF818002038B50B4C0B4D2071B9
:105C180059B12068FFF75FFF2B78DA070BD5217998
:105C28000748BDE83840FEF7BBBE2B78DB0702D536
:105C380001460448F5E738BDF8180020E80F0020B1
:105C480054B7000875B700080021FFF7DDBF000052
:105C5800014B5878704700BFF8180020014B98781E
:105C6800704700BFF8180020014BD878704700BF74
:105C7800F818002001F0C2B8104B70B51C78104D10
:105C880014F0010469780F4806D02B7803EB43031E
:105C98001844FFF7EFFF70BDAB78EE7803EB4302D3
:105CA80002449E4202F10302EFD9013302F8024C8A
:105CB80002F8034C02F8014CDBB2F2E7F8180020B6
:105CC800130C0020001900200E4B70B41B78DB0762
:105CD80016D50D4C0D4EA378E57803EB43043444F8
:105CE800AB4204F1030402D370BCFFF7C5BF013314
:105CF80004F8020C04F8031C04F8012CDBB2EFE7EB
:105D080070BC7047F8180020130C00200019002000
:105D1800094B07B51B78DB070AD501ABFFF7B4FEC3
:105D28009DF806209DF804109DF80500FFF7CCFFAC
:105D380003B05DF804FB00BFF818002010B5044656
:105D4800054B0279054958788A5C9978FFF7E0FF96
:105D580023790133237110BDF81800206ABA0008AE
:105D680010B50446044B0079DA789978FFF7D0FF2C
:105D780023790133237110BDF818002037B5164D6B
:105D88000446287838B9FF2201AB1146FFF77CFE9C
:105D98009DF805302B702179012911D0022913D0E3
:105DA800B1B90A462878FFF78FFF03222379013318
:105DB800B3FBF2F202EB42029B1A237103B030BD2F
:105DC800002229781046EEE700202A780146EAE703
:105DD800002210461146E6E71C1400202DE9F04F7A
:105DE800494D89B095F800C006461CF0010F884659
:105DF8001746049300F08480444C4FEA5C03E45C4B
:105E0800DFF80CE10CF0FE0CBCF1020FDFF8049196
:105E18008EF8004021D107ABFFF736FE9DF81E2013
:105E28009DF81C109DF81D00FFF74EFF049B6E7037
:105E380085F80280EF70002B59D02868FFF74BFED9
:105E480099F80030DA075BD5EB78AA786978324898
:105E580009B0BDE8F04FFEF7A3BD022C01D1EF78E1
:105E6800E4E7062C01D16E78E0E7092CFBD0192C69
:105E7800DCD14FF0000A193B03F00102039282F0D3
:105E880001020292254AC3F3460312F803B0244BD9
:105E98005FFA8AF11B798B4202D8FFF7EDFEC5E75E
:105EA8000BFB01F4B4FBF3F4039BE4B2EBB9344409
:105EB80099F80030E4B2D80708D52246029B194861
:105EC800CDF800B00591FEF76BFD0599144B3A46E5
:105ED8009B7820461944144B01EB41010B44414681
:105EE800FFF7D2FD0AF1010AD1E7341BE0E799F880
:105EF8000030DB0704D53B46424631460B48A7E74E
:105F080009B0BDE8F08F00BFF818002045BA0008B6
:105F18001E140020E80F0020BFB7000832BA00089E
:105F2800130C002098B7000800190020E4B70008F7
:105F3800054910B44C7803460834CA78E0B2897829
:105F480010BCFFF74BBF00BFF81800200120FFF777
:105F5800EFBF0000054910B44C780346083CCA78E6
:105F6800E0B2897810BCFFF739BF00BFF8180020ED
:105F78000120FFF7EFBF000010B4064C0346A178DC
:105F8800E2781131FF2928BFFF216078C9B210BC1F
:105F9800FFF724BFF81800200120FFF7EDBF00002D
:105FA80010B4064C0346A178E278113921EAE17170
:105FB8006078C9B210BCFFF711BF00BFF818002005
:105FC8000120FFF7EDBF000010B4064C0346E2784D
:105FD800A1781132FF2A28BFFF226078D2B210BC04
:105FE800FFF7FCBEF81800200120FFF7EDBF000006
:105FF80010B4064C0346E278A178113A22EAE2721C
:106008006078D2B210BCFFF7E9BE00BFF8180020D4
:106018000120FFF7EDBF0023FFF7E0BE2DE9F041B7
:1060280004460025134EDFF85080144F3279E8B249
:1060380082420DD8FFF720FEA37813F0010F2379D1
:1060480014BF013303F1FF335BB22371BDE8F08164
:10605800FF21B1FBF2F1B3782279034401FB002060
:1060680003EB4303FA78B9784344C0B2FFF70CFD59
:106078000135DBE7130C002000190020F818002078
:106088002DE9F04F83784FF0000913F0010F0CBF92
:1060980001234FF0FF3385B02A4E2B4D01933379FE
:1060A8005FFA89F843450CD8FFF7E6FD019B012B01
:1060B8002B783FD103B93379013B2B7005B0BDE88C
:1060C800F08F002404274FF0170BB2781F49424481
:1060D80002EB420253185C7054549DF80420DFF818
:1060E80070A09C7002922A782244D1B252B2172A28
:1060F8001BDD92FBFBF10BFB112252B242450CD186
:106108009AF803209AF802107A439AF80100C2F329
:1061180087020393FFF7B8FC039B029A013F1444DC
:10612800E4B2E0D109F10109B9E7002AE6DA3279E7
:106138000A44E2E732790133B3FBF2F102FB11338F
:10614800BBE700BF130C00201D140020001900201D
:10615800F818002000212DE9F8432C4C2C4DA37889
:10616800E07803EB43022A44984202F1030220D864
:106178000027284EDFF8A090DFF8A0802279F9B236
:106188008A421FD8FFF778FD234D25482A780178E1
:1061980033780A4452B20B445BB2002A33702A7037
:1061A80003DD2279013A934201DB49420170BDE8DF
:1061B800F883013302F8021C02F8031C02F8011CE0
:1061C800DBB2D1E7B1FBF2F302FB1313A27813445D
:1061D80096F90020DBB291424FEA430213440EDBEA
:1061E80099F9000081420ADC98F8032098F8021017
:1061F80098F801002B44FFF747FC0137BEE700225F
:10620800E9184A70EA548A70F7E700BF130C0020B7
:10621800001900201B140020100C0020F818002082
:10622800120C00202DE9F84355250379064603FB97
:1062380003F25A43C3F1200303FB03F1554303FB65
:106248000123B5FBF3F3DDB2292D85BFC5F1550454
:1062580004EB440405EB450404EBD47494BF6FEAE3
:1062680054046FEA64040027DFF85C80DFF85C9070
:10627800E4B298F80420FBB29A420BD8FFF7FCFC72
:106288003379134ADBB90121117012781344337141
:10629800BDE8F8839A0798F802200E49134458BFBE
:1062A800C5F1550003EB430348BF284622468978C9
:1062B80058BFC0B24B44FFF7E7FB0137D9E7202BA3
:1062C800E3D1FF21E0E700BF130C002000190020F4
:1062D800110C0020F81800202DE9F0410446002593
:1062E800144FDFF85480154E3A79AA4208DCFFF7BC
:1062F800C3FC2379013303F001032371BDE8F08166
:10630800BB78B5EB520F2B4403EB430394F804C05E
:106318007078B178434407DABCF1000F07D0F278FF
:10632800FFF7B2FB0135DFE7BCF1000FF7D0002221
:10633800F6E700BF130C002000190020F818002011
:1063480008B50C4B0B2219780B484908FBF7A8FF36
:1063580010B90122094B5A7001F0A6FC084B1880AD
:10636800084B1B78DB0704D5BDE808400648FEF754
:1063780017BB08BDF8180020180C00201E140020B8
:1063880014140020E80F00200BB800080022054B69
:106398005A70054B1B78DB0702D50448FEF700BB93
:1063A800704700BF1E140020E80F002024B8000822
:1063B80038B51D4C2378DD0735D518BB012262F3AB
:1063C80047031A4D237021B32068FFF784FB2B780D
:1063D800DA0704D5217816484908FEF7E1FA21784A
:1063E8000B2214484908FBF75BFFC8B1FFF7CEFF43
:1063F8000122114BA178DA706078E278BDE8384064
:10640800FFF709BE242801D92422D8E760F34703FF
:10641800D7E72B78DB07E2D5217808484908DCE77D
:10642800FFF78EFFE4E738BDF8180020E80F0020DA
:106438003DB80008180C00201414002059B80008B2
:10644800054B01461B785B080133252B34BF1846E2
:106458000120FFF7ADBF00BFF81800200120FFF7AB
:10646800EFBF0000064B01461B78C3F34603013B10
:1064780013F0FF0314BF18462420FFF799BF00BF8D
:10648800F81800200120FFF7EDBF0121FFF790BFAA
:1064980010B5094C237843F001032370074B1B7890
:1064A800DB0703D501210648FEF77AFA2078BDE814
:1064B80010404008FFF7E9BFF8180020E80F002057
:1064C80077B800080021FFF773BF000070B5204EB1
:1064D8003378002B3AD11F4C2378DD0708D51E48A6
:1064E800FEF75EFA2378D80702D51C48FEF758FA5B
:1064F800FDF760FA48B92378D90702D51848FEF79E
:106508004FFAFDF7E3FAFFF7F5FAFFF7E1FA154D51
:1065180010F0FE0F28600AD12378DA0702D5124856
:10652800FEF73EFAFFF7E6FAFFF7D2FA2860FFF720
:10653800BFFAFFF7EBFA00220C4B28785A70C30712
:1065480002D54008FFF7BEFF0123337070BD00BFBE
:106558001A140020E80F0020AEB80008C5B80008DB
:10656800DBB80008F818002003B900081E14002042
:1065780010B5094C237843F001032370074B1B78AF
:10658800DB0703D501210648FEF70AFA2078BDE8A3
:1065980010404008FFF796BFF8180020E80F0020C9
:1065A8004CB9000810B50E4C23786FF30003237024
:1065B8002068FFF790FA0B4B1B78DB0705D521788D
:1065C800094801F00101FEF7EBF9FFF7DFFE41F2A0
:1065D800883002F010FBBDE81040FFF74DBB00BF4C
:1065E800F8180020E80F002085B900080C4B10B5FA
:1065F8001B780C4C13F0010F06D021780A48C943C8
:1066080001F00101FEF7CCF92378DB0703D5BDE8DB
:106618001040FFF7C7BFBDE81040FFF739BF00BF04
:10662800E80F0020F8180020BDB9000808B50B4B8A
:106638001A786FF300021A70094B1B78DB0703D531
:1066480000210848FEF7ACF9FFF7A0FE41F28830B8
:1066580002F0D1FABDE80840FFF70EBBF818002099
:10666800E80F0020F4B900082D4B2DE9F0415A78C5
:10667800002A53D01A782B4B2B4E1B78022AC2EBD8
:106688005303DBB2B3701AD1284A294CD55CF3788E
:106698002BB10027F77001F007FBB780308001F0BD
:1066A80003FB47F6FE723388C01A80B2904235D891
:1066B8002B4433801C482346BDE8F0411847062A7E
:1066C80003D11C4A1C4CD55CE1E7092A04D11B4ABA
:1066D8005B08D55C1A4CDAE70F2A04D1194A5B0823
:1066E800D55C194CD3E7152A03D1184A184CD55C48
:1066F800CDE7182A0FD0232A03D1164B164C1D8834
:10670800C5E7164B242A164C12BF4FF4FA654FF40E
:10671800FA751C46BBE72825124CB8E7BDE8F0819E
:106728001E140020F8180020141400202EBA0008A7
:10673800455D00083ABA0008695D00083DBA0008DE
:106748002560000842BA00088960000837BA0008C6
:106758005D61000840BA0008855D0008E162000834
:10676800875A00082D62000800B11047084738B55D
:1067780004460D46FFF716FAA04207D3FFF712FAB0
:10678800A84203D2BDE83840FFF768BE2046BDE8FE
:106798003840FFF77ABE000038B58C780546002CE3
:1067A80063D0FDF71DF845F6D5439D4200F0220061
:1067B80014D845F6C1439D4215D9A5F5B945433DC1
:1067C800122D12D8DFE805F0151A1D202326292CD2
:1067D8002F3235393E4144474A4C4F0045F65D5407
:1067E8002C1B18BF0124204638BDFFF7FFFE0024EC
:1067F800F9E71F4A1F49FFF7B7FFF8E71D4A1C4989
:10680800F9E71D4A1D49F6E71C4A1B49F3E71C4AEC
:106818001C49F0E71B4A1A49EDE71B4A1B49EAE7FE
:106828001A4A1949E7E71A4A1A49E4E7194A184976
:10683800E1E70120FFF729FED9E705210220FFF74C
:1068480096FFD4E708210620F9E70E210920F6E78C
:1068580014210F20F3E717211520F0E71820E9E7A6
:1068680022211920EBE72320E4E70124BBE700BF3E
:106878008D64000865640008795F0008555F0008AA
:10688800C95F0008A15F000819600008F15F0008EF
:10689800FD5B0008DD5B00080620FEF797BF014698
:1068A8000620FEF796BF0000014B1878FFF7F7BFE8
:1068B80045190020044B187800F0040040F0190036
:1068C8001870FFF7ECBF00BF45190020014B18787E
:1068D800C00870474519002008B50A4B1878820788
:1068E8000FD440F002001870FFF7D9FF064B1B7851
:1068F800DB0702D50548FEF753F8BDE8084000F06D
:1069080011BA08BD45190020E80F00206ABB00082D
:1069180008B50B4B1878820710D56FF34100187033
:10692800C0B2FFF7BCFF074B1B78DB0702D5064850
:10693800FEF736F8BDE8084000F01EBA08BD00BFF3
:1069480045190020E80F002086BB00080A4B10B547
:106958001C780A4BC4F340041B78DB0703D5214697
:106968000748FEF71DF81CB1BDE81040FFF7D0BF7F
:10697800BDE81040FFF7B0BF45190020E80F002020
:10698800A3BB0008024B1878C0F34000704700BF53
:1069980045190020014B1878704700BF230C0020D0
:1069A80008B5FDF707F818B9FDF790F8FFF782FF6B
:1069B800FFF772FF1F2888BF0322074B187084BF98
:1069C80062F3C70018701B7813F0010018BFD808CD
:1069D80000F07CF908BD00BF4519002010B50F4C28
:1069E8002378172B4FEAD3029EBF013262F3C70305
:1069F8002370207840F001002070FFF750FF084B0B
:106A08001B78DB0704D521780648C908FDF7C8FFBD
:106A18002078C00800F05AF910BD00BF45190020C1
:106A2800E80F0020C3BB000810B50F4C207810F009
:106A3800F80F0BD0083810F0F80F14BF012300230B
:106A480063F300002070C0B2FFF729FF074B1B78E3
:106A5800DB0704D521780648C908FDF7A1FF20788F
:106A6800C00800F033F910BD45190020E80F0020D8
:106A7800DBBB000810B50E4C2378DA0717D443F0B7
:106A88000103012B04BF1A4663F3C702237008BF32
:106A980022702078FFF703FF064B1B78DB0702D52F
:106AA8000548FDF77DFF2078C00800F00FF910BDFC
:106AB80045190020E80F0020F3BB000808B50A4B71
:106AC8001878C2070FD56FF300001870C0B2FFF72F
:106AD800E6FE064B1B78DB0702D50548FDF760FF8D
:106AE800002000F0F3F808BD45190020E80F002049
:106AF80005BC00080A4B10B51C780A4B04F00104C9
:106B08001B78DB0703D521460748FDF749FF1CB171
:106B1800BDE81040FFF7D2BFBDE81040FFF7AABF9D
:106B280045190020E80F002018BC000810B5144CC7
:106B38002378C3F3C402013202F01F02032A94BF70
:106B480062F3C7036FF3C7032370207810F0F80FC0
:106B580014BF0123002363F300002070C0B2FFF7C5
:106B68009EFE084B1B78DB0704D521780648C90828
:106B7800FDF716FF2078C00800F0A8F810BD00BF88
:106B880045190020E80F00202EBC0008032828BF64
:106B98000320084A08B5137860F3C70313F0F80F09
:106BA80014BF0121002161F30003137000F08EF877
:106BB80008BD00BF4519002008B5FFF7E7FF034BE4
:106BC8001878BDE80840FFF76ABE00BF45190020E5
:106BD80008B50346887800B3A3F5B9433B3B062BB9
:106BE80009D8DFE803F004090B0E1114170003207D
:106BF800FFF7E2FF002008BD0020F9E7FFF714FFC8
:106C0800F8E7FFF7EBFEF5E7FFF774FFF2E7FFF7AA
:106C18008DFFEFE7FFF79AFEECE70120EBE70000B6
:106C280038B50546FFF7B6FE244A0102138840002E
:106C38000133B3FBF1F401FB143380B29BB2138030
:106C4800B3FBF0F31E4A03F07F03D45C0323240252
:106C5800B4FBF3F4FFF73AFE41F27B4200FB04F386
:106C68009BB2934218D80922B3FBF2F3202282F395
:106C78001188EA68022142F00402EA60114A2846B3
:106C8800926853434FF6FF72B3FBF2F203F0D6F962
:106C9800002383F3118838BD03F523530A4A36339A
:106CA8001B02B3FBF2F303FB03F253431B0AB3F5D6
:106CB800803F0CBF4FF6FF739BB2D7E7201400202C
:106CC80042BC0008C41A0020F5280100032804D893
:106CD80020B90221104802F0A4BA03200322C0EB15
:106CE8000040B0FBF2F202F523520C4B363212028E
:106CF800B2FBF3F202FB02F35A43130A4FF6FF7298
:106D0800B3F5803F08BF1346034881684B4302210F
:106D1800B3FBF2F202F075BAC41A0020F52801009C
:106D280070470000024B034A03489A6002F08ABA8F
:106D3800240C0020296C0008C41A002008B5102271
:106D480001210A4802F094FF012309490948CB614F
:106D580002F046FAFFF7BAFDFFF7B8FFFFF712FE99
:106D680018B1BDE80840FFF7DDBF08BD000C0140C1
:106D7800240C0020C41A0020002208B5054B064840
:106D88009A6002F069FAFFF7A1FDBDE80840FFF735
:106D98009DBF00BF240C0020C41A0020C1F10301CC
:106DA800490040FA01F3022213F0010F14BF0E2329
:106DB800082302FA01F101421ABFA3F12000C0B270
:106DC80043F080007047000010B5094C1022802164
:106DD800084802F04DFF204602F079FA204606499D
:106DE80002F04EFA2046BDE8104002F057BA00BF44
:106DF800641A002000080140C4BC00082DE9F04FC7
:106E08002B4C064623780F4685B01BB9FFF7DCFFED
:106E18000123237000254FF00C09DFF89880ECB2AD
:106E2800BC4208D34FF4C471224A234805B0BDE8D8
:106E3800F04F02F040BA002104EB440309FB04F4CC
:106E4800F21892F801B092F802A0F35C221D4244B5
:106E58001846CDE902120193FFF7A0FF0299039AA1
:106E680001310429019B02F8010BF1D1002104F141
:106E7800080343445846CDE90113FFF78FFF0199F2
:106E8800029B0131042903F8010BF3D14FF0000BE9
:106E98000C34444459465046FFF780FF0BF1010B70
:106EA800BBF1040F04F8010BF4D10135B7E700BFBB
:106EB8002214002023140020641A002008B5FBF7D0
:106EC8004BFB08BD2DE9F74F00240126DFF8688049
:106ED8001A4F1B4D58F8042B013422F00F0302F00F
:106EE8000F091846032206FA09F1019302F0C0FEC1
:106EF80057F8042B22F00F0B02F00F0A5846032212
:106F080006FA0AF102F0B4FE019B032C9A68DBF83A
:106F1800083022FA09F223FA0AF34FEA430303F08E
:106F2800020302F0010243EA020305F8013BD1D152
:106F380003B0BDE8F08F00BFE8BD0008F4BD00084D
:106F4800AE1500202DE9F84F0024A246DFF8BCB0AA
:106F5800DFF8BC802F4F304E304DDFF8C49058F822
:106F6800040B57F804CB20F00F039A682CF00F039A
:106F78009B680CF00F0C23FA0CF300F00F005B0079
:106F8800C2409BF8001002F0010203F00203134311
:106F980043EA8103DBB20BF8013B03F00F0396F9D8
:106FA800002019F8033013445BB2032B06F8013BA9
:106FB80029DD2B780021013320462B70FFF77EFF57
:106FC800012216F9013C033307DA2B780121013B32
:106FD80020462B70FFF772FF012216F9013C01349D
:106FE800594201F00301E4B203F0030358BF4B42D6
:106FF800032C06F8013C42EA0A0A05F10105AED164
:107008005046BDE8F88F0022DBE700BFAE15002030
:10701800E8BD0008F4BD0008AB150020B11500203C
:10702800D8BD0008232008B5FEF7D0FB212801D0E1
:10703800002008BD2420FEF7C9FB0928F8D1252027
:10704800FEF7C4FBA0F1180358425841F1E710B508
:10705800041E14BF2121FF212320FEF7BAFB002CB8
:1070680014BF0921FF212420FEF7B3FB002C18BF11
:107078001821BDE8104008BFFF212520FEF7A9BB55
:10708800704708B52620FEF7A1FB08BDC1B226202F
:10709800FEF79FBB08B50020FFF7D9FF0020FFF7D8
:1070A800F5FF00F091F900F025FABDE8084001204D
:1070B800FFF7CDBF08B5FFF7E3FFFFF7B3FF18B938
:1070C800BDE80840FFF7E6BF08BD10B58C78FCB1F5
:1070D800A0F5BE43123B0F2B24D81238C0B200F0E3
:1070E80015FA0024204610BD0120FBF7BFFF03223C
:1070F80002210120FBF79EFAF3E70120FBF7C2FF0C
:10710800032202210120FBF795FAEBE70220F5E7BD
:1071180045F610739842F0D045F611739842F5D0B1
:107128000124DFE745F610739842DDD045F6117368
:107138009842D7D10220D8E7FF230370704710B5D3
:1071480003780446092B02D00A2B08D010BDFFF79C
:10715800BDFB00EB800303EB03136370F6E7FFF757
:1071680011FC6070F2E70378092B02D00A2B06D0D5
:10717800704755234078B0FBF3F0FFF707BD43781D
:107188000BB9FFF7C5BBFFF7A7BB10B503780446DB
:10719800803B032B06D8DFE803F00206090CFEF754
:1071A80063FD607010BDFEF7FDFCFAE7FEF726FDF3
:1071B800F7E7FEF74DFD6070FEF750FDA070F1E7B0
:1071C80038B503780446803B032B28D8DFE803F062
:1071D800020E1B20FEF73CFD0546FEF73FFD01466B
:1071E80062782846BDE83840FEF715BF4078FFF7BB
:1071F80069F963781BB9BDE83840FFF717BABDE8ED
:107208003840FFF7B5B94078BDE83840FEF71CBDF7
:1072180084784578FEF728FD21460246E1E738BD27
:10722800F8B5054615F8013B0446013B0E46122BFE
:1072380000F29F80DFE803F00A143B444A53565D8E
:10724800649D9D696D737C85888B940000234370D1
:107258000923837031462046BDE8F84001F0BAB8EA
:107268004378022B0DD0032B0ED0012B1AD100F03E
:10727800FDFC030EA370030CE370030A2371607115
:10728800E8E7FFF7FEFEF4E707460025E8B2FCF75B
:1072980025FF0135030A052DBB70F87007F10207B9
:1072A800F4D1D7E731462046FFF746FFD2E74378C7
:1072B800022BF7D1D0F8020000BAFFF7E7FEC9E7C2
:1072C800C2788178407800F062F8D6E78388C2787F
:1072D8005BBA81789BB2407800F067F8BAE700F0B3
:1072E80073F8B7E72846FFF73EFF2846FFF768FF21
:1072F800B0E72846FFF723FF2846FFF746FFA9E730
:10730800FFF7D2FAFEF7F0FBA4E700F0C3F86070CD
:10731800A0E700F0C1F8030A6370A0709AE7B0F81C
:107328000100E17840BA221D80B200F0B8F891E778
:10733800B0F80100E17840BA221D80B200F0C6F82A
:1073480088E700F0D7F885E700F016F8DFE7B0F82F
:107358000100E17840BA221D80B200F05DF879E7BB
:10736800B0F80100E17840BA221D80B200F06BF855
:1073780070E7FF2303706DE7042070471E23520057
:1073880003FB0122962101FB00202730704738B506
:10739800FFF7F4FF0546FEF719FA0402681CFEF72A
:1073A80015FAA4B2204380B238BD38B51C46FFF7A1
:1073B800E5FF0546210AFEF70CFAE1B2681CBDE8B4
:1073C8003840FEF706BA00002DE9F84F0024DFF830
:1073D8004480474600255FFA84FA0EE0F2B2594627
:1073E800504639F8023B0136FFF7DFFF0F2EF5D183
:1073F8000135052D07F11E0704D0B94600265FFAAE
:1074080085FBEBE70134042C08F19608E1D1BDE8CF
:10741800F88F00BFDAAA0008F8B51446002700F173
:1074280027055618B44200D1F8BDA5F12703B3F5D6
:10743800167F06DA2846FEF7C9F9207001350134AF
:10744800F0E72770FAE770B5144600F127055618DB
:10745800B44200D170BDA5F12703B3F5167F03DA56
:1074680028462178FEF7B5F901340135F0E782B0F6
:107478000328ADF804100AD89DF80510042906D889
:107488009DF804200E2A02D802B0FFF780BF002022
:1074980002B070471020704740F281107047F8B56D
:1074A8001446002700F27F255618B44200D1F8BDD3
:1074B800A5F27F23B3F5C07F06DC2846FEF786F9E0
:1074C800207001350134F0E72770FAE770B51446EB
:1074D80000F27F255618B44200D170BDA5F27F2373
:1074E800B3F5C07F03DC28462178FEF772F9013432
:1074F8000135F0E710B540F27F2420460021013421
:10750800FEF767F9B4F5806FF7D110BD0F28F7B50E
:10751800044620D840F2FF30FEF758F9D8B940F2B7
:107528007F25D4B9012701942846FEF74FF96E1C30
:107538008DF804008DF8054068B1431E022B17D85A
:107548008DF8050030468DF80470FEF73FF90235D6
:107558008DF8060068B903B0F0BDB5F5806FFAD0B4
:107568002846FEF733F908B9013CE4B20135D8E7FB
:10757800354601A8FBF782F9D6E70000F8B51446AE
:1075880082781D469DF81870284B92B11C7000F047
:107598008BFB274B188004F12003DBB2072B44D860
:1075A800012004F00704A040C0B2BDE8F840FBF792
:1075B800A4BA1E78A6422ED11D4B188800F079FB7C
:1075C800C72828D8AE4205F1200415D006F12003BB
:1075D800DBB2072B06D8012006F00706B040C0B280
:1075E800FBF794FAE3B2072B06D8012005F007034E
:1075F8009840C0B2FBF781FA3846E4B2FBF777FA55
:10760800072C12D8012005F00705A840C0B2BDE834
:10761800F840FBF77BBA04F12003DBB2072B04D850
:10762800012004F00704A040F0E7F8BDB4150020DD
:10763800B615002013B545F6F64304469C420846A5
:107648000FD845F6F2439C4212D845F6D8439C42DF
:107658001DD045F6D9439C423ED045F6D7439C42BF
:107668000FD0807800283BD000221E4B1A701CE0F7
:10767800A4F5B944743C022C0ED8DFE804F0181FB6
:10768800260026230093E1231A4621460AE02723F1
:107698000093E523E522F8E72623E022009345F648
:1076A800F341E123FFF76AFF002002B010BD272352
:1076B800E422009345F6F441E523F3E72623E2228A
:1076C800009345F6F541E123ECE72723E6220093F2
:1076D80045F6F641E523E5E7282300930123D9E79A
:1076E8000120E2E7B415002038B50546887800285F
:1076F80000F0CF8045F615439D4216D845F6014364
:107708009D4217D9FCF76AF945F61543624C9D422C
:10771800208021D845F601439D420CD82088FCF7EB
:1077280069F9FBF716FC002004E0A5F5B9437A3B9C
:10773800082BE7D938BDA5F5B845033D122D1AD851
:10774800DFE805F01E222633373B3F455155595D8A
:10775800696D71757B978300A5F5B9457A3DABB224
:10776800082BDBD8082DD9D8DFE805F0161B4D51BA
:10777800376B7A8D9100237843F001032370CDE7AE
:10778800237843F00203F9E7237843F00403F5E78D
:10779800237843F00803F1E7637843F0010363704B
:1077A800BCE7637843F00203F9E7237843F010035A
:1077B800E4E7237843F02003E0E7237843F040032D
:1077C800DCE7FBF7C6FB237843F08003D6E7237892
:1077D80023F00C0343F00C03D0E7637823F0030392
:1077E80043F00303DBE723786FF30003C6E723784E
:1077F8006FF34103C2E723786FF38203BEE7237870
:107808006FF3C303BAE763786FF30003C7E76378DE
:107818006FF34103C3E723786FF30413AEE72378CC
:107828006FF34513AAE723786FF38613A6E7FBF7F0
:1078380090FB23786FF3C713A0E7237823F00C039A
:107848009CE7637823F00303A9E72378C3F3800256
:1078580082F00102D2B262F3820362F3C3038DE7BE
:107868006378DA4302F0010262F3000362F3410332
:1078780095E7FBF76EFB2378C3F3C01282F0010291
:1078880062F3C7137AE70120FCF722F946E70020E4
:10789800FAE701204EE700BFE018002045F616433E
:1078A800984210B50C461BD1FBF79AFFA2780D4BF6
:1078B80072B100F0AA00002815BF0122002235206D
:1078C80029201A70FBF72AFFFBF7FCFF002010BDE8
:1078D8001B78002B14BF35202920FBF727FFF3E77F
:1078E8000120F4E7B8150020014B1860704700BF6D
:1078F800BC150020024B186808B103681847704788
:10790800BC150020F8B5194B04461B68002B2CD079
:10791800174A127842B1174A92F90020002ABFBFCD
:107928000278427005220270134D20465B68984722
:107938002B78580719D5D90702D51048FDF730F824
:107948000F4F04F108062B78DA0703D5384621785B
:10795800FDF726F80134B442F5D12B78DB0704D5BE
:10796800BDE8F8400748FDF71BB8F8BDBC15002076
:10797800000F0020E0180020E80F002000BE0008DB
:1079880012BE0008D9B80008034A12681AB10221C9
:107998000170936818477047BC150020054A118884
:1079A800814205D0044B10801B680BB1DB68184777
:1079B800704700BFC2150020BC150020054A118879
:1079C800814205D0044B10801B680BB11B69184716
:1079D800704700BFC0150020BC1500200C4B821C4E
:1079E8001B7863B10B4B93F90030002BACBF062317
:1079F8001E230020013BDBB2FF2B02D17047062378
:107A0800F7E712F8011B0029F4D00130C0B2F1E702
:107A1800000F0020E0180020F9B1124B1B78A3B129
:107A2800114B93F90030002B0FDAEF294FEAD102FE
:107A380013D80123104401F0070103FA01F18378F8
:107A4800194214BF012000207047831C083013F826
:107A5800012B8A4203D08342F9D1002070470120CC
:107A6800704700BF000F0020E01800204FF0FF32E1
:107A7800002330B5841C14F8015B8D420ED0B2F19E
:107A8800FF3F02D1002D08BF1A460133DDB2062D93
:107A98005BB2F0D1531C01D01044817030BD00227C
:107AA80010B5831C083013F8014B8C4208BF03F84B
:107AB800012C8342F7D110BDEF294FEAD10209D832
:107AC80001F0070301211044827801FA03F31343FC
