:100000000C94CB040C940F050C942A050C940F054A
:100010000C940F050C940F050C940F050C940F0510
:100020000C940F050C9419220C94F5210C940F05D7
:100030000C940F050C940F050C940F050C940F05F0
:100040000C940F050C940F050C940F050C940F05E0
:100050000C940F05000000000000000000000000EC
:100060000000000000000000000000000000000090
:1000700000000000000000007E0F00D4FFFFFFC75B
:100080000000007800000000000000002A2B28007B
:100090000000000000000000000000000000002937
:1000A000000000002C1E3420212224342627252E77
:1000B000362D3738271E1F202122232425263333AF
:1000C000362E37381F0405060708090A0B0C0D0EDB
:1000D0000F101112131415161718191A1B1C1D2FA7
:1000E0003130232D350405060708090A0B0C0D0EC7
:1000F0000F101112131415161718191A1B1C1D2F87
:100100003130354C1E0F0500047F3F1F64321464EC
:100110003214783C1E1E140A050001010101010180
:1001200001010102020202020202020203030303AE
:10013000030303030404040404040405050505057E
:10014000060606060607070707070808080809093C
:1001500009090A0A0A0B0B0B0C0C0C0D0D0D0E0EE7
:100160000E0F0F0F1010111111121213131414157A
:100170001516161717181819191A1A1B1B1C1D1DEE
:100180001E1E1F2020212222232424252626272844
:1001900029292A2B2C2D2D2E2F3031323233343574
:1001A000363738393A3B3C3D3E3F40414243444577
:1001B000464748494A4C4D4E4F5051535455565856
:1001C000595A5B5D5E5F616264656668696B6C6D00
:1001D0006F7072737577787A7B7D7E808283858776
:1001E000888A8C8E8F91939596989A9C9EA0A2A3B4
:1001F000A5A7A9ABADAFB1B3B5B7BABCBEC0C2C4B9
:10020000C6C9CBCDCFD1D4D6D8DBDDDFE2E4E7E978
:10021000EBEEF0F3F5F8FAFDFFFFAA7F554022233D
:10022000252628292A2C2D2F3032333536383A3BD3
:100230003D3E4042434547494A4C4E505153555725
:10024000595A5C5E6062646668696B6D6F71737544
:1002500077797B7D7F81838587898A8C8E90929444
:1002600096989A9C9E9FA1A3A5A7A8AAACAEAFB151
:10027000B3B4B6B8B9BBBCBEBFC1C2C3C5C6C7C99B
:10028000CACBCCCDCED0D1D2D2D3D4D5D6D7D7D855
:10029000D9D9DADADBDBDBDCDCDCDCDCDDDDDDDDA7
:1002A000DCDCDCDCDCDBDBDBDADAD9D9D8D7D7D6AF
:1002B000D5D4D3D2D2D1D0CECDCCCBCAC9C7C6C566
:1002C000C3C2C1BFBEBCBBB9B8B6B4B3B1AFAEACAC
:1002D000AAA8A7A5A3A19F9E9C9A98969492908E57
:1002E0008C8A89878583817F7D7B79777573716F30
:1002F0006D6B6968666462605E5C5A59575553510C
:10030000504E4C4A4947454342403E3D3B3A3836C1
:10031000353332302F2D2C2A292826252322000080
:1003200000000000000000000001010203040506B7
:10033000080A0C0F1114181C2024292E33393F46AB
:100340004C535B626A7179818A929AA2AAB2B9C14E
:10035000C8CFD5DCE1E7EBF0F4F7FAFCFDFEFFFED9
:10036000FDFCFAF7F4F0EBE7E1DCD5CFC8C1B9B298
:10037000AAA29A928A8179716A625B534C463F398C
:10038000332E2924201C1814110F0C0A080605040A
:10039000030201010000000000000000000029002D
:1003A0003A003B003C003D003E003F004000410061
:1003B00042004300440045004C00680049004A00E8
:1003C0004B00460035001E001F00200021002200C7
:1003D000230024002500260027002D002E002A00DF
:1003E000490053005400550048002B0014001A0027
:1003F0000800150017001C0018000C001200130064
:100400002F00300031004C005F006000610056009A
:10041000390004001600070009000A000B000D0057
:100420000E000F00330034002800280000005C009C
:100430005D005E005700E1002C001D001B0006005F
:100440001900050011001000360037003800E500E3
:10045000E500520059005A005B005800E000E3003C
:100460000000E200000000002C000000000000007E
:10047000E600E700E400500051004F006200630016
:10048000580001000100010001000100010001000D
:100490000100010001000100010001000100010054
:1004A0000100010001000100010001000100010044
:1004B0000100010001000100010001000100010034
:1004C0000100010001000100010001000100010024
:1004D0000100010001000100010001000100010014
:1004E0000100010001000100010001000100010004
:1004F00001000100010001000100010001000100F4
:1005000001000100010001000100010001000100E3
:1005100000000100010001000100010001000100D4
:1005200001000100010001000100010001000100C3
:1005300001000100010001000100010001000100B3
:1005400001000100000001000000000001000000A7
:100550000000000001000100010001000100010095
:100560000100010001000100010001000100010083
:100570000100010001000100010001000100010073
:100580000100010001000100010001000100010063
:100590000100010001000100010001000100010053
:1005A0000100010001000100010001000100010043
:1005B0000100010001000100010001000100010033
:1005C0000100010001000100010001000100010023
:1005D0000100010001000100010001000100010013
:1005E0000100010001000100010001000100010003
:1005F00001000100000001000100010001000100F4
:1006000001000100010001000100010001000100E2
:1006100001000100010001000100010001000100D2
:1006200001000100010001000000010000000000C5
:1006300001000000000000000100010001000100B5
:1006400001000100010001000100010001000100A2
:100650000100010001000100010001000100010092
:100660000100010001000100010001000100010082
:100670000100010001000100010001000100010072
:100680000100010001000100010001000100010062
:100690000100010001000100010001000100010052
:1006A0000100010001000100010001000100010042
:1006B0000100010001000100010001000100010032
:1006C0000100010001000100010001000100010022
:1006D0000100010001000100000001000100010013
:1006E0000100010001000100010001000100010002
:1006F00001000100010001000100010001000100F2
:1007000001000100010001000100010000000100E2
:1007100000000000010000000000000001000100D6
:1007200001000100010001000100010001000100C1
:1007300001000100010001000100010001000100B1
:1007400001000100010001000100010001000100A1
:100750000100010001000100010001000100010091
:100760000100010001000100010001000100010081
:100770000100010001000100010001000100010071
:100780000100010001000100010001000100010061
:100790000100010001000100010001000100010051
:1007A0000100010001000100010001000100010041
:1007B0000100010001000100010001000000010032
:1007C0000100010001000100010001000100010021
:1007D0000100010001000100010001000100010011
:1007E0000100010001000100010001000100010001
:1007F00000000100000000000100000000000000F7
:1008000001000100010001000100010001000100E0
:10081000010005010902A10185020901A1000509E4
:1008200019012908150025019508750181020501A6
:10083000093009311581257F95027508810609382F
:100840001581257F950175088106050C0A3802156A
:1008500081257F950175088106C0C005010980A129
:1008600001850319012AB700150126B70095017506
:10087000108100C0050C0901A101850419012AA0FD
:1008800002150126A002950175108100C00660FFC7
:100890000961A1010962150026FF009520750881F4
:1008A000020963150026FF00952075089102C00516
:1008B000010906A101050719E029E71500250195A1
:1008C0000875018102950175088103050719002942
:1008D000FF150026FF00950675088100050819011F
:1008E0002905950575019102950175039103C010C5
:1008F000034F006C006C00790020004A00460000A5
:100900000022034D006500630068006C006F0076F4
:100910000069006E002E00530074007500640069C9
:10092000006F0000000403090409025B00030100DA
:10093000A0FA0904000001030101000921010100DE
:10094000012240000705810308000109040100029B
:100950000300000009210101000122220007058493
:10096000030800010705040308000109040200014F
:1009700003000000092101010001227B000705831B
:100980000308000112011001000000084C4D80D145
:1009900001000102000111241FBECFE5D8E0DEBF37
:1009A000CDBF04B603FE24C08091B8039091B90373
:1009B000A091BA03B091BB038730904BA740B04BD6
:1009C000B9F41092B8031092B9031092BA031092BE
:1009D000BB0314BE84B7877F84BF0FB6F894A89575
:1009E00081B5886181BD11BC0FBEE0E0F8E30995D7
:1009F00023E0A0EEB0E001C01D92A83BB207E1F7F2
:100A000010E0A0E6B0E0E0E8F4E502C005900D9249
:100A1000A03EB107D9F70E947A220C94E6290C94E3
:100A20000000A82FB92F80E090E041E050EA6095E7
:100A300030E009C02D9182279795879510F0842783
:100A40009527305EC8F36F5FA8F30895EADF8D93B2
:100A50009D930895CF93CFB7CF93DF93C395839B97
:100A6000E9F7839B10C0839B0EC0839B0CC0839BC4
:100A70000AC0839B08C0839B06C0C0919203C395A4
:100A8000C09392038EC06F93C0919103DD27CA5625
:100A9000DC4F2F9365E5839B03C02F916F91E1CFCE
:100AA0000F931F934F9320E040E15F9300B30C70CE
:100AB00003FB27F93F9350E03BE039C01C704064D2
:100AC0002F77012F5F5F1EC0406810B31C702F7717
:100AD00052501FC0406400B32F770C70D1F15F5F9C
:100AE00000C023C0406210B32F771C7091F15F5F8C
:100AF00000C025C00C701027515012F45D5F00003B
:100B0000115027952C3F10B3C8F61C7001270150D7
:100B100027952C3FC8F64227499300B30C70102745
:100B20004F73115027952C3FA8F64695469510B364
:100B30001C7079F00127015027952C3F98F66B5ACD
:100B400060F3315000B3B0F600C010E81ABF0027C0
:100B50001CC03B503195C31BD04010E81ABF088120
:100B6000033C21F10B3411F120918F031981110FF6
:100B70001213EDCF4A81441F093679F10D3211F07D
:100B8000013E29F74F7009F0042F009395033F9120
:100B90005F914F911F910F912F916F91CAB7C7FD30
:100BA0005DCFDF91CF91CFBFCF9118952091950365
:100BB000222369F310919303112309F049C03430C3
:100BC0000AF448C03093930320939003109191034B
:100BD0003BE0311B309391033DC000919303013002
:100BE000BCF50AE54F7049F430917D0034FD33C007
:100BF00000937D00CCE6D3E032C0433059F044305E
:100C000091F03091770334FD26C000937703C8E755
:100C1000D3E025C03091AC0334FD1DC00093AC037C
:100C2000CDEAD3E01CC03091830334FD14C000939F
:100C30008303C4E8D3E013C0052710E000C0000020
:100C400002BB1AC0052710E0221F1DC010E021C002
:100C50004AE502C032ED432FC4E1D0E032E011B3E7
:100C60001C60939A02B311BB5CE020E865E320FFAF
:100C7000052702BB279517951C3FF0F66695B8F738
:100C8000B1F720FF052702BB279517951C3FD0F62B
:100C90002795179517FF052700001C3F02BBB0F6EC
:100CA00029913A9519F7037F10919403110FC651BA
:100CB000D04002BB11F010938F0310E81ABF0860F8
:100CC00011B3137F402F437F54E05A95F1F702BBD5
:100CD00011BB42BB5CCFFC018381833089F130F4CE
:100CE0008130F1F0823021F180E00895813209F401
:100CF00046C08232C9F7248135812130310509F49B
:100D00005CC02115310509F450C02230310561F76E
:100D100082E198E090936703809366038BE70895E0
:100D200084E899E0909367038093660382E10895D5
:100D300089E299E090936703809366038BE50895B9
:100D400082818130A1F0882351F0823069F68FEEE4
:100D500098E0909367038093660380E1089585E2AD
:100D600099E0909367038093660384E0089581E09F
:100D700099E0909367038093660382E208958281ED
:100D8000813081F0882331F0823009F0ADCF84E7E3
:100D900099E002C08BE399E0909367038093660328
:100DA00089E0089584E599E0F7CF8FEA98E0909381
:100DB00067038093660380E408952DE838E030935C
:100DC000670320936603089580916103089588E185
:100DD00098E00FB6F894A89581BD0FBE91BDA89577
:100DE000F894D8E0CEE528E3299320E0299314BEB7
:100DF000FFCF08959C014FB7F8948091AA0290917B
:100E0000AB02A091AC02B091AD024FBF821B930B1D
:100E100008952FB7F8948091AA029091AB02A09107
:100E2000AC02B091AD022FBF08959C01FC01329637
:100E30009FEF80E04191461751F09F3F19F4411117
:100E400001C0982F8F5F8630A9F79F3F09F408955E
:100E5000290F311D97FD3A95F9016283089520917C
:100E60009E0230919F022817390771F090939F02DC
:100E700080939E02E0919C02F0919D02309721F0B8
:100E80000084F185E02D0994089520919A02309113
:100E90009B022817390771F090939B0280939A0266
:100EA000E0919C02F0919D02309721F00680F7813D
:100EB000E02D09940895E0919C02F0919D023097F5
:100EC00021F00190F081E02D099480E00895CF9207
:100ED000DF92EF92FF928C3724E1920750F469E0A1
:100EE00070E00E948328CB01FF90EF90DF90CF90BD
:100EF0000895B0E0A0E0BC01CD016A50774D8F4F5E
:100F00009F4F982F872F762F662725EF38E241E0F5
:100F100050E00E94B52969017A01CA01B9010E9415
:100F200065289B01AC01C701B6010E946528672FA7
:100F3000782F892F99276115710521E08207910586
:100F400091F66FEF7FEFCFCF8430C0F4811117C0DF
:100F50009FB59F7D9FBD9498282F30E0AFEFBFEFE6
:100F60000E94D72923E030E040E050E00E94B529FC
:100F7000C9010E94670799BD88BD089583E09FB5A8
:100F800090629FBDE9CF282F220F220F220F909150
:100F900096029770922B90939602987F21E009F425
:100FA00020E09091960220FB90F9909396020C9489
:100FB000A407FA01811101C0FB01099408958091F1
:100FC000A302982F9E7F29F4817082608093A302F0
:100FD00008958635E8F381708465F8CFAF92BF92AB
:100FE000DF92EF92FF920F931F93CF93DF93082F1F
:100FF000162FE901E42FF0E0E75EFE4F611110C00B
:10100000E4915E2F4E2F4983E8835A83DF91CF917D
:101010001F910F91FF90EF90DF90BF90AF900895D8
:10102000E62EF12C4491D42EE42FF0E026E0829FAE
:10103000C00111242FEF30E0B9010E948328802FD6
:1010400090E0880F991F55E5569FD001579FB00D2E
:1010500011248A1B9B0B982F990F890F5901AE18E9
:10106000BF08AE9ED001AF9EB00DBE9EB00D112444
:101070005B2F189F80011124012F11275901A01AFD
:10108000B10AAE9E8001AF9E100DBE9E100D1124C0
:101090005901A81AB108AE9CC001AF9C900DBE9C2E
:1010A000900D1124892F9927281B390B2E9FC001E1
:1010B0002F9F900D3E9F900D1124E92F62307105F6
:1010C000A1F050F46115710509F49DCF61307105EF
:1010D00081F0EB2F512F97CF6430710569F080F0CC
:1010E0006630710509F48FCFF4CFE42F4B2F592FC1
:1010F0008ACFE42F412F87CFEB2F542F492F83CF57
:101100004B2F5D2DE12F7FCF0E9409079C0190910D
:10111000B1018091B201982B21F03093AE01209360
:10112000AD019091B3018091B401982B21F03093DF
:10113000AC012093AB01E0919C02F0919D023097AD
:1011400049F082E08093AF010480F581E02D8FEAC1
:1011500091E0099408954091B101803F59F4809144
:10116000B20187FF0DC01092B20141110BC0109265
:10117000A90108C0813F81F48091B20118169CF347
:10118000442381F08091B3019091B401892B09F03F
:101190005AC01092A8010895823F49F447FFF0CF4A
:1011A0001092B1018091B2018111ECCFE0CF833F69
:1011B00019F41416ACF3E4CF9091B301893F29F4EC
:1011C0001916F4F61092B301DBCF8A3F19F497FF9A
:1011D000D7CFF8CF9091B4018B3F29F497FFD0CFB0
:1011E0001092B401CDCF8C3F19F41916CCF3C8CFAF
:1011F0009CE0980F953090F4845F990B21E030E0EB
:10120000B90102C0660F771F8A95E2F7CB0180957E
:101210009091B00189238093B001B2CF8D3F31F41A
:101220008091AA018E7F8093AA01AACF8E3F21F4DC
:101230008091AA018D7FF7CF8F3F09F0A1CF8091D8
:10124000AA018B7FF0CF08958091AA0180FD16C07E
:1012500081FD16C082FD16C08091A8018823A1F0EF
:10126000883280F428E0829FC001112468E270E097
:101270000E949728862F672B39F0089582E0089501
:1012800084E0089588E0089581E008958091AA019E
:1012900080FD14C081FD14C082FD16C08091A9019B
:1012A000882381F0843180F422E3829FC0011124DD
:1012B00064E170E00E949728862F08958CE00895DD
:1012C00089E1089585E0089582E30895803F31F42F
:1012D0000E94460981958093B2010895813F19F4D7
:1012E0000E944609F8CF823F31F40E944609819559
:1012F0008093B1010895833F19F40E944609F8CF05
:10130000893F29F40E9424098093B30108958A3FFC
:1013100021F40E9424098195F7CF8B3F31F40E947C
:10132000240981958093B40108958C3F19F40E949B
:101330002409F8CF9CE0980F953070F4845F990BE6
:1013400021E030E001C0220F8A95EAF78091B001D8
:10135000822B8093B00108958D3F31F48091AA01D2
:1013600081608093AA0108958E3F21F48091AA01A3
:101370008260F7CF8F3FB9F78091AA018460F1CFE7
:1013800080E008959091590192FF06C0282F28719E
:101390002830F9F4877F846093FF06C0282F2871D6
:1013A0002831F1F4877E846120915A0120FF06C024
:1013B000382F38713830D9F4877F816021FF06C01B
:1013C000282F28712831D1F4877E816194FD877E92
:1013D0000895282F24712430F9F68B7F8860DCCFA4
:1013E000282F2471243101F78B7E8861DDCF382FBF
:1013F0003171313019F78E7F8860E0CF282F21714D
:10140000213121F78E7E8861E1CFCF93DF93EC010C
:1014100082389105A9F1D8F58133910509F496C078
:1014200048F58932910509F48AC08A9709F495C074
:10143000C11521E5D20708F0BCC0C11530E5D307BE
:1014400008F014C1C83ED10508F09CC0C03ED105CB
:1014500060F5C83AD10508F087C0C53AD10508F053
:10146000FDC0C130D10509F12097F9F0C430D10594
:10147000E0F440C08533910509F45AC0C997C1F61C
:1014800080915901837089F0C0EED0E00EC0833E98
:10149000910599F170F4803E910501F1823E91052C
:1014A00039F68091590182FD21C0CE01DF91CF91A3
:1014B0000895863E910561F1873E910571F1843E64
:1014C000910509F0B5CF80915A0181FFEECF80914F
:1014D0005901C7EED0E084FD0DC0E7CF80915901DE
:1014E00080FD12C190915A0190FFDFCFC3EED0E092
:1014F00084FFDBCFD0E0C0E0D8CF8091590182FDDE
:1015000006C190915A0190FDBFCF84FFCECFF2CF9C
:101510008091590183FDDDCFC8CF8091590183FDB2
:10152000F9C090915A0191FFF0CFC4EED0E0BDCF49
:101530008091590185FFB9CFC9E2D0E0B6CF809143
:10154000590185FFB2CFC5E3D0E0AFCF80915901FB
:1015500086FFABCFCAE2D0E0A8CF8091590186FFC9
:10156000A4CFC1E3D0E0A1CFCF3BD10518F6C85A34
:10157000D0E0CC0FDD1FCF57DF4F0990D881C02DB1
:10158000D46493CFC11540E2D40758F4C11581E06B
:10159000D80708F08ACFC03FD10508F4ABCFD0659B
:1015A00084CFC11590E4D90708F4A4CFDF70D06AC6
:1015B0007CCFC11525E5D20700F5C11534E5D30769
:1015C00008F08AC0C11543E5D40708F071C0C11501
:1015D00082E5D80708F467C0CE018370992721E01F
:1015E00030E002C0220F331F8A95E2F7C695C695F8
:1015F00080E2C89FE001112452C0C11599E5D907C6
:10160000A8F4C11528E5D20708F06BC0C11536E56E
:10161000D30708F06FCF8C2F0E94C209C82FD0E0EB
:10162000DC2FCC27CC27DF71D0623FCFC1154AE534
:10163000D40708F45BC0CE0190568115904208F0A3
:1016400059CF8D2F8F710E94C20990E0982F882763
:1016500088279F719C012C2BE901E6CFC55AD0E069
:10166000C258DF4FC881D0E0D0641FCFCE01E4E084
:1016700096958795EA95E1F783702C2F2695269508
:10168000237040E2249F90011124382B8C2F83700B
:10169000C1E0D0E002C0CC0FDD1F8A95E2F7C22B7B
:1016A000D32BDC6802CFDC2FCC27C16FD06AFDCEF4
:1016B000CE018370992721E030E002C0220F331F52
:1016C0008A95E2F7C695C69590E2C99FE00111247C
:1016D000C22BD32BDA68E9CEDC2FCC27C46FD06ABB
:1016E000E4CEDC2FCC27C06FD06ADFCE8C2F8F707A
:1016F0000E94C20934E0D695C7953A95E1F7CF70BC
:101700009C2FEC01D069D1CEC9E3D0E0CECEC2EEA1
:10171000D0E0CBCEC6EED0E0C8CE8091540181118E
:101720001092540108958091530190915201892B98
:1017300090915101892B8093E2009091540199235B
:1017400091F0892B8093E20020E084EE90E0FC0190
:101750003191CF0131112F5FF0E08A3E9F07B9F739
:1017600021110E948D0BE0919C02F0919D02309717
:1017700031F00280F381E02D82EE90E0099408952B
:1017800080914F0190911E01981301C008958F5FC1
:101790008770FACF23E1929F800D1124982F9770C4
:1017A00086958695869523E0829FF0011124E55168
:1017B000FF4F50E040E080E0219130E0092E02C070
:1017C000369527950A94E2F721703327042E01C03D
:1017D000220F0A94EAF7822B4F5F5F4F4330510587
:1017E00059F7089523E1929F800D1124982F977047
:1017F00041E001C0440F9A95EAF786958695869553
:1018000093E0899FF0011124E551FF4F90E080E0C3
:1018100070E05191DF0111979B01082E02C03695AF
:1018200027950A94E2F7217021952527242325275F
:101830002C9301968330910561F7089590E080E044
:101840000E94450790E080E00E942F07109252010D
:10185000109251010E94930B86E0EFEAF1E0DF0164
:101860001D928A95E9F71092A9011092A801109291
:10187000AA010C948408809355010C941E0C8823B3
:1018800041F08095909153018923809353010C94EA
:10189000930B0895882339F090915301982B9093DE
:1018A00053010C94930B08958823F1F19CEF980F4A
:1018B000913A78F4E4EEF0E02AEE30E09191891369
:1018C00003C0DF0111971C922E173F07B9F70C9444
:1018D000930B90E2980F983088F4877021E030E005
:1018E000A90102C0440F551F8A95E2F7CA018095ED
:1018F00090915301892380935301E9CF9BE5980F81
:10190000933020F490E080E00C94450798E5980F20
:10191000973120F490E080E00C942F07803F20F076
:101920000E94AB080C9484080895CF93C82F882395
:1019300009F456C08CEF8C0F813AF8F4E4EEF0E035
:101940008AEE90E0DF012D91C21759F08A179B07AC
:10195000D1F76C2F82EE90E00E941507CF910C9486
:10196000930B2191C21303C0DF0111971C928E17B4
:101970009F07B9F70E94930BECCF80E28C0F883061
:1019800068F4C77021E030E001C0220FCA95EAF781
:1019900080915301822B80935301E0CFEBE5EC0F54
:1019A000E33040F4F0E0E258FF4F808190E0CF91C7
:1019B0000C944507E8E5EC0FE73150F4F0E0EE0F4A
:1019C000FF1FEF57FF4F80819181CF910C942F071C
:1019D000C03F30F08C2F0E946609CF910C94840890
:1019E000CF91089580FF08C0C19A81FF07C0C09AB7
:1019F00082FF06C0C29A0895C198F7CFC098F8CF69
:101A0000C2980895882381F081FF0EC0919A82FFC9
:101A10000EC0909A83FF0EC0A99A84FF0EC0A89AA8
:101A200085FF0EC0AE9A089591988111F0CF9098DD
:101A30008111F0CFA9988111F0CFA8988111F0CF32
:101A4000AE9808950E94020D80936B030C941E0CB7
:101A500080916B03982F9670963019F488600C94DF
:101A6000220D877FFCCF21E030E001C0220F8A9554
:101A7000EAF7209580916B0382230C94220D9091BC
:101A800050018095892380935001282F277039F4C5
:101A9000282F082E000C330B9217130621F4909177
:101AA0005A0192FF07C08595859585950E94330D53
:101AB00010925001089521E030E001C0220F8A9574
:101AC000EAF780916B03822B0C94220DCF93DF9366
:101AD00080919303835087FD14C090919103CCE0D3
:101AE000D0E0C91BD109CA56DC4F909190039031C8
:101AF00008F06BC0883009F453C01092560310925E
:101B0000930380917D0084FF3EC080917C008F3FD5
:101B1000D1F1C82F893008F0C8E0982F9C1B909312
:101B20007C0090916C0328E8922790936C038823A3
:101B3000E9F080916603909167032091650326FF89
:101B400006C1FC012C2FADE6B3E034913D933196F4
:101B50002150D9F79C012F5F3F4F8FEF8C0F820FE1
:101B6000932F911D90936703809366036C2F8DE6EE
:101B700093E00E942605CC5FCC3019F08FEF809364
:101B80007C00C0937D0084E190B39C7031F481505F
:101B9000D9F71092940310928F03DF91CF9108959B
:101BA00080915603893108F0A8CFE82FF0E0EA5C75
:101BB000FC4F9E01285F3F4F999191932C173D0751
:101BC000D9F7885F809356039ACF9D3209F0A3C05E
:101BD000883009F094CF83EC80936C038AE580937E
:101BE0007D00109265038881807609F447C08032B9
:101BF00029F58981813099F48C819D81892BF1F4BB
:101C000088E593E0909367038093660388E09F8163
:101C1000911131C09E81981770F5892F2CC08230A8
:101C200041F487E593E0909367038093660381E036
:101C3000EECF8A3029F48B818093570380E0E7CF81
:101C40008930E1F78A819B818115924069F48C810A
:101C50009D81892B49F481E0809364038E819F816B
:101C60009093630380936203888187FF52C08E81C3
:101C700090E89093650380937C0041CF2A81109275
:101C80007503998191110AC01092760325E733E01C
:101C900082E03093670320936603B9CF953029F42F
:101CA0002093940325E733E0F4CF9630C1F49B8171
:101CB000913049F4CE010E946B0690E49093650345
:101CC0008F3F91F2A4CF9230A9F3933099F39132E0
:101CD00089F3923279F390E49093650398CF98302A
:101CE00089F0993019F420936003DCCF9A3071F0B9
:101CF0009B30C1F69BE4909378039093AD0390934F
:101D00008403D0CF20E633E081E0C3CF25E733E082
:101D1000FBCF8FEFADCF8091650387FFF0CE809131
:101D2000620390916303892B71F080916403813089
:101D300051F48881809361031092630310926203CF
:101D400010927C00DCCE8EE180937D00D8CEDC0149
:101D50002C2FEDE6F3E03D9131932150E1F7FACEDF
:101D60001F93CF93DF93E82F792F162FEA018881F5
:101D700084FF1CC0298188E828272983CE01029688
:101D8000DC012E2F372F512F5E0FF90121912D935A
:101D90009F01452F4E1B1416C4F3612F0E94260588
:101DA0001C5F1883DF91CF911F9108958AE5888386
:101DB000E5CF2091AC0324FF05C04CEA53E066E078
:101DC0000C94B00E089590913503981307C020919C
:101DD00033033091340326173707B9F08093350366
:101DE0007093340360933303809330037093320312
:101DF000609331038091AC0384FF07C04CEA53E049
:101E000063E080E393E00C94B00E0895BC0184E09D
:101E10000C94E30EBC0183E00C94E30ECF93DF93AC
:101E2000CAE0D0E08091770384FF1CC080912E032C
:101E300090912F03981799F028E0829FC0011124F8
:101E400047E753E068E082559D4F0E94B00E8091B5
:101E50002E0390E001968F70992780932E03DF91D7
:101E6000CF9108950E94660D8FE99FE00197F1F7E9
:101E700000C000002197B1F6F2CFCF93DF93EC01C1
:101E8000A0912F03B0E0CD0101968F70992720918A
:101E90002E03281779F093E0AA0FBB1F9A95E1F75C
:101EA000A255BD4F98E0FE0101900D929A95E1F781
:101EB00080932F030E94660D0E940E0F88E0FE01A2
:101EC000A8E5B3E001900D928A95E1F7DF91CF91FB
:101ED00008958091A30280FD0AC0EEEBF1E011822B
:101EE00010821282339652E0EF30F507C1F7BB9AA9
:101EF00038B3377F28B328604FB7F8948EEB91E062
:101F0000FC015191CF0168E028BB000000C057FFE1
:101F100038BB550F000000C000C000C038BB00C077
:101F20006A9591F7F2E08F309F0751F74FBF8FE529
:101F300094E00197F1F700C0000008958091A90294
:101F4000882319F180E00E94A40780E00E94F20C2F
:101F50001092A1028091A802811117C081E08093A4
:101F6000A8028091A302982F91709093A2028E7F75
:101F70008093A3022FEF80E792E0215080409040B1
:101F8000E1F700C000000C94690F0895EF92FF92F2
:101F90000F931F93CF93DF938C01CEEBD1E0F12C05
:101FA000E12CF80194816091A5028091A402FDE0EA
:101FB000EF16F104FCF49923F9F09E014091A6027A
:101FC0000E94EE072FEFE21AF20A23968BE1E81641
:101FD000F10439F70E94690FF801848190E00196BD
:101FE000817099278483DF91CF911F910F91FF908A
:101FF000EF900895992309F39E0140E0E1CF8F927D
:102000009F92AF92BF92CF92DF92EF92FF920F9387
:102010001F93CF93DF93EC014C81042F10E09801C4
:10202000D8010E94D7299B01AC010E94A2294B0133
:102030005C01E0E2F0E0E01BF10BA5E5B0E0AC01F3
:102040009B010E94A2296B017C019F01DF010E947C
:10205000B8289B01AC010E94AD299B01AC01280D61
:10206000391D4A1D5B1DC701B6010E94B529F22E1C
:10207000822F90E039E23F15D8F143E0249F900190
:10208000112435952795122F10959EEBC92E91E0BE
:10209000D92E00E085E5E82EEF188E2D01FD8F2D5D
:1020A0009601412F6091A5020E94EE070F5F53E059
:1020B000C50ED11C0B3189F70E94690F9C8181E00C
:1020C000992319F0903219F48FEF80937B0080915F
:1020D0007B00890F8C83DF91CF911F910F91FF902F
:1020E000EF90DF90CF90BF90AF909F908F9008952A
:1020F00025E530E0A901481B590BCA019A01220FBE
:10210000331F280F391F37FFBCCF2F5F3F4FB9CF89
:102110000F931F93CF93DF93CEEBD1E0FE0111829B
:1021200010821282339682E0EF30F807C1F710E098
:1021300000E08091BC01082E000C990B08171907CC
:102140008CF180917A00082E000C990B8017910772
:102150004CF19E014091A6026091A5028091A402DB
:102160000E94EE070F5F1F4F23960B31110509F7F1
:102170000E94690F809179009091BC01980F909313
:10218000BC0120917A00280F20937A00121614F4D3
:102190009A311CF0819580937900DF91CF911F9146
:1021A0000F910895198218821A82DCCFBF92CF92C4
:1021B000DF92EF92FF920F931F93CF93DF93FC0177
:1021C0008281DD24DA9480FD02C0DD24D3940EEBFD
:1021D00011E0D0E0C0E02BE1B22EF80111821082B4
:1021E000128294E0E92EF12CC12C8091BB018C0D60
:1021F0008C310CF43DC06B2D0E947528892F082E60
:10220000000C990B8C179D0791F48091A6028E9D6E
:10221000A0018F9D500D11245595479555954795D3
:1022200098016091A5028091A4020E94EE07CD0C56
:10223000F1E0EF1AF108C9F621960D5F1F4FCB317F
:10224000D10559F60E94690F8091BB0191E0D91226
:1022500015C0811111C08AE18093BB01DF91CF913C
:102260001F910F91FF90EF90DF90CF90BF90089556
:1022700087FFC5CF855EC3CF8150EECF90E001963A
:10228000BE010E949728E8CFEF92FF921F93CF9351
:10229000DF93EC018EEBE82E81E0F82E10E08C81CC
:1022A00097014091A6026091A502810F0E94EE075E
:1022B000175F83E0E80EF11C133F89F70E94690F56
:1022C0009A818C8190FF08C08F5F8C83DF91CF91C2
:1022D0001F91FF90EF9008958150F7CF9091A30246
:1022E00090FF0CC0EEEBF1E0818360834283339674
:1022F00092E0EF30F907C1F70C94690F08950F933E
:102300001F93CF93DF9300D00F92CDB7DEB78C0130
:102310008091BD0181110AC09E012F5F3F4F4FEF99
:102320006FEF0E94EE078A818093BD01F8016481FE
:10233000613069F08091BD0140E0662361F040E0CA
:10234000623011F44091BD0180E060E004C0609112
:10235000BD0140E080E00E946E11F801848190E0B0
:10236000019663E070E00E94972884830F900F909D
:102370000F90DF91CF911F910F910895CF93DF932D
:1023800000D00F92CDB7DEB79091A30290FF0AC0A4
:102390009E012F5F3F4F0E94EE074B8169818A812A
:1023A0000E946E110F900F900F90DF91CF910895C2
:1023B000CF93DF93EC01E3EAF2E0438162818C8109
:1023C0000E94BE118C818F5F8C83DF91CF91089525
:1023D000CF93DF93EC01EC81F0E0E25EFD4F44919E
:1023E000E3EAF2E0628181810E94BE118C818F5FFD
:1023F0008C83DF91CF9108952F923F924F925F92FD
:102400006F927F928F929F92AF92BF92CF92DF9204
:10241000EF92FF920F931F93CF93DF9300D000D0E2
:1024200000D00F92CDB7DEB790E080E01E82812C05
:10243000912C540183948D83EFEFE80FE23128F45F
:10244000F0E0E851F64D0C94AB28D898D99866C0C6
:10245000D898D998DA9AC49A20EA2A95F1F7950182
:102460008401082E04C0000F111F221F331F0A947D
:10247000D2F768017901C094D094E094F0944BE5D0
:10248000242E41E0342E4FEA50E05A834983F10173
:102490001F82FC83EB834081518162817381A9811A
:1024A000BA817D90BA83A983A72DA295AF70B0E0C1
:1024B000D096AC914A2E512CB72DBF707B2ED201F5
:1024C00002C0B595A7957A94E2F72A013B01A0FDD9
:1024D0004FC0402A512A622A732A40825182628266
:1024E00073823496AB81BC814D905D906D907C90F1
:1024F000441555056605770511F0B1E0BF8341E04D
:10250000E337F40731F6ED81E150E231B0F5F0E068
:10251000E650F64D0C94AB28D898D99ADA989BCF10
:10252000D898D99A97CFD89A91CFD89A92CFD89A4B
:10253000F4CFD89AF6CFD89AD99ADA9AAF9A8CCFA4
:10254000D898D998DA98FACFD898D998F6CFD89859
:10255000D99AF8CFD898F0CFD89AF3CFD89AF5CFA8
:10256000D89AF6CFAA9878CFAB9876CFAD9874CF9B
:102570004C205D206E207F20B0CFD89AD99A3AC0E7
:10258000D89AD99ADA98C4985E81AF815A2B5E8323
:1025900001968331910509F04ECF552309F454C0BB
:1025A00081E0809358010E9409079093570180931E
:1025B000560180915601909157010E94FA060597A5
:1025C00008F446C02EE831E0F10181919191A1918A
:1025D000B1911F01F90181939193A193B1939F014F
:1025E000F3E72F16F1E03F0679F71092580130C05B
:1025F000D89AD998DA9AC7CFD89AD998C3CFD89809
:10260000BDCFD898BECFD898F4CFD898F6CFD89869
:10261000D998DA98AF98B8CFD89AD99ADA9AFACFE7
:10262000D89AD99AF6CFD89AD998F8CFD89AF0CF25
:10263000D898F3CFD898F5CFD898F6CFAA9AA4CF48
:10264000AB9AA2CFAD9AA0CF809158018111B1CFA2
:102650008E8127960FB6F894DEBF0FBECDBFDF91F7
:10266000CF911F910F91FF90EF90DF90CF90BF908F
:10267000AF909F908F907F906F905F904F903F9022
:102680002F9008951F93CF93DF93182FD0E0C0E0D1
:10269000893311F4C0E5D0E0812F0E94950C20977A
:1026A00031F4812FDF91CF911F910C94540C8FE95D
:1026B0009FE00197F1F700C000002197F0CF0F9342
:1026C0001F93CF93DF93C62FD42F022FFC0182815B
:1026D0008823A1F060936A030E940907909369031D
:1026E00080936803C77081E001C0880FCA95EAF73C
:1026F000DF91CF911F910F910C944A0C80916A0346
:10270000681335C080916803909169030E94FA06AE
:10271000883C910560F510E21D0FCD17B9F080E2FD
:102720008C0F883040F4C77081E001C0880FCA95D3
:10273000EAF70E943F0C183048F481E09D2F977013
:1027400001C0880F9A95EAF70E944A0C802F0E94D8
:102750004213183098F4D77081E001C0880FDA95E1
:10276000EAF7DF91CF911F910F910C943F0CC77046
:1027700081E001C0880FCA95EAF7F3CFDF91CF91CE
:102780001F910F910895CF93DF93CBE9D4E060E0E0
:10279000CE010E9450292196C83486E0D807B9F7A7
:1027A000DF91CF9108956F927F928F929F92AF9217
:1027B000BF92CF92DF92EF92FF920F931F93CF932E
:1027C000DF938EE9C82E83E0D82E91E3E92EFF2413
:1027D000F394E701C45ED10936011BC0F501859071
:1027E0009490692DC8010E945029682DC801019656
:1027F0000E94502982E0A80EB11C0E5F1F4FC01727
:10280000D10761F786E2680E711CA696CE15DF052A
:1028100029F08E01065211095301E0CF7E0184EEAA
:10282000E80EF11C84EEC80ED11C85EAE81685E09E
:10283000F80679F6DF91CF911F910F91FF90EF90FD
:10284000DF90CF90BF90AF909F908F907F906F90D0
:102850000895CF93C82F6FEF811161E283E290E07A
:102860000E9450296FEFC11160E184E290E00E9464
:1028700050296FEFC11166E185E290E0CF910C9491
:10288000502980E00E94291460E086E290E00E94D6
:1028900050290E94D3130E94C31381E00C94291481
:1028A000682F86E090E00C9450298091960281FF79
:1028B0000FC08D7F809396020E94501489B78B7F42
:1028C00089BF809196028695869586950C94A4077B
:1028D00008958091960281FD0EC0826080939602D9
:1028E0000E9450141092990210929802109297022E
:1028F00089B7846089BF0895CF93C0915A01C2FB04
:10290000992790F9981781F080FBC2F9C0935A017A
:102910006091590184E090E00E9450296C2F82E27E
:1029200090E0CF910C945029CF9108950F931F936D
:10293000CF93DF93C42FD0E0CC0FDD1F26E2629F40
:10294000C00DD11D112434EE839FC00DD11D112463
:10295000CE0187960E943C29082F10E0102F0027F7
:10296000CE0188960E943C299801282BC901DF914D
:10297000CF911F910F910895462F853038F476300E
:1029800028F4633118F4672F0C94961490E080E0DB
:102990000895CF92DF92FF920F931F93CF93DF930F
:1029A0006C0100916B0380915501082BC7E0D0E0CA
:1029B00010E0FC2EC8010C2E02C0959587950A9454
:1029C000E2F780FD0CC02197A0F7F12C8F2DDF914D
:1029D000CF911F910F91FF90DF90CF900895B60196
:1029E0008C2F0E94BC140E94050A019761F3EECF60
:1029F000CF93DF93EC010E94C914BE010E94BC1466
:102A0000DF91CF910C94050AFC01808191810E9495
:102A1000F814292F2F7092959F7092509E3078F461
:102A2000E92FF0E0E45FF54D0C94AB28803F19F0FE
:102A300020F4883E20F481E00895843FE1F380E0B3
:102A40000895883EC0F3813FD1F7F5CF822F869558
:102A500086958695089583E290E00E943C29813214
:102A600089F484E290E00E943C29803159F485E2A7
:102A700090E00E943C2991E0863109F090E0892F96
:102A80008170089580E0FCCFCF9384E090E00E94B5
:102A90003C29C82F82E290E00E943C29982F8C2F7D
:102AA000CF9108954F925F926F927F928F929F92F3
:102AB000AF92BF92CF92DF92EF92FF920F931F934C
:102AC000CF93DF93FC016280448081E08483EEE158
:102AD000F2E07490EDE9F2E0E491CFE0D2E03EEB79
:102AE000E32E31E0F32E46E9C42E42E0D42E52E02C
:102AF000A52EBB24B39488248A94912C55245A94EF
:102B0000E7190E2F10E082E0861530F08091A402C4
:102B100088838091A5028983411021C01B821A827B
:102B200097014A81698188810E94EE07259683E09A
:102B3000E80EF11CCC16DD0631F7DF91CF911F9125
:102B40000F91FF90EF90DF90CF90BF90AF909F904C
:102B50008F907F906F905F904F900C94690F8B8156
:102B60008823E9F081508B83859DC00111246C81FD
:102B700070E00E948328FB01FF27E25EFD4F8491F5
:102B8000E82FE719E59DC0011124B8010E948328B0
:102B90008091A602689FB00111247A83C1CF0E9460
:102BA0001F292091A602269521582A9DA0012B9D20
:102BB000500D1124452F5527841795070CF0B0CFE1
:102BC00082E0861588F40E941F29B4010E9497288C
:102BD00088830E941F292091A5022695622F70E00C
:102BE0000E949728280F29831A828091A602893C87
:102BF00020F088EC8C838B8393CF8431D8F784E1E9
:102C0000F9CF6091A302669570E04BE050E08EE64C
:102C100090E00E942F29892B19F481E08093A10272
:102C20000E9409079093B6018093B5010895CF9251
:102C3000DF92EF92FF926B017C010E94DF07B701E8
:102C4000A60188E090E0FF90EF90DF90CF900C9489
:102C500061295F926F927F928F929F92AF92BF9203
:102C6000CF92DF92EF92FF920F931F93CF93DF9358
:102C700000D00F92CDB7DEB7182F762E042F622E1C
:102C80009091A30290FF29C0E92FE695AE2FB0E006
:102C9000AB54BF4F8C918093A0029E7F923081F500
:102CA0009E012F5F3F4F812F0E94EE074B8169816C
:102CB0008A810E946E111093A4027092A502009363
:102CC000A602662051F06091A3027091A402809147
:102CD000A5029091A6020E9417160F900F900F90D8
:102CE000DF91CF911F910F91FF90EF90DF90CF90E8
:102CF000BF90AF909F908F907F906F905F9008955E
:102D0000823019F40091A602D6CF863019F41091C2
:102D1000A402D1CF8930D9F3893169F6E9518E2FD8
:102D20008170582EE695F0E0E75EFD4FA590B490D7
:102D3000BB248EEBE82E81E0F82ED12CC12C9BE138
:102D4000892E912CC601B4010E948328812F511035
:102D500013C0860F9701402F672D0E94EE07CA0C03
:102D6000DB1C83E0E80EF11C8FE0E81682E0F80639
:102D700049F70E94690F9FCF861BECCFE3EAF2E090
:102D8000438121E1421B08F440E021E0628181811E
:102D90000C942916E3EAF2E0438121E1420F08F4A2
:102DA0004FEF21E0628181810C942916E3EAF2E081
:102DB000628121E1621B08F460E021E043818181AE
:102DC0000C942916E3EAF2E0628121E1620F08F433
:102DD0006FEF21E0438181810C942916E3EAF2E050
:102DE000818121E04381628188500C942916E3EAB5
:102DF000F2E0818121E043816281885F0C94291691
:102E00008091A702882319F081508093A7026091D6
:102E1000A3027091A4028091A5029091A6020C9445
:102E200017168091A702833018F48F5F8093A70252
:102E30006091A3027091A4028091A5029091A602D4
:102E40000C9417169091A30290FF36C091708111D7
:102E500029C092609093A302662351F06091A3026F
:102E60007091A4028091A5029091A6020E9417166B
:102E70006091A302669570E04BE050E08EE690E032
:102E80000E942F29892BA9F01092A10281E0809342
:102E9000B80120E04091A6026091A5028091A402B1
:102EA0000C9429168B3210F09465D4CF880F982B90
:102EB000D1CF0E940116EACF08958091A302869592
:102EC000815009F48AE261E00C9422178091A302F8
:102ED00086958F5F8B3208F081E061E00C942217B9
:102EE0009091A30290FF07C09695981720F096172F
:102EF00010F40C94661761E00C942217E3EAF2E0F8
:102F000083E0808311828FEF8283838314826081C8
:102F10007181828193810C94171669EE7EEF90E0A7
:102F200080E00E946D2960E082E090E00E945029DC
:102F300060E083E090E00E9450291092550160E02B
:102F400084E090E00E94502960E082E290E00E94DC
:102F5000502960E085E090E00E94502960E086E022
:102F600090E00E9450296FEF87E090E00E94502986
:102F700040E050E0BA0188E090E00E94612960E002
:102F80008DE090E00E94502940E050E0BA0188E1D5
:102F900090E00E94612960E087E190E00E94502962
:102FA00040E050E0BA018CE190E00E94612970E0BD
:102FB00060E080E290E00E946D2940E050E0BA01BC
:102FC00088E190E00E94612980E00E9429140E941B
:102FD000411440E050E0BA018FE090E00E94612986
:102FE00040E050E0BA0183E190E00C94612990E068
:102FF00080E00E944A29893E9E4F11F40C942B15C3
:1030000080E008950E94F71781110AC00E948D1771
:103010008091960284708961809396020E94501478
:1030200086E090E00E943C2980939602803220F056
:10303000877088618093960290919602892F8170A3
:1030400090FF04C0892F8695869586950C94A407D9
:1030500010925301E4EEF0E086E0DF011D928A95C4
:10306000E9F70C941E0C3F924F925F926F927F9201
:103070008F929F92AF92BF92CF92DF92EF92FF9288
:103080000F931F93CF93DF9300D000D00F92CDB753
:10309000DEB78C01FC0183819481892B31F0808122
:1030A000918189238F3F09F09BC50F900F900F905E
:1030B0000F900F90DF91CF911F910F91FF90EF90A4
:1030C000DF90CF90BF90AF909F908F907F906F9048
:1030D0005F904F903F9008950E94C914F82E682F7A
:1030E00089819A810E94F20B69817A818F2D0E94D9
:1030F000BC147C01F8018281882309F444C5C7010E
:1031000082519F45409708F027C587E496E00E94CA
:103110003C29FEEEEF0E5BE9852E54E0952E8823C8
:1031200089F180915001877009F4BFCFF801828145
:10313000882309F4BACF82E00F900F900F900F9080
:103140000F90DF91CF911F910F91FF90EF90DF9043
:10315000CF90BF90AF909F908F907F906F905F9037
:103160004F903F900C943F0D28E4821626E0920683
:10317000C1F2C4010E943C29811101C0EA943FEFD1
:10318000831A930AE110F0CF1C821B8244244394DB
:103190004AE0342E74018FEFE81AF80AC4010E9445
:1031A0003C2989831A82882309F4BBCF9FEF980FAB
:1031B000933000F58A83498292E0890E911CC70101
:1031C0000E943C298B83882309F4ABCFFE01319602
:1031D0007F01F70120812223E9F2213009F049C063
:1031E00091818281913041F4F2E0EF0EF11C0E9456
:1031F000421309C04701EACF923049F422E0E20EBF
:10320000F11C0E94950C3FEFE31AF30AE2CF9330D2
:1032100031F432E0E30EF11C0E94540CF4CF9430F0
:1032200021F08FEFE81AF80AEECF92E0E90EF11CD8
:1032300030E020E0B7016F5F7F4FF701418180539D
:10324000990B8A30910550F021503109E0F28FE955
:103250009FE00197F1F700C00000F6CF329EF00129
:10326000339EF00D11249C012E0F3F1F842F7B01F4
:10327000E1CFE22FF0E0EC57FF4F5490822F86957C
:103280008695869590E0FC01EC58FF4F649027707E
:10329000712C022E02C0759467940A94E2F7E1E063
:1032A0006E227724FC01EC59FF4FA490B12C022E22
:1032B00002C0B594A7940A94E2F7F1E0AF22BB24D0
:1032C000FC01EC5AFF4FC490D12C02C0D594C79496
:1032D0002A95E2F721E0C222DD246114710419F07D
:1032E00081EE0E94950CA114B10419F086EE0E94A3
:1032F000950C852D0E944213AB2819F086EE0E9492
:10330000540C672819F081EE0E94540CCD2809F462
:103310007ACF8CE26CCF81E00E945B0D0E94280D79
:1033200000CF81E00E94330DF9CF82E0F5CF82E03B
:10333000F9CF83E00E94C307809196020E94501447
:10334000F0CE80E0F7CF80919602982F987F79F0A9
:10335000885080939602887F91E009F490E08091F4
:10336000960290FB80F9809396020E9450148091FF
:1033700096028695869586950E94A407D2CE809166
:103380009602982F969596959695933040F49F5F68
:10339000990F990F990F8770892B809396028091CE
:1033A00096028160E0CF8091960280FF07C08E7FF9
:1033B000809396020E94501480E0DECF80FDB1CE53
:1033C000816080939602813019F489E0809396029F
:1033D00080919602CACF90919602892F8695869504
:1033E00086958F5F8F719770843048F4880F880FAF
:1033F000880F892B8093960280919602ACCF909390
:103400009602FACF8091960281FF03C00E94551464
:1034100088CE0E94691485CE27E245EE65EEDCC3B6
:1034200026E241EE60EED8C327E245EE64EED4C357
:1034300026E241EE62EED0C328E241E0EFCF809178
:103440005901806126E0E2162CE5F20609F498C0E5
:1034500080915901886037E0E3163CE5F30608F4F3
:103460008FC08091590180628BC08CE0E8168CE59A
:10347000F80609F49AC078F4809159018C60EAE06A
:10348000EE16ECE5FE0609F47BC008F488C08091D6
:1034900059018E7F75C080915901877F2EE0E21619
:1034A0002CE5F20609F46CC0809159018B7F3FE056
:1034B000E3163CE5F30608F463C0809159018F7E62
:1034C0005FC08BEFE8168CE5F80609F460C068F57C
:1034D000E3E1EE16ECE5FE0609F477C090F421E195
:1034E000E2162CE5F20609F46CC032E1E3163CE585
:1034F000F30609F0F9C40E942818809159018F77CA
:103500003FC085E1E8168CE5F80609F466C008F4CA
:103510007AC080915A018160EAEFEE16ECE5FE0672
:1035200009F0E2C480935A01DFC4FFEFEF16FCE517
:10353000FF0609F44EC068F480915A018D7F3DEF7B
:10354000E3163CE5F30671F3A0F180915A01836024
:10355000E9CF91E0E9169DE5F90609F45DC008F4AC
:1035600048C060E0F2E0EF16FDE5FF0609F0BCC4DC
:103570008EE090E00E945029B7C48091590181608B
:1035800080935901B1C4809159018460F9CF809131
:103590005A018260C7CF809159018064F1CF0E94A7
:1035A0002818809159018068EBCF809159018D7F57
:1035B000E7CF80915A018E7FB5CF809159018F7DE1
:1035C000DFCF809159018F7BDBCF80915901837FC1
:1035D000D7CF80915A018C7FA5CF8091590182FB72
:1035E000992790F921E0922790FB82F990FB83F9CB
:1035F000C7CF80915A01982F909591708E7F892B1B
:1036000090FB81F98FCF0E94281890915901892F42
:1036100097FB87F98058B4CF61E0AACF809153011E
:1036200026E1E2162CE5F20609F0EBC28A7A91E077
:1036300009F490E09093EA0069E2811165E382EE7B
:1036400090E00E9415070E94930B6BCD85E3E4C3C5
:103650008091A30280FF1BC08E7F8093A3026091A4
:10366000A3027091A4028091A5029091A6020E94EB
:1036700017161092A1023FEF80E792E03150804090
:103680009040E1F700C000000E94690F4ACD8160C0
:103690008093A30261E086950E94221742CD4DE5FA
:1036A00057E166E677E10E94D9073BCD46E657E150
:1036B0006DE577E1F8CF47EF56E16EEE76E1F3CFB7
:1036C00046ED56E162EE76E1EECF4EEB56E16AEC66
:1036D00076E1E9CF4AEC56E16EEB76E1E4CF41E1E9
:1036E00057E160E077E1DFCF61E081E0D5CF65E0D1
:1036F00082E00E94701715CD68E086E0FACF64E1A1
:103700008FE0F7CF67E185E1F4CF62E289E1F1CFA5
:1037100061E083E2C1CF8BE5E8168DE5F80619F18B
:103720009CE5E9169DE5F90609F09DC280915A01D4
:1037300082FB882780F991E089270E947C1493C23C
:103740000E942818EFEFF4E32CE0E150F040204015
:10375000E1F700C000000E94E706E3CC0E948D174D
:10376000E0CC81E0EACF80E0E8CFC7010E94CA0B3D
:10377000D82E88C22F2D2F70C22E8F2D807F19F04A
:10378000C29490EFC922DD20C9F0CC2069F080E21C
:103790008E0D883010F081100BC080915301C82A23
:1037A000C09253010E94930B8E2D0E94950C19C05C
:1037B00080915201C82AC0925201F4CF8E2D0E94EE
:1037C000540CCC2071F0C09480E28E0D883010F043
:1037D00081103FC080915301C822C09253010E94C2
:1037E000930B292D2850330B2430310520F40E94EF
:1037F0005B070E94F20CAA2009F457CC809150017B
:1038000080FD53CCF80112828595859585950E949F
:103810005B0DC8010E9433188091500185958595F4
:1038200085950F900F900F900F900F90DF91CF9193
:103830001F910F91FF90EF90DF90CF90BF90AF90CE
:103840009F908F907F906F905F904F903F900C94DF
:10385000330D80915201C822C0925201C0CF3F2D3A
:103860003F70B32E8F2D807F803219F0B29480EF9D
:10387000B822882071F081E0881681F1DD20D9F12D
:10388000CC2091F1F801858180FF8ECF8F708583E8
:103890002BC0DD20B1F0909154018B2D892BC110EC
:1038A00003C00E944A0C9DCFE1E0CE12FACF2091D6
:1038B0005A0122FD96CF981709F493CF80935401B3
:1038C00090CFC11006C00E948D0B8B2D0E943F0C23
:1038D00088CFF1E0CF1609F484CFF5CFDD2031F0A9
:1038E00025E02C1508F47DCF8B2DDBCF34E03C1583
:1038F00008F477CFEACFCC2041F3F9E38F1209C067
:103900002FEF37EE83E0215030408040E1F700C0D8
:1039100000008E2D0E94540C64CF8F2D86958695C5
:10392000837061F0813009F05CCFC7019370D110D2
:1039300002C090E080E00E942F0753CFC701937030
:10394000D11002C090E080E00E9445074ACF8E2D42
:10395000DD2029F00E9466090E94840842CF0E945F
:10396000AB08FACF8F2D837091F5D1103ACF4E2D41
:10397000429546954770440F440F8E2D8F70042E4C
:1039800001C0880F0A94EAF72E2D2071E4FE07C0CB
:103990002FE030E001C0220F4A95EAF720953F2D35
:1039A000369536953370323069F050F440915501B8
:1039B000313029F0822B84230E943B0C12CF842BC0
:1039C000822BFACF282B809155018227F5CF86953F
:1039D000DD2011F08F2D8170882309F402CF4E2D48
:1039E000429546954770440F440F8E2D8F70042EDC
:1039F00001C0880F0A94EAF72E2D2071E4FE07C05B
:103A00002FE030E001C0220F4A95EAF720953F2DC4
:103A1000369536953370323069F050F440916B032F
:103A2000313029F0822B84230E94220DDACE842BA0
:103A3000822BFACF282B80916B038227F5CF9F2D05
:103A40009F70F92EDD2029F0892F0E945B0D8E2DAD
:103A500028CF8E2D0E943F0C8F2D0E94330DC1CE9A
:103A60008E2DE2EF8E1609F44BC0E81570F0F0EFE2
:103A70008F1639F121EF8216D9F1DD2009F45CC0EF
:103A8000C11092CE8F2D8F7138C033EF8316E9F1BC
:103A900094EF8912F2CFDD2009F443C02F2D2F714E
:103AA000F22E822F0E945B0D80915A0182FD07C089
:103AB00038E0F39EC00111248360809350018F2D64
:103AC0001CC0DD2081F0E4E0EC1508F48ACE2F2D37
:103AD0002F7181E090E001C0880F2A95EAF790915C
:103AE0006B038927A1CFF5E0FC1508F47ACEEFCF60
:103AF0008F2D8F71DD2009F4B0CF0E945B0D71CE48
:103B00008F2D8F71DD20C9F3A8CF80E0DD2009F46F
:103B10008BCF9F2D9F7181E001C0880F9A95EAF7A6
:103B200083CF81E00E943F0D81E08C1508F059CED3
:103B300082E00E943F0D55CECC2059F0893309F028
:103B4000E8CE9FEFE7EEF3E09150E040F040E1F780
:103B5000DECE8F2D8F7181CFF0E1EF16FFE5FF06EE
:103B600009F4D9CB21E1E2162FE5F20609F4DDCB09
:103B7000F701EB5BFC45E730F10508F05BC1E65E61
:103B8000F54D0C94AB2830E1E3163FE5F30609F45C
:103B9000C8CB81E1E8168FE5F80609F4C8CB23EF1E
:103BA000E2162CE5F20609F43BCC08F01CC188EDC6
:103BB000E8168CE5F80609F42FCC99EDE9169CE59A
:103BC000F90609F439CCE7EDEE16ECE5FE0609F04E
:103BD00018C126E241EE61EEC8010E945F13A1CA3E
:103BE00085E0DE01119601900D928A95E1F7F801CA
:103BF000228189819A8121116FCA0E94CA0BF82EF5
:103C000073CA82722CECE2162CE5F20609F467CD39
:103C100008F0A7C096ECE9169CE5F90609F44BCD2F
:103C200008F076C0F3ECEF16FCE5FF0609F437CD9B
:103C300008F05DC032ECE3163CE5F30609F408CD6C
:103C4000EAE5EE16EDE5FE0609F48BCD08F063CD4E
:103C5000E1142CE5F20609F473CD3EEDE3163CE5E4
:103C6000F30609F47BCDF8018281E080F18088239E
:103C700009F47BCDC7010E94C914D82E682FC70153
:103C80000E94F20BB7018D2D0E94BC140E94050A00
:103C90007C01882EF801D280C580C2943FE0C32207
:103CA000809150018770A1F0AD2CDD2091F08F2D17
:103CB000807F803421F080E28E0D883048F082E0F1
:103CC0000E943F0D809150018770AA24A394811116
:103CD000A12C9F2C92942FE09222FBE0F91508F47E
:103CE00080CDE92DF0E0EF5DF54D0C94AB2894EC20
:103CF000E9169CE5F90609F4D9CC4EEE56E167EFDA
:103D000076E1E5ECEE16ECE5FE0609F4CCCC98CFB6
:103D1000F9ECEF16FCE5FF0609F4D7CC88F437EC94
:103D2000E3163CE5F30609F4CBCC42EE56E166ED32
:103D300076E198ECE9169CE5F90609F4B4CC80CF5D
:103D4000EAECEE16ECE5FE0609F4C4CC40E057E1DF
:103D500061E177E1FBECEF16FCE5FF0609F4A3CC8B
:103D60006FCF21EDE2162CE5F20609F4C8CCB8F4C9
:103D70008EECE8168CE5F80609F4B9CC08F4B4CC5E
:103D8000EFECEE16ECE5FE0609F4B6CC6EE089E049
:103D9000F0EDEF16FCE5FF0609F4ABCC51CF24EDB6
:103DA000E2162CE5F20609F4B0CC78F482EDE816C0
:103DB0008CE5F80609F4A6CC61E088E193EDE916FC
:103DC0009CE5F90609F468CC3BCFE5EDEE16ECE591
:103DD000FE0609F49DCC6AE285E2FDE5EF16FF06DA
:103DE00009F487CC2DCFF5EFEF16FCE5FF0609F4BB
:103DF0001FCB08F419CB36EFE3163CE5F30609F4C4
:103E000091C0F6E1EF16FCE5FF0609F02CCF80919A
:103E1000EA0081111BCC89E2E4EEF0E02AEE30E00A
:103E20009191891303C0DF0111971C922E173F0750
:103E3000B9F709CC83EFE8168CE5F80609F4F0CA67
:103E400008F062C0E8EDEE16ECE5FE0609F4E4CAFF
:103E5000F9EDEF16FCE5FF0609F4EECA27EDE216D0
:103E60002CE5F20609F4B5CE10926A0382E0E8165A
:103E70008CE5F80608F4D2CB96E1E9169CE5F90644
:103E800030F0C7018A5F9C45099708F0C7CB0E94B4
:103E9000441590935A0180935901E0E1EE16ECE548
:103EA000FE0609F48ACB08F00CCB28E0E2162CE5DC
:103EB000F20609F470CB08F0D8CA84E0E8168CE565
:103EC000F80609F460CB08F0BACAE2E0EE16ECE5B9
:103ED000FE0609F452CB809159018260F3E0EF169F
:103EE000FCE5FF0609F44CCB60915901F0905A01B2
:103EF00084E090E00E9450296F2D82E290E00E94C1
:103F000050290E9428180DC935EFE3163CE5F30649
:103F100009F48ECA08F488CA96EFE9169CE5F906FA
:103F200009F0A2CF27E245EE66EE56CE1F93CF935F
:103F3000DF9380911D01807FA9F480911A0188236D
:103F400089F080914F01D0911E016091180170910C
:103F50001901A0911B01B0911C01C62FC72316E0C7
:103F6000D81304C0DF91CF911F91089590E010976E
:103F700011F0CF3F19F401968770F2CF189F90018E
:103F8000199F300D1124F901E15EFE4F4181471365
:103F9000F2CF40814613EFCF42814111ECCF4381F4
:103FA00054814A1B5B0B483C510528F780911D0149
:103FB0008F70806180931D01F901EC5DFE4F80815F
:103FC0008F708061808388E191E00E943318DF91D7
:103FD000CF911F910C94C00BAF92BF92CF92DF9202
:103FE000EF92FF920F931F93CF93DF93CDB7DEB77E
:103FF00061970FB6F894DEBF0FBECDBF8C0185E090
:10400000F801DE011D9601900D928A95E1F7F80105
:10401000E28088E1A82E81E0B82E60911B017091AA
:104020001C016115710509F432C19091180140918C
:104030001901892F84238F3F09F429C120813181FF
:10404000C380D480F0901A01F601E61BF70BFF2025
:1040500009F4E8C080911D01582F507FE83CF1051C
:1040600008F0ABC0511177C0FE2C431321C092134E
:104070001FC0E1101DC08F70806180931D01C501BC
:104080000E94331880911D01F80185838F2D619660
:104090000FB6F894DEBF0FBECDBFDF91CF911F9159
:1040A0000F91FF90EF90DF90CF90BF90AF90089569
:1040B000CD2829F0822F83238F3F09F003C180E0B0
:1040C000F82FF170DF2E80FF3CC080914F014091AE
:1040D0001E0156E0841315C02D873E878D859E8571
:1040E0000E94F814292F22952F702230F0F02430EE
:1040F00018F59F70F1F0F8019581907FD1F4D12CE3
:104100001EC090E0589FF001599FF00D1124E15E10
:10411000FE4F6181361306C06081261303C06281A1
:10412000E6120FC001968770D5CF9F7011F08823DB
:1041300031F3805E883018F3C8010E943318FD2CDB
:10414000A5CFEE2009F4A2CF80911D01816080935C
:104150001D01F12C9BCF431306C0921304C0F8013C
:10416000EE2009F479C0C8010E940415882309F1E2
:10417000EE20F9F080911D01803270F0209118013D
:104180003091190138872F831986DB86CA868C8780
:10419000CE0107960E94331886E0F801A8E1B1E04D
:1041A00001900D928A95E1F70E94961FFF24F394E7
:1041B0006DCFC8010E943318F9CF51110AC088E1B0
:1041C00091E00E94331886E0F50111928A95E9F793
:1041D000C0CF43130FC092130DC0E1100BC0F80104
:1041E0008583C8010E94331886E0F50111928A95F3
:1041F000E9F74CCFC8010E9404158823D1F2EE20C4
:10420000C1F280911D01803238F220911801309165
:1042100019013A8329831B82DD82CC828E83CE01F1
:104220000196B8CFE83CF105F8F6FE2CEE2009F235
:1042300043131FC092131DC080911D0180FD10C04B
:10424000982F907F69F0F8018583903F31F0982F87
:10425000907F905F8F70892B8583C8010E943318EF
:1042600086E0F801A8E1B1E001900D928A95E1F7AE
:104270000DCFC8010E94041581118ECF80911D01C0
:10428000816080931D01C8010E943318FFCEEE208B
:1042900009F48FCFC8010E940415F82E882309F471
:1042A00088CF86E0F801A8E1B1E001900D928A95EF
:1042B000E1F780911801909119010E94F8140E9471
:1042C000961FE4CE81E08E25FBCE1F93CF93DF9324
:1042D000CDB7DEB767970FB6F894DEBF0FBECDBF80
:1042E0004B8B5C8B6D8B7E8B8F8B6111109252018F
:1042F0001A8A198A85E0FE017396DE011D960190E7
:104300000D928A95E1F786E0FE013D96DE01179653
:1043100001900D928A95E1F7CE0107960E94EC1F5D
:10432000882389F016E080914F0190911E01891336
:1043300049C067960FB6F894DEBF0FBECDBFDF91C0
:10434000CF911F91089586E0FE013796DE01119608
:1043500001900D928A95E1F78A859B85892B11F34F
:104360008F81988589238F3FE9F220911E0130E0EB
:10437000C90101968770992740914F014817190686
:1043800071F40E94281810921E0110924F0186E0CD
:10439000E8E1F1E0DF011D928A95E9F7C3CF96E0ED
:1043A000929FD001939FB00D1124A15EBE4FFE01DC
:1043B000319601900D929A95E1F780931E010E942B
:1043C000C00BB0CF819FC0011124815E9E4F0E941F
:1043D000EC1F882309F4ADCF80914F0190E0019646
:1043E0008770992780934F019ECF78941F921FB6B4
:1043F0001F9211248F939F93AF93BF938091AA0232
:104400009091AB02A091AC02B091AD020196A11DBA
:10441000B11D8093AA029093AB02A093AC02B0931B
:10442000AD02BF91AF919F918F911F901FBE1F90C2
:1044300018951F920F920FB60F9211242F933F934E
:104440004F935F936F937F938F939F93AF93BF939C
:10445000EF93FF938091980290919902019668EBF7
:1044600075E00E94832890939902809398026BE0F4
:1044700070E00E9483286F7780919702823031F438
:10448000603441F489B78B7F89BF04C0813011F457
:104490006F37C1F3E62FF0E0E25EFC4FE49121E0DC
:1044A00031E0E29FC001E39F900D112463E070E0D2
:1044B0000E94832880919602869586958695282F5E
:1044C000269FC001279F900D11240E94670799BD68
:1044D00088BDFF91EF91BF91AF919F918F917F9197
:1044E0006F915F914F913F912F910F900FBE0F9061
:1044F0001F901895CDB7DEB760970FB6F894DEBF62
:104500000FBECDBF0E9409079093A7018093A6011B
:1045100084B7806884BF84B7806884BF80EC99E0EA
:104520009093E1008093E00085B7886085BF8BB7EA
:1045300080688BBF8BE4809378038093AD03809376
:1045400084038AE5809377038093AC03809383038D
:104550008B9A80E0815009F0B7C28B9878948BE0F9
:1045600083BF8AEF8CBF82E089BF0E942B15811127
:1045700002C00E944114AA9AAB9AAD9AC498AF980F
:10458000D89AD99ADA9AAFEAB0E045EB50E061E008
:1045900070E08D91E82FE295EF70F0E011A98F7037
:1045A0009B0101C0220F8A95EAF7922F90959123E3
:1045B00091AB82A9822B82AB4A175B0751F7D09A45
:1045C000D19AD29ABC9AA79AA29AA39AA59AEBE5F5
:1045D000F1E083E791E0AEE8B1E01192119211921F
:1045E00011921D921D921D921D928E179F07A9F781
:1045F0000E94F717811102C00E948D1782E090E09F
:104600000E943C29809375010E94441590935A01A1
:10461000809359010E94FC118FE39CE90197F1F707
:1046200000C000000E94FC1180918E0180FF08C034
:104630006FEF7FEF90E080E00E946D290E94E70617
:1046400083E090E00E943C290E943B0C80916B0328
:104650000E94020DA09A889A899AA19AA69AB89A5D
:10466000B99ABA9A8C9A949882E28FBD89E18EBDEC
:104670008FEF9FEF97BD86BD0E9402188091960232
:1046800081FF09C01092990210929802109297022D
:1046900089B7846089BF0E940218809173018111DB
:1046A00033C00E94F717811104C00E948D170E9429
:1046B0007E1788E090E00E9444296093A3027093E3
:1046C000A4028093A5029093A6026E7F71F40E94CB
:1046D0007E1788E090E00E9444296093A3027093C3
:1046E000A4028093A5029093A6020E94DF07109275
:1046F000A1028091A30280FF04C060E086950E9421
:10470000221781E08093730184E690E090939D02EC
:1047100080939C029FEFE0E7F2E09150E040F04090
:10472000E1F700C0000033E0232E312C809192038A
:104730001091A902882309F4CFC1109292030E941C
:1047400009079093A7018093A6011123F9F0109215
:10475000A9020E9428180E9402180E945B070E946A
:10476000F20C1092A8028091A202882349F0809155
:10477000A30281608093A30260E086950E942217C5
:104780000E9401168091A9028111A8C10E94660DA4
:1047900080916003882309F47AC18091770384FFB4
:1047A00076C10E94FC11882359F08FB7F89440918C
:1047B000AA025091AB026091AC027091AD028FBF22
:1047C000E6E7F1E0AEE8B1E010E000E0902F4D91B7
:1047D0005D916D917D9141905190619071904416E1
:1047E00055066606770609F4A4C1442655266626B2
:1047F000772680E0812C912C54018394730162010F
:10480000C820D920EA20FB20CD28CE28CF2809F4C3
:1048100088C18F839887482159216A217B2181E0B3
:10482000452B462B472B09F480E089870E94090716
:104830008160782F9B878A874F81588569858B8512
:104840000E946521000F111F000F111FF801EA5887
:10485000FE4F80819181A281B38188259925AA2567
:10486000BB2580839183A283B3838091A102882397
:10487000D1F18091A002E091A302E695E81BE093BC
:10488000B701823009F06CC1F0E0EB5EFE4FE491BD
:104890000E2F10E028EEA22E21E1B22E8091B80159
:1048A000882361F01092B8010E9409079093B60125
:1048B0008093B5011092BA011092B9010E940907C4
:1048C000E091B501F091B6018E1B9F0B8F3F9F4782
:1048D00050F4E00FF11FF093B601E093B50185EBC2
:1048E00091E0F501099586E0EFEAF1E0DE0111962D
:1048F00001900D928A95E1F7B090B101A090B201BC
:104900001091B3010091B4011092B1011092B20163
:104910001092B3011092B4018B2D8A2909F448C07A
:104920008091AD019091AE010E94FA069C01909198
:10493000A901992309F4C4C323333105C8F19F3F6A
:1049400019F09F5F9093A901BB2059F00E9446097E
:104950009FEF1B140CF491E0899F802D112480930C
:10496000B101AA2059F00E9446099FEF1A140CF4D5
:1049700091E0899F802D11248093B2013091B10183
:104980003323B1F02091B201222391F045EB34039F
:10499000C0011124992309F453C19093B10145EB4F
:1049A000240390011124332309F44EC13093B20142
:1049B000812F802B09F448C08091AB019091AC010C
:1049C0000E94FA069C019091A801992309F473C3EF
:1049D00025363105C8F19F3F19F09F5F9093A801DC
:1049E000112359F00E9424099FEF11160CF491E055
:1049F000899F802D11248093B301002359F00E94D8
:104A000024099FEF10160CF491E0899F802D11244A
:104A10008093B4013091B3013323B1F02091B401FC
:104A2000222391F045EB3403C0011124992309F4AA
:104A30000FC19093B30145EB24039001112433235C
:104A400009F40AC13093B4018091B1019091B2018F
:104A5000892B9091B301892B9091B401892B11F08E
:104A60000E94840886E0FE013196AFEAB1E0019031
:104A70000D928A95E1F70E945B0790917401891766
:104A800031F00E945B07809374010E94F20C0E9437
:104A90000E0F0E94660D80916003882309F446CEB4
:104AA0008091AC0384FF42CE80915603803209F09E
:104AB0003DCEE0913603E150E33108F01CC1F0E057
:104AC000E35DF54D0C94AB28A895EFE9FFE0319735
:104AD000F1F700C000003ECD1123A1F00E949E0F0F
:104AE0000E94FC11EEE8F1E081919191A191B191C8
:104AF000892B8A2B8B2B09F0B7C221E0E63AF2070B
:104B000099F714CE8091A6019091A7010E94FA0610
:104B1000069708F43BCE81E08093A9020E949E0F85
:104B200031CE8F5F880C991CAA1CBB1C833109F005
:104B300065CE0F5F1F4F0630110509F047CE8FEF8E
:104B40008C878D871E860E9409078160782F988B3D
:104B50008F874C855D856E8588890E94652185CE0D
:104B6000863059F4F0E0EE5EFE4FE4910E2F10E037
:104B700098EDA92E91E1B92E91CE893061F4E69598
:104B8000F0E0E15FFE4FE4910E2F10E084E4A82EE8
:104B900081E1B82E83CE8F3061F4E695F0E0E45FDA
:104BA000FE4FE4910E2F10E0B6EDAB2EB0E1BB2E20
:104BB00075CE853159F4F0E0E75FFE4FE4910E2F9A
:104BC00010E0A8E8AA2EA0E1BA2E68CE08E210E014
:104BD0007FEFA72E7FE0B72E883109F45FCE8332B6
:104BE00049F4E7E0F1E005911491FFE7AF2EF1E120
:104BF000BF2E54CE04EF11E066ECA62E6FE0B62E69
:104C0000843209F44BCE00ED17E05EEDA52E57E09F
:104C1000B52E853209F042CE8BEAE89F812D112412
:104C20008695982F990F890FE81BF0E0EC5FFE4FF7
:104C3000E4910E2F10E0E2E5AE2EE5E1BE2E2ECE81
:104C400081E08093B101ABCE81E08093B201B0CE20
:104C500081E08093B301EFCE81E08093B401F4CE84
:104C60001092370389E0809338031EC08091370388
:104C7000823009F413C28330D1F08130E1F52FB7CF
:104C8000F8946091AA027091AB028091AC0290916D
:104C9000AD022FBF0E94B12860933803709339038F
:104CA00080933A0390933B0306E313E0BCC1E6E331
:104CB000F3E0AEE8B1E04D915D916D917D9162833D
:104CC00053834483339681E0A63AB807A1F7ECCF2B
:104CD00080913703823079F4609138037091390301
:104CE00080913A0390913B030E94B12886E290E0C4
:104CF0000E945029D9CF8FEF80933603D5CF4091B2
:104D0000390360913803809137030E9496149827E5
:104D10008927982790933B0380933A03C5CFA090AF
:104D20003A03B0903B03BA24AB24BA2480913703F2
:104D30000091380396E2099F80011124E4EE8E9FD2
:104D4000000D111D11248091390390E0880F991FE7
:104D5000080F191F6B2DC80187960E9450296A2DD4
:104D6000C8018896C5CF0E94D3139ECF8091370388
:104D70008930A1F08A3001F180913703813899F1AF
:104D800028F5803809F090CF20E0409138036091F9
:104D9000A5028091A4020E94291686CF8091380333
:104DA000F3E08F9FC00111246FEF70E00E94832811
:104DB000862F0E94C307E0CF80913803811103C082
:104DC0000E945514D9CF0E946914D6CF823879F148
:104DD000833809F069CF20E04091A6026091390341
:104DE00080913803D8CF60E0809138030E94221769
:104DF000909138038091A302911111C08E7F80930E
:104E0000A3021092A1022FEF40E782E02150404020
:104E10008040E1F700C000000E94690F45CF81602B
:104E20008093A30260E086950E9422173DCF809177
:104E300038038093A70238CF80913703893059F027
:104E40008A30C1F0813849F1D0F4803809F02CCF94
:104E50008091A60208CF80919602869586958695C8
:104E6000EFEF8E9FC0011124B1010E94832860934F
:104E700038031ACF8091960286958170F4CE8238DD
:104E8000A1F0833809F010CF8091A40280933803F9
:104E90008091A5028093390307CF8091A30280FF00
:104EA00002C08695E0CE80E0DECE8091A702DBCE08
:104EB000809196020E9450146091A3027091A40206
:104EC0008091A5029091A6020E941716EDCE80E176
:104ED00080933703E9CE81E0809337038DEAC3CE18
:104EE000009137031091380310270127102736E36C
:104EF000832E33E0932EA0903903B12CC5018A5C38
:104F00009C4F5C01C80185569B4F8A149B0409F491
:104F1000CBCE0D3AE1E01E0750F40E943C29F4018B
:104F200084830F5F1F4FFFEF8F1A9F0AEBCFF401AF
:104F30001482F7CF0091370310913803102701270F
:104F4000102726E3822E23E0922EA0903903A00E94
:104F5000B12EB11CC80185569B4FA016B10609F4AD
:104F6000A3CE0D3A21E0120720F4F40164810E94DF
:104F70005029FFEF8F1A9F0A0F5F1F4FEBCF0E9440
:104F8000C31392CE85E0A4CF00913703109138036C
:104F900010270127102796E3A92E93E0B92E8090C1
:104FA0003903912CC4018A5C9C4F4C01C80187963F
:104FB0008A149B0409F478CE0437E4E01E0750F409
:104FC0000E943C29F50184830F5F1F4FFFEFAF1A4A
:104FD000BF0AECCFF5011482F7CF0091370310918F
:104FE000380310270127102786E3882E83E0982EA8
:104FF000A0903903A00EB12EB11CC8018796A0164F
:10500000B10609F451CE043724E0120720F4F4016C
:1050100064810E945029FFEF8F1A9F0A0F5F1F4F74
:10502000ECCF0E94660D8091830384FFFACF43E8A2
:1050300053E068E0C8010E94B00E085F1F4F23E0F4
:105040000635120781F78091830384FF0AC043E885
:1050500053E060E090E080E00E94B00E10925603B2
:1050600065CB0E94660DEFCFF89421B3939A822FFF
:105070008C6081BB92B33CE0932792BB4FE788E3FF
:1050800091E0415080409040E1F700C0000082B3C1
:10509000832782BB21BB9398789448CB86E290E02B
:1050A0000E943C29109238031092390310923A035F
:1050B00080933B03F9CD2D32314008F08ECCC4CC27
:1050C0002D32314008F03DCC73CCDB018F939F93A0
:1050D0000E94A229BF91AF91A29F800D911DA39F15
:1050E000900DB29F900D1124089587FB082E06267F
:1050F00087FD819567FD61950E94C7280EF4919503
:1051000007FC81950895AA1BBB1B51E107C0AA1F8C
:10511000BB1FA617B70710F0A61BB70B881F991F58
:105120005A95A9F780959095BC01CD01089597FBFC
:10513000072E16F4009407D077FD09D00E9483282B
:1051400007FC05D03EF4909581959F4F089570958A
:1051500061957F4F0895EE0FFF1F0590F491E02DAC
:10516000099469279627692778278727782708953C
:105170000E94D729332312F48A1B9B0B0C94C2285C
:105180000E94D729B7FF0895821B930B0895991B9E
:1051900079E004C0991F961708F0961B881F7A952E
:1051A000C9F7809508958F929F92AF92BF92CF9248
:1051B000DF92EF92FF92CF93DF93EC0168817981C8
:1051C0008A819B81611571058105910521F464E255
:1051D00079ED8BE597E02DE133EF41E050E00E945F
:1051E000832949015A019B01AC01A7EAB1E40E945D
:1051F000A2296B017C01ACEEB4EFA50194010E94E1
:10520000B029DC01CB018C0D9D1DAE1DBF1DB7FF6C
:1052100003C00197A109B04888839983AA83BB83FF
:105220009F77DF91CF91FF90EF90DF90CF90BF906D
:10523000AF909F908F9008950E94D328089580E6A4
:1052400090E00E94D3280895B0E0A0E08093600031
:1052500090936100A0936200B09363000895FC01F5
:105260004150504030F001900616D1F73197CF01F0
:105270000895882799270895E199FECF9FBB8EBB9B
:10528000E09A99278DB30895A6E1B0E044E050E09C
:105290000C947529A8E1B0E042E050E00C94752927
:1052A000262FE199FECF9FBB8EBBE09A01970DB2EE
:1052B000021631F02DBB0FB6F894E29AE19A0FBEB8
:1052C00008950396272F0E9451290E945029252FC7
:1052D0000E945129242F0C9451290196272F0E94B6
:1052E00051290C945029DC01CB01FC01E199FECF3E
:1052F00006C0FFBBEEBBE09A31960DB20D92415055
:105300005040B8F70895052E97FB1EF400940E94B4
:105310009A2957FD07D00E94B52907FC03D04EF407
:105320000C949A2950954095309521953F4F4F4FB9
:105330005F4F089590958095709561957F4F8F4F41
:105340009F4F08950E94D729A59F900DB49F900D5F
:10535000A49F800D911D11240895B7FF0C94A229DC
:105360000E94A229821B930B0895A1E21A2EAA1B68
:10537000BB1BFD010DC0AA1FBB1FEE1FFF1FA21705
:10538000B307E407F50720F0A21BB30BE40BF50B02
:10539000661F771F881F991F1A9469F7609570958B
:1053A000809590959B01AC01BD01CF010895A29F0E
:1053B000B001B39FC001A39F700D811D1124911DE9
:1053C000B29F700D811D1124911D0895F894FFCF97
:1053D00028128C12901293129512971299129B1206
:1053E000A012A412A712AA12AC12AE12B012B212DC
:1053F000B412B612C012F812FC12FF1201130313FA
:10540000051307130C1310131313161318131A1381
:105410001C131E1320132213161516151F151F1506
:1054200021151F151F151F151615161526151F15E5
:105430001F1526159919A119A319BF19D319EB190D
:10544000021ABA1BBA1B2F1C2F1C8D1CA71CF11B88
:10545000F11BB21C1F1D301D301D3026362668265C
:105460007F268F26B326B6261C2758277B267B2629
:1054700067276B2770279A27BF27C227C427ED27E6
:1054800001000000E4063D0FD90E0A0F060F0119B6
:105490001A1B1C1D1E1F202122010201FF5A81829E
:1054A00083E200E900EA00B500B600B700CD008352
:1054B00001CC008A019201940121022302240225D9
:1054C00002260227022A02B300B4006F0070000512
:1054D0000695949396000102020202060606090947
:1054E000090909090F0F0F0F0F0F151515181919B5
:1054F00019191919191919192324252525252525BF
:00000001FF
