:100000000C9465030C94AC030C94AC030C94AC03FB
:100010000C94AC030C94AC030C94AC030C94AC03A4
:100020000C94AC030C94AC030C9490310C9464329B
:100030000C94062C0C94AC030C94AC030C94AC0301
:100040000C94AC030C94AC030C94AC030C94AC0374
:100050000C94AC030C94792C0C94AC030C94AC036E
:100060000C94AC030C94AC030C94AC030C94AC0354
:100070000C94AC030C94AC030C94AC030C94AC0344
:100080000C94AC030C94AC030C94AC030C94AC0334
:100090000C94AC030C94AC030C94AC030C94AC0324
:1000A0000C94AC030C94AC030C94AC0329003A0000
:1000B0003B003C003D003E003F004000410042004C
:1000C00043004400450068004600470048003500F2
:1000D0001E001F0020002100220023002400250014
:1000E000260027002D002E002A0049004A004B0060
:1000F0002B0014001A000800150017001C0018003F
:100100000C00120013002F0030004C004C004D007A
:100110004E00390004001600070009000A000B0019
:100120000D000E000F0033003400310028000000E5
:1001300000000000E10064001D001B000600190023
:10014000050011001000360037003800E100E10022
:10015000000052000000E000E300E20000000000A8
:1001600000002C00000000000000E200E30001514C
:10017000E000500051004F000100010001000100AB
:100180000100010001000100010001000100010067
:100190000100010001000100010001000100010057
:1001A0000100010001000100010001000100010047
:1001B0000100010001000100C75CC55C01000100F5
:1001C0000100010001000100010001000100010027
:1001D00001000100010001000100C85CC65C0100D3
:1001E0000100010001000100010001000100010007
:1001F0000100010001000100C25C000000000000DD
:1002000001000100010001000100010001000100E6
:100210000100010001000100010001000000C95CB3
:1002200000000100010001000000000000000100CA
:100230000000000000000100010001000100C45C9A
:10024000CA5CC35C01000100010001000100010063
:100250000100010001000100010001000100010096
:100260000100010001000100010001000100010086
:100270000100010001000100010001000100010076
:100280000100010001000100010001000100010066
:100290000100010001000100010001000100010056
:1002A0000100010001000100010001000100010046
:1002B0000100010001000100010001000100010036
:1002C0000100010001000000000000000100010029
:1002D0000100010001000100010001000100010016
:1002E0000100010001000100000001000000010008
:1002F00001000100000000000000010000000000FB
:1003000000000100010001000100010001000100E6
:1003100001000100010001000100010001000100D5
:1003200001000100010001000100010001000100C5
:1003300001000100010001000100010001000100B5
:1003400001000100010001000100010001000100A5
:100350000100010001000100010001000100010095
:100360000100010001000100010001000100010085
:100370000100010001000100010001000100010075
:100380000100010001000100010001000100010065
:100390000100000000000000010001000100010058
:1003A0000100010001000100010001000100010045
:1003B0000100010000000100000001000100010037
:1003C000000000000000010000000000000001002B
:1003D0000100010001000100010001000000000017
:1003E000000000002A2B2800000000000000000090
:1003F0000000000000000029000000002C1E342036
:10040000212224342627252E362D3738271E1F205B
:100410002122232425263333362E37381F040506A0
:100420000708090A0B0C0D0E0F10111213141516E4
:100430001718191A1B1C1D2F3130232D35040506E2
:100440000708090A0B0C0D0E0F10111213141516C4
:100450001718191A1B1C1D2F3130354C00000000D5
:10046000000000000000000000000000000000008C
:10047000000000000000000000000000000000007C
:100480007E0F00D4FFFFFFC70000007800010101CC
:100490000101010101010202020202020202020341
:1004A0000303030303030304040404040404050511
:1004B00005050506060606060707070707080808D4
:1004C00008090909090A0A0A0B0B0B0C0C0C0D0D83
:1004D0000D0E0E0E0F0F0F1010111111121213131B
:1004E0001414151516161717181819191A1A1B1B94
:1004F0001C1D1D1E1E1F20202122222324242526F0
:1005000026272829292A2B2C2D2D2E2F3031323227
:10051000333435363738393A3B3C3D3E3F40414233
:10052000434445464748494A4C4D4E4F5051535419
:10053000555658595A5B5D5E5F61626465666869CD
:100540006B6C6D6F7072737577787A7B7D7E80824D
:10055000838587888A8C8E8F91939596989A9C9E96
:10056000A0A2A3A5A7A9ABADAFB1B3B5B7BABCBEA6
:10057000C0C2C4C6C9CBCDCFD1D4D6D8DBDDDFE273
:10058000E4E7E9EBEEF0F3F5F8FAFDFF1A034900B2
:100590006E00660069006E00690074007900380022
:1005A00037002E00350000001A034D0041004E00B8
:1005B00055004600410043005400550052004500DC
:1005C000520000000403090409025B00030100A0BB
:1005D000FA090400000103010100092111010001D1
:1005E0002240000705810308000A090401000203F4
:1005F00000000009211101000122220007058203E9
:100600002000010705030320000109040200010383
:1006100000000009211101000122320007058403B6
:1006200020000A12010002000000084C4D7508016C
:1006300000010200010660FF0961A10109621500C5
:1006400026FF009520750881020963150026FF002A
:10065000952075089102C005010980A10185031943
:10066000012AB700150126B700950175108100C059
:10067000050C0901A101850419012AA00215012612
:10068000A002950175108100C005010906A10105B0
:100690000719E029E71500250195087501810295E4
:1006A00001750881010507190029FF150026FF00C3
:1006B000950675088100050819012905950575013C
:1006C0009102950175039101C00011241FBECFEF67
:1006D000DAE0DEBFCDBF04B603FE27C080910A0476
:1006E00090910B04A0910C04B0910D048730904BB5
:1006F000A740B04BD1F410920A0410920B04109250
:100700000C0410920D0414BE84B7877F84BF0FB60B
:10071000F894A895809160008861809360001092A1
:1007200060000FBEE0E0F8E3099512E0A0E0B1E060
:10073000ECEBFBE602C005900D92AA38B107D9F7A1
:1007400024E0AAE8B2E001C01D92AA30B207E1F7A6
:100750000E9436140C945C350C940000CF93DF9308
:10076000769A289889982D9A2F9A889AA2E0B2E0D2
:1007700048E052E0C1E0D0E08D91E82FE295EF70C3
:10078000F0E061A18F709E0101C0220F8A95EAF707
:10079000922F9095962391A382A1822B82A34A1730
:1007A0005B0751F7259A279A809A209A819A6E9A28
:1007B000DF91CF9108952F923F924F925F926F9267
:1007C0007F928F929F92AF92BF92CF92DF92EF92E1
:1007D000FF920F931F93CF93DF93CDB7DEB7289788
:1007E0000FB6F894DEBF0FBECDBF98878F8330E081
:1007F00020E080E02F80388448E1240E311C122F45
:10080000EFEFE20FE03128F4F0E0E25AFA4C0C94FA
:1008100060342D982F98889803C02D982F98889A27
:10082000289A50EA5A95F1F7C12CD12C7601C3943D
:10083000022E04C0CC0CDD1CEE1CFF1C0A94D2F767
:10084000260137014094509460947094EF81F885AC
:10085000A2E0B2E0BE83AD8390E0FA83E9834081F9
:10086000518162817381AD81BE810D91BE83AD8363
:10087000A02FA295AF70B0E09096AC91B0E00F7051
:1008800002C0B595A7950A95E2F74A015B01A0FD64
:1008900048C08C289D28AE28BF2880829182A282E1
:1008A000B3823496A981BA818D909D90AD90BC9011
:1008B000481559056A057B0509F091E0E215F30535
:1008C00061F61150103190F5E12FF0E0E259FA4C49
:1008D0000C9460342D982F9A9ECF2D982F9A9FCFED
:1008E0002D9A98CF2D9A9ACF2D9AF5CF2D9AF6CF93
:1008F0002D982F98889803C02D982F98889A899AB8
:1009000090CF2D982F9AF6CF2D982F9AF7CF2D9A1A
:10091000F0CF2D9AF2CF2D9AF8CF2D9AF3CF76986B
:1009200080CF84209520A620B720B7CF2D9A2F9A6C
:10093000889A03C02D9A2F9A88982898892B2F5F20
:100940003F4F2131310509F05ACF28960FB6F89460
:10095000DEBF0FBECDBFDF91CF911F910F91FF90F2
:10096000EF90DF90CF90BF90AF909F908F907F904F
:100970006F905F904F903F902F9008952D9A2F98F1
:10098000D7CF2D9A2F98D8CF2D98D1CF2D98D3CFC0
:100990002D98F5CF2D98F6CF2D9A2F9A889A03C0CF
:1009A0002D9A2F9A88988998C9CF2D9A2F98F6CF8B
:1009B0002D9A2F98F7CF2D98F0CF2D98F2CF2D9814
:1009C000F8CF2D98F3CF769AB9CF81E0089581E0E2
:1009D00008950C94E70408950C94EB041F93CF93AF
:1009E000DF9300D000D00F92CDB7DEB749835A8392
:1009F0006B8330918C0289819A8131111DC06623ED
:100A0000B9F02223A9F00E94130B182F682F8981B7
:100A10009A810E94BF0A69817A81812F0F900F907D
:100A20000F900F900F90DF91CF911F910C9452294E
:100A30000E94EB0A182FEFCF0E94130B69817A8175
:100A4000EDCFFC01262F4081518162817381848129
:100A50000C94EE0481E00895CF93DF93EC0160E005
:100A60000E942105BE01DF91CF910C94EC04E1E0DE
:100A7000F0E0DF0102C0AA0FBB1F6A95E2F7BD01DB
:100A8000DF0102C0AA0FBB1F4A95E2F76A2B01C023
:100A9000EE0F2A95EAF7962F9823961302C08E2B15
:100AA0000895E0958E230895242F462F682F809176
:100AB000B4020E9437050C947C0A0E9498130E948D
:100AC000D2060E949B230C94B3130C94B6130E947D
:100AD0003B2380E00E94D70681E00C94B92308955F
:100AE00008950E94140A0E9470052FEF84E39CE091
:100AF000215080409040E1F700C000000C949D2CF4
:100B00000F931F93CF93DF938C0161E00E94210527
:100B1000EC01B8010E940C26882309F441C0B801F9
:100B2000CE010E94E9048823D9F1B801CE010E94C8
:100B3000B12A8823A9F1B801CE010E946027882339
:100B400079F1B801CE010E941B2A882349F1B8012E
:100B5000CE010E940D25882319F1F8018281882396
:100B600061F0CA35FDE5DF0721F170F4C115ECE550
:100B7000DE07A1F0CE3DDC45C9F0C801DF91CF9181
:100B80001F910F910C94E504CB358DE5D807A1F0AA
:100B9000CC35DD4591F70E94AB0FEFCF0E94710578
:100BA00080E0DF91CF911F910F9108950E94641012
:100BB000F7CF0E94B40FE1CF0E94B70FDECF0C94A5
:100BC0006F050E940D2B0E94D70680E00E94B9237A
:100BD0000C94DF05DF92EF92FF920F931F93CF9358
:100BE000DF93E82FF0E0E452FC4FD490282F2695B5
:100BF0002695269530E0F901E458FB4F0491877063
:100C000010E0082E02C0159507950A94E2F70170CE
:100C10001127F901E459FB4FE490F12C082E02C092
:100C2000F594E7940A94E2F791E0E922FF24F901B0
:100C3000E45AFB4FC491D0E002C0D595C7958A9580
:100C4000E2F7C170DD270115110519F081EE0E9450
:100C50002207E114F10419F086EE0E9422078D2D7F
:100C60000E94A707EF2819F086EE0E946807012B63
:100C700019F081EE0E946807CD2B51F08CE2DF91D4
:100C8000CF911F910F91FF90EF90DF900C94A707E9
:100C9000DF91CF911F910F91FF90EF90DF9008951A
:100CA000EF92FF920F931F93CF93DF93EC01162FD8
:100CB0000AE08881882309F454C0813009F04EC0CD
:100CC0008981813099F47E0122E0E20EF11C8A8153
:100CD0000E94A707E7012196812F815050F3EFE989
:100CE000FFE03197F1F700C00000F7CF823041F408
:100CF0007E0182E0E80EF11C8A810E942207EACF81
:100D0000833041F47E01E2E0EE0EF11C8A810E9404
:100D10006807E0CF843011F02196DDCF2A8122963A
:100D200090E080E0AE014F5F5F4F2053330B2A30DD
:100D3000310548F0019778F2EFE9FFE03197F1F7DC
:100D400000C00000F7CF089FB001099F700D11246B
:100D5000C901860F971F2981EA01E4CF0E94EA05A5
:100D6000BACFDF91CF911F910F91FF90EF9008952F
:100D700060E00C94500608950C94BB0681E0089541
:100D8000CF93C82F0E94BE06882331F0C1FF06C052
:100D90005E9AC2FF05C02C9ACF9108955E98F9CF54
:100DA0002C98FACF569A5E98249A2C980895CF934F
:100DB000C82F0E94BC068C2FCF910C94C006CF93F5
:100DC000DF93CDB7DEB72B970FB6F894DEBF0FBE1B
:100DD000CDBF4F83588769877A878B8761110E94BF
:100DE000F90E1E821D8285E0FE013796DE01119606
:100DF00001900D928A95E1F78C819D81892B89F470
:100E000049815A816B817C818D819E810E941A0E5D
:100E10002B960FB6F894DEBF0FBECDBFDF91CF91FA
:100E2000089589819A8189238F3F51F3CE010196DC
:100E30000E942A058111E4CFEBCFFC0180819181D2
:100E40000C94400BCF93C82F882309F43FC08CEF3C
:100E50008C0F813AA0F46C2F8091EA019091EB0104
:100E60000E94622B882329F08C2F0E94BB0E0E94C7
:100E7000290F8C2F0E94B40ECF910C94290F80E281
:100E80008C0F883048F4C77081E001C0880FCA9584
:100E9000EAF70E94DC0EF0CFEBE5EC0FE33040F414
:100EA000F0E0EA5CFD4F808190E0CF910C94242B20
:100EB000C85AC73158F4EC2FF0E0EE0FFF1FE85F7F
:100EC000FD4F80819181CF910C943A2BCF91089561
:100ED000882329F19CEF980F913A20F40E94BB0ED1
:100EE0000C94290F90E2980F983050F4877091E09D
:100EF00001C0990F8A95EAF7892F0E94E20EF0CF80
:100F00009BE5980F933020F490E080E00C94242B24
:100F1000885A873120F490E080E00C943A2B0895B1
:100F20001F93CF93DF93182FEB010E942207209786
:100F300031F4812FDF91CF911F910C9468078FE9D5
:100F40009FE00197F1F700C000002197F0CF70E01B
:100F500060E0893311F460E570E00C949007882319
:100F600021F00E94DC0E0C94290F0895882321F0B3
:100F70000E94E20E0C94290F0895BF92CF92DF9247
:100F8000EF92FF920F931F93CF93DF936C01D62FB5
:100F9000C72FFC011281F580F2949FE0F9220E9494
:100FA000D20EE82E8823B9F0E12E1123A1F08C2F68
:100FB000807F803421F080E28D0F8830B0F0809106
:100FC000400382FD12C082E00E947A0F0E94D20E7E
:100FD00091E0E82EE926BC2EB2948FE0B822EB2DEA
:100FE000F0E0E258FA4C0C946034E12CF4CF0C2F72
:100FF0000F70C07F11F00295007F112399F000233C
:1010000059F080E28D0F883010F0D11107C0802F89
:101010000E94DC0E0E94290F8D2F41C0802F0E945C
:10102000EC0EF8CF8D2F0E946807002309F43FC013
:1010300080E28D0F883010F0D11104C0802F0E9403
:10104000E20E03C0802F0E94F20E0E94290F2FC0D3
:101050000C2F0F70C07FC03211F00295007FDD238E
:1010600081F0D13009F469C0112309F473C0FF2065
:1010700009F469C0F601858180FFCECF8F7085832A
:1010800062C08091400382FF38C0112359F00023D1
:1010900029F0802F0E94DC0E0E94290F80E00E9420
:1010A000220705C080E00E9468070111C7CFEB2D21
:1010B000E850FF0B349720F40E940D2B0E94D706B6
:1010C000EE2009F452C10E94CE0E80FD4EC1F60101
:1010D00012820E94C80E0E948D0AC6010E94D60983
:1010E0000E94C80EDF91CF911F910F91FF90EF905A
:1010F000DF90CF90BF900C94980A112389F0F110E3
:1011000006C00E940C0F802B0E94AF07D0CFF1E0E9
:10111000FF12F7CF0E940C0F802B0E94120FC7CF37
:10112000F11006C00E941F0F802F0E94B607BFCF8C
:1011300021E0F21609F4BBCFF5CF112331F035E0F1
:101140003F1508F4B4CF802FDFCF84E08F1508F46B
:10115000AECFEACFFF2041F3D93349F4FFEF27EEBA
:1011600033E0F15020403040E1F700C000008D2F07
:101170000E9468079CCF8C2F86958695837069F0B6
:10118000813009F094CF8D2F9C2F9370111102C0E4
:1011900090E080E00E943A2B8ACF8D2F9C2F937095
:1011A000111102C090E080E00E94242B80CF8C2F90
:1011B000837079F511117BCF4D2F4295469547707D
:1011C000440F440F8D2F8F70042E01C0880F0A9496
:1011D000EAF72D2F2071D4FF07C02FE030E001C0C7
:1011E000220F4A95EAF72095C695C695C370822BC3
:1011F000C23049F058F4C13019F00E946E0A57CF3E
:101200000E94690A54CF0E94730A51CF0E94670A54
:101210004ECF8695112311F08C2F8170882309F40D
:1012200046CF4D2F429546954770440F440F8D2F62
:101230008F70042E01C0880F0A94EAF72D2F2071B9
:10124000D4FF07C02FE030E001C0220F4A95EAF733
:101250002095C695C695C370822BC23049F058F4CC
:10126000C13019F00E94B40A22CF0E94AF0A1FCFEA
:101270000E94B90A1CCF0E947C0A19CFCF7011239B
:1012800029F08C2F0E948D0A8D2F3ECF8D2F0E942A
:10129000B6078C2F0E94980A0ACFD23F51F160F412
:1012A000D03FB9F0D13F81F0112309F449C0F110CA
:1012B000B3CE8C2F8F7121C0D33F11F1D43FA1F752
:1012C0008091400382FF26C08C2F8F71112311F370
:1012D00014C0112349F084E08F1508F4E8CE8C2F58
:1012E0008F710E94A40AE3CE95E09F1508F4DFCE2B
:1012F000F6CF8C2F8F711111CDCF0E948D0AD7CED2
:10130000112329F08C2F8F710E94850AD0CE0E9464
:10131000820ACDCE112349F0CF718C2F0E948D0A05
:1013200063E08C2F0E945F0FC2CE81E00E947A0F93
:10133000E1E0EF1508F0BBCE82E00E947A0FB7CE55
:10134000F1100ACF8C2F8F71A5CF4C2F4F706D2FBE
:10135000C6010E9487110E946E0BA9CE4C2F4F70C0
:101360006D2FC6010E948A11A2CEDF91CF911F91ED
:101370000F91FF90EF90DF90CF90BF9008950F9363
:101380001F93CF93DF93EC01688179818A810E945A
:101390004A0B8C010E94BE0A0E94660AB801CE0167
:1013A000DF91CF911F910F910C94BD07CF93DF93E5
:1013B000EC018B819C81892B29F08881998189237B
:1013C0008F3F59F4DF91CF910895CE010E94BF095C
:1013D000CE01DF91CF910C942C05CE010E948005A7
:1013E0008111F3CF0E94D20E882361F38A81882372
:1013F00049F38091400382FDE5CF82E0DF91CF91F8
:101400000C947A0F90E080E00E94242B90E080E022
:101410000E943A2B0E94F90E0E94090F0C94290F8A
:101420000E94C20E0C94020A0E94E90E0C94100A4B
:10143000E92FE295EF70E250EE3070F4F0E0E25701
:10144000FA4C0C946034803F19F020F4883E20F46C
:1014500081E00895843FE1F380E00895883EC0F381
:10146000813FD1F7F5CF93FB882780F90895FC01E0
:10147000808191810E94400B0C94180ACF93DF93D6
:1014800000D000D00F92CDB7DEB70F900F900F9025
:101490000F900F90DF91CF910895CF93DF9300D0FD
:1014A00000D000D0CDB7DEB726960FB6F894DEBFD9
:1014B0000FBECDBFDF91CF91089508950C945D0AC2
:1014C0000E945E0A8093B5020C94020A08950C945F
:1014D000600A9091B502892B0C94600A9091B50234
:1014E00089230C94600A9091B50289270C94600AB4
:1014F0000C945D0A0C94780A0E947A0A8093B402D4
:101500000C94020A80E00C947C0A91E001C0990FCF
:101510008A95EAF7892F0C947C0A21E030E001C01B
:10152000220F8A95EAF78091B402822B0C947C0AF0
:1015300021E030E001C0220F8A95EAF720958091E2
:10154000B40282230C947C0A21E030E001C0220F17
:101550008A95EAF78091B40282270C947C0A9091D4
:10156000B402892B0C947C0A9091B40289230C94C8
:101570007C0A9091B40289270C947C0A089521E199
:10158000929F800D1124982F977041E001C0440F65
:101590009A95EAF786958695869593E0899FF0015E
:1015A0001124E357FD4F90E080E070E05191DF019E
:1015B00011979B01082E02C0369527950A94E2F7F1
:1015C000217021952527242325272C9301968330EC
:1015D000910561F7089521E1929F800D1124982FC4
:1015E000977086958695869523E0829FF001112459
:1015F000E357FD4F50E040E080E0219130E0092EBC
:1016000002C0369527950A94E2F721703327042EFD
:1016100001C0220F0A94EAF7822B4F5F5F4F4330DD
:10162000510559F70895CF92DF92FF920F931F93C0
:10163000CF93DF936C010091B4028091B502082B27
:10164000C7E0D0E010E0FC2EC8010C2E02C095953A
:1016500087950A94E2F780FD0CC02197A0F7F12C42
:101660008F2DDF91CF911F910F91FF90DF90CF9041
:101670000895B6018C2F0E949D12019771F3F0CF4F
:10168000CF93DF93EC010E94130BBE01DF91CF914A
:101690000C949D121F93CF93DF93EB0190918C02DA
:1016A000992331F0CB01DF91CF911F910C94400B26
:1016B000882379F0CB010E94130B182F682FCE01DD
:1016C0000E94BF0ABE01812FDF91CF911F910C9420
:1016D0009D12CB010E94EB0A182FF4CFEF92FF92DC
:1016E0000F931F93CF93DF938C01892B81F0F12C03
:1016F000EE24E394E8012196F8018491843770F494
:10170000843008F05FC08130B1F08230A1F1DF9108
:10171000CF911F910F91FF90EF900895853709F4B5
:101720004CC008F43DC09CE7980F903780F78F7746
:101730000E94680749C00E5F1F4FFE01849190E22E
:10174000980F983060F48770FE2D01C0FF0F8A95C6
:10175000EAF78F2F0E94FC0E0E94290F02C00E9400
:1017600022078F2D815030F2EFE9FFE03197F1F73A
:1017700000C00000F7CF0E5F1F4FFE01849190E282
:10178000980F983050F48770FE2D01C0FF0F8A9596
:10179000EAF78F2F0E94020FDFCF0E946807E1CF88
:1017A0000E5F1F4FFE01C491C150D8F28FE99FE038
:1017B0000197F1F700C00000F7CF0E5F1F4FFE0149
:1017C000F490CFCF0E9422078E01CBCF1F93CF93EF
:1017D000DF93C091B60216E08091B7028C1304C06B
:1017E000DF91CF911F910895D0E01C9FF0011D9FC4
:1017F000F00D1124E854FD4F4081518162817381C5
:10180000848195810E944D0A2196C770E5CF409151
:10181000E8025091E9026091EA027091EB02809136
:10182000EC029091ED020C944D0AFF920F931F93DE
:10183000CF93DF938091ED02807FD1F48091EA0213
:101840008823B1F08091B6021091B7026091E8024E
:101850007091E902A091EB02B091EC02062F0723F0
:10186000C091E801D091E90196E0F92E181306C065
:10187000DF91CF911F910F91FF90089590E0109705
:1018800011F00F3F19F401968770F0CFF89E900188
:10189000F99E300D1124F901E854FD4F41814713A1
:1018A000F2CF40814613EFCF42814111ECCF43810B
:1018B00054814A1B5B0B4C175D0728F78091ED02A2
:1018C0008F7080618093ED02F901E354FD4F8081B8
:1018D0008F708061808388EE92E00E94D609DF914C
:1018E000CF911F910F91FF900C94E60BAF92BF9296
:1018F000CF92DF92EF92FF920F931F93CF93DF93DC
:10190000CDB7DEB761970FB6F894DEBF0FBECDBF7F
:101910008C0185E0F801DE011D9601900D928A95FB
:10192000E1F7F801E28088EEC82E82E0D82E6091BF
:10193000EB027091EC026115710509F45FC19091A1
:10194000E8022091E902892F82238F3F09F456C1D2
:1019500040815181A380B480F090EA02F501E61B3A
:10196000F70BBF01E091E801F091E901FF2009F4D4
:10197000F6C08091ED02382F307F6E177F0708F098
:10198000AFC0311179C0FE2C251323C0941321C0A0
:10199000E1101FC08F7080618093ED020E94070CE0
:1019A000C6010E94D6098091ED02F80185838F2D32
:1019B00061960FB6F894DEBF0FBECDBFDF91CF9119
:1019C0001F910F91FF90EF90DF90CF90BF90AF905D
:1019D0000895AB2829F0842F85238F3F09F027C174
:1019E00080E0F82FF170DF2E80FF3CC08091B602BE
:1019F0002091B70236E0821315C04D875E878D8532
:101A00009E850E94400B292F22952F702230F0F0E6
:101A1000243018F59F70F1F0F8019581907FD1F492
:101A2000D12C1EC090E0389FF001399FF00D112499
:101A3000E854FD4F6181651306C06081641303C0E3
:101A400062816E110FC001968770D5CF9F7011F023
:101A5000882331F3805E883018F3C8010E94D609CC
:101A6000FD2CA5CFEE2009F4A2CF8091ED0281607C
:101A70008093ED02F12C9BCF251306C0941304C074
:101A8000F801EE2009F487C0C8010E94370A8823B4
:101A900019F1EE2009F18091ED02803270F0209171
:101AA000E8023091E90238872F831986BB86AA861F
:101AB0008C87CE0107960E94D60986E0F801A8EE31
:101AC000B2E001900D928A95E1F70E94150C0E94F8
:101AD000070CFF24F3946BCFC8010E94D609F9CFFD
:101AE000311113C07A2DB98AA88A6E2D89890E9476
:101AF0003E0A88EE92E00E94D60986E0F601119235
:101B00008A95E9F70E94070CB5CF25130FC09413EF
:101B10000DC0E1100BC0F8018583C8010E94D609F1
:101B200086E0F60111928A95E9F741CFC8010E943B
:101B3000370A882389F2EE2079F28091ED02803213
:101B400008F4BBCF2091E8023091E9023A8329835F
:101B50001B82BD82AC828E83CE010196ACCF6E1704
:101B60007F0708F03EC0FE2CEE2009F4B5CF251308
:101B70002AC0941328C08091ED0280FD1BC0982FCD
:101B8000907FC1F0F8018583903F31F0982F907FCE
:101B9000905F8F70892B8583C8010E94D60986E0EB
:101BA000F801A8EEB2E001900D928A95E1F70E944B
:101BB000070CFDCE86E0F801A8EEB2E001900D9290
:101BC0008A95E1F7F4CEC8010E94370A811175CFDA
:101BD0008091ED0281608093ED02C8010E94D609D8
:101BE000E6CE7A2DB98AA88A6E2D89890E943E0A8E
:101BF00086E0F60111928A95E9F7D9CFEE2009F433
:101C00006BCFC8010E94370AF82E882309F464CFED
:101C100086E0F801A8EEB2E001900D928A95E1F716
:101C200088EE92E00E941D070E94150CC0CF81E053
:101C30008E25D7CE1F93CF93DF93CDB7DEB72C97EA
:101C40000FB6F894DEBF0FBECDBF4F8358876987AC
:101C50007A878B879C87CE0107960E94760C882313
:101C600069F08A859B85892B39F04F815885842FAF
:101C700085238F3F09F071C016E05FC086E0FE014A
:101C80003796DE01119601900D928A95E1F78A85CB
:101C90009B85892B89F38F81988589238F3F61F3F9
:101CA0002091B70230E0C9010196877099274091D1
:101CB000B6024817190671F40E94140A1092B7026E
:101CC0001092B60286E0E8EEF2E0DF011D928A95FE
:101CD000E9F7D2CF96E0929FD001939FB00D1124E7
:101CE000A854BD4FFE01319601900D929A95E1F7EF
:101CF0008093B7020E94E60BBFCF819FC0011124E1
:101D000088549D4F0E94760C8823E9F0E091B6023A
:101D10001E9FF0011124E854FD4F408151816281E2
:101D20007381848195810E944D0A8091B60290E072
:101D30000196877099278093B6028091B6029091A0
:101D4000B7028913DACF2C960FB6F894DEBF0FBE18
:101D5000CDBFDF91CF911F91089569857A858B85DD
:101D60009C850E944D0A88CF682F8091EA0190914E
:101D7000EB010C94982B682F8091EA019091EB0174
:101D80000C949A2B8091EA019091EB010C949C2B7E
:101D90008091EE0285958595859508958091EE0256
:101DA000877008959091EE02977081E009F480E0C9
:101DB00008958091FA0208959091FA02892B8093F8
:101DC000FA02089580959091FA0298239093FA026E
:101DD00008951092FA0208959091F902892B809348
:101DE000F902089580959091F90298239093F90251
:101DF00008951092F90208959091F802892B80932A
:101E0000F802089580959091F80298239093F80233
:101E100008951092F80208958091EF0208950895B0
:101E20000C940F0F9091400392FD08C09091EF0227
:101E3000981721F08093EF020C94100F0895809171
:101E4000EF02882329F01092EF0280E00C94100F2B
:101E50000895E091EA01F091EB018091FA0280830C
:101E6000E091EA01F091EB0180819091F902892BD8
:101E70008083E091EA01F091EB0180819091F8027A
:101E8000892B80839091EF02992381F0E091EA0100
:101E9000F091EB018081892B80838091EA01909100
:101EA000EB010E94502B81110E941F0F8091EA01CB
:101EB0009091EB010C94192B08950C945C0F909168
:101EC000400392FD10C098E0899F90011124622B7D
:101ED0006093EE020E948D0A8091EE0285958595B1
:101EE00085950C945D0F0C948D0A1092EE0280E0A3
:101EF0000C945D0F9091EE02809589238093EE0201
:101F0000282F277091F4282F082E000C330B9217DE
:101F1000130659F09091400392FD07C08595859571
:101F200085950E94980A0C94750F0895909140032E
:101F300092FB222720F9281769F080FB92F99093F1
:101F4000400380913F03909140030E94E10F82E0A3
:101F50000C947A0F08958091400382FB882780F9C2
:101F600091E089270C94960F81E00C94960F80E005
:101F70000C94960F6FEF7FEF90E080E00C94153596
:101F800090E080E00E94E134893E9E4F11F40C9471
:101F9000B52580E0089582E090E00C94D93483E088
:101FA00090E00C94D934CF9384E090E00E94D9342F
:101FB000C82F82E290E00E94D934982F8C2FCF91C5
:101FC0000895CF93C92F682F84E090E00E94F734E2
:101FD0006C2F82E290E0CF910C94F734AB01BC01FE
:101FE0008FE090E00C940935AB01BC0183E190E0F7
:101FF0000C94093560E070E0CB010C94F40F60E0C4
:1020000070E0CB010E94EE0F0C94FA0F69EE7EEFA8
:1020100090E080E00E94153560E082E090E00E9450
:10202000F73460E083E090E00E94F7341092B5024C
:1020300060E084E090E00E94F73460E082E290E0AB
:102040000E94F73460E085E090E00E94F73460E0A1
:1020500086E090E00E94F7346FEF87E090E00E9406
:10206000F73440E050E0BA0188E090E00E94093582
:1020700060E08DE090E00E94F73440E050E0BA016B
:1020800088E190E00E94093560E087E190E00E94DD
:10209000F73440E050E0BA018CE190E00E9409354D
:1020A00070E060E080E290E00E94153540E050E092
:1020B000BA0188E190E00E94093580E00E94CE25B7
:1020C0000E94F4250C94FF0F0C940610682F8EE0EC
:1020D00090E00C94F7340E94422C609318037093A4
:1020E000190380931A0390931B0360931403709356
:1020F00015038093160390931703089585B780689E
:1021000085BF85B7806885BF0895089508950C94AC
:10211000851008950C9489100E947E108BE793E13E
:102120000E94032B0E9486100C94871081E0089572
:102130000C949610089508950E949A100C949B1088
:102140000E942D2C0E9403260E94C4130C948A1016
:102150004F925F926F927F928F929F92AF92BF92B7
:10216000CF92DF92EF92FF920F931F93CF93DF9363
:10217000CDB7DEB72A970FB6F894DEBF0FBECDBF3E
:102180000E94DB1381110E946B105CEFC52E52E0A0
:10219000D52E10E000E0E02E802F0E94B8132B0116
:1021A0003C01F60181909190A190B1906F0184144F
:1021B0009504A604B704B1F40F5F1F4F0630110554
:1021C00051F78FEF89838A831B820E94362C8160AE
:1021D000782F9D838C8349815A816B818D810E94E8
:1021E000DF0651C080911C0381FD0E94C313D501FD
:1021F000C40184259525A625B725F12C812C912C89
:1022000054018394AC01BD01482159216A217B21ED
:10221000452B462B472B09F45AC00E9498104820A2
:1022200059206A207B20DD24D3944528462847285E
:1022300009F4D12C882379F0FE82EF82D8860E949F
:10224000362C8160782F9A8789874E815F816885D7
:102250008A850E94DF06000F111F000F111FF80171
:10226000E450FD4F80819181A281B3818825992519
:10227000AA25BB2580839183A283B3834D2D6F2D27
:102280008E2D0E94E11D0E943B230E940D2B9091F8
:10229000FB02891729F10E940D2B8093FB022A96DD
:1022A0000FB6F894DEBF0FBECDBFDF91CF911F9167
:1022B0000F91FF90EF90DF90CF90BF90AF909F90E5
:1022C0008F907F906F905F904F900C94D706F3940F
:1022D000880C991CAA1CBB1CF1E1FF1293CF6CCF98
:1022E0002A960FB6F894DEBF0FBECDBFDF91CF9117
:1022F0001F910F91FF90EF90DF90CF90BF90AF9024
:102300009F908F907F906F905F904F90089590E096
:1023100080E008950895FC01EE0FFF1FE457FB4F86
:10232000859194910895CF93DF930E94A112EC01BF
:10233000811520E5920708F041C0811530E493072C
:1023400008F0B4C0803E910518F5803C910508F076
:102350009DC0883A910570F4853A910508F08EC0C9
:1023600081309105F9F00097E9F00497D8F4D0E0B6
:10237000C0E018C08F3B9105D0F7C85AD0E0CC0F11
:10238000DD1FC75CDD4F0990D881C02DD4640AC021
:102390008115904258F4C11581E0D80718F4C83E61
:1023A000D10528F7CE01DF91CF910895C11590E3B3
:1023B000D90708F071C0CE019F706AC0811525E56C
:1023C000920758F5811534E5930708F09EC08115F2
:1023D00042E5940750F4C11581E5D80708F469C0B7
:1023E000DC2FCC27C16FD06ADDCF982F96959695BC
:1023F0009E0123703327C115D34508F077C0C1E093
:10240000D0E002C0CC0FDD1F2A95E2F720E2929FB8
:10241000C0011124C82BD92B67C0C11589E5D80785
:10242000A8F4C11598E5D90708F074C0C11526E5D0
:10243000D20708F09CCF8C2F0E943813C82FD0E011
:10244000DC2FCC27CC27DF71D062ACCFC1153AE5A9
:10245000D30708F464C0CE0190568115904208F06D
:1024600086CF8D2F8F710E94381390E0982F882788
:1024700088279F719C012C2BE901E6CFC55AD0E03B
:10248000C959DD4FC881D0E0D0648CCF805C910900
:102490000E948B11EC0186CFCE019927D3FF03C098
:1024A000EC01D86C7FCFEC01D06C7CCFDF70D06AB0
:1024B00079CFCE01E4E096958795EA95E1F78370B0
:1024C0002C2F26952695237090E2299F90011124A8
:1024D000382B8C2F8370C1E0D0E002C0CC0FDD1F01
:1024E0008A95E2F7C22BD32BDC685CCFC1E0D0E049
:1024F00002C0CC0FDD1F2A95E2F730E2939FC001A6
:102500001124C82BD92BDA684DCFD82FCC27C46F14
:10251000D06A48CFDC2FCC27C06FD06A43CF8C2F36
:102520008F700E94381334E0D695C7953A95E1F73D
:10253000CF709C2FEC01D06935CF0E9452290C94AA
:10254000931182389105B1F1B0F48133910509F40A
:1025500075C048F48932910509F469C08A32910541
:1025600009F473C008958533910509F459C089337E
:10257000910501F10895833E9105A9F138F4803E5B
:102580009105F9F0823E910549F10895863E910545
:10259000A9F1873E9105C9F1843E910519F5209175
:1025A000400321FF1FC080913F0384FD14C087EECC
:1025B00090E0089520913F032370A1F080EE90E019
:1025C000089520913F0320FD47C03091400330FF24
:1025D00009C024FF44C090E080E004C020913F0384
:1025E00022FDF7CF089520913F0322FD3BC030919B
:1025F000400330FDE3CF24FFF5CFEDCF20913F0323
:1026000023FFF0CF24FDE7CFD2CF20913F0323FD5E
:102610002CC03091400331FFEECF84EE90E008955E
:1026200020913F0325FFDECF89E290E008952091BD
:102630003F0325FFD7CF85E390E0089520913F0326
:1026400026FFD0CF8AE290E0089520913F0326FF35
:10265000C9CF81E390E0089589E390E0089583EE87
:1026600090E0089582EE90E0089586EE90E008955F
:1026700090913F0392FF06C0282F28712830F9F46B
:10268000877F846093FF06C0282F28712831F1F4DA
:10269000877E84612091400320FF06C0382F387167
:1026A0003830D9F4877F816021FF06C0282F287138
:1026B0002831D1F4877E816194FD877E0895282F8B
:1026C00024712430F9F68B7F8860DCCF282F2471A9
:1026D000243101F78B7E8861DDCF382F31713130A5
:1026E00019F78E7F8860E0CF282F2171213121F7E3
:1026F0008E7E8861E1CF80E008950C94BA0F0E942D
:10270000DB132FEF86E791E0215080409040E1F706
:1027100000C000000E94DB1380E00E94B81360FF3D
:1027200004C00E947D130C949D2C08950C947F137B
:102730000E94C00F811102C00E9464100E94CB0F42
:1027400080931C030E94D30F9093400380933F0318
:102750000E9496130E94CF0F0E94670A8091B402D4
:102760000C947A0A08950C94B21308950C94B5133E
:1027700094E0899FF0011124E75AFC4F6081718138
:1027800082819381089508950E94AE03E1E4F3E00D
:10279000A9E5B3E011921192119211921D921D922E
:1027A0001D921D9283E0E935F807A1F786E00E94AB
:1027B000EE130C945D05CF9381E493E00E94DB035C
:1027C000C82F282F46E069E573E081E493E00E947A
:1027D000EF130E9465058C2FCF9108950895FF9205
:1027E0000F931F93CF93DF93F82ED92F8B01C42F14
:1027F000222349F081E080931F030E94362C90939E
:102800001E0380931D0380911F03882399F08091FC
:102810001D0390911E030E944E2C059758F0EF2D3A
:10282000FD2FD80190E080E0D0E08C179D0744F0A8
:1028300010921F03DF91CF911F910F91FF90089588
:1028400001911191219131910D931D932D933D9300
:102850000196EBCF0E94652E0E94A0100C94712E61
:102860000E94752E0E94A8100C948F2E0E94BD2BE2
:102870000E944C2E0E948C100E942A140E94301438
:102880000E949C10FBCFEF92FF920F931F93CF9368
:10289000DF93EB01E82FD11110C0442321F0F0E0C9
:1028A000E457FB4FE4916E2F7E2F8E2FDF91CF9157
:1028B0001F910F91FF90EF9008950D2F10E0282F9A
:1028C00030E0442329F024573B4FF901249130E0B4
:1028D000F6E0CF9FC0011124EFEFF0E0BF010E94AE
:1028E0001634AB018C2F90E0880F991FA5E5A49FAB
:1028F000B001A59F700D1124861B970B982F990F7F
:10290000980FBF01601B710B629FD001639FB00DD8
:10291000729FB00D11248B2F9D9FB0011124672F42
:102920007727EF01C61BD70BBE01629FE001639FB3
:10293000D00D729FD00D11247F01E91AF108E09E9D
:10294000B001E19E700DF09E700D1124672F772766
:10295000E61BF70BE29F8001E39F100DF29F100D25
:102960001124E12F722F4230510599F048F441159E
:10297000510569F04130510581F0EB2F8D2F07C0D3
:102980004430510569F080F046305105B1F76E2FA3
:102990008DCFE22F7B2F812FFACFE22F7D2FF7CF24
:1029A000EB2F822F712FF3CF7B2F822FED2FEFCFC5
:1029B00041E00C94431430E020E0869F212D969F47
:1029C000200D311D1124C9010895AC0182309105FB
:1029D00008F408959FEF413E8EE1580740F49A01B4
:1029E00095E0369527959A95E1F798E0920F61E08A
:1029F000E62FE90FFF27FF1F9F0135952795822FAF
:102A0000229FF001239FF00DF00D11244E175F0758
:102A100038F49FEF920F961758F78FEF860F0895AF
:102A20002F3FE9F361E0620FF6CFE82F86FDE095D6
:102A30002E2F2F7086FD2F5FE695E695E695E670C2
:102A4000F0E0E659FD4F9181929F902D212D1124A8
:102A500092959F702295207F922B2081920F87FD67
:102A6000919580E8890F0895E42FF0E0EE0FFF1FA5
:102A7000E659FE4F408134EE439F412D1124E82F4B
:102A8000F0E050E0445E5F4FDA01A21BB1099D0106
:102A9000B7FF03C031952195310993E0220F331F11
:102AA0009A95E1F7AF01421B530B9A0157FD20E0C5
:102AB000582F259F212D1124822F0895E42FF0E017
:102AC000EE0FFF1FE559FE4F6081621B08950F93C3
:102AD000CF93DF93D72FC82F47FD419588E390E030
:102AE000841B910947FD9395889FB001899F700DC4
:102AF000700D1124229FC001239F900D900D112471
:102B0000860F971F0E94E514982F990F890F682F41
:102B1000600F7D2F8C2FDF91CF910F910895322F71
:102B200050E0FA01EE0FFF1FE559FE4F90819052E1
:102B300097FD9195440F551FFA01E659FE4F2081EC
:102B4000231B330B290F311D97FD3A95620F089512
:102B50000F93CF93DF93D72FC82F2115310529F479
:102B600060E857FD1DC060E01BC0F90137FF04C0DD
:102B7000EE27FF27E21BF30BBA016E0F7F1F57FDF5
:102B800016C04E1B5F0BCA01E5E0880F991FEA953E
:102B9000E1F70E942A34862F60E2681B37FD6195B9
:102BA000600F7D2F8C2FDF91CF910F910895CB0176
:102BB00065E0880F991F6A95E1F7BF01641B750BEB
:102BC0000E942A34862F60E6E8CF0F931F93522F7E
:102BD00010E0F801EE0FFF1FE559FE4FA081A05253
:102BE000BB0B9D015203F001539FF00D1124000F08
:102BF000111FD801A659BE4F0C910057110B40036D
:102C00009001419F300D11242E0F3F1F37FF02C04E
:102C1000215C3F4F96E0359527959A95E1F7620F35
:102C20001F910F91089546E050E06CE170E081E75C
:102C300093E00E94E7341092200308950C94D81476
:102C40000C941316E1E7F3E085E080838091FF01A7
:102C500090910002A091010281839283A3838FE768
:102C600084838FEF85830C941316E0917802F091A2
:102C700079020994E0917402F09175020994AF927F
:102C8000BF92CF92DF92EF92FF920F931F93CF9359
:102C9000DF936C017B01FC01C08189E0C89FC02DDE
:102CA000112419E01C0FB12E1B3210F03AE2B32EA2
:102CB00060917503669580917703909178030E94E7
:102CC000DB14A82ED0E0CB1578F081E01A3208F0A2
:102CD00080E0DF91CF911F910F91FF90EF90DF90F7
:102CE000CF90BF90AF900895FE01E254FE4F8081D7
:102CF000F6019181892311F1CE01880F991F8C5F14
:102D00009E4FFC01E959FF4F20812052330B8A5915
:102D10009F4FFC0140814057550B609172037091A9
:102D20007303809174030A2DF70109950E941E1602
:102D3000462F282F672FCE010E943A162196C3CF27
:102D4000BF92CF92DF92EF92FF920F931F93CF9398
:102D5000DF937C018B01FC01C08189E0C89FC02DFD
:102D6000112499E0D92EDC0ECD2CFAE2FD1510F4D9
:102D70008AE2C82E609175036695669521E0620F20
:102D800008F46FEF80917703909178030E94DB1431
:102D9000B82ED0E0CC1578F081E099E29D1508F4CA
:102DA00080E0DF91CF911F910F91FF90EF90DF9026
:102DB000CF90BF900895FE01E254FE4F8081F7014D
:102DC0009181892391F060917203709173038091D6
:102DD00074032B2D4C2FF80109950E941E16462FC7
:102DE000282F672FCE010E943A162196D3CF7F92CB
:102DF0008F929F92AF92BF92CF92DF92EF92FF920B
:102E00000F931F93CF93DF935C016B01FC01C08193
:102E100089E0C89FC02D112419E01C0F912E1B3290
:102E200010F03AE2932E6091750366956695809155
:102E30007703909178030E94DB14F82E80E48F0DC5
:102E40000E94151590E8892E880E8F2D0E94151569
:102E500020E8722E780ED0E0C91590F081E01A3289
:102E600008F080E0DF91CF911F910F91FF90EF90DC
:102E7000DF90CF90BF90AF909F908F907F900895FC
:102E8000FE01E254FE4F8081F50191818923A1F07A
:102E9000609172037091730380917403EF2C0C2F77
:102EA000272D482DF60109950E941E16462F282F22
:102EB000672FCE010E943A162196CECFBF92CF92B5
:102EC000DF92EF92FF920F931F93CF93DF937C01DA
:102ED000FC01C08189E0C89FC02D112419E01C0F9E
:102EE000012F1B3208F00AE26091720370917303A4
:102EF000809174030E941E16D62EC72EB82ED0E0E5
:102F0000C01770F081E01A3208F080E0DF91CF91B5
:102F10001F910F91FF90EF90DF90CF90BF90089599
:102F2000FE01E254FE4F8081F7019181892331F047
:102F30002B2D4D2D6C2DCE010E943A162196E0CFFF
:102F4000BF92CF92DF92EF92FF920F931F93CF9396
:102F5000DF937C018B01FC01C08189E0C89FC02DFB
:102F6000112499E0D92EDC0ECD2CFAE2FD1510F4D7
:102F70008AE2C82E609175036695669521E0620F1E
:102F800008F46FEF80917703909178030E94DB142F
:102F9000B82ED0E0CC15D8F0C1E0D0E020E040E081
:102FA00060E0CE010E943A162196C231D105B1F7F8
:102FB00081E099E29D1508F480E0DF91CF911F91A7
:102FC0000F91FF90EF90DF90CF90BF900895FE019A
:102FD000E254FE4F8081F7019181892391F0609145
:102FE000720370917303809174032B2D4C2FF801A1
:102FF00009950E941E16462F282F672FCE010E948A
:103000003A162196C7CFBF92CF92DF92EF92FF92EE
:103010000F931F93CF93DF937C018B01FC01C08141
:1030200089E0C89FC02D112499E0D92EDC0ECD2C4B
:10303000FAE2FD1510F48AE2C82E609175036695D8
:10304000669521E0620F08F46FEF8091770390910D
:1030500078030E94DB14B82ED0E0CC15D8F0D0E075
:10306000C0E020E040E060E0CE010E943A162196E8
:10307000CE30D105B1F781E099E29D1508F480E0EA
:10308000DF91CF911F910F91FF90EF90DF90CF9044
:10309000BF900895FE01E254FE4F8081F7019181B7
:1030A000892339F1609172037091730380917403E5
:1030B0002B2D4C2FF80109950E941E16462F282F04
:1030C000672FCE010E943A1620E040E060E08FE0DA
:1030D00090E00E943A1620E040E060E080E190E05D
:1030E0000E943A1620E040E060E081E190E00E941A
:1030F0003A162196B2CFBF92CF92DF92EF92FF9213
:103100000F931F93CF93DF937C018B01FC01C08150
:1031100089E0C89FC02D112499E0D92EDC0ECD2C5A
:10312000FAE2FD1510F48AE2C82E609175036695E7
:10313000669521E0620F08F46FEF8091770390911C
:1031400078030E94DB14B82ED0E0CC15D8F0D0E084
:10315000C0E020E040E060E0CE010E943A162196F7
:10316000CF30D105B1F781E099E29D1508F480E0F8
:10317000DF91CF911F910F91FF90EF90DF90CF9053
:10318000BF900895FE01E254FE4F8081F7019181C6
:10319000892391F06091720370917303809174039D
:1031A0002B2D4C2FF80109950E941E16462F282F13
:1031B000672FCE010E943A162196C7CFAF92BF92D9
:1031C000CF92DF92EF92FF920F931F93CF93DF93F3
:1031D0006C017B01FC01C08189E0C89FC02D1124D6
:1031E00019E01C0FB12E1B3210F03AE2B32E6091A1
:1031F0007503669580917703909178030E94DB14A4
:10320000A82ED0E0CB15D8F0C1E0D0E020E040E01F
:1032100060E0CE010E943A162196C231D105B1F785
:1032200081E01A3208F080E0DF91CF911F910F9179
:10323000FF90EF90DF90CF90BF90AF900895FE0188
:10324000E254FE4F8081F6019181892311F1CE0174
:10325000880F991F8C5F9E4FFC01E959FF4F208119
:103260002052330B8A599F4FFC0140814057550B28
:103270006091720370917303809174030A2DF701BA
:1032800009950E941E16462F282F672FCE010E94F7
:103290003A162196B7CFAF92BF92CF92DF92EF92BC
:1032A000FF920F931F93CF93DF936C017B01FC017F
:1032B000C08189E0C89FC02D112419E01C0FB12ED8
:1032C0001B3210F03AE2B32E60917503669580913F
:1032D0007703909178030E94DB14A82ED0E0CB15E1
:1032E000D8F0D0E0C0E020E040E060E0CE010E94F5
:1032F0003A162196CE30D105B1F781E01A3208F0A6
:1033000080E0DF91CF911F910F91FF90EF90DF90C0
:10331000CF90BF90AF900895FE01E254FE4F8081A0
:10332000F60191818923B9F1CE01880F991F8C5F35
:103330009E4FFC01E959FF4F20812052330B8A59DF
:103340009F4FFC0140814057550B60917203709173
:103350007303809174030A2DF70109950E941E16CC
:10336000462F282F672FCE010E943A1620E040E01A
:1033700060E08FE090E00E943A1620E040E060E0DC
:1033800080E190E00E943A1620E040E060E081E1B8
:1033900090E00E943A162196A2CFAF92BF92CF92B0
:1033A000DF92EF92FF920F931F93CF93DF936C0105
:1033B0007B01FC01C08189E0C89FC02D112419E068
:1033C0001C0FB12E1B3210F03AE2B32E6091750340
:1033D000669580917703909178030E94DB14A82E64
:1033E000D0E0CB15D8F0D0E0C0E020E040E060E0D5
:1033F000CE010E943A162196CF30D105B1F781E077
:103400001A3208F080E0DF91CF911F910F91FF9069
:10341000EF90DF90CF90BF90AF900895FE01E254FF
:10342000FE4F8081F6019181892311F1CE01880F31
:10343000991F8C5F9E4FFC01E959FF4F208120525C
:10344000330B8A599F4FFC0140814057550B6091C7
:10345000720370917303809174030A2DF70109952B
:103460000E941E16462F282F672FCE010E943A1663
:103470002196B7CF7F928F929F92AF92BF92CF92B9
:10348000DF92EF92FF920F931F93CF93DF935C0134
:103490006B01FC01C08189E0C89FC02D112419E097
:1034A0001C0F912E1B3210F03AE2932E609175039F
:1034B0006695669580917703909178030E94DB145E
:1034C000F82E80E48F0D0E94151590E8892E880E45
:1034D0008F2D0E94151520E8722E780ED0E0C915A8
:1034E000F0F0C1E0D0E020E040E060E0CE010E94DA
:1034F0003A162196C231D105B1F781E01A3208F0AF
:1035000080E0DF91CF911F910F91FF90EF90DF90BE
:10351000CF90BF90AF909F908F907F900895FE01C5
:10352000E254FE4F8081F50191818923A1F06091E1
:1035300072037091730380917403EF2C0C2F272D6D
:10354000482DF60109950E941E16462F282F672F39
:10355000CE010E943A162196C2CF7F928F929F92FF
:10356000AF92BF92CF92DF92EF92FF920F931F9391
:10357000CF93DF935C016B01FC01C08189E0C89FA0
:10358000C02D112419E01C0F912E1B3210F03AE2CD
:10359000932E60917503669566958091770390915F
:1035A00078030E94DB14F82E80E48F0D0E9415151D
:1035B00090E8892E880E8F2D0E94151520E8722E16
:1035C000780ED0E0C915F0F0D0E0C0E020E040E097
:1035D00060E0CE010E943A162196CE30D105B1F7B7
:1035E00081E01A3208F080E0DF91CF911F910F91B6
:1035F000FF90EF90DF90CF90BF90AF909F908F9013
:103600007F900895FE01E254FE4F8081F501918183
:10361000892349F16091720370917303809174035F
:10362000EF2C0C2F272D482DF60109950E941E1610
:10363000462F282F672FCE010E943A1620E040E047
:1036400060E08FE090E00E943A1620E040E060E009
:1036500080E190E00E943A1620E040E060E081E1E5
:1036600090E00E943A162196ADCF7F928F929F9262
:10367000AF92BF92CF92DF92EF92FF920F931F9380
:10368000CF93DF935C016B01FC01C08189E0C89F8F
:10369000C02D112419E01C0F912E1B3210F03AE2BC
:1036A000932E60917503669566958091770390914E
:1036B00078030E94DB14F82E80E48F0D0E9415150C
:1036C00090E8892E880E8F2D0E94151520E8722E05
:1036D000780ED0E0C915F0F0D0E0C0E020E040E086
:1036E00060E0CE010E943A162196CF30D105B1F7A5
:1036F00081E01A3208F080E0DF91CF911F910F91A5
:10370000FF90EF90DF90CF90BF90AF909F908F9001
:103710007F900895FE01E254FE4F8081F501918172
:103720008923A1F0609172037091730380917403F7
:10373000EF2C0C2F272D482DF60109950E941E16FF
:10374000462F282F672FCE010E943A162196C2CF0E
:10375000BF92CF92DF92EF92FF920F931F93CF937E
:10376000DF938C01FC01C08189E0C89FC02D11242A
:1037700099E0F92EFC0EEF2CFAE2FF1510F48AE224
:10378000E82ED0907203D0917303C09074036091BF
:103790007503669566956695809177039091780399
:1037A0000E94DB140E941515805887FD8195880FB3
:1037B000282F3C2D239F212D1124822F6D2D7D2F0D
:1037C0000E941E16D62EC72EB82ED0E0CE1578F049
:1037D00081E029E22F1508F480E0DF91CF911F915D
:1037E0000F91FF90EF90DF90CF90BF900895FE0172
:1037F000E254FE4F8081F8019181892331F02B2D15
:103800004D2D6C2DCE010E943A162196DFCFEF92FE
:10381000FF921F93CF93DF937C01FC01C08189E06D
:10382000C89FC02D112419E01C0F1B3208F01AE2AA
:10383000D0E0C11750F064E375E1C701DF91CF918B
:103840001F91FF90EF900C94A01620E040E060E004
:10385000CE010E943A162196ECCFEF92FF921F9371
:10386000CF93DF937C01FC01C08189E0C89FC02D0C
:10387000112419E01C0F1B3208F01AE2D0E0C11726
:1038800050F064E375E1C701DF91CF911F91FF9084
:10389000EF900C94A01720E040E060E0CE010E9481
:1038A0003A162196ECCFEF92FF921F93CF93DF93BE
:1038B0007C01FC01C08189E0C89FC02D112419E062
:1038C0001C0F1B3208F01AE2D0E0C11750F064E37D
:1038D00075E1C701DF91CF911F91FF90EF900C949C
:1038E000031820E040E060E0CE010E943A162196E5
:1038F000ECCFEF92FF921F93CF93DF937C01FC01FB
:10390000C08189E0C89FC02D112419E01C0F1B3213
:1039100008F01AE2D0E0C11750F064E375E1C70186
:10392000DF91CF911F91FF90EF900C947B1820E0D6
:1039300040E060E0CE010E943A162196ECCFDF9283
:10394000EF92FF920F931F93CF93DF938C01FC01B3
:10395000E254FE4F8081682381F1D0907303D091AF
:103960007403C0917203EC2EF12C0E94B934282FFD
:10397000C7018C549F4F68E671E00E942A348E196B
:103980009F0997FD03969595879595958795237043
:103990006C2F289F600D11247D2D8D2F0E941E16E7
:1039A000462F282F672FC801DF91CF911F910F91CC
:1039B000FF90EF90DF900C943A16DF91CF911F911A
:1039C0000F91FF90EF90DF900895DF92EF92FF92BA
:1039D0000F931F93CF93DF938C01FC01E254FE4FB2
:1039E00080816823A9F1D0907303D0917403C091B2
:1039F0007203EC2EF12C0E94B934282FC7018C548D
:103A00009F4F68E671E00E942A348E199F0997FD46
:103A10000396959587959595879523706C2F289F8C
:103A2000600D11247D2D8D2F0E941E16462F282FEC
:103A3000672FC8010E943A16C1E0D0E020E040E0C4
:103A400060E0CE010E943A162196C231D105B1F74D
:103A5000DF91CF911F910F91FF90EF90DF9008952C
:103A6000DF92EF92FF920F931F93CF93DF938C011E
:103A7000FC01E254FE4F8081682309F44AC0D090D3
:103A80007303D0917403C0917203EC2EF12C0E9449
:103A9000B934282FC7018C549F4F68E671E00E940B
:103AA0002A348E199F0997FD0396959587959595CC
:103AB000879523706C2F289F600D11247D2D8D2FED
:103AC0000E941E16462F282F672FC8010E943A1603
:103AD00020E040E060E08FE090E00E943A1620E0B5
:103AE00040E060E080E190E00E943A1620E040E093
:103AF00060E081E190E00E943A16D0E0C0E020E072
:103B000040E060E0CE010E943A162196CE30D10509
:103B1000B1F7DF91CF911F910F91FF90EF90DF9060
:103B20000895DF92EF92FF920F931F93CF93DF934D
:103B30008C01FC01E254FE4F80816823A9F1D090F2
:103B40007303D0917403C0917203EC2EF12C0E9488
:103B5000B934282FC7018C549F4F68E671E00E944A
:103B60002A348E199F0997FD03969595879595950B
:103B7000879523706C2F289F600D11247D2D8D2F2C
:103B80000E941E16462F282F672FC8010E943A1642
:103B9000D0E0C0E020E040E060E0CE010E943A16B4
:103BA0002196CF30D105B1F7DF91CF911F910F91C1
:103BB000FF90EF90DF900895E0917602F091770208
:103BC00009940C949610AF92BF92CF92DF92EF922D
:103BD000FF920F931F93CF93DF93182F8091F001E3
:103BE000811323C09091710393702091F10130E013
:103BF00081E09217130609F480E081708093EF0151
:103C0000809176039091EE01981739F08093EE0140
:103C100040E060E080E00E94DC1D153260F4E12F9E
:103C2000F0E0E456FA4C0C94603481E0E6CF8091E9
:103C3000EF01811102C0C0E00BC040E060E080E015
:103C40000E94DC1DF8CF8DEE91E00E945E17C82F18
:103C50008091ED018F5F8093ED01C1110CC082E076
:103C60008093EC018091EF01811105C0111103C017
:103C700083E08093EC01DF91CF911F910F91FF9032
:103C8000EF90DF90CF90BF90AF9008956091720356
:103C900070917303809174030E94D814E62ED72E7E
:103CA000C82EC091ED0189E0C89FC02D112409E004
:103CB0000C0FF02E0B3210F0EAE2FE2ED0E0CF1502
:103CC00048F0C2E1D0E0CF1568F0C1E00A3208F454
:103CD000BFCFB1CF20E040E060E0CE010E943A16B5
:103CE0002196EDCF2C2D4E2D6D2DCE010E943A1632
:103CF0002C2D4E2D6D2D90E080E00E943A162196DD
:103D0000E2CF6091720370917303809174030E94FB
:103D1000D814E62ED72EC82EC091ED0189E0C89F99
:103D2000C02D112409E00C0FF02E0B3210F07AE2B6
:103D3000F72ED0E0CF1598F0C2E1D0E0CF1528F6ED
:103D40002C2D4E2D6D2DCE010E943A162C2D4E2D70
:103D50006D2D8EE090E00E943A162196EFCF20E084
:103D600040E060E0CE010E943A162196E3CF6091D8
:103D7000720370917303809174030E94D814E62E2D
:103D8000D72EC82EC091ED0189E0C89FC02D112407
:103D900009E00C0FF02E0B3210F06AE2F62ED0E0A4
:103DA000CF1568F0CFE0D0E0CF1508F08ECF2C2DE6
:103DB0004E2D6D2DCE010E943A162196F5CF20E0B2
:103DC00040E060E0CE010E943A162196E9CF8DEEE8
:103DD00091E00E94A81B3BCFC091ED0189E0C89FF4
:103DE000C02D112409E00C0FF02E0B3210F05AE216
:103DF000F52EE0907203D0917303D090740360911C
:103E00007503669566956695809177039091780322
:103E10000E94DB140E941515805887FD8195880F3C
:103E2000382F2D2D329F312D1124832F6E2D7D2F74
:103E30000E941E16B62EE72EA82ED0E0CF1580F0D9
:103E400040EDC42E41E0D42EC2E1D0E0CF1580F089
:103E50002A2D4B2D6E2D90E080E00E943A1635CF32
:103E600020E040E060E0CE010E943A162196E6CFC5
:103E7000F60181916F019091EE01892331F02A2D95
:103E80004B2D6E2DCE010E943A162196DFCFC091A8
:103E9000ED0189E0C89FC02D112409E00C0FF02E20
:103EA0000B3210F03AE2F32EE0907203D0917303DC
:103EB000D0907403609175036695669566958091C0
:103EC0007703909178030E94DB140E9415158058A7
:103ED00087FD8195880F282F3D2D239F212D1124AB
:103EE000822F6E2D7D2F0E941E16B62EE72EA82E35
:103EF000D0E0CF1570F020EDC22E21E0D22EC2E12D
:103F0000D0E0CF1570F02A2D4B2D6E2D8EE090E075
:103F1000A4CF20E040E060E0CE010E943A16219656
:103F2000E8CFF60181916F019091EE01892331F084
:103F30002A2D4B2D6E2DCE010E943A162196E1CFEF
:103F4000C091ED0189E0C89FC02D112409E00C0F3C
:103F5000F02E0B3210F09AE2F92EE0907203D0911D
:103F60007303D090740360917503669566956695AA
:103F700080917703909178030E94DB140E941515BD
:103F8000805887FD8195880F282F3D2D239F212D57
:103F90001124822F6E2D7D2F0E941E16E62EB72E25
:103FA000A82ED0E0CF15C0F08DECC82E81E0D82E21
:103FB000CFE0D0E0CF1508F088CEF60181916F01F7
:103FC0009091EE01892331F02A2D4E2D6B2DCE01DB
:103FD0000E943A162196EECF20E040E060E0CE014C
:103FE0000E943A162196DECF8DEE91E00E94071CCA
:103FF0002ECE8DEE91E00E942D1C29CE8DEE91E00B
:104000000E94531C24CE8DEE91E00E94791C1FCE9D
:10401000C091ED0189E0C89FC02D112409E00C0F6B
:104020000B3208F00AE2D0E0C01738F06EE575E117
:104030008DEE91E00E94A0160ACE20E040E060E004
:10404000CE010E943A162196EFCFC091ED0189E092
:10405000C89FC02D112409E00C0F0B3208F00AE2B2
:10406000D0E0C01738F06EE575E18DEE91E00E946A
:10407000A017EDCD20E040E060E0CE010E943A16AE
:104080002196EFCFC091ED0189E0C89FC02D11248A
:1040900009E00C0F0B3208F00AE2D0E0C01738F04C
:1040A0006EE575E18DEE91E00E940318D0CD20E021
:1040B00040E060E0CE010E943A162196EFCFC09119
:1040C000ED0189E0C89FC02D112409E00C0F0B32CF
:1040D00008F00AE2D0E0C01738F06EE575E18DEE29
:1040E00091E00E947B18B3CD20E040E060E0CE017B
:1040F0000E943A162196EFCFC091ED0189E0C89F4A
:10410000C02D112409E00C0F0B3208F00AE2D0E0B8
:10411000C01738F067E675E18DEE91E00E943F161A
:1041200096CD20E040E060E0CE010E943A16219654
:10413000EFCFC091ED0189E0C89FC02D112409E0A7
:104140000C0F0B3208F00AE2D0E0C01738F067E637
:1041500075E18DEE91E00E94DE1879CD20E040E01F
:1041600060E0CE010E943A162196EFCFC091ED019A
:1041700089E0C89FC02D112409E00C0F0B3208F014
:104180000AE2D0E0C01738F067E675E18DEE91E005
:104190000E944B195CCD20E040E060E0CE010E941F
:1041A0003A162196EFCFC091ED0189E0C89FC02D4E
:1041B000112409E00C0F0B3208F00AE2D0E0C0171E
:1041C00038F067E675E18DEE91E00E94CD193FCDA4
:1041D00020E040E060E0CE010E943A162196EFCF49
:1041E000C091ED0189E0C89FC02D112409E00C0F9A
:1041F0000B3208F00AE2D0E0C01718F06FE875E162
:1042000017CF20E040E060E0CE010E943A162196F0
:10421000F3CFC091ED0189E0C89FC02D112409E0C2
:104220000C0F0B3208F00AE2D0E0C01718F06FE86C
:1042300075E11BCF20E040E060E0CE010E943A161D
:104240002196F3CFC091ED0189E0C89FC02D1124C4
:1042500009E00C0F0B3208F00AE2D0E0C01718F0AA
:104260006FE875E11FCF20E040E060E0CE010E94E2
:104270003A162196F3CFC091ED0189E0C89FC02D79
:10428000112409E00C0F0B3208F00AE2D0E0C0174D
:1042900018F06FE875E123CF20E040E060E0CE0148
:1042A0000E943A162196F3CFC091ED0189E0C89F94
:1042B000C02D112409E00C0F0B3208F00AE2D0E007
:1042C000C01718F068EA75E127CF20E040E060E011
:1042D000CE010E943A162196F3CFC091ED0189E0FC
:1042E000C89FC02D112409E00C0F0B3208F00AE220
:1042F000D0E0C01718F068EA75E12BCF20E040E06D
:1043000060E0CE010E943A162196F3CFC091ED01F4
:1043100089E0C89FC02D112409E00C0F0B3208F072
:104320000AE2D0E0C01718F068EA75E12FCF20E06C
:1043300040E060E0CE010E943A162196F3CFC09192
:10434000ED0189E0C89FC02D112409E00C0F0B324C
:1043500008F00AE2D0E0C01718F068EA75E133CF40
:1043600020E040E060E0CE010E943A162196F3CFB3
:10437000C091ED0189E0C89FC02D112409E00C0F08
:104380000B3208F00AE2D0E0C01738F065EE75E1B4
:104390008DEE91E00E94F7165ACC20E040E060E0FC
:1043A000CE010E943A162196EFCFC091ED0189E02F
:1043B000C89FC02D112409E00C0F0B3208F00AE24F
:1043C000D0E0C01738F065EE75E18DEE91E00E9407
:1043D0003A1A3DCC20E040E060E0CE010E943A165F
:1043E0002196EFCFC091ED0189E0C89FC02D112427
:1043F00009E00C0F0B3208F00AE2D0E0C01738F0E9
:1044000065EE75E18DEE91E00E94AD1A20CC20E0C2
:1044100040E060E0CE010E943A162196EFCFC091B5
:10442000ED0189E0C89FC02D112409E00C0F0B326B
:1044300008F00AE2D0E0C01738F065EE75E18DEEC5
:1044400091E00E94351B03CC20E040E060E0CE010B
:104450000E943A162196EFCFC091EF01C1111EC004
:104460006091750320E1620F08F46FEF809177038C
:10447000909178030E94DB146AE070E00E94163489
:10448000892B09F0D8CB0E94B9346AE270E00E940F
:104490002A346091EE010E949F1CDACBC091ED019D
:1044A00089E0C89FC02D112409E00C0F802F0B322A
:1044B00008F08AE2D0E0E82EF12CCE15DF050CF0F2
:1044C00004CC6091EE01CE010E949F1C2196F5CF95
:1044D000C091EF01C1111EC06091750320E1620F10
:1044E00008F46FEF80917703909178030E94DB14BA
:1044F0006AE070E00E941634892B09F09CCB0E9480
:10450000B9346AE270E00E942A346091EE010E94A0
:10451000E51C9ECBC091ED0189E0C89FC02D112400
:1045200009E00C0F802F0B3208F08AE2D0E0E82E71
:10453000F12CCE15DF050CF0C8CB6091EE01CE0159
:104540000E94E51C2196F5CFC091EF01C1111EC05C
:104550006091750320E1620F08F46FEF809177039B
:10456000909178030E94DB146AE070E00E94163498
:10457000892B09F060CB0E94B9346AE270E00E9496
:104580002A346091EE010E94301D62CBC091ED0192
:1045900089E0C89FC02D112409E00C0F802F0B3239
:1045A00008F08AE2D0E0E82EF12CCE15DF050CF001
:1045B0008CCB6091EE01CE010E94301D2196F5CF8B
:1045C000C091EF01C1111EC06091750320E1620F1F
:1045D00008F46FEF80917703909178030E94DB14C9
:1045E0006AE070E00E941634892B09F024CB0E9407
:1045F000B9346AE270E00E942A346091EE010E94B0
:10460000911D26CBC091ED0189E0C89FC02D1124DA
:1046100009E00C0F802F0B3208F08AE2D0E0E82E80
:10462000F12CCE15DF050CF050CB6091EE01CE01E0
:104630000E94911D2196F5CF089508950E941C2394
:104640000C941D2308950895CF93DF93FC01C0813E
:1046500089E0C89FC02D1124D7EFDC0FCB3208F0C2
:10466000CAE26C2F8D2F0E9422236C2F8D2FDF9199
:10467000CF910C942323CF930E94422C609321036B
:1046800070932203809323039093240320912503A6
:10469000C0E0211108C020917103C22FC37019F02E
:1046A000C22FC695C6952091EC012130B1F022238E
:1046B00031F02230F1F0233039F1CF91089510928A
:1046C000ED0160937703709378038093790390935F
:1046D0007A0381E08093EC01F0CF8C2F0E94E31DE0
:1046E000CC2359F30E941E238DEE91E0CF910C94C0
:1046F0002423C093F0018091710383708093F101B2
:104700000E94351683E0E6CF8091200381110E943C
:1047100013166091770370917803809179039091DB
:104720007A030E945D2C603171058105910528F2A4
:104730001092EC01C2CFE0917202F09173020995E0
:104740000E94C00F811104C00E9464100E942216B2
:1047500046E050E06CE170E081E793E00E94C934EC
:1047600010922003809171038C7F11F40C94221617
:104770000895CF93C82F882391F08091250381114C
:104780000EC00E94E31D1092F001809171038370AE
:104790008093F1010E94351683E08093EC01C09371
:1047A0002503CF910895E1E7F3E0908121E092277E
:1047B00090831092EC0190912003892B8093200329
:1047C000089581E00C94D32380917103837011F4D8
:1047D0001092EC01809171038C7F81608093710352
:1047E000089580917103837011F01092EC01809113
:1047F00071038C7F8093710308959091710393707E
:1048000061F081110BC09460909371031092EC01E0
:1048100080912003862B809320030895853210F029
:104820009069F2CF880F880F982BEECF60E00C9440
:10483000FD2361E00C94FD2380917103869586959C
:104840000895682F909171039695969581E0890F50
:10485000853208F081E00C94FD2381E00C94212442
:10486000682F90917103969596958FEF890F09F4B3
:1048700084E20C94FD2381E00C9430249091710328
:10488000937071F080937203609373034D3D08F051
:104890004CED4093740380912003822B809320037E
:1048A000089520E00C943E24809172030895809135
:1048B00073030895809174030895A1E7B3E01196FE
:1048C000EC911197F0E0282F13964C9113971296C4
:1048D0006C91CF0108960C943E2481E00C945D24E9
:1048E000E1E7F3E09181282F43816281E92FE850CD
:1048F000FF0BCF010C943E2481E00C947024E1E77F
:10490000F3E0628120E1620F08F46FEF9181282FBC
:104910004381892F90E00C943E2481E00C947F2405
:10492000E1E7F3E0628120E1621B08F460E091813D
:10493000282F4381892F90E00C943E2481E00C9431
:104940009024E1E7F3E0438120E1420F08F44FEFC8
:104950009181282F6281892F90E00C943E2481E080
:104960000C94A124E1E7F3E0438120E1421B08F429
:1049700040E09181282F6281892F90E00C943E24A1
:1049800081E00C94B2248093750380912003862BE0
:1049900080932003089560E00C94C32480917503F4
:1049A00008952091750330E1230F08F42FEF682F4D
:1049B000822F0C94C32481E00C94D12420917503A0
:1049C00030E1231B08F420E0682F822F0C94C324CD
:1049D00081E00C94DE240895FC01EE0FFF1FE80F28
:1049E000F91FE558FC4F6183408322830895EBE76C
:1049F000F3E0818360834283339693E0E93FF907D4
:104A0000C1F708956AE270E08BE793E00C94892582
:104A1000FA01811101C0FB0109940F931F93CF93F9
:104A20008C01FB01C281CC2309F471C00E94D90E14
:104A30008272093CFCE51F0709F460C048F5053C9B
:104A4000ECE51E0709F455C078F4033C9CE5190712
:104A500009F443C008F048C0023C1C45D9F18C2F32
:104A6000CF911F910F9108954EE954E26DE874E2E1
:104A7000073C9CE51907A9F14DE654E26CE774E2A6
:104A8000083C1C4570F14DE854E26EE974E229C01F
:104A90000D3CFCE51F07B9F1A0F448EE54E26BEDC4
:104AA00074E20B3CECE51E07E1F04FEA54E260ECE7
:104AB00074E20C3C1C45A8F04BED54E268EE74E245
:104AC00010C0063D8CE5180718F00D351D4539F668
:104AD000C0E0C5CF0E94E123FBCF4BE354E26DE27F
:104AE00074E20E940825F4CF4DE254E26BE374E2D5
:104AF000F8CF4CE754E26DE674E2F3CF40EC54E2B9
:104B00006FEA74E2EECF81E00E941924E1CFC1E0A8
:104B1000A6CF6A9A4EB14B7F5EB15460EFB7F8945E
:104B20009B01220F331F260F371F280F391F28170D
:104B3000390741F4EFBF8FE594E00197F1F700C02A
:104B400000000895DC016D91CD0178E05EB90000B0
:104B500000C067FF4EB9660F000000C000C000C073
:104B60004EB900C07A9591F7E2CF83E290E00E94BF
:104B7000D934813289F484E290E00E94D9348231C0
:104B800059F485E290E00E94D93491E0833109F034
:104B900090E0892F8170089580E0FCCFCF93C82FDB
:104BA0006FEF811161E283E290E00E94F7346FEFD2
:104BB000C11162E184E290E00E94F7346FEFC1110D
:104BC00063E185E290E0CF910C94F734089586E29A
:104BD00090E00E94D934682F70E090E080E0089562
:104BE00086E290E00C94F73480E00E94CE2560E0ED
:104BF00070E0CB010E94F0250E94CA280E94B429CF
:104C000081E00C94CE250E94E6250E94B5258111F5
:104C100002C00C94F4250895CF93FB01C281CC23EC
:104C200009F19C0122513F452031310520F5825187
:104C30000E94C429C0E08C2FCF91089581E00E948A
:104C40008D0A43E062E081E00E945405F3CF81E0E9
:104C50000E94980A43E062E081E00E945405EBCF95
:104C600082E0F6CF8031FFE59F0789F381319F45D0
:104C7000B9F3C1E0E0CF8031EFE59E07F9F2813171
:104C80009F45C9F682E0DBCF2FEFFC01208308951A
:104C9000CF93DF93EC0188818138A9F028F4803824
:104CA00071F0DF91CF910895823881F08338C9F790
:104CB0000E94542489830E9457248A83F2CF0E9441
:104CC0005A248983EECF0E941C24FBCF0E94CE245D
:104CD000F8CFCF93DF93EC0188818138F1F028F48D
:104CE000803871F0DF91CF910895823821F18338B7
:104CF000C9F70E945A249981482F6A81892F08C0D8
:104D0000D9810E945724C82F0E9454244D2F6C2F04
:104D100090E0DF91CF910C94512489810E94162458
:104D20008981811104C0DF91CF910C94F123DF912F
:104D3000CF910C94E4238981DF91CF910C94CB2403
:104D4000EF92FF920F931F93CF93DF93EC01E62E28
:104D5000DC01ED91CD01E150E33108F0AEC0F0E0AF
:104D6000EF53FA4C0C946034198289E08A836E2DDB
:104D7000CE01DF91CF911F910F91FF90EF900C9496
:104D8000252D8981823069F0833071F08130E1F422
:104D90000E94422C0E9466346A837B838C839D83AD
:104DA000E6CF0E94E725F6CF8E01F12C8F2D0E94D1
:104DB000B813F801828373836483F3940D5F1F4FEC
:104DC000F6E0FF12F3CFD3CF6E2DCE010E94442622
:104DD000CECF89818230C1F76A817B818C819D81B0
:104DE0000E9466340E94F025C2CF4B816A8189817E
:104DF0000E949C289827892798279D838C83B7CF6A
:104E00002C813D813227232732274B816A8189817A
:104E10000E94B528ACCF0E94CA28A9CF0E9469265B
:104E2000A6CF0E944826A3CF0E942016A0CF0E94A2
:104E30005F2989839CCF0E94612998278927982719
:104E40009A83898394CF6B8170E089819A81AE01C6
:104E50004C5F5F4F9827892798270E94642987CF46
:104E60006B8170E089819A81AE014C5F5F4F98271A
:104E7000892798270E948A297ACF0E94B42977CF60
:104E80000E948A28D6CF6B8170E089819A81AE0119
:104E90004C5F5F4F9827892798270E94022967CF88
:104EA0006B8170E089819A81AE014C5F5F4F9827DA
:104EB000892798270E9428295ACF8FEF888357CFB8
:104EC000CF93DF93EC01FB018281882309F420C199
:104ED000C330FDE5DF07C8F5CA3F9CE5D90730F4CC
:104EE0009E0122503C452431310598F50E94D30F94
:104EF0009093400380933F03C031FCE5DF0709F442
:104F0000E0C008F061C0C8309CE5D90709F4CBC007
:104F100088F5C430FCE5DF0709F4B3C0E8F4C2301B
:104F20009CE5D90709F4A7C080913F038260C33094
:104F3000DC4509F4A3C080913F03909140030E9497
:104F4000E10F0E94140A80E004C0C136EDE5DE07DF
:104F500069F2DF91CF91089580913F038061C6305F
:104F6000FCE5DF0709F48AC008F48FC080913F0395
:104F7000806284C080913F038D7FCC309CE5D9074F
:104F800009F47CC070F480913F038C60CA30FCE56A
:104F9000DF0709F473C008F48AC080913F038E7F55
:104FA0006DC080913F03877FCE309CE5D90709F41F
:104FB00065C080913F038B7FCF30DC4508F45EC035
:104FC00080913F038F7E5AC0CC3FFCE5DF0709F498
:104FD00074C040F5C4319CE5D90709F48AC058F47F
:104FE000C231FCE5DF0709F474C008F46EC080919B
:104FF0003F03837F43C0CA3F9CE5D90709F449C0FA
:1050000008F04DC0C531DC4509F095CF80913F03D4
:1050100082FB992790F921E0922790FB82F990FB7F
:1050200083F92CC0C1158DE5D80709F458C088F460
:10503000809140038360CE3FECE5DE0769F180910B
:1050400040038D7FCF3FDC4538F1809140038C7F5A
:1050500023C0C2308DE5D80709F458C008F452C007
:10506000C136DD4509F067CF90913F03892F8F7ED0
:1050700094FF806103C080913F03816080933F0370
:105080005ACF80913F038460F9CF80913F038860BD
:10509000F5CF809140038160809340034CCF809195
:1050A00040038260F9CF80913F038064E7CF0E9484
:1050B000140A80913F038068E1CF809140038E7F86
:1050C000EBCF80913F038F7DD9CF80913F038F7BC2
:1050D000D5CF0E94140A80913F038F77CFCF809164
:1050E0004003982F909591708E7F892B90FB81F9CA
:1050F000D3CF0E94140A90913F03892F97FB87F921
:105100008058BCCF81E00E94661015CF80E0FBCFB5
:1051100081E01FCF84E0089550E0440F551F92E2D4
:10512000699F400D511D11249CEC899F400D511D1C
:105130001124CA01879608950F931F93CF93DF938D
:105140000E948C288C010E94D934C82FD0E0DC2F1B
:10515000CC27C80101960E94D9349E01282BC90191
:10516000DF91CF911F910F9108950F931F93CF93CC
:10517000DF93122F032F0E948C28EC01602F0E94D6
:10518000F734612FCE010196DF91CF911F910F91DE
:105190000C94F734AF92BF92CF92DF92EF92FF92CE
:1051A0001F93CF93DF938CEAC82E80E0D82ED0E0F7
:1051B0007601C0E014C0F50125913491412F6C2F88
:1051C0008D2F0E94B52882E0A80EB11C1F5F1131FF
:1051D00091F782E2E80EF11CCF5FC63019F057015B
:1051E00010E0E9CFDF5F8CECC80ED11CD43001F7A2
:1051F000DF91CF911F91FF90EF90DF90CF90BF9004
:10520000AF900895EF92FF920F931F93CF93DF9388
:10521000EC018A017C01E60EF71ECE018796CE15C1
:10522000DF0539F4DF91CF911F910F91FF90EF903F
:105230000895C03323E0D20740F40E94D934F80126
:1052400080830F5F1F4F2196E8CFF8011082F9CFBE
:10525000CF92DF92EF92FF920F931F93CF93DF9342
:105260007C016A018C01060F171FEC01CE018796A5
:10527000C017D10749F4DF91CF911F910F91FF9093
:10528000EF90DF90CF900895C03323E0D20740F431
:10529000FE01EE19FF09EC0DFD1D60810E94F7343F
:1052A0002196E4CF462F843038F4763028F46131EB
:1052B00018F4672F0C949C2890E080E0089580E11A
:1052C000089589EA90E00895EF92FF920F931F935B
:1052D000CF93DF93EC018A017C01E60EF71ECE012D
:1052E000895A9C4FCE15DF0539F4DF91CF911F917C
:1052F0000F91FF90EF900895C93AD10540F40E94B4
:10530000D934F80180830F5F1F4F2196E8CFF80151
:105310001082F9CFCF92DF92EF92FF920F931F93FB
:10532000CF93DF937C016A018C01060F171FEC01FC
:10533000CE01895A9C4FC017D10749F4DF91CF9114
:105340001F910F91FF90EF90DF90CF900895C93A91
:10535000D10540F4FE01EE19FF09EC0DFD1D608141
:105360000E94F7342196E4CFCF93DF93C7E5D3E0D3
:1053700060E0CE010E94F7342196C11584E0D80781
:10538000B9F7DF91CF910895DF92EF92FF920F93DB
:105390001F93CF93DF9300D000D0CDB7DEB7F82EA8
:1053A0008FE08F1540F08FEF93E00E94D93407E52E
:1053B00013E08823C1F00F900F900F900F90DF91B2
:1053C000CF911F910F91FF90EF90DF9008950115FD
:1053D00084E0180781F3C8010E94D934811101C00B
:1053E000FA940F5F1F4FF110F2CF19821A821B82BD
:1053F0001C82DD24D39478018FEFE81AF80AC801E3
:105400000E94D93489831A828823A9F29FEF980FCA
:10541000933078F48A83D9820E5F1F4FC7010E94B0
:10542000D9348B83882339F2CE0101960E94B806C5
:10543000E2CF8701F9CFCF93DF93EB0186319C4513
:1054400011F50E94D90E9A81992399F08A7A91E0F8
:1054500009F490E090932603811109C089E20E942B
:10546000B40E0E94290F80E0DF91CF91089585E36B
:10547000F6CF80912603811104C089E20E94BB0E01
:10548000F0CF85E3FBCF81E0EFCF0F931F93CF9356
:10549000DF93C42FD22FFC0182818823C9F040936F
:1054A00029030E94362C909328038093270380E2DF
:1054B0008C0F883008F050C0C77081E001C0880FA1
:1054C000CA95EAF7DF91CF911F910F910C94AF0726
:1054D00010912903141335C080912703909128035C
:1054E0000E944E2C883C910560F5C0E2CD0F1D173F
:1054F000B9F080E2810F883040F4177081E001C07C
:10550000880F1A95EAF70E94B607C83048F481E080
:105510009D2F977001C0880F9A95EAF70E94AF07F8
:10552000802F0E94A707C830B8F4D77081E001C06F
:10553000880FDA95EAF7DF91CF911F910F910C94C4
:10554000B60780E28C0F883038F4C77081E001C064
:10555000880FCA95EAF7EFCFDF91CF911F910F9196
:1055600008950F939C01CB01233F4CE5340759F17B
:10557000A8F4283DFCE53F0701F1293D4CE534073F
:10558000D1F1273D3C4591F406E221EE41EE67ED75
:105590007CE50E94452A80E00F910895253FFCE5B7
:1055A0003F07E9F0B0F0263F3C45F9F0FC0182816D
:1055B000882339F110922903EFCF07E225EE45EE5B
:1055C00068ED7CE5E6CF06E221EE40EE63EF7CE598
:1055D000E0CF07E225EE44EE64EF7CE5DACF06E2A9
:1055E00021EE42EE65EF7CE5D4CF07E225EE46EEF4
:1055F00066EF7CE5CECF08E221E045EE69ED7CE583
:10560000C8CF81E0C9CF90938B0280938A0208951E
:1056100090932F0380932E030895E0912E03F09131
:105620002F03309721F00190F081E02D099480E064
:105630000895E0912E03F0912F03309721F002801E
:10564000F381E02D0994089520912C0330912D03CE
:105650002817390771F090932D0380932C03E09164
:105660002E03F0912F03309721F00680F781E02D73
:105670000994089520912A0330912B0328173907A4
:1056800071F090932B0380932A03E0912E03F09105
:105690002F03309721F00084F185E02D09940895BF
:1056A0009C012E5F3F4FAC01485F5F4F80E02417A5
:1056B000350709F40895F90191919F019923B9F3F0
:1056C0008F5FF5CF662349F0FC0132960896219151
:1056D000261729F0E817F907D1F780E0089581E04F
:1056E00008959C01FC0132969FEF80E0419146179E
:1056F00051F09F3F19F4411101C0982F8F5F863000
:10570000A9F79F3F09F40895290F311D97FD3A9598
:10571000F90162830895FC013296089621912613BF
:1057200003C0DF0111971C92E817F907B9F7089534
:105730000C94712B0C948B2B029626E0FC01119299
:105740002A95E9F7089508950C94A32B811105C0BB
:1057500081E0809330030C94A42B82E0FACF83E0A5
:10576000809330030C94A42B0C94A62B81E080939F
:1057700030030C94A42B0C94B62B08958091010453
:10578000843031F10E9467051092310388E190E086
:1057900020E40FB6F894A895809360000FBE209384
:1057A000600083B7817F846083BF83B7816083BFDC
:1057B0007894889583B78E7F83BF0FB6F894A895A9
:1057C00080916000886180936000109260000FBE3D
:1057D000089508950895CF930E94E92B0E94DB134A
:1057E0000E94EA2BC0E08C2F0E94B813672B682B15
:1057F000692B31F4CF5FC630B1F780E0CF910895C7
:1058000081E0FCCF0E94140A0C94E1051F921FB6A0
:105810001F9211248F939F93AF93BF938091310375
:10582000811113C08091F9039091FA03A091FB03B9
:10583000B091FC034196A11DB11D8093F903909393
:10584000FA03A093FB03B093FC03BF91AF919F9128
:105850008F911F901FBE1F90189582E084BD93E02A
:1058600095BD9AEF97BD80936E0008952FB7F89479
:105870008091F9039091FA03A091FB03B091FC038E
:105880002FBF08952FB7F8946091F9037091FA0330
:105890008091FB039091FC032FBF08959C014FB7AB
:1058A000F8948091F9039091FA03A091FB03B091D1
:1058B000FC034FBF821B930B0895CF92DF92EF92B0
:1058C000FF922FB7F894C090F903D090FA03E090BC
:1058D000FB03F090FC032FBFA7019601261B370B9B
:1058E000480B590BCA01B901FF90EF90DF90CF90A0
:1058F000089578941F921FB61F9211248F939F933F
:10590000AF93BF938091F9039091FA03A091FB03A9
:10591000B091FC030196A11DB11D8093F9039093F2
:10592000FA03A093FB03B093FC03BF91AF919F9147
:105930008F911F901FBE1F90189581E08093E0000B
:1059400080E28093D8001092C9008FE19EE4019715
:10595000F1F700C0000087E090EBDC0180930A04BF
:1059600090930B04A0930C04B0930D0488E19CE089
:105970000FB6F894A895809360000FBE90936000D6
:10598000FFCF80913D0308950895CF93DF93EC01FD
:1059900081E08093E9008FEF9091E800815095FDC0
:1059A00006C095ED9A95F1F700008111F5CF809131
:1059B000E80085FF14C050E040E068E070E0CE01F0
:1059C0000E94362F8091E8008E778093E80088E06F
:1059D000FE01A5E3B3E001900D928A95E1F7DF9116
:1059E000CF9108958093320370933403609333030F
:1059F000809101048430F9F48093E9008FEF909155
:105A0000E800815095FD06C095ED9A95F1F70000EC
:105A10008111F5CF8091E80085FF0DC050E040E096
:105A200063E070E082E393E00E94362F8091E8000B
:105A30008E778093E8000895BC0184E00C94F22CEA
:105A4000BC0183E00C94F22C0895CF93FC016032EA
:105A500021F580910104843001F5C091E900CF70F7
:105A60002091EC00922F917020FD90E8C92B82E0EC
:105A70008093E9008091E80080FF0CC050E040E096
:105A800060E270E0CF010E94362F8091E8008E77AF
:105A90008093E800CF70C093E900CF910895809182
:105AA0000004811109C00E9415310E947231809159
:105AB000E20084608093E20008951092000408954B
:105AC0000C94B62B6091FD0381E0611101C080E070
:105AD0000C94AF2B9091010481E0943009F080E0A8
