:100000000C94B8020C94FC020C9417030C94FC02A0
:100010000C94FC020C94FC020C94FC020C94FC0268
:100020000C94FC020C941C0E0C9419200C94FC02F1
:100030000C94FC020C94FC020C94FC020C94FC0248
:100040000C94FC020C94FC020C94FC020C94FC0238
:100050000C94FC0229001E001F0020002100220039
:10006000230024002500260027002D002E002A0052
:100070004A002B0014001A000800150017001C008D
:1000800018000C00120013002F0030004C004B0031
:10009000390004001600070009000A000B000D00DB
:1000A0000E000F0033003400310028004E00E10044
:1000B00000001D001B0006001900050011001000C3
:1000C000360037003800E10052004D00E000E30048
:1000D000E2000000000000002C0000000000000012
:1000E0000000E400500051004F0001000100010039
:1000F00001000100010001000100010001000100F8
:1001000001000100010001000100010001000100E7
:1001100001000100010001000100010001000100D7
:1001200001000100010001000100010001000100C7
:1001300001000100010001000100010001000100B7
:1001400001000100010000000100010001000100A8
:100150000100010001000100010001000100010097
:10016000010001000100010000000000000001008A
:10017000000000000000000001000100010001007B
:100180000100010001000100010001000100010067
:100190000100010001000100010001000100010057
:1001A0000100010001000100010001000100010047
:1001B0000100010001000100010001000100010037
:1001C0000100010001000100010001000100010027
:1001D0000100010001000100010001000000010018
:1001E0000100010001000100010001000100010007
:1001F00001000100010001000100010001000000F8
:1002000000000000010000000000000000000100EC
:1002100001000100010001000100010001000100D6
:1002200001000100010001000100010001000100C6
:1002300001000100010001000100010001000100B6
:1002400001000100010001000100010001000100A6
:100250000100010001000100010001000100010096
:100260000100010001000100010001000100010086
:100270000100000001000100010001000100010077
:100280000100010001000100010001000100010066
:10029000010001000000000000000100000000005B
:1002A000000000000100010001000100000000004A
:1002B000000000002A2B28000000000000000000C1
:1002C0000000000000000029000000002C1E342067
:1002D000212224342627252E362D3738271E1F208D
:1002E0002122232425263333362E37381F040506D2
:1002F0000708090A0B0C0D0E0F1011121314151616
:100300001718191A1B1C1D2F3130232D3504050613
:100310000708090A0B0C0D0E0F10111213141516F5
:100320001718191A1B1C1D2F3130354C0000000006
:1003300000000000000000000000000000000000BD
:1003400000000000000000000000000000000000AD
:100350007E0F00D4FFFFFFC7000000780000000000
:100360000000000000000001010203040506080A65
:100370000C0F1114181C2024292E33393F464C53DE
:100380005B626A7179818A929AA2AAB2B9C1C8CF16
:10039000D5DCE1E7EBF0F4F7FAFCFDFEFFFEFDFC37
:1003A000FAF7F4F0EBE7E1DCD5CFC8C1B9B2AAA205
:1003B0009A928A8179716A625B534C463F39332E37
:1003C0002924201C1814110F0C0A08060504030226
:1003D00001010000000000000000000009025B00B5
:1003E000030100A0FA090400000103010100092132
:1003F00001010001224000070581030800010904F2
:100400000100020300000009210101000122220075
:100410000705840308000107050403080001090417
:1004200002000103000000092101010001227B00FC
:100430000705830308000112011001000000084CA9
:100440004D096502000102000120034D00650063B3
:100450000068006C006F00760069006E00390020B3
:10046000005200650076003200000022034D006556
:1004700000630068006C006F00760069006E002069
:1004800000530074007500640069006F00000004F0
:100490000309040660FF0961A1010962150026FF36
:1004A000009520750881020963150026FF0095203C
:1004B00075089102C005010902A10185020901A187
:1004C0000005091901290815002501950875018104
:1004D000020501093009311581257F9502750881D2
:1004E0000609381581257F950175088106050C0AD6
:1004F00038021581257F950175088106C0C0050168
:100500000980A101850319012AB700150126B7004A
:10051000950175108100C0050C0901A10185041920
:10052000012AA002150126A002950175108100C0C4
:1005300005010906A101050719E029E715002501B4
:100540009508750181029501750881030507190059
:1005500029FF150026FF009506750881000508197A
:10056000012905950575019102950175039103C057
:1005700011241FBECFE5D8E0DEBFCDBF04B603FE19
:1005800024C08091C0029091C102A091C202B0919A
:10059000C3028730904BA740B04BB9F41092C00211
:1005A0001092C1021092C2021092C30214BE84B70C
:1005B000877F84BF0FB6F894A89581B5886181BD07
:1005C00011BC0FBEE0E0F8E3099510E0A0E6B0E052
:1005D000E6EBF9E402C005900D92AE3EB107D9F703
:1005E00022E0AEEEB0E001C01D92A03CB207E1F700
:1005F0000E945B200C94A1240C940000A82FB92F1A
:1006000080E090E041E050EA609530E009C02D9133
:1006100082279795879510F084279527305EC8F339
:100620006F5FA8F30895EADF8D939D930895CF93AC
:10063000CFB7CF93DF93C395839BE9F7839B10C01C
:10064000839B0EC0839B0CC0839B0AC0839B08C006
:10065000839B06C0C0919702C395C09397028EC03A
:100660006F93C0919602DD27C256DD4F2F9365E54B
:10067000839B03C02F916F91E1CF0F931F934F93F3
:1006800020E040E15F9300B30C7003FB27F93F9338
:1006900050E03BE039C01C7040642F77012F5F5F52
:1006A0001EC0406810B31C702F7752501FC04064AA
:1006B00000B32F770C70D1F15F5F00C023C04062A0
:1006C00010B32F771C7091F15F5F00C025C00C70D4
:1006D0001027515012F45D5F0000115027952C3FF8
:1006E00010B3C8F61C700127015027952C3FC8F69F
:1006F0004227499300B30C7010274F731150279570
:100700002C3FA8F64695469510B31C7079F001274A
:10071000015027952C3F98F66B5A60F3315000B387
:10072000B0F600C010E81ABF00271CC03B5031953E
:10073000C31BD04010E81ABF0881033C21F10B34E1
:1007400011F1209193021981110F1213EDCF4A81FB
:10075000441F093679F10D3211F0013E29F74F702F
:1007600009F0042F00939C023F915F914F911F91DC
:100770000F912F916F91CAB7C7FD5DCFDF91CF91D8
:10078000CFBFCF91189520919C02222369F310913D
:100790009A02112309F049C034300AF448C030935A
:1007A0009A0220939502109196023BE0311B309300
:1007B00096023DC000919A020130BCF50AE54F70E7
:1007C00049F43091760034FD33C000937600C0E7E1
:1007D000D2E032C0433059F0443091F030917B0286
:1007E00034FD26C000937B02CCE7D2E025C03091D7
:1007F000B40234FD1DC00093B402C5EBD2E01CC0AE
:100800003091870234FD14C000938702C8E8D2E01B
:1008100013C0052710E000C0000002BB1AC0052766
:1008200010E0221F1DC010E021C04AE502C032EDD9
:10083000432FC4E1D0E032E011B31C60939A02B3BD
:1008400011BB5CE020E865E320FF052702BB27958C
:1008500017951C3FF0F66695B8F7B1F720FF05270E
:1008600002BB279517951C3FD0F62795179517FFC4
:10087000052700001C3F02BBB0F629913A9519F7F5
:10088000037F10919B02110FC651D04002BB11F0A3
:100890001093930210E81ABF086011B3137F402F22
:1008A000437F54E05A95F1F702BB11BB42BB5CCFCA
:1008B00081E0089581E008950C945A0408950C9401
:1008C0005E041F93CF93DF9300D000D00F92CDB77B
:1008D000DEB749835A836B833091200189819A81E5
:1008E00031111DC06623B9F02223A9F00E943D1DDD
:1008F000182F682F89819A810E94E91C69817A8169
:10090000812F0F900F900F900F900F90DF91CF914C
:100910001F910C94E8100E94151D182FEFCF0E9414
:100920003D1D69817A81EDCFFC01262F40815181E7
:100930006281738184810C946104CF93DF93EC0115
:1009400060E00E949404BE01DF91CF910C945F049B
:100950008F929F92AF92BF92CF92DF92EF92FF92CF
:100960000F931F936B017C0181E090E0A0E0B0E069
:100970004C015D0104C0880C991CAA1CBB1C4A9543
:10098000D2F7B501A4014C015D0104C0880C991C8B
:10099000AA1CBB1C2A95D2F7482959296A297B2908
:1009A00004C0880F991FAA1FBB1F0A95D2F78A019E
:1009B0009B010C211D212E213F210417150726071D
:1009C000370789F48C299D29AE29BF29BC01CD01A7
:1009D0001F910F91FF90EF90DF90CF90BF90AF905D
:1009E0009F908F90089580959095A095B0958C21BB
:1009F0009D21AE21BF21EACF0F93382F262F609182
:100A00008B0170918C0180918D0190918E01042F4A
:100A1000432F0E94A8040F910C94271C0E948B085E
:100A20000E946A060E94870E0C94B0080C94B308CA
:100A300008950E9453180E9418052FEF84E39CE04C
:100A4000215080409040E1F700C000000C943D2010
:100A50000F931F93CF93DF938C0161E00E94940466
:100A6000EC01B8010E94F00E882309F441C0B801DE
:100A7000CE010E945C048823D9F1B801CE010E9406
:100A80007E0D8823A9F1B801CE010E941F12882390
:100A900079F1B801CE010E947112882349F1B801A1
:100AA000CE010E949413882319F1F80182818823D2
:100AB00061F0CA35FDE5DF0721F170F4C115ECE501
:100AC000DE07A1F0CE3DDC45C9F0C801DF91CF9132
:100AD0001F910F910C945804CB358DE5D807A1F0E8
:100AE000CC35DD4591F70E94E41DEFCF0E9419053A
:100AF00080E0DF91CF911F910F9108950E945D1FBB
:100B0000F7CF0E94ED1DE1CF0E94F01DDECFDF92F6
:100B1000EF92FF920F931F93CF93DF93E82FF0E0B4
:100B2000E455FD4FD490282F26952695269530E044
:100B3000F901E45BFC4F0491877010E0082E02C0BD
:100B4000159507950A94E2F701701127F901E45C05
:100B5000FC4FE490F12C082E02C0F594E7940A941F
:100B6000E2F791E0E922FF24F901E45DFC4FC49132
:100B7000D0E002C0D595C7958A95E2F7C170DD2710
:100B80000115110519F081EE0E943E15E114F104E2
:100B900019F086EE0E943E158D2D0E94D215EF2889
:100BA00019F086EE0E948C15012B19F081EE0E943F
:100BB0008C15CD2B51F08CE2DF91CF911F910F91CD
:100BC000FF90EF90DF900C94D215DF91CF911F91A1
:100BD0000F91FF90EF90DF900895EF92FF920F93A7
:100BE0001F93CF93DF93EC01162F0AE088818823AF
:100BF00009F454C0813009F04EC08981813099F4E4
:100C00007E0122E0E20EF11C8A810E94D215E701EA
:100C10002196812F815050F3EFE9FFE03197F1F7F2
:100C200000C00000F7CF823041F47E0182E0E80E80
:100C3000F11C8A810E943E15EACF833041F47E0187
:100C4000E2E0EE0EF11C8A810E948C15E0CF843028
:100C500011F02196DDCF2A81229690E080E0AE014E
:100C60004F5F5F4F2053330B2A30310548F0019717
:100C700078F2EFE9FFE03197F1F700C00000F7CF1D
:100C8000089FB001099F700D1124C901860F971F9D
:100C90002981EA01E4CF0E948705BACFDF91CF9185
:100CA0001F910F91FF90EF90089560E00C94ED0577
:100CB00008950C94580681E00895CF93C82F0E94A0
:100CC0005B06882319F0C1FF03C0DF9ACF91089516
:100CD000DF98FCCFD79ADF980895CF93C82F0E9452
:100CE00059068C2FCF910C945D0690E080E008951A
:100CF0000895FC01EE0FFF1FE45AFC4F859194917B
:100D00000895CF93DF930E94E8100E949607EC01AC
:100D1000811520E5920708F042C0811530E4930761
:100D200008F0BDC0883E910528F5803E910508F089
:100D30009DC0883A910588F4853A910508F08FC0E6
:100D40008130910509F492C0009709F48FC004978F
:100D500008F08CC0D0E0C0E089C08F3B910508F45A
:100D600089C0805C9109C03CD105A0F30E9479063E
:100D7000EC017CC08115904250F4C11581E0D80788
:100D800008F074C0C03FD10528F3D0656FC0C1150D
:100D900090E3D90708F079C0CE019F70E7CF8115A5
:100DA00025E5920758F5811534E5930708F0A6C0AC
:100DB000811542E5940750F4C11581E5D80708F480
:100DC00071C0DC2FCC27C16FD06A50C0982F969588
:100DD00096959E0123703327C115D34508F07FC037
:100DE000C1E0D0E002C0CC0FDD1F2A95E2F720E27F
:100DF000929FC0011124C82BD92B6FC0C11589E562
:100E0000D807A8F4C11598E5D90708F07CC0C1152A
:100E100026E5D20708F09ECF8C2F0E942D08C82F00
:100E2000D0E0DC2FCC27CC27DF71D0621FC0C115EA
:100E30003AE5D30708F46CC0CE0190568115904274
:100E400008F088CF8D2F8F710E942D0890E0982F89
:100E5000882788279F719C012C2BE901E6CFC55A72
:100E6000D0E0CB55DF4FC881D0E0D064CE01DF9118
:100E7000CF910895C85AD0E0CC0FDD1FC958DF4F7D
:100E80000990D881C02DD464F1CFCE019927D3FF2A
:100E900003C0EC01D86CEACFEC01D06CE7CFDF7077
:100EA000D06AE4CFCE01E4E096958795EA95E1F724
:100EB00083702C2F26952695237090E2299F900110
:100EC0001124382B8C2F8370C1E0D0E002C0CC0FEE
:100ED000DD1F8A95E2F7C22BD32BDC68C7CFC1E0B8
:100EE000D0E002C0CC0FDD1F2A95E2F730E2939FDD
:100EF000C0011124C82BD92BDA68B8CFD82FCC2742
:100F0000C46FD06AB3CFDC2FCC27C06FD06AAECF0E
:100F10008C2F8F700E942D0834E0D695C7953A9596
:100F2000E1F7CF709C2FEC01D069A0CF82389105FA
:100F3000B1F1B0F48133910509F475C048F48932F8
:100F4000910509F469C08A32910509F473C00895C6
:100F50008533910509F459C08933910501F108954C
:100F6000833E9105A9F138F4803E9105F9F0823E67
:100F7000910549F10895863E9105A9F1873E9105B5
:100F8000C9F1843E910519F52091560221FF1FC039
:100F90008091550284FD14C087EE90E00895209161
:100FA00055022370A1F080EE90E008952091550243
:100FB00020FD47C03091560230FF09C024FF44C0D5
:100FC00090E080E004C02091550222FDF7CF089503
:100FD0002091550222FD3BC03091560230FDE3CFF7
:100FE00024FFF5CFEDCF2091550223FFF0CF24FD54
:100FF000E7CFD2CF2091550223FD2CC0309156026D
:1010000031FFEECF84EE90E008952091550225FF48
:10101000DECF89E290E008952091550225FFD7CFD9
:1010200085E390E008952091550226FFD0CF8AE213
:1010300090E008952091550226FFC9CF81E390E00A
:10104000089589E390E0089583EE90E0089582EE9C
:1010500090E0089586EE90E008959091550292FFF9
:1010600006C0282F28712830F9F4877F846093FF09
:1010700006C0282F28712831F1F4877E84612091E1
:10108000560220FF06C0382F38713830D9F4877FD8
:10109000816021FF06C0282F28712831D1F4877E76
:1010A000816194FD877E0895282F24712430F9F6FC
:1010B0008B7F8860DCCF282F2471243101F78B7E51
:1010C0008861DDCF382F3171313019F78E7F88601C
:1010D000E0CF282F2171213121F78E7E8861E1CF69
:1010E0000C94CA0E0E942C092FEF86E791E0215044
:1010F00080409040E1F700C000000E942C0980E091
:101100000E94B50895FF04C00E9470080C943D2011
:1011100008950C9472080E94B81E811102C00E94AA
:101120005D1F0E94C31E8093A0010E94CB1E90935E
:101130005602809355020E9489080E94C71E682F9C
:1011400070E090E080E00E94EB1B60918B01709159
:101150008C0180918D0190918E010C94251C089535
:101160000C94AF0808950C94B208E82FF0E0EE0F4D
:10117000FF1FEF59FD4F808191810895089580EA06
:101180008A95F1F7089500C008950C94BF08F8946B
:10119000E82FE295EF70F0E031A9282F2F7081E061
:1011A00090E001C0880F2A95EAF7982F9095932335
:1011B00091AB92A9892B82AB789408950F931F93DA
:1011C000CF93DF9380E90E94C70881E90E94C70896
:1011D00082E90E94C70883E90E94C70884E90E9447
:1011E000C708C8EAD0E007EB10E089910E94C70861
:1011F0000C171D07D1F71092580210925702109247
:1012000062021092610210925A02109259021092D8
:1012100064021092630210925C0210925B021092C0
:1012200066021092650210925E0210925D021092A8
:101230006802109267021092600210925F02109290
:101240006A021092690285E00E94AC09DF91CF9199
:101250001F910F910C940E05AF92BF92DF92EF9207
:10126000FF920F931F93CF93DF93C7EBD0E007E577
:1012700012E0D12CEE24E394F12C8991F894E82F1C
:10128000E295EF70F0E021A98F70A70102C0440F32
:10129000551F8A95E2F7CA01922F982B91AB92A91C
:1012A0008095892382AB78940E94C308E8EAF0E035
:1012B00030E020E0B12CA12C4191A42FA295AF7079
:1012C000B0E0D0968C9190E04F7002C095958795D4
:1012D0004A95E2F780FD3BC0C701022E02C0880F8D
:1012E000991F0A94E2F7A82AB92A2F5F3F4F2F309F
:1012F000310511F7FE01319780810E94C7080E94D5
:10130000C508F80180819181A816B90619F1B1824A
:10131000A08281E0D82A0E5F1F4FF0E0CC3BDF07B0
:1013200009F0ABCF2D2D45E061E672E087E592E054
:101330000E94AD090E9416058D2DDF91CF911F915E
:101340000F91FF90EF90DF90BF90AF90089590E0E5
:1013500080E0C9CF80E0DECF0895FF920F931F9306
:10136000CF93DF93F82E092F162FD72FC42F2223C8
:1013700049F081E08093F2000E94F21F9093F10007
:101380008093F0008091F2008823A1F08091F0001A
:101390009091F1000E940A20069760F0EF2DF02F47
:1013A000A12FBD2F90E080E0D0E08C179D0744F086
:1013B0001092F200DF91CF911F910F91FF9008954D
:1013C000219131912D933D930196EFCF8091F900BA
:1013D00080FF12C06091650085E0689FB001112414
:1013E000759567957595679560387105A8F56115D0
:1013F0007105A1F1862F089581FF09C060916500F4
:1014000085E0689FB001112475956795EDCF6091D7
:10141000650082FD0AC08091F8008823D1F0909188
:10142000640060916500891728F085E0689FB0012D
:101430001124DACF869FB001112485E0869F9001A8
:10144000879F300D1124692F70E0C9010E94F62397
:10145000CBCF65E070E0CECF8FE7089581E00895AF
:101460008091F90080FF0CC06091610070E075957B
:101470006795759567956115710549F1862F0895F2
:1014800081FF06C06091610070E075956795F3CFAC
:101490006091610082FD0BC09091F7009923A1F04B
:1014A0006091600080916100961738F0682F70E0BD
:1014B0006038710500F38FE70895899FC0011124FA
:1014C00070E00E94F623F4CF61E070E0D7CF81E0B6
:1014D0000895803F31F40E94E60981958093FD00D4
:1014E0000895813F19F40E94E609F8CF823F31F454
:1014F0000E94E60981958093FC000895833F19F4CA
:101500000E94E609F8CF893F29F40E94300A8093AF
:10151000FE0008958A3F21F40E94300A8195F7CF9A
:101520008B3F31F40E94300A81958093FF0008952B
:101530008C3F19F40E94300AF8CF9CE0980F953048
:1015400070F4845F990B21E030E001C0220F8A958E
:10155000EAF78091FB00822B8093FB0008958D3F7A
:1015600031F48091F90081608093F90008958E3FF5
:1015700021F48091F9008260F7CF8F3FB9F7809115
:10158000F9008460F1CF4091FC00803F59F48091D4
:10159000FD0087FF0DC01092FD0041110BC010929D
:1015A000F80008C0813F81F48091FD0018169CF37B
:1015B000442381F08091FE009091FF00892B09F077
:1015C0005AC01092F7000895823F49F447FFF0CFC8
:1015D0001092FC008091FD008111ECCFE0CF833FA1
:1015E00019F41416ACF3E4CF9091FE00893F29F46E
:1015F0001916F4F61092FE00DBCF8A3F19F497FF1C
:10160000D7CFF8CF9091FF008B3F29F497FFD0CF31
:101610001092FF00CDCF8C3F19F41916CCF3C8CF30
:101620009CE0980F953090F4845F990B21E030E0B6
:10163000B90102C0660F771F8A95E2F7CB0180954A
:101640009091FB0089238093FB00B2CF8D3F31F452
:101650008091F9008E7F8093F900AACF8E3F21F40C
:101660008091F9008D7FF7CF8F3F09F0A1CF809156
:10167000F9008B7FF0CF08950E94F21F9C0190919A
:10168000FC008091FD00982B21F03093F600209310
:10169000F5009091FE008091FF00982B21F030938F
:1016A000F4002093F3008AEF90E00C94DA13EF92A9
:1016B000FF920F931F93CF93DF9300D000D000D001
:1016C000CDB7DEB786E0EAEFF0E0DE0111960190DB
:1016D0000D928A95E1F7E090FC00F090FD000091FA
:1016E000FE001091FF001092FC001092FD0010927D
:1016F000FE001092FF008E2D8F2991F08091F50051
:101700009091F6000E940A20AC019091F800992374
:1017100009F43FC0809166008417150608F447C09D
:10172000802F812B91F08091F3009091F4000E9422
:101730000A20AC019091F700992309F477C08091B9
:1017400062008417150608F47FC08091FC00909118
:10175000FD00892B9091FE00892B9091FF00892B31
:1017600011F00E943C0B86E0FE013196AAEFB0E03A
:1017700001900D928A95E1F726960FB6F894DEBF98
:101780000FBECDBFDF91CF911F910F91FF90EF90D2
:101790000895209167008AE0289F90011124241762
:1017A000350708F0BDCF9F5F9093F80002C09F3FC0
:1017B000D1F7EE2059F00E94E6099FEF1E140CF4B9
:1017C00091E0899F802D11248093FC00FF2059F027
:1017D0000E94E6099FEF1F140CF491E0899F802D71
:1017E00011248093FD003091FC00332309F498CF3D
:1017F0002091FD00222309F493CF45EB3403C0016F
:101800001124992359F09093FC0045EB2403900197
:101810001124332339F03093FD0082CF81E080938F
:10182000FC00F3CF81E08093FD007ACF209163002C
:101830008AE0289F900111242417350708F085CFEE
:101840009F5F9093F70002C09F3FD1F7002359F0AC
:101850000E94300A9FEF10160CF491E0899F802DB2
:1018600011248093FE00112359F00E94300A9FEF4B
:1018700011160CF491E0899F802D11248093FF00B4
:101880003091FE00332309F460CF2091FF00222322
:1018900009F45BCF45EB3403C0011124992359F0BF
:1018A0009093FE0045EB240390011124332339F07B
:1018B0003093FF004ACF81E08093FE00F3CF81E0B8
:1018C0008093FF0042CF86E0EAEFF0E0DF011D9257
:1018D0008A95E9F71092F8001092F7001092F9003B
:1018E000089586E090E00C945324682F86E090E001
:1018F0000C94612480916B020C94750CEBE6F2E081
:1019000080818470896180830C94750C80916B0256
:10191000869586958695089580916B0281FD07C016
:10192000826080936B020E94750C0C940B0E0895DC
:1019300080916B0281FF07C08D7F80936B020E94B4
:10194000750C0C94150E089580916B0281FD0C941A
:10195000980C0C948C0C80916B0286958170089584
:101960008091680008950E94B81E811104C00E94F1
:101970005D1F0E947E0C0E94710C80936B0280326E
:1019800020F08770886180936B0290916B02892FA1
:10199000817090FF04C0892F8695869586950C945A
:1019A000E70D80916B02982F9695969596959330BA
:1019B00040F49F5F990F990F990F8770892B80933F
:1019C0006B0280916B02816080936B020E94750CA8
:1019D00080916B028695869586950C94E70D809193
:1019E0006B02982F987F79F0885080936B02887FE4
:1019F00091E009F490E080916B0290FB80F9809374
:101A00006B020E94750C80916B0286958695869577
:101A10000C94E70D80916B0280FD13C08160809370
:101A20006B02813019F489E080936B0280916B0224
:101A30000E94750C80916B028695869586950C9414
:101A4000E70D089580916B0280FF08C08E7F809320
:101A50006B020E94750C80E00C94E70D0895809154
:101A60006B0280FD0C94220D0C940A0D90916B0278
:101A7000892F8695869586958F5F8F7197708430B4
:101A8000D8F4880F880F880F892B80936B02809180
:101A90006B02887F91E009F490E080916B0290FBEB
:101AA00080F980936B020E94750C80916B02869581
:101AB000869586950C94E70D90936B02E8CF843061
:101AC00008F083E090916B029770282F220F220F6D
:101AD000220F922B90936B02987F21E009F420E073
:101AE00090916B0220FB90F990936B020C94E70DA0
:101AF0000E945F0D80916B020C94750CFC01DB0160
:101B000012968C918823F9F0EB5BFC45E730F105E8
:101B1000D8F4ED55FB4D0C942C2483E00E94780DF5
:101B200080E0089580E0FACF0E94EF0CF9CF0E9488
:101B3000D10CF6CF0E942F0DF3CF0E94360DF0CFBF
:101B40000E94A40CEDCF81E008958C9A949808959A
:101B500094980895CF92DF92EF92FF928C3724E110
:101B6000920750F469E070E00E94E223CB01FF90FD
:101B7000EF90DF90CF900895B0E0A0E0BC01CD01E0
:101B80006A50774D8F4F9F4F982F872F762F66275C
:101B900025EF38E241E050E00E940A2469017A0111
:101BA000CA01B9010E94D2239B01AC01C701B60151
:101BB0000E94D223672F782F892F992761157105ED
:101BC00021E08207910591F66FEF7FEFCFCFCF93A2
:101BD000C82F8430D0F4811119C08FB58F7D8FBD8F
:101BE0000E94A80D2C2F30E0AFEFBFEF0E943924E8
:101BF00023E030E040E050E00E940A24C9010E9446
:101C0000AA0D99BD88BDCF910895C3E08FB58062BC
:101C10008FBDE8CF0895109201011092000110923B
:101C2000020189B7846089BF089589B78B7F89BF16
:101C30000E94860C0C94E70D1F920F920FB60F9224
:101C400011242F933F934F935F936F937F938F93C1
:101C50009F93AF93BF93CF93EF93FF930E94B00CEA
:101C600040910001509101014F5F5F4F94EF899FB8
:101C700090011124CA01B9010E94E223909301014D
:101C800080930001B901660F672F661F770B71956E
:101C90000E94E2236F7780910201823031F4603438
:101CA00041F489B78B7F89BF04C0813011F46F374D
:101CB000C1F3E62FF0E0E45AFC4FC4910E94860C79
:101CC000282F41E051E0C49FC001C59F900D112411
:101CD00063E070E00E94E223269FC001279F900DE1
:101CE00011240E94AA0D99BD88BDFF91EF91CF915B
:101CF000BF91AF919F918F917F916F915F914F9124
:101D00003F912F910F900FBE0F901F9018950E943A
:101D1000A50D82E28FBD89E18EBD8FEF9FEF97BD4C
:101D200086BD0E94B30C0E94AB0C81110C940B0E6B
:101D3000089583E290E00E945324813289F484E282
:101D400090E00E945324883059F485E290E00E948C
:101D5000532491E0893009F090E0892F8170089533
:101D600080E0FCCFCF93C82F6FEF811161E283E257
:101D700090E00E9461246FEFC11168E084E290E07E
:101D80000E9461246FEFC11169E085E290E0CF917C
:101D90000C94612480E00E94B20E0C94B21E08954F
:101DA00086E290E00E945324682F70E090E080E08B
:101DB000089586E290E00C9461240E94CF0E0E9468
:101DC000990E81110CC060E070E0CB010E94D90E29
:101DD0000E9460100E944C1181E00C94B20E089594
:101DE000CF93FB01C281CC2309F19C0122513F45D5
:101DF0002031310520F582510E945C11C0E08C2F0A
:101E0000CF91089581E00E944D1C43E062E081E0A3
:101E10000E94FC04F3CF81E00E946E1C43E062E06C
:101E200081E00E94FC04EBCF82E0F6CF8031FFE539
:101E30009F0789F381319F45B9F3C1E0E0CF80313D
:101E4000EFE59E07F9F281319F45C9F682E0DBCFCD
:101E50002FEFFC0120830895CF93DF93EC0188815D
:101E6000893029F08A3079F0DF91CF9108950E946E
:101E7000860C2FEF829FC001112463E070E00E9466
:101E8000E2236983F1CF0E94AB0C8983EDCFFC0183
:101E90008081893019F08A3069F00895818123E0CA
:101EA000829FC00111246FEF70E00E94E223862F11
:101EB0000C945F0D8181811102C00C94980C0C94DC
:101EC0008C0CEF92FF920F931F93CF93DF93EC0153
:101ED000062FDC01ED91CD01E150E33108F0ADC0FA
:101EE000F0E0E655FB4D0C942C24198289E08A839E
:101EF000602FCE01DF91CF911F910F91FF90EF9056
:101F00000C9474218981823069F0833071F08130C2
:101F1000D9F40E94FE1F0E9432246A837B838C8343
:101F20009D83E6CF0E94D00EF6CF7E0110E0812F78
:101F30000E94B508F701928383831F5FF2E0EF0EE2
:101F4000F11C1530A1F7D4CF602FCE010E94280FCD
:101F5000CFCF89818230C1F76A817B818C819D815D
:101F60000E9432240E94D90EC3CF4B816A8189819D
:101F70000E9432109827892798279D838C83B8CF99
:101F80002C813D813227232732274B816A81898129
:101F90000E944B10ADCF0E946010AACF0E94470F45
:101FA000A7CF0E942C0FA4CF0E947A0CA1CF0E9431
:101FB000F51089839DCF0E94F710982789279827CD
:101FC0009A83898395CF6B8170E089819A81AE0174
:101FD0004C5F5F4F9827892798270E94FA1088CF77
:101FE0006B8170E089819A81AE014C5F5F4F9827C9
:101FF000892798270E9421117BCF0E944C1178CF0E
:102000000E942010D6CF6B8170E089819A81AE0149
:102010004C5F5F4F9827892798270E94981068CFB8
:102020006B8170E089819A81AE014C5F5F4F982788
:10203000892798270E94BE105BCF8FEF888358CFE7
:1020400084E0089550E0440F551F9EE1699F400DC4
:10205000511D112496E9899F400D511D1124CA017B
:10206000879608950F931F93CF93DF930E942210BA
:102070008C010E945324C82FD0E0DC2FCC27C8014C
:1020800001960E9453249E01282BC901DF91CF9114
:102090001F910F9108950F931F93CF93DF93122FEA
:1020A000032F0E942210EC01602F0E946124612FF7
:1020B000CE010196DF91CF911F910F910C94612475
:1020C000AF92BF92CF92DF92EF92FF921F93CF9386
:1020D000DF9384E5C82E80E0D82ED0E07601C0E002
:1020E00014C0F50125913491412F6C2F8D2F0E9442
:1020F0004B1082E0A80EB11C1F5F1F3091F78EE1DC
:10210000E80EF11CCF5FC53019F0570110E0E9CFA0
:10211000DF5F86E9C80ED11CD43001F7DF91CF9183
:102120001F91FF90EF90DF90CF90BF90AF900895F8
:10213000EF92FF920F931F93CF93DF93EC018A01ED
:102140007C01E60EF71ECE018796CE15DF0539F429
:10215000DF91CF911F910F91FF90EF900895C835B7
:1021600022E0D20740F40E945324F80180830F5FDD
:102170001F4F2196E8CFF8011082F9CFCF92DF925E
:10218000EF92FF920F931F93CF93DF937C016A012D
:102190008C01060F171FEC01CE018796C017D107DF
:1021A00049F4DF91CF911F910F91FF90EF90DF9055
:1021B000CF900895C83522E0D20740F4FE01EE1911
:1021C000FF09EC0DFD1D60810E9461242196E4CF82
:1021D000462F843038F4753028F46F3018F4672FA8
:1021E0000C94321090E080E0089580E1089581E839
:1021F00091E00895EF92FF920F931F93CF93DF9397
:10220000EC018A017C01E60EF71ECE0181589D4F3C
:10221000CE15DF0539F4DF91CF911F910F91FF901B
:10222000EF900895C13821E0D20740F40E94532472
:10223000F80180830F5F1F4F2196E7CFF8011082CE
:10224000F9CFCF92DF92EF92FF920F931F93CF932C
:10225000DF937C016A018C01060F171FEC01CE0190
:1022600081589D4FC017D10749F4DF91CF911F913D
:102270000F91FF90EF90DF90CF900895C13821E04B
:10228000D20740F4FE01EE19FF09EC0DFD1D60813F
:102290000E9461242196E3CFCF93DF93CFE7D2E072
:1022A00060E0CE010E9461242196C11584E0D80728
:1022B000B9F7DF91CF910895DF92EF92FF920F93DC
:1022C0001F93CF93DF9300D000D0CDB7DEB7F82EA9
:1022D0008FE08F1540F08FEF93E00E9453240FE7BB
:1022E00012E08823C1F00F900F900F900F90DF91B4
:1022F000CF911F910F91FF90EF90DF9008950115FE
:1023000084E0180781F3C8010E945324811101C0A1
:10231000FA940F5F1F4FF110F2CF19821A821B82BD
:102320001C82DD24D39478018FEFE81AF80AC801E3
:102330000E94532489831A828823A9F29FEF980F61
:10234000933078F48A83D9820E5F1F4FC7010E94B1
:1023500053248B83882339F2CE0101960E945506BF
:10236000E2CF8701F9CF0F931F93CF93DF93C42F51
:10237000D22FFC0182818823C9F0409305010E947D
:10238000F21F909304018093030180E28C0F883048
:1023900008F050C0C77081E001C0880FCA95EAF705
:1023A000DF91CF911F910F910C94DA1510910501D7
:1023B000141335C080910301909104010E940A20FA
:1023C000883C910560F5C0E2CD0F1D17B9F080E2A1
:1023D000810F883040F4177081E001C0880F1A9592
:1023E000EAF70E94E115C83048F481E09D2F97700C
:1023F00001C0880F9A95EAF70E94DA15802F0E9493
:10240000D215C830B8F4D77081E001C0880FDA95D2
:10241000EAF7DF91CF911F910F910C94E11580E2C3
:102420008C0F883038F4C77081E001C0880FCA95DE
:10243000EAF7EFCFDF91CF911F910F9108950F939E
:102440009C01CB01233F4CE5340759F1A8F4283D0A
:10245000FCE53F0701F1293D4CE53407D1F1273D6B
:102460003C4591F406E221EE41EE67ED7CE50E94E9
:10247000B31180E00F910895253FFCE53F07E9F097
:10248000B0F0263F3C45F9F0FC018281882339F108
:1024900010920501EFCF07E225EE45EE68ED7CE5F1
:1024A000E6CF06E221EE40EE63EF7CE5E0CF07E207
:1024B00025EE44EE64EF7CE5DACF06E221EE42EE53
:1024C00065EF7CE5D4CF07E225EE46EE66EF7CE5CE
:1024D000CECF08E221E045EE69ED7CE5C8CF81E092
:1024E000C9CFCF93DF93EC01FB018281882309F4EC
:1024F00019C1C230FCE5DF07C0F1C6319CE5D90740
:1025000030F09E012A5F3C452930310570F50E946C
:10251000CB1E9093560280935502C031ECE5DE0746
:1025200009F4CFC008F05BC0C8308CE5D80709F4C7
:10253000B6C088F5C430ECE5DE0709F4A8C0C0F4E5
:10254000C2308CE5D80709F49CC0809155028260A6
:10255000C330DC4509F498C0809155029091560231
:102560000E94D91E0E94531880E0DF91CF910895F8
:10257000809155028061C630ECE5DE0709F484C025
:10258000809155028860C730DC4508F47DC0809199
:102590005502806279C0CC308CE5D80709F489C037
:1025A00070F4809155028C60CA30ECE5DE0709F4C6
:1025B0006BC008F478C0809155028E7F65C0CE3024
:1025C0008CE5D80709F479C0809155028B7FCF3014
:1025D000DC4508F459C0809155028F7E55C0CB3F31
:1025E000ECE5DE0709F457C030F5C3318CE5D807B8
:1025F00009F46FC078F4C131ECE5DE0709F465C079
:10260000C231DC4509F0A8CF0E94531880915502D1
:102610008F773AC0C5318CE5D80709F462C008F459
:1026200076C0809156028160CA3FDC4509F094CFA4
:102630008093560291CFCF3FFCE5DF0709F44DC0F0
:1026400088F4809156028D7FCD3F9CE5D90781F3B8
:10265000809156028E7FCE3FDC4550F3809156022A
:102660008360E6CFC130FDE5DF0709F459C008F407
:1026700044C080E0C230DD4509F06ECF0E945F1F8C
:102680006BCF8091550281608093550265CF809118
:1026900055028460F9CF809156028260C9CF809143
:1026A00055028064F1CF0E945318809155028068D2
:1026B000EBCF809155028D7FE7CF80915502877FC8
:1026C000E3CF809155028F7DDFCF809155028F7BC4
:1026D000DBCF80915502837FD7CF809156028C7FCC
:1026E000A7CF8091550282FB992790F921E092278C
:1026F00090FB82F990FB83F9C7CF80915602982F07
:10270000909591708E7F892B90FB81F991CF0E94DB
:10271000531890915502892F97FB87F98058B4CFB1
:1027200081E0ACCF81E021CFCF93DF93EB01863105
:102730009C4511F50E94F31D9A81992399F08A7A9C
:1027400091E009F490E090930601811109C089E2BB
:102750000E94AD1D0E94431E80E0DF91CF9108953D
:1027600085E3F6CF80910601811104C089E20E94C1
:10277000B41DF0CF85E3FBCF81E0EFCF90930C0148
:1027800080930B010895E0910B01F0910C013097BB
:1027900021F00190F081E02D099480E00895E0910E
:1027A0000B01F0910C01309721F00280F381E02DB4
:1027B00009940895E0910B01F0910C01309739F0E4
:1027C00022E0DC012C930480F581E02D099408952A
:1027D0002091090130910A012817390771F090936F
:1027E0000A0180930901E0910B01F0910C013097EF
:1027F00021F00680F781E02D0994089520910701CA
:10280000309108012817390771F0909308018093DF
:102810000701E0910B01F0910C01309721F0008449
:10282000F185E02D099408950E94FE1F60931C011C
:1028300070931D0180931E0190931F0160931801F6
:102840007093190180931A0190931B01089584B726
:10285000806884BF84B7806884BF08950895089510
:102860000C942E1408950C9432140E94271480EBBB
:102870009EE10E9456200E942F140C94301481E097
:1028800008950C943F14089508950E9443140C94E5
:1028900044140E94EB1F0E94DE080E94DD0E0E947D
:1028A000B30C0C9433148F929F92AF92BF92CF923D
:1028B000DF92EF92FF920F931F93CF93DF93CDB7E9
:1028C000DEB72A970FB6F894DEBF0FBECDBF0E94C9
:1028D0002C0981110E9414145EE0852E51E0952E82
:1028E00010E000E0A02E802F0E94B5086C01F401DA
:1028F000E190F1904F01E816F90609F45EC080916D
:10290000A00181FD0E94BE08C7018C259D25B12C28
:10291000EE24E394F12C9C012E213F21232B09F47A
:1029200046C00E9441148823A9F0BE82AF82CE2007
:10293000DF2081E0CD2809F480E088870E94F21F23
:102940008160782F9A8789874E815F8168858A8523
:102950000E940715000F111FF801E25FFE4F8081F2
:102960009181E826F926F182E0820E940A0E0E94F7
:10297000570B0E94C31390910D018917A9F10E9472
:10298000C31380930D012A960FB6F894DEBF0FBED5
:10299000CDBFDF91CF911F910F91FF90EF90DF900E
:1029A000CF90BF90AF909F908F900C946D06B39492
:1029B000EE0CFF1CFFE0BF12AECF0F5F1F4F0530C4
:1029C000110509F08FCF8FEF89838A831B820E94C4
:1029D000F21F8160782F9D838C8349815A816B819E
:1029E0008D810E940715C1CF2A960FB6F894DEBFDD
:1029F0000FBECDBFDF91CF911F910F91FF90EF9050
:102A0000DF90CF90BF90AF909F908F900895DF920E
:102A1000EF92FF920F931F93CF93DF93CDB7DEB763
:102A20002B970FB6F894DEBF0FBECDBF7A878B878A
:102A3000F42E052F162FE72ED82E61110E94131E9B
:102A40001E821D827E2DEC82DD824F2D502F612F44
:102A50008D2D9E812B960FB6F894DEBF0FBECDBF95
:102A6000DF91CF911F910F91FF90EF90DF900C9429
:102A7000C91AFC01808191810C947F1DCF93C82FCE
:102A8000882309F447C08CEF8C0F813AA0F46C2F97
:102A90008091690090916A000E94761F882329F036
:102AA0008C2F0E94B41D0E94431E8C2F0E94AD1DCE
:102AB000CF910C94431E80E28C0F883048F4C7708D
:102AC00081E001C0880FCA95EAF70E94F61DF0CF99
:102AD000EBE5EC0FE33040F4F0E0E651FF4F80818E
:102AE00090E0CF910C94E813E8E5EC0FE73150F457
:102AF000F0E0EE0FFF1FE454FF4F80819181CF91F2
:102B00000C94FE13C03F30F08C2F0E94690ACF91C5
:102B10000C943C0BCF910895882361F19CEF980FA2
:102B2000913A20F40E94B41D0C94431E90E2980F39
:102B3000983050F4877091E001C0990F8A95EAF7B8
:102B4000892F0E94FC1DF0CF9BE5980F933020F455
:102B500090E080E00C94E81398E5980F973120F40A
:102B600090E080E00C94FE13803F20F00E94C30AA6
:102B70000C943C0B08951F93CF93DF93182FEB0118
:102B80000E943E15209731F4812FDF91CF911F9144
:102B90000C948C158FE99FE00197F1F700C00000BD
:102BA0002197F0CF70E060E0893311F460E570E0C8
:102BB0000C94BB15882321F00E94F61D0C94431E33
:102BC0000895882321F00E94FC1D0C94431E089553
:102BD000BF92CF92DF92EF92FF920F931F93CF930A
:102BE000DF936C01D62FC72FFC011281058102955E
:102BF0000F700E94CB1DE82E8823A1F0E12E112337
:102C000089F08C2F807F803429F080E28D0FE12CB9
:102C1000883040F082E00E94941E0E94CB1D91E01B
:102C2000E82EE926BC2EB2949FE0B922EB2DF0E00D
:102C3000E354FB4D0C942C240C2F0F70C07F11F02B
:102C40000295007F1123A9F0002359F080E28D0F37
:102C5000883010F0D11109C0802F0E94F61D0E940B
:102C6000431E8D2F0E943E1514C0802F0E94061E09
:102C7000F6CF8D2F0E948C15002359F080E28D0F26
:102C8000883010F0D1112CC0802F0E94FC1D0E94B2
:102C9000431E2B2D2850330B2430310520F40E9485
:102CA000C3130E946D06EE2009F49EC10E94C71D49
:102CB00080FD9AC1F60112820E94C11D0E944D1C26
:102CC000C6010E9415180E94C11DDF91CF911F916E
:102CD0000F91FF90EF90DF90CF90BF900C946E1CFF
:102CE000802F0E940C1ED3CFFC2FFF70FF2EC07FC1
:102CF000C03219F0F29480EFF822DD2369F0D13070
:102D000049F1112391F1002351F1F601858180FFF2
:102D1000A8CF8F70858323C0112381F0011106C0D5
:102D20000E94261E8F290E94DA15B3CF0130C1F709
:102D30000E94261E8F290E942C1EABCF011106C0B7
:102D40000E94391E8F2D0E94E115A3CF013009F496
:102D5000A0CFF6CF112329F0063008F09ACF8F2D9F
:102D6000E2CF053008F095CFEDCF002359F3D933EA
:102D700049F4FFEF27EE33E0F15020403040E1F717
:102D800000C000008D2F0E948C1583CF8C2F86955C
:102D90008695837069F0813009F07BCF8D2F9C2F51
:102DA0009370111102C090E080E00E94FE1371CF79
:102DB0008D2F9C2F9370111102C090E080E00E9433
:102DC000E81367CF8D2F112329F00E94690A0E9412
:102DD0003C0B5FCF0E94C30AFACF8C2F837009F09F
:102DE00041C0111156CF4D2F429546954770440F63
:102DF000440F0D2F0F7010E030E020E0042E04C0CF
:102E0000000F111F221F331F0A94D2F760E070E0F9
:102E1000CB01D4FF0FC06FE070E080E090E004C011
:102E2000660F771F881F991F4A95D2F76095709596
:102E300080959095C695C695C370602B712B822B9B
:102E4000932BC23049F058F4C13019F00E94FF1B97
:102E500020CF0E94ED1B1DCF0E94111C1ACF0E9493
:102E6000EB1B17CF8695112311F08C2F81708823CF
:102E700009F40FCF4D2F429546954770440F440FEC
:102E80000D2F0F7010E030E020E0042E04C0000F82
:102E9000111F221F331F0A94D2F760E070E0CB01AC
:102EA000D4FF0FC06FE070E080E090E004C0660FD8
:102EB000771F881F991F4A95D2F760957095809566
:102EC0009095C695C695C370602B712B822B932B62
:102ED000C23049F058F4C13019F00E94C41CD9CE58
:102EE0000E94B21CD6CE0E94D61CD3CE0E94271CB4
:102EF000D0CECF70112329F08C2F0E944D1C8D2F26
:102F000012CF8D2F0E94E1158C2F0E946E1CC1CE16
:102F1000D23F89F160F4D03FC9F0D13F29F11123AC
:102F200009F442C001119DCE8C2F8F7121C0D33F77
:102F300039F1D43FA1F7112369F1CF718C2F0E9491
:102F40004D1C63E08C2F0E94791EA3CE112341F00B
:102F5000053008F09ECE8C2F8F710E94911C99CE67
:102F6000063008F096CEF7CF8C2F8F71112369F2BF
:102F70000E944D1C8ECE8C2F8F711123C9F3C5CFAB
:102F8000112329F08C2F8F710E94381C82CE0E9451
:102F9000331C7FCE81E00E94941E023008F479CE6B
:102FA00082E00E94941E75CE002359F0D93309F0B7
:102FB000E9CE8FEF97EEE3E081509040E040E1F7FB
:102FC000DFCE8C2F8F71A1CF4C2F4F706D2FC6018C
:102FD0000E9475060E94631B5CCE4C2F4F706D2FB4
:102FE000C6010E94780655CEDF91CF911F910F91B7
:102FF000FF90EF90DF90CF90BF9008950F931F93B5
:10300000CF93DF93EC01688179818A810E94891DC9
:103010008C010E94E81C0E94EA1BB801CE01DF91DE
:10302000CF911F910F910C94E815CF93DF93EC0192
:103030008B819C81892B29F08881998189238F3FFD
:1030400059F4DF91CF910895CE010E94FE17CE0171
:10305000DF91CF910C949D04CE010E94280581112F
:10306000F3CF0E94CB1D882361F38A81882349F323
:1030700082E0DF91CF910C94941E90E080E00E945A
:10308000E81390E080E00E94FE130E94131E0E944D
:10309000231E0E94431E0E94630C0C943C0B0E9452
:1030A000BB1D0C943D180E94031E0C944F18E92F71
:1030B000E295EF70E250EE3070F4F0E0E353FB4D38
:1030C0000C942C24803F19F020F4883E20F481E0F9
:1030D0000895843FE1F380E00895883EC0F3813F86
:1030E000D1F7F5CF93FB882780F908950E947F1DC3
:1030F0000C945718CF93DF9300D000D00F92CDB728
:10310000DEB70F900F900F900F900F90DF91CF913F
:103110000895CF93DF9300D000D000D0CDB7DEB7B5
:1031200026960FB6F894DEBF0FBECDBFDF91CF91CC
:1031300008951F93CF93DF93C091210116E08091F2
:1031400022018C1304C0DF91CF911F910895D0E02C
:103150001C9FF0011D9FF00D1124ED5DFE4F40817D
:10316000518162817381848195810E9489182196A1
:10317000C770E5CF409153015091540160915501C2
:103180007091560180915701909158010C948918C3
:103190001F93CF93DF9380915801807FA9F4809192
:1031A0005501882389F080912101C091220160910D
:1031B000530170915401A0915601B0915701D62F3F
:1031C000D72316E0C81304C0DF91CF911F91089553
:1031D00090E0109711F0DF3F19F401968770F2CF5D
:1031E000189F9001199F300D1124F901ED5DFE4FDC
:1031F00041814713F2CF40814613EFCF4281411105
:10320000ECCF438154814A1B5B0B483C510528F7A6
:10321000809158018F70806180935801F901E85DB9
:10322000FE4F80818F708061808383E591E00E94F2
:103230001518DF91CF911F910C949918AF92BF92FE
:10324000CF92DF92EF92FF920F931F93CF93DF9372
:10325000CDB7DEB761970FB6F894DEBF0FBECDBF16
:103260008C0185E0F801DE011D9601900D928A9592
:10327000E1F7F80140815181E28083E5C82E81E0C9
:10328000D82E60915601709157016115710509F4AE
:1032900061C19091530120915401892F82238F3F66
:1032A00009F458C1A380B480F0905501F501E61BE4
:1032B000F70BFF2009F4FCC080915801382F307FB4
:1032C000E83CF10508F0B2C0311179C0FE2C25139D
:1032D00023C0941321C0E1101FC08F7080618093C0
:1032E00058010E94BA18C6010E9415188091580111
:1032F000F80185838F2D61960FB6F894DEBF0FBE5F
:10330000CDBFDF91CF911F910F91FF90EF90DF9094
:10331000CF90BF90AF900895AB2829F0842F8523DC
:103320008F3F09F033C180E0F82FF170DF2E80FF6E
:103330003CC0809121012091220136E0821315C00A
:103340004D875E878D859E850E947F1D292F229542
:103350002F702230F0F0243018F59F70F1F0F80152
:103360009581907FD1F4D12C1EC090E0389FF00160
:10337000399FF00D1124ED5DFE4F6181651306C08C
:103380006081641303C062816E110FC00196877063
:10339000D5CF9F7011F0882331F3805E883018F309
:1033A000C8010E941518FD2CA5CFEE2009F4A2CF6C
:1033B00080915801816080935801F12C9BCF251397
:1033C00006C0941304C0F801EE2009F48DC04D87A7
:1033D0005E878D859E850E947618882319F1EE20E0
:1033E00009F180915801803270F0209153013091A1
:1033F000540138872F831986BB86AA868C87CE0115
:1034000007960E94151886E0F801A3E5B1E0019047
:103410000D928A95E1F70E94C8180E94BA18FF24FD
:10342000F39468CFC8010E941518F9CF311113C069
:103430007A2DB98AA88A6E2D89890E947A1883E527
:1034400091E00E94151886E0F60111928A95E9F73D
:103450000E94BA18B2CF25130FC094130DC0E1100B
:103460000BC0F8018583C8010E94151886E0F6019B
:1034700011928A95E9F73ECF4D875E878D859E85AF
:103480000E947618882371F2EE2061F28091580133
:10349000803208F4B8CF20915301309154013A831F
:1034A00029831B82BD82AC828E83CE010196A9CF77
:1034B000E83CF10508F041C0FE2CEE2009F4B2CF43
:1034C00025132AC0941328C08091580180FD1BC089
:1034D000982F907FC1F0F8018583903F31F0982FAD
:1034E000907F905F8F70892B8583C8010E9415188B
:1034F00086E0F801A3E5B1E001900D928A95E1F72D
:103500000E94BA18F7CE86E0F801A3E5B1E0019079
:103510000D928A95E1F7EECE4D875E878D859E856B
:103520000E94761881116FCF80915801816080933D
:103530005801C8010E941518DDCE7A2DB98AA88AD3
:103540006E2D89890E947A1886E0F60111928A957B
:10355000E9F7D6CFEE2009F465CF4D875E878D85DC
:103560009E850E947618F82E882309F45BCF86E0AA
:10357000F801A3E5B1E001900D928A95E1F783E5AA
:1035800091E00E9439150E94C818BACF81E08E25BB
:10359000CBCE1F93CF93DF93CDB7DEB72C970FB66B
:1035A000F894DEBF0FBECDBF4F83588769877A87F7
:1035B0008B879C87CE0107960E941E19882369F08D
:1035C0008A859B85892B39F04F815885842F8523E7
:1035D0008F3F09F071C016E05FC086E0FE013796AC
:1035E000DE01119601900D928A95E1F78A859B85FF
:1035F000892B89F38F81988589238F3F61F32091EF
:10360000220130E0C901019687709927409121017C
:103610004817190671F40E94531810922201109253
:10362000210186E0E3E5F1E0DF011D928A95E9F7EB
:10363000D2CF96E0929FD001939FB00D1124AD5D43
:10364000BE4FFE01319601900D929A95E1F780935D
:1036500022010E949918BFCF819FC00111248D5D66
:103660009E4F0E941E198823E9F0E09121011E9FC0
:10367000F0011124ED5DFE4F408151816281738123
:10368000848195810E9489188091210190E00196A2
:1036900087709927809321018091210190912201C7
:1036A0008913DACF2C960FB6F894DEBF0FBECDBFCC
:1036B000DF91CF911F91089569857A858B859C85CF
:1036C0000E94891888CFEF92FF920F931F93CF9398
:1036D000DF938C01892B81F0F12CEE24E394E80137
:1036E0002196F8018491843770F4843008F05FC02B
:1036F0008130B1F08230A1F1DF91CF911F910F9114
:10370000FF90EF900895853709F44CC008F43DC050
:103710009CE7980F903780F78F770E948C1549C0EF
:103720000E5F1F4FFE01849190E2980F983060F475
:103730008770FE2D01C0FF0F8A95EAF78F2F0E9438
:10374000161E0E94431E02C00E943E158F2D8150FE
:1037500030F2EFE9FFE03197F1F700C00000F7CF5A
:103760000E5F1F4FFE01849190E2980F983050F445
:103770008770FE2D01C0FF0F8A95EAF78F2F0E94F8
:103780001C1EDFCF0E948C15E1CF0E5F1F4FFE0184
:10379000C491C150D8F28FE99FE00197F1F700C0C2
:1037A0000000F7CF0E5F1F4FFE01F490CFCF0E94B5
:1037B0003E158E01CBCF08950C94DB1B0E94DC1BC1
:1037C00060938F0170939001809391019093920187
:1037D0000C943D1808950C94DE1B0F931F930091D9
:1037E0008F01109190012091910130919201602BF5
:1037F000712B822B932B1F910F910C94DE1B0F9337
:103800001F9300918F0110919001209191013091AF
:10381000920160237123822393231F910F910C94B3
:10382000DE1B0F931F9300918F0110919001209147
:1038300091013091920160277127822793271F9170
:103840000F910C94DE1B0C94DB1B0C94231C0E9428
:10385000251C60938B0170938C0180938D01909354
:103860008E010C943D1860E070E0CB010C94271C95
:103870000F931F9341E050E060E070E08A019B01EC
:1038800004C0000F111F221F331F8A95D2F7C901F0
:10389000B8011F910F910C94271C0F931F9341E0C7
:1038A00050E060E070E004C0440F551F661F771FB2
:1038B0008A95D2F780918B0190918C01A0918D0116
:1038C000B0918E018A019B01082B192B2A2B3B2BCF
:1038D000C901B8011F910F910C94271C0F931F93DE
:1038E00041E050E060E070E004C0440F551F661FE7
:1038F000771F8A95D2F7CB01BA01609570958095B4
:10390000909500918B0110918C0120918D01309147
:103910008E0160237123822393231F910F910C94B6
:10392000271C0F931F9341E050E060E070E004C05B
:10393000440F551F661F771F8A95D2F780918B0120
:1039400090918C01A0918D01B0918E018A019B0113
:10395000082719272A273B27C901B8011F910F9172
:103960000C94271C0F931F9300918B0110918C01D5
:1039700020918D0130918E01602B712B822B932B26
:103980001F910F910C94271C0F931F9300918B0193
:1039900010918C0120918D0130918E016023712353
:1039A000822393231F910F910C94271C0F931F9335
:1039B00000918B0110918C0120918D0130918E012D
:1039C00060277127822793271F910F910C94271C42
:1039D00008952FE0929F800D1124982F977041E059
:1039E00001C0440F9A95EAF786958695869595E0ED
:1039F000899FF0011124E75AFE4F90E080E070E0CB
:103A00005191DF0111979B01082E02C03695279531
:103A10000A94E2F7217021952527242325272C934A
:103A200001968530910561F708952FE0929F800DF2
:103A30001124982F977086958695869525E0829F0C
:103A4000F0011124E75AFE4F50E040E080E0219160
:103A500030E0092E02C0369527950A94E2F72170CE
:103A60003327042E01C0220F0A94EAF7822B4F5FFE
:103A70005F4F4530510559F70895BF92CF92DF92BD
:103A8000EF92FF920F931F93CF93DF938C01C0901F
:103A90008B01D0908C01E0908D01F0908E0180918F
:103AA0008F0190919001A0919101B0919201C82A4B
:103AB000D92AEA2AFB2ACFE1D0E0BC2ED701C601E1
:103AC0000C2E04C0B695A795979587950A94D2F7C2
:103AD00080FD0EC0219788F7B12C8B2DDF91CF91FF
:103AE0001F910F91FF90EF90DF90CF90BF900895BE
:103AF000B8018C2F0E948106019761F3EECFCF931E
:103B0000DF93EC010E943D1DBE01DF91CF910C942B
:103B100081061F93CF93DF93EB01909120019923AE
:103B200031F0CB01DF91CF911F910C947F1D882341
:103B300079F0CB010E943D1D182F682FCE010E9405
:103B4000E91CBE01812FDF91CF911F910C9481065A
:103B5000CB010E94151D182FF4CF682F80916900AA
:103B600090916A000C94AC1F682F8091690090912D
:103B70006A000C94AE1F8091690090916A000C94C9
:103B8000B01F8091930185958595859508958091C5
:103B900093018770089590919301977081E009F4E3
:103BA00080E008959091560292FB222720F9281771
:103BB00051F080FB92F990935602809155029091BA
:103BC00056020C94D91E08958091560282FB8827D4
:103BD00080F991E089270C94D21D81E00C94D21DCC
:103BE00080E00C94D21D80919F01089590919F01D7
:103BF000892B80939F010895809590919F01982330
:103C000090939F01089510929F01089590919E01B5
:103C1000892B80939E010895809590919E01982311
:103C200090939E01089510929E01089590919D0198
:103C3000892B80939D010895809590919D019823F3
:103C400090939D01089510929D0108958091940193
:103C5000089508950C94291E9091560292FD08C073
:103C600090919401981721F0809394010C942A1E4E
:103C7000089580919401882329F01092940180E0A6
:103C80000C942A1E0895E0916900F0916A008091D9
:103C90009F018083E0916900F0916A00808190919A
:103CA0009E01892B8083E0916900F0916A008081F8
:103CB00090919D01892B808390919401992381F0AB
:103CC000E0916900F0916A008081892B8083809166
:103CD000690090916A000E94641F81110E94391E40
:103CE0008091690090916A000C94CF1308950C9410
:103CF000761E9091560292FD10C098E0899F900127
:103D00001124622B609393010E944D1C80919301BA
:103D10008595859585950C94771E0C944D1C109275
:103D2000930180E00C94771E9091930180958923F4
:103D300080939301282F277039F4282F082E000C28
:103D4000330B9217130621F49091560292FF07C08D
:103D50008595859585950E946E1C0C948F1E0895FF
:103D600080E008956FEF7FEF90E080E00C947E2478
:103D700090E080E00E945B2421E08A3E9E4F09F0A3
:103D800020E0822F089582E090E00C94532483E099
:103D900090E00C945324CF9384E090E00E9453244D
:103DA000C82F82E290E00E945324982F8C2FCF914D
:103DB0000895CF93C92F682F84E090E00E9461247A
:103DC0006C2F82E290E0CF910C946124AB01BC0196
:103DD0008FE090E00C947224AB01BC0183E190E091
:103DE0000C94722460E070E0CB010C94EC1E60E057
:103DF00070E0CB010E94E61E0C94F21E6AEE7EEF8C
:103E000090E080E00E947E2460E082E090E00E94EA
:103E1000612460E083E090E00E94612410928F01B1
:103E200010929001109291011092920160E084E052
:103E300090E00E94612460E082E290E00E946124B0
:103E400060E085E090E00E94612460E086E090E020
:103E50000E9461246FEF87E090E00E94612440E0BF
:103E600050E0BA0188E090E00E94722460E08DE0AA
:103E700090E00E94612440E050E0BA0188E190E0C7
:103E80000E94722460E087E190E00E94612440E09B
:103E900050E0BA018CE190E00E94722470E060E092
:103EA00080E290E00E947E2440E050E0BA0188E188
:103EB00090E00E9472240C94F71E0C94FE1E682F52
:103EC0008EE090E00C9461249C012E5F3F4FAC018A
:103ED000485F5F4F80E02417350709F40895F90122
:103EE00091919F019923B9F38F5FF5CF662349F034
:103EF000FC01329608962191261729F0E817F90758
:103F0000D1F780E0089581E008959C01FC0132968C
:103F10009FEF80E04191461751F09F3F19F4411106
:103F200001C0982F8F5F8630A9F79F3F09F408954D
:103F3000290F311D97FD3A95F90162830895FC011F
:103F4000329608962191261303C0DF0111971C9227
:103F5000E817F907B9F708950C94851F0C949F1F73
:103F6000029626E0FC0111922A95E9F7089508953A
:103F700008950C94B81F8091A101882341F00E94FC
:103F8000B91F80E00E94E70D80E00C946D06089553
:103F90000895CF930E94B71F0E942C090E94C81F4A
:103FA000C0E08C2F0E94B508892B31F4CF5FC5305B
:103FB000C1F780E0CF91089581E0FCCF08950C9483
:103FC000DE1F0E9453180E94B30C0E94C3130E946C
:103FD0006D060C94DF1F8BE083BF8AEF8CBF82E0FD
:103FE00089BF08952FB7F89480916C0290916D026B
:103FF000A0916E02B0916F022FBF08952FB7F89471
:1040000060916C0270916D0280916E0290916F02CE
:104010002FBF08959C014FB7F89480916C02909146
:104020006D02A0916E02B0916F024FBF821B930B85
:10403000089578941F921FB61F9211248F939F9317
:10404000AF93BF9380916C0290916D02A0916E022C
:10405000B0916F020196A11DB11D80936C029093E7
:104060006D02A0936E02B0936F02BF91AF919F91CA
:104070008F911F901FBE1F90189560E081E090E027
:104080000E94842487E090EBDC018093C00290932F
:10409000C102A093C202B093C30288E19CE00FB6B4
:1040A000F894A89581BD0FBE91BDFFCF9093EF000E
:1040B0008093EE0008950E94F21FEC010E943514D7
:1040C0000E94B7238B9A80E0815009F047C08B98FB
:1040D00078940E9449140E94AE210E94BE13FFEF03
:1040E00020E732E0F15020403040E1F700C000000E
:1040F00001E01CE0809197028823C1F110929702A1
:104100000E94F21FEC018091A101882321F01092FE
:10411000A1010E94E11F8091A1018823A9F10E94C1
:10412000BB1F0E94C91F882329F3F89491B3939A67
:10413000892F8C6081BB82B3812782BB8FE7E8E344
:10414000F1E08150E040F040E1F700C0000082B3B0
:10415000812782BB91BB93987894CCCFA895EFE947
:10416000FFE03197F1F700C00000AECF8091A101D0
:104170008111D1CFCE010E940A20069760F20093F0
:10418000A1010E94BB1FC7CF0E94C72280919D0240
:10419000882329F080917B0284FD0E9453140E94A1
:1041A0001B210E94C72280919D02882329F08091C3
:1041B000B40284FD0E94A2210E9445149BCF8091ED
:1041C00054020895CF93DF9300D00F92CDB7DEB79E
:1041D0009091A401981307C02091A2013091A301EE
:1041E0002617370791F08093A4017093A301609381
:1041F000A20189837B836A838091B40284FF05C016
:1042000063E0CE0101960E94BF220F900F900F90A5
:10421000DF91CF910895BC0184E00C94E220BC01B1
:1042200083E00C94E2202091B40224FF03C066E0F6
:104230000C94BF220895CF93DF93CAE0D0E0809121
:104240007B0284FF1AC08091D1019091D20198170E
:1042500089F028E0829FC001112468E08D529E4FB2
:104260000E94BB228091D10190E001968F70992726
:104270008093D101DF91CF9108950E94C7228FE9E9
:104280009FE00197F1F700C000002197C1F6F2CF3F
:10429000CF93DF93EC01A091D201B0E0CD01019664
:1042A0008F7099272091D101281779F093E0AA0FF8
:1042B000BB1F9A95E1F7AD52BE4F98E0FE01019009
:1042C0000D929A95E1F78093D2010E94C7220E9435
:1042D0001B2188E0FE01A9ECB1E001900D928A95C6
:1042E000E1F7DF91CF9108950F931F93CF93DF9361
:1042F000EC01603211F58C01005E1F4F02C00E947C
:10430000C7228091870284FFFACF68E0CE010E9425
:10431000C3222896C017D107A1F78091870284FF96
:1043200009C060E090E080E0DF91CF911F910F9194
:104330000C94C3220E94C722F0CFDF91CF911F912E
:104340000F9108958091A801803239F460E289EAE2
:1043500091E00E94610F1092A80108958BE690E011
:104360000895FC01808180768032F1F48181813072
:1043700061F484819581892BB9F489EC91E0909363
:1043800099028093980288E00895823041F483E591
:1043900092E0909399028093980281E008958A3088
:1043A00029F483818093530280E008958930E1F7F6
:1043B000828193818115924069F484819581892B52
:1043C00049F481E08093A701868197819093A601AB
:1043D0008093A5018FEF0895FC018091A501909134
:1043E000A601892B61F08091A701813041F4908171
:1043F000909354021092A6011092A50108958FEF98
:104400000895683019F01092A80108952091A8012C
:104410002931C8F7FC01A22FB0E0A755BE4F08967E
:1044200031913D93E817F907D9F7285F2093A80148
:104430000895FC018381833089F130F48130F1F0FB
:10444000823021F180E00895813209F446C0823241
:10445000C9F7248135812130310509F45CC021156B
:10446000310509F450C02230310561F785EB94E045
:1044700090939902809398028BE7089587E394E0E4
:10448000909399028093980282E108958CED93E0D5
:1044900090939902809398028BE5089582818130F0
:1044A000A1F0882351F0823069F689E494E090937A
:1044B00099028093980280E208958FE894E09093A7
:1044C00099028093980284E008958BE694E090939B
:1044D00099028093980282E208958281813081F06E
:1044E000882331F0823009F0ADCF87E294E002C03A
:1044F0008EEE93E0909399028093980289E008955C
:1045000087E094E0F7CF80E395E090939902809361
:10451000980280E4089523E934E0309399022093CF
:10452000980208951F93CF93DF93E82F792F162FCA
:10453000EA01888184FF1CC0298188E82827298313
:10454000CE010296DC012E2F372F512F5E0FF9017D
:1045500021912D939F01452F4E1B1416C4F3612FFB
:104560000E9413031C5F1883DF91CF911F91089560
:104570008AE58883E5CF4BE752E00C94922244EB26
:1045800052E00C94922247E852E00C949222CF938E
:10459000DF9360919A02635067FD12C0809196028A
:1045A000CCE0D0E0C81BD109C256DD4F8091950206
:1045B000803108F054C0CE010E94012210929A026C
:1045C0008091760084FF3EC0809175008F3FD1F1CD
:1045D000C82F893008F0C8E0982F9C1B9093750075
:1045E0009091700228E89227909370028823E9F056
:1045F00080919802909199022091940226FFAEC07A
:10460000FC012C2FA1E7B2E034913D93319621506B
:10461000D9F79C012F5F3F4F8FEF8C0F820F932FA5
:10462000911D90939902809398026C2F81E792E0FC
:104630000E941303CC5FCC3019F08FEF809375008C
:10464000C093760084E190B39C7031F48150D9F727
:1046500010929B0210929302DF91CF9108958D32B8
:1046600009F069C0683009F0A9CF83EC809370022B
:104670008AE580937600109294028881807671F0AA
:10468000CE010E94B1218F3FC1F4988197FD8E81A8
:1046900090E8909394028093750090CF2A811092B5
:1046A00079029981911111C010927A0229E732E0C2
:1046B00082E030939902209398029F819111EBCF71
:1046C0009E81981740F7892FE6CF953029F42093E3
:1046D0009B0229E732E0EDCF963099F49B8191302F
:1046E00021F4CE010E94192208C09230D1F39330F8
:1046F000C1F39132B1F39232A1F390E4909394021A
:10470000C2CF983089F0993019F420939D02E1CFFF
:104710009A3071F09B30E9F69BE490937C02909381
:10472000B50290938802D5CF2DE932E081E0C1CF68
:1047300029E732E0FBCF8091940287FF3FCFCE0183
:104740000E94EC218F3F21F48EE18093760036CFDA
:10475000882309F433CF1092750030CFDC012C2F61
:10476000E1E7F2E03D9131932150E1F752CFCF9351
:10477000DF9385B7886085BF8BB780688BBFCBE739
:10478000D2E08BE48983A4EBB2E011968C9311976D
:10479000E7E8F2E081838AE588838C938083DF9168
:1047A000CF910895DB018F939F930E944824BF917E
:1047B000AF91A29F800D911DA39F900DB29F900D70
:1047C00011240895AA1BBB1B51E107C0AA1FBB1FE0
:1047D000A617B70710F0A61BB70B881F991F5A958D
:1047E000A9F780959095BC01CD01089597FB072E00
:1047F00016F4009407D077FD09D00E94E22307FC4D
:1048000005D03EF4909581959F4F089570956195E0
:104810007F4F0895A1E21A2EAA1BBB1BFD010DC0FC
:10482000AA1FBB1FEE1FFF1FA217B307E407F50760
:1048300020F0A21BB30BE40BF50B661F771F881F3C
:10484000991F1A9469F760957095809590959B01D2
:10485000AC01BD01CF010895EE0FFF1F0590F4914B
:10486000E02D0994692796276927782787277827D5
:104870000895A29FB001B39FC001A39F700D811D39
:104880001124911DB29F700D811D1124911D089559
:104890000E943924A59F900DB49F900DA49F800D78
:1048A000911D11240895E199FECF9FBB8EBBE09A24
:1048B00099278DB30895A8E1B0E042E050E00C9450
:1048C0009324262FE199FECF9FBB8EBBE09A0197E0
:1048D0000DB2021631F02DBB0FB6F894E29AE19AB0
:1048E0000FBE08950396272F0E9462240E94612420
:1048F000252F0E946224242F0C9462240196272FD6
:104900000E9462240C946124262FE199FECF9FBB64
:104910008EBB2DBB0FB6F894E29AE19A0FBE0196BA
:104920000895DC01CB01FC01E199FECF06C0FFBB7D
:10493000EEBBE09A31960DB20D9241505040B8F75F
:104940000895F894FFCF8D0D920D940D970D9A0D4B
:104950009D0DA00D750F820FA90FB50FC00FCB0FC6
:10496000CE0FD10FD40F1D101D10D70FDB0FE30F8B
:10497000F00FFD0F0010031010101C161C167416FB
:104980007416C616E21649164916ED1679178817D9
:104990008817E41749164916ED17621862186B1844
:1049A0006B186D186B186B186B18621862187218F8
:1049B0006B186B1872182808641E140A321E0695AC
:1049C00001DF20482113210F210B21FF5AE200E9CA
:1049D00000EA00B500B600B700CD008301CC008A24
:1049E00001920194012102230224022502260227BA
:1049F000022A02B300B4006F0070008182836261FA
:104A0000606364650001050607303332319091928E
:104A10009394E200E900EA00B500B600B700CD00CB
:104A20008301CC008A019201940121022302240215
:104A30002502260227022A02B300B4006F0070008C
:104A400081828300FFFFFFFFFFFFFFFFFFFFFFFFEC
:104A5000FFFFFFFFFFFFFFFFFFFFFFFFFFFFFFFF66
:104A6000FFFFFFFFFFFFFFFFFFFFFFFFFFFFFFFF56
:104A7000FFFFFFFFFFFFFFFFFFFFFFFFFFFFFFFF46
:104A8000FFFFFFFFFFFFFFFFFFFFFFFFFFFFFFFF36
:1070000067C000009AC000007EC000007CC0000085
:107010007AC0000078C0000076C0000074C0000094
:1070200072C0000070C000006EC000006CC00000A4
:107030006AC0000068C0000066C0000064C00000B4
:1070400062C0000060C000005EC000005CC00000C4
:107050005AC000000600FF0901A101150026FF002B
:107060007508850195060900B2020185029583091C
:1070700000B20201C00902220001010080320904AD
:10708000000001030000000921010100012221008C
:10709000070581030800C81201100100000008C0A4
:1070A00016DF0500010102000110034800490044F9
:1070B0000042006F006F00740012036F00620064F2
:1070C00000650076002E00610074000403090400CE
:1070D00011241FBECFE5D8E0DEBFCDBF10E0A0E693
:1070E000B0E0E2EDF6E702C005900D92AA36B107D6
:1070F000D9F720E0AAE6B0E001C01D92AA39B20794
:10710000E1F73FD1E4C27CCFA82FB92F80E090E017
:1071100041E050EA609530E009C02D9182279795B3
:10712000879510F084279527305EC8F36F5FA8F32A
:107130000895EADF8D939D930895CF93CFB7CF93B2
:10714000DF93C395839BE9F7839B0BC0839B09C0A7
:10715000839B07C0839B05C0839B03C0839B01C0A7
:107160008BC06F93C0917D00DD27CC57DF4F2F93ED
:1071700065E5839B03C02F916F91E6CF0F931F931B
:107180004F9320E040E15F9300B30C7003FB27F9BD
:107190003F9350E03BE039C01C7040642F77012FD3
:1071A0005F5F1EC0406810B31C702F7752501FC025
:1071B000406400B32F770C70D1F15F5F00C023C033
:1071C000406210B32F771C7091F15F5F00C025C043
:1071D0000C701027515012F45D5F0000115027957C
:1071E0002C3F10B3C8F61C700127015027952C3F87
:1071F000C8F64227499300B30C7010274F73115003
:1072000027952C3FA8F64695469510B31C7079F04B
:107210000127015027952C3F98F66B5A60F33150A7
:1072200000B3B0F600C010E41ABF002719C03B50ED
:107230003195C31BD04010E41ABF0881033C09F10B
:107240000B34F9F020917B001981110F1213EDCF4F
:107250004A81441F093651F10D3211F0013E29F7E0
:10726000009382003F915F914F911F910F912F9159
:107270006F91CAB7C6FD65CFDF91CF91CFBFCF91D8
:10728000189520918200222369F310918000112328
:1072900049F534304AF13093800020937C001091FE
:1072A0007D003BE0311B30937D001EC000918000CB
:1072B0000130C4F40AE54F70A9F43091680034FD40
:1072C00014C000936800C0E7D0E013C0052710E0A9
:1072D00000C0000002BB1AC0052710E0221F1DC01D
:1072E00010E021C04AE502C032ED432FC4E1D0E0F6
:1072F00032E011B31C60939A02B311BB5CE020E84A
:1073000065E320FF052702BB279517951C3FF0F684
:107310006695B8F7B1F720FF052702BB27951795AB
:107320001C3FD0F62795179517FF052700001C3F37
:1073300002BBB0F629913A9519F7037F10918100AD
:10734000110FC651D04002BB11F010937B0010E426
:107350001ABF086011B3137F402F437F54E05A9542
:10736000F1F702BB11BB42BB7DCF80916F00811151
:1073700005C0B29903C081E080936F0080916F00D7
:107380000895BA98C29AD09AD89885E38A95F1F769
:107390000000EBDF81110DC0F89481E1809357006C
:1073A000E8951BBE15BE81E08BBF1BBEF0E0E0E0A0
:1073B000099581E08BBF82E08BBF85B7836085BF75
:1073C0008BB780648BBF8B9A80E0A895EFE9FFE0D4
:1073D0003197F1F700C000008150B9F78B9878948D
:1073E00010E0D0E0A895409180003DEF340F37FDCC
:1073F00037C080917D00ACE0B0E0A81BB109AC576C
:10740000BF4F80917C008D3209F00BC1383031F5CF
:1074100083EC809370008AE58093680010926E0080
:107420002C91822F807611969C911197882309F4D4
:1074300083C0993009F06BC012968C9112978230FC
:1074400009F060C010926B008FEF27FF02C0169604
:107450008C9190E890936E0080936700109280006A
:107460008091680084FF37C0809167008F3F99F159
:10747000C82F893008F0C8E0982F9C1B90936700B4
:107480009091700028E89227909370008823B9F0BB
:1074900080917E0020917F0030916E009C2F980F8C
:1074A000E82FF22FA1E7B0E036FF0CC184918D9355
:1074B00031969E13FBCFF0937F00E0937E006C2FFC
:1074C00081E790E036DECC5FCC3019F08FEF80930F
:1074D0006700C093680084E190B39C7031F48150E0
:1074E000D9F71092810010927B0080916A00882366
:1074F00029F0D15019F4115009F44ECF36DF811123
:1075000071CF4ACF81E080936A0080E009C091305A
:10751000E1F780E690E090937F0080937E0087E023
:1075200017969C911797911197CF16969C91981743
:1075300008F092CF892F90CF12962C91129710922B
:10754000790091110AC010927A0029E730E082E0B8
:1075500030937F0020937E00E3CF953029F4209371
:10756000810029E730E0F4CF963009F049C0139646
:107570009C911397913041F487E990E790937F00B5
:1075800080937E0082E109C0923059F485E790E74C
:1075900090937F0080937E0082E290E490936E004F
:1075A000BFCF9330C9F4211108C08BEC90E79093C2
:1075B0007F0080937E0084E0F0CF213019F489EBC6
:1075C00090E7DCCF223049F789EA90E790937F007B
:1075D00080937E0080E1E1CF913241F487E890E72B
:1075E00090937F0080937E0089E0D7CF9232A9F6F6
:1075F00084E590E790937F0080937E0081E2CDCF79
:10760000983059F0993019F420938300AACF81E083
:107610009A3009F4A6CF80E0A4CF23E830E081E0DF
:1076200097CF80916E0087FF19CF80916C00909169
:107630006D0020916B00211109C011968C9111975A
:1076400012969C911297149639EF340F230F2093C2
:107650006B00AD01682F6F7751F1F894FA01E1905A
:10766000F190AF0161E0FC01070160935700E895DC
:1076700011247894BC016E5F7F4FCB01C62FCF776A
:1076800049F4F894C5E0C0935700E895789407B69C
:1076900000FCFDCFE32FEA0FE413DCCF70936D0005
:1076A00060936C0027FFDACE10926700D7CEF89473
:1076B00063E0FC0160935700E895789407B600FCFE
:1076C000FDCFCBCF81918D939E13FCCFF4CEF89458
:1076D000FFCF01800000800000FF5A00FFFFFFFF86
:1076E000FFFFFFFFFFFFFFFFFFFFFFFFFFFFFFFFAA
:1076F000FFFFFFFFFFFFFFFFFFFFFFFFFFFFFFFF9A
:10770000FFFFFFFFFFFFFFFFFFFFFFFFFFFFFFFF89
:10771000FFFFFFFFFFFFFFFFFFFFFFFFFFFFFFFF79
:00000001FF
