:100000000C9492030C94D9030C94D9030C94D90347
:100010000C94D9030C94D9030C94D9030C94D903F0
:100020000C94D9030C94D9030C946A230C943E24A9
:100030000C941E1B0C94D9030C94D9030C94D90373
:100040000C94D9030C94D9030C94D9030C94D903C0
:100050000C94D9030C94751B0C94D9030C94D903FC
:100060000C94D9030C94D9030C94D9030C94D903A0
:100070000C94D9030C94D9030C94D9030C94D90390
:100080000C94D9030C94D9030C94D9030C94D90380
:100090000C94D9030C94D9030C94D9030C94D90370
:1000A0000C94D9030C94D9030C94D90329001E0095
:1000B0001F0020002100220023002400250026002C
:1000C00027002D002E002A002B0014001A00080023
:1000D000150017001C0018000C00120013002F0060
:1000E00030003100394104001600070009000A0001
:1000F0000B000D000E000F00330034004C002800F0
:10010000E10000001D001B000600190005001100A1
:100110001000360037003800E1001150E000E30025
:10012000E2000000000000002C00000000000000C1
:10013000E200E3007600E0000100010001000100A0
:1001400001000100010001000100010001000100A7
:100150000100010001000100010001000100010097
:100160000100010001005F0060006100010001006A
:100170000100010001000100010001000100010077
:1001800001005C005D005E000100580001000000FD
:1001900001000100010001000100010001006200F6
:1001A00059005A005B00010001000100010000003D
:1001B000000000000100000000000000010001003C
:1001C0000100010001000100010001000100010027
:1001D0000100010001000100010001000100010017
:1001E0000100010001000100010001000100010007
:1001F00001000100010001000100010001000100F7
:1002000001000100010001000100010001000100E6
:1002100001000100010001000100000001000100D7
:1002200001000100010001000100010001000100C6
:1002300001000100010001000100000000000000B9
:1002400001000000000000000100010001000100A9
:100250000100010001000100010001000100010096
:100260000100010001000100010001000100010086
:100270000100010001000100010001000100010076
:100280000100010001000100010001000100010066
:100290000100010001000100010001000100010056
:1002A0000100010001000000010001000100010047
:1002B0000100010001000100010001000100010036
:1002C000010001000100000000000000010000002A
:1002D000000000000100010001000100000000001A
:1002E000000000002A2B2800000000000000000091
:1002F0000000000000000029000000002C1E342037
:10030000212224342627252E362D3738271E1F205C
:100310002122232425263333362E37381F040506A1
:100320000708090A0B0C0D0E0F10111213141516E5
:100330001718191A1B1C1D2F3130232D35040506E3
:100340000708090A0B0C0D0E0F10111213141516C5
:100350001718191A1B1C1D2F3130354C00000000D6
:10036000000000000000000000000000000000008D
:100370007E0F00D4FFFFFFC700000078FD377A58DA
:100380005A000004E6D6B44602002101160000001F
:10039000742FE5A3E0052C01AD5D003D8889C654AE
:1003A00036C3174FE4DCCAC58F08012992B8E2753D
:1003B0001CEB305536A47081D24B53CA82563D7D1A
:1003C0002B604CB791CAF76DD1EB062E57DEC913DF
:1003D0005917587367B0B0F6028ABC8A442C25A31B
:1003E0008CA20231A6AB083CCEDA7D9E94C9D1F531
:1003F000A951319C2BF400DD65CB7ADF0D71209D76
:10040000290ABC0862CD8234CF30789909960689D2
:100410004B8124564BE9AC9ED19823ED3C5AE1FC2C
:1004200071C191F5D886769042F573C6050B62ECE2
:10043000D939E8FAB1E4AD25ED5DAAB10173DB4726
:1004400036035B5A96060CA2697FCA3908352F60BD
:10045000C3EE4429A0E5115BC86DC2DFA66871E553
:10046000DECEC2D3B1FBC2D11585D187CE0DB293FA
:100470006671612751CA61580F0148F364EC703D01
:100480006E4808FAB9CF6642858E6E9AE15347BD31
:100490000214825BEDF62F895195358DF450F34BA4
:1004A0001FEB17025319606C70A47F6FE5A6492AF1
:1004B000D0139274D57CFEDF72DAAD660F662CEF36
:1004C0008F88E9B7D7793FA2081654585BCFF5C09B
:1004D000E858162E98E8A911D7C9F0CF28D5829BE5
:1004E000786C482B32BBDEF43054114FA3BB710F34
:1004F0002CB3AC031FF30A3530C5424F74B1C34768
:10050000E0797A6393A44A8063DE4A37698FFADF21
:10051000698299A1AB5EC7E5C3B62626CF994AB7D3
:10052000EC3B2EAA83A886D782CC709F9AFE77AC2C
:100530004065CEBAEEB6DE577C7D6631EE86AE3CC7
:10054000C11C4FBD6F3C602700000000C7DCB4C277
:10055000F7C3E01C0001C903AD0A00007FA58400B9
:10056000B1C467FB020000000004595A1C03760066
:10057000690061006C003A006600360034006300D8
:1005800032006200330063000000200343006F006C
:100590006D006D006F006E003600300020005200CC
:1005A000650076002E0020003100000022034D007F
:1005B0006500630068006C006F00760069006E00E3
:1005C0002000530074007500640069006F00000093
:1005D0000403090409025B00030100A0FA090400F6
:1005E000000103010100092111010001224000075F
:1005F00005810308000A0904010002030000000944
:1006000021110100012222000705820320000107B9
:100610000503032000010904020001030000000992
:1006200021110100012281000705840320000A1224
:10063000011001000000084C4D00060100010203FA
:10064000010660FF0961A1010962150026FF0095FE
:1006500020750881020963150026FF0095207508A2
:100660009102C005010902A10185020901A100054D
:1006700009190129051500250195057501810295C6
:1006800001750381010501093009311581257F9527
:10069000027508810609381581257F950175088145
:1006A00006050C0A38021581257F9501750881061B
:1006B000C0C005010980A101850319012AB70015F1
:1006C0000126B700950175108100C0050C0901A134
:1006D00001850419012AA002150126A002950175C1
:1006E000108100C005010906A101050719E029E7ED
:1006F0001500250195087501810295017508810194
:100700000507190029FF150026FF009506750881C9
:1007100000050819012905950575019102950175D6
:10072000039101C011241FBECFEFDAE0DEBFCDBFC1
:1007300004B603FE27C080917D0290917E02A091B5
:100740007F02B09180028730904BA740B04BD1F42C
:1007500010927D0210927E0210927F02109280020F
:1007600014BE84B7877F84BF0FB6F894A895809194
:100770006000886180936000109260000FBEE0E02E
:10078000F8E3099511E0A0E0B1E0ECE4FDE402C07B
:1007900005900D92A23AB107D9F722E0A2EAB1E0A2
:1007A00001C01D92AD37B207E1F70E942F200C94D3
:1007B00077260C94000081E0089581E008950C9460
:1007C000DD0308950C94E1031F93CF93DF9300D0D2
:1007D00000D00F92CDB7DEB749835A836B83309137
:1007E000C20189819A8131111DC06623B9F022238B
:1007F000A9F00E949518182F682F89819A810E946C
:10080000411869817A81812F0F900F900F900F907E
:100810000F90DF91CF911F910C94670C0E946D187F
:10082000182FEFCF0E94951869817A81EDCFFC01D6
:10083000262F408151816281738184810C94E4036D
:10084000CF93DF93EC0160E00E941704BE01DF91BB
:10085000CF910C94E203FF920F931F93CF93DF93FA
:10086000E82FF0E0E452FD4FF490C82FC695C695EE
:10087000C695D0E0FE01E459FC4F0491877010E06A
:10088000082E02C0159507950A94E2F7017011270A
:10089000C45ADC4FFE01C491D0E002C0D595C79583
:1008A0008A95E2F7C170DD270115110519F081EE77
:1008B0000E94B610209719F086EE0E94B6108F2D78
:1008C0000E949E11CD2B19F086EE0E944811012B3B
:1008D00041F081EEDF91CF911F910F91FF900C9429
:1008E0004811DF91CF911F910F91FF900895EF92E2
:1008F000FF920F931F93CF93DF93EC01162F0AE023
:100900008881882309F454C0813009F04EC0898160
:10091000813099F47E0122E0E20EF11C8A810E946E
:100920009E11E7012196812F815050F3EFE9FFE0FE
:100930003197F1F700C00000F7CF823041F47E011B
:1009400082E0E80EF11C8A810E94B610EACF833063
:1009500041F47E01E2E0EE0EF11C8A810E94481112
:10096000E0CF843011F02196DDCF2A81229690E0ED
:1009700080E0AE014F5F5F4F2053330B2A303105CB
:1009800048F0019778F2EFE9FFE03197F1F700C006
:100990000000F7CF089FB001099F700D1124C90115
:1009A000860F971F2981EA01E4CF0E942B04BACF5A
:1009B000DF91CF911F910F91FF90EF90089560E02C
:1009C0000C9477048F929F92AF92BF92CF92DF9256
:1009D000EF92FF920F931F936B017C0181E090E0F7
:1009E000A0E0B0E04C015D0104C0880C991CAA1C79
:1009F000BB1C4A95D2F7B501A4014C015D0104C0AE
:100A0000880C991CAA1CBB1C2A95D2F74829592985
:100A10006A297B2904C0880F991FAA1FBB1F0A954A
:100A2000D2F78A019B010C211D212E213F210417A1
:100A300015072607370789F48C299D29AE29BF2978
:100A4000BC01CD011F910F91FF90EF90DF90CF90EF
:100A5000BF90AF909F908F90089580959095A095AE
:100A6000B0958C219D21AE21BF21EACF0F93382F65
:100A7000262F609128027091290280912A0290917C
:100A80002B02042F432F0E94E2040F910C947F1736
:100A90000E94BF1B0E94D219811102C00E946F1ACE
:100AA0000C9491070C94940708950C94540581E0DC
:100AB00008950C945705CF93C82F0E9455058C2F8D
:100AC000CF910C94590508958091AB019091AC01A0
:100AD000892B79F00E9420140E9463052FEF84E394
:100AE0009CE0215080409040E1F700C000000C9451
:100AF000991B08950F931F93CF93DF93EC0161E04F
:100B00000E9417048C01BE010E943A09882359F102
:100B1000BE01C8010E94DF03882329F1BE01C8017C
:100B20000E94C30D8823F9F0BE01C8010E94150E72
:100B30008823C9F0BE01C8010E94380F882399F0AC
:100B40008A81882339F001158CE5180751F00E3D94
:100B50001C4579F0CE01DF91CF911F910F910C943C
:100B6000DB030E94640580E0DF91CF911F910F911C
:100B700008950E946F1AF7CFCF93DF930E94670CFE
:100B80000E94B606EC01811521E5920708F042C0EB
:100B9000811530E5930708F09DC0883E910530F53A
:100BA000803E910508F092C0883A910588F4853A14
:100BB000910508F084C08130910509F487C0009741
:100BC00009F484C0049708F081C0D0E0C0E07EC082
:100BD0008F3B9105D0F7C85AD0E0CC0FDD1FC35E24
:100BE000DE4F0990D881C02DD46470C08115904229
:100BF00050F4C11581E0D80708F068C0C03FD105A6
:100C000020F3D06563C0C11590E4D907F0F2DF701E
:100C1000D06A5CC0811525E5920700F5811534E5A1
:100C2000930708F08BC0811543E5940708F073C063
:100C3000C11582E5D80708F469C0CE0183709927F1
:100C400021E030E002C0220F331F8A95E2F7C695FB
:100C5000C69580E2C89FE001112454C0C11599E5F2
:100C6000D907A8F4C11528E5D20708F06CC0C11552
:100C700036E5D30708F0A9CF8C2F0E944D07C82F67
:100C8000D0E0DC2FCC27CC27DF71D0621FC0C1158C
:100C90004AE5D40708F45CC0CE0190568115904215
:100CA00008F093CF8D2F8F710E944D0790E0982F01
:100CB000882788279F719C012C2BE901E6CFC55A14
:100CC000D0E0C55BDE4FC881D0E0D064CE01DF91BB
:100CD000CF910895E4E096958795EA95E1F78370C2
:100CE0002C2F26952695237040E2249F90011124F5
:100CF000382B8C2F8370C1E0D0E002C0CC0FDD1FF9
:100D00008A95E2F7C22BD32BDC68E0CFDC2FCC270F
:100D1000C16FD06ADBCF8370992721E030E002C039
:100D2000220F331F8A95E2F7C695C69590E2C99FB8
:100D3000E0011124C22BD32BDA68C8CFD82FCC27DF
:100D4000C46FD06AC3CFDC2FCC27C06FD06ABECFB0
:100D50008C2F8F700E944D0734E0D695C7953A9539
:100D6000E1F7CF709C2FEC01D069B0CF82389105AC
:100D7000B1F1B0F48133910509F475C048F48932BA
:100D8000910509F469C08A32910509F473C0089588
:100D90008533910509F459C08933910501F108950E
:100DA000833E9105A9F138F4803E9105F9F0823E29
:100DB000910549F10895863E9105A9F1873E910577
:100DC000C9F1843E910519F520916F0221FF1FC0E2
:100DD00080916E0284FD14C087EE90E0089520910A
:100DE0006E022370A1F080EE90E0089520916E02D3
:100DF00020FD47C030916F0230FF09C024FF44C07E
:100E000090E080E004C020916E0222FDF7CF0895AB
:100E100020916E0222FD3BC030916F0230FDE3CF86
:100E200024FFF5CFEDCF20916E0223FFF0CF24FDFC
:100E3000E7CFD2CF20916E0223FD2CC030916F02FC
:100E400031FFEECF84EE90E0089520916E0225FFF1
:100E5000DECF89E290E0089520916E0225FFD7CF82
:100E600085E390E0089520916E0226FFD0CF8AE2BC
:100E700090E0089520916E0226FFC9CF81E390E0B3
:100E8000089589E390E0089583EE90E0089582EE5E
:100E900090E0089586EE90E0089590916E0292FFA2
:100EA00006C0282F28712830F9F4877F846093FFCB
:100EB00006C0282F28712831F1F4877E84612091A3
:100EC0006F0220FF06C0382F38713830D9F4877F81
:100ED000816021FF06C0282F28712831D1F4877E38
:100EE000816194FD877E0895282F24712430F9F6BE
:100EF0008B7F8860DCCF282F2471243101F78B7E13
:100F00008861DDCF382F3171313019F78E7F8860DD
:100F1000E0CF282F2171213121F78E7E8861E1CF2A
:100F200008950C94900708950C949307E82FF0E02F
:100F3000EE0FFF1FE05AFD4F21E030E002C0220F0C
:100F4000331F6A95E2F7808191812823392381E05C
:100F5000232B09F480E00895E82FF0E0EE0FFF1F47
:100F6000E05AFD4F808191810895089580EA8A9525
:100F7000F1F70895CF93DF93ACE5B1E041E651E09E
:100F8000C1E0D0E08D91E82FE295EF70F0E061A133
:100F90008F709E0101C0220F8A95EAF7922F9095DB
:100FA000962391A382A1822B82A34A175B0751F754
:100FB000AEE4B1E061E070E08D91E82FE295EF7072
:100FC000F0E041A18F709B0101C0220F8A95EAF7E2
:100FD000922F9095942391A382A1822B82A381E0EA
:100FE000AC35B80749F7109257021092560210928A
:100FF00061021092600210925902109258021092EF
:1010000063021092620210925B0210925A021092D6
:1010100065021092640210925D0210925C021092BE
:1010200067021092660210925F0210925E021092A6
:1010300069021092680285E00E94A908DF91CF91B1
:101040000C9448058F929F92AF92BF92CF92DF92FD
:10105000EF92FF920F931F93CF93DF938CE5E82ECF
:1010600081E0F82E06E512E0912CAA24A394B12C7D
:10107000F70181917F01C82FC295CF70D0E099A16F
:101080008F70650101C0CC0C8A95EAF7892F8C29F5
:1010900089A38AA18C2C809488218AA30E94B607F8
:1010A000EEE4F1E050E040E030E020E06191A62F76
:1010B000A295AF70B0E090968C9190E06F7002C0F6
:1010C000959587956A95E2F780FD3EC0C501042E8F
:1010D00002C0880F991F0A94E2F7282B392B4F5F23
:1010E0005F4F4E30510511F789A1882289A28AA14C
:1010F000C82ACAA2F801808191812817390739F1DD
:101100003183208381E0982A0E5F1F4FF1E6EF16AE
:10111000F1E0FF0609F0ACCF292D45E060E672E072
:1011200086E592E00E94AA080E945205892DDF916F
:10113000CF911F910F91FF90EF90DF90CF90BF90D4
:10114000AF909F908F90089590E080E0C6CF80E0B0
:10115000DACF0895FF920F931F93CF93DF93F82E6A
:10116000092F162FD72FC42F222349F081E0809317
:10117000A4010E944E1B9093A3018093A201809131
:10118000A4018823A1F08091A2019091A3010E9463
:10119000661B069760F0EF2DF02FA12FBD2F90E07A
:1011A00080E0D0E08C179D0744F01092A401DF91FD
:1011B000CF911F910F91FF900895219131912D931F
:1011C0003D930196EFCF82E290E00E943526813276
:1011D00089F483E290E00E943526893759F484E24D
:1011E00090E00E94352691E08E3609F090E0892F3C
:1011F0008170089580E0FCCFCF93C82F6FEF8111ED
:1012000061E282E290E00E9443266FEFC11169E73C
:1012100083E290E00E9443266FEFC1116EE684E204
:1012200090E0CF910C94432680E00E94FC080C943F
:10123000CC19089585E290E00E943526682F70E071
:1012400090E080E0089585E290E00C9443260E94AF
:1012500019090E94E30881110CC060E070E0CB0125
:101260000E9423090E94DF0B0E94D10C81E00C94A4
:10127000FC080895CF93FB01C281CC2309F19C01A6
:1012800022513F452031310520F582510E94E10C69
:10129000C0E08C2FCF91089581E00E94A51743E014
:1012A00062E081E00E943605F3CF81E00E94C6171C
:1012B00043E062E081E00E943605EBCF82E0F6CFAA
:1012C0008031FFE59F0789F381319F45B9F3C1E084
:1012D000E0CF8031EFE59E07F9F281319F45C9F6F5
:1012E00082E0DBCF2FEFFC01208308951F93CF9383
:1012F000DF93EC01162F88812091A9013091AA017A
:10130000232B79F08E3F09F06CC08981833020F067
:101310008550833008F065C0612FCE010E947D0AA0
:1013200060C08C3009F4A1C070F5843009F484C029
:1013300058F4823009F45CC008F072C0813009F4BE
:101340004DC08FEF88834DC0863009F48BC008F400
:101350007EC08A3009F4CEC08B3099F78091AB0102
:101360009091AC01892BE9F1CE010E94231F2FEF50
:1013700081EE94E0215080409040E1F700C00000F1
:101380000E94991B2EC0803109F48CC0D8F48E3095
:1013900009F477C008F46DC08091AB019091AC0165
:1013A000892BF9F06B8170E06D317105D0F4898182
:1013B0009A81AE014C5F5F4F9827892798270E943A
:1013C000A60C0FC0823109F473C008F46EC08331DB
:1013D00009F47FC08E3F09F0B4CF9ECF198289E017
:1013E0008A83612FCE01DF91CF911F910C94231F2F
:1013F0008981823069F08330A1F3813061F40E94E9
:101400005A1B0E940A266A837B838C839D83E9CFC3
:101410000E941A09F6CF612FCE010E947209E1CF16
:1014200089818230C1F76A817B818C819D810E9494
:101430000A260E942309D5CF4B816A8189810E94A7
:101440009D0B9827892798279D838C83CACF2C8151
:101450003D813227232732274B816A8189810E946F
:10146000BF0BBFCF0E94DF0BBCCF0E947A0C8983D9
:10147000B8CF0E947C0C9827892798279A83898364
:10148000B0CF6B8170E06D31710508F0AACF898112
:101490009A81AE014C5F5F4F9827892798270E9459
:1014A0007F0C9FCF0E94D10C9CCF0E948B0BDFCF73
:1014B0006B8170E06D31710508F093CF89819A815D
:1014C000AE014C5F5F4F9827892798270E94170C21
:1014D00088CF6B8170E06D31710508F082CF898112
:1014E0009A81AE014C5F5F4F9827892798270E9409
:1014F0003D0C77CF0E94140974CFEF92FF920F93A7
:101500001F93CF93DF93CDB7DEB728970FB6F8942C
:10151000DEBF0FBECDBF8C01603211F5DC0111962C
:10152000EC911197E930E0F4F0E0E758F94D0C94B4
:10153000042688E0E5E1F1E0DE01119601900D92CC
:101540008A95E1F7F801108211821282138288E0F5
:10155000FE013196D801149601900D928A95E1F71B
:1015600028960FB6F894DEBF0FBECDBFDF91CF91A6
:101570001F910F91FF90EF90089580EF8C9381E081
:1015800011968C93119712961C92129713961C9297
:10159000E7CFFC018381682F70E0762F6627828178
:1015A000860F972F911D092E000CAA0BBB0B25E06F
:1015B000880F991FAA1FBB1F2A95D1F7AC01BD0147
:1015C000405E5F4F6F4F7F4F481759076A077B0791
:1015D00038F2803FF1E09F07A105B10508F6413FD1
:1015E00021E052076105710520F040EF51E060E015
:1015F00070E0481B590BBC0164587C4FC801289609
:101600000FB6F894DEBF0FBECDBFDF91CF911F9113
:101610000F91FF90EF900C94252640E250E06FEF81
:1016200070E00E942E268091AB01D8018C938091AE
:10163000A90111968C93119712961C92129782E031
:1016400013968C93139714961C92149715961C92CC
:1016500087CF81E090E09093AA018093A90182E373
:1016600090E09093A8018093A7010E944E1B909355
:10167000A6018093A50174CF8091A9019091AA0140
:10168000892B91F162E080E00E949607E82E60E0ED
:1016900080E00E949607F82E8091A5019091A60106
:1016A0000E94661B8536910550F1EE2041F1FF2026
:1016B00031F10E944E1B9093A6018093A501809169
:1016C000A7019091A80101979093A8018093A70189
:1016D000892B51F41092AA011092A90181E090E0A7
:1016E0009093AC018093AB018091AB01F8018083B2
:1016F0008091A90181838091A701828331CF82E308
:1017000090E09093A8018093A701EECF1092AC01D6
:101710001092AB0125CF84E0089550E0440F551F8F
:101720009CE1699F400D511D11249CE8899F400D4B
:10173000511D1124CA01869608950F931F93CF93CC
:10174000DF938430C8F46530B8F44E30A8F40E94BA
:101750008D0B8C010E943526C82FD0E0DC2FCC27C2
:10176000C80101960E9435269E01282BC901DF91F0
:10177000CF911F910F91089590E080E0F8CF0F93E3
:101780001F93CF93DF93122F032F843098F465308B
:1017900088F44E3078F40E948D0BEC01602F0E948B
:1017A0004326612FCE010196DF91CF911F910F91BA
:1017B0000C944326DF91CF911F910F910895AF9222
:1017C000BF92CF92DF92EF92FF921F93CF93DF935E
:1017D0008CEAC82E80E0D82ED0E07601C0E014C09C
:1017E000F50125913491412F6C2F8D2F0E94BF0B55
:1017F00082E0A80EB11C1F5F1E3091F78CE1E80E4D
:10180000F11CCF5FC53019F0570110E0E9CFDF5F61
:101810008CE8C80ED11CD43001F7DF91CF911F9115
:10182000FF90EF90DF90CF90BF90AF900895EF9230
:10183000FF920F931F93CF93DF93EC018A017C01FA
:10184000E60EF71ECE018696CE15DF0539F4DF9140
:10185000CF911F910F91FF90EF900895C03322E038
:10186000D20740F40E943526F80180830F5F1F4F96
:101870002196E8CFF8011082F9CFCF92DF92EF9254
:10188000FF920F931F93CF93DF937C016A018C012A
:10189000060F171FEC01CE018696C017D10749F439
:1018A000DF91CF911F910F91FF90EF90DF90CF903C
:1018B0000895C03322E0D20740F4FE01EE19FF097B
:1018C000EC0DFD1D60810E9443262196E4CF462F3A
:1018D0002091A9013091AA01232B49F4843038F4D6
:1018E000753028F46E3018F4672F0C949D0B90E03F
:1018F00080E0089580E108958AEA91E00895EF92EA
:10190000FF920F931F93CF93DF93EC018A017C0129
:10191000E60EF71ECE018A5A9D4FCE15DF0539F42B
:10192000DF91CF911F910F91FF90EF900895CA3AE8
:1019300021E0D20740F40E943526F80180830F5F32
:101940001F4F2196E7CFF8011082F9CFCF92DF9297
:10195000EF92FF920F931F93CF93DF937C016A0165
:101960008C01060F171FEC01CE018A5A9D4FC0173C
:10197000D10749F4DF91CF911F910F91FF90EF9024
:10198000DF90CF900895CA3A21E0D20740F4FE01DB
:10199000EE19FF09EC0DFD1D60810E944326219682
:1019A000E3CFCF93DF93C6E5D2E060E0CE010E94A3
:1019B00043262196C11584E0D807B9F7DF91CF916E
:1019C0000895DF92EF92FF920F931F93CF93DF93CF
:1019D00000D000D0CDB7DEB7F82E8FE08F1540F0E5
:1019E0008FEF93E00E94352606E512E08823C1F0D0
:1019F0000F900F900F900F90DF91CF911F910F914B
:101A0000FF90EF90DF900895011584E0180781F3AF
:101A1000C8010E943526811101C0FA940F5F1F4F43
:101A2000F110F2CF19821A821B821C82DD24D3941A
:101A300078018FEFE81AF80AC8010E9435268983D9
:101A40001A828823A9F29FEF980F933078F48A8343
:101A5000D9820E5F1F4FC7010E9435268B838823D2
:101A600039F2CE0101960E94DF04E2CF8701F9CF5F
:101A7000AF92BF92CF92DF92EF92FF920F931F939C
:101A8000CF93DF937C015B01C42FD22FFC018281B5
:101A90008823F9F04093AF010E944E1B9093AE0152
:101AA0008093AD0180E28C0F883008F061C0C77070
:101AB00081E001C0880FCA95EAF7DF91CF911F91AD
:101AC0000F91FF90EF90DF90CF90BF90AF900C946C
:101AD000B1111091AF01141340C08091AD019091EC
:101AE000AE010E94661B6C01B701C5010E949616EB
:101AF000C816D90690F5C0E2CD0F1D17B9F080E2E7
:101B0000810F883040F4177081E001C0880F1A956A
:101B1000EAF70E94B811C83048F481E09D2F977011
:101B200001C0880F9A95EAF70E94B111802F0E9498
:101B30009E11C830E8F4D77081E001C0880FDA95B3
:101B4000EAF7DF91CF911F910F91FF90EF90DF9017
:101B5000CF90BF90AF900C94B81180E28C0F88307A
:101B600038F4C77081E001C0880FCA95EAF7E9CF61
:101B7000DF91CF911F910F91FF90EF90DF90CF9069
:101B8000BF90AF9008950F939C01CB01233F4CE58C
:101B9000340759F1A8F4283DFCE53F0701F1293D40
:101BA0004CE53407D1F1273D3C4591F406E221EEA6
:101BB00041EE67ED7CE50E94380D80E00F910895BD
:101BC000253FFCE53F07E9F0B0F0263F3C45F9F042
:101BD000FC018281882339F11092AF01EFCF07E237
:101BE00025EE45EE68ED7CE5E6CF06E221EE40EE1F
:101BF00063EF7CE5E0CF07E225EE44EE64EF7CE5A1
:101C0000DACF06E221EE42EE65EF7CE5D4CF07E2C3
:101C100025EE46EE66EF7CE5CECF08E221E045EE0C
:101C200069ED7CE5C8CF81E0C9CFCF93DF93EC01AC
:101C3000FB018281882309F419C1C230FCE5DF076A
:101C4000C0F1C6319CE5D90730F09E012A5F3C45C2
:101C50002930310570F50E94E51990936F02809349
:101C60006E02C031ECE5DE0709F4CFC008F05BC0BE
:101C7000C8308CE5D80709F4B6C088F5C430ECE567
:101C8000DE0709F4A8C0C0F4C2308CE5D80709F417
:101C90009CC080916E028260C330DC4509F498C01C
:101CA00080916E0290916F020E94F3190E9420149D
:101CB00080E0DF91CF91089580916E028061C630FF
:101CC000ECE5DE0709F484C080916E028860C730BD
:101CD000DC4508F47DC080916E02806279C0CC3012
:101CE0008CE5D80709F489C070F480916E028C608D
:101CF000CA30ECE5DE0709F46BC008F478C08091C7
:101D00006E028E7F65C0CE308CE5D80709F479C0AD
:101D100080916E028B7FCF30DC4508F459C08091F2
:101D20006E028F7E55C0CB3FECE5DE0709F457C04D
:101D300030F5C3318CE5D80709F46FC078F4C131B0
:101D4000ECE5DE0709F465C0C231DC4509F0A8CF37
:101D50000E94201480916E028F773AC0C5318CE5C5
:101D6000D80709F462C008F476C080916F028160E0
:101D7000CA3FDC4509F094CF80936F0291CFCF3FEB
:101D8000FCE5DF0709F44DC088F480916F028D7F78
:101D9000CD3F9CE5D90781F380916F028E7FCE3FC6
:101DA000DC4550F380916F028360E6CFC130FDE5E2
:101DB000DF0709F459C008F444C080E0C230DD45B3
:101DC00009F06ECF0E94711A6BCF80916E02816014
:101DD00080936E0265CF80916E028460F9CF80910E
:101DE0006F028260C9CF80916E028064F1CF0E9441
:101DF000201480916E028068EBCF80916E028D7FFF
:101E0000E7CF80916E02877FE3CF80916E028F7D56
:101E1000DFCF80916E028F7BDBCF80916E02837F5C
:101E2000D7CF80916F028C7FA7CF80916E0282FB0B
:101E3000992790F921E0922790FB82F990FB83F992
:101E4000C7CF80916F02982F909591708E7F892BCC
:101E500090FB81F991CF0E94201490916E02892FFE
:101E600097FB87F98058B4CF81E0ACCF81E021CFD8
:101E7000CF93DF93EB0186319C4511F50E942A191F
:101E80009A81992399F08A7A91E009F490E09093ED
:101E9000B001811109C089E20E9405190E946919E7
:101EA00080E0DF91CF91089585E3F6CF8091B00176
:101EB000811104C089E20E940C19F0CF85E3FBCFA9
:101EC00081E0EFCF9093B6018093B5010895E09142
:101ED000B501F091B601309721F00190F081E02D2D
:101EE000099480E00895E091B501F091B601309732
:101EF00021F00280F381E02D09940895E091B5016D
:101F0000F091B601309739F022E0DC012C93048087
:101F1000F581E02D099408952091B3013091B40129
:101F20002817390771F09093B4018093B301E091C1
:101F3000B501F091B601309721F00680F781E02DD0
:101F4000099408952091B1013091B2012817390701
:101F500071F09093B2018093B101E091B501F091DD
:101F6000B601309721F00084F185E02D09940895A1
:101F700085B7806885BF85B7806885BF0895089557
:101F800008950C94BF0F08950C94C30F0E94B80FCE
:101F90000E94C00F0C94C10F81E008950C94CC0FE7
:101FA0000E94451B0E94BA070E9427090E94D31B6A
:101FB0000C94C40F9F92AF92BF92CF92DF92EF9298
:101FC000FF920F931F93CF93DF93CDB7DEB72A977E
:101FD0000FB6F894DEBF0FBECDBF0E9422080E944C
:101FE000CE0F882309F470C058EBA52E51E0B52E12
:101FF00010E000E0902E802F0E94AC076C01F501EC
:10200000E190F1905F01E816F90609F457C080915C
:102010003D0281FD0E94B50797012C253D2580E0FA
:10202000EE24E394F12CA9014E215F21452B09F404
:102030003FC08E839F82CE20DF2081E0CD2809F42F
:1020400080E088870E944E1B8160782F9A8789875D
:102050004E815F8168858A850E948710000F111F5D
:10206000F801E854FE4F80819181E826F926F1823B
:10207000E0820E947E1D0E94670F9091B701891730
:10208000A1F10E94670F8093B7012A960FB6F894CA
:10209000DEBF0FBECDBFDF91CF911F910F91FF909B
:1020A000EF90DF90CF90BF90AF909F900C945B0526
:1020B0008F5FEE0CFF1C8E3009F0B5CF0F5F1F4F06
:1020C0000530110509F096CF8FEF89838A831B8233
:1020D0000E944E1B8160782F9D838C8349815A8199
:1020E0006B818D810E948710C4CF2A960FB6F89419
:1020F000DEBF0FBECDBFDF91CF911F910F91FF903B
:10210000EF90DF90CF90BF90AF909F900895CF93C6
:10211000DF93CDB7DEB72B970FB6F894DEBF0FBEB7
:10212000CDBF4F83588769877A878B871E821D8230
:1021300085E0FE013796DE01119601900D928A9599
:10214000E1F749815A816B817C818D819E812B963B
:102150000FB6F894DEBF0FBECDBFDF91CF910C94C8
:102160009916FC01808191810C94D718CF93C82FC8
:10217000882309F48BC08238C1F40E94670F81FD67
:1021800085C089E30E9405190E9469192FEF81EE2D
:1021900094E0215080409040E1F700C0000089E3C6
:1021A0000E940C19CF910C9469198338A1F40E94F4
:1021B000670F80FD6BC083E50E9405190E946919B5
:1021C0002FEF81EE94E0215080409040E1F700C075
:1021D000000083E5E5CF8438A1F40E94670F82FDFB
:1021E00055C087E40E9405190E9469192FEF81EEFE
:1021F00094E0215080409040E1F700C0000087E467
:10220000CFCF8CEF8C0F813A90F46C2F809100012E
:10221000909101010E94881A882329F08C2F0E9436
:102220000C190E9469198C2F0E940519BBCF80E2FE
:102230008C0F883048F4C77081E001C0880FCA95C0
:10224000EAF70E942D19AECFEBE5EC0FE33040F436
:10225000F0E0E157FE4F808190E0CF910C948C0F1D
:10226000E8E5EC0FE73150F4F0E0EE0FFF1FEF5917
:10227000FE4F80819181CF910C94A20FC03F30F02E
:102280008C2F0E94781CCF910C94631DCF910895E0
:10229000882309F452C0823871F40E94670F81FFCD
:1022A0004CC089E30E9405190E94691989E30E94C4
:1022B0000C190C946919833859F40E94670F80FF38
:1022C0003CC083E50E9405190E94691983E5EFCFA0
:1022D000843859F40E94670F82FF2FC087E40E9460
:1022E00005190E94691987E4E2CF9CEF980F913A93
:1022F000F0F290E2980F983050F4877091E001C0AE
:10230000990F8A95EAF7892F0E943319D2CF9BE55E
:10231000980F933020F490E080E00C948C0F98E5B7
:10232000980F973120F490E080E00C94A20F803F4A
:1023300020F00E94E01C0C94631D0895CF93C82FD9
:102340000E94B610C93349F42FEF87EE93E0215075
:1023500080409040E1F700C000008C2FCF910C949A
:102360004811882321F00E942D190C9469190895B1
:10237000882321F00E9433190C9469190895BF92A3
:10238000CF92DF92EF92FF920F931F93CF93DF9341
:102390006C01D62FC72FFC01058102950F701281A9
:1023A00011110E944A190E942319E82E882391F0E6
:1023B0001123E9F08C2F807F803421F080E28D0F93
:1023C0008830A8F082E00E94B4190E94231991E09D
:1023D000E82EE926BC2EB2949FE0B922FBE0FB1563
:1023E000A8F1EB2DF0E0EE57F94D0C940426E12C0A
:1023F000F1CF0C2F0F70C07F11F00295007F1123D9
:10240000A9F0002359F080E28D0F883010F0D1112F
:1024100009C0802F0E942D190E9469198D2F0E94DA
:10242000B61014C0802F0E943D19F6CF8D2F0E9448
:102430004811002359F080E28D0F883010F0D1113F
:102440002CC0802F0E9433190E9469192B2D28500F
:10245000330B2430310520F40E94670F0E945B0586
:10246000EE2009F48EC10E941F1980FD8AC1F60179
:1024700012820E9419190E94A517C6010E94E21338
:102480000E941919DF91CF911F910F91FF90EF904A
:10249000DF90CF90BF900C94C617802F0E944319F5
:1024A000D3CF2C2F2F70F22EC07FC03219F0F294B0
:1024B00080EFF822DD2369F0D13049F1112391F149
:1024C000002351F1F601858180FFA8CF8F708583AD
:1024D00023C0112381F0011106C00E9450198F29D9
:1024E0000E94B111B3CF0130C1F70E9450198F295A
:1024F0000E945619ABCF011106C00E945F198F2DA3
:102500000E94B811A3CF013009F4A0CFF6CF112358
:1025100029F0063008F09ACF8F2DE2CF053008F071
:1025200095CFEDCF002359F3D93349F4FFEF27EED0
:1025300033E0F15020403040E1F700C000008D2F23
:102540000E94481183CF8C2F86958695837069F001
:10255000813009F07BCF8D2F9C2F9370111102C019
:1025600090E080E00E94A20F71CF8D2F9C2F93707E
:10257000111102C090E080E00E948C0F67CF8D2F78
:10258000112329F00E94781C0E94631D5FCF0E94D6
:10259000E01CFACF8C2F837009F041C0111156CF87
:1025A0004D2F429546954770440F440F0D2F0F70E5
:1025B00010E030E020E0042E04C0000F111F221FA5
:1025C000331F0A94D2F760E070E0CB01D4FF0FC054
:1025D0006FE070E080E090E004C0660F771F881F16
:1025E000991F4A95D2F76095709580959095C695FC
:1025F000C695C370602B712B822B932BC23049F090
:1026000058F4C13019F00E94571720CF0E94451787
:102610001DCF0E9469171ACF0E94431717CF8695C6
:10262000112311F08C2F8170882309F40FCF4D2FC7
:10263000429546954770440F440F0D2F0F7010E0E0
:1026400030E020E0042E04C0000F111F221F331FB2
:102650000A94D2F760E070E0CB01D4FF0FC06FE0C6
:1026600070E080E090E004C0660F771F881F991F1C
:102670004A95D2F76095709580959095C695C695C8
:10268000C370602B712B822B932BC23049F058F40E
:10269000C13019F00E941C18D9CE0E940A18D6CE5B
:1026A0000E942E18D3CE0E947F17D0CECF70112358
:1026B00029F08C2F0E94A5178D2F12CF8D2F0E94ED
:1026C000B8118C2F0E94C617C1CED23F89F160F499
:1026D000D03FC9F0D13F29F1112309F442C00111C3
:1026E0009DCE8C2F8F7121C0D33F39F1D43FA1F7FC
:1026F000112369F1CF718C2F0E94A51763E08C2FF5
:102700000E949F19A3CE112341F0053008F09ECE00
:102710008C2F8F710E94E91799CE063008F096CE63
:10272000F7CF8C2F8F71112369F20E94A5178ECEDF
:102730008C2F8F711123C9F3C5CF112329F08C2F52
:102740008F710E94901782CE0E948B177FCE81E0FE
:102750000E94B419023008F479CE82E00E94B419C4
:1027600075CE002359F0D93309F0E9CE8FEF97EEFB
:10277000E3E081509040E040E1F7DFCE8C2F8F7195
:10278000A1CFDF91CF911F910F91FF90EF90DF903C
:10279000CF90BF9008950F931F93CF93DF93EC01D9
:1027A000688179818A810E94E1188C010E94401819
:1027B0000E944217B801CE01DF91CF911F910F9176
:1027C0000C94BF11CF93DF93EC018B819C81892BFB
:1027D00029F08881998189238F3F59F4DF91CF9126
:1027E0000895CE010E94CB13CE01DF91CF910C94BE
:1027F0002004CE010E947A058111F3CF0E94231993
:10280000882361F38A81882349F382E0DF91CF91A5
:102810000C94B4190E944A190E944D190E9469191A
:102820000E948A1E0E94631D90E080E00E948C0F2F
:1028300090E080E00C94A20F0E9413190C940A14EB
:102840000E943A190C941C14E92FE295EF70E250A3
:10285000EE3070F4F0E0E257F94D0C940426803F1E
:1028600019F020F4883E20F481E00895843FE1F3DC
:1028700080E00895883EC0F3813FD1F7F5CF93FB08
:10288000882780F908950E94D7180C942414CF93B8
:10289000DF9300D000D00F92CDB7DEB70F900F902E
:1028A0000F900F900F90DF91CF910895CF93DF930A
:1028B00000D000D000D0CDB7DEB726960FB6F89482
:1028C000DEBF0FBECDBFDF91CF9108951F93CF9391
:1028D000DF93C091C30116E08091C4018C1304C042
:1028E000DF91CF911F910895D0E01C9FF0011D9FB3
:1028F000F00D1124EB53FE4F4081518162817381B1
:10290000848195810E9456142196C770E5CF40912D
:10291000F5015091F6016091F7017091F8018091F5
:10292000F9019091FA010C9456141F93CF93DF9301
:102930008091FA01807FA9F48091F701882389F0C2
:102940008091C301C091C4016091F5017091F601BD
:10295000A091F801B091F901D62FD72316E0C81342
:1029600004C0DF91CF911F91089590E0109711F06E
:10297000DF3F19F401968770F2CF189F9001199FDD
:10298000300D1124F901EB53FE4F41814713F2CF73
:1029900040814613EFCF42814111ECCF43815481F6
:1029A0004A1B5B0B483C510528F78091FA018F7058
:1029B00080618093FA01F901E653FE4F80818F70A8
:1029C0008061808385EF91E00E94E213DF91CF91D7
:1029D0001F910C946614AF92BF92CF92DF92EF9248
:1029E000FF920F931F93CF93DF93CDB7DEB761971D
:1029F0000FB6F894DEBF0FBECDBF8C0185E0F801A5
:102A0000DE011D9601900D928A95E1F7F801408153
:102A10005181E28085EFC82E81E0D82E6091F801C7
:102A20007091F9016115710509F461C19091F50189
:102A30002091F601892F82238F3F09F458C1A3808A
:102A4000B480F090F701F501E61BF70BFF2009F4C5
:102A5000FCC08091FA01382F307FE83CF10508F086
:102A6000B2C0311179C0FE2C251323C0941321C0AC
:102A7000E1101FC08F7080618093FA010E9487145B
:102A8000C6010E94E2138091FA01F80185838F2D1F
:102A900061960FB6F894DEBF0FBECDBFDF91CF9128
:102AA0001F910F91FF90EF90DF90CF90BF90AF906C
:102AB0000895AB2829F0842F85238F3F09F033C177
:102AC00080E0F82FF170DF2E80FF3CC08091C301C1
:102AD0002091C40136E0821315C04D875E878D8535
:102AE0009E850E94D718292F22952F702230F0F052
:102AF000243018F59F70F1F0F8019581907FD1F4A2
:102B0000D12C1EC090E0389FF001399FF00D1124A8
:102B1000EB53FE4F6181651306C06081641303C0EF
:102B200062816E110FC001968770D5CF9F7011F032
:102B3000882331F3805E883018F3C8010E94E213C5
:102B4000FD2CA5CFEE2009F4A2CF8091FA0181607F
:102B50008093FA01F12C9BCF251306C0941304C077
:102B6000F801EE2009F48DC04D875E878D859E8526
:102B70000E944314882319F1EE2009F18091FA0193
:102B8000803270F02091F5013091F60138872F8363
:102B90001986BB86AA868C87CE0107960E94E2130F
:102BA00086E0F801A5EFB1E001900D928A95E1F77A
:102BB0000E9495140E948714FF24F39468CFC801E3
:102BC0000E94E213F9CF311113C07A2DB98AA88A75
:102BD0006E2D89890E94471485EF91E00E94E213CF
:102BE00086E0F60111928A95E9F70E948714B2CF28
:102BF00025130FC094130DC0E1100BC0F80185839D
:102C0000C8010E94E21386E0F60111928A95E9F765
:102C10003ECF4D875E878D859E850E944314882315
:102C200071F2EE2061F28091FA01803208F4B8CF9F
:102C30002091F5013091F6013A8329831B82BD82F0
:102C4000AC828E83CE010196A9CFE83CF10508F055
:102C500041C0FE2CEE2009F4B2CF25132AC09413F4
:102C600028C08091FA0180FD1BC0982F907FC1F091
:102C7000F8018583903F31F0982F907F905F8F709F
:102C8000892B8583C8010E94E21386E0F801A5EF35
:102C9000B1E001900D928A95E1F70E948714F7CE7A
:102CA00086E0F801A5EFB1E001900D928A95E1F779
:102CB000EECE4D875E878D859E850E9443148111DF
:102CC0006FCF8091FA0181608093FA01C8010E9460
:102CD000E213DDCE7A2DB98AA88A6E2D89890E94E9
:102CE000471486E0F60111928A95E9F7D6CFEE20D7
:102CF00009F465CF4D875E878D859E850E944314BC
:102D0000F82E882309F45BCF86E0F801A5EFB1E047
:102D100001900D928A95E1F785EF91E00E94B11044
:102D20000E949514BACF81E08E25CBCE88EC90E03E
:102D300008951F93CF93DF93CDB7DEB72C970FB6CF
:102D4000F894DEBF0FBECDBF4F83588769877A875F
:102D50008B879C87CE0107960E94EB14882369F02D
:102D60008A859B85892B39F04F815885842F85234F
:102D70008F3F09F071C016E05FC086E0FE01379614
:102D8000DE01119601900D928A95E1F78A859B8567
:102D9000892B89F38F81988589238F3F61F3209157
:102DA000C40130E0C9010196877099274091C301A1
:102DB0004817190671F40E9420141092C401109251
:102DC000C30186E0E5EFF1E0DF011D928A95E9F7A6
:102DD000D2CF96E0929FD001939FB00D1124AB53B8
:102DE000BE4FFE01319601900D929A95E1F78093C6
:102DF000C4010E946614BFCF819FC00111248B5370
:102E00009E4F0E94EB148823E9F0E091C3011E9FBE
:102E1000F0011124EB53FE4F408151816281738197
:102E2000848195810E9456148091C30190E001969F
:102E3000877099278093C3018091C3019091C40149
:102E40008913DACF2C960FB6F894DEBF0FBECDBF34
:102E5000DF91CF911F91089569857A858B859C8537
:102E60000E94561488CF08950C9433170E9434178B
:102E700060932C0270932D0280932E0290932F0268
:102E80000C940A1408950C9436170F931F93009115
:102E90002C0210912D0220912E0230912F02602BD6
:102EA000712B822B932B1F910F910C9436170F933C
:102EB0001F9300912C0210912D0220912E0230912F
:102EC0002F0260237123822393231F910F910C946F
:102ED00036170F931F9300912C0210912D02209111
:102EE0002E0230912F0260277127822793271F918E
:102EF0000F910C9436170C9433170C947B170E9487
:102F00007D17609328027093290280932A02909380
:102F10002B020C940A1460E070E0CB010C947F1734
:102F20000F931F9341E050E060E070E08A019B0145
:102F300004C0000F111F221F331F8A95D2F7C90149
:102F4000B8011F910F910C947F170F931F9341E0CD
:102F500050E060E070E004C0440F551F661F771F0B
:102F60008A95D2F78091280290912902A0912A0295
:102F7000B0912B028A019B01082B192B2A2B3B2B8A
:102F8000C901B8011F910F910C947F170F931F93E4
:102F900041E050E060E070E004C0440F551F661F40
:102FA000771F8A95D2F7CB01BA016095709580950D
:102FB0009095009128021091290220912A023091C7
:102FC0002B0260237123822393231F910F910C9472
:102FD0007F170F931F9341E050E060E070E004C062
:102FE000440F551F661F771F8A95D2F780912802DC
:102FF00090912902A0912A02B0912B028A019B0193
:10300000082719272A273B27C901B8011F910F91CB
:103010000C947F170F931F9300912802109129029F
:1030200020912A0230912B02602B712B822B932B43
:103030001F910F910C947F170F931F9300912802FB
:103040001091290220912A0230912B0260237123D2
:10305000822393231F910F910C947F170F931F933B
:10306000009128021091290220912A0230912B020E
:1030700060277127822793271F910F910C947F1748
:1030800008952EE0929F800D1124982F977041E0B3
:1030900001C0440F9A95EAF786958695869595E046
:1030A000899FF0011124E550FE4F90E080E070E030
:1030B0005191DF0111979B01082E02C0369527958B
:1030C0000A94E2F7217021952527242325272C93A4
:1030D00001968530910561F708952EE0929F800D4D
:1030E0001124982F977086958695869525E0829F66
:1030F000F0011124E550FE4F50E040E080E02191C6
:1031000030E0092E02C0369527950A94E2F7217027
:103110003327042E01C0220F0A94EAF7822B4F5F57
:103120005F4F4530510559F70895BF92CF92DF9216
:10313000EF92FF920F931F93CF93DF938C01C09078
:103140002802D0902902E0902A02F0902B02809170
:103150002C0290912D02A0912E02B0912F02C82A2C
:10316000D92AEA2AFB2ACFE1D0E0BC2ED701C6013A
:103170000C2E04C0B695A795979587950A94D2F71B
:1031800080FD0EC0219788F7B12C8B2DDF91CF9158
:103190001F910F91FF90EF90DF90CF90BF90089517
:1031A000B8018C2F0E94BC05019761F3EECFCF933D
:1031B000DF93EC010E949518BE01DF91CF910C9432
:1031C000BC051F93CF93DF93EB019091C20199232C
:1031D00031F0CB01DF91CF911F910C94D718882348
:1031E00079F0CB010E949518182F682FCE010E940C
:1031F0004118BE01812FDF91CF911F910C94BC0526
:10320000CB010E946D18182FF4CF682F8091000118
:10321000909101010C94BE1A682F80910001909149
:1032200001010C94C01A80910001909101010C944D
:10323000C21A809130028595859585950895809173
:1032400030028770089590913002977081E009F400
:1032500080E0089580913C02089590913C02892B72
:1032600080933C020895809590913C02982390931E
:103270003C02089510923C02089590913B02892BE4
:1032800080933B020895809590913B029823909300
:103290003B02089510923B02089510923A0208955D
:1032A00080913102089508950C9453199091310240
:1032B000981721F0809331020C945419089580914D
:1032C0003102882329F01092310280E00C945419C5
:1032D0000895E0910001F091010180913C0280830A
:1032E000E0910001F0910101808190913B02892BD6
:1032F0008083E0910001F0910101808190913A0278
:10330000892B808390913102992381F0E091000113
:10331000F09101018081892B80838091000190913F
:1033200001010E94761A81110E945F1980910001AB
:10333000909101010C94730F08950C949C1998E0DE
:10334000899F90011124622B609330020E94A5177F
:10335000809130028595859585950C949D191092E4
:10336000300280E00C949D19909130028095892361
:1033700080933002282F277071F4282F082E000C1C
:10338000330B9217130639F08595859585950E9424
:10339000C6170C94AF1908956FEF7FEF90E080E0AF
:1033A0000C94612690E080E00E943D2621E08C3E56
:1033B0009E4F09F020E0822F089582E090E00C9467
:1033C000352683E090E00C943526CF9384E090E09E
:1033D0000E943526C82F81E290E00E943526982F62
:1033E0008C2FCF910895CF93C92F682F84E090E060
:1033F0000E9443266C2F81E290E0CF910C944326EB
:10340000AB01BC018FE090E00C945526AB01BC01F0
:1034100083E190E00C94552660E070E0CB010C94C1
:10342000061A60E070E0CB010E94001A0C940C1A9E
:103430006CEE7EEF90E080E00E94612660E082E02A
:1034400090E00E94432660E083E090E00E944326E3
:1034500010922C0210922D0210922E0210922F0226
:1034600060E084E090E00E94432660E081E290E02A
:103470000E94432660E085E090E00E94432660E0E1
:1034800086E090E00E9443266FEF87E090E00E9484
:10349000432640E050E0BA0188E090E00E945526C3
:1034A00060E08DE090E00E94432640E050E0BA01E9
:1034B00088E190E00E94552660E087E190E00E945C
:1034C000432640E050E0BA018CE190E00E9455268E
:1034D00060E080E290E00E9443260C94111A0C9464
:1034E000181A682F8EE090E00C9443269C012E5F02
:1034F0003F4FAC01485F5F4F80E02417350709F468
:103500000895F90191919F019923B9F38F5FF5CF48
:10351000662349F0FC01329608962191261729F07E
:10352000E817F907D1F780E0089581E008959C013C
:10353000FC0132969FEF80E04191461751F09F3F8A
:1035400019F4411101C0982F8F5F8630A9F79F3F72
:1035500009F40895290F311D97FD3A95F901628309
:103560000895FC01329608962191261303C0DF01CD
:1035700011971C92E817F907B9F708950C94971A58
:103580000C94B11A029626E0FC0111922A95E9F7F3
:103590000895089508950C94CA1A0E94CB1A809138
:1035A0007402843049F110923E0288E190E020E4F8
:1035B0000FB6F894A895809360000FBE209360002A
:1035C00080E00E945B050E94CB1A83B7817F8460F4
:1035D00083BF83B7816083BF7894889583B78E7FDC
:1035E00083BF0FB6F894A89580916000886180939E
:1035F0006000109260000FBE08950895CF930E945E
:10360000C91A0E9422080E94FD1AC0E08C2F0E9455
:10361000AC07892B31F4CF5FC530C1F780E0CF9183
:10362000089581E0FCCF08950C94131B0E94201490
:103630000E94670F0E945B050C94141B1F921FB61B
:103640001F9211248F939F93AF93BF9380913E025B
:10365000811113C080916A0290916B02A0916C025B
:10366000B0916D024196A11DB11D80936A029093A5
:103670006B02A0936C02B0936D02BF91AF919F91CA
:103680008F911F901FBE1F90189582E084BD93E01C
:1036900095BD9AEF97BD80936E0008952FB7F8946B
:1036A00080916A0290916B02A0916C02B0916D02C0
:1036B0002FBF08952FB7F89460916A0270916B0242
:1036C00080916C0290916D022FBF08959C014FB7BD
:1036D000F89480916A0290916B02A0916C02B09173
:1036E0006D024FBF821B930B089578941F921FB6F3
:1036F0001F9211248F939F93AF93BF9380916A027F
:1037000090916B02A0916C02B0916D020196A11D87
:10371000B11D80936A0290936B02A0936C02B093E8
:103720006D02BF91AF919F918F911F901FBE1F900F
:10373000189581E08093E00080E28093D800109299
:10374000C9008FE19EE40197F1F700C0000087E017
:1037500090EBDC0180937D0290937E02A0937F0228
:10376000B093800288E19CE00FB6F894A89580930E
:1037700060000FBE90936000FFCF0C9414090E946C
:1037800022088FE39CE90197F1F700C000000E9436
:10379000220880E00E94AC0780FF04C00E94BD1B8D
:1037A0000C94991B08950E94D219811102C00E94A5
:1037B0006F1A0E94DD1980933D020E94E5199093D3
:1037C0006F0280936E020E94E119682F70E090E012
:1037D00080E00E9443176091280270912902809135
:1037E0002A0290912B020C947D178091450280FF54
:1037F00012C06091070185E0689FB00111247595A2
:1038000067957595679560387105A8F5611571051F
:10381000A1F1862F089581FF09C06091070185E01D
:10382000689FB001112475956795EDCF60910701F0
:1038300082FD0AC0809144028823D1F09091060154
:1038400060910701891728F085E0689FB001112475
:10385000DACF869FB001112485E0869F9001879F73
:10386000300D1124692F70E0C9010E94F025CBCFE3
:1038700065E070E0CECF8FE7089581E008958091F4
:10388000450280FF0CC06091030170E0759567955B
:10389000759567956115710549F1862F089581FF2A
:1038A00006C06091030170E075956795F3CF609154
:1038B000030182FD0BC0909143029923A1F0609116
:1038C000020180910301961738F0682F70E060388C
:1038D000710500F38FE70895899FC001112470E0FE
:1038E0000E94F025F4CF61E070E0D7CF81E0089529
:1038F000803F31F40E94F51B819580934902089521
:10390000813F19F40E94F51BF8CF823F31F40E94E9
:10391000F51B8195809348020895833F19F40E9416
:10392000F51BF8CF893F29F40E943F1C80934A027F
:1039300008958A3F21F40E943F1C8195F7CF8B3F69
:1039400031F40E943F1C819580934B0208958C3F77
:1039500019F40E943F1CF8CF843F31F48091470254
:103960008160809347020895853F21F4809147024A
:103970008260F7CF863F21F4809147028460F1CFC7
:10398000873F21F4809147028860EBCF883F21F484
:10399000809147028061E5CF8D3F31F480914502EF
:1039A00081608093450208958E3F21F48091450205
:1039B0008260F7CF8F3FB9F7809145028460F1CFE5
:1039C00090914802803F59F48091490287FF0DC0D1
:1039D0001092490291110BC01092440208C0813F1D
:1039E00081F48091490218169CF3992381F080910B
:1039F0004A0290914B02892B09F064C01092430255
:103A00000895823F49F497FFF0CF109248028091C9
:103A100049028111ECCFE0CF833F19F41916ACF3C2
:103A2000E4CF20914A02893F29F41216F4F610924D
:103A30004A02DBCF8A3F19F427FFD7CFF8CF209176
:103A40004B028B3F29F427FFD0CF10924B02CDCFF2
:103A50008C3F19F41216CCF3C8CF843F31F4809117
:103A600047028E7F80934702C0CF853F21F480912B
:103A700047028D7FF7CF863F21F4809147028B7FED
:103A8000F1CF873F21F480914702877FEBCF883FBA
:103A900021F4809147028F7EE5CF8D3F31F48091F4
:103AA00045028E7F80934502A0CF8E3F21F4809106
:103AB00045028D7FF7CF8F3F09F097CF8091450268
:103AC0008B7FF0CF08950E944E1B9C01909148027D
:103AD00080914902982B21F03093420220934102B9
:103AE00090914A0280914B02982B21F03093400232
:103AF00020933F0286E492E00C947E0FEF92FF92B7
:103B00000F931F93CF93DF9300D000D000D0CDB799
:103B1000DEB786E0E6E4F2E0DE01119601900D9258
:103B20008A95E1F7E0904802F090490200914A023C
:103B300010914B02109248021092490210924A02D0
:103B400010924B028E2D8F2991F08091410290911D
:103B500042020E94661BAC0190914402992309F431
:103B60003FC0809108018417150608F447C0802FD4
:103B7000812B91F080913F02909140020E94661B40
:103B8000AC0190914302992309F477C0809104011C
:103B90008417150608F47FC080914802909149026D
:103BA000892B90914A02892B90914B02892B11F01D
:103BB0000E94631D86E0FE013196A6E4B2E001900A
:103BC0000D928A95E1F726960FB6F894DEBF0FBEE8
:103BD000CDBFDF91CF911F910F91FF90EF9008958E
:103BE000209109018AE0289F9001112424173507AC
:103BF00008F0BDCF9F5F9093440202C09F3FD1F772
:103C0000EE2059F00E94F51B9FEF1E140CF491E07A
:103C1000899F802D112480934802FF2059F00E9433
:103C2000F51B9FEF1F140CF491E0899F802D112448
:103C30008093490230914802332309F498CF2091B0
:103C40004902222309F493CF45EB3403C001112428
:103C5000992359F09093480245EB240390011124D5
:103C6000332339F03093490282CF81E080934802B8
:103C7000F3CF81E0809349027ACF209105018AE059
:103C8000289F900111242417350708F085CF9F5FE6
:103C90009093430202C09F3FD1F7002359F00E9446
:103CA0003F1C9FEF10160CF491E0899F802D11248A
:103CB00080934A02112359F00E943F1C9FEF111676
:103CC0000CF491E0899F802D112480934B02309158
:103CD0004A02332309F460CF20914B02222309F4D6
:103CE0005BCF45EB3403C0011124992359F0909325
:103CF0004A0245EB240390011124332339F0309319
:103D00004B024ACF81E080934A02F3CF81E0809357
:103D10004B0242CF86E0E6E4F2E0DF011D928A9595
:103D2000E9F710924402109243021092450208955E
:103D3000809154020895CF93DF9300D00F92CDB7B6
:103D4000DEB790917402943011F589837B836A8386
:103D50009093E9008FEF9091E800815095FD06C0A7
:103D600095ED9A95F1F700008111F5CF8091E8006B
:103D700085FF0DC050E040E063E070E0CE010196A9
:103D80000E9410218091E8008E778093E8000F90C8
:103D90000F900F90DF91CF910895BC0184E00C94B7
:103DA0009B1EBC0183E00C949B1E9C0184E08093CD
:103DB000E9009FEF8091E800915085FD06C085EDF8
:103DC0008A95F1F700009111F5CF8091E80085FF09
:103DD0000CC050E040E066E070E0C9010E94102194
:103DE0008091E8008E778093E8000895CF93DF9369
:103DF000EC0181E08093E9008FEF9091E800815021
:103E000095FD06C095ED9A95F1F700008111F5CF6B
:103E10008091E80085FF14C050E040E068E070E069
:103E2000CE010E9410218091E8008E778093E800F7
:103E300088E0FE01ACE4B2E001900D928A95E1F7D2
:103E4000DF91CF910895CF93FC01603221F58091ED
:103E50007402843001F5C091E900CF702091EC002C
:103E6000922F917020FD90E8C92B82E08093E900A9
:103E70008091E80080FF0CC050E040E060E270E01C
:103E8000CF010E9410218091E8008E778093E80096
:103E9000CF70C093E900CF91089580917302811192
:103EA00009C00E94EF220E944C238091E2008460AE
:103EB0008093E20008951092730208950895089582
:103EC0000C94161B42E061EC81E00E946B2242E2FE
:103ED00061EC84E00E946B2242E261EC82E00E948D
:103EE0006B2242E260EC83E00C946B2280917602BC
:103EF000833009F461C030F48130D1F1823009F4AB
:103F00009DC008958A3009F489C08B3009F46FC0D0
:103F1000893009F050C080917502813209F04BC0A0
:103F20008091790290917A02009719F0029709F036
:103F300042C08091E800877F8093E8008091E8008C
:103F400082FF35C09091F3008091F200029729F42E
:103F50008091F1008B7F813021F48091F10080937A
:103F600054028091E8008B778093E8000C949F22A4
:103F700080917502813AF9F48091E800877F8093FF
:103F8000E8008091790290917A02892B61F468E0CF
:103F90008CE492E070E00E94AE218091E8008B7783
:103FA0008093E800089560E090E080E0F3CF809196
:103FB00074028111C3CF089580917502813AD9F7B7
:103FC0008091790290917A02892BA9F78091E8007B
:103FD000877F8093E8008091E80080FFFCCF80918C
:103FE00014018093F1008091E8008E77BDCF80911D
:103FF0007502813201F78091790290917A02892BC2
:10400000D1F68091E800877F8093E8000E949F228C
:1040100080917702809314010C9420148091750292
:10402000813249F68091E800877F8093E8000E9402
:104030009F228091780280935502089580917502A5
:10404000813A09F0B8CF8091E800877F8093E8003B
:104050008091E80080FFFCCF80915502C2CFCDB7A0
:10406000DEB7A0970FB6F894DEBF0FBECDBF84B702
:10407000877F84BF0FB6F894A8958091600088610F
:1040800080936000109260000FBE80E890E00FB651
:10409000F89480936100909361000FBE0E94C60F58
:1040A0000E94EF220E944C238091E2008460809362
:1040B000E20078940E94D5250E94D00F8AE091E01A
:1040C0000E94620F13E080917402853039F10E94E2
:1040D000DA0F809174028430B1F71093E900809177
:1040E000E80082FFF0CF8091E80090E085FF09C0F2
:1040F00050E040E060E270E0CE0101960E945F2156
:1041000091E08091E8008B778093E8009923D9F2C1
:1041100060E2CE0101960E947609D5CF0E94CD1AA9
:1041200080917202882379F20E94FE1A882359F244
:104130000E94FA20C8CF0C949D20292F33272330CA
:10414000310521F168F42130310509F449C02230EC
:10415000310509F44AC090E080E030E020E029C059
:104160002132310581F122323105A9F76330710521
:1041700090F7FB01EE0FFF1FEB56FE4F20813181C0
:104180006E567E4FFB01808190E013C099278130ED
:10419000910599F0009741F08230910589F00397DD
:1041A000D1F6ECE6F5E002C0E0EDF5E0849190E0B8
:1041B0009F01FA01318320830895ECEAF5E0F6CF00
:1041C000EAE8F5E0F3CF6330710528F6660F771F54
:1041D000FB01E556FE4F2081318189E090E0E9CF77
:1041E00082E190E02FE236E0E4CF8BE590E024ED31
:1041F00035E0DFCF80E189BD82E189BD09B400FEF1
:10420000FDCF8091D8008F7D8093D8008091E00011
:1042100082608093E0008091E00081FDFCCF0895F2
:10422000AF92BF92CF92DF92FF920F931F93CF93E3
:10423000DF936C01EB018A010E94BE22F82E8111EE
:1042400023C00115110539F0F80180819181C81B47
:10425000D90BC80ED91EB12CA12C2097A9F08091A2
:10426000E80085FD22C08091E8008E778093E80009
:1042700001151105A1F0F80180819181A80EB91EE8
:10428000B182A08285E0F82E8F2DDF91CF911F9112
:104290000F91FF90DF90CF90BF90AF9008950E9454
:1042A000BE228823D1F2F82EEFCFF60181916F0163
:1042B0008093F1002197FFEFAF1ABF0ACECFAF92E4
:1042C000BF92CF92DF92FF920F931F93CF93DF9312
:1042D0006C01EB018A010E94BE22F82E811123C0DD
:1042E0000115110539F0F80180819181C81BD90BA6
:1042F000C80ED91EB12CA12C2097A9F08091E800FE
:1043000085FD22C08091E8008B778093E80001153D
:104310001105A1F0F80180819181A80EB91EB1822A
:10432000A08285E0F82E8F2DDF91CF911F910F9104
:10433000FF90DF90CF90BF90AF9008950E94BE2273
:104340008823D1F2F82EEFCF8091F100F60181930E
:104350006F012197FFEFAF1ABF0ACECFFC0180910A
:104360007B0290917C0286179707A0F0611571057A
:1043700029F49091E8009E779093E80090E0611511
:10438000710551F4911108C08091E80082FF34C09A
:1043900080E00895BC01F2CF809174028823C1F1BE
:1043A0008530C1F18091E80083FD30C08091E80044
:1043B00082FDEACF8091E80080FFE1CF8091F30099
:1043C0002091F200382F6115710519F02830310560
:1043D00058F091E02830310509F090E02091E80094
:1043E0002E772093E800CBCF81918093F10061502C
:1043F00071092F5F3F4FE7CF80917402882341F00E
:10440000853041F08091E80083FFBECF81E00895C0
:1044100082E0089583E00895FC0180917B029091F1
:104420007C0286179707A0F06115710529F4809129
:10443000E8008E778093E80090E06115710551F4F3
:10444000911108C08091E80082FF35C080E0089596
:10445000BC01F2CF809174028823C9F18530C9F183
:104460008091E80083FD31C08091E80082FDEACFB1
:104470008091E80080FFE1CF8091F3002091F2006D
:10448000382F6115710519F02830310558F091E089
:104490002830310509F090E08091E8008E77809314
:1044A000E800CBCF84918093F1003196615071097F
:1044B0002F5F3F4FE6CF80917402882341F0853013
:1044C00041F08091E80083FFBDCF81E0089582E054
:1044D000089583E00895982F973028F08F70809387
:1044E000E90081E008959093E900242F762F50E0B1
:1044F000981731F07091EC002091ED005091F00090
:1045000021FD02C09F5FE8CF3091EB003E7F3093EA
:10451000EB003091ED003D7F3093ED003091EB00EA
:1045200031603093EB007093EC002093ED005093DA
:10453000F0002091EE0027FDE5CF80E00895809106
:10454000750287FF13C08091E80082FF06C080914A
:10455000E8008B778093E80004C080917402811199
:10456000F2CF0895809174028823D9F38091E800F6
:1045700080FFF8CF8091E8008E77ECCF2091E400A7
:104580003091E50095E6A9012091EC00822F817021
:1045900020FF06C08091E80080FF06C080E00895FB
:1045A0002091E80022FD1AC080917402882389F0CE
:1045B000853089F08091EB0085FD0FC02091E400EB
:1045C0003091E50042175307F9F29150E1F684E08B
:1045D000089582E0089583E0089581E008950E949F
:1045E0005D230E946523E0EEF0E08081816080839E
:1045F000E8EDF0E080818F77808319BCA7EDB0E013
:104600008C918E7F8C9380818F7E80831092730239
:1046100008950F931F93CF93DF930E945D230E9411
:104620006523C8EDD0E088818F7788838881806892
:10463000888388818F7D888319BC109274021092C0
:104640007002109272021092710200EE10E0F801F6
:1046500080818B7F808388818160888342E060E0F5
:1046600080E00E946B22E1EEF0E080818E7F80830B
:10467000E2EEF0E0808181608083808188608083C9
:10468000F80180818E7F8083888180618883DF91BB
:10469000CF911F910F910895E8EDF0E080818F7E1A
:1046A0008083E7EDF0E080818160808384E082BFD9
:1046B00081E0809373020C940923E8EDF0E080819F
:1046C0008E7F80831092E20008951092DA0010929B
:1046D000E10008951F920F920FB60F9211242F93AD
:1046E0003F934F935F936F937F938F939F93AF937A
:1046F000BF93EF93FF938091E10082FF0BC0809105
:10470000E20082FF07C08091E1008B7F8093E1008F
:104710000E94D4258091DA0080FF19C08091D800D2
:1047200080FF15C08091DA008E7F8093DA0080913F
:10473000D90080FF96C080E189BD82E189BD09B4BE
:1047400000FEFDCF81E0809374020E944D1F809196
:10475000E10080FF19C08091E20080FF15C08091C8
:10476000E2008E7F8093E2008091E200806180937E
:10477000E2008091D80080628093D80019BC85E067
:10478000809374020E945F1F8091E10084FF2BC020
:104790008091E20084FF27C080E189BD82E189BD6C
:1047A00089B5982F917080FFFBCF8091D8008F7DC5
:1047B0008093D8008091E1008F7E8093E10080910A
:1047C000E2008F7E8093E2008091E200816080931E
:1047D000E20080917002882309F449C084E080934C
:1047E00074020E94601F8091E10083FF29C08091C4
:1047F000E20083FF25C08091E100877F8093E10084
:1048000082E080937402109270028091E1008E7FAA
:104810008093E1008091E2008E7F8093E20080919E
:10482000E20080618093E20042E060E080E00E946C
:104830006B228091F00088608093F0000E945E1FE0
:10484000FF91EF91BF91AF919F918F917F916F9168
:104850005F914F913F912F910F900FBE0F901F903E
:10486000189519BC109274020E945B1F70CF809142
:10487000E30087FD93E090937402B3CF1F920F92F1
:104880000FB60F9211242F933F934F935F936F9323
:104890007F938F939F93AF93BF93CF93DF93EF93C8
:1048A000FF93D091E900DF708091EC00C82FC170B8
:1048B00080FDC0E81092E9008091F000877F80932E
:1048C000F00078940E9482241092E9008091F00018
:1048D00088608093F000CD2BCF70C093E900FF91EA
:1048E000EF91DF91CF91BF91AF919F918F917F9188
:1048F0006F915F914F913F912F910F900FBE0F904D
:104900001F9018951F93CF93DF93CDB7DEB7AA976B
:104910000FB6F894DEBF0FBECDBF85E792E02091C1
:10492000F100FC012193CF01F2E08D379F07B9F729
:104930000E94761F8091E80083FF1EC1809175025E
:10494000909176029A3008F017C1E92FF0E0E45612
:10495000F94D0C940426803899F0823809F00CC186
:10496000809179028F70873008F006C18093E9004A
:104970008091EB0085FB882780F91092E90006C042
:104980008091710290917202911182609091E80081
:10499000977F9093E8008093F1001092F10080914E
:1049A000E8008E77E5C0882309F4D3C0823009F08F
:1049B000E3C0809177028111D6C0809179028F7017
:1049C0002FEF280F263008F0D7C08093E900209100
:1049D000EB0020FFC8C0933031F48091EB0080627F
:1049E0008093EB00C0C09091EB0090619093EB003E
:1049F00021E030E001C0220F8A95EAF72093EA0017
:104A00001092EA008091EB008860EACF8111B4C077
:104A1000109177021F778091E3008078812B80933B
:104A2000E3008091E800877F8093E8000E949F2246
:104A30008091E80080FFFCCF8091E3008068809344
:104A4000E30082E0111183E08093740295C08058E6
:104A5000823008F091C080917702909178028C3D6D
:104A600023E09207A1F583E08A838AE289834FB726
:104A7000F894DE01139620E03EE051E2E32FF0E0EF
:104A800050935700E49120FF03C0E295EF703F5F21
:104A9000EF708E2F90E0EA30C0F0C7968D939D9313
:104AA0002F5F243159F74FBF8091E800877F8093B3
:104AB000E8006AE270E0CE0101960E94AE2180918A
:104AC000E8008B778093E80057C0C096E7CF6091ED
:104AD000790270917A02AE014F5F5F4F0E949B2076
:104AE000BC01892B09F448C09091E800977F90930E
:104AF000E80089819A810E940C22E1CF8038E1F59B
:104B00008091E800877F8093E80080917002809315
:104B1000F10045CF811130C090917702923060F55D
:104B20008091E800877F8093E800909370020E9454
:104B30009F2280917002882311F084E005C080914B
:104B4000E30087FDFACF81E0809374020E94621F28
:104B500013C080917702813079F481E0933009F0BD
:104B600080E0809372021092E9008091E800877FD4
:104B70008093E8000E949F228091E80083FF0AC092
:104B80008091E800877F8093E8008091EB0080624D
:104B90008093EB00AA960FB6F894DEBF0FBECDBF90
:104BA000DF91CF911F9108950895CF938091740262
:104BB0008823A1F0C091E900CF709091EC00892F7B
:104BC000817090FD80E8C82B1092E9008091E80088
:104BD00083FD0E948224CF70C093E900CF91089595
:104BE00097FB072E16F4009407D077FD09D00E949A
:104BF000112607FC05D03EF4909581959F4F0895AE
:104C0000709561957F4F0895EE0FFF1F0590F49109
:104C1000E02D099469279627692778278727782721
:104C20000895AA1BBB1B51E107C0AA1FBB1FA617F3
:104C3000B70710F0A61BB70B881F991F5A95A9F745
:104C400080959095BC01CD010895FB01DC0102C067
:104C500005900D9241505040D8F70895DC0101C0F5
:104C60006D9341505040E0F70895F999FECF92BD01
:104C700081BDF89A992780B50895A8E1B0E042E097
:104C800050E00C946926262FF999FECF92BD81BD84
:104C9000F89A019700B4021639F01FBA20BD0FB67A
:104CA000F894FA9AF99A0FBE08950396272F0E9456
:104CB00044260E944326252F0E944426242F0C942C
:104CC00044260196272F0E9444260C944326DC019B
:104CD000CB01FC01F999FECF06C0F2BDE1BDF89A07
:104CE000319600B40D9241505040B8F70895F894B1
:104CF000FFCF990ABD0AC90AB00AB00A0D0B290BE9
:104D00003C0B860BF911F91151125112A312BF126B
:104D100026122612CA125613651365132F142F1468
:104D2000381438143A143814381438142F142F1433
:104D30003F14381438143F14AB24D324BC25D32497
:0C4D4000BC2506252725BC257E258A25DC
:104D4C0032022808641E140A321E981EF61ED51E46
:104D5C00D11ECD1E01FB525D17F30BA392E200E9AD
:104D6C0000EA00B500B600B700CD008301CC008A84
:104D7C00019201940121022302240225022602271A
:104D8C00022A02B300B4006F007000818283C695C2
:104D9C00939291906766363534979694F0F1F4F5CA
:104DAC00F6E200E900EA00B500B600B700CD0083DA
:104DBC0001CC008A019201940121022302240225D4
:104DCC0002260227022A02B300B4006F0070008191
:104DDC008283402281E40641066306E605FF051F37
:024DEC000600BF
:00000001FF
