:100000000C94CA050C9411060C9411060C9411065C
:100010000C9411060C9411060C9411060C94110604
:100020000C9411060C9411060C94A0230C945C23E0
:100030000C94F1240C9411060C9411060C941106E6
:100040000C9411060C9411060C9411060C941106D4
:100050000C9411060C94CD240C9411060C941106EA
:100060000C9411060C9411060C9411060C941106B4
:100070000C9411060C9411060C9411060C941106A4
:100080000C9411060C9411060C9411060C94110694
:100090000C9411060C9411060C9411060C94110684
:1000A0000C9411060C9411060C9411060631FF09EC
:1000B00074A1010975150026FF00952075088102BD
:1000C0000976150026FF00952075089102C00501EC
:1000D0000980A101850319012AB700150126B7007F
:1000E000950175108100C0050C0901A10185041955
:1000F000012AA002150126A002950175108100C0F9
:100100000660FF0961A1010962150026FF00954004
:10011000750881020963150026FF00954075089156
:1001200002C005010906A101050719E029E715002C
:100130002501950875018102950175088101050762
:10014000190029FF150026FF009506750881000596
:10015000081901290595057501910295017503910D
:1001600001C0726762206D617472697820746F6774
:10017000676C65205B25735D3A207267625F6D6115
:10018000747269785F636F6E6669672E656E61620F
:100190006C65203D2025750A0044454255473A20AC
:1001A00064697361626C65642E0A00444542554778
:1001B0003A20656E61626C65642E0A003F00433E22
:1001C00020004F6E6573686F743A206163746976BE
:1001D000653A2025640A000A002530325820006B59
:1001E0006579626F6172645F7265706F72743A20D4
:1001F000007267625F6D61747269785F636F6E66CB
:1002000069672E666C616773203D2025640A007261
:1002100067625F6D61747269785F636F6E6669674C
:100220002E7370656564203D2025640A0072676244
:100230005F6D61747269785F636F6E6669672E685F
:1002400073762E76203D2025640A007267625F6D0A
:1002500061747269785F636F6E6669672E68737622
:100260002E73203D2025640A007267625F6D617401
:100270007269785F636F6E6669672E6873762E6841
:10028000203D2025640A007267625F6D61747269A7
:10029000785F636F6E6669672E6D6F6465203D20C1
:1002A00025640A007267625F6D61747269785F63CA
:1002B0006F6E6669672E656E61626C65203D2025F4
:1002C000640A007267625F6D61747269785F636F60
:1002D0006E66696720454550524F4D0A007267624D
:1002E0005F6D61747269785F696E69745F64726969
:1002F00076657273207267625F6D61747269785F90
:10030000636F6E6669672E6D6F6465203D20302EC9
:100310002057726974652064656661756C74207617
:10032000616C75657320746F20454550524F4D2E9A
:100330000A007267625F6D61747269785F696E69E5
:10034000745F64726976657273206565636F6E664B
:100350006967206973206E6F7420656E61626C65D9
:10036000642E0A004B6579626F6172642073746158
:1003700072742E0A000A0025303862003A200025E7
:10038000303258000A722F63203031323334353620
:10039000370A000A0025303258006B6579626F61B8
:1003A00072645F7365745F6C65643A2000010001DC
:1003B0000001000100010001000100010001000135
:1003C0000001000100010001000100010001000125
:1003D0000001000100010001000100010001000115
:1003E0000001000100010001000100010001000105
:1003F00000010001000100010001000100010001F5
:1004000000010001000100010001000100010001E4
:1004100000010001000100010001000100010001D4
:1004200000010001000100010001000100010001C4
:1004300000010001000100010001000100010001B4
:1004400000010001000100010001000100010001A4
:100450000001000100010001000100010001000194
:10046000000100010001000100010001005B735D5B
:10047000006B65796D61705F636F6E6669672E7280
:1004800061773A20253032580A2E737761705F63A6
:100490006F6E74726F6C5F636170736C6F636B3AD5
:1004A0002025750A2E636170736C6F636B5F746FC8
:1004B0005F636F6E74726F6C3A2025750A2E7377C6
:1004C00061705F6C63746C5F6C6775693A20257549
:1004D0000A2E737761705F7263746C5F72677569FF
:1004E0003A2025750A2E737761705F6C616C745FBA
:1004F0006C6775693A2025750A2E737761705F7293
:10050000616C745F726775693A2025750A2E6E6F8B
:100510005F6775693A2025750A2E737761705F678A
:10052000726176655F6573633A2025750A2E73776D
:1005300061705F6261636B736C6173685F6261635A
:100540006B73706163653A2025750A2E6E6B726F4E
:100550003A2025750A0064656275675F636F6E6691
:1005600069672E7261773A20253032580A2E656EFF
:1005700061626C653A2025750A2E6D617472697826
:100580003A2025750A2E6B6579626F6172643A2094
:1005900025750A2E6D6F7573653A2025750A0065FD
:1005A00065636F6E6669673A0A64656661756C7447
:1005B0005F6C617965723A2025750A000A092D2061
:1005C0004D61676963202D0A443A09446562756785
:1005D000204D65737361676520546F67676C650AAA
:1005E000583A094D617472697820446562756720D4
:1005F0004D6F646520546F67676C65202D205368CC
:100600006F77206B65797072657373657320696E9F
:10061000206D617472697820677269640A4B3A09C7
:100620004B6579626F61726420446562756720541E
:100630006F67676C65202D2053686F77206B657935
:100640007072657373207265706F72740A4D3A0927
:100650004465627567204D6F75736520546F6767D9
:100660006C650A563A0956657273696F6E0A533A99
:10067000095374617475730A433A09416374697666
:1006800061746520436F6E736F6C65204D6F646598
:100690000A46312D4631303A095377697463682030
:1006A000746F204C6179657220302D3920284631D5
:1006B00030203D204C30290A302D393A09537769D2
:1006C00074636820746F204C6179657220302D3915
:1006D0000A47524156453A09537769746368207452
:1006E0006F204C6179657220302028616C746572CE
:1006F0006E617465290A423A094A756D7020746FFB
:1007000020426F6F746C6F616465720A4553433A9F
:10071000094A756D7020746F20426F6F746C6F6141
:100720006465722028616C7465726E617465290A53
:10073000453A095072696E7420454550524F4D201C
:1007400053657474696E67730A4253504143453A66
:1007500009436C65617220454550524F4D0A000AAD
:10076000092D20436F6E736F6C65202D0A4553432E
:100770002F713A09717569740A000A092D205665AE
:100780007273696F6E202D0A5649443A20307834CE
:10079000443443285465616D204D6563686C6F7601
:1007A000696E29205049443A20307832333031285C
:1007B0004E454F4E29205645523A20307830303041
:1007C000310A4255494C443A2020284A616E203172
:1007D000382032303232290A4F5054494F4E533A62
:1007E000204C5546412045585452414B45592043D1
:1007F0004F4E534F4C4520434F4D4D414E44204C9E
:10080000544F20343039360A4743433A20382E3487
:100810002E30204156522D4C4942433A20322E3040
:100820002E30204156525F415243483A2061767241
:10083000350A000A092D20537461747573202D0A3E
:10084000686F73745F6B6579626F6172645F6C650A
:10085000647328293A20253032580A6B6579626F13
:100860006172645F70726F746F636F6C3A202530D1
:1008700032580A6B6579626F6172645F69646C6596
:100880003A20253032580A74696D65725F7265616D
:1008900064333228293A202530386C580A003F004A
:1008A0000A6D6F7573653A206F66660A000A6D6F90
:1008B0007573653A206F6E0A000A6B6579626F6125
:1008C00072643A206F66660A000A6B6579626F612E
:1008D00072643A206F6E0A000A6D61747269783A28
:1008E000206F66660A000A6D61747269783A206F3B
:1008F0006E0A000A64656275673A206F66660A00D0
:100900000A64656275673A206F6E0A000A0A4A75C2
:100910006D70696E6720746F20626F6F746C6F61A9
:100920006465722E2E2E2000433E2000436C6561CC
:1009300072696E6720454550524F4D0A004C256440
:100940000A0000010101010101010101020202028C
:100950000202020202030303030303030304040469
:100960000404040405050505050606060606070732
:1009700007070708080808090909090A0A0A0B0BEA
:100980000B0C0C0C0D0D0D0E0E0E0F0F0F10101189
:10099000111112121313141415151616171718180F
:1009A00019191A1A1B1B1C1D1D1E1E1F2020212277
:1009B00022232424252626272829292A2B2C2D2DBD
:1009C0002E2F30313232333435363738393A3B3CDA
:1009D0003D3E3F404142434445464748494A4C4DCD
:1009E0004E4F50515354555658595A5B5D5E5F6196
:1009F0006264656668696B6C6D6F70727375777829
:100A00007A7B7D7E8082838587888A8C8E8F919386
:100A10009596989A9C9EA0A2A3A5A7A9ABADAFB1AD
:100A2000B3B5B7BABCBEC0C2C4C6C9CBCDCFD1D492
:100A3000D6D8DBDDDFE2E4E7E9EBEEF0F3F5F8FA38
:100A4000FDFF6565636F6E6669675F7570646174ED
:100A5000655F7267625F6D61747269785F64656615
:100A600061756C740A00726762206D6174726978D6
:100A7000206D6F6465205B25735D3A2025750A0043
:100A8000726762206D617472697820736574206882
:100A90007376205B25735D3A2025752C25752C25F2
:100AA000750A00726762206D6174726978207365DF
:100AB00074207370656564205B25735D3A2025752D
:100AC0000A005B435D005B445D005B535D005B5768
:100AD0005D005B525D0009027B00040100A0FA0981
:100AE000040000010301010009211101000122405D
:100AF000000705810308000A090401000203000041
:100B00000009211101000122220007058203400093
:100B1000010705030340000109040200010300006E
:100B20000009211101000122320007058403200081
:100B30000A09040300020300000009211101000159
:100B40002222000705850320000107050503200078
:100B50000112010002000000084C4D0123010001B8
:100B60000200010A034E0045004F004E0000001E27
:100B7000035400650061006D0020004D00650063B6
:100B80000068006C006F00760069006E00000004D1
:100B90000309040011241FBECFEFDAE0DEBFCDBF92
:100BA00004B603FE27C080919F039091A003A091FB
:100BB000A103B091A2038730904BA740B04BD1F472
:100BC00010929F031092A0031092A1031092A2030F
:100BD00014BE84B7877F84BF0FB6F894A895809120
:100BE0006000886180936000109260000FBEE0E0BA
:100BF000F8E3099523E0AAE6B2E001C01D92AF39FF
:100C0000B207E1F712E0A0E0B1E0E2E1FDE502C0E9
:100C100005900D92AA36B107D9F70E9418250C94B9
:100C20003D2E0C940000FF93EF93E0916A02F09147
:100C30006B02309709F00995EF91FF910895FC013F
:100C40008591803011F0EFDFFBCF0895FF27E0E2C0
:100C500030E247FF0CC0419597FF09C0EDE2609577
:100C6000709580959095611D711D811D911D27FFC7
:100C700002C0219530E350E2AA27660F771F881F34
:100C8000991FAA1FA41710F0A41B63955A95A9F7E2
:100C9000AA3008F0A95FA05DAF93F39561157105C7
:100CA0008105910541F7ED3211F4EF93F395F217B9
:100CB00018F43F93F395FBCF8F91B5DFFA95E1F7E9
:100CC0000895E991F9918591803021F0853219F0EC
:100CD000AADFF9CF089520E0E89455915532C1F389
:100CE000503311F4689455915A3348F4505390F3AB
:100CF000220F022E220F220F200D250FF4CF0EF40B
:100D0000219589919991533619F3533729F1533528
:100D100059F1BC0188279927E8945C3621F4899120
:100D2000999168945591543639F446EF7EF077FFE7
:100D30000DC08FEF9FEF0AC055374AE039F05835A4
:100D400040E121F0523642E009F00895FF93EF931D
:100D50007DDFEF91FF91B7CFFF93EF93FC0181917E
:100D60008030B9F360DFFBCFFF93EF9368DFF1CF03
:100D7000DF93CF93CDB7DEB72596A3DFCF91DF9179
:100D80000895E8EDF0E080818E7F80831092E2008C
:100D90001092DA001092E100A0EEB0E08C91816038
:100DA0008C9380818F77808319BCA7EDB0E08C9104
:100DB0008E7F8C9380818F7E80831092770308953D
:100DC0002091E4003091E50095E6A9012091EC0026
:100DD000822F817020FF06C08091E80080FF06C04E
:100DE00080E008952091E80022FD1AC080918403DC
:100DF000882389F0853089F08091EB0085FD0FC054
:100E00002091E4003091E50042175307F9F2915028
:100E1000E1F684E0089582E0089583E0089581E09A
:100E20000895EF92FF920F931F93CF937C018B0154
:100E30000E94E006C82F811117C08091E80085FD4F
:100E40000BC08091E8008E778093E8000E94E00656
:100E5000882399F3C82F08C0F70181917F018093FF
:100E6000F1000150110949F78C2FCF911F910F917B
:100E7000FF90EF9008958091860387FF13C08091C3
:100E8000E80082FF06C08091E8008B778093E8003D
:100E900004C0809184038111F2CF0895809184036E
:100EA0008823D9F38091E80080FFF8CF8091E80093
:100EB0008E77ECCF982F9093E900242F762F50E077
:100EC000891731F07091EC002091ED005091F00005
:100ED00021FD07C09F5F973071F78093E90081E0A3
:100EE00008953091EB003E7F3093EB003091ED00A0
:100EF0003D7F3093ED003091EB0031603093EB009B
:100F00007093EC002093ED005093F0002091EE00E0
:100F100027FDE0CF80E00895CF92DF92EF92FF921D
:100F20000F931F93CF93DF93C8EDD0E088818F7E1E
:100F30008883E7EDF0E080818160808384E082BF78
:100F400081E08093770388818E7F888302EE10E0B2
:100F5000F80110821092DA0081EEC82ED12CF60131
:100F6000108288818F7788838881806888838881D0
:100F70008F7D888319BC1092840310928503109290
:100F800083031092820390EEE92EF12CF701808109
:100F90008B7F808388818160888342E060E080E08D
:100FA0000E945A07F60180818E7F8083F80180813C
:100FB00081608083808188608083F70180818E7F5B
:100FC0008083888180618883DF91CF911F910F9109
:100FD000FF90EF90DF90CF900895FC0180918C03FB
:100FE00090918D0386179707A0F06115710529F47C
:100FF0009091E8009E779093E80090E0611571056C
:1010000051F4911108C08091E80082FF34C080E063
:101010000895BC01F2CF809184038823C1F185300B
:10102000C1F18091E80083FD30C08091E80082FD2D
:10103000EACF8091E80080FFE1CF8091F30020911A
:10104000F200382F6115710519F02830310558F07C
:1010500091E02830310509F090E02091E8002E77EA
:101060002093E800CBCF81918093F100615071090A
:101070002F5F3F4FE7CF80918403882341F0853075
:1010800041F08091E80083FFBECF81E0089582E0C7
:10109000089583E0089508958091790308952FB706
:1010A000F8948091980390919903A0919A03B0913C
:1010B0009B032FBF08959C01FC0132969FEF80E0B7
:1010C0004191461751F09F3F19F4411101C0982FEB
:1010D0008F5F8630A9F79F3F09F40895290F311DCE
:1010E00097FD3A95F9016283089520916E0330913E
:1010F0006F032817390771F090936F0380936E0385
:10110000E0916C03F0916D03309721F00084F1853C
:10111000E02D0994089520916A0330916B032817FC
:10112000390771F090936B0380936A03E0916C032D
:10113000F0916D03309721F00680F781E02D09943E
:101140000895E0916C03F0916D03309721F00190C8
:10115000F081E02D099480E00895FA01811101C029
:10116000FB010994E2E2F3E08183608342833396DA
:1011700093E0EA36F907C1F70895FC01EE0FFF1F6F
:10118000E80FF91FEE5DFC4F6183408322830895D1
:101190000C94B2080C94BD08E42FF0E0EE0FFF1F92
:1011A000EF5DFD4F9081921B97FD9195292F38E1BE
:1011B000239F212D1124620F08950F931F9310E098
:1011C000F801EE0FFF1FEF5DFD4F9081905797FDE7
:1011D0009195000F111FF801E75FFD4F018D00523F
:1011E000110B2003F001219FF00D112408E310E002
:1011F000091B110997FD139540039001419F300D84
:101200001124E20FF31F9F01220F331F2E0F3F1FE8
:1012100037FF02C021583F4F220F232F221F330BCD
:10122000620F1F910F9108950F931F93522F10E09B
:10123000F801EE0FFF1FE75FFD4FA18DA052BB0B22
:101240009D015203F001539FF00D1124000F111F57
:10125000D801AF5DBD4F0C910057110B40039001B9
:10126000419F300D11242E0F3F1F37FF02C0215C1C
:101270003F4F96E0359527959A95E1F7620F1F91BC
:101280000F9108950F931F93522F10E0F801EE0F66
:10129000FF1FE75FFD4FA18DA052BB0B9D015203C5
:1012A000F001539FF00D1124000F111FD801AF5D05
:1012B000BD4F0C910057110B40039001419F300D21
:1012C00011242E0F3F1F37FF02C021583F4F220F1E
:1012D000232F221F330B620F1F910F910895EF925E
:1012E0000F93972F23E0029FB00111247595679506
:1012F0006E0D792F0F91EF900895322F50E0FA0183
:10130000EE0FFF1FE75FFD4F918D905297FD919576
:10131000440F551FFA01EF5DFD4F2081231B330B56
:10132000290F311D97FD3A95620F0895E42FF0E0E3
:10133000EE0FFF1FE75FFD4F618D621B0895E42FE5
:10134000F0E0EE0FFF1FEF5DFD4F6081621B08951F
:10135000622F0895E42FF0E0EE0FFF1FEF5DFD4FC9
:10136000408134EE439F412D1124E82FF0E050E0FE
:10137000445E5F4FDA01A21BB1099D01B7FF03C0B4
:1013800031952195310993E0220F331F9A95E1F7AA
:10139000AF01421B530B9A0157FD20E0582F259FA8
:1013A000212D1124822F0895E42FF0E0EE0FFF1F6E
:1013B000EF5DFD4F408134EE439F412D1124E72F17
:1013C000F0E050E0445E5F4FDA01A21BB1099D01DD
:1013D000B7FF03C031952195310993E0220F331FE8
:1013E0009A95E1F7AF01421B530B9A0157FD20E09C
:1013F000279F212D1124722F0895FC019B01009736
:1014000029F480E077FF2BC080E80895AC0197FFB6
:1014100004C044275527481B590BB901640F751F99
:1014200037FD10C0241B350BC901A5E0880F991F9B
:10143000AA95E1F70E94052D80E2861BF7FF0FC0F9
:1014400081950895CB0165E0880F991F6A95E1F7B2
:10145000BA01621B730B0E94052D80E6EECF089542
:10146000EF920F93CF93DF93D72FC82FC9010E1997
:10147000BA010E94FD09602F681B7D2F8C2FDF9120
:10148000CF910F91EF9008950F93CF93DF93D72FC4
:10149000C82FC901BA010E94FD09682F600F7D2F76
:1014A0008C2FDF91CF910F910895EF920F931F939F
:1014B000CF93DF93D62FC72F182FC9010E19010F15
:1014C000BA010E94FD09081B202F219F212D112404
:1014D000822F6D2F7C2FDF91CF911F910F91EF9075
:1014E0000895EF920F931F93CF93DF93D62F172F6B
:1014F000C82FC9010E19070FBA010E94FD09702FEC
:10150000781B719F712D11246D2F8C2FDF91CF913E
:101510001F910F91EF9008950F931F93CF93DF9337
:10152000D62FC72F182FC901212F201B022FBA0138
:101530000E94FD09982F990F990F891B800F282F62
:10154000219F212D1124822F6D2F7C2FDF91CF9190
:101550001F910F9108950F931F93CF93DF93D62F71
:10156000172FC82FC901272F201B022FBA010E9455
:10157000FD09982F990F990F782F791B700F719F84
:10158000712D11246D2F8C2FDF91CF911F910F9111
:101590000895E82F86FDE0952E2F2F7086FD2F5F92
:1015A000E695E695E695E670F0E0E351FE4F918111
:1015B000929F902D212D112492959F702295207F2E
:1015C000922B2081920F87FD919580E8890F0895D5
:1015D0000F931F93CF93DF938B01D82FC42F822FAC
:1015E0000E94C90AEC2FF0E0EE0FFF1FEF5DFD4FE8
:1015F00090819058890F87FD8195880F682F2CE086
:10160000629F612D1124600F712F8D2FDF91CF917B
:101610001F910F910895AC018230910508F408954F
:101620009FEF413E8EE1580740F49A0195E03695D0
:1016300027959A95E1F798E0920F61E0E62FE90F80
:10164000FF27FF1F9F0135952795822F229FF001CD
:10165000239FF00DF00D11244E175F0738F49FEF14
:10166000920F961758F78FEF860F08952F3FE9F3E3
:1016700061E0620FF6CF0F93CF93DF93D72FC82F80
:1016800047FD419588E390E0841B910947FD9395C0
:10169000889FB001899F700D700D1124229FC00199
:1016A000239F900D900D1124860F971F0E940B0B06
:1016B000982F990F890F682F600F7D2F8C2FDF9146
:1016C000CF910F91089530E020E0869F212D969FC5
:1016D000200D311D1124C9010895AF92BF92CF9200
:1016E000DF92FF920F931F93CF93DF93362F472FF5
:1016F000E82FF0E0EE5BF64F71110FC0E4918E2FF2
:101700002E2F6E2F722FDF91CF911F910F91FF908F
:10171000DF90CF90BF90AF900895C72FD0E0249175
:10172000F22E022F10E056E0659FC0011124EFEF6A
:10173000F0E0BF010E94F12C832F90E0880F991FE9
:1017400035E5369FD001379FB00D11248A1B9B0BC6
:10175000982F990F980F6F01CC1ADD0AC09ED00107
:10176000C19EB00DD09EB00D11248B2F499FA001BA
:101770001124452F55276F01C41AD50AC09EA00118
:10178000C19E500DD09E500D11245F01A91AB108C1
:10179000AC9E6001AD9ED00CBC9ED00C1124CD2C13
:1017A000DD24EC19FD09E09FE001E19FD00DF09FE1
:1017B000D00D1124ED2F62307105A1F050F46115A8
:1017C000710509F49ECF6130710581F0EB2F852FF3
:1017D00098CF6430710569F080F06630710509F4C6
:1017E00090CFF4CFE22F2B2F8D2F8BCFE22F252FF1
:1017F00088CFEB2F822F2D2F84CF2B2F8F2DE52FEE
:1018000080CFDF92EF92FF920F931F93CF93DF93DE
:101810007C0180915A01C82FCC0FCC0FC80F15E066
:101820001C0F012F193108F008E1609196036695AD
:10183000669521E0620F08F46FEF80918E0390911E
:101840008F030E94630BD82ED0E0C01760F081E0B8
:10185000183108F080E0DF91CF911F910F91FF9038
:10186000EF90DF900895FE01EF5AFD4F8081909137
:101870005B01892391F060919303709194038091AF
:1018800095032D2D4C2FF70109950E946D0B462FC6
:10189000282F672FCE010E94CA082196D6CF9F928B
:1018A000AF92BF92CF92DF92EF92FF920F931F936E
:1018B000CF93DF936C0180915A01C82FCC0FCC0FCE
:1018C000C80F15E01C0FB12E193110F038E1B32EFE
:1018D000609196036695669580918E0390918F0333
:1018E0000E94630BF82E80E48F0D0E94C90A90E8D5
:1018F000A92EA80E8F2D0E94C90A20E8922E980EBC
:10190000D0E0CB1580F081E0183108F080E0DF9165
:10191000CF911F910F91FF90EF90DF90CF90BF90EC
:10192000AF909F900895FE01EF5AFD4F80819091F6
:101930005B018923A1F060919303709194038091DE
:101940009503EF2C0C2F292D4A2DF60109950E94A5
:101950006D0B462F282F672FCE010E94CA082196B3
:10196000D0CF5F926F927F928F929F92AF92BF92F1
:10197000CF92DF92EF92FF920F931F93CF93DF935B
:101980003C0180915A01C82FCC0FCC0FC80F15E035
:101990001C0FF12E193110F038E1F32E60919603EF
:1019A000669580918E0390918F030E94630B582E51
:1019B000D0E0CE01880F991F9C01275F3D4F690140
:1019C000CF15A0F081E0183108F080E0DF91CF91D1
:1019D0001F910F91FF90EF90DF90CF90BF90AF904D
:1019E0009F908F907F906F905F900895FE01EF5AC7
:1019F000FD4F808190915B01892379F1F601808D03
:101A0000282F2057330B5901818DE82FE052FF0B0F
:101A10004F01AA9C9001AB9C300D300D1124EE9F1C
:101A2000C001EF9F900D900D1124820F931F0E9413
:101A30000B0B082F60919303709194038091950391
:101A4000E52C9401A501F30109950E946D0B462F29
:101A5000282F672FCE010E94CA08F2E0CF0ED11CBA
:101A60002196AECFAF92BF92CF92DF92EF92FF92CC
:101A70000F931F93CF93DF936C0180915A01C82F6E
:101A8000CC0FCC0FC80F15E01C0FB12E193110F080
:101A900038E1B32E60919603669580918E03909104
:101AA0008F030E94630BA82ED0E0CE01880F991FF0
:101AB0009C01275F3D4F7901CB1578F081E018310B
:101AC00008F080E0DF91CF911F910F91FF90EF9090
:101AD000DF90CF90BF90AF900895FE01EF5AFD4F79
:101AE000808190915B018923C1F0F701218D205203
:101AF000330B408D4057550B6091930370919403C5
:101B0000809195030A2DF60109950E946D0B462FD1
:101B1000282F672FCE010E94CA08F2E0EF0EF11CB9
:101B20002196CACFF894E82FE295EF70F0E031A14A
:101B3000282F2F7081E090E001C0880F2A95EAF7E6
:101B4000982F9095932391A392A1892B82A37894A7
:101B500008959091CC0292FF06C0282F287128305A
:101B6000F9F4877F846093FF06C0282F28712831FD
:101B7000F1F4877E84612091CD0220FF06C0382FCA
:101B800038713830D9F4877F816021FF06C0282F53
:101B900028712831D1F4877E816194FD877E089574
:101BA000282F24712430F9F68B7F8860DCCF282F12
:101BB0002471243101F78B7E8861DDCF382F31719C
:101BC000313019F78E7F8860E0CF282F21712131C5
:101BD00021F78E7E8861E1CFCF93DF93EC018238CD
:101BE0009105A9F1D8F58133910509F496C048F51E
:101BF0008932910509F48AC08A9709F495C0C11504
:101C000022E5D20708F0B6C0C11531E5D30708F0C8
:101C100026C1C83ED10508F09CC0C03ED10560F584
:101C2000C83AD10508F087C0C53AD10508F0EFC021
:101C3000C130D10509F12097F9F0C430D105E0F4A5
:101C400040C08533910509F45AC0C997C1F6809107
:101C5000CC02837089F0C0EED0E00EC0833E9105C7
:101C600099F170F4803E910501F1823E910539F6BB
:101C70008091CC0282FD21C0CE01DF91CF910895E9
:101C8000863E910561F1873E910571F1843E910593
:101C900009F0B5CF8091CD0281FFEECF8091CC02CB
:101CA000C7EED0E084FD0DC0E7CF8091CC0280FD6F
:101CB00007C19091CD0290FFDFCFC3EED0E084FF4B
:101CC000DBCFD0E0C0E0D8CF8091CC0282FDFBC05A
:101CD0009091CD0290FDBFCF84FFCECFF2CF809107
:101CE000CC0283FDDDCFC8CF8091CC0283FDEEC056
:101CF0009091CD0291FFF0CFC4EED0E0BDCF8091A6
:101D0000CC0285FFB9CFC9E2D0E0B6CF8091CC023A
:101D100085FFB2CFC5E3D0E0AFCF8091CC0286FF84
:101D2000ABCFCAE2D0E0A8CF8091CC0286FFA4CF8F
:101D3000C1E3D0E0A1CFCF3BD10518F6C85AD0E01F
:101D4000CC0FDD1FC756DE4F0990D881C02DD4645B
:101D500093CFC11540E5D40708F064C0C11580E4F5
:101D6000D80708F05CC0CE019A9581159F4108F410
:101D700083CFA7CFC11536E5D30718F5C11545E5C3
:101D8000D40708F084C0C11584E5D80708F07AC0EC
:101D90009C2F969596959E0123703327C115D345A8
:101DA00008F462C0C1E0D0E002C0CC0FDD1F2A956C
:101DB000E2F730E2939FC0011124C82BD92BDA68D7
:101DC0005BCFC1158AE5D80778F4C11599E5D90725
:101DD00008F068C0C11528E5D20708F472CFDC2FDF
:101DE000CC27C06FD06A48CFCE0190568115904263
:101DF00008F067CF8D2F8F710E94A90D90E0982F6A
:101E0000882788279F719C012C2BE90149C0C55A5E
:101E1000D0E0CA56DE4FC881D0E0D0642DCFDF704D
:101E2000D06A2ACFCE01E4E096958795EA95E1F74E
:101E300083702C2F26952695237040E2249F9001D5
:101E40001124382B8C2F8370C1E0D0E002C0CC0F5E
:101E5000DD1F8A95E2F7C22BD32BDC680DCFDC2F78
:101E6000CC27C16FD06A08CFC1E0D0E002C0CC0F50
:101E7000DD1F2A95E2F720E2929FC0011124C82BB2
:101E8000D92BEBCFDC2FCC27C46FD06AF5CE8C2FAB
:101E90000E94A90DC82FD0E0DC2FCC27CC27DF7102
:101EA000D062EACE8C2F8F700E94A90D34E0D695B7
:101EB000C7953A95E1F7CF709C2FEC01D069DCCE45
:101EC000C9E3D0E0D9CEC2EED0E0D6CEC6EED0E0A7
:101ED000D3CE8091C00281111092C00208958091EA
:101EE000BB0290918A02981301C008958F5F87709A
:101EF000FACFAF92BF92CF92DF92EF92FF920F9301
:101F00001F93CF93DF93C090C802D090C902E09096
:101F1000CA02F090CB024091C1025091C20260917E
:101F2000C3027091C402C42AD52AE62AF72ACFE157
:101F3000D0E0082F10E026E0929F000D111D112423
:101F400098E1A92EBC2ED701C6010C2E04C0B6956F
:101F5000A795979587950A94D2F780FD0FC0219792
:101F600088F7B12C8B2DDF91CF911F910F91FF90AE
:101F7000EF90DF90CF90BF90AF900895AC9EF001AE
:101F8000AD9EF00D1124E00FF11FEE0FFF1FE35582
:101F9000FC4F859194910E94EC0D019701F3E2CFE3
:101FA000CF93DF93EC010E94790FEC2FF0E096E0E5
:101FB000D99FE00DF11D112498E1899FE00DF11DDD
:101FC0001124EE0FFF1FE355FC4F85919491DF9193
:101FD000CF910C94EC0DE92FEE0FE90FEE0F8E0F61
:101FE000982F977086958695869525E0829FF001BB
:101FF0001124EB58FD4F50E040E080E0219130E0AB
:10200000092E02C0369527950A94E2F721703327EE
:10201000042E01C0220F0A94EAF7822B4F5F5F4F14
:102020004530510559F70895E92FEE0FE90FEE0FEE
:102030008E0F982F977041E001C0440F9A95EAF7F0
:1020400086958695869595E0899FF0011124EB5839
:10205000FD4F30E020E070E05191DF011197CB019E
:10206000022E02C0969587950A94E2F781708195B9
:102070008527842385278C932F5F3F4F253031059B
:1020800059F70895FC01808191810E94D00F292F7A
:102090002F7092959F7092509E3078F4E92FF0E067
:1020A000E15CF14D0C94192D803F19F020F4883E2D
:1020B00020F481E00895843FE1F380E00895883EB4
:1020C000C0F3813FD1F7F5CF822F8695869586950F
:1020D0000895829590E09C01220F331F220F331F39
:1020E0002C7C95958795959587958373282B30E063
:1020F000C901880F991F8A7A359527952575822BF6
:1021000008959FB7F894109275039FBF9091840330
:10211000943009F048C02091E9002F703091EC0014
:10212000932F917030FD90E8922B25E02093E900E9
:102130002091EB0020FF34C02091EE0027FF30C03B
:1021400020917403222321F02091E80025FF28C06C
:102150001092740326E03091E80035FF14C080939C
:10216000F1008091E80085FD27C08091E80080FFA4
:10217000FCCF8091E8008E778093E8009F70909369
:10218000E90080E0089530918403343049F43091BF
:10219000EB0035FD05C0215041F481E080937403CC
:1021A0009F709093E9008FEF0895EFE9FFE031977A
:1021B000F1F700C00000CFCF8FB7F89421E0209353
:1021C00075038FBFDBCF90918403943029F5809302
:1021D000710370937303609372039093E9008FEF20
:1021E0009091E800815095FD06C095ED9A95F1F724
:1021F00000008111F5CF8091E80085FF0DC050E00F
:1022000040E063E070E081E793E00E941107809175
:10221000E8008E778093E8000895BC0184E00C9478
:10222000E310BC0183E00C94E310CF93DF93EC0147
:1022300081E08093E9008FEF9091E800815095FD57
:1022400006C095ED9A95F1F700008111F5CF8091C8
:10225000E80085FF14C050E040E068E070E0CE0187
:102260000E9411078091E8008E778093E80088E053
:10227000FE01AAE7B3E001900D928A95E1F7DF91A4
:10228000CF9108956A9A3EB13B7F2EB124604FB73B
:10229000F89482E293E0FC015191CF0168E02EB9FD
:1022A000000000C057FF3EB9550F000000C000C03D
:1022B00000C03EB900C06A9591F7F3E08A369F07E7
:1022C00051F74FBF8FE594E00197F1F700C0000090
:1022D00008951F93CF93DF93EC01FC01EF5AFD4F5C
:1022E00080816823C9F00E946B2D182F0E946B2DEE
:1022F0008F77782F20E8720F08F47FEF612F80919D
:1023000095030E946D0B462F282F672FCE01DF917A
:10231000CF911F910C94CA08DF91CF911F9108951E
:10232000DF92EF92FF920F931F93CF93DF938C0175
:10233000FC01EF5AFD4F8081682381F1D090940316
:10234000D0919503C0919303EC2EF12C0E946B2D3C
:10235000282FC7018C549F4F68E671E00E94052D1D
:102360008E199F0997FD0396959587959595879565
:1023700023706C2F289F600D11247D2D8D2F0E94BE
:102380006D0B462F282F672FC801DF91CF911F912A
:102390000F91FF90EF90DF900C94CA08DF91CF91DE
:1023A0001F910F91FF90EF90DF9008958093960317
:1023B00090912103962B909321039091200390FFFD
:1023C00016C020E631E0662311F022E631E01F92CC
:1023D0008F933F932F9383EA9AE09F938F930E946A
:1023E000B8060F900F900F900F900F900F900895D8
:1023F0008091960320E1382F321B08F430E0832FC0
:1024000061E00C94D6118091960320E1382F320FB1
:1024100008F43FEF832F61E00C94D61130919203C2
:10242000337051F180939303609394034093950329
:1024300030912103322B309321033091200330FF60
:102440001BC09927211119C020E631E01F924F933C
:102450001F926F939F938F933F932F9380E89AE0FF
:102460009F938F930E94B8068DB79EB70A960FB6BA
:10247000F8949EBF0FBE8DBF089522E631E0E6CFEF
:10248000E2E9F3E0438120E1421B08F440E081816E
:1024900021E0628190E00C940E12E2E9F3E04381C6
:1024A00020E1420F08F44FEF818121E0628190E04A
:1024B0000C940E12E2E9F3E0628120E1621B08F461
:1024C00060E0818121E0438190E00C940E12E2E90A
:1024D000F3E0628120E1620F08F46FEF818121E077
:1024E000438190E00C940E12E2E9F3E0818121E057
:1024F000438162818850990B0C940E12E2E9F3E05B
:10250000818190E021E04381628108960C940E1253
:1025100090919203937051F1811129C0946090932E
:1025200092031092580180912103862B80932103FE
:102530008091200380FF1AC0209192032695269552
:1025400080E691E0662311F082E691E01F922F93DE
:102550009F938F9386E69AE09F938F930E94B8068D
:102560000F900F900F900F900F900F9008958D3156
:1025700010F09067D4CF880F880F982BD0CF809120
:10258000920386958695815009F48CE161E00C9464
:10259000881280919203869586958F5F8D3108F021
:1025A00081E061E00C948812EF92FF920F931F93E9
:1025B000CF93DF938091BF029091BE02892B9091BF
:1025C000BD02892B80936C029091C002992391F0F7
:1025D000892B80936C0220E08EE692E0FC01319121
:1025E000CF0131112F5FF2E084379F07B9F7211136
:1025F0000E94690FE0916C03F0916D033097C9F16F
:102600000280F381E02D8CE692E009958091200311
:1026100082FF2FC080FF04C08FED91E00E941F0653
:10262000CCE6D2E084E7E82E82E0F82E09ED11E056
:102630008091200380FF0BC088811F928F931F938E
:102640000F930E94B8060F900F900F900F90219655
:10265000EC16FD0669F78091200380FF0AC087ED24
:1026600091E0DF91CF911F910F91FF90EF900C942B
:102670001F06DF91CF911F910F91FF90EF9008956A
:1026800090E080E00E948B0890E080E00E94750856
:102690001092BE021092BD020C94D4126093C80234
:1026A0007093C9028093CA029093CB020C9440139A
:1026B0000F931F9341E050E060E070E004C0440FCE
:1026C000551F661F771F8A95D2F7CB01BA01609517
:1026D0007095809590950091C8021091C902209143
:1026E000CA023091CB0260237123822393231F916E
:1026F0000F910C944E139091BC0280958923809386
:10270000BC02282F277039F4282F082E000C330B19
:102710009217130621F49091CD0292FF07C0859580
:10272000859585950E9458131092BC0208950F93C9
:102730001F9341E050E060E070E004C0440F551F7B
:10274000661F771F8A95D2F78091C8029091C902BF
:10275000A091CA02B091CB028A019B01082B192BD0
:102760002A2B3B2BC901B8011F910F910C944E13DA
:102770006093C1027093C2028093C3029093C4021B
:102780000C944013882341F080959091BF028923D7
:102790008093BF020C94D4120895882339F090914D
:1027A000BF02982B9093BF020C94D41208958823F3
:1027B000B1F19CEF980F913A70F4EEE6F2E091914E
:1027C000891303C0DF0111971C9242E0E437F4073C
:1027D000B1F70C94D41290E2980F983088F4877077
:1027E00021E030E0A90102C0440F551F8A95E2F7AD
:1027F000CA0180959091BF0289238093BF02E9CFDF
:102800009BE5980F933020F490E080E00C948B08C7
:10281000885A873120F490E080E00C947508089580
:102820008091200380FF08C082E49AE09F938F93F9
:102830000E94B8060F900F9081E7809392038091D9
:102840005D0190915E01A0915F018093930390934D
:102850009403A09395038FE7809396038FEF809363
:10286000970346E050E06CE170E082E993E00C945D
:10287000A62DCF9384E090E00E94982DC82F82E28D
:1028800090E00E94982D982F8C2FCF910895109250
:10289000BF02EEE6F2E086E0DF011D928A95E9F7DD
:1028A0000C9440131F93CF93DF93CDB7DEB7AA9755
:1028B0000FB6F894DEBF0FBECDBF86E893E020913F
:1028C000F100DC012D93CD01B3E08E389B07B9F701
:1028D00080918703833009F471C0B8F4813009F422
:1028E00048C0823009F4B2C08091E80083FF3AC149
:1028F00080918603909187039A3008F033C1E92FC5
:10290000F0E0E35BF14D0C94192D8A3009F48DC091
:102910008B3009F470C0893039F780918603813299
:1029200019F780918A0390918B03009711F0029719
:10293000D9F68091E800877F8093E8008091E800D5
:1029400082FF37C09091F3008091F200029729F442
:102950008091F1008B7F813021F48091F100809390
:1029600079038091E8008B778093E8000E943B0711
:10297000BBCF80918603813A09F0B6CF8091E80001
:10298000877F8093E80080918A0390918B03892B45
:1029900061F468E08AE793E070E00E94ED078091BF
:1029A000E8008B778093E8009FCF60E090E080E0C4
:1029B000F3CF809184038111C1CF96CF809186039C
:1029C000813A09F091CF80918A0390918B03892BF2
:1029D00009F08ACF8091E800877F8093E80080919A
:1029E000E80080FFFCCF809159018093F100809135
:1029F000E8008E77B9CF80918603813209F074CFD9
:102A000080918A0390918B03892B09F06DCF80917F
:102A1000E800877F8093E8000E943B07809188034D
:102A2000809359010E9447145FCF809186038132C1
:102A300009F05ACF8091E800877F8093E8000E94D8
:102A40003B0780918903809378034ECF8091860362
:102A5000813A09F049CF8091E800877F8093E800B0
:102A60008091E80080FFFCCF80917803BECF803852
:102A700099F0823809F076C080918A038F70873090
:102A800008F070C08093E9008091EB0085FB8827F7
:102A900080F91092E90006C080918203909183032F
:102AA000911182609091E800977F9093E800809365
:102AB000F1001092F1008091E8008E77BAC188236E
:102AC00009F4A7C1823009F04DC0809188038111BB
:102AD000ABC180918A038F702FEF280F263008F04A
:102AE00041C08093E9002091EB0020FF9DC193300D
:102AF00031F48091EB0080628093EB0095C190915E
:102B0000EB0090619093EB0021E030E001C0220FD8
:102B10008A95EAF72093EA001092EA008091EB0090
:102B20008860EACF81111EC0109188031F778091C1
:102B3000E3008078812B8093E3008091E800877F19
:102B40008093E8000E943B078091E80080FFFCCF63
:102B50008091E30080688093E30082E0111183E0BC
:102B6000809384038091E80083FF0AC08091E8008D
:102B7000877F8093E8008091EB0080628093EB0078
:102B8000AA960FB6F894DEBF0FBECDBFDF91CF91EE
:102B90001F9108958058823028F720918803309142
:102BA00089032C3DE3E03E07A1F583E08A838AE2B6
:102BB00089834FB7F894DE01139620E03EE051E29E
:102BC000E32FF0E050935700E49120FF03C0E2951B
:102BD000EF703F5FEF708E2F90E0EA30C0F0C79645
:102BE0008D939D932F5F243159F74FBF8091E8005B
:102BF000877F8093E8006AE270E0CE0101960E9430
:102C0000ED078091E8008B778093E800ABCFC0960A
:102C1000E7CF80918A0390918B03432F5527433050
:102C2000510509F44AC078F54130510509F47AC0DC
:102C30008BE790E0E6EDFAE04230510509F092CFE3
:102C40002091E800277F2093E80020918C033091A9
:102C50008D038217930708F49C0140E0211531058C
:102C600009F065C0411163C08091E80082FDC9CFC1
:102C700080918403882329F2853019F28091E8003D
:102C800083FFF2CFBECF4132510509F43CC042323E
:102C9000510509F067CF8430910508F063CFFC013E
:102CA000EE0FFF1FE750FE4F0190F081E02D8B509B
:102CB0009E4FDC018C9190E01AC033272130310502
:102CC000D1F02115310561F02230310509F04ACFEC
:102CD000E3E6FBE0E4918E2F90E0E3E6FBE007C043
:102CE000EFE8FBE0E4918E2F90E0EFE8FBE0009747
:102CF00009F438CFA5CFEFE6FBE0E4918E2F90E00A
:102D0000EFE6FBE0F4CF8430910508F02BCF880F7D
:102D1000991FFC01EF5FFD4F0190F081E02D89E0EC
:102D200090E08ECF82E190E0E1E5FBE089CF8091F9
:102D30008403882309F465CF853009F462CF80913C
:102D4000E80083FD5ECF8091E80082FD8DCF809109
:102D5000E80080FF83CF9091F3008091F20021156D
:102D6000310519F08830910550F041E0089709F0DD
:102D700040E08091E8008E778093E8006FCF449127
:102D80004093F1003196215031090196E8CF803807
:102D900009F0E8CE8091E800877F8093E800809179
:102DA00085038093F10087CE8111DCCE10918803DA
:102DB000123008F0D7CE8091E800877F8093E8003A
:102DC000109385030E943B07112311F084E005C096
:102DD0008091E30087FDFACF81E08093840342E095
:102DE00061EC81E00E945A0742E261EC84E00E94BB
:102DF0005A0742E361EC82E00E945A0742E360EC2A
:102E000083E00E945A0742E261EC85E00E945A0783
:102E1000A9CE80918803813009F0A4CE81E093305F
:102E200009F080E0809383031092E9008091E8002C
:102E3000877F8093E8000E943B0794CECF93C82FF2
:102E40001F928F938DE399E09F938F930E94B80612
:102E500061E070E080E090E004C0660F771F881F9B
:102E6000991FCA95D2F70E94B8130F900F900F9038
:102E70000F90CF910C9447140E9447142FEF84E3D6
:102E80009CE0215080409040E1F700C0000081E0CC
:102E90008093E00080E28093D8001092C9008FE117
:102EA0009EE40197F1F700C0000087E090EBDC01A1
:102EB00080939F039093A003A093A103B093A203D8
:102EC00088E19CE00FB6F894A895809360000FBE4F
:102ED00090936000FFCFBF92CF92DF92EF92FF926C
:102EE0000F931F93CF93DF9300D000D0CDB7DEB701
:102EF00019821A821B821C8287ECC82E81E0D82E90
:102F000010E000E0EE24E394F12CF60181916F01D2
:102F10008F3F09F44CC0F894E82FE295EF70F0E091
:102F200021A18F70A70102C0440F551F8A95E2F7B7
:102F3000CA01922F982B91A392A18095892382A3F5
:102F4000789400C0EBECF1E030E020E0B12C41914E
:102F50004F3F09F47CC0A42FA295AF70B0E09096CB
:102F60008C9190E04F7002C0959587954A95E2F755
:102F700080FD6DC08E2D022E01C0880F0A94EAF7E5
:102F8000B82A2F5F3F4F2630310509F7F6013197F8
:102F900080818F3F11F00E94920D50EA5A95F1F70F
:102FA000E1E0F0E0EC0FFD1FE00FF11FB0820F5FDA
:102FB0001F4F0430110509F0A8CF44E050E0BE01D6
:102FC0006F5F7F4F8EEC92E00E947B2D11E00097A7
:102FD00009F410E0892BE9F189819A81AB81BC81E8
:102FE0008093CE029093CF02A093D002B093D102EF
:102FF00081E08093C7020E944F089093C60280939D
:10300000C5022091C5023091C6024FB7F894809155
:10301000980390919903A0919A03B0919B034FBF9D
:10302000821B930B0597C8F08091CE028093D20249
:103030008091CF028093D3028091D0028093D402FA
:103040008091D1028093D5021092C70206C080E021
:1030500097CF8091C7028111D4CF812F0F900F900D
:103060000F900F90DF91CF911F910F91FF90EF90F4
:10307000DF90CF90BF90089569EE7EEF90E080E002
:103080000E94D42D60E082E090E00E94B62D60E0C6
:1030900083E090E00E94B62D1092C1021092C2020D
:1030A0001092C3021092C40260E084E090E00E949B
:1030B000B62D60E082E290E00E94B62D60E085E0EF
:1030C00090E00E94B62D60E086E090E00E94B62D70
:1030D0006FEF87E090E00E94B62D40E050E0BA012B
:1030E00088E090E00E94C82D60E08DE090E00E94B2
:1030F000B62D40E050E0BA0188E190E00E94C82D72
:1031000060E087E190E00E94B62D40E050E0BA0117
:103110008CE190E00E94C82D70E060E080E290E0D9
:103120000E94D42D40E050E0BA0188E190E00E9476
:10313000C82D40E050E0BA018FE090E00E94C82D19
:1031400040E050E0BA0183E190E00C94C82DCF92AA
:10315000DF92EF92FF92CF93DF938B3109F404C19A
:1031600008F0A3C08B3009F4BEC008F081C08630DF
:1031700009F4CCC048F4853009F4A5C08EE998E084
:103180000E941F0680E0D2C0873009F4D6C0883084
:10319000A9F783E090E00E94982D1F928F938FE90A
:1031A00095E09F938F930E94B80682E090E00E9482
:1031B000982D83FB992790F91F929F9382FB992763
:1031C00090F91F929F9381FB992790F91F929F93EB
:1031D000982F91701F929F931F928F9386E595E091
:1031E0009F938F930E94B8060E94391487FB222771
:1031F00020F91F922F9386FB222720F91F922F93ED
:1032000085FB222720F91F922F9384FB222720F988
:103210001F922F9383FB222720F91F922F9382FB6B
:10322000222720F91F922F9391FB222720F91F922A
:103230002F93292F21701F922F9381FB222720F992
:103240001F922F93282F21701F922F939F938F935C
:1032500081E794E09F938F930E94B8068DB79EB745
:1032600088960FB6F8949EBF0FBE8DBF81E05EC0FA
:10327000803109F491C080F48E3009F07FCF9091B5
:103280002003892F8B7F92FF84608093200382FF2D
:1032900080C089EC98E074C0863109F48DC0893112
:1032A00009F06CCF8AE797E020C08A3241F188F4B8
:1032B000873209F128F48E3108F460CF8D511CC09B
:1032C000893209F05BCF8CE099E00E941F060E94D2
:1032D0003C17833468F48A3308F098C0853359F07A
:1032E000883309F04BCF8CEB95E00E941F06BECFD0
:1032F000833409F043CF80E00E941E17B7CF8CE2E1
:1033000099E00E941F060E943C18B0CF80912003D4
:10331000807F809320038FE597E00E941F0688E25C
:1033200099E00E941F0681E080931F03DF91CF91F7
:10333000FF90EF90DF90CF90089590912003892F18
:103340008E7F90FF81608093200380FF03C080E028
:1033500099E0CBCF83EF98E00E941F068091200375
:10336000817F8093200382CF90912003892F8D7FCE
:1033700091FF82608093200381FF08C086EE98E071
:103380000E941F06809120038160EBCF88ED98E0BA
:10339000ACCF89EB98E0A9CF90912003892F877F4C
:1033A00093FF88608093200383FF03C08DEA98E039
:1033B000E7CF80EA98E099CF8FB7F894C090980350
:1033C000D0909903E0909A03F0909B038FBFD09127
:1033D0007803C09159010E94A108FF92EF92DF92F9
:1033E000CF921F92DF931F92CF931F928F9383E30D
:1033F00098E09F938F930E94B8068DB79EB70C9666
:103400000FB6F8949EBF0FBE8DBF30CF895374CFD7
:10341000CF93C82F882349F18CEF8C0F813A08F0A5
:1034200053C080911F038823B9F0813001F11092BD
:103430001F03EEE6F2E084E792E0DF012D91C21770
:10344000B9F18A179B07D1F76C2F8CE692E00E94A6
:103450005B08CF910C94D4128091BF02823249F75D
:103460008C2F0E94A718882321F3CF910895809173
:10347000BF028232A9F3C431B9F038F4CB3049F03D
:103480008CEB91E00E941F0611C0C93269F0C8336D
:10349000B9F78FE597E00E941F068EEB91E00E943E
:1034A0001F0681E08170DFCF10921F0380E0FACF0A
:1034B0002191C21303C0DF0111971C928E179F0741
:1034C000B9F70E94D412C0CF80E28C0F883068F424
:1034D000C77021E030E001C0220FCA95EAF7809161
:1034E000BF02822B8093BF02B4CFEBE5EC0FE33039
:1034F00040F4F0E0EA56FE4F808190E0CF910C94CA
:103500008B08C85AC73108F0B0CFEC2FF0E0EE0FAF
:10351000FF1FE756FE4F80819181CF910C94750873
:103520000F931F93CF93DF93C62FD42F022FFC014D
:1035300082818823A1F060939E030E944F0890939C
:103540009D0380939C03C77081E001C0880FCA95DA
:10355000EAF7DF91CF911F910F910C94CD138091D9
:103560009E03681343C020919C0330919D034FB785
:10357000F8948091980390919903A0919A03B09147
:103580009B034FBF821B930B883C910578F510E29B
:103590001D0F6D17B9F080E2860F883040F4C770B8
:1035A00081E001C0880FCA95EAF70E94C213183063
:1035B00048F481E09D2F977001C0880F9A95EAF733
:1035C0000E94CD13802F0E94081A802F0E94D713CB
:1035D000183098F4D77081E001C0880FDA95EAF7C7
:1035E000DF91CF911F910F910C94C213C77081E0AE
:1035F00001C0880FCA95EAF7F3CFDF91CF911F91F1
:103600000F910895CF93DF93D82FC091CD02C2FBC5
:10361000882780F98D17F9F0D0FBC2F9C093CD024D
:103620006091CC0284E090E00E94B62D6C2F82E283
:1036300090E00E94B62D8091200380FF0CC01F9265
:10364000DF9382EC91E09F938F930E94B8060F90D6
:103650000F900F900F90DF91CF9108954F925F924E
:103660006F927F928F929F92AF92BF92CF92DF9292
:10367000EF92FF920F931F93CF93DF9300D000D070
:103680000F92CDB7DEB77C01FC0183819481892B39
:1036900039F01081D180812F8D218F3F09F0C5C471
:1036A0000F900F900F900F900F90DF91CF911F917F
:1036B0000F91FF90EF90DF90CF90BF90AF909F90D1
:1036C0008F907F906F905F904F9008950E94790F38
:1036D000082F682F89819A810E941410E12FF0E051
:1036E00026E0D29EE00DF11D112438E1039FE00D8C
:1036F000F11D1124EE0FFF1FE355FC4F05911491AE
:10370000043F8CE5180709F496C0B0F5093DECE5D7
:103710001E0709F48CC00A3DFCE51F0709F497C099
:10372000083D2CE51207B1F526E241EE61EEC70136
:103730000E94901A8091BC02877009F4B1CFF70102
:103740008281882309F4ACCF82E00F900F900F9014
:103750000F900F90DF91CF911F910F91FF90EF90FD
:10376000DF90CF90BF90AF909F908F907F906F90A1
:103770005F904F900C947B13063F3CE5130709F4D0
:1037800062C008F45CC027E245EE66EE073F9CE5A8
:10379000190769F2F7018281882309F457C410924E
:1037A0009E030430FDE51F0708F054C00B3F2CE5D5
:1037B000120730F4C80182509C45449708F04FC06E
:1037C0000E9439149093CD028093CC0200318CE595
:1037D000180709F417C108F093C00830ECE51E077C
:1037E00009F4FEC008F065C004302CE5120709F4A6
:1037F000E9C008F04BC002308CE5180709F4DCC0C2
:103800008091CC02826003301C4509F4D8C06091DD
:10381000CC021091CD0284E090E00E94B62D612F81
:1038200082E290E00E94B62D0E94471483CF27E2E7
:1038300045EE65EE7CCF26E241EE60EE78CF27E2E2
:1038400045EE64EE74CF26E241EE62EE70CF28E2E0
:1038500041E0EFCF02363DE5130709F4B1CF809187
:10386000BF020631ECE51E0709F007C48A7A91E031
:1038700009F490E09093740269E2811165E38CE6AB
:1038800092E00E945B080E94D41254CF8091CC0237
:1038900080610630ECE51E0709F491C08091CC02EE
:1038A000886007301C4508F48AC08091CC02806291
:1038B00086C08091CC028D7F0C302CE5120709F474
:1038C0007EC058F40A308CE5180709F493C008F458
:1038D0008BC08091CC028E7F72C08091CC02877F9A
:1038E0000E30ECE51E0709F46AC08091CC028B7F94
:1038F0000F301C4508F463C08091CC028F7E5FC0FE
:103900000D3F2CE5120709F479C068F504318CE508
:10391000180709F48BC080F40231ECE51E0709F4A6
:1039200075C08091CC028F7B03311C4508F447C0E1
:103930008091CC02837F43C00B3F2CE5120709F432
:1039400045C008F049C005311C4509F060CF8091A1
:10395000CC0282FB992790F921E0922790FB82F913
:1039600090FB83F92CC001309DE5190709F454C080
:1039700088F48091CD0283600F3FFCE51F0749F179
:103980008091CD028D7F01151D4518F18091CD02EA
:103990008C7F1FC003303DE5130709F456C008F4BF
:1039A0004EC002361D4509F032CF9091CC02892FCE
:1039B0008F7E94FF806103C08091CC0281608093F0
:1039C000CC0225CF8091CC028460F9CF8091CD02CA
:1039D00081608093CD021BCF8091CD028260F9CFB0
:1039E0008091CC028064EBCF0E9447148091CC027E
:1039F0008068E5CF8091CC028C60E1CF8091CD02D0
:103A00008E7FE7CF8091CC028F7DD9CF0E94471463
:103A10008091CC028F77D3CF8091CD02982F909553
:103A200091708E7F892B90FB81F9D3CF0E94471430
:103A30009091CC02892F97FB87F98058C0CF61E025
:103A40008EE090E00E94B62DE2CE60E0F9CF85E3F3
:103A500006C380919203982F937021E092278C7F68
:103A6000892B809392031092580120932103809117
:103A7000200380FF5FCE1F929F9382E691E09F9389
:103A80008F9382E691E09F938F930E94B8060F90E8
:103A90000F900F900F900F900F904CCE4FEB52E184
:103AA00069EC72E10E94AD0845CE49EC52E16FEB42
:103AB00072E1F8CF44E752E16EE772E1F3CF4EE7EF
:103AC00052E164E772E1EECF4AE552E167E672E166
:103AD000E9CF47E652E16AE572E1E4CF4DE452E115
:103AE00060E472E1DFCF48EF51E163E072E1DACFE9
:103AF00043E052E168EF71E1D5CF61E081E00E94DF
:103B0000881218CE61E08DE0FACF0C359DE51907DB
:103B100051F10D351007E9F00B351D4509F0D8C2FC
:103B200081E01EC00E943C1790912003892F8E7F58
:103B300090FF81608093200380FF05C08BEA91E0B5
:103B40000E941F06F7CD89E991E0FACF0E943C1848
:103B5000F1CD8091CD0282FB882780F991E0892701
:103B60000E94021BB5C280E0FBCF812F902F0E94E4
:103B7000EB0FD82EBEC2212F2F70A22E107F19F06E
:103B8000A29420EFA222DD20C9F0AA2069F080E2F1
:103B9000800F883010F081100BC08091BF02A82ADE
:103BA000A092BF020E94D412802F0E94081A18C04F
:103BB0008091BE02A82AA092BE02F4CF802F0E945C
:103BC000D713AA2069F0A094005E083010F081108D
:103BD00045C08091BF02A822A092BF020E94D412C9
:103BE000EB2DE850FF0B349710F40E94A108CC2075
:103BF000A9F08091BC0280FD11C0F7011282859569
:103C0000859585950E949713C7010E942E1B809170
:103C1000BC028595859585950E94581385E0F7012E
:103C2000DE01119601900D928A95E1F789819A81C2
:103C30000E94EB0F9A81E981F0E026E0929FE00D6F
:103C4000F11D112438E1839FE00DF11D1124EE0FC9
:103C5000FF1FE355FC4F8591949122CD8091BE02C8
:103C6000A822A092BE02BACF312F3F70932E107FB0
:103C7000103219F0929490EF9922882071F081E02F
:103C8000881681F1DD20D9F1AA2091F1F701858113
:103C900080FF8ACF8F7085832BC0DD20B1F090919B
:103CA000C002892D892BA11003C00E94CD1398CF8B
:103CB000E1E0AE12FACF2091CD0222FD91CF98170C
:103CC00009F48ECF8093C0028BCFA11006C00E9452
:103CD000690F892D0E94C21383CFF1E0AF1609F45A
:103CE0007FCFF5CFDD2031F025E02A1508F478CF1D
:103CF000892DDBCF34E03A1508F472CFEACFAA2041
:103D000041F3F9E38F128AC12FEF37EE83E02150A0
:103D100030408040E1F700C0000080C1812F8695CF
:103D20008695837061F0813009F05ACFC801937095
:103D3000D11002C090E080E00E94750851CFC80108
:103D40009370D11002C090E080E00E948B0848CFB1
:103D5000812F837009F066C0D11042CF802F8295E9
:103D600086958770880F880F602F6F70462E512CB4
:103D7000712C612C082E04C0440C551C661C771C49
:103D80000A94D2F740E050E0BA0104FF0FC04FE0C0
:103D900050E060E070E004C0440F551F661F771FBD
:103DA0008A95D2F74095509560957095812F8695AC
:103DB00086958370823019F1D8F40091C102109178
:103DC000C2022091C3023091C402813069F04429BB
:103DD000552966297729CB01BA01602371238223F3
:103DE00093230E94B813FCCE402A512A622A732AD8
:103DF000CB01BA016429752986299729F2CF442974
:103E00005529662977290091C1021091C20220919B
:103E1000C3023091C402CB01BA0160277127822707
:103E20009327DFCF8695DD2011F0812F81708823C5
:103E300009F4D6CE802F829586958770880F880FDB
:103E4000602F6F70462E512C712C612C082E04C0EF
:103E5000440C551C661C771C0A94D2F740E050E0D5
:103E6000BA0104FF0FC04FE050E060E070E004C012
:103E7000440F551F661F771F8A95D2F740955095BE
:103E800060957095812F869586958370823019F1A3
:103E9000D8F40091C8021091C9022091CA02309151
:103EA000CB02813069F04429552966297729CB0155
:103EB000BA0160237123822393230E944E1390CE74
:103EC000402A512A622A732ACB01BA016429752932
:103ED00086299729F2CF4429552966297729009107
:103EE000C8021091C9022091CA023091CB02CB01C5
:103EF000BA016027712782279327DFCF1F70DD204B
:103F000029F0812F0E949713802FCFCE802F0E94FF
:103F1000C213812F0E94581363CE802F92EF89160F
:103F200009F454C0981578F0E0EF8E1639F1F1EFEE
:103F30008F1609F443C0DD2009F46BC0A11034CE04
:103F4000812F8F7140C023EF821609F444C034EFF3
:103F50008312F1CFDD2009F451C01F71812F0E941F
:103F600097138091CD0282FD07C0E8E01E9FC0013B
:103F7000112483608093BC02812F25C0DD20C9F00D
:103F800084E08A1508F42CCE1F7161E070E080E0B7
:103F900090E004C0660F771F881F991F1A95D2F70B
:103FA0000091C8021091C9022091CA023091CB023F
:103FB000A0CF95E09A1508F413CEE6CF812F8F712C
:103FC000DD2009F4A7CF0E9497130ACE812F8F71AD
:103FD000DD20C9F39FCF60E070E0CB01DD2009F464
:103FE0006CCF1F7161E070E080E090E004C0660F6C
:103FF000771F881F991F1A95D2F75FCF81E00E9423
:104000007B13F1E0FA1508F0EBCD82E00E947B1300
:10401000E7CDAA2039F0893309F476CE802F0E94AB
:10402000D713DECD812F8F7175CF85E0DE0111961C
:1040300001900D928A95E1F7F701228189819A8199
:10404000211144CB0E94EB0F082F48CB06311C45B1
:1040500009F03EC0809174028111F9CC89E2EEE64C
:10406000F2E024E732E09191891303C0DF01119758
:104070001C922E173F07B9F706CC82720B3C2CE539
:10408000120709F42BCD08F08DC0063C9CE51907FA
:1040900009F410CD08F070C0043CFCE51F0709F4DA
:1040A000FDCC08F002CD033C3CE5130709F4D1CC6C
:1040B0000F3DFCE51F0709F449CD08F026CD011599
:1040C0003CE5130709F42ECD01301C4509F42CCD35
:1040D000F701828110810181882309F446CD812F67
:1040E000902F0E94790FD82E682F812F902F0E9439
:1040F0001410E12FF0E026E0029FE00DF11D1124E5
:1041000038E1D39EE00DF11D1124EE0FFF1FE355A2
:10411000FC4F859194910E94EC0D8C01882EF70143
:10412000D280A580A2945FE0A5228091BC02877016
:10413000A1F0CD2CDD2091F0812F807F803421F003
:1041400080E2800F883048F082E00E947B138091EB
:10415000BC028770CC24C3948111C12CB12EB294BF
:104160003FE0B322FBE0FB1508F43ACDEB2DF0E085
:10417000E95AF14D0C94192D083C9CE5190709F4F6
:10418000A3CC08F49CCC093CFCE51F0709F4A1CCA6
:1041900040E452E16DE472E10A3C2CE5120709F4B7
:1041A00081CC86CF003D3CE5130709F4ABCCA0F4ED
:1041B0000D3CECE51E0709F49BCC08F494CC0E3CB6
:1041C0002CE5120709F499CC61E085E00F3C3CE551
:1041D000130709F494CC6CCF073D8CE5180738F42D
:1041E00061E082E1023D1C4508F489CCA3CA0E358A
:1041F000EDE51E0709F49ECA5BCF1F93CF93DF93B3
:1042000080918902807FA9F480918602882389F0B9
:104210008091BB02D0918A026091840270918502E4
:10422000A0918702B0918802C62FC72316E0D81349
:1042300004C0DF91CF911F91089590E0109711F085
:10424000CF3F19F401968770F2CF189F9001199F04
:10425000300D1124F901E557FD4F41814713F2CF8D
:1042600040814613EFCF42814111ECCF438154810D
:104270004A1B5B0B483C510528F7809189028F70DF
:10428000806180938902F901E057FD4F80818F7032
:104290008061808384E892E00E942E1BDF91CF91A1
:1042A0001F910C946F0FAF92BF92CF92DF92EF925B
:1042B000FF920F931F93CF93DF93CDB7DEB7619734
:1042C0000FB6F894DEBF0FBECDBF8C0185E0F801BC
:1042D000DE011D9601900D928A95E1F7F801E280CA
:1042E00084E8A82E82E0B82E60918702709188023F
:1042F0006115710509F432C19091840240918502E3
:10430000892F84238F3F09F429C120813181C38003
:10431000D480F0908602F601E61BF70BFF2009F42B
:10432000E8C080918902582F507FE83CF10508F0E1
:10433000ABC0511177C0FE2C431321C092131FC094
:10434000E1101DC08F70806180938902C5010E94B9
:104350002E1B80918902F80185838F2D61960FB6FF
:10436000F894DEBF0FBECDBFDF91CF911F910F91AB
:10437000FF90EF90DF90CF90BF90AF900895CD2841
:1043800029F0822F83238F3F09F003C180E0F82FAB
:10439000F170DF2E80FF3CC08091BB0240918A0209
:1043A00056E0841315C02D873E878D859E850E941B
:1043B000D00F292F22952F702230F0F0243018F5DD
:1043C0009F70F1F0F8019581907FD1F4D12C1EC03F
:1043D00090E0589FF001599FF00D1124E557FD4FD3
:1043E0006181361306C06081261303C06281E61224
:1043F0000FC001968770D5CF9F7011F0882331F3DD
:10440000805E883018F3C8010E942E1BFD2CA5CFBA
:10441000EE2009F4A2CF8091890281608093890205
:10442000F12C9BCF431306C0921304C0F801EE2079
:1044300009F479C0C8010E944210882309F1EE20D6
:10444000F9F080918902803270F0209184023091DD
:10445000850238872F831986DB86CA868C87CE0132
:1044600007960E942E1B86E0F801A4E8B2E00190B6
:104470000D928A95E1F70E94FD20FF24F3946DCF01
:10448000C8010E942E1BF9CF51110AC084E892E0A6
:104490000E942E1B86E0F50111928A95E9F7C0CFA4
:1044A00043130FC092130DC0E1100BC0F8018583B8
:1044B000C8010E942E1B86E0F50111928A95E9F74A
:1044C0004CCFC8010E9442108823D1F2EE20C1F2E5
:1044D00080918902803238F22091840230918502E5
:1044E0003A8329831B82DD82CC828E83CE010196A2
:1044F000B8CFE83CF105F8F6FE2CEE2009F24313A4
:104500001FC092131DC08091890280FD10C0982F9A
:10451000907F69F0F8018583903F31F0982F907F6C
:10452000905F8F70892B8583C8010E942E1B86E0C7
:10453000F801A4E8B2E001900D928A95E1F70DCF61
:10454000C8010E94421081118ECF80918902816042
:1045500080938902C8010E942E1BFFCEEE2009F431
:104560008FCFC8010E944210F82E882309F488CF0B
:1045700086E0F801A4E8B2E001900D928A95E1F797
:1045800080918402909185020E94D00F0E94FD20AC
:10459000E4CE81E08E25FBCE1F93CF93DF93CDB782
:1045A000DEB767970FB6F894DEBF0FBECDBF4B8B5B
:1045B0005C8B6D8B7E8B8F8B61111092BE021A8A81
:1045C000198A85E0FE017396DE011D9601900D9219
:1045D0008A95E1F786E0FE013D96DE01179601908F
:1045E0000D928A95E1F7CE0107960E945321882308
:1045F00089F016E08091BB0290918A02891349C02C
:1046000067960FB6F894DEBF0FBECDBFDF91CF9196
:104610001F91089586E0FE013796DE011196019004
:104620000D928A95E1F78A859B85892B11F38F81FD
:10463000988589238F3FE9F220918A0230E0C901F1
:104640000196877099274091BB024817190671F4AB
:104650000E94471410928A021092BB0286E0E4E89E
:10466000F2E0DF011D928A95E9F7C3CF96E0929FB1
:10467000D001939FB00D1124A557BD4FFE01319677
:1046800001900D929A95E1F780938A020E946F0F34
:10469000B0CF819FC001112485579D4F0E945321A7
:1046A000882309F4ADCF8091BB0290E0019687701A
:1046B00099278093BB029ECF1F920F920FB60F9245
:1046C00011242F933F934F935F936F937F938F9317
:1046D0009F93AF93BF93CF93DF93EF93FF93D091CB
:1046E000E900DF708091EC00C82FC17080FDC0E848
:1046F0001092E9008091F000877F8093F000789419
:104700000E9452141092E9008091F000886080931A
:10471000F000CD2BCF70C093E900FF91EF91DF91B6
:10472000CF91BF91AF919F918F917F916F915F9149
:104730004F913F912F910F900FBE0F901F901895A2
:104740001F920F920FB60F9211242F933F934F9306
:104750005F936F937F938F939F93AF93BF93EF93E9
:10476000FF938091E10082FF15C08091E20082FFFB
:1047700011C08091E1008B7F8093E100209176034E
:104780002F5F822F62E30E94E52C992309F4BEC0BB
:10479000209376038091DA0080FF28C08091D800B2
:1047A00080FF24C08091DA008E7F8093DA008091B0
:1047B000D90080FFE1C080E189BD82E189BD09B4F3
:1047C00000FEFDCF81E08093840382EC9AE00E949A
:1047D0001F0680917703811109C00E94C1060E94C3
:1047E0008C078091E20084608093E2008091E10078
:1047F00080FF1BC08091E20080FF17C08091E20023
:104800008E7F8093E2008091E20080618093E200DD
:104810008091D80080628093D80019BC85E0809395
:1048200084038AEC9AE00E941F068091E10084FFD5
:104830002DC08091E20084FF29C080E189BD82E122
:1048400089BD89B5982F917080FFFBCF8091D800EA
:104850008F7D8093D8008091E1008F7E8093E1006E
:104860008091E2008F7E8093E2008091E20081607F
:104870008093E20080918503882309F487C084E057
:10488000809384038EEC9AE00E941F068091E100E1
:1048900083FF2BC08091E20083FF27C08091E1005D
:1048A000877F8093E10082E08093840310928503E8
:1048B0008091E1008E7F8093E1008091E2008E7F05
:1048C0008093E2008091E20080618093E20042E008
:1048D00060E080E00E945A078091F0008860809339
:1048E000F00082ED9AE00E941F06FF91EF91BF91C8
:1048F000AF919F918F917F916F915F914F913F9178
:104900002F910F900FBE0F901F9018951092760365
:1049100080917503882309F43DCF8091840384300E
:10492000C1F49091E9009F702091EC00822F81707A
:1049300020FD80E8892B95E09093E9009091EB00B1
:1049400090FF04C09091EE0097FD08C08F70809397
:10495000E900109275031ECF1092F1009091E800CB
:1049600095FDFACF9091E80090FFF0CF9091E8008C
:104970009E779093E800EACF19BC1092840386ECEE
:104980009AE00E941F061092770330CF8091E300D7
:1049900087FD93E09093840375CF78941F921FB6A0
:1049A0001F9211248F939F93AF93BF93809198038D
:1049B00090919903A0919A03B0919B030196A11D38
:1049C000B11D8093980390939903A0939A03B09399
:1049D0009B03BF91AF919F918F911F901FBE1F901E
:1049E00018951F921FB61F9211248F939F93AF9318
:1049F000BF9380917003811113C0809198039091AF
:104A00009903A0919A03B0919B034196A11DB11DFA
:104A10008093980390939903A0939A03B0939B0378
:104A2000BF91AF919F918F911F901FBE1F901895BE
:104A3000CDB7DEB7CE54D1090FB6F894DEBF0FBEA6
:104A4000CDBF84B7877F84BF0FB6F894A8958091B7
:104A50006000886180936000109260000FBE80E863
:104A600090E00FB6F89480936100909361000FBEC0
:104A700085B7806885BF85B7806885BF81E890E18C
:104A800090936B0280936A020E94C1060E948C0779
:104A90008091E20084608093E200789480918403A6
:104AA0008823A1F01091E9001F709091EC00892FEC
:104AB000817090FD80E8182B1092E9008091E80049
:104AC00083FD0E9452141F701093E90082E084BDA0
:104AD00093E095BD9AEF97BD80936E0087E30E94A7
:104AE000920D82E90E94920D81E90E94920D83E964
:104AF0000E94920D0BEC11E0D8018D918D018F3F3A
:104B000011F00E94920DB1E0013D1B07A9F7109230
:104B1000CE021092D2021092CF021092D3021092C3
:104B2000D0021092D4021092D1021092D50290E0DD
:104B300080E00E94A02D893E9E4F11F00E943C18FB
:104B400082E090E00E94982D809320030E94391407
:104B50009093CD028093CC0283E090E00E94982D48
:104B6000682F70E090E080E00E94B81390E080E051
:104B70000E94A02D893E9E4F81F08091200380FFEE
:104B800008C082E393E09F938F930E94B8060F9032
:104B90000F900E943C180E94101446E050E06CE117
:104BA00070E082E993E00E94882D809192038C7FCF
:104BB00071F48091200380FF08C08DED92E09F93F7
:104BC0008F930E94B8060F900F900E94101480914E
:104BD000200380FF89C083EC92E09F938F930E9413
:104BE000B806809120030F900F9080FF7DC08091C8
:104BF000920383701F928F9384EA92E09F938F9326
:104C00000E94B806809120030F900F900F900F9094
:104C100080FF6AC080919203869586951F928F933C
:104C200087E892E09F938F930E94B80680912003BB
:104C30000F900F900F900F9080FF56C080919303BC
:104C40001F928F9389E692E09F938F930E94B806FC
:104C5000809120030F900F900F900F9080FF44C021
:104C6000809194031F928F938BE492E09F938F9394
:104C70000E94B806809120030F900F900F900F9024
:104C800080FF32C0809195031F928F938DE292E056
:104C90009F938F930E94B806809120030F900F90EE
:104CA0000F900F9080FF20C0809196031F928F93EA
:104CB0008FE092E09F938F930E94B806809120032B
:104CC0000F900F900F900F9080FF0EC08091970370
:104CD0001F928F9381EF91E09F938F930E94B8066C
:104CE0000F900F900F900F9084E091E090936D03E0
:104CF00080936C0384E693E00E941F0668E1C62E51
:104D0000D12C82ED92E024E0280F2F962FAF2F9721
:104D100080918403853089F48DE694E00E941F061B
:104D200050E4F52E00E112E180918403853009F40E
:104D30005EC00E9447140E94A1080E946B1788233E
:104D400059F08FB7F894409198035091990360916E
:104D50009A0370919B038FBF4BED52E02D965FAF8E
:104D60004EAF2D9722ED422E22E0522E10E000E0B1
:104D70003FE7632E33E0732E47E7A42E43E0B42EC3
:104D80002E960FAF2E97D2013D902D012D96EEADB0
:104D9000FFAD2D9721902D96FFAFEEAF2D972310ED
:104DA0005DC00F5F1F4F0430110551F78FEF27963D
:104DB0008FAF279728968FAF289729961FAE2997F0
:104DC0000E944F088160782F2B969FAF8EAF2B9754
:104DD00027964FAD279728965FAD289729966FADF8
:104DE00029972B968FAD2B970E94CC226FC0809174
:104DF0008403843009F1109270030FB6F894A895DB
:104E0000C09260000FBEF092600083B7817F846023
:104E100083BF83B7816083BF7894889583B78E7F83
:104E200083BF0FB6F894A895809160008861809345
:104E30006000109260000FBE80918303882309F404
:104E400073CF0E946B17E2EDF2E08191811195C55D
:104E50002F963FAD2F973E13F8CF66CF809120035A
:104E600081FDB4C0232480E0FF24F394922D9F2180
:104E700009F4DCC022968FAF22972E962FAD2E9785
:104E800023962FAF23973F2081E009F480E02496FA
:104E90008FAF24970E944F088160782F26969FAF8E
:104EA0008EAF269722964FAD229723965FAD23971C
:104EB00024966FAD249726968FAD26970E94CC221C
:104EC000F801E552FD4F8081F826F0828FB7F89403
:104ED000409198035091990360919A0370919B03BC
:104EE0008FBF4093D6025093D7026093D80270933D
:104EF000D90280919203382F3370B32E19F0B82E57
:104F0000B694B69490915801913009F4A3C09923B6
:104F100009F492C0923009F476C3933009F47BC34C
:104F20000E94A1089091DA02891739F10E94A10824
:104F3000182F8093DA028091200382FF1EC080FF29
:104F40001CC08AE993E00E941F068091200380FF25
:104F500014C01F921F9385E993E09F938F930E9443
:104F6000B806809120030F900F900F900F9080FF54
:104F700004C083E993E00E941F068091840384307B
:104F800009F0C6CE83E08093E9008091E80082FFBB
:104F9000BFCE8091E80090E085FF06C00E94E00649
:104FA000882309F465C391E08091E8008B778093B2
:104FB000E800992309F4ACCEE981E150E93008F02A
:104FC0007AC3F0E0ED59F14D0C94192D84E893E08B
:104FD0000E941F0692ED892E92E0992EF12CE12C71
:104FE000FF92EF927F926F920E94B8068CE793E057
:104FF0000E941F06D4018D914D010E9469101F92DD
:105000008F93BF92AF920E94B80685E793E00E940B
:105010001F06BFEFEB1AFB0A0FB6F894DEBF0FBEF8
:10502000CDBFF4E0EF16F104D9F61CCF8F5FFF0C73
:10503000863009F01BCFB5CE10925A0140938E03F3
:1050400050938F03609390037093910381E080935A
:10505000580166CF90910F01B91223C0837020913F
:105060000E0130E091E08217130609F490E0892FD9
:10507000817080935C018091970390915B019817F8
:1050800039F080935B0140E060E080E00E94C80856
:105090004CE14B1560F0EB2DF0E0E459F14D0C9430
:1050A000192D81E0E5CF80915C01811102C010E0F3
:1050B00027C040E060E080E00E94C808F8CF8091FF
:1050C0005A01082F000F000F080F85E0F82EF00E90
:1050D000EF2C58E15F1510F418E1E12E6091930375
:1050E00070919403809195030E946D0BA62E972ECC
:1050F000882E10E00E15B0F011E087E18F15B8F2A0
:1051000080915A018F5F80935A01111109CF82E07B
:105110008093580180915C01811102CFB11000CFC2
:1051200083E095CFF801EF5AFD4F808190915B01AC
:10513000892331F0282D4A2D692DC8010E94CA0803
:105140000F5F1F4FD7CF80915A01082F000F000F1C
:10515000080FB5E0FB2EF00EEF2C98E19F1510F430
:10516000A8E1EA2E60909403709095031091930348
:10517000612F762D872D0E946D0BA62E972E882EDF
:1051800060919603610F762D872D0E946D0B762E10
:10519000672E582E10E00E1530F011E0A7E1AF1584
:1051A00008F0AECF84CFF801EF5AFD4F9081809187
:1051B0005B01892359F0252D472D662D90FD03C0F5
:1051C000282D4A2D692DC8010E94CA080F5F1F4F64
:1051D000E2CF80915A01082F000F000F080FF5E071
:1051E000FF2EF00EAF2CB8E1BF1510F4E8E1AE2EA3
:1051F00090909403809095032091960370E4E72E9D
:105200003E2D329F312D1124E32E10E00A1530F08F
:1052100011E047E14F1508F073CF49CFF801EF5A7D
:10522000FD4F808190915B018923B9F0F801EE0F69
:10523000FF1FE75FFD4F818D82958F706091930313
:105240008E9D600D1124792D882D0E946D0B462FA7
:10525000282F672FC8010E94CA080F5F1F4FD6CFA3
:1052600080915A01082F000F000F080F55E0F52E0E
:10527000F00EAF2C58E15F1510F448E1A42E909089
:105280009403809095032091960330E4E32E3E2D05
:10529000329F312D1124E32E10E00A1508F0B8CF0B
:1052A000F801EF5AFD4F808190915B018923D9F07D
:1052B000F801EE0FFF1FE75FFD4F608DE69EB00126
:1052C000112425E0759567952A95E1F78091930360
:1052D000680F792D882D0E946D0B462F282F672F80
:1052E000C8010E94CA080F5F1F4FD7CF80915A0193
:1052F000182F110F110F180F85E0F82EF10EEF2C5B
:1053000058E15F1510F408E1E02EA090930300919E
:1053100094039090950360919603669566956695C3
:1053200080918E0390918F030E94630B0E94C90AA3
:10533000805887FD8195880F282F392D239F212D97
:105340001124822F6A2D702F0E946D0BA62E972E8E
:10535000882E012F10E00E1508F05ACFF801EF5AF1
:10536000FD4F808190915B01892331F0282D4A2DDA
:10537000692DC8010E94CA080F5F1F4FECCF84ED52
:1053800099E00E94010C07C08AEA99E0FACF8BEA03
:105390009AE00E94320D182FB3CE8CE89AE0F9CF34
:1053A00081E79AE00E94B10CF6CF85E59AE0FACF4A
:1053B00088EA99E0E6CF8FE999E0E3CF86E999E0C2
:1053C000E0CF8DE799E0DDCF8FE699E0EBCF8BE37F
:1053D0009BE0DFCF84E49AE0DCCF80E39AE0E2CF89
:1053E00082E499E00E944F0CD6CF84E199E0FACF95
:1053F0008DED98E0F7CF10915C0111111DC0609107
:10540000960320E1620F08F46FEF80918E03909174
:105410008F030E94630B6AE070E00E94F12C892BDD
:1054200009F045CE0E946B2DB6010E94052D6091BA
:105430005B010E94901164CE80915A01082F000FE9
:10544000000F080F15E0A12EA00E8A2D58E15A1565
:1054500008F488E110E0E82EF12C0E151F0534F059
:1054600011E087E18A1508F04BCE21CE60915B01F7
:10547000C8010E9490110F5F1F4FEFCF10915C0188
:1054800011111DC06091960320E1620F08F46FEFC7
:1054900080918E0390918F030E94630B65E070E012
:1054A0000E94F12C892B09F002CE0E946B2DB601CF
:1054B0000E94052D60915B010E94691121CE8091AF
:1054C0005A01082F000F000F080FB5E0AB2EA00EF9
:1054D0008A2D98E19A1508F488E110E0E82EF12C65
:1054E0000E151F0534F011E0A7E1AA1508F008CE4B
:1054F000DECD60915B01C8010E9469110F5F1F4FF3
:10550000EFCF80915A01082F000F000F080FA5E080
:10551000FA2EF00EEF2CB8E1BF1510F4F8E1EF2EE3
:1055200090909403A090950310919303609196033B
:1055300066956695669580918E0390918F030E9483
:10554000630B0E94C90A805887FD8195880F682FD8
:105550002CE0629F612D1124610F792D8A2D0E940C
:105560006D0BA62E972E882E10E00E1530F011E050
:10557000E7E1EF1508F0C4CD9ACDF801EF5AFD4FE1
:10558000808190915B01892331F0282D4A2D692D6E
:10559000C8010E94CA080F5F1F4FE7CF88EE9AE04C
:1055A000F0CE8CEC98E0EDCE80915A01082F000FE0
:1055B000000F080FE5E0AE2EA00E9A2CF8E1FA15C8
:1055C00010F478E1972EE02EF12C23E0029F800169
:1055D0001124005F1E4FE91430F011E0E7E1EA15F5
:1055E00008F08ECD64CDD80112962C9112974C9173
:1055F00011966C91C7010E94CA080D5F1F4FBFEF43
:10560000EB1AFB0AE8CFB0920F01837080930E0172
:105610000E94421185CD80912103882341F046E00C
:1056200050E06CE170E082E993E00E94A62D1092B8
:10563000210340918E0350918F03609190037091EC
:1056400091032FB7F8948091980390919903A091BA
:105650009A03B0919B032FBF841B950BA60BB70B2E
:105660004097A105B10508F45BCC1092580158CCC5
:1056700000E410E09E012F5F3F4F79018091E80028
:1056800085FD0AC08091E8008B778093E8000E9436
:10569000E006882399F387CC8091F100D7018D93A0
:1056A0007D010150110951F77ECC81E08093DF022A
:1056B0008CE08093E0028981893009F429CB84E66B
:1056C00080931E0380918403843009F51091E900D2
:1056D0001F709091EC00892F817090FD80E8182B4D
:1056E00082E08093E9008091E80080FF0DC050E0E7
:1056F00040E060E470E08FED92E00E94110780913D
:10570000E8008E778093E8001F701093E900EFEDBA
:10571000F2E080E4DF011D928A95E9F7F9CA82E0A0
:105720008093DF02E9E6F1E0A0EEB2E08191882308
:1057300011F28D93FBCF83E08093DF0288E18093A9
:10574000E0028093E102A2E8B1E083E090E03D91C5
:1057500021E0280FFC01E152FD4F311110C01082F1
:10576000A7E8B1E0822F8A1BE82FEA0F9D919923C9
:1057700009F4A1CFF0E0E152FD4F9083F5CF3083E3
:105780000196E5CF30919303209194039091950376
:1057900084E08093DF0280919203869586958093C2
:1057A000E002809196038093E1023093E20220931D
:1057B000E3029093E4027FCF4A815B8185E080938E
:1057C000DF02540FA12C39E1732E66E0B62E541778
:1057D00009F471CF8A2D90E08C010E511D4F483194
:1057E00010F1F801708269E072E030E020E08B0196
:1057F000F0E0E0E0D801FD908D01F41609F4D3C08B
:105800003196E630F105B1F72F5F3F4F6A5F7F4F6A
:105810002430310561F781529D4FFC0117824F5FA3
:10582000F7E0AF0ED4CF642F70E0FB01EE0FFF1F47
:10583000EF5DFD4F2081FC01E152FD4F21834B01C3
:10584000880C991C9401275F3D4FD9015996FC9013
:10585000F2829B012F5A3D4FD901FC90D801FC9256
:105860009401260F371F205F3E4FD90111966C918E
:10587000119764836C91658312962C912683B3CF24
:1058800086E08093DF02E1EDF1E0A0EEB2E08191ED
:105890008D9321E0ED3EF207D1F70DCF0A81FB8019
:1058A000EC808D81BE809F8127E02093DF028D31C7
:1058B00020F089E180931D03FECE10E0913079F451
:1058C00061E00E94881261E08B2D0E94D61121E0D8
:1058D0004E2D6F2DC8010E940E1282E3EBCF60E0C7
:1058E0000E94881260E08B2D0E94D61120E0F0CF3C
:1058F000EA814B813C812D8188E08093DF02E83191
:10590000C0F68E2F90E0FC01EE0FFF1FE80FF91F8D
:10591000E05FFE4F418330832283DFCF6A813B818A
:1059200020E0321709F4C7CE822F880F820F90E053
:10593000E62FE20FF0E0AF01440F551FE40FF51F13
:10594000E05FFE4FA4E0B0E0AC0FBD1FA80FB91F91
:105950004C914183A5E0B0E0AC0FBD1FA80FB91F6B
:105960004C91408346E050E04C0F5D1F840F951F23
:10597000DC018C9182832F5FD4CF09BD19BD09B49E
:1059800000FEFDCF8091D8008F7D8093D80080915C
:10599000E00082608093E0008091E00081FDFCCF18
:1059A0000E944714C1C9B29EB001B39E700D11246C
:1059B000E60FF71FEE0FFF1FE355FC4FE4918152F6
:1059C0009D4FDC011796EC932ACF991B79E004C018
:1059D000991F961708F0961B881F7A95C9F780952E
:1059E0000895AA1BBB1B51E107C0AA1FBB1FA61726
:1059F000B70710F0A61BB70B881F991F5A95A9F778
:105A000080959095BC01CD01089597FB072E16F463
:105A1000009407D077FD09D00E94F12C07FC05D037
:105A20003EF4909581959F4F0895709561957F4FB5
:105A30000895EE0FFF1F0590F491E02D09948F92C9
:105A40009F92AF92BF92CF92DF92EF92FF92CF934D
:105A5000DF93EC01688179818A819B8161157105F1
:105A60008105910521F464E279ED8BE597E02DE164
:105A700033EF41E050E00E94DA2D49015A019B01C9
:105A8000AC01A7EAB1E40E94F92D6B017C01ACEEF8
:105A9000B4EFA50194010E94072EDC01CB018C0D0F
:105AA0009D1DAE1DBF1DB7FF03C00197A109B048E2
:105AB00088839983AA83BB839F77DF91CF91FF90DF
:105AC000EF90DF90CF90BF90AF909F908F90089510
:105AD0000E941F2D089580E091E00E941F2D0895DF
