:100000000C94AF030C94F6030C94F6030C94F603D3
:100010000C94F6030C94F6030C94F6030C94F6037C
:100020000C94F6030C94F6030C94F6290C94CA2A4B
:100030000C9469240C94F6030C94F6030C94F603C8
:100040000C94F6030C94F6030C94F6030C94F6034C
:100050000C94F6030C94C0240C94F6030C94F60351
:100060000C94F6030C94F6030C94F6030C94F6032C
:100070000C94F6030C94F6030C94F6030C94F6031C
:100080000C94F6030C94F6030C94F6030C94F6030C
:100090000C94F6030C94F6030C94F6030C94F603FC
:1000A0000C94F6030C94F6030C94F60329001E003E
:1000B0001F0020002100220023002400250026002C
:1000C00027002D002E002A002B0014001A00080023
:1000D000150017001C0018000C00120013002F0060
:1000E00030003100394104001600070009000A0001
:1000F0000B000D000E000F00330034004C002800F0
:10010000E10000001D001B000600190005001100A1
:100110001000360037003800E1001150E000E30025
:10012000E2000000000000002C00000000000000C1
:10013000E200E3007600E0000100010001000100A0
:1001400001000100010001000100010001000100A7
:100150000100010001000100010001000100010097
:100160000100010001005F0060006100010001006A
:100170000100010001000100010001000100010077
:1001800001005C005D005E000100580001000000FD
:1001900001000100010001000100010001006200F6
:1001A00059005A005B00010001000100010000003D
:1001B000000000000100000000000000010001003C
:1001C0000100010001000100010001000100010027
:1001D0000100010001000100010001000100010017
:1001E0000100010001000100010001000100010007
:1001F00001000100010001000100010001000100F7
:1002000001000100010001000100010001000100E6
:1002100001000100010001000100000001000100D7
:1002200001000100010001000100010001000100C6
:1002300001000100010001000100000000000000B9
:1002400001000000000000000100010001000100A9
:100250000100010001000100010001000100010096
:100260000100010001000100010001000100010086
:100270000100010001000100010001000100010076
:100280000100010001000100010001000100010066
:100290000100010001000100010001000100010056
:1002A0000100010001000000010001000100010047
:1002B0000100010001000100010001000100010036
:1002C000010001000100000000000000010000002A
:1002D000000000000100010001000100000000001A
:1002E000000000002A2B2800000000000000000091
:1002F0000000000000000029000000002C1E342037
:10030000212224342627252E362D3738271E1F205C
:100310002122232425263333362E37381F040506A1
:100320000708090A0B0C0D0E0F10111213141516E5
:100330001718191A1B1C1D2F3130232D35040506E3
:100340000708090A0B0C0D0E0F10111213141516C5
:100350001718191A1B1C1D2F3130354C00000000D6
:10036000000000000000000000000000000000008D
:10037000000000000000000000000000000000007D
:100380007E0F00D4FFFFFFC70000007800047F3F0E
:100390001F643214643214783C1E1E140A05222392
:1003A000252628292A2C2D2F3032333536383A3B52
:1003B0003D3E4042434547494A4C4E5051535557A4
:1003C000595A5C5E6062646668696B6D6F717375C3
:1003D00077797B7D7F81838587898A8C8E909294C3
:1003E00096989A9C9E9FA1A3A5A7A8AAACAEAFB1D0
:1003F000B3B4B6B8B9BBBCBEBFC1C2C3C5C6C7C91A
:10040000CACBCCCDCED0D1D2D2D3D4D5D6D7D7D8D3
:10041000D9D9DADADBDBDBDCDCDCDCDCDDDDDDDD25
:10042000DCDCDCDCDCDBDBDBDADAD9D9D8D7D7D62D
:10043000D5D4D3D2D2D1D0CECDCCCBCAC9C7C6C5E4
:10044000C3C2C1BFBEBCBBB9B8B6B4B3B1AFAEAC2A
:10045000AAA8A7A5A3A19F9E9C9A98969492908ED5
:100460008C8A89878583817F7D7B79777573716FAE
:100470006D6B6968666462605E5C5A59575553518A
:10048000504E4C4A4947454342403E3D3B3A383640
:10049000353332302F2D2C2A292826252322FFAA56
:1004A0007F55400001010101010101010102020229
:1004B0000202020202020303030303030303040410
:1004C00004040404040505050505060606060607DA
:1004D0000707070708080808090909090A0A0A0B93
:1004E0000B0B0C0C0C0D0D0D0E0E0E0F0F0F101034
:1004F00011111112121313141415151616171718BB
:100500001819191A1A1B1B1C1D1D1E1E1F20202125
:100510002222232424252626272829292A2B2C2D6C
:100520002D2E2F30313232333435363738393A3B8D
:100530003C3D3E3F404142434445464748494A4C82
:100540004D4E4F50515354555658595A5B5D5E5F4E
:10055000616264656668696B6C6D6F7072737577E4
:10056000787A7B7D7E8082838587888A8C8E8F9146
:10057000939596989A9C9EA0A2A3A5A7A9ABADAF70
:10058000B1B3B5B7BABCBEC0C2C4C6C9CBCDCFD15A
:10059000D4D6D8DBDDDFE2E4E7E9EBEEF0F3F5F803
:1005A000FAFDFF0C034B00610079003600300000BB
:1005B0000022034D006500630068006C006F007648
:1005C0000069006E0020005300740075006400692B
:1005D000006F0000000403090409025B000301002E
:1005E000A0FA090400000103010100092111010022
:1005F000012240000705810308000A0904010002E6
:1006000003000000092111010001222200070582D8
:100610000320000107050303200001090402000173
:100620000300000009211101000122B60007058422
:100630000320000A12010002000000084C4D0106D0
:100640000100010200010660FF0961A101096215B4
:100650000026FF009520750881020963150026FF1A
:1006600000952075089102C005010902A1018502CB
:100670000901A1000509190129081500250195089E
:10068000750181020501093009311581257F950227
:100690007508810609381581257F95017508810641
:1006A000050C0A38021581257F950175088106C061
:1006B000C005010980A101850319012AB7001501B0
:1006C00026B700950175108100C0050C0901A10134
:1006D000850419012AA002150126A00295017510B2
:1006E0008100C005010906A1018505050719E0295A
:1006F000E7150025019508750181020507190029F4
:10070000EF1500250195F0750181020508190129F1
:1007100005950575019102950175039101C00501CB
:100720000906A101050719E029E71500250195082B
:10073000750181029501750881010507190029FFDE
:10074000150026FF00950675088100050819012986
:1007500005950575019102950175039101C011245C
:100760001FBECFEFDAE0DEBFCDBF04B603FE27C069
:1007700080911F0390912003A0912103B091220347
:100780008730904BA740B04BD1F410921F031092CA
:100790002003109221031092220314BE84B7877F96
:1007A00084BF0FB6F894A89580916000886180930B
:1007B0006000109260000FBEE0E0F8E3099511E0E0
:1007C000A0E0B1E0E2E7FBE502C005900D92A23D9A
:1007D000B107D9F723E0A2EDB1E001C01D92AF311E
:1007E000B207E1F70E9491130C94802D0C94000045
:1007F00081E0089581E008950C94FA0308950C9423
:10080000FE031F93CF93DF9300D000D00F92CDB79C
:10081000DEB749835A836B833091D40189819A81F1
:1008200031111DC06623B9F02223A9F00E94650A88
:10083000182F682F89819A810E94110A69817A8113
:10084000812F0F900F900F900F900F90DF91CF910D
:100850001F910C9413200E943D0A182FEFCF0E9485
:10086000650A69817A81EDCFFC01262F4081518193
:100870006281738184810C94010481E00895CF9397
:10088000DF93EC0160E00E943404BE01DF91CF9160
:100890000C94FF03E1E0F0E0DF0102C0AA0FBB1FF0
:1008A0006A95E2F7BD01DF0102C0AA0FBB1F4A959E
:1008B000E2F76A2B01C0EE0F2A95EAF7962F9823EC
:1008C000961302C08E2B0895E0958E230895242F51
:1008D000462F682F8091F0010E944A040C94CE09A3
:1008E0000E9408120E94CA050C9423120C9426122E
:1008F00008950E9466090E9478042FEF84E39CE02B
:10090000215080409040E1F700C000000C94E424A6
:100910000F931F93CF93DF938C0161E00E94340407
:10092000EC01B8010E94FA1D882309F441C0B80106
:10093000CE010E94FC038823D9F1B801CE010E94A8
:100940004A218823A9F1B801CE010E949C21882365
:1009500079F1B801CE010E94C622882349F1B8017D
:10096000CE010E94AC1C882319F1F80182818823F2
:1009700061F0CA35FDE5DF0721F170F4C115ECE542
:10098000DE07A1F0CE3DDC45C9F0C801DF91CF9173
:100990001F910F910C94F803CB358DE5D807A1F08A
:1009A000CC35DD4591F70E94B50DEFCF0E9479045B
:1009B00080E0DF91CF911F910F9108950E941E0F4B
:1009C000F7CF0E94BE0DE1CF0E94C10DDECFDF92B6
:1009D000EF92FF920F931F93CF93DF93E82FF0E0F6
:1009E000E452FD4FD490282F26952695269530E089
:1009F000F901E458FC4F0491877010E0082E02C002
:100A0000159507950A94E2F701701127F901E45949
:100A1000FC4FE490F12C082E02C0F594E7940A9460
:100A2000E2F791E0E922FF24F901E45AFC4FC49176
:100A3000D0E002C0D595C7958A95E2F7C170DD2751
:100A40000115110519F081EE0E941806E114F10458
:100A500019F086EE0E9418068D2D0E941707EF28C8
:100A600019F086EE0E94AA06012B19F081EE0E9471
:100A7000AA06CD2B51F08CE2DF91CF911F910F91FF
:100A8000FF90EF90DF900C941707DF91CF911F91AB
:100A90000F91FF90EF90DF900895EF92FF920F93E8
:100AA0001F93CF93DF93EC01162F0AE088818823F0
:100AB00009F454C0813009F04EC08981813099F425
:100AC0007E0122E0E20EF11C8A810E941707E701F5
:100AD0002196812F815050F3EFE9FFE03197F1F734
:100AE00000C00000F7CF823041F47E0182E0E80EC2
:100AF000F11C8A810E941806EACF833041F47E01FE
:100B0000E2E0EE0EF11C8A810E94AA06E0CF84305A
:100B100011F02196DDCF2A81229690E080E0AE018F
:100B20004F5F5F4F2053330B2A30310548F0019758
:100B300078F2EFE9FFE03197F1F700C00000F7CF5E
:100B4000089FB001099F700D1124C901860F971FDE
:100B50002981EA01E4CF0E94E704BACFDF91CF9167
:100B60001F910F91FF90EF90089560E00C944D0558
:100B700008950C94B80581E00895CF93C82F0E9482
:100B8000BB05882319F0C1FF03C0289ACF910895AF
:100B90002898FCCF209A28980895CF93C82F0E94B8
:100BA000B9058C2FCF910C94BD05CF93DF93CDB7B2
:100BB000DEB72B970FB6F894DEBF0FBECDBF4F83C5
:100BC000588769877A878B8761110E94E40D1E829E
:100BD0001D8285E0FE013796DE01119601900D928F
:100BE0008A95E1F78C819D81892B89F449815A810D
:100BF0006B817C818D819E810E94E40C2B960FB6C7
:100C0000F894DEBF0FBECDBFDF91CF9108958981EB
:100C10009A8189238F3F51F3CE0101960E943D04B2
:100C20008111E4CFEBCFFC01808191810C94920A79
:100C3000CF93C82F882309F48BC08238C1F40E9457
:100C4000F52281FD85C089E30E947E0D0E94070E7A
:100C50002FEF81EE94E0215080409040E1F700C0FA
:100C6000000089E30E94850DCF910C94070E833814
:100C7000A1F40E94F52280FD6BC083E50E947E0DE9
:100C80000E94070E2FEF81EE94E0215080409040AB
:100C9000E1F700C0000083E5E5CF8438A1F40E94AD
:100CA000F52282FD55C087E40E947E0D0E94070E4A
:100CB0002FEF81EE94E0215080409040E1F700C09A
:100CC000000087E4CFCF8CEF8C0F813A90F46C2F2B
:100CD00080910001909101010E946923882329F0ED
:100CE0008C2F0E94850D0E94070E8C2F0E947E0D76
:100CF000BBCF80E28C0F883048F4C77081E001C020
:100D0000880FCA95EAF70E94C70DAECFEBE5EC0F4E
:100D1000E33040F4F0E0EA5AFE4F808190E0CF915A
:100D20000C942923E8E5EC0FE73150F4F0E0EE0FE6
:100D3000FF1FE85DFE4F80819181CF910C943F238E
:100D4000C03F30F08C2F0E941F14CF910C94F214EE
:100D5000CF910895882309F452C0823871F40E941B
:100D6000F52281FF4CC089E30E947E0D0E94070E90
:100D700089E30E94850D0C94070E833859F40E9474
:100D8000F52280FF3CC083E50E947E0D0E94070E85
:100D900083E5EFCF843859F40E94F52282FF2FC0FB
:100DA00087E40E947E0D0E94070E87E4E2CF9CEF4D
:100DB000980F913AF0F290E2980F983050F48770C3
:100DC00091E001C0990F8A95EAF7892F0E94CD0D15
:100DD000D2CF9BE5980F933020F490E080E00C9404
:100DE000292398E5980F973120F490E080E00C9447
:100DF0003F23803F20F00E9479140C94F214089550
:100E00001F93CF93DF93182FEB010E9418062097B2
:100E100031F4812FDF91CF911F910C94AA068FE9B5
:100E20009FE00197F1F700C000002197F0CF70E03C
:100E300060E0893311F460E570E00C9400078823CA
:100E400021F00E94C70D0C94070E0895882321F00D
:100E50000E94CD0D0C94070E0895BF92CF92DF92A1
:100E6000EF92FF920F931F93CF93DF936C01D62FD6
:100E7000C72FFC011281058102950F700E949C0D05
:100E8000E82E8823A1F0E12E112389F08C2F807F9A
:100E9000803429F080E28D0FE12C883040F082E030
:100EA0000E94580E0E949C0D91E0E82EE926BC2E6F
:100EB000B2949FE0B922FBE0FB1598F1EB2DF0E036
:100EC000EE57F24D0C94D42C0C2F0F70C07F11F004
:100ED0000295007F1123A9F0002359F080E28D0FC5
:100EE000883010F0D11109C0802F0E94C70D0E94D8
:100EF000070E8D2F0E94180614C0802F0E94D70D58
:100F0000F6CF8D2F0E94AA06002359F080E28D0FA4
:100F1000883010F0D1112CC0802F0E94CD0D0E947E
:100F2000070E2B2D2850330B2430310520F40E945E
:100F3000F5220E94CD05EE2009F469C10E94980DAA
:100F400080FD65C1F60112820E94920D0E94DF09A8
:100F5000C6010E9428090E94920DDF91CF911F9136
:100F60000F91FF90EF90DF90CF90BF900C94EA0923
:100F7000802F0E94DD0DD3CF2C2F2F70F22EC07F3B
:100F8000C03219F0F29480EFF822DD2369F0D130FD
:100F900049F1112391F1002351F1F601858180FF80
:100FA000A8CF8F70858323C0112381F0011106C063
:100FB0000E94EA0D8F290E941F07B3CF0130C1F7AD
:100FC0000E94EA0D8F290E94F00DABCF011106C0DF
:100FD0000E94FD0D8F2D0E942607A3CF013009F43A
:100FE000A0CFF6CF112329F0063008F09ACF8F2D2D
:100FF000E2CF053008F095CFEDCF002359F3D93378
:1010000049F4FFEF27EE33E0F15020403040E1F7A4
:1010100000C000008D2F0E94AA0683CF8C2F8695DA
:101020008695837069F0813009F07BCF8D2F9C2FDE
:101030009370111102C090E080E00E943F2371CFB5
:101040008D2F9C2F9370111102C090E080E00E94C0
:10105000292367CF8D2F112329F00E941F140E948E
:10106000F2145FCF0E947914FACF8C2F837079F538
:10107000111157CF4D2F429546954770440F440F9D
:101080008D2F8F70042E01C0880F0A94EAF72D2F40
:101090002071D4FF07C02FE030E001C0220F4A9535
:1010A000EAF72095C695C695C370822BC23049F0E9
:1010B00058F4C13019F00E94C00933CF0E94BB0917
:1010C00030CF0E94C5092DCF0E94B9092ACF86953D
:1010D000112311F08C2F8170882309F422CF4D2F1A
:1010E000429546954770440F440F8D2F8F70042E04
:1010F00001C0880F0A94EAF72D2F2071D4FF07C092
:101100002FE030E001C0220F4A95EAF72095C695FE
:10111000C695C370822BC23049F058F4C13019F023
:101120000E94060AFECE0E94010AFBCE0E940B0A14
:10113000F8CE0E94CE09F5CECF70112329F08C2F66
:101140000E94DF098D2F37CF8D2F0E9426078C2F0D
:101150000E94EA09E6CED23F89F160F4D03FC9F09F
:10116000D13F29F1112309F442C00111C2CE8C2FC5
:101170008F7121C0D33F39F1D43FA1F7112369F119
:10118000CF718C2F0E94DF0963E08C2F0E943D0EEF
:10119000C8CE112341F0053008F0C3CE8C2F8F71DB
:1011A0000E94F609BECE063008F0BBCEF7CF8C2FDA
:1011B0008F71112369F20E94DF09B3CE8C2F8F71DA
:1011C0001123C9F3C5CF112329F08C2F8F710E94F1
:1011D000D709A7CE0E94D409A4CE81E00E94580E60
:1011E000023008F49ECE82E00E94580E9ACE002370
:1011F00059F0D93309F00ECF8FEF97EEE3E081502D
:101200009040E040E1F704CF8C2F8F71A1CFDF91A8
:10121000CF911F910F91FF90EF90DF90CF90BF90F3
:1012200008950F931F93CF93DF93EC016881798129
:101230008A810E949C0A8C010E94100A0E94B809AF
:10124000B801CE01DF91CF911F910F910C942D0722
:10125000CF93DF93EC018B819C81892B29F08881CE
:10126000998189238F3F59F4DF91CF910895CE0161
:101270000E941109CE01DF91CF910C943F04CE0161
:101280000E9488048111F3CF0E949C0D882361F392
:101290008A81882349F382E0DF91CF910C94580E24
:1012A00090E080E00E94292390E080E00E943F23AC
:1012B0000E94E40D0E94E70D0E94070E0E9419167D
:1012C0000C94F2140E948C0D0C9450090E94D40DC1
:1012D0000C946209E92FE295EF70E250EE3070F461
:1012E000F0E0E257F24D0C94D42C803F19F020F43A
:1012F000883E20F481E00895843FE1F380E0089582
:10130000883EC0F3813FD1F7F5CF93FB882780F962
:101310000895FC01808191810E94920A0C946A09CF
:10132000CF93DF9300D000D00F92CDB7DEB70F90F0
:101330000F900F900F900F90DF91CF910895CF9362
:10134000DF9300D000D000D0CDB7DEB726960FB621
:10135000F894DEBF0FBECDBFDF91CF910895089501
:101360000C94AF090E94B0098093F1010C945009CC
:1013700008950C94B2099091F101892B0C94B20953
:101380009091F10189230C94B2099091F101892780
:101390000C94B2090C94AF090C94CA090E94CC09B0
:1013A0008093F0010C94500980E00C94CE0991E0F8
:1013B00001C0990F8A95EAF7892F0C94CE0921E094
:1013C00030E001C0220F8A95EAF78091F001822B6C
:1013D0000C94CE0921E030E001C0220F8A95EAF793
:1013E00020958091F00182230C94CE0921E030E019
:1013F00001C0220F8A95EAF78091F00182270C94B0
:10140000CE099091F001892B0C94CE099091F001B6
:1014100089230C94CE099091F00189270C94CE0970
:1014200008952EE0929F800D1124982F977041E02F
:1014300001C0440F9A95EAF786958695869593E0C4
:10144000899FF0011124EB52FE4F90E080E070E0A4
:101450005191DF0111979B01082E02C03695279507
:101460000A94E2F7217021952527242325272C9320
:1014700001968330910561F708952EE0929F800DCB
:101480001124982F977086958695869523E0829FE4
:10149000F0011124EB52FE4F50E040E080E021913A
:1014A00030E0092E02C0369527950A94E2F72170A4
:1014B0003327042E01C0220F0A94EAF7822B4F5FD4
:1014C0005F4F4330510559F70895CF92DF92FF9255
:1014D0000F931F93CF93DF936C010091F0018091E4
:1014E000F101082BC7E0D0E010E0FC2EC8010C2E63
:1014F00002C0959587950A94E2F780FD0CC021976C
:10150000A0F7F12C8F2DDF91CF911F910F91FF90BC
:10151000DF90CF900895B6018C2F0E941011019793
:1015200071F3F0CFCF93DF93EC010E94650ABE0107
:10153000DF91CF910C9410111F93CF93DF93EB01A8
:101540009091D401992331F0CB01DF91CF911F917C
:101550000C94920A882379F0CB010E94650A182F17
:10156000682FCE010E94110ABE01812FDF91CF9119
:101570001F910C941011CB010E943D0A182FF4CF3B
:101580001F93CF93DF93C091F20116E08091F30196
:101590008C1304C0DF91CF911F910895D0E01C9F60
:1015A000F0011D9FF00D1124EC50FE4F4081518140
:1015B00062817381848195810E949F092196C77001
:1015C000E5CF40912402509125026091260270914E
:1015D000270280912802909129020C949F091F9361
:1015E000CF93DF9380912902807FA9F48091260216
:1015F000882389F08091F201C091F3016091240267
:1016000070912502A0912702B0912802D62FD723EE
:1016100016E0C81304C0DF91CF911F91089590E0A8
:10162000109711F0DF3F19F401968770F2CF189FE1
:101630009001199F300D1124F901EC50FE4F4181AA
:101640004713F2CF40814613EFCF42814111ECCFD7
:10165000438154814A1B5B0B483C510528F780911C
:1016600029028F70806180932902F901E750FE4FB3
:1016700080818F708061808384E292E00E942809DB
:10168000DF91CF911F910C94C00AAF92BF92CF927D
:10169000DF92EF92FF920F931F93CF93DF93CDB71B
:1016A000DEB761970FB6F894DEBF0FBECDBF8C01D9
:1016B00085E0F801DE011D9601900D928A95E1F713
:1016C000F801E28084E2C82E82E0D82E60912702E1
:1016D000709128026115710509F45AC19091240294
:1016E00020912502892F82238F3F09F451C1408127
:1016F0005181A380B480F0902602F501E61BF70B20
:10170000FF2009F4F6C080912902382F307FE83C91
:10171000F10508F0AFC0311179C0FE2C251323C0AC
:10172000941321C0E1101FC08F7080618093290243
:101730000E94E10AC6010E94280980912902F8014D
:1017400085838F2D61960FB6F894DEBF0FBECDBF97
:10175000DF91CF911F910F91FF90EF90DF90CF908D
:10176000BF90AF900895AB2829F0842F85238F3F39
:1017700009F027C180E0F82FF170DF2E80FF3CC018
:101780008091F2012091F30136E0821315C04D875C
:101790005E878D859E850E94920A292F22952F7043
:1017A0002230F0F0243018F59F70F1F0F8019581A7
:1017B000907FD1F4D12C1EC090E0389FF001399F6A
:1017C000F00D1124EC50FE4F6181651306C060815D
:1017D000641303C06281E6120FC001968770D5CFF3
:1017E0009F7011F0882331F3805E883018F3C801B0
:1017F0000E942809FD2CA5CFEE2009F4A2CF8091EC
:101800002902816080932902F12C9BCF251306C009
:10181000941304C0F801EE2009F487C0C8010E94A7
:101820008909882319F1EE2009F18091290280327B
:1018300070F0209124023091250238872F83198679
:10184000BB86AA868C87CE0107960E94280986E06F
:10185000F801A4E2B2E001900D928A95E1F70E94AE
:10186000EF0A0E94E10AFF24F3946BCFC8010E94A3
:101870002809F9CF311113C07A2DB98AA88A6E2DA3
:1018800089890E94900984E292E00E94280986E0FA
:10189000F60111928A95E9F70E94E10AB5CF251366
:1018A0000FC094130DC0E1100BC0F8018583C8016F
:1018B0000E94280986E0F60111928A95E9F741CF46
:1018C000C8010E948909882389F2EE2079F280916B
:1018D0002902803208F4BBCF2091240230912502E6
:1018E0003A8329831B82BD82AC828E83CE0101960E
:1018F000ACCFE83CF10508F03EC0FE2CEE2009F428
:10190000B5CF25132AC0941328C08091290280FDE9
:101910001BC0982F907FC1F0F8018583903F31F074
:10192000982F907F905F8F70892B8583C8010E94CC
:10193000280986E0F801A4E2B2E001900D928A95B0
:10194000E1F70E94E10AFDCE86E0F801A4E2B2E0F0
:1019500001900D928A95E1F7F4CEC8010E948909A1
:10196000811175CF80912902816080932902C8017D
:101970000E942809E6CE7A2DB98AA88A6E2D898917
:101980000E94900986E0F60111928A95E9F7D9CF75
:10199000EE2009F46BCFC8010E948909F82E882334
:1019A00009F464CF86E0F801A4E2B2E001900D9260
:1019B0008A95E1F784E292E00E9413060E94EF0A02
:1019C000C0CF81E08E25D7CE1F93CF93DF93CDB7C5
:1019D000DEB72C970FB6F894DEBF0FBECDBF4F8396
:1019E000588769877A878B879C87CE0107960E94E4
:1019F000450B882369F08A859B85892B39F04F81B7
:101A00005885842F85238F3F09F071C016E05FC091
:101A100086E0FE013796DE01119601900D928A95BF
:101A2000E1F78A859B85892B89F38F8198858923A6
:101A30008F3F61F32091F30130E0C9010196877077
:101A400099274091F2014817190671F40E9466091E
:101A50001092F3011092F20186E0E4E2F2E0DF017D
:101A60001D928A95E9F7D2CF96E0929FD001939F7D
:101A7000B00D1124AC50BE4FFE01319601900D9275
:101A80009A95E1F78093F3010E94C00ABFCF819F2E
:101A9000C00111248C509E4F0E94450B8823E9F011
:101AA000E091F2011E9FF0011124EC50FE4F4081A5
:101AB000518162817381848195810E949F09809107
:101AC000F20190E00196877099278093F20180914E
:101AD000F2019091F3018913DACF2C960FB6F894A6
:101AE000DEBF0FBECDBFDF91CF911F9108956985F5
:101AF0007A858B859C850E949F0988CF682F80916D
:101B00000001909101010C94E923682F809100015C
:101B1000909101010C94F4238091000190910101B6
:101B20000C94FF2380912A028595859585950895CB
:101B300080912A028770089590912A02977081E01F
:101B400009F480E008959091B20292FB222720F9D7
:101B5000281751F080FB92F99093B2028091B10264
:101B60009091B2020C949B0E08958091B20282FB78
:101B7000882780F991E089270C94A30D81E00C94CB
:101B8000A30D80E00C94A30D80914E0208959091D6
:101B90004E02892B80934E020895809590914E02BB
:101BA000982390934E02089510924E0208959091BA
:101BB0004D02892B80934D020895809590914D029E
:101BC000982390934D02089510924D02089510921B
:101BD0004C02089580912B02089508950C94ED0D08
:101BE0009091B20292FD08C090912B02981721F0BB
:101BF00080932B020C94EE0D089580912B02882384
:101C000029F010922B0280E00C94EE0D0895E091E3
:101C10000001F091010180914E028083E09100016A
:101C2000F0910101808190914D02892B8083E09198
:101C30000001F0910101808190914C02892B8083F9
:101C400090912B02992381F0E0910001F091010124
:101C50008081892B808380910001909101010E94F5
:101C6000552381110E94FD0D809100019091010189
:101C70000C94012308950C943A0E9091B20292FDB7
:101C800010C098E0899F90011124622B60932A0272
:101C90000E94DF0980912A028595859585950C948F
:101CA0003B0E0C94DF0910922A0280E00C943B0E4C
:101CB00090912A028095892380932A02282F2770E9
:101CC00039F4282F082E000C330B9217130621F439
:101CD0009091B20292FF07C08595859585950E94E7
:101CE000EA090C94530E08956FEF7FEF90E080E0C7
:101CF0000C946A2D90E080E00E94462D893E9E4F14
:101D000011F40C94A31D80E0089582E090E00C94FF
:101D1000382D83E090E00C94382DCF9384E090E050
:101D20000E94382DC82F82E290E00E94382D982F13
:101D30008C2FCF910895CF93C92F682F84E090E026
:101D40000E944C2D6C2F82E290E0CF910C944C2D90
:101D5000AB01BC018FE090E00C945E2DAB01BC01A7
:101D600083E190E00C945E2D60E070E0CB010C9478
:101D7000AE0E60E070E0CB010E94A80E0C94B40E91
:101D800069EE7EEF90E080E00E946A2D60E082E0E4
:101D900090E00E944C2D60E083E090E00E944C2D8A
:101DA0001092F10160E084E090E00E944C2D60E030
:101DB00082E290E00E944C2D60E085E090E00E947D
:101DC0004C2D60E086E090E00E944C2D6FEF87E0A4
:101DD00090E00E944C2D40E050E0BA0188E090E095
:101DE0000E945E2D60E08DE090E00E944C2D40E06E
:101DF00050E0BA0188E190E00E945E2D60E087E14A
:101E000090E00E944C2D40E050E0BA018CE190E05F
:101E10000E945E2D70E060E080E290E00E946A2DFA
:101E200040E050E0BA0188E190E00E945E2D80E041
:101E30000E94BC1D0E94E21D0C94B90E0C94C00EB1
:101E4000682F8EE090E00C944C2D0E94A5246093A6
:101E50005E0270935F0280936002909361026093D0
:101E60005A0270935B0280935C0290935D02089526
:101E700085B7806885BF85B7806885BF0895089558
:101E800008950C943F0F08950C94430F0E94380F4F
:101E90008EEE91E10E9408250E94400F0C94410FA4
:101EA00081E008950C94500F089508950E94540FF6
:101EB0000C94550F0E9490240E94F11D0E94E41280
:101EC0000E94BA1B0C94440F8F929F92AF92BF92C4
:101ED000CF92DF92EF92FF920F931F93CF93DF93F6
:101EE000CDB7DEB72A970FB6F894DEBF0FBECDBFD1
:101EF0000E940C1381110E94250F50E5852E52E09F
:101F0000952E10E000E0A02E802F0E9428126C0178
:101F1000F401E190F1904F01E816F90609F45EC072
:101F20008091620281FD0E943112C7018C259D259E
:101F3000B12CEE24E394F12C9C012E213F21232B84
:101F400009F446C00E94520F8823A9F0BE82AF82D6
:101F5000CE20DF2081E0CD2809F480E088870E9430
:101F600099248160782F9A8789874E815F8168855F
:101F70008A850E94D505000F111FF801E05BFD4F17
:101F800080819181E826F926F182E0820E94FE1B81
:101F90000E940D150E94F52290914F028917A9F118
:101FA0000E94F52280934F022A960FB6F894DEBF66
:101FB0000FBECDBFDF91CF911F910F91FF90EF909A
:101FC000DF90CF90BF90AF909F908F900C94CD05F5
:101FD000B394EE0CFF1CFEE0BF12AECF0F5F1F4F9D
:101FE0000530110509F08FCF8FEF89838A831B821B
:101FF0000E9499248160782F9D838C8349815A8126
:102000006B818D810E94D505C1CF2A960FB6F894B9
:10201000DEBF0FBECDBFDF91CF911F910F91FF901B
:10202000EF90DF90CF90BF90AF909F908F900895EA
:10203000CF93DF930E941411EC01811521E59207E3
:1020400008F042C0811530E5930708F09DC0883E36
:10205000910530F5803E910508F092C0883A9105CF
:1020600088F4853A910508F084C08130910509F41F
:1020700087C0009709F484C0049708F081C0D0E0BD
:10208000C0E07EC08F3B9105D0F7C85AD0E0CC0F9E
:10209000DD1FC75ADE4F0990D881C02DD46470C0AF
:1020A0008115904250F4C11581E0D80708F068C04E
:1020B000C03FD10520F3D06563C0C11590E4D907B6
:1020C000F0F2DF70D06A5CC0811525E5920700F55B
:1020D000811534E5930708F08BC0811543E594071B
:1020E00008F073C0C11582E5D80708F469C0CE01B5
:1020F0008370992721E030E002C0220F331F8A95B8
:10210000E2F7C695C69580E2C89FE001112454C04D
:10211000C11599E5D907A8F4C11528E5D20708F03B
:102120006CC0C11536E5D30708F0A9CF8C2F0E94EB
:10213000AB11C82FD0E0DC2FCC27CC27DF71D062C9
:102140001FC0C1154AE5D40708F45CC0CE01905603
:102150008115904208F093CF8D2F8F710E94AB11A3
:1021600090E0982F882788279F719C012C2BE901EC
:10217000E6CFC55AD0E0C957DE4FC881D0E0D06461
:10218000CE01DF91CF910895E4E096958795EA9589
:10219000E1F783702C2F26952695237040E2249F2B
:1021A00090011124382B8C2F8370C1E0D0E002C045
:1021B000CC0FDD1F8A95E2F7C22BD32BDC68E0CF72
:1021C000DC2FCC27C16FD06ADBCF8370992721E049
:1021D00030E002C0220F331F8A95E2F7C695C695FC
:1021E00090E2C99FE0011124C22BD32BDA68C8CF3B
:1021F000D82FCC27C46FD06AC3CFDC2FCC27C06FB9
:10220000D06ABECF8C2F8F700E94AB1134E0D69570
:10221000C7953A95E1F7CF709C2FEC01D069B0CF0C
:102220000E9413200C94181082389105B1F1B0F47B
:102230008133910509F475C048F48932910509F498
:1022400069C08A32910509F473C0089585339105F8
:1022500009F459C08933910501F10895833E910530
:10226000A9F138F4803E9105F9F0823E910549F1DB
:102270000895863E9105A9F1873E9105C9F1843EF6
:10228000910519F52091B20221FF1FC08091B10282
:1022900084FD14C087EE90E008952091B102237070
:1022A000A1F080EE90E008952091B10220FD47C09A
:1022B0003091B20230FF09C024FF44C090E080E0BA
:1022C00004C02091B10222FDF7CF08952091B10200
:1022D00022FD3BC03091B20230FDE3CF24FFF5CFA9
:1022E000EDCF2091B10223FFF0CF24FDE7CFD2CF75
:1022F0002091B10223FD2CC03091B20231FFEECF0C
:1023000084EE90E008952091B10225FFDECF89E2AE
:1023100090E008952091B10225FFD7CF85E390E0AA
:1023200008952091B10226FFD0CF8AE290E008956F
:102330002091B10226FFC9CF81E390E0089589E39F
:1023400090E0089583EE90E0089582EE90E0089585
:1023500086EE90E008959091B10292FF06C0282F7A
:1023600028712830F9F4877F846093FF06C0282FF6
:1023700028712831F1F4877E84612091B20220FF18
:1023800006C0382F38713830D9F4877F816021FF3B
:1023900006C0282F28712831D1F4877E816194FDF1
:1023A000877E0895282F24712430F9F68B7F88606A
:1023B000DCCF282F2471243101F78B7E8861DDCF9B
:1023C000382F3171313019F78E7F8860E0CF282F98
:1023D0002171213121F78E7E8861E1CF80E008955F
:1023E0000C94740E0E940C138FE39CE90197F1F793
:1023F00000C000000E940C1380E00E94281280FFA1
:1024000004C00E94F0110C94E42408950C94F2117D
:102410000E947A0E811102C00E941E0F0E94850E3A
:10242000809362020E948D0E9093B2028093B1025B
:102430000E9406120E94890E0E94B9098091F00143
:102440000C94CC0908950C94221208950C94251232
:10245000E82FF0E0EE0FFF1FE354FD4F80819181E4
:102460000895089580EA8A95F1F7089500C00895C7
:102470000C943212F894E82FE295EF70F0E031A15D
:10248000282F2F7081E090E001C0880F2A95EAF78D
:10249000982F9095932391A392A1892B82A378944E
:1024A0000895CF93DF93C8E9D1E089918F3F11F070
:1024B0000E943A1281E0CD39D807B9F7CAE8D1E0D5
:1024C00089918F3F11F00E943A1281E0C839D807F4
:1024D000B9F7DF91CF910895AF92BF92CF92DF927B
:1024E000EF92FF920F931F93CF93DF938C01B62E41
:1024F000C62FD0E0CE0188569E4F7C01FC01208182
:102500002F3F09F453C0F894E22FE295EF70F0E00A
:1025100031A12F7081E090E001C0880F2A95EAF781
:10252000932F982B91A392A18095892382A37894CD
:102530000E943612EAE8F1E030E020E0D12CC12C14
:1025400041E050E081918F3FE1F1A82FA295AF705B
:10255000B0E090966C9170E08F7002C075956795B1
:102560008A95E2F760FD2DC0CA01022E02C0880FD5
:10257000991F0A94E2F7C82AD92A2F5F3F4F2E30BD
:10258000310501F7F70180818F3F11F00E943A1267
:1025900061E0C114D10409F460E08B2D0E9438126F
:1025A000CC0FDD1FC00FD11FD982C882DF91CF9120
:1025B0001F910F91FF90EF90DF90CF90BF90AF9061
:1025C000089590E080E0D7CF0E945112A3EBB2E0D3
:1025D00011961C921E92EDEBF2E01182108213967E
:1025E0001C921E9212971382128215961C921E92B2
:1025F00014971582148217961C921E9216971782B2
:10260000168219961C921E9218971186108685E0E4
:102610000E9457130C947004FF920F931F93CF9353
:10262000DF93CDB7DEB72A970FB6F894DEBF0FBEA3
:10263000CDBF8E010F5F1F4F8AE0F80111928A957E
:10264000E9F7F12C6F2DC8010E946C12F394F5E0AC
:10265000FF12F8CF4AE050E0B80183EB92E00E940D
:102660002B2DFF24F394009709F4F12C892B41F0D2
:102670008AE0F801A3EBB2E001900D928A95E1F7B0
:102680002F2D45E06DEB72E083EB92E00E94581332
:102690000E9476048F2D2A960FB6F894DEBF0FBEE7
:1026A000CDBFDF91CF911F910F91FF9008950895B5
:1026B000FF920F931F93CF93DF93F82E092F162FBE
:1026C000D72FC42F222349F081E0809365020E9416
:1026D0009924909364028093630280916502882319
:1026E000A1F080916302909164020E94B124059749
:1026F00060F0EF2DF02FA12FBD2F90E080E0D0E013
:102700008C179D0744F010926502DF91CF911F91C5
:102710000F91FF900895219131912D933D93019652
:10272000EFCF0E9411240E94AE260E94C7260E946D
:10273000D9260E94560FFBCF80916C0280FF12C0F9
:102740006091070185E0689FB00111247595679538
:102750007595679560387105A8F561157105A1F14A
:10276000862F089581FF09C06091070185E0689F69
:10277000B001112475956795EDCF6091070182FD39
:102780000AC080916B028823D1F09091060160917C
:102790000701891728F085E0689FB0011124DACF7E
:1027A000869FB001112485E0869F9001879F300DA0
:1027B0001124692F70E0C9010E949E2CCBCF65E0E7
:1027C00070E0CECF8FE7089581E0089580916C028C
:1027D00080FF0CC06091030170E075956795759559
:1027E00067956115710549F1862F089581FF06C02F
:1027F0006091030170E075956795F3CF60910301D7
:1028000082FD0BC090916A029923A1F060910201B0
:1028100080910301961738F0682F70E060387105D9
:1028200000F38FE70895899FC001112470E00E9492
:102830009E2CF4CF61E070E0D7CF81E00895803F17
:1028400031F40E949C138195809370020895813F1A
:1028500019F40E949C13F8CF823F31F40E949C131C
:10286000819580936F020895833F19F40E949C1311
:10287000F8CF893F29F40E94E613809371020895EE
:102880008A3F21F40E94E6138195F7CF8B3F31F404
:102890000E94E61381958093720208958C3F19F48B
:1028A0000E94E613F8CF9CE0980F953070F4845F97
:1028B000990B21E030E001C0220F8A95EAF7809160
:1028C0006E02822B80936E0208958D3F31F48091C9
:1028D0006C02816080936C0208958E3F21F4809198
:1028E0006C028260F7CF8F3FB9F780916C028460F1
:1028F000F1CF40916F02803F59F48091700287FFC1
:102900000DC01092700241110BC010926B0208C0F2
:10291000813F81F48091700218169CF3442381F06A
:102920008091710290917202892B09F05AC0109225
:102930006A020895823F49F447FFF0CF10926F0278
:10294000809170028111ECCFE0CF833F19F414160F
:10295000ACF3E4CF90917102893F29F41916F4F693
:1029600010927102DBCF8A3F19F497FFD7CFF8CFCF
:10297000909172028B3F29F497FFD0CF1092720290
:10298000CDCF8C3F19F41916CCF3C8CF9CE0980F2B
:10299000953090F4845F990B21E030E0B90102C0DA
:1029A000660F771F8A95E2F7CB01809590916E02B2
:1029B000892380936E02B2CF8D3F31F480916C02F7
:1029C0008E7F80936C02AACF8E3F21F480916C029F
:1029D0008D7FF7CF8F3F09F0A1CF80916C028B7F65
:1029E000F0CF08950E9499249C0190916F028091EC
:1029F0007002982B21F03093690220936802909125
:102A0000710280917202982B21F03093670220931B
:102A100066028DE692E00C941B23EF92FF920F93D7
:102A20001F93CF93DF9300D000D000D0CDB7DEB797
:102A300086E0EDE6F2E0DE01119601900D928A95B6
:102A4000E1F7E0906F02F090700200917102109136
:102A5000720210926F021092700210927102109224
:102A600072028E2D8F2991F08091680290916902F7
:102A70000E94B124AC0190916B02992309F43FC0EC
:102A8000809108018417150608F447C0802F812B18
:102A900091F080916602909167020E94B124AC018E
:102AA00090916A02992309F477C0809104018417F8
:102AB000150608F47FC080916F0290917002892BF7
:102AC00090917102892B90917202892B11F00E94D2
:102AD000F21486E0FE013196ADE6B2E001900D926F
:102AE0008A95E1F726960FB6F894DEBF0FBECDBFEC
:102AF000DF91CF911F910F91FF90EF90089520915A
:102B000009018AE0289F900111242417350708F055
:102B1000BDCF9F5F90936B0202C09F3FD1F7EE2025
:102B200059F00E949C139FEF1E140CF491E0899FB2
:102B3000802D112480936F02FF2059F00E949C1376
:102B40009FEF1F140CF491E0899F802D1124809336
:102B5000700230916F02332309F498CF20917002F4
:102B6000222309F493CF45EB3403C00111249923A8
:102B700059F090936F0245EB240390011124332305
:102B800039F03093700282CF81E080936F02F3CFEF
:102B900081E0809370027ACF209105018AE0289F1E
:102BA000900111242417350708F085CF9F5F90937B
:102BB0006A0202C09F3FD1F7002359F00E94E6133A
:102BC0009FEF10160CF491E0899F802D11248093C3
:102BD0007102112359F00E94E6139FEF11160CF4B5
:102BE00091E0899F802D11248093720230917102AF
:102BF000332309F460CF20917202222309F45BCFC2
:102C000045EB3403C0011124992359F090937102CC
:102C100045EB240390011124332339F030937202E1
:102C20004ACF81E080937102F3CF81E080937202FA
:102C300042CF86E0EDE6F2E0DF011D928A95E9F7EA
:102C400010926B0210926A0210926C020895EF9239
:102C5000FF920F931F93CF93DF93EB01E82FD111D6
:102C600010C0442321F0F0E0ED55FB4FE4916E2FAE
:102C70007E2F8E2FDF91CF911F910F91FF90EF90BC
:102C800008950D2F10E0282F30E0442329F02D5512
:102C90003B4FF901249130E0F6E0CF9FC0011124B1
:102CA000EFEFF0E0BF010E948A2CAB018C2F90E087
:102CB000880F991FA5E5A49FB001A59F700D112451
:102CC000861B970B982F990F980FBF01601B710BF4
:102CD000629FD001639FB00D729FB00D11248B2FA6
:102CE0009D9FB0011124672F7727EF01C61BD70BDB
:102CF000BE01629FE001639FD00D729FD00D112431
:102D00007F01E91AF108E09EB001E19E700DF09E8E
:102D1000700D1124672F7727E61BF70BE29F8001C8
:102D2000E39F100DF29F100D1124E12F722F4230FE
:102D3000510599F048F44115510569F041305105AC
:102D400081F0EB2F8D2F07C04430510569F080F0E2
:102D500046305105B1F76E2F8DCFE22F7B2F812F9B
:102D6000FACFE22F7D2FF7CFEB2F822F712FF3CFEA
:102D70007B2F822FED2FEFCF41E00C942716089583
:102D80000C94BC16CF93DF93762FE901682F842F24
:102D90000E94C016798368838A83DF91CF9108955A
:102DA0008091C702982F9E7F29F481708260809362
:102DB000C70208958A34E8F381708864F8CF88E008
:102DC00090E00C94402DCF92DF92EF92FF926B0136
:102DD0007C010E94D016B701A60188E090E0FF9028
:102DE000EF90DF90CF900C945E2D6091C7027091B0
:102DF000C8028091C9029091CA020C94E316E7ECD4
:102E0000F2E083E0808311828FEF828383831482D8
:102E100060817181828193810C94E3168091C70255
:102E200080FF02C08695089580E008959091CB02BE
:102E3000933018F49F5F9093CB02882351F06091F8
:102E4000C7027091C8028091C9029091CA020C9485
:102E5000E316089581E00C9416179091CB02992304
:102E600019F091509093CB02882351F06091C702E2
:102E70007091C8028091C9029091CA020C94E31625
:102E8000089581E00C942D178091CB0208958093D2
:102E9000CB02662351F06091C7027091C802809105
:102EA000C9029091CA020C94E316089560E00C9454
:102EB00047178091C80208958091C90208958091B2
:102EC000CA02089570E00C94771D60910E01809104
:102ED000C70280FF0AC080910D0123E0829FC001DC
:102EE000112484539D4F0C94621780910F0190918F
:102EF000100123E0829FF0011124E453FD4F891754
:102F000050F71182108212828F5F3396F8CF909122
:102F1000C70290FF14C090910F012091100133E07F
:102F2000939FF0011124E453FD4F921710F00C947D
:102F300065178183608342839F5F3396F6CF089540
:102F4000CF93DF9300D00F92CDB7DEB79091C70239
:102F500090FF0AC09E012F5F3F4F0E94C2164B8117
:102F600069818A810E9487170F900F900F90DF91DF
:102F7000CF910895CF93DF93EC01EC81F0E0E2561E
:102F8000FC4F4491E7ECF2E0628181810E94A0173E
:102F90008C818F5F8C83DF91CF910895CF93DF93E6
:102FA000EC01E7ECF2E0438162818C810E94A01782
:102FB0008C818F5F8C83DF91CF9108950F931F9346
:102FC000CF93DF9300D00F92CDB7DEB78C01809105
:102FD000730281110AC09E012F5F3F4F4FEF6FEFC9
:102FE0000E94C2168A8180937302F8016481613065
:102FF00069F08091730240E0662361F040E0623046
:1030000011F44091730280E060E004C060917302AB
:1030100040E080E00E948717F801848190E00196EB
:1030200063E070E00E949E2C84830F900F900F90BD
:10303000DF91CF911F910F910895AF92BF92CF92E0
:10304000DF92EF92FF920F931F93CF93DF9300D005
:103050000F92CDB7DEB7182FF62E042FE22E9091E7
:10306000C70290FF29C0E92FE695AE2FB0E0A35626
:10307000BE4F8C9180937F029E7F923059F59E01C6
:103080002F5F3F4F812F0E94C2164B8169818A8139
:103090000E9487171093C802F092C9020093CA02D7
:1030A000EE2051F06091C7027091C8028091C90270
:1030B0009091CA020E94E3160F900F900F90DF913B
:1030C000CF911F910F91FF90EF90DF90CF90BF9025
:1030D000AF900895823019F40091CA02DBCF863098
:1030E00019F41091C802D6CF8930D9F3893191F6FD
:1030F000E9518E2F8170D82EE695F0E0E256FB4F15
:10310000A590B490C12CBB2460911101C61618F093
:103110000E946517BFCF2C2D30E0A29EC001A39E58
:10312000900DB29E900D112470E00E948A2C812F88
:10313000D11013C0860F40910F01420F532F511D24
:103140009A01220F331F240F351F24533D4F402F68
:103150006F2D0E94C216C394D7CF861BECCFE7EC2D
:10316000F2E09181282F4381628188E0890F0C94DD
:103170001D1881E00C94AF18E7ECF2E09181282F44
:103180004381628188EF890F0C941D1881E00C94B3
:10319000BC18E7ECF2E0628128E0620F08F46FEF00
:1031A000282F438181810C941D1881E00C94C9184B
:1031B000E7ECF2E0628128E0621B08F460E0282F6F
:1031C000438181810C941D1881E00C94D818E7ECA0
:1031D000F2E0438128E0420F08F44FEF282F62818C
:1031E00081810C941D1881E00C94E718E7ECF2E063
:1031F000438128E0421B08F440E0282F628181814E
:103200000C941D1881E00C94F61820E00C941D1805
:10321000EF92FF921F93CF93DF93EC0110E0EE2427
:10322000EA94F12C60911101161770F00E94651755
:103230009A818C8190FF27C08F5F8C83DF91CF9123
:103240001F91FF90EF90089520910F01422F410FA1
:103250005527551FCA019A01220F331F280F391F06
:1032600024533D4F70E0C7010E949E2C962F8C8105
:103270004091CA026091C902199F800D11240E94D9
:10328000C2161F5FCFCF8150D8CFAF92BF92CF92DF
:10329000DF92EF92FF920F931F93CF93DF93FC0186
:1032A00082810FEF80FF01E010E046E1A42E8091C3
:1032B00011011817C8F00E9465178091750201303E
:1032C00009F055C0811102C0809111018150809395
:1032D0007502DF91CF911F910F91FF90EF90DF90DA
:1032E000CF90BF90AF900895C0910F01C12ED12C07
:1032F000CC0DDD2DD11DCE01880F991FC80FD91F10
:10330000C453DD4F198218821A8234E0E32EF12C67
:10331000B12C809175028B0D87311CF16A2D0E94B2
:103320007C2C892F082E000C990BC816D90691F415
:103330008091CA028E9DA0018F9D500D112455953C
:103340004795559547959E016091C9028091C802A5
:103350000E94C216B00EF1E0EF1AF108D1F61F5F1D
:10336000A6CF87FFDFCF90911101890FDBCF90E0CF
:1033700001966091110170E00E949E2CA8CF0F93DE
:103380001F93CF93DF9380910F019091100123E061
:10339000829FF0011124E453FD4F891740F1C0E0F2
:1033A000D3E060911101C61740F10E94651720918A
:1033B0000B0180917402820F8093740290910C0132
:1033C000920F90930C01191654F4082E000C990BCF
:1033D000409111014150550B841795071CF0219520
:1033E00020930B01DF91CF911F910F9108951182CE
:1033F000108212828F5F3396D0CF0C2F10E070E0D6
:10340000C8010E949E2C20910F01820F482F50E08E
:1034100020917402022E000C330B02171307BCF02C
:1034200020910C01022E000C330B201731077CF089
:103430008D9F9001112424533D4F4091CA02609109
:10344000C9028091C8020E94C216CF5FAACFFA01BA
:10345000EE0FFF1FE40FF51FE453FD4F11821082A2
:103460001282F3CF8F929F92AF92BF92CF92DF9250
:10347000EF92FF920F931F93CF93DF93EC014C8158
:10348000042F10E09801D8010E94E92C9B01AC01A7
:103490000E94FF2C4B015C01E0E2F0E0E01BF10B2D
:1034A000A5E5B0E0AC019B010E94FF2C6B017C0103
:1034B0009F01DF010E94E12C9B01AC010E940A2DBB
:1034C0009B01AC01280D391D4A1D5B1DC701B601CA
:1034D0000E94B22CF22E822F90E039E23F1560F16B
:1034E00043E0249F9001112435952795122F1095C4
:1034F00000E085E5E82EEF1880911101081758F1DA
:103500000E9465179C8181E0992319F0903219F48B
:103510008FEF80930A0180910A01890F8C83DF91DC
:10352000CF911F910F91FF90EF90DF90CF90BF90C0
:10353000AF909F908F90089525E530E0B901681B0A
:10354000790B9B01220F331F260F371F37FFCCCF7C
:103550002F5F3F4FC9CF8E2D01FD8F2D20910F0181
:10356000622F600F7727771F9B01220F331F260FD3
:10357000371F24533D4F412F6091C9020E94C2164C
:103580000F5FBACF0F931F93CF93DF93EC0110E03F
:1035900000E0909111019017110609F06CF40E945F
:1035A00065178C8190E00196817099278C83DF915B
:1035B000CF911F910F91089520910F01A801420F03
:1035C000511D9A01220F331F240F351F24533D4FE5
:1035D0004C816091C9028091C8029695901711069E
:1035E00051F04CF0442349F04091CA020E94C216A7
:1035F0000F5F1F4FCECF4423B9F340E0F7CFE7EC86
:10360000F2E080818E7F80836081718182819381ED
:103610000E94E316109280022FEF80E792E0215083
:1036200080409040E1F700C000000C946517E7EC83
:10363000F2E080818E7F8083109280022FEF80E7FE
:1036400092E0215080409040E1F700C000000C94CF
:1036500065171092800280917D0281110AC081E07D
:1036600080937D028091C702817080937C020C94CC
:10367000171B08956091C702669570E04BE050E01B
:1036800082E191E00E941E2D892B19F481E0809344
:1036900080020E9499249093770280937602089585
:1036A0009091C70290FF35C09170811128C092603F
:1036B0009093C702662351F06091C7027091C802CF
:1036C0008091C9029091CA020E94E3166091C702DC
:1036D000669570E04BE050E082E191E00E941E2D83
:1036E000892BA1F01092800281E0809379024091B1
:1036F000CA026091C9028091C8020C9405198532F2
:1037000010F09864D5CF880F982BD2CF0E943A1B27
:10371000EBCF0895682F9091C702969581E0890FAD
:10372000853208F081E00C94501B81E00C948A1BD8
:10373000682F9091C70296958FEF890F09F484E264
:103740000C94501B81E00C94981B61E00C94501B6E
:10375000E7ECF2E080818160808386950C94A51B64
:103760008091C70280FD0C94FF1A0C94A81B60E0A6
:103770000C94501B80917E0281112EC00E947A0E03
:10378000811104C00E941E0F0E94FF160E94DF16C6
:103790006093C7027093C8028093C9029093CA02D3
:1037A0006E7F61F40E94FF160E94DF166093C702CD
:1037B0007093C8028093C9029093CA020E94D016E7
:1037C000109280028091C70280FF03C086950E94FC
:1037D000B71B81E080937E020895E7ECF2E08081E0
:1037E0008160808386950C94B71B10927D02809136
:1037F0007C0281110E94ED1B0C943A1B0F931F93C6
:10380000CF93DF9380918002882309F486C0809152
:103810007F02E091C702E695E81BE09378028230D0
:1038200091F5F0E0E656FC4FE491CE2FD0E00AEBA4
:1038300017E180917902882361F0109279020E9449
:103840009924909377028093760210927B021092D3
:103850007A020E949924E0917602F09177028E1B01
:103860009F0B8F3F9F4708F058C0EC0FFD1FF09350
:103870007702E093760286E792E0F801DF91CF913C
:103880001F910F910994863049F4F0E0E956FC4FFE
:10389000E491CE2FD0E00EEC17E1CBCF893051F47C
:1038A000E695F0E0EC56FC4FE491CE2FD0E008E036
:1038B00019E1BFCF8F3051F4E695F0E0EF56FC4FA1
:1038C000E491CE2FD0E005E419E1B3CF853149F47E
:1038D000F0E0E257FC4FE491CE2FD0E00FEB19E17E
:1038E000A8CFC8E2D0E002E31AE1883109F4A1CF01
:1038F000833239F4ECE8F3E0C591D4910EED17E191
:1039000098CFC4EFD1E002EC1AE1843209F491CFF0
:10391000C0EDD7E00FEB16E18CCFDF91CF911F9177
:103920000F910895FA01811101C0FB010994CF9311
:10393000DF93C82FD62F0E940E178C1740F00E94DD
:103940000E178D1720F4DF91CF910C94951B8C2FBF
:10395000DF91CF910C94A51B1F93CF93DF93EC01C4
:10396000FB011281112309F4C0C00E94C40D8272B0
:10397000CC3CFCE5DF0709F49CC008F044C0C63C21
:10398000ECE5DE0709F481C0F0F4C33C9CE5D907FF
:1039900009F471C048F4C23CDC4509F469C0812FC8
:1039A000DF91CF911F910895C43C9CE5D90709F49C
:1039B00067C046EC58E169EB78E1C53CDC4579F736
:1039C0000E94921C53C0C93CFCE5DF0709F467C0A4
:1039D00068F4C73CECE5DE0709F45CC045ED58E14E
:1039E00064EE78E1C83CDC4559F3D9CFCA3C9CE58C
:1039F000D90709F459C041E457E16AE277E1CB3CC9
:103A0000DC45F1F2CCCFC13DFCE5DF0709F462C033
:103A100098F4CE3C9CE5D90709F454C008F44EC094
:103A2000CF3CFCE5DF0709F452C0C03DDC4509F09E
:103A3000B6CF6EE089E048C0C43D9CE5D90709F4E3
:103A40004FC058F4C23DFCE5DF0709F446C0C33D52
:103A5000DC4509F0A4CF88E132C0C53D9CE5D9071B
:103A600009F441C0CD35DD4509F099CF10E097CF7D
:103A70000E94B01BFBCF42EA5BE165E97BE1A0CF8E
:103A800045E95BE162EA7BE19BCF49EB58E166ECFB
:103A900078E196CF44EE58E165ED78E191CF42E0D0
:103AA00059E163EF78E18CCF43EF58E162E079E1CF
:103AB00087CF4AE257E161E477E182CF81E00E945B
:103AC000A51BD4CF65E082E00E94971CCFCF68E0B1
:103AD00086E0FACF64E18FE0F7CF67E185E1F4CFCC
:103AE00062E289E1F1CF83E2EACF11E058CF6A9A2E
:103AF0004EB14B7F5EB15460EFB7F8949B01220F3B
:103B0000331F260F371F280F391F2817390741F495
:103B1000EFBF8FE594E00197F1F700C00000089532
:103B2000DC016D91CD0178E05EB9000000C067FF57
:103B30004EB9660F000000C000C000C04EB900C002
:103B40007A9591F7E2CF83E290E00E94382D81329E
:103B500089F484E290E00E94382D823159F485E2A4
:103B600090E00E94382D91E0843209F090E0892F96
:103B70008170089580E0FCCFCF93C82F6FEF811143
:103B800061E283E290E00E944C2D6FEFC11162E18F
:103B900084E290E00E944C2D6FEFC11164E285E257
:103BA00090E0CF910C944C2D089586E290E00E9415
:103BB000382D682F70E090E080E0089586E290E074
:103BC0000C944C2D80E00E94BC1D60E070E0CB01A5
:103BD0000E94DE1D0E948B1F0E94772081E00C94C2
:103BE000BC1D0E94D41D0E94A31D811102C00C9413
:103BF000E21D0895CF93FB01C281CC2309F19C0102
:103C000022513F452031310520F582510E94872005
:103C1000C0E08C2FCF91089581E00E94DF0943E03E
:103C200062E081E00E946704F3CF81E00E94EA092C
:103C300043E062E081E00E946704EBCF82E0F6CFD0
:103C40008031FFE59F0789F381319F45B9F3C1E0DA
:103C5000E0CF8031EFE59E07F9F281319F45C9F64B
:103C600082E0DBCF2FEFFC0120830895CF93DF9319
:103C7000EC0188818138A9F028F4803871F0DF9157
:103C8000CF910895823881F08338C9F70E9459177F
:103C900089830E945C178A83F2CF0E945F17898311
:103CA000EECF0E940E17FBCF0E944417F8CFCF93A0
:103CB000DF93EC0188818138E1F028F4803869F0E5
:103CC000DF91CF910895823811F18338C9F70E94AE
:103CD0005F17482F6A81898108C0D9810E945C17CB
:103CE000C82F0E9459174D2F6C2FDF91CF910C9444
:103CF000051989810E94B71B8981811104C0DF9158
:103D0000CF910C94171BDF91CF910C94ED1B8981FF
:103D1000DF91CF910C945617EF92FF920F931F9360
:103D2000CF93DF93EC01062FDC01ED91CD01E15043
:103D3000E33108F0ADC0F0E0E456F24D0C94D42C21
:103D4000198289E08A83602FCE01DF91CF911F9184
:103D50000F91FF90EF900C94A3258981823069F038
:103D6000833071F08130D9F40E94A5240E94DA2CAE
:103D70006A837B838C839D83E6CF0E94D51DF6CF1B
:103D80007E0110E0812F0E942812F7019283838325
:103D90001F5FF2E0EF0EF11C1530A1F7D4CF602FBA
:103DA000CE010E94321ECFCF89818230C1F76A8155
:103DB0007B818C819D810E94DA2C0E94DE1DC3CF05
:103DC0004B816A8189810E945D1F982789279827E6
:103DD0009D838C83B8CF2C813D81322723273227C6
:103DE0004B816A8189810E94761FADCF0E948B1F13
:103DF000AACF0E94571EA7CF0E94361EA4CF0E94B2
:103E0000F516A1CF0E94202089839DCF0E942220F9
:103E10009827892798279A83898395CF6B8170E0AB
:103E200089819A81AE014C5F5F4F98278927982737
:103E30000E94252088CF6B8170E089819A81AE0134
:103E40004C5F5F4F9827892798270E944C207BCF93
:103E50000E94772078CF0E944B1FD6CF6B8170E0F5
:103E600089819A81AE014C5F5F4F982789279827F7
:103E70000E94C31F68CF6B8170E089819A81AE0177
:103E80004C5F5F4F9827892798270E94E91F5BCFD7
:103E90008FEF888358CF84E0089550E0440F551F7A
:103EA0009CE1699F400D511D11249CE8899F400DA4
:103EB000511D1124CA01879608950F931F93CF9324
:103EC000DF930E944D1F8C010E94382DC82FD0E037
:103ED000DC2FCC27C80101960E94382D9E01282B8B
:103EE000C901DF91CF911F910F9108950F931F93F7
:103EF000CF93DF93122F032F0E944D1FEC01602FF1
:103F00000E944C2D612FCE010196DF91CF911F9120
:103F10000F910C944C2DAF92BF92CF92DF92EF9203
:103F2000FF921F93CF93DF938CEAC82E80E0D82EA8
:103F3000D0E07601C0E014C0F50125913491412F05
:103F40006C2F8D2F0E94761F82E0A80EB11C1F5F80
:103F50001E3091F78CE1E80EF11CCF5FC53019F0EF
:103F6000570110E0E9CFDF5F8CE8C80ED11CD430D8
:103F700001F7DF91CF911F91FF90EF90DF90CF90ED
:103F8000BF90AF900895EF92FF920F931F93CF933E
:103F9000DF93EC018A017C01E60EF71ECE018796C5
:103FA000CE15DF0539F4DF91CF911F910F91FF906E
:103FB000EF900895C03322E0D20740F40E94382DDC
:103FC000F80180830F5F1F4F2196E8CFF801108220
:103FD000F9CFCF92DF92EF92FF920F931F93CF937F
:103FE000DF937C016A018C01060F171FEC01CE01E3
:103FF0008796C017D10749F4DF91CF911F910F9198
:10400000FF90EF90DF90CF900895C03322E0D20769
:1040100040F4FE01EE19FF09EC0DFD1D60810E94C8
:104020004C2D2196E4CF462F843038F4753028F497
:104030006E3018F4672F0C945D1F90E080E00895B7
:1040400080E1089589EA91E00895EF92FF920F933D
:104050001F93CF93DF93EC018A017C01E60EF71EDC
:10406000CE01895A9D4FCE15DF0539F4DF91CF91EE
:104070001F910F91FF90EF900895C93A21E0D20768
:1040800040F40E94382DF80180830F5F1F4F219666
:10409000E7CFF8011082F9CFCF92DF92EF92FF9233
:1040A0000F931F93CF93DF937C016A018C01060F5E
:1040B000171FEC01CE01895A9D4FC017D10749F453
:1040C000DF91CF911F910F91FF90EF90DF90CF90F4
:1040D0000895C93A21E0D20740F4FE01EE19FF0924
:1040E000EC0DFD1D60810E944C2D2196E3CFCF93F6
:1040F000DF93C7E5D2E060E0CE010E944C2D21960F
:10410000C11584E0D807B9F7DF91CF910895DF9208
:10411000EF92FF920F931F93CF93DF9300D000D0C5
:10412000CDB7DEB7F82E8FE08F1540F08FEF93E01C
:104130000E94382D07E512E08823C1F00F900F9000
:104140000F900F90DF91CF911F910F91FF90EF9003
:10415000DF900895011584E0180781F3C8010E94DB
:10416000382D811101C0FA940F5F1F4FF110F2CF6B
:1041700019821A821B821C82DD24D39478018FEF6E
:10418000E81AF80AC8010E94382D89831A82882308
:10419000A9F29FEF980F933078F48A83D9820E5F4B
:1041A0001F4FC7010E94382D8B83882339F2CE011F
:1041B00001960E94B505E2CF8701F9CF0F931F93B7
:1041C000CF93DF93C42FD22FFC0182818823C9F0C3
:1041D000409383020E9499249093820280938102EB
:1041E00080E28C0F883008F050C0C77081E001C0B9
:1041F000880FCA95EAF7DF91CF911F910F910C9428
:104200001F0710918302141335C080918102909191
:1042100082020E94B124883C910560F5C0E2CD0F76
:104220001D17B9F080E2810F883040F4177081E0EB
:1042300001C0880F1A95EAF70E942607C83048F493
:1042400081E09D2F977001C0880F9A95EAF70E9430
:104250001F07802F0E941707C830B8F4D77081E07D
:1042600001C0880FDA95EAF7DF91CF911F910F9186
:104270000C94260780E28C0F883038F4C77081E0F8
:1042800001C0880FCA95EAF7EFCFDF91CF911F9158
:104290000F9108950F939C01CB01233F4CE5340708
:1042A00059F1A8F4283DFCE53F0701F1293D4CE513
:1042B0003407D1F1273D3C4591F406E221EE41EE71
:1042C00067ED7CE50E94DE2080E00F910895253F98
:1042D000FCE53F07E9F0B0F0263F3C45F9F0FC0172
:1042E0008281882339F110928302EFCF07E225EE15
:1042F00045EE68ED7CE5E6CF06E221EE40EE63EFA9
:104300007CE5E0CF07E225EE44EE64EF7CE5DACF12
:1043100006E221EE42EE65EF7CE5D4CF07E225EE22
:1043200046EE66EF7CE5CECF08E221E045EE69ED92
:104330007CE5C8CF81E0C9CFCF93DF93EC01FB01CF
:104340008281882309F420C1C330FDE5DF07C8F569
:10435000CA3F9CE5D90730F49E0122503C452431E8
:10436000310598F50E948D0E9093B2028093B102B0
:10437000C031FCE5DF0709F4E0C008F061C0C830D7
:104380009CE5D90709F4CBC088F5C430FCE5DF070C
:1043900009F4B3C0E8F4C2309CE5D90709F4A7C01A
:1043A0008091B1028260C330DC4509F4A3C08091E2
:1043B000B1029091B2020E949B0E0E94660980E0B9
:1043C00004C0C136EDE5DE0769F2DF91CF910895B3
:1043D0008091B1028061C630FCE5DF0709F48AC034
:1043E00008F48FC08091B102806284C08091B102D4
:1043F0008D7FCC309CE5D90709F47CC070F48091A6
:10440000B1028C60CA30FCE5DF0709F473C008F420
:104410008AC08091B1028E7F6DC08091B102877F8A
:10442000CE309CE5D90709F465C08091B1028B7F3D
:10443000CF30DC4508F45EC08091B1028F7E5AC057
:10444000CC3FFCE5DF0709F474C040F5C4319CE5BE
:10445000D90709F48AC058F4C231FCE5DF0709F432
:1044600074C008F46EC08091B102837F43C0CA3F1C
:104470009CE5D90709F449C008F04DC0C531DC45B9
:1044800009F095CF8091B10282FB992790F921E044
:10449000922790FB82F990FB83F92CC0C1158DE522
:1044A000D80709F458C088F48091B2028360CE3FE7
:1044B000ECE5DE0769F18091B2028D7FCF3FDC45EC
:1044C00038F18091B2028C7F23C0C2308DE5D807CD
:1044D00009F458C008F452C0C136DD4509F067CF71
:1044E0009091B102892F8F7E94FF806103C08091EB
:1044F000B10281608093B1025ACF8091B102846091
:10450000F9CF8091B1028860F5CF8091B2028160CD
:104510008093B2024CCF8091B2028260F9CF809139
:10452000B1028064E7CF0E9466098091B102806881
:10453000E1CF8091B2028E7FEBCF8091B1028F7D6F
:10454000D9CF8091B1028F7BD5CF0E94660980912F
:10455000B1028F77CFCF8091B202982F9095917052
:104560008E7F892B90FB81F9D3CF0E9466099091B1
:10457000B102892F97FB87F98058BCCF81E00E9458
:10458000200F15CF80E0FBCF81E01FCFCF93DF93CB
:10459000EB0186319C4511F50E94C40D9A81992347
:1045A00099F08A7A91E009F490E090938402811165
:1045B00009C089E20E947E0D0E94070E80E0DF9113
:1045C000CF91089585E3F6CF80918402811104C0D4
:1045D00089E20E94850DF0CF85E3FBCF81E0EFCF2C
:1045E00090938A02809389020895E0918902F09164
:1045F0008A02309721F00190F081E02D099480E04B
:104600000895E0918902F0918A02309799F0209103
:104610002701222359F02091B10227FF07C0DC01B6
:104620002C9111962C93119725E02C930280F38105
:10463000E02D09940895E0918902F0918A02309763
:1046400039F022E0DC012C930480F581E02D0994FF
:10465000089520918702309188022817390771F058
:104660009093880280938702E0918902F0918A02F8
:10467000309721F00680F781E02D0994089520916C
:104680008502309186022817390771F090938602CF
:1046900080938502E0918902F0918A02309721F09F
:1046A0000084F185E02D09940895FC0132968091F3
:1046B0002701882321F08091B1029EE187FF96E0D7
:1046C00080E0915008F4089521912223D1F38F5F67
:1046D000F8CF662301F1209127012223F1F02091E8
:1046E000B10227FF1AC0462F4695469546954E3192
:1046F00090F4677021E030E002C0220F331F6A950A
:10470000E2F7840F911DFC01828190E02823392378
:1047100081E0232B69F480E00895FC01329608962D
:104720002191261721F0E817F907D1F7F4CF81E09E
:1047300008959C01FC0132969FEF80E0419146175D
:1047400051F09F3F19F4411101C0982F8F5F8630BF
:10475000A9F79F3F09F40895290F311D97FD3A9558
:10476000F90162830895FC0132960896219126137F
:1047700003C0DF0111971C92E817F907B9F70895F4
:10478000E62FE695E695E695EE3168F4E80FF92F09
:10479000F11D677021E030E001C0220F6A95EAF751
:1047A0008281822B82830895E62FE695E695E69531
:1047B000EE3170F4E80FF92FF11D677021E030E061
:1047C00001C0220F6A95EAF720958281282322836F
:1047D000089520912701222329F02091B10227FD7D
:1047E0000C94C0230C94992320912701222329F0B3
:1047F0002091B10227FD0C94D4230C94B323FC0127
:10480000329680912701882351F08091B10287FF71
:1048100006C08EE1DF011D928A95E9F7089586E0D2
:10482000F9CF0895089508950C94132480911603E8
:10483000843059F10E94142480E00E94CD050E942A
:10484000291B10928B0288E190E020E40FB6F894C7
:10485000A895809360000FBE2093600083B7817F8E
:10486000846083BF83B7816083BF7894889583B762
:104870008E7F83BF0FB6F894A89580916000886101
:1048800080936000109260000FBE08950895CF934A
:104890000E9412240E940C130E944624C0E08C2F18
:1048A0000E942812892B31F4CF5FC530C1F780E018
:1048B000CF91089581E0FCCF08950C945C240E9470
:1048C00066090E94F5220E94CD050E94F51B0C94FA
:1048D0005D241F921FB61F9211248F939F93AF9355
:1048E000BF9380918B02811113C080910E03909130
:1048F0000F03A0911003B09111034196A11DB11DAA
:1049000080930E0390930F03A0931003B0931103B1
:10491000BF91AF919F918F911F901FBE1F901895CF
:1049200082E084BD93E095BD9AEF97BD80936E00C1
:1049300008952FB7F89480910E0390910F03A091E2
:104940001003B09111032FBF08952FB7F894609111
:104950000E0370910F0380911003909111032FBFEC
:1049600008959C014FB7F89480910E0390910F0326
:10497000A0911003B09111034FBF821B930B0895B8
:1049800078941F921FB61F9211248F939F93AF9319
:10499000BF9380910E0390910F03A0911003B091EB
:1049A00011030196A11DB11D80930E0390930F0377
:1049B000A0931003B0931103BF91AF919F918F917A
:1049C0001F901FBE1F90189581E08093E00080E249
:1049D0008093D8001092C9008FE19EE40197F1F70F
:1049E00000C0000087E090EBDC0180931F039093F0
:1049F0002003A0932103B093220388E19CE00FB62B
:104A0000F894A895809360000FBE90936000FFCF4C
:104A10009093D3018093D20108958091AF020895BD
:104A200090911603943029F580938C0270938E0236
:104A300060938D029093E9008FEF9091E800815090
:104A400095FD06C095ED9A95F1F700008111F5CF1F
:104A50008091E80085FF0DC050E040E063E070E029
:104A60008CE892E00E949C278091E8008E778093EA
:104A7000E8000895BC0184E00C941025BC0183E09B
:104A80000C9410259C0184E08093E9009FEF8091B5
:104A9000E800915085FD06C085ED8A95F1F700008C
:104AA0009111F5CF8091E80085FF0CC050E040E007
:104AB00066E070E0C9010E949C278091E8008E7733
:104AC0008093E8000895CF93DF93EC018091270154
:104AD0008823B1F18091B10287FF32C060E284E0A7
:104AE0008093E9008FEF9091E800815095FD06C01A
:104AF00095ED9A95F1F700008111F5CF8091E800CE
:104B000085FF1BC08091270170E050E040E08111DB
:104B100004C050E040E068E070E0CE010E949C27B5
:104B20008091E8008E778093E80080E2FE01AFE894
:104B3000B2E001900D928A95E1F7DF91CF9108954F
:104B400068E081E0CDCFCF93FC01603221F5809108
:104B50001603843001F5C091E900CF702091EC007C
:104B6000922F917020FD90E8C92B82E08093E9009C
:104B70008091E80080FF0CC050E040E060E270E00F
:104B8000CF010E949C278091E8008E778093E800F7
:104B9000CF70C093E900CF910895809115038111E2
:104BA00009C00E947B290E94D8298091E20084607C
:104BB0008093E200089510921503089508950895D2
:104BC000089542E061EC81E00E94F72842E261EC46
:104BD00084E00E94F72842E261EC82E00E94F7281C
:104BE00042E260EC83E00C94F72880911803833054
:104BF00009F461C030F48130D1F1823009F49DC0F4
:104C000008958A3009F489C08B3009F46FC0893067
:104C100009F050C080911703813209F04BC0809198
:104C20001B0390911C03009719F0029709F042C0F2
:104C30008091E800877F8093E8008091E80082FF00
:104C400035C09091F3008091F200029729F4809191
:104C5000F1008B7F813021F48091F1008093AF02CD
:104C60008091E8008B778093E8000C942B29809149
:104C70001703813AF9F48091E800877F8093E80078
:104C800080911B0390911C03892B61F460E28FE8F3
:104C900092E070E00E943A288091E8008B77809340
:104CA000E800089560E090E080E0F3CF8091160383
:104CB0008111C3CF089580911703813AD9F780916C
:104CC0001B0390911C03892BA9F78091E800877F33
:104CD0008093E8008091E80080FFFCCF809127015D
:104CE0008093F1008091E8008E77BDCF809117030B
:104CF000813201F780911B0390911C03892BD1F61F
:104D00008091E800877F8093E8000E942B298091A2
:104D10001903809327010C9466098091170381324F
:104D200049F68091E800877F8093E8000E942B2954
:104D300080911A038093B002089580911703813AFD
:104D400009F0B8CF8091E800877F8093E8008091D8
:104D5000E80080FFFCCF8091B002C2CF84B7877F8C
:104D600084BF0FB6F894A895809160008861809305
:104D70006000109260000FBE80E890E00FB6F894DB
:104D800080936100909361000FBE0C94460F0E94C7
:104D90007B290E94D829E2EEF0E080818460808344
:104DA00078940E94612C0E945A0F8DE191E00C943E
:104DB000F022CF93DF93CDB7DEB7A0970FB6F8946C
:104DC000DEBF0FBECDBF80911603853031F48091D8
:104DD0001603853091F10E945F240E94640F809138
:104DE0001603843009F583E08093E9008091E800A0
:104DF00082FF1AC08091E80090E085FF09C050E072
:104E000040E060E270E0CE0101960E94EB2791E065
:104E10008091E8008B778093E800992329F060E285
:104E2000CE0101960E948C1EA0960FB6F894DEBFAC
:104E30000FBECDBFDF91CF9108950E9416248091BF
:104E40001403882321F20E944724882309F4BFCF4A
:104E50000E9486270E946609BACF0C942F27292F1B
:104E600033272330310521F168F42130310509F46D
:104E700043C02230310509F444C090E080E030E0C6
:104E800020E026C02132310551F122323105A9F747
:104E90006330710590F7FB01EE0FFF1FEB53FE4FE0
:104EA000208131816E537E4FFB01808190E010C0E4
:104EB00099278130910581F0009729F00297E9F652
:104EC000E3EAF5E002C0E5EDF5E0849190E09F01B2
:104ED000FA01318320830895E1EBF5E0F6CF6330EA
:104EE000710558F6660F771FFB01E553FE4F2081D1
:104EF000318189E090E0ECCF82E190E024E336E07C
:104F0000E7CF8BE590E029ED35E0E2CF80E189BD88
:104F100082E189BD09B400FEFDCF8091D8008F7D6C
:104F20008093D8008091E00082608093E0008091BF
:104F3000E00081FDFCCF0895AF92BF92CF92DF9247
:104F4000FF920F931F93CF93DF936C01EB018A01C4
:104F50000E944A29F82E811123C00115110539F04C
:104F6000F80180819181C81BD90BC80ED91EB12CC4
:104F7000A12C2097A9F08091E80085FD22C08091A6
:104F8000E8008E778093E80001151105A1F0F80183
:104F900080819181A80EB91EB182A08285E0F82E91
:104FA0008F2DDF91CF911F910F91FF90DF90CF90C8
:104FB000BF90AF9008950E944A298823D1F2F82E1D
:104FC000EFCFF60181916F018093F1002197FFEF00
:104FD000AF1ABF0ACECFAF92BF92CF92DF92FF92AD
:104FE0000F931F93CF93DF936C01EB018A010E9413
:104FF0004A29F82E811123C00115110539F0F80155
:1050000080819181C81BD90BC80ED91EB12CA12C4F
:105010002097A9F08091E80085FD22C08091E800EA
:105020008B778093E80001151105A1F0F8018081CC
:105030009181A80EB91EB182A08285E0F82E8F2D35
:10504000DF91CF911F910F91FF90DF90CF90BF9094
:10505000AF9008950E944A298823D1F2F82EEFCF0D
:105060008091F100F60181936F012197FFEFAF1A54
:10507000BF0ACECFFC0180911D0390911E038617BD
:105080009707A0F06115710529F49091E8009E77CB
:105090009093E80090E06115710551F4911108C0FA
:1050A0008091E80082FF34C080E00895BC01F2CF17
:1050B000809116038823C1F18530C1F18091E80009
:1050C00083FD30C08091E80082FDEACF8091E80046
:1050D00080FFE1CF8091F3002091F200382F61151D
:1050E000710519F02830310558F091E0283031056C
:1050F00009F090E02091E8002E772093E800CBCFD4
:1051000081918093F100615071092F5F3F4FE7CF8C
:1051100080911603882341F0853041F08091E800AA
:1051200083FFBECF81E0089582E0089583E0089573
:10513000FC0180911D0390911E0386179707A0F034
:105140006115710529F48091E8008E778093E8005D
:1051500090E06115710551F4911108C08091E8004B
:1051600082FF35C080E00895BC01F2CF8091160324
:105170008823C9F18530C9F18091E80083FD31C0F1
:105180008091E80082FDEACF8091E80080FFE1CFC6
:105190008091F3002091F200382F6115710519F00C
:1051A0002830310558F091E02830310509F090E0C1
:1051B0008091E8008E778093E800CBCF8491809334
:1051C000F1003196615071092F5F3F4FE6CF80911A
:1051D0001603882341F0853041F08091E80083FF79
:1051E000BDCF81E0089582E0089583E00895982F6F
:1051F000973028F08F708093E90081E008959093B4
:10520000E900242F762F50E0981731F07091EC00D0
:105210002091ED005091F00021FD02C09F5FE8CF8A
:105220003091EB003E7F3093EB003091ED003D7FFD
:105230003093ED003091EB0031603093EB007093D0
:10524000EC002093ED005093F0002091EE0027FD3C
:10525000E5CF80E008958091170387FF13C0809108
:10526000E80082FF06C08091E8008B778093E80019
:1052700004C0809116038111F2CF08958091160326
:105280008823D9F38091E80080FFF8CF8091E8006F
:105290008E77ECCF2091E4003091E50095E6A901EE
:1052A0002091EC00822F817020FF06C08091E800E1
:1052B00080FF06C080E008952091E80022FD1AC01A
:1052C00080911603882389F0853089F08091EB0066
:1052D00085FD0FC02091E4003091E500421753078F
:1052E000F9F29150E1F684E0089582E0089583E0B8
:1052F000089581E008950E94E9290E94F129E0EED5
:10530000F0E0808181608083E8EDF0E080818F773C
:10531000808319BCA7EDB0E08C918E7F8C93808147
:105320008F7E80831092150308950F931F93CF9360
:10533000DF930E94E9290E94F129C8EDD0E088811D
:105340008F77888388818068888388818F7D888330
:1053500019BC1092160310921203109214031092AB
:10536000130300EE10E0F80180818B7F8083888139
:105370008160888342E060E080E00E94F728E1EEEF
:10538000F0E080818E7F8083E2EEF0E080818160BA
:105390008083808188608083F80180818E7F808314
:1053A000888180618883DF91CF911F910F9108954B
:1053B000E8EDF0E080818F7E8083E7EDF0E0808192
:1053C0008160808384E082BF81E0809315030C9428
:1053D0009529E8EDF0E080818E7F80831092E200D5
:1053E00008951092DA001092E10008951F920F9232
:1053F0000FB60F9211242F933F934F935F936F93A8
:105400007F938F939F93AF93BF93EF93FF9380917D
:10541000E10082FF0BC08091E20082FF07C0809113
:10542000E1008B7F8093E1000E94602C8091DA0084
:1054300080FF19C08091D80080FF15C08091DA00EC
:105440008E7F8093DA008091D90080FF96C080E142
:1054500089BD82E189BD09B400FEFDCF81E0809362
:1054600016030E94CD258091E10080FF19C0809134
:10547000E20080FF15C08091E2008E7F8093E20001
:105480008091E20080618093E2008091D800806288
:105490008093D80019BC85E0809316030E94DF2515
:1054A0008091E10084FF2BC08091E20084FF27C03F
:1054B00080E189BD82E189BD89B5982F917080FF17
:1054C000FBCF8091D8008F7D8093D8008091E10040
:1054D0008F7E8093E1008091E2008F7E8093E200D6
:1054E0008091E20081608093E20080911203882322
:1054F00009F449C084E0809316030E94E02580915E
:10550000E10083FF29C08091E20083FF25C08091E4
:10551000E100877F8093E10082E080931603109280
:1055200012038091E1008E7F8093E1008091E20080
:105530008E7F8093E2008091E20080618093E200A0
:1055400042E060E080E00E94F7288091F0008860EF
:105550008093F0000E94DE25FF91EF91BF91AF9103
:105560009F918F917F916F915F914F913F912F917B
:105570000F900FBE0F901F90189519BC1092160334
:105580000E94DB2570CF8091E30087FD93E090932C
:105590001603B3CF1F920F920FB60F9211242F93C1
:1055A0003F934F935F936F937F938F939F93AF93AB
:1055B000BF93CF93DF93EF93FF93D091E900DF7018
:1055C0008091EC00C82FC17080FDC0E81092E90006
:1055D0008091F000877F8093F00078940E940E2BDA
:1055E0001092E9008091F00088608093F000CD2B4C
:1055F000CF70C093E900FF91EF91DF91CF91BF9100
:10560000AF919F918F917F916F915F914F913F915A
:105610002F910F900FBE0F901F9018951F93CF934F
:10562000DF93CDB7DEB7AA970FB6F894DEBF0FBEF3
:10563000CDBF87E193E02091F100FC012193CF01E0
:10564000F3E08F319F07B9F70E94F5258091E800BC
:1056500083FF1EC180911703909118039A3008F0C0
:1056600017C1E92FF0E0E155F24D0C94D42C8038AD
:1056700099F0823809F00CC180911B038F7087303C
:1056800008F006C18093E9008091EB0085FB882734
:1056900080F91092E90006C08091130390911403E1
:1056A000911182609091E800977F9093E800809339
:1056B000F1001092F1008091E8008E77E5C0882318
:1056C00009F4D3C0823009F0E3C08091190381113D
:1056D000D6C080911B038F702FEF280F263008F063
:1056E000D7C08093E9002091EB0020FFC8C0933021
:1056F00031F48091EB0080628093EB00C0C0909108
:10570000EB0090619093EB0021E030E001C0220FAC
:105710008A95EAF72093EA001092EA008091EB0064
:105720008860EACF8111B4C0109119031F7780916E
:10573000E3008078812B8093E3008091E800877FED
:105740008093E8000E942B298091E80080FFFCCF25
:105750008091E30080688093E30082E0111183E090
:105760008093160395C08058823008F091C08091D4
:10577000190390911A038C3D23E09207A1F583E071
:105780008A838AE289834FB7F894DE01139620E07A
:105790003EE051E2E32FF0E050935700E49120FF08
:1057A00003C0E295EF703F5FEF708E2F90E0EA301C
:1057B000C0F0C7968D939D932F5F243159F74FBF4B
:1057C0008091E800877F8093E8006AE270E0CE0174
:1057D00001960E943A288091E8008B778093E80038
:1057E00057C0C096E7CF60911B0370911C03AE01B8
:1057F0004F5F5F4F0E942D27BC01892B09F448C0E1
:105800009091E800977F9093E80089819A810E94A7
:105810009828E1CF8038E1F58091E800877F809378
:10582000E800809112038093F10045CF811130C0D0
:1058300090911903923060F58091E800877F809302
:10584000E800909312030E942B2980911203882371
:1058500011F084E005C08091E30087FDFACF81E07C
:10586000809316030E94E12513C0809119038130B3
:1058700079F481E0933009F080E080931403109272
:10588000E9008091E800877F8093E8000E942B293F
:105890008091E80083FF0AC08091E800877F8093B1
:1058A000E8008091EB0080628093EB00AA960FB62F
:1058B000F894DEBF0FBECDBFDF91CF911F91089549
:1058C0000895CF93809116038823A1F0C091E90039
:1058D000CF709091EC00892F817090FD80E8C82BEB
:1058E0001092E9008091E80083FD0E940E2BCF709A
:1058F000C093E900CF91089587FB082E062687FD07
:10590000819567FD61950E94122D0EF4919507FC1B
:1059100081950895AA1BBB1B51E107C0AA1FBB1F9D
:10592000A617B70710F0A61BB70B881F991F5A952B
:10593000A9F780959095BC01CD01089597FB072E9E
:1059400016F4009407D077FD09D00E948A2C07FC3A
:1059500005D03EF4909581959F4F0895709561957F
:105960007F4F0895A1E21A2EAA1BBB1BFD010DC09B
:10597000AA1FBB1FEE1FFF1FA217B307E407F507FF
:1059800020F0A21BB30BE40BF50B661F771F881FDB
:10599000991F1A9469F760957095809590959B0171
:1059A000AC01BD01CF010895EE0FFF1F0590F491EA
:1059B000E02D099469279627692778278727782774
:1059C00008950E94E92C332312F48A1B9B0B0C943C
:1059D000FA2CA29FB001B39FC001A39F700D811D3F
:1059E0001124911DB29F700D811D1124911D0895E8
:1059F0000E94E92CB7FF0895821B930B08950E9423
:105A0000E92CA59F900DB49F900DA49F800D911D32
:105A100011240895B7FF0C94FF2C0E94FF2C821BC9
:105A2000930B0895991B79E004C0991F961708F00D
:105A3000961B881F7A95C9F780950895FC014150FF
:105A4000504030F001900616D1F73197CF010895FC
:105A5000882799270895FB01DC0104C08D910190EE
:105A6000801921F441505040C8F7881B990B0895C4
:105A7000F999FECF92BD81BDF89A992780B5089516
:105A8000A6E1B0E044E050E00C94722DA8E1B0E053
:105A900042E050E00C94722D262FF999FECF92BD72
:105AA00081BDF89A019700B4021639F01FBA20BDE3
:105AB0000FB6F894FA9AF99A0FBE08950396272F15
:105AC0000E944D2D0E944C2D252F0E944D2D242FDC
:105AD0000C944D2D0196272F0E944D2D0C944C2D8A
