:100000000C94B1030C94E9030C94E9030C94E903F8
:100010000C94E9030C94E9030C94E9030C94E903B0
:100020000C94E9030C94E9030C94AA2A0C947E2BFB
:100030000C94CA240C94E9030C94E9030C94E9038E
:100040000C94E9030C94E9030C94E9030C94E90380
:100050000C94E9030C9451250C94E9030C94E903E6
:100060000C94E9030C94E9030C94E9030C94E90360
:100070000C94E9030C94E9030C94E9030C94E90350
:100080000C94E9030C94E9030C94E9030C94E90340
:100090000C94E9030C94E9030C94E9030C94E90330
:1000A0000C94E9030C94E9030C94E90329001E0065
:1000B0001F0020002100220023002400250026002C
:1000C00027002D002E002A002B0014001A00080023
:1000D000150017001C0018000C00120013002F0060
:1000E00030003100394104001600070009000A0001
:1000F0000B000D000E000F00330034004C002800F0
:10010000E10000001D001B000600190005001100A1
:100110001000360037003800E5001150E000E30021
:10012000E2000000000000002C00000000000000C1
:10013000E600E7007600E400010001000100010094
:1001400001000100010001000100010001000100A7
:100150000100010001000100010001000100010097
:100160000100010001005F0060006100010001006A
:100170000100010001000100010001000100010077
:1001800001005C005D005E000100580001000000FD
:1001900001000100010001000100010001006200F6
:1001A00059005A005B00010001000100010000003D
:1001B000000000000100000000000000010001003C
:1001C0000100010001000100010001000100010027
:1001D0000100010001000100010001000100010017
:1001E0000100010001000100010001000100010007
:1001F00001000100010001000100010001000100F7
:1002000001000100010001000100010001000100E6
:1002100001000100010001000100000001000100D7
:1002200001000100010001000100010001000100C6
:1002300001000100010001000100000000000000B9
:1002400001000000000000000100010001000100A9
:100250000100010001000100010001000100010096
:100260000100010001000100010001000100010086
:100270000100010001000100010001000100010076
:100280000100010001000100010001000100010066
:100290000100010001000100010001000100010056
:1002A0000100010001000000010001000100010047
:1002B0000100010001000100010001000100010036
:1002C000010001000100000000000000010000002A
:1002D000000000000100010001000100000000001A
:1002E000000000002A2B2800000000000000000091
:1002F0000000000000000029000000002C1E342037
:10030000212224342627252E362D3738271E1F205C
:100310002122232425263333362E37381F040506A1
:100320000708090A0B0C0D0E0F10111213141516E5
:100330001718191A1B1C1D2F3130232D35040506E3
:100340000708090A0B0C0D0E0F10111213141516C5
:100350001718191A1B1C1D2F3130354C00000000D6
:10036000000000000000000000000000000000008D
:10037000000000000000000000000000000000007D
:100380007E0F00D4FFFFFFC7000000781E0F05009E
:10039000047F3F1F643214643214783C1E1E140A1A
:1003A000052223252628292A2C2D2F3032333536B5
:1003B000383A3B3D3E4042434547494A4C4E5051F6
:1003C000535557595A5C5E6062646668696B6D6F1D
:1003D00071737577797B7D7F81838587898A8C8E20
:1003E00090929496989A9C9E9FA1A3A5A7A8AAAC28
:1003F000AEAFB1B3B4B6B8B9BBBCBEBFC1C2C3C562
:10040000C6C7C9CACBCCCDCED0D1D2D2D3D4D5D603
:10041000D7D7D8D9D9DADADBDBDBDCDCDCDCDCDD36
:10042000DDDDDDDCDCDCDCDCDBDBDBDADAD9D9D81A
:10043000D7D7D6D5D4D3D2D2D1D0CECDCCCBCAC9B2
:10044000C7C6C5C3C2C1BFBEBCBBB9B8B6B4B3B1E1
:10045000AFAEACAAA8A7A5A3A19F9E9C9A9896947C
:1004600092908E8C8A89878583817F7D7B79777551
:1004700073716F6D6B6968666462605E5C5A595730
:10048000555351504E4C4A4947454342403E3D3BEF
:100490003A3836353332302F2D2C2A292826252379
:1004A00022FFAA7F55400001010101010101010164
:1004B0000202020202020202020303030303030315
:1004C00003040404040404040505050505060606E2
:1004D0000606070707070708080808090909090A9F
:1004E0000A0A0B0B0B0C0C0C0D0D0D0E0E0E0F0F44
:1004F0000F101011111112121313141415151616D2
:100500001717181819191A1A1B1B1C1D1D1E1E1F40
:100510002020212222232424252626272829292A8F
:100520002B2C2D2D2E2F30313232333435363738B7
:10053000393A3B3C3D3E3F404142434445464748B3
:10054000494A4C4D4E4F50515354555658595A5B89
:100550005D5E5F616264656668696B6C6D6F707229
:10056000737577787A7B7D7E8082838587888A8C95
:100570008E8F91939596989A9C9EA0A2A3A5A7A9C9
:10058000ABADAFB1B3B5B7BABCBEC0C2C4C6C9CBC0
:10059000CDCFD1D4D6D8DBDDDFE2E4E7E9EBEEF076
:1005A000F3F5F8FAFDFF0C034B006100790036000B
:1005B0003000000022034D006500630068006C00FD
:1005C0006F00760069006E00200053007400750013
:1005D000640069006F0000000403090409025B0065
:1005E000030100A0FA090400000103010100092130
:1005F00011010001224000070581030800010904E0
:100600000100020300000009211101000122220063
:1006100007058203200001070503032000010904E8
:100620000200010300000009211101000122B600AF
:100630000705840320000112010002000000084C9D
:100640004D01060100010200010660FF0961A101E0
:100650000962150026FF00952075088102096315BF
:100660000026FF00952075089102C005010902A12E
:100670000185020901A100050919012908150025B4
:10068000019508750181020501093009311581259F
:100690007F95027508810609381581257F950175BA
:1006A000088106050C0A38021581257F9501750819
:1006B0008106C0C005010980A101850319012AB77F
:1006C00000150126B700950175108100C0050C09C1
:1006D00001A101850419012AA002150126A0029595
:1006E0000175108100C005010906A10185060507F5
:1006F00019E029E715002501950875018102050714
:10070000190029EF1500250195F0750181020508F2
:10071000190129059505750191029501750391014E
:10072000C005010906A101050719E029E715002503
:100730000195087501810295017508810105071968
:100740000029FF150026FF009506750881000508A1
:10075000190129059505750191029501750391010E
:10076000C00011241FBECFEFDAE0DEBFCDBF04B65C
:1007700003FE18C08091B9039091BA03A091BB0306
:10078000B091BC038730904BA740B04B59F4109206
:10079000B9031092BA031092BB031092BC03E0E0BD
:1007A000F8E3099511E0A0E0B1E0ECE0FEE502C05D
:1007B00005900D92AE3DB107D9F723E0AEEDB1E063
:1007C00001C01D92A93BB207E1F70E942C130C94C3
:1007D000DB2E0C94000081E0089581E008950E94D2
:1007E000ED03089508950E94F2030895A5E0B0E096
:1007F000ECEFF3E00C94D62D49835A833091E1015C
:1008000089819A81311119C0662399F0222389F0D8
:100810000E943D0A182F682F89819A810E94190A27
:1008200069817A81812F0E94B6212596E3E00C949C
:10083000F22D0E942B0A182FF3CF0E943D0A6981E6
:100840007A81F1CFFC01262F408151816281738131
:1008500084810E94F603089581E00895CF93DF9389
:10086000EC0160E00E942204BE010E94F303DF91CC
:10087000CF910895E1E0F0E0DF0102C0AA0FBB1FB5
:100880006A95E2F7BD01DF0102C0AA0FBB1F4A95BE
:10089000E2F76A2B01C0EE0F2A95EAF7962F98230C
:1008A000961302C08E2B0895E0958E230895242F71
:1008B000462F682F8091FD010E943A040E94790919
:1008C00008950E94D71108950E94DB11089508959C
:1008D0000E9416090E9467042FEF84E39CE02150D8
:1008E00080409040E1F700C0000008950E94680435
:1008F0000E94752508950E9468040E949925089514
:100900000F931F93CF93DF938C0161E00E94220429
:10091000EC01B8010E945D1E811106C080E0DF91EC
:10092000CF911F910F910895B801CE010E94EF035E
:100930008823A1F3B801CE010E94FB22882371F322
:10094000B801CE010E94A91F882341F3B801CE014E
:100950000E946D22882311F3B801CE010E94011D6F
:100960008823E1F2F8018281882361F0CA35FDE530
:10097000DF0701F158F4C115ECE5DE0791F0CE3D3B
:10098000DC4591F0C8010E94EB03C9CFCC358DE561
:10099000D80769F090F0C73ADD45A1F70E947B04C3
:1009A000BDCF0E947604BACF0E94F60EF7CF0E9408
:1009B000300EE8CF0E943A0EE5CF0E943E0EE2CF05
:1009C0000E94A6240E94D4050E94671B08950E94DD
:1009D000D8050E943E1C0E94AB240895B0E0A0E020
:1009E000E4EFF4E00C94D22DE82FF0E0E452FD4F58
:1009F000D490282F26952695269530E0F901E458C5
:100A0000FC4F0491877010E0082E02C015950795E1
:100A10000A94E2F701701127F901E459FC4FE490C0
:100A2000F12C082E02C0F594E7940A94E2F791E0C5
:100A3000E922FF24F901E45AFC4FC491D0E002C03E
:100A4000D595C7958A95E2F7C170DD270115110587
:100A500019F081EE0E942306E114F10419F086EEEC
:100A60000E9423068D2D0E94B906E114F10419F0AD
:100A700086EE0E946F060115110519F081EE0E94A5
:100A80006F06CD2B19F08CE20E94B906CDB7DEB708
:100A9000E7E00C94EE2DEF92FF920F931F93CF930C
:100AA000DF93EC01162F0AE08881882309F454C0F3
:100AB000813009F04EC08981813099F47E0122E0B5
:100AC000E20EF11C8A810E94B906E7012196812F6E
:100AD000815050F3EFE9FFE03197F1F700C00000DB
:100AE000F7CF823041F47E0182E0E80EF11C8A816A
:100AF0000E942306EACF833041F47E01E2E0EE0E4D
:100B0000F11C8A810E946F06E0CF843011F021969B
:100B1000DDCF2A81229690E080E0AE014F5F5F4FEB
:100B20002053330B2A30310548F0019778F2EFE972
:100B3000FFE03197F1F700C00000F7CF089FB00148
:100B4000099F700D1124C901860F971F2981EA01A1
:100B5000E4CF0E94EE04BACFCDB7DEB7E6E00C9446
:100B6000EF2D60E00E944B05089508950E94B505A1
:100B7000089581E00895CF93C82F0E94B905882376
:100B800019F0C1FD03C0289ACF9108952898FCCF91
:100B9000209A289A0895CF93C82F0E94B6058C2FCB
:100BA0000E94BB05CF91089580E00E94CB05089577
:100BB0000E9457230E94CB0508950E9457239091CD
:100BC000E001981721F08093E0010E94CB05089581
:100BD000ABE0B0E0EEEEF5E00C94D72D4F835887F4
:100BE00069877A878B8761110E947B0D1E821D8227
:100BF00085E0FE013796DE01119601900D928A95EF
:100C0000E1F78C819D81892B61F449815A816B8147
:100C10007C818D819E810E94A40C2B96E2E00C9435
:100C2000F32D89819A8189238F3F79F3CE01019633
:100C30000E942C048111E9CFF0CFFC0180819181C9
:100C40000E946A0A0895CF93C82F8823B9F08CEFC9
:100C50008C0F813AA8F46C2F8091040190910501CA
:100C60000E94CC23882329F08C2F0E943B0D0E94E8
:100C70009C0D8C2F0E94330D0E949C0DCF910895E6
:100C800080E28C0F883048F4C77081E001C0880F83
:100C9000CA95EAF70E945E0DEFCFEBE5EC0FE3306B
:100CA00040F4F0E0E45AFE4F808190E00E948C23F3
:100CB000E5CFE8E5EC0FE73150F4F0E0EE0FFF1F71
:100CC000E25DFE4F808191810E94A223D7CFC03F79
:100CD000A8F28C2F0E94B0130E948314CFCF8823D8
:100CE00079F19CEF980F913A28F40E943B0D0E94F5
:100CF0009C0D089590E2980F983050F4877091E021
:100D000001C0990F8A95EAF7892F0E94640DEFCFF1
:100D10009BE5980F933028F490E080E00E948C23AC
:100D2000089598E5980F973128F490E080E00E94AC
:100D3000A2230895803F20F00E940A140E94831489
:100D400008951F93CF93DF93182FEB010E94230682
:100D5000209739F4812F0E946F06DF91CF911F9168
:100D600008958FE99FE00197F1F700C000002197F7
:100D7000EFCF70E060E0893311F460E570E00E942D
:100D8000A1060895882321F00E945E0D0E949C0D0B
:100D90000895882321F00E94640D0E949C0D0895FF
:100DA000B0E0A0E0E6EDF6E00C94D02D6C01D62F7B
:100DB000C72FFC011281F580F2949FE0F9220E9476
:100DC000540DE82E8823B9F0E12E1123A1F08C2FC9
:100DD000807F803421F080E28D0F8830D0F08091C8
:100DE0004C0382FF16C082E00E94FF0D0E94540D4A
:100DF00091E0E82EE926BC2EB2948FE0B822FBE009
:100E0000FB1508F468C0EB2DF0E0E352F14D0C94B3
:100E1000892DE12CF0CF0C2F0F70C07F11F00295BF
:100E2000007F112399F0002359F080E28D0F883064
:100E300010F0D11107C0802F0E945E0D0E949C0D02
:100E40008D2F41C0802F0E946E0DF8CF8D2F0E94F4
:100E50006F06002309F43FC080E28D0F883010F048
:100E6000D11104C0802F0E94640D03C0802F0E9406
:100E7000740D0E949C0D2FC00C2F0F70C07FC032CC
:100E800011F00295007FDD2381F0D13009F463C0B9
:100E9000112309F46DC0FF2009F463C0F6018581B8
:100EA00080FFCECF8F7085835CC080914C0382FD24
:100EB00033C0112359F0002329F0802F0E945E0DCA
:100EC0000E949C0D80E00E94230605C080E00E94E5
:100ED0006F060111C7CFEB2DE850FF0B349720F4BC
:100EE0000E9457230E94CB05EE2089F00E94500DEE
:100EF00080FD0DC0F60112820E944A0D0E948D09EC
:100F0000C6010E94D6080E944A0D0E949909CDB7D9
:100F1000DEB7E9E00C94EC2D112389F0F11006C046
:100F20000E947E0D802B0E94C206D5CF21E0F212D6
:100F3000F7CF0E947E0D802B0E94850DCCCFF11043
:100F400006C00E94920D802F0E94C906C4CF31E0D6
:100F5000F31609F2F6CF112331F085E08F1508F46E
:100F6000BACF802FE0CF94E09F1508F4B4CFEBCF39
:100F7000FF2049F3D93349F4FFEF27EE33E0F15076
:100F800020403040E1F700C000008D2F0E946F0626
:100F9000A2CF8C2F86958695837069F0813009F0F9
:100FA0009ACF8D2F9C2F9370111102C090E080E09A
:100FB0000E94A22390CF8D2F9C2F9370111102C0FD
:100FC00090E080E00E948C2386CF8D2F112329F0A2
:100FD0000E94B0130E9483147ECF0E940A14FACF9D
:100FE0008C2F837079F5111176CF4D2F4295469550
:100FF0004770440F440F8D2F8F70042E01C0880F4F
:101000000A94EAF72D2F2071D4FF07C02FE030E0BB
:1010100001C0220F4A95EAF72095C695C695C37080
:10102000822BC23049F058F4C13019F00E94670990
:1010300052CF0E9461094FCF0E946D094CCF0E9490
:101040005E0949CF8695112311F08C2F817088237A
:1010500009F441CF4D2F429546954770440F440FF8
:101060008D2F8F70042E01C0880F0A94EAF72D2F60
:101070002071D4FF07C02FE030E001C0220F4A9555
:10108000EAF72095C695C695C370822BC23049F009
:1010900058F4C13019F00E94B8091DCF0E94B2095E
:1010A0001ACF0E94BE0917CF0E94790914CFCF70C2
:1010B000112329F08C2F0E948D098D2F34CF8D2F75
:1010C0000E94C9068C2F0E94990905CFD23F51F189
:1010D00060F4D03FB9F0D13F81F0112309F449C049
:1010E000F110AECE8C2F8F7121C0D33F11F1D43FC0
:1010F000A1F780914C0382FD26C08C2F8F711123A4
:1011000011F314C0112349F084E08F1508F4E3CEE5
:101110008C2F8F710E94A609DECE95E09F1508F4F2
:10112000DACEF6CF8C2F8F711111CDCF0E948D09A1
:10113000D2CE112329F08C2F8F710E948409CBCE3F
:101140000E948009C8CE112349F0CF718C2F0E94D4
:101150008D0963E08C2F0E94E10DBDCE81E00E94DD
:10116000FF0DE1E0EF1508F0B6CE82E00E94FF0D22
:10117000B2CEF110FFCE8C2F8F71A5CF0F931F939E
:10118000CF93DF93EC01688179818A810E94750A8F
:101190008C010E94C4090E945D09B801CE010E9421
:1011A000D006DF91CF911F910F910895CF93DF93D8
:1011B000EC018B819C81892B29F08881998189237D
:1011C0008F3F51F4DF91CF910895CE010E94BE0868
:1011D000CE010E942E04F6CFCE010E948004811120
:1011E000F4CF0E94540D882369F38A81882351F338
:1011F00080914C0382FFE6CF82E00E94FF0DE2CF98
:1012000090E080E00E948C2390E080E00E94A22386
:101210000E947B0D0E949C0D0E949F140E948314CB
:1012200008950E94430D0E94000908950E946B0DCD
:101230000E941109089592959F70963091F058F48C
:10124000925F9F70923058F4803F19F030F4883EDE
:1012500030F481E008959A5FF4CF843FD1F380E0C9
:101260000895883EB0F3813FD1F7F3CFFC01808130
:1012700091810E946A0A0E941B090895A5E0B0E0CE
:10128000E4E4F9E00C94D72D2596E2E00C94F32DDC
:10129000A6E0B0E0EEE4F9E00C94D72D2696E2E06B
:1012A0000C94F32D08950E94520908950E94530949
:1012B0008093FE010E940009089508950E94560936
:1012C00008959091FE01892B0E94560908959091EE
:1012D000FE0189230E94560908959091FE018927F5
:1012E0000E94560908950E94520908950E947309A8
:1012F00008950E9476098093FD010E9400090895D7
:1013000080E00E947909089591E001C0990F8A95C3
:10131000EAF7892F0E947909089521E030E001C0A1
:10132000220F8A95EAF78091FD01822B0E947909AC
:10133000089521E030E001C0220F8A95EAF7209558
:101340008091FD0182230E947909089521E030E017
:1013500001C0220F8A95EAF78091FD0182270E9441
:10136000790908959091FD01892B0E9479090895CA
:101370009091FD0189230E94790908959091FD01C2
:1013800089270E94790908950895262F277091E0F2
:1013900001C0990F2A95EAF723E0769567952A957B
:1013A000E1F7FB01EE0FFF1FE60FF71FE40FF51F3C
:1013B00050E040E0682F70E08191DF0111979B01C0
:1013C000042E02C0369527950A94E2F721702195E4
:1013D0002827292328272C934F5F5F4F433051053F
:1013E00059F70895A82FA77023E0969587952A9519
:1013F000E1F7FC01EE0FFF1FE80FF91FE60FF71FE3
:1014000050E040E080E0219130E00A2E02C03695A5
:1014100027950A94E2F721703327042E01C0220F8A
:101420000A94EAF7822B4F5F5F4F4330510559F71B
:101430000895262F953070F48E3060F4682F70E098
:101440008EE0989F600D711D112442EE51E0822FB5
:101450000E94C5090895292F953068F48E3058F4FC
:1014600090E062EE71E03EE0239F800D911D11241B
:101470000E94F209089580E00895CF92DF92FF92D2
:101480000F931F93CF93DF936C010091FD01809127
:10149000FE01082BC7E0D0E010E0FC2EC8010C2EA6
:1014A00002C0959587950A94E2F780FD0CC02197BC
:1014B000A0F7F12C8F2DDF91CF911F910F91FF900D
:1014C000DF90CF900895B6018C2F0E94BD10019738
:1014D00071F3F0CFCF93DF93EC010E943D0ABE0180
:1014E0000E94BD10DF91CF9108951F93CF93DF939A
:1014F000EB019091E101992339F0CB010E946A0A36
:10150000DF91CF911F910895882369F0CB010E944C
:101510003D0A182F682FCE010E94190ABE01812FA3
:101520000E94BD10EDCFCB010E942B0A182FF6CFE1
:101530001F93CF93DF93C091FF0116E080910002CB
:101540008C1304C0DF91CF911F910895D0E01C9FB0
:10155000F0011D9FF00D1124EF5FFD4F408151817F
:1015600062817381848195810E9448092196C770A8
:10157000E5CF409131025091320260913302709177
:10158000340280913502909136020E9448090895F4
:101590001F93CF93DF9380913602807F09F049C07B
:1015A00080913302882309F444C08091FF01C091E7
:1015B00000026091310270913202A0913402B09128
:1015C0003502D62FD72316E0C81799F190E010976F
:1015D00011F0DF3F19F401968770F6CF189F900144
:1015E000199F300D1124F901EF5FFD4F4181471321
:1015F000F2CF40814613EFCF42814111ECCF4381BE
:1016000054814A1B5B0B483C510528F780913602F8
:101610008F70806180933602F901EA5FFD4F80810F
:101620008F708061808381E392E00E94D6080E94DF
:10163000980ADF91CF911F910895A1E1B0E0E3E214
:10164000FBE00C94CF2D8C0185E0F801DE011D96A6
:1016500001900D928A95E1F7F801E28081E3C82EAE
:1016600082E0D82E609134027091350261157105C7
:1016700009F44EC19091310220913202892F8223C8
:101680008F3F09F445C140815181A380B480F0901F
:101690003302F501E61BF70BFF2009F4EAC0809145
:1016A0003602382F307FE83CF10508F0A3C0311135
:1016B0006DC0FE2C251316C0941314C0E11012C087
:1016C0008F708061809336020E94B90AC6010E9421
:1016D000D60880913602F80185838F2D6196EAE065
:1016E0000C94EB2DA114B10429F0842F85238F3F96
:1016F00009F027C180E0F82FF170DF2E80FF3CC099
:101700008091FF012091000236E0821315C04D87C1
:101710005E878D859E850E946A0A292F22952F70EB
:101720002230F0F0243018F59F70F1F0F801958127
:10173000907FD1F4D12C1EC090E0389FF001399FEA
:10174000F00D1124EF5FFD4F6181651306C06081CC
:10175000641303C06281E6120FC001968770D5CF73
:101760009F7011F0882331F3805E883018F3C80130
:101770000E94D608FD2CB1CFEE2009F4AECF8091A7
:101780003602816080933602F12CA7CF251306C064
:10179000941304C0F801EE2009F487C0C8010E9428
:1017A0003609882319F1EE2009F180913602803242
:1017B00070F0209131023091320238872F831986E0
:1017C000BB86AA868C87CE0107960E94D60886E043
:1017D000F801A1E3B2E001900D928A95E1F70E9431
:1017E000C80A0E94B90AFF24F39477CFC8010E9467
:1017F000D608F9CF311113C07A2DB98AA88A6E2D77
:1018000089890E943E0981E392E00E94D60886E021
:10181000F60111928A95E9F70E94B90AB5CF25130E
:101820000FC094130DC0E1100BC0F8018583C801EF
:101830000E94D60886E0F60111928A95E9F74DCF0D
:10184000C8010E943609882389F2EE2079F280913E
:101850003602803208F4BBCF20913102309132023F
:101860003A8329831B82BD82AC828E83CE0101968E
:10187000ACCFE83CF10508F03EC0FE2CEE2009F4A8
:10188000B5CF25132AC0941328C08091360280FD5D
:101890001BC0982F907FC1F0F8018583903F31F0F5
:1018A000982F907F905F8F70892B8583C8010E944D
:1018B000D60886E0F801A1E3B2E001900D928A9586
:1018C000E1F70E94B90A09CF86E0F801A1E3B2E08E
:1018D00001900D928A95E1F700CFC8010E94360968
:1018E000811175CF80913602816080933602C801E4
:1018F0000E94D608F2CE7A2DB98AA88A6E2D8989DF
:101900000E943E0986E0F60111928A95E9F7D9CF47
:10191000EE2009F46BCFC8010E943609F82E882307
:1019200009F464CF86E0F801A1E3B2E001900D92E2
:101930008A95E1F781E392E00E941D060E94C80AA1
:10194000C0CF81E08E25D7CEACE0B0E0EAEAFCE083
:101950000C94D62D4F83588769877A878B879C870D
:10196000CE0107960E941D0B882369F08A859B850E
:10197000892B39F04F815885842F85238F3F09F0BB
:101980006BC016E05FC086E0FE013796DE0111965F
:1019900001900D928A95E1F78A859B85892B89F3C1
:1019A0008F81988589238F3F61F32091000230E079
:1019B000C9010196877099274091FF0148171906C0
:1019C00071F40E941609109200021092FF0186E045
:1019D000E1E3F2E0DF011D928A95E9F7D2CF96E0CC
:1019E000929FD001939FB00D1124AF5FBD4FFE01B8
:1019F000319601900D929A95E1F7809300020E9432
:101A0000980ABFCF819FC00111248F5F9D4F0E9414
:101A10001D0B8823E9F0E091FF011E9FF0011124C6
:101A2000EF5FFD4F40815181628173818481958197
:101A30000E9448098091FF0190E0019687709927E4
:101A40008093FF018091FF01909100028913DACF0A
:101A50002C96E3E00C94F22D69857A858B859C8524
:101A60000E9448098ECF682F809104019091050152
:101A70000E944C240895682F8091040190910501E3
:101A80000E945A24089580910401909105010E94BA
:101A900068240895809157028595859585950895C8
:101AA000809157028770089590915702977081E056
:101AB00009F480E0089580917A02089590917A0265
:101AC000892B80937A020895809590917A029823C9
:101AD00090937A02089510927A0208959091790273
:101AE000892B8093790208958095909179029823AB
:101AF0009093790208951092790208958091580286
:101B0000089508950E94810D089590914C0392FFCD
:101B100008C090915802981721F0809358020E94B3
:101B2000820D089580915802882329F0109258025E
:101B300080E00E94820D0895CF93DF93E09104012D
:101B4000F091050180917A028083E0910401F09187
:101B50000501808190917902892B808390915802B0
:101B6000992381F0E0910401F09105018081892B96
:101B7000808380910401909105010E94B823811116
:101B80000E94920DC0910401D091050140E250E005
:101B900067E372E0CE010E94672E892B59F080E244
:101BA000FE01A7E3B2E001900D928A95E1F7CE0124
:101BB0000E946423DF91CF91089508950E94DD0D66
:101BC000089590914C0392FF11C098E0899F900175
:101BD0001124622B609357020E948D098091570255
:101BE0008595859585950E94DE0D08950E948D0945
:101BF00008951092570280E00E94DE0D08959091A2
:101C000057028095892380935702282F277091F4DB
:101C1000282F082E000C330B9217130659F09091C1
:101C20004C0392FF07C08595859585950E9499097B
:101C30000E94F90D089590914C0392FB222720F900
:101C4000281769F080FB92F990934C0380914B0325
:101C500090914C030E946D0E82E00E94FF0D08954A
:101C600080914C0382FB882780F991E089270E94AC
:101C70001B0E089581E00E941B0E089580E00E94D3
:101C80001B0E08956FEF7FEF90E080E00E94A62E7C
:101C9000089590E080E00E94822E883E9E4F19F4C5
:101CA0000E94F71D089580E0089582E090E00E9470
:101CB000742E089583E090E00E94742E0895CF93CF
:101CC00084E090E00E94742EC82F82E290E00E948F
:101CD000742E982F8C2FCF910895CF93C92F682FF2
:101CE00084E090E00E94882E6C2F82E290E00E94B7
:101CF000882ECF910895AB01BC018FE090E00E9447
:101D00009A2E0895AB01BC0183E190E00E949A2EC7
:101D1000089560E070E0CB010E94820E089560E0BB
:101D200070E0CB010E947B0E0E94890E089568EE40
:101D30007EEF90E080E00E94A62E60E082E090E0DE
:101D40000E94882E60E083E090E00E94882E10922E
:101D5000FE0160E084E090E00E94882E64E082E270
:101D600090E00E94882E60E085E090E00E94882E3E
:101D700060E086E090E00E94882E6FEF87E090E0C0
:101D80000E94882E40E050E0BA0188E090E00E9476
:101D90009A2E60E08DE090E00E94882E40E050E0B6
:101DA000BA0188E190E00E949A2E60E087E190E01D
:101DB0000E94882E40E050E0BA018CE190E00E9441
:101DC0009A2E70E060E080E290E00E94A62E40E053
:101DD00050E0BA0188E190E00E949A2E80E00E94D3
:101DE000101E0E94401E0E948F0E08950E94970EA2
:101DF0000895682F8EE090E00E94882E08950E943A
:101E000036256093890270938A0280938B029093A7
:101E10008C02609385027093860280938702909370
:101E200088020895089508950E94130F0895089553
:101E30000E94170F08958CE991E10E944D230E94A2
:101E4000120F0E94140F089581E008950E94240F3C
:101E50000895089508950E94290F0E942A0F089559
:101E60000E94BB110E94C80508950E9421250E946E
:101E7000501E0E9493120E94300F0E94021C0E946A
:101E8000180F0895AAE0B0E0E8E4FFE00C94CC2D30
:101E90000E94A912A82E81110E94FF0E5BE7852ED9
:101EA00052E0952E10E000E0702E802F0E94DE118F
:101EB0006C01F401E190F1904F01E816F90609F484
:101EC00044C080918D0281FD0E94E711C7018C25DD
:101ED0009D25B12CEE24E394F12C9C012E213F2171
:101EE000232B69F10E94260F8823B1F0BE827F82E6
:101EF000CE20DF2081E0C114D10409F480E088877E
:101F00000E942A258160782F9A8789874E815F8178
:101F100068858A850E94E805000F111FF801E558C1
:101F2000FD4F80819181E826F926F182E08281E0EF
:101F3000A11001C080E02A96EDE00C94E82DB39446
:101F4000EE0CFF1CFEE0BF12C8CF0F5F1F4F053025
:101F5000110509F0A9CF8FEF89838A831B820E9424
:101F60002A258160782F9D838C8349815A816B81DA
:101F70008D810E94E805DBCF0E94420F0E94481C21
:101F80000E94C1140E94DD050895CF93DF930E9443
:101F9000C210EC01811521E5920708F042C08115BD
:101FA00030E5930708F09DC0883E910530F5803EEE
:101FB000910508F092C0883A910588F4853A910518
:101FC00008F084C08130910509F487C0009709F4B6
:101FD00084C0049708F081C0D0E0C0E07EC08F3B91
:101FE0009105D0F7C85AD0E0CC0FDD1FC15ADE4FA3
:101FF0000990D881C02DD46470C08115904250F4EE
:10200000C11581E0D80708F068C0C03FD10520F3B2
:10201000D06563C0C11590E4D907F0F2DF70D06AD3
:102020005CC0811525E5920700F5811534E593071D
:1020300008F08BC0811543E5940708F073C0C11503
:1020400082E5D80708F469C0CE018370992721E0A2
:1020500030E002C0220F331F8A95E2F7C695C6957D
:1020600080E2C89FE001112454C0C11599E5D90749
:10207000A8F4C11528E5D20708F06CC0C11536E5F3
:10208000D30708F0A9CF8C2F0E945911C82FD0E098
:10209000DC2FCC27CC27DF71D0621FC0C1154AE5E9
:1020A000D40708F45CC0CE0190568115904208F028
:1020B00093CF8D2F8F710E94591190E0982F882710
:1020C00088279F719C012C2BE901E6CFC55AD0E0EF
:1020D000C357DE4FC881D0E0D064CE01DF91CF91ED
:1020E0000895E4E096958795EA95E1F783702C2FA3
:1020F00026952695237040E2249F90011124382BC9
:102100008C2F8370C1E0D0E002C0CC0FDD1F8A9518
:10211000E2F7C22BD32BDC68E0CFDC2FCC27C16FDA
:10212000D06ADBCF8370992721E030E002C0220F14
:10213000331F8A95E2F7C695C69590E2C99FE001E4
:102140001124C22BD32BDA68C8CFD82FCC27C46F69
:10215000D06AC3CFDC2FCC27C06FD06ABECF8C2F04
:102160008F700E94591134E0D695C7953A95E1F7E2
:10217000CF709C2FEC01D069B0CF0E94B6210E9495
:10218000C50F089582389105B1F1B0F481339105FE
:1021900009F475C048F48932910509F469C08A329E
:1021A000910509F473C008958533910509F459C068
:1021B0008933910501F10895833E9105A9F138F421
:1021C000803E9105F9F0823E910549F10895863EE1
:1021D0009105A9F1873E9105C9F1843E910519F554
:1021E00020914C0321FF1FC080914B0384FD14C03C
:1021F00087EE90E0089520914B032370A1F080EECC
:1022000090E0089520914B0320FD47C030914C038E
:1022100030FF09C024FF44C090E080E004C020915A
:102220004B0322FDF7CF089520914B0322FD3BC0C5
:1022300030914C0330FDE3CF24FFF5CFEDCF20915B
:102240004B0323FFF0CF24FDE7CFD2CF20914B03E8
:1022500023FD2CC030914C0331FFEECF84EE90E093
:10226000089520914B0325FFDECF89E290E0089589
:1022700020914B0325FFD7CF85E390E0089520916F
:102280004B0326FFD0CF8AE290E0089520914B03C4
:1022900026FFC9CF81E390E0089589E390E0089597
:1022A00083EE90E0089582EE90E0089586EE90E04F
:1022B000089590914B0392FF06C0282F2871283073
:1022C000F9F4877F846093FF06C0282F2871283196
:1022D000F1F4877E846120914C0320FF06C0382FE3
:1022E00038713830D9F4877F816021FF06C0282FEC
:1022F00028712831D1F4877E816194FD877E08950D
:10230000282F24712430F9F68B7F8860DCCF282FAA
:102310002471243101F78B7E8861DDCF382F317134
:10232000313019F78E7F8860E0CF282F217121315D
:1023300021F78E7E8861E1CF80E008950E94420EF1
:1023400008950E94A9122FEF86E791E02150804066
:102350009040E1F700C000000E94A91280E00E94B6
:10236000DE1180FF04C00E949E110E947525089511
:102370000E94A11108950E94490E811102C00E947D
:10238000F60E0E94550E80938D020E945F0E909370
:102390004C0380934B030E94B8110E945A0E0E9476
:1023A0005E098091FD010E947609089508950E94BA
:1023B000D611089508950E94DA110895E82FF0E0EB
:1023C000EE0FFF1FE95AFC4F808191810895089517
:1023D00080EA8A95F1F7089500C008950E94E811F7
:1023E0000895F894E82FE295EF70F0E031A1282FDE
:1023F0002F7081E090E001C0880F2A95EAF7982FAE
:102400009095932391A392A1892B82A37894089508
:10241000CF93DF93CEE9D1E089918F3F11F00E94F5
:10242000F11181E0C33AD807B9F7C0E9D1E0899149
:102430008F3F11F00E94F11181E0CE39D807B9F732
:10244000DF91CF910895AF92BF92DF92EF92FF920A
:102450000F931F93CF93DF938C01D62EC62FD0E01E
:10246000CE0182569E4F7C01FC0120812F3F09F452
:102470004DC0F894E22FE295EF70F0E031A12F709B
:1024800081E090E001C0880F2A95EAF7932F982BFE
:1024900091A392A18095892382A378940E94EC1144
:1024A000E0E9F1E04EE951E021E030E0B12CA12C6F
:1024B00061916F3FA9F1A62FA295AF70B0E0909601
:1024C0008C9190E06F7002C0959587956A95E2F7C0
:1024D00080FD26C0C901A82AB92A220F331F4E1732
:1024E0005F0731F7F70180818F3F11F00E94F111F2
:1024F00061E0A114B10409F460E08D2D0E94EE1199
:10250000CC0FDD1FC00FD11FB982A882DF91CF9100
:102510001F910F91FF90EF90DF90BF90AF900895C3
:1025200090E080E0D8CF0E9408128AE0E7E5F3E06F
:10253000DF01982F1D929A95E9F7EDE4F3E0DF01B2
:102540001D928A95E9F785E00E94E5120E946104D8
:102550000895AAE0B0E0EFEAF2E10C94D42D8E01E8
:102560000F5F1F4F8AE0F80111928A95E9F7F12C6D
:102570006F2DC8010E942312F394F5E0FF12F8CFEB
:102580004AE050E0B8018DE493E00E94672EFF24FA
:10259000F394009709F4F12C892B41F08AE0F801BB
:1025A000ADE4B3E001900D928A95E1F72F2D45E05F
:1025B00067E573E08DE493E00E94E6120E946404F4
:1025C0008F2D2A96E5E00C94F02D0895FF920F933D
:1025D0001F93CF93DF93F82E092F162FD72FC42FD9
:1025E000222349F081E0809390020E942A25909353
:1025F0008F0280938E02809190028823A1F08091B7
:102600008E0290918F020E944225059760F0EF2D77
:10261000F02FA12FBD2F90E080E0D0E08C179D0718
:102620003CF010929002CDB7DEB7E5E00C94F02DAF
:10263000219131912D933D930196F0CF0E948427F3
:102640000E94350F0E94912708950E9496270E94AC
:10265000BC0F0E94B02708950E94C3240E946A27DD
:102660000E941B0F0E941E130E9425130E942B0F15
:10267000FBCF8091970280FF0DC060910B0170E04D
:10268000660F771F6038710570F56115710569F186
:10269000862F089581FF07C060910B0184E0689F39
:1026A000B0011124EFCF60910B0182FD0AC080912F
:1026B00096028823A9F020910A0160910B018217EC
:1026C00010F088E0ECCF869FC001112433E0880F22
:1026D000991F3A95E1F7622F70E00E94532DD2CFF7
:1026E00068E070E0D5CF8FE7089581E0089580918C
:1026F000970280FF0CC06091070170E075956795A7
:10270000759567956115710549F1862F089581FFCB
:1027100006C06091070170E075956795F3CF6091F1
:10272000070182FD0BC0909195029923A1F0609161
:10273000060180910701961738F0682F70E0603825
:10274000710500F38FE70895899FC001112470E09F
:102750000E94532DF4CF61E070E0D7CF81E008955F
:10276000803F31F40E943913819580939B02089534
:10277000813F19F40E943913F8CF823F31F40E944F
:102780003913819580939A020895833F19F40E942A
:102790003913F8CF893F29F40E94771380939C0264
:1027A00008958A3F21F40E9477138195F7CF8B3FDC
:1027B00031F40E947713819580939D0208958C3F98
:1027C00019F40E947713F8CF9CE0980F953070F4BD
:1027D000845F990B21E030E001C0220F8A95EAF76F
:1027E00080919902822B8093990208958D3F31F454
:1027F0008091970281608093970208958E3F21F423
:10280000809197028260F7CF8F3FB9F7809197024E
:102810008460F1CF40919A02803F59F480919B02ED
:1028200087FF0DC010929B0241110BC010929602BF
:1028300008C0813F81F480919B0218169CF34423C9
:1028400081F080919C0290919D02892B09F05AC0E1
:10285000109295020895823F49F447FFF0CF1092FD
:102860009A0280919B028111ECCFE0CF833F19F453
:102870001416ACF3E4CF90919C02893F29F4191609
:10288000F4F610929C02DBCF8A3F19F497FFD7CF62
:10289000F8CF90919D028B3F29F497FFD0CF1092F3
:1028A0009D02CDCF8C3F19F41916CCF3C8CF9CE014
:1028B000980F953090F4845F990B21E030E0B901D6
:1028C00002C0660F771F8A95E2F7CB018095909141
:1028D0009902892380939902B2CF8D3F31F4809180
:1028E00097028E7F80939702AACF8E3F21F480912A
:1028F00097028D7FF7CF8F3F09F0A1CF809197028C
:102900008B7FF0CF08950E942A259C0190919A0216
:1029100080919B02982B21F0309394022093930294
:1029200090919C0280919D02982B21F0309392020D
:102930002093910288E992E00E947E23089586E028
:10294000E8E9F2E0DF011D928A95E9F7109296021C
:1029500010929502109297020895FC0182818111D4
:102960000EC0838181110BC08481811108C091E068
:102970008581811101C090E0892F8170089581E0E7
:10298000FCCFA6E0B0E0E7ECF4E10C94D62D86E0B5
:10299000E8E9F2E0DE01119601900D928A95E1F7E7
:1029A00010929A0210929B0210929C0210929D0229
:1029B0008B819C81892B89F0809193029091940264
:1029C0000E944225AC01909196029923C9F1809111
:1029D0000C018417150608F440C08D819E81892B57
:1029E00091F080919102909192020E944225AC0157
:1029F00090919502992309F471C080910801841780
:102A0000150608F479C0BE016F5F7F4F88E992E038
:102A10000E947A24811105C088E992E00E94AD14D9
:102A200081110E94831486E0FE013196A8E9B2E08C
:102A300001900D928A95E1F72696E3E00C94F22D31
:102A400020910D018AE0289F900111242417350759
:102A500020F69F5F9093960202C09F3FD1F71B81A3
:102A6000112359F00E9439139FEF11160CF491E0D5
:102A7000899F802D112480939A021C81112359F083
:102A80000E9439139FEF11160CF491E0899F802D5D
:102A9000112480939B0230919A02332309F49DCF35
:102AA00020919B02222309F498CF45EB3403C00107
:102AB0001124992359F090939A0245EB2403900135
:102AC0001124332339F030939B0287CF81E0809328
:102AD0009A02F3CF81E080939B027FCF209109017E
:102AE0008AE0289F900111242417350708F08BCF26
:102AF0009F5F9093950202C09F3FD1F71D811123E4
:102B000059F00E9477139FEF11160CF491E0899F02
:102B1000802D112480939C021E81112359F00E9464
:102B200077139FEF11160CF491E0899F802D1124EB
:102B300080939D0230919C02332309F464CF20914D
:102B40009D02222309F45FCF45EB3403C001112419
:102B5000992359F090939C0245EB24039001112492
:102B6000332339F030939D024ECF81E080939C0255
:102B7000F3CF81E080939D0246CFEF92FF920F93B7
:102B80001F93CF93DF93EB01E82FD1110EC04423A5
:102B900021F0F0E0EA55FB4FE4916E2F7E2F8E2F4F
:102BA000CDB7DEB7E6E00C94EF2D0D2F10E0282F07
:102BB00030E0442329F02A553B4FF901249130E0BD
:102BC000F6E0CF9FC0011124EFEFF0E0BF010E94BB
:102BD0003F2DAB018C2F90E0880F991FA5E5A49F96
:102BE000B001A59F700D1124861B970B982F990F8C
:102BF000980FBF01601B710B629FD001639FB00DE6
:102C0000729FB00D11248B2F9D9FB0011124672F4F
:102C10007727EF01C61BD70BBE01629FE001639FC0
:102C2000D00D729FD00D11247F01E91AF108E09EAA
:102C3000B001E19E700DF09E700D1124672F772773
:102C4000E61BF70BE29F8001E39F100DF29F100D32
:102C50001124E12F722F4230510599F048F44115AB
:102C6000510569F04130510581F0EB2F8D2F07C0E0
:102C70004430510569F080F046305105B1F76E2FB0
:102C80008FCFE22F7B2F812FFACFE22F7D2FF7CF2F
:102C9000EB2F822F712FF3CF7B2F822FED2FEFCFD2
:102CA00041E00E94BD15089508950E9450160895B0
:102CB000CF93DF93762FE901682F842F0E9455165A
:102CC000798368838A83DF91CF910895809161032E
:102CD000982F9E7F29F4817082608093610308950C
:102CE0008635E8F381708465F8CF88E090E00E9433
:102CF0007C2E0895CF92DF92EF92FF926B017C01C0
:102D00000E946616B701A60188E090E00E949A2E04
:102D1000FF90EF90DF90CF900895609161037091E4
:102D2000620380916303909164030E947A16089570
:102D3000E1E6F3E083E0808311828FEF8283838377
:102D4000148260817181828193810E947A16089534
:102D50008091610380FF02C08695089580E0089508
:102D600090916503933018F49F5F909365038823D7
:102D700051F06091610370916203809163039091BF
:102D800064030E947A16089581E00E94B0160895A7
:102D900090916503992319F09150909365038823CE
:102DA00051F060916103709162038091630390918F
:102DB00064030E947A16089581E00E94C81608955F
:102DC00080916503089580936503662351F06091B7
:102DD00061037091620380916303909164030E9488
:102DE0007A16089560E00E94E316089580916203C8
:102DF000089580916303089580916403089570E0BD
:102E00000E94CB1D0895609112018091610380FFA3
:102E10000BC08091110123E0829FC00111248A59C7
:102E20009C4F0E94FF160895809113019091140108
:102E300023E0829FF0011124EA59FC4F891748F7DB
:102E40001182108212828F5F3396F8CF90916103C6
:102E500090FF0EC0909113012091140133E0939FD5
:102E6000F0011124EA59FC4F921718F00E94031741
:102E700008958183608342839F5F3396F5CFA3E0FB
:102E8000B0E0E5E4F7E10C94D72D9091610390FF59
:102E90000AC09E012F5F3F4F0E9458164B816981E7
:102EA0008A810E9426172396E2E00C94F32DCF939B
:102EB000DF93EC01EC81F0E0EF55FC4F4491E1E64B
:102EC000F3E0628181810E943F178C818F5F8C8348
:102ED000DF91CF910895CF93DF93EC01E1E6F3E02A
:102EE000438162818C810E943F178C818F5F8C832C
:102EF000DF91CF910895A3E0B0E0E1E8F7E10C9411
:102F0000D52D8C0180919E0281110AC09E012F5FF8
:102F10003F4F4FEF6FEF0E9458168A8180939E02B9
:102F2000F8016481613069F080919E0240E066237F
:102F300061F040E0623011F440919E0280E060E078
:102F400004C060919E0240E080E00E942617F801D4
:102F5000848190E0019663E070E00E94532D8483A9
:102F60002396E4E00C94F12DA3E0B0E0EAEBF7E166
:102F70000C94D02D082FD62EE42EC22E90916103F2
:102F800090FF29C0E92FE695AE2FB0E0AD55BE4FBA
:102F90008C91809318039E7F923009F59E012F5FDC
:102FA0003F4F802F0E9458164B8169818A810E9471
:102FB000261700936203D0926303E0926403CC204F
:102FC00051F060916103709162038091630390916D
:102FD00064030E947A162396E9E00C94EC2D82306B
:102FE00019F4E0906403E5CF863019F40091620390
:102FF000E0CF8930D9F38931E1F6E9516E2F617064
:10300000B62EE695F0E0EF55FB4F1491F12C609150
:103010001501F61618F00E940317CBCFF19EC001E0
:10302000112470E00E943F2D802FB11014C0860F34
:1030300020911301622F6F0D7727771F9B01220FBD
:10304000331F260F371F2A593C4F4E2D6D2D0E94DE
:103050005816F394DCCF861BEBCFE1E6F3E09181C9
:10306000282F4381628188E0890F0E94B417089558
:1030700081E00E942D180895E1E6F3E09181282F68
:103080004381628188EF890F0E94B417089581E01F
:103090000E943C180895E1E6F3E0628128E0620FA7
:1030A00008F46FEF282F438181810E94B41708959F
:1030B00081E00E944B180895E1E6F3E0628128E088
:1030C000621B08F460E0282F438181810E94B417BD
:1030D000089581E00E945C180895E1E6F3E04381E1
:1030E00028E0420F08F44FEF282F628181810E946F
:1030F000B417089581E00E946D180895E1E6F3E0A9
:10310000438128E0421B08F440E0282F628181813E
:103110000E94B417089581E00E947E18089520E06F
:103120000E94B4170895EF92FF921F93CF93DF93FD
:10313000EC0110E0EE24EA94F12C609115011617D1
:1031400070F00E9403179A818C8190FF27C08F5FD7
:103150008C83DF91CF911F91FF90EF900895209184
:103160001301422F410F5527551FCA019A01220F03
:10317000331F280F391F2A593C4F70E0C7010E94A6
:10318000532D962F8C814091640360916303199FA6
:10319000800D11240E9458161F5FCFCF8150D8CFC9
:1031A000B0E0A0E0E6EDF8E10C94CF2DFC018281C7
:1031B0000FEF80FF01E010E046E1A42E80911501A1
:1031C000181798F00E9403178091A002013009F0AF
:1031D0004FC0811102C08091150181508093A002DF
:1031E000CDB7DEB7EAE00C94EB2DC0911301C12EF0
:1031F000D12CCC0DDD2DD11DCE01880F991FC80F0C
:10320000D91FCA59DC4F198218821A8234E0E32E82
:10321000F12CB12C8091A0028B0D87311CF16A2D0D
:103220000E94312D892F082E000C990BC816D90643
:1032300091F4809164038E9DA0018F9D500D112407
:1032400055954795559547959E01609163038091EB
:1032500062030E945816B00EF1E0EF1AF108D1F6A1
:103260001F5FACCF87FFDFCF90911501890FDBCFB8
:1032700090E001966091150170E00E94532DAECF51
:103280000F931F93CF93DF938091130190911401BB
:1032900023E0829FF0011124EA59FC4F891740F185
:1032A000C0E0D3E060911501C61740F10E940317FA
:1032B00020910F0180919F02820F80939F02909135
:1032C0001001920F90931001191654F4082E000C5F
:1032D000990B409115014150550B841795071CF02F
:1032E000219520930F01DF91CF911F910F910895A8
:1032F0001182108212828F5F3396D0CF0C2F10E094
:1033000070E0C8010E94532D20911301820F482FB5
:1033100050E020919F02022E000C330B021713077E
:10332000BCF020911001022E000C330B2017310746
:103330007CF08D9F900111242A593C4F40916403E9
:1033400060916303809162030E945816CF5FAACFF9
:10335000FA01EE0FFF1FE40FF51FEA59FC4F11822F
:1033600010821282F3CFB0E0A0E0E9EBF9E10C9417
:10337000CD2DEC014C81042F10E09801D8010E9462
:103380009E2D9B01AC010E94B42D4B015C01E0E23B
:10339000F0E0E01BF10BA5E5B0E0AC019B010E9461
:1033A000B42D6B017C019F01DF010E94962D9B01D2
:1033B000AC010E94BF2D9B01AC01280D391D4A1D97
:1033C0005B1DC701B6010E94672DF22E822F90E08F
:1033D00039E23F1520F143E0249F900111243595F7
:1033E0002795122F109500E085E5E82EEF188091C3
:1033F0001501081718F10E9403179C8181E0992399
:1034000019F0903219F48FEF80930E0180910E0124
:10341000890F8C83CDB7DEB7ECE00C94E92D25E560
:1034200030E0B901681B790B9B01220F331F260F77
:10343000371F37FFD4CF2F5F3F4FD1CF8E2D01FDE8
:103440008F2D20911301622F600F7727771F9B012B
:10345000220F331F260F371F2A593C4F412F6091EF
:1034600063030E9458160F5FC2CF0F931F93CF9331
:10347000DF93EC0110E000E0909115019017110628
:1034800009F06CF40E9403178C8190E00196817022
:1034900099278C83DF91CF911F910F9108952091EF
:1034A0001301A801420F511D9A01220F331F240F4F
:1034B000351F2A593C4F4C81609163038091620310
:1034C00096959017110651F04CF0442349F0409125
:1034D00064030E9458160F5F1F4FCECF4423B9F3E9
:1034E00040E0F7CFB0E0A0E0E8E7FAE10C94C92DA6
:1034F000FC016280448081E08483E1EAF3E074901F
:10350000E0E2F4E0E491812C75E0972EF2E0CF2E1A
:10351000DD24D394AA24AA94B12C55245A94E719F3
:103520000E2F10E080911501881638F00E940317C5
:10353000CDB7DEB7E0E10C94E52DE82CF12C82E06C
:10354000861568F09E9CF0019F9CF00D1124EF55AC
:10355000FD4F8091620380838091630381834110DA
:1035600023C09E9CF0019F9CF00D1124EF55FD4F50
:103570001382128220911301C701820F911D9C01B9
:10358000220F331F280F391F2A593C4F9E9CF001F0
:103590009F9CF00D1124EF55FD4F42816181808188
:1035A0000E9458168394BECF9E9CE0019F9CD00D34
:1035B0001124CF55DD4F8B818823E9F081508B8317
:1035C000859DC00111246C8170E00E943F2DFB019C
:1035D000FF27EF55FC4F8491E82FE719E59DC001C7
:1035E0001124B8010E943F2D80916403689FB001AF
:1035F00011247A83BFCF0E944A2E2091640326951E
:1036000021582C9DA0012D9D500D1124452F55278B
:10361000841795070CF0AECF82E0861588F40E94DF
:103620004A2EB5010E94532D88830E944A2E209174
:1036300063032695622F70E00E94532D280F298383
:103640009E9CF0019F9CF00D1124EF55FD4F1282BE
:1036500080916403893C58F088EC9E9CF0019F9C0B
:10366000F00D1124EF55FD4F8483838383CF843184
:10367000A0F784E1F2CFE1E6F3E080818E7F8083E2
:1036800060817181828193810E947A161092190360
:103690002FEF80E792E0215080409040E1F700C09A
:1036A00000000E9403170895E1E6F3E080818E7F19
:1036B0008083109219032FEF80E792E02150804021
:1036C0009040E1F700C000000E9403170895109297
:1036D00019038091160381110AC081E080931603BB
:1036E000809161038170809315030E94541B08959B
:1036F00060916103669570E04BE050E086E191E0F7
:103700000E945A2E892B19F481E0809319030E949C
:103710002A259093100380930F03089590916103DD
:1037200090FF2BC09170811129C09260909361032A
:10373000662351F06091610370916203809163038D
:10374000909164030E947A1660916103669570E01F
:103750004BE050E086E191E00E945A2E892BA9F0BF
:103760001092190381E080931203409164036091E9
:103770006303809162030E948F1808958B3210F0CA
:103780009465D4CF880F982BD1CF0E94781BEACFB5
:10379000682F90916103969581E0890F8B3208F034
:1037A00081E00E948E1B089581E00E94C81B08954D
:1037B000682F9091610396958FEF890F09F48AE243
:1037C0000E948E1B089581E00E94D81B089561E03D
:1037D0000E948E1B0895E1E6F3E080818160808382
:1037E00086950E94E71B08958091610380FF03C0C6
:1037F0000E943B1B08950E94EB1B089560E00E940D
:103800008E1B08958091170381112EC00E94490ECE
:10381000811104C00E94F60E0E9498160E9475162F
:1038200060936103709362038093630390936403D6
:103830006E7F61F40E9498160E9475166093610372
:103840007093620380936303909364030E946616EF
:10385000109219038091610380FF03C086950E9436
:10386000FE1B81E0809317030895E1E6F3E0808179
:103870008160808386950E94FE1B08951092160336
:103880008091150381110E94351C0E94781B0895B8
:103890000F931F93CF93DF93809119038823B9F17E
:1038A00080911803E0916103E695E81BE093110312
:1038B000823091F5F0E0E356FC4FE491CE2FD0E05A
:1038C00007E517E180911203882361F0109212033B
:1038D0000E942A259093100380930F0310921403E3
:1038E000109213030E942A25E0910F03F091100318
:1038F0008E1B9F0B8F3F9F4750F4EC0FFD1FF093E3
:103900001003E0930F038FE093E0F8010995DF9136
:10391000CF911F910F910895863049F4F0E0E6565B
:10392000FC4FE491CE2FD0E00BE617E1CBCF8930EE
:1039300051F4E695F0E0E956FC4FE491CE2FD0E04B
:1039400003E918E1BFCF8F3051F4E695F0E0EC5673
:10395000FC4FE491CE2FD0E000ED18E1B3CF8531DC
:1039600049F4F0E0EF56FC4FE491CE2FD0E000E4B4
:1039700019E1A8CFC8E2D0E003EB19E1883109F4DE
:10398000A1CF833239F4EFE8F3E0C591D4910BE78E
:1039900017E198CFC4EFD1E005E31AE1843209F4CE
:1039A00091CFC0EDD7E004E516E1853209F08ACF6A
:1039B0008E2F63E00E94252DE92FF0E0E457FC4FA5
:1039C000E491CE2FD0E002E71AE17CCFFA01811119
:1039D00001C0FB0109950895CF93DF93C82FD62F1F
:1039E0000E94A8168C1748F00E94A8168D1728F47C
:1039F0000E94D41BDF91CF9108958C2F0E94E71B6A
:103A0000F9CF1F93CF93DF93EC01FB0112811111CA
:103A10001BC00E945B0D8272CC3CFCE5DF0709F401
:103A2000A0C008F045C0C63CECE5DE0709F485C03F
:103A3000F8F4C33C9CE5D90709F475C050F4C23CC6
:103A4000DC4509F46DC011E0812FDF91CF911F910A
:103A50000895C43C9CE5D90709F46AC047E458E1DD
:103A600068E378E1C53CDC4571F70E94E61CECCFC9
:103A7000C93CFCE5DF0709F46AC068F4C73CECE523
:103A8000DE0709F45FC048E558E169E678E1C83C23
:103A9000DC4559F3D8CFCA3C9CE5D90709F45CC092
:103AA0004CED56E164EC76E1CB3CDC45F1F2CBCF5A
:103AB000C13DFCE5DF0709F463C098F4CE3C9CE50A
:103AC000D90709F457C008F451C0CF3CFCE5DF0723
:103AD00009F453C0C03DDC4509F0B5CF6EE089E084
:103AE0001CC0C43D9CE5D90709F450C058F4C23D40
:103AF000FCE5DF0709F447C0C33DDC4509F0A3CF6F
:103B000088E135C0C53D9CE5D90709F442C06AE2A9
:103B100085E2CD35DD4509F096CF0E94EC1C94CFAF
:103B20000E94F41B91CF43EE5BE164ED7BE19DCFFE
:103B300044ED5BE163EE7BE198CF48E358E167E455
:103B400078E193CF49E658E168E578E18ECF4BE81C
:103B500058E16AE778E189CF4AE758E16BE878E114
:103B600084CF44EC56E16CED76E17FCF81E00E949A
:103B7000E71B6ACF65E082E0D0CF68E086E0CDCF7A
:103B800064E18FE0CACF67E185E1C7CF62E289E1F6
:103B9000C4CF83E2ECCF6A9A4EB14B7F5EB15460E2
:103BA000EFB7F8949B01220F331F260F371F280F02
:103BB000391F2817390741F4EFBF8FE594E00197CB
:103BC000F1F700C000000895DC016D91CD0178E0AF
:103BD0005EB9000000C067FF4EB9660F000000C06C
:103BE00000C000C04EB900C07A9591F7E2CF83E2E1
:103BF00090E00E94742E823289F484E290E00E9468
:103C0000742E853059F485E290E00E94742E91E084
:103C1000853009F090E0892F8170089580E0FCCF15
:103C2000CF93C82F6FEF811162E283E290E00E9490
:103C3000882EC1110DC0CFEF6C2F84E290E00E945E
:103C4000882E6C2F85E290E00E94882ECF910895F7
:103C5000C5E0F2CF089586E290E00E94742E682FAE
:103C600070E090E080E008950895CF93C62F0E9401
:103C7000341E6C2F86E290E00E94882ECF9108952A
:103C800080E00E94101E60E070E0CB010E94351EB3
:103C90000E9436210E94132281E00E94101E089586
:103CA0000E942A1E0E942B1E0E94341E0E94F71D95
:103CB000811102C00E94401E0895CF93FB01C28172
:103CC000CC2309F19C0122513F452031310520F5DB
:103CD00082510E942322C0E08C2FCF91089581E071
:103CE0000E948D0943E062E081E00E945704F3CF17
:103CF00081E00E94990943E062E081E00E9457045C
:103D0000EBCF82E0F6CF8031FFE59F0789F3813169
:103D10009F45B9F3C1E0E0CF8031EFE59E07F9F2AE
:103D200081319F45C9F682E0DBCF2FEFFC01208374
:103D30000895CF93DF93EC0188818138A9F028F4AE
:103D4000803871F0DF91CF910895823881F0833807
:103D5000C9F70E94F61689830E94F9168A83F2CF6A
:103D60000E94FC168983EECF0E94A816FBCF0E940A
:103D7000E016F8CFCF93DF93EC0188818138D9F03A
:103D800028F4803869F0DF91CF9108958238F9F0F6
:103D90008338C9F70E94FC16482F6A81898108C0C0
:103DA000D9810E94F916C82F0E94F6164D2F6C2F4C
:103DB0000E948F18E8CF89810E94FE1B89818111A2
:103DC00003C00E94541BDFCF0E94351CDCCF8981C9
:103DD0000E94F216D8CFEF92FF920F931F93CF93CA
:103DE000DF93EC01062FDC01ED91CD01E150E331D1
:103DF00008F0ACC0F0E0E751F14D0C94892D198228
:103E000089E08A83602FCE010E943D26CDB7DEB7C0
:103E1000E6E00C94EF2D8981823069F0833071F0F7
:103E20008130D9F40E9436250E948F2D6A837B83CE
:103E30008C839D83E7CF0E942B1EF6CF7E0110E07E
:103E4000812F0E94DE11F701928383831F5FF2E0CE
:103E5000EF0EF11C1530A1F7D5CF602FCE010E94D7
:103E6000951ED0CF89818230C1F76A817B818C8198
:103E70009D810E948F2D0E94351EC4CF4B816A8187
:103E800089810E94F8209827892798279D838C8311
:103E9000B9CF2C813D813227232732274B816A817C
:103EA00089810E941A21AECF0E943621ABCF0E9499
:103EB000BA1EA8CF0E94991EA5CF0E948D16A2CF30
:103EC0000E94C42189839ECF0E94C62198278927FA
:103ED00098279A83898396CF6B8170E089819A8134
:103EE000AE014C5F5F4F9827892798270E94C92110
:103EF00089CF6B8170E089819A81AE014C5F5F4F01
:103F00009827892798270E94EE217CCF0E941322B0
:103F100079CF0E94E620D6CF6B8170E089819A81AB
:103F2000AE014C5F5F4F9827892798270E946E212A
:103F300069CF6B8170E089819A81AE014C5F5F4FE0
:103F40009827892798270E9492215CCF8FEF88833A
:103F500059CFCF93DF93EC01FB018281882309F4D1
:103F600033C1C330FDE5DF07C0F5CA3F9CE5D90783
:103F700030F49E0122503C4524313105B0F50E94B9
:103F80005F0E90934C0380934B03C1318CE5D807AF
:103F900009F4EEC008F069C0C930ECE5DE0709F4A9
:103FA000D5C0C8F5C5308CE5D80709F4C7C000F501
:103FB000C330ECE5DE0709F4B9C008F0BBC0C2307D
:103FC000DC4509F4ADC080914B0390914C030E94F5
:103FD0006D0E0E94160980E008C0C136EDE5DE07CF
:103FE00071F2C53AFDE5DF0751F2DF91CF910895F7
:103FF00080914B038062C7309CE5D90709F493C0D8
:1040000080914B038061C830DC4508F48CC08091FE
:104010004B03806488C080914B038B7FCD30FCE5DF
:10402000DF0709F480C098F480914B038E7FCB307A
:104030009CE5D90709F477C080914B038C60CC30A4
:10404000DC4508F470C080914B038D7F6CC080917B
:104050004B038F7ECF30FCE5DF0709F464C008F422
:104060007BC080914B038F7D5EC0CD3F9CE5D9071F
:1040700009F47AC050F5C531FCE5DF0709F486C0C4
:1040800098F480914B03837FC3319CE5D90709F4F1
:104090004AC008F471C00E94160990914B03892F01
:1040A00097FB87F980583FC0CB3FFCE5DF0709F459
:1040B00049C008F055C080914C038160CA3FDC457F
:1040C00009F081CF80934C037ECFC130EDE5DE0750
:1040D00009F468C0A8F4CF3F8CE5D80709F452C0B2
:1040E00080914C038360C115DD4560F380914C03E2
:1040F000982F909591708E7F892B90FB81F9E2CF5C
:10410000C136EDE5DE0709F451C0C53AFDE5DF072C
:1041100009F453C0C230DD4509F055CF80E043C0FB
:1041200080914B03816080934B034DCF80914B0373
:104130008260F9CF80914B038460F5CF80914B036F
:104140008860F1CF80914C038260BCCF0E94160939
:1041500080914B038068E7CF80914B03877FE3CF4B
:1041600080914C038E7FAECF80914C038D7FAACF80
:1041700080914B038F7BD7CF0E94160980914B0310
:104180008F77D1CF80914C038C7F9CCF80914B0354
:1041900082FB992790F921E0922790FB82F990FB0E
:1041A00083F9C1CF81E00E94F90E0DCF90914B03AE
:1041B000892F8F7E94FF8061B6CF90914B03892F1A
:1041C0008E7F90FF8160AFCF81E00FCF84E00895B4
:1041D00050E0440F551F9CE1699F400D511D112473
:1041E0009CE8899F400D511D1124CA0187960895AE
:1041F0000F931F93CF93DF938430C8F46530B8F4E6
:104200004E30A8F40E94E8208C010E94742EC82F22
:10421000D0E0DC2FCC27C80101960E94742E9E01AD
:10422000282BC901DF91CF911F910F91089590E044
:1042300080E0F8CF0F931F93CF93DF93122F032FBC
:10424000843078F4653068F44E3058F40E94E820E9
:10425000EC01602F0E94882E612FCE0101960E94F2
:10426000882EDF91CF911F910F910895AF92BF9249
:10427000CF92DF92EF92FF921F93CF93DF938CEA5E
:10428000C82E80E0D82ED0E07601C0E014C0F50141
:1042900025913491412F6C2F8D2F0E941A2182E09D
:1042A000A80EB11C1F5F1E3091F78CE1E80EF11CC7
:1042B000CF5FC53019F0570110E0E9CFDF5F8CE820
:1042C000C80ED11CD43001F7DF91CF911F91FF9020
:1042D000EF90DF90CF90BF90AF900895EF92FF9254
:1042E0000F931F93CF93DF93EC018A017C01E60EBD
:1042F000F71ECE018796CE15DF0529F4CDB7DEB7C0
:10430000E6E00C94EF2DC03322E0D20740F40E9487
:10431000742EF80180830F5F1F4F2196EACFF801BA
:104320001082F9CFB0E0A0E0E8E9F1E20C94D12DE1
:104330007C016A018C01060F171FEC01CE018796E4
:10434000C017D10729F4CDB7DEB7E8E00C94ED2D06
:10435000C03322E0D20740F4FE01EE19FF09EC0D54
:10436000FD1D60810E94882E2196E8CF462F843063
:1043700040F4753030F46E3020F4672F0E94F8203E
:10438000089590E080E0089580E1089589EA91E041
:104390000895EF92FF920F931F93CF93DF93EC0159
:1043A0008A017C01E60EF71ECE01895A9D4FCE157B
:1043B000DF0529F4CDB7DEB7E6E00C94EF2DC93A5E
:1043C00021E0D20740F40E94742EF80180830F5F31
:1043D0001F4F2196E9CFF8011082F9CFB0E0A0E09D
:1043E000E4EFF1E20C94D12D7C016A018C01060FFF
:1043F000171FEC01CE01895A9D4FC017D10729F430
:10440000CDB7DEB7E8E00C94ED2DC93A21E0D20734
:1044100040F4FE01EE19FF09EC0DFD1D60810E94C4
:10442000882E2196E7CFCF93DF93C7E5D2E060E0F7
:10443000CE010E94882E2196C11584E0D807B9F7D5
:10444000DF91CF910895A4E0B0E0E9E2F2E20C94AC
:10445000D22DF82E8FE08F1548F18FEF93E00E9458
:10446000742E811123C007E512E0F11023C01982D8
:104470001A821B821C82DD24D39478018FEFE81A04
:10448000F80AC8010E94742E89831A82882371F069
:104490009FEF980F9330D8F48A83D9820E5F1F4F15
:1044A000C7010E94742E8B83811112C02496E7E00D
:1044B0000C94EE2D011584E01807C1F3C8010E9489
:1044C000742E811101C0FA940F5F1F4FCECF870168
:1044D000CE0101960E94B105D0CFCF93DF93EB01BF
:1044E00086319C4511F50E945B0D9A81992399F0C4
:1044F0008A7A91E009F490E090931A03811109C03F
:1045000089E20E94330D0E949C0D80E0DF91CF91E3
:10451000089585E3F6CF80911A03811104C089E2E2
:104520000E943B0DF0CF85E3FBCF81E0EFCF0F93EF
:104530001F93CF93DF93C42FD22FFC018281882356
:10454000C9F040931D030E942A2590931C03809379
:104550001B0380E28C0F883040F4C77081E001C0FB
:10456000880FCA95EAF70E94C206DF91CF911F918A
:104570000F91089510911D03141332C080911B03F5
:1045800090911C030E944225883C910548F5C0E2A9
:10459000CD0F1D17B9F080E2810F883040F41770FD
:1045A00081E001C0880F1A95EAF70E94C906C83059
:1045B00048F481E09D2F977001C0880F9A95EAF723
:1045C0000E94C206802F0E94B906C83070F6D770CC
:1045D00081E001C0880FDA95EAF70E94C906C5CFCD
:1045E00080E28C0F883008F6C77081E001C0880F28
:1045F000CA95EAF7F2CF0F939C01CB01233F4CE51C
:10460000340759F1A8F4283DFCE53F0701F1293DA5
:104610004CE53407D1F1273D3C4591F406E221EE0B
:1046200041EE67ED7CE50E94972280E00F910895AE
:10463000253FFCE53F07E9F0B0F0263F3C45F9F0A7
:10464000FC018281882339F110921D03EFCF07E22C
:1046500025EE45EE68ED7CE5E6CF06E221EE40EE84
:1046600063EF7CE5E0CF07E225EE44EE64EF7CE506
:10467000DACF06E221EE42EE65EF7CE5D4CF07E229
:1046800025EE46EE66EF7CE5CECF08E221E045EE72
:1046900069ED7CE5C8CF81E0C9CF9093DF018093BD
:1046A000DE01089590932303809322030895E091FF
:1046B0002203F0912303309729F00190F081E02D3F
:1046C0000995089580E00895E0912203F091230375
:1046D000309799F020912D01222359F020914B031E
:1046E00027FF07C0DC012C9111962C93119726E02F
:1046F0002C930280F381E02D09950895E091220327
:10470000F0912303309739F022E0DC012C930480F0
:10471000F581E02D09950895209120033091210322
:104720002817390771F09093210380932003E091BB
:104730002203F0912303309721F00680F781E02DCA
:104740000995089520911E0330911F0328173907FA
:1047500071F090931F0380931E03E0912203F09168
:104760002303309721F00084F185E02D0995089509
:10477000FC01329680912D01882321F080914B031A
:104780009EE187FF96E080E0915008F40895219122
:104790002223D1F38F5FF8CF662301F120912D0101
:1047A0002223F1F020914B0327FF1AC0462F469594
:1047B000469546954E3190F4677021E030E002C096
:1047C000220F331F6A95E2F7840F911DFC0182814D
:1047D00090E02823392381E0232B69F480E00895B9
:1047E000FC01329608962191261721F0E817F90767
:1047F000D1F7F4CF81E008959C01FC0132969FEF40
:1048000080E04191461751F09F3F19F4411101C0DA
:10481000982F8F5F8630A9F79F3F09F40895290FDD
:10482000311D97FD3A95F90162830895FC01329696
:1048300008962191261303C0DF0111971C92E817F7
:10484000F907B9F70895E62FE695E695E695EE3176
:1048500068F4E80FF92FF11D677021E030E001C026
:10486000220F6A95EAF78281822B82830895E62FD0
:10487000E695E695E695EE3170F4E80FF92FF11D17
:10488000677021E030E001C0220F6A95EAF72095B9
:10489000828128232283089520912D01222339F03B
:1048A00020914B0327FF03C00E94232408950E94F8
:1048B000FC23089520912D01222339F020914B03F0
:1048C00027FF03C00E94372408950E9416240895EC
:1048D000FC01329680912D01882351F080914B0389
:1048E00087FF06C08EE1DF011D928A95E9F70895E2
:1048F00086E0F9CF46E050E00E94672E21E0892B48
:1049000009F420E0822F089508950E9484240895D8
:10491000811106C081E0809324030E9485240895BC
:1049200082E0F9CF83E0809324030E9485240895D8
:104930000E948824089581E0809324030E948524A6
:1049400008950E949B240895089508950E94A52427
:104950000895089508950E94A4240895CF930E9475
:10496000A9240E94A9120E94AA24C0E08C2F0E94B0
:10497000DE11892B31F4CF5FC530C1F780E0CF91D4
:10498000089581E0FCCF85B7806885BF85B78068D2
:1049900085BF08951F921FB61F9211248F939F9376
:1049A000AF93BF9380912503811113C08091A80319
:1049B0009091A903A091AA03B091AB034196A11DC8
:1049C000B11D8093A8039093A903A093AA03B09369
:1049D000AB03BF91AF919F918F911F901FBE1F900E
:1049E00018958091B003843031F10E94E004109258
:1049F000250388E190E020E40FB6F894A895809311
:104A000060000FBE2093600083B7817F846083BF06
:104A100083B7816083BF7894889583B78E7F83BF87
:104A20000FB6F894A895809160008861809360002B
:104A3000109260000FBE08950E9416090E94E704BC
:104A4000089582E084BD93E095BD9AEF97BD809371
:104A50006E0008952FB7F8948091A8039091A90350
:104A6000A091AA03B091AB032FBF08952FB7F8947C
:104A70006091A8037091A9038091AA039091AB0360
:104A80002FBF08959C014FB7F8948091A80390918F
:104A9000A903A091AA03B091AB034FBF821B930B54
:104AA000089578941F921FB61F9211248F939F939D
:104AB000AF93BF938091A8039091A903A091AA03FB
:104AC000B091AB030196A11DB11D8093A8039093F3
:104AD000A903A093AA03B093AB03BF91AF919F9199
:104AE0008F911F901FBE1F90189581E08093E0006A
:104AF00080E28093D8001092C9008FE19EE4019774
:104B0000F1F700C0000087E090EBDC018093B9036F
:104B10009093BA03A093BB03B093BC0388E19CE0DD
:104B20000FB6F894A895809360000FBE9093600034
:104B3000FFCF88E19CE00FB6F894A89580936000C1
:104B40000FBE90936000FFCF8091490308950895B0
:104B50009C0184E08093E9009FEF8091E8009150F0
:104B600085FD06C085ED8A95F1F700009111F5CF1E
:104B70008091E80085FF0CC050E040E066E070E006
:104B8000C9010E944F288091E8008E778093E80049
:104B90000895CF93DF93EC0180912D018823B1F12B
:104BA00080914B0387FF32C060E284E08093E9008C
:104BB0008FEF9091E800815095FD06C095ED9A9594
:104BC000F1F700008111F5CF8091E80085FF1BC04F
:104BD00080912D0170E050E040E0811104C050E070
:104BE00040E068E070E0CE010E944F288091E8002C
:104BF0008E778093E80080E2FE01A9E2B3E00190A5
:104C00000D928A95E1F7DF91CF91089568E081E0F8
:104C1000CDCF809326037093280360932703809160
:104C2000B0038430F9F48093E9008FEF9091E800AD
:104C3000815095FD06C095ED9A95F1F70000811120
:104C4000F5CF8091E80085FF0DC050E040E063E0C3
:104C500070E086E293E00E944F288091E8008E7712
:104C60008093E8000895BC0184E00E94092608951D
:104C7000BC0183E00E9409260895CF93FC016032B5
:104C800021F58091B003843001F5C091E900CF7027
:104C90002091EC00922F917020FD90E8C92B82E0CA
:104CA0008093E9008091E80080FF0CC050E040E074
:104CB00060E270E0CF010E944F288091E8008E777B
:104CC0008093E800CF70C093E900CF910895809160
:104CD000AF03811109C00E942E2A0E948B2A809165
:104CE000E20084608093E20008951092AF0308957B
:104CF0000E949B2408956091AC0381E0611101C082
:104D000080E00E94922408959091B00381E0943055
:104D100009F080E06091AC030E949824089542E07D
:104D200061EC81E00E94AA2942E261EC84E00E94E9
:104D3000AA2942E261EC82E00E94AA2942E260ECE8
:104D400083E00E94AA299091B00381E0943009F099
:104D500080E06091AC030E94882408958091B203A2
:104D6000833009F463C030F48130E1F1823009F41A
:104D7000A0C008958A3009F48CC08B3009F471C04A
:104D8000893009F052C08091B103813209F04DC0E1
:104D90008091B5039091B603009719F0029709F03E
:104DA00044C08091E800877F8093E8008091E8000C
:104DB00082FF37C09091F3008091F200029731F4A6
:104DC0008091F100813011F0863021F48091F10062
:104DD000809349038091E8008B778093E8000E94DC
:104DE000DE2923C08091B103813AF9F48091E80073
:104DF000877F8093E8008091B5039091B603892B5B
:104E000061F460E289E293E070E00E94ED28809115
:104E1000E8008B778093E800089560E090E080E000
:104E2000F3CF8091B0038111C1CF08958091B10378
:104E3000813AD9F78091B5039091B603892BA9F7F0
:104E40008091E800877F8093E8008091E80080FFF0
:104E5000FCCF80912D018093F1008091E8008E7746
:104E6000BCCF8091B103813201F78091B50390915D
:104E7000B603892BD1F68091E800877F8093E80004
:104E80000E94DE298091B30380932D010E941609B0
:104E900008958091B103813241F68091E800877FC7
:104EA0008093E8000E94DE298091B40380934A0336
:104EB00008958091B103813A09F0B7CF8091E8005D
:104EC000877F8093E8008091E80080FFFCCF80918D
:104ED0004A03C1CF84B7877F84BF0FB6F894A895E3
:104EE00080916000886180936000109260000FBE26
:104EF00080E890E00FB6F894809361009093610091
:104F00000FBE0E94A12408950E942E2A0E948B2A7F
:104F1000E2EEF0E080818460808378940E940A2D24
:104F2000089581E291E00E94522308958091B00398
:104F3000853031F48091B003853019F00E941C2532
:104F400008950E94F1248091AE03882399F30E9472
:104F5000AE24882379F30E9439280E941609EACFEB
:104F6000A0E2B0E0E6EBF7E20C94D72D8091B0031D
:104F7000843009F583E08093E9008091E80082FFA6
:104F80001AC08091E80090E085FF09C050E040E041
:104F900060E270E0CE0101960E949E2891E080912F
:104FA000E8008B778093E800992329F060E2CE0136
:104FB00001960E94EB1EA096E2E00C94F32D0E9455
:104FC000E2270895292F33272330310521F168F492
:104FD0002130310509F443C02230310509F444C0C1
:104FE00090E080E030E020E026C02132310551F130
:104FF00022323105A9F76330710590F7FB01EE0FFE
:10500000FF1FEF52FE4F2081318162537E4FFB0123
:10501000808190E010C099278130910581F0009740
:1050200029F00297E9F6E6EAF5E002C0E8EDF5E0DE
:10503000849190E09F01FA01318320830895E4EB8D
:10504000F5E0F6CF6330710558F6660F771FFB0168
:10505000E952FE4F2081318189E090E0ECCF82E17E
:1050600090E027E336E0E7CF8BE590E02CED35E0EC
:10507000E2CF80E189BD82E189BD09B400FEFDCFA8
:105080008091D8008F7D8093D8008091E00082606D
:105090008093E0008091E00081FDFCCF0895AF9205
:1050A000BF92CF92DF92FF920F931F93CF93DF9324
:1050B0006C01EB018A010E94FD29F82E811123C0A9
:1050C0000115110539F0F80180819181C81BD90BB8
:1050D000C80ED91EB12CA12C2097A9F08091E80010
:1050E00085FD22C08091E8008E778093E80001154D
:1050F0001105A1F0F80180819181A80EB91EB1823D
:10510000A08285E0F82E8F2DDF91CF911F910F9116
:10511000FF90DF90CF90BF90AF9008950E94FD293F
:105120008823D1F2F82EEFCFF60181916F018093A1
:10513000F1002197FFEFAF1ABF0ACECFAF92BF9217
:10514000CF92DF92FF920F931F93CF93DF936C0167
:10515000EB018A010E94FD29F82E811123C001155F
:10516000110539F0F80180819181C81BD90BC80E57
:10517000D91EB12CA12C2097A9F08091E80085FDC3
:1051800022C08091E8008B778093E800011511051B
:10519000A1F0F80180819181A80EB91EB182A08290
:1051A00085E0F82E8F2DDF91CF911F910F91FF9009
:1051B000DF90CF90BF90AF9008950E94FD29882383
:1051C000D1F2F82EEFCF8091F100F60181936F01BB
:1051D0002197FFEFAF1ABF0ACECFFC018091B70332
:1051E0009091B80386179707A0F06115710529F40F
:1051F0009091E8009E779093E80090E0611571052A
:1052000051F4911108C08091E80082FF34C080E021
:105210000895BC01F2CF8091B0038823C1F185309D
:10522000C1F18091E80083FD30C08091E80082FDEB
:10523000EACF8091E80080FFE1CF8091F3002091D8
:10524000F200382F6115710519F02830310558F03A
:1052500091E02830310509F090E02091E8002E77A8
:105260002093E800CBCF81918093F10061507109C8
:105270002F5F3F4FE7CF8091B003882341F0853007
:1052800041F08091E80083FFBECF81E0089582E085
:10529000089583E00895FC018091B7039091B803CD
:1052A00086179707A0F06115710529F48091E80031
:1052B0008E778093E80090E06115710551F49111AB
:1052C00008C08091E80082FF35C080E00895BC01ED
:1052D000F2CF8091B0038823C9F18530C9F1809164
:1052E000E80083FD31C08091E80082FDEACF809123
:1052F000E80080FFE1CF8091F3002091F200382F89
:105300006115710519F02830310558F091E0283009
:10531000310509F090E08091E8008E778093E800F5
:10532000CBCF84918093F1003196615071092F5F4A
:105330003F4FE6CF8091B003882341F0853041F0A4
:105340008091E80083FFBDCF81E0089582E0089559
:1053500083E00895982F973028F08F708093E900AC
:1053600081E008959093E900242F762F50E098175C
:1053700031F07091EC002091ED005091F00021FD92
:1053800002C09F5FE8CF3091EB003E7F3093EB008F
:105390003091ED003D7F3093ED003091EB003160B6
:1053A0003093EB007093EC002093ED005093F000ED
:1053B0002091EE0027FDE5CF80E008958091B103B4
:1053C00087FF13C08091E80082FF06C08091E8004B
:1053D0008B778093E80004C08091B0038111F2CFF5
:1053E00008958091B0038823D9F38091E80080FF6D
:1053F000F8CF8091E8008E77ECCF2091E4003091D7
:10540000E50095E6A9012091EC00822F817020FF34
:1054100006C08091E80080FF06C080E008952091DA
:10542000E80022FD1AC08091B003882389F08530FE
:1054300089F08091EB0085FD0FC02091E400309150
:10544000E50042175307F9F29150E1F684E0089520
:1054500082E0089583E0089581E008950E949D2AE6
:105460000E94A52AE0EEF0E0808181608083E8ED73
:10547000F0E080818F77808319BCA7EDB0E08C913C
:105480008E7F8C9380818F7E80831092AF030895EE
:105490000F931F93CF93DF930E949D2A0E94A52A0A
:1054A000C8EDD0E088818F77888388818068888381
:1054B00088818F7D888319BC1092B0031092AC0351
:1054C0001092AE031092AD0300EE10E0F80180815F
:1054D0008B7F808388818160888342E060E080E008
:1054E0000E94AA29E1EEF0E080818E7F8083E2EEC7
:1054F000F0E0808181608083808188608083F80112
:1055000080818E7F8083888180618883DF91CF91C5
:105510001F910F910895E8EDF0E080818F7E8083E8
:10552000E7EDF0E080818160808384E082BF81E0EC
:105530008093AF030E94482A0895E8EDF0E080814F
:105540008E7F80831092E20008951092DA0010920C
:10555000E10008951F920F920FB60F9211242F931E
:105560003F934F935F936F937F938F939F93AF93EB
:10557000BF93EF93FF938091E10082FF0BC0809176
:10558000E20082FF07C08091E1008B7F8093E10001
:105590000E94092D8091DA0080FF19C08091D80007
:1055A00080FF15C08091DA008E7F8093DA008091B1
:1055B000D90080FF96C080E189BD82E189BD09B430
:1055C00000FEFDCF81E08093B0030E9467268091AA
:1055D000E10080FF19C08091E20080FF15C080913A
:1055E000E2008E7F8093E2008091E20080618093F0
:1055F000E2008091D80080628093D80019BC85E0D9
:105600008093B0030E947B268091E10084FF2BC031
:105610008091E20084FF27C080E189BD82E189BDDD
:1056200089B5982F917080FFFBCF8091D8008F7D36
:105630008093D8008091E1008F7E8093E10080917B
:10564000E2008F7E8093E2008091E200816080938F
:10565000E2008091AC03882309F449C084E0809380
:10566000B0030E9484268091E10083FF29C08091CD
:10567000E20083FF25C08091E100877F8093E100F5
:1056800082E08093B0031092AC038091E1008E7FA2
:105690008093E1008091E2008E7F8093E200809110
:1056A000E20080618093E20042E060E080E00E94DE
:1056B000AA298091F00088608093F0000E947826EB
:1056C000FF91EF91BF91AF919F918F917F916F91DA
:1056D0005F914F913F912F910F900FBE0F901F90B0
:1056E000189519BC1092B0030E94752670CF809156
:1056F000E30087FD93E09093B003B3CF1F920F9226
:105700000FB60F9211242F933F934F935F936F9394
:105710007F938F939F93AF93BF93CF93DF93EF9339
:10572000FF93D091E900DF708091EC00C82FC17029
:1057300080FDC0E81092E9008091F000877F80939F
:10574000F00078940E94C22B1092E9008091F00042
:1057500088608093F000CD2BCF70C093E900FF915B
:10576000EF91DF91CF91BF91AF919F918F917F91F9
:105770006F915F914F913F912F910F900FBE0F90BE
:105780001F901895AAE2B0E0E8ECFBE20C94D62D4D
:1057900081EB93E02091F100FC012193CF01F3E034
:1057A000893B9F07B9F70E94AE268091E80083FFEE
:1057B0001EC18091B1039091B2039A3008F017C1D5
:1057C000E92FF0E0E450F14D0C94892D803899F0E8
:1057D000823809F00CC18091B5038F70873008F0D2
:1057E00006C18093E9008091EB0085FB882780F952
:1057F0001092E90006C08091AD039091AE03911123
:1058000082609091E800977F9093E8008093F10088
:105810001092F1008091E8008E77E5C0882309F4AA
:10582000D3C0823009F0E3C08091B3038111D6C0A8
:105830008091B5038F702FEF280F263008F0D7C066
:105840008093E9002091EB0020FFC8C0933031F431
:105850008091EB0080628093EB00C0C09091EB00E0
:1058600090619093EB0021E030E001C0220F8A9517
:10587000EAF72093EA001092EA008091EB0088603A
:10588000EACF8111B4C01091B3031F778091E30078
:105890008078812B8093E3008091E800877F80935C
:1058A000E8000E94DE298091E80080FFFCCF809113
:1058B000E30080688093E30082E0111183E080932D
:1058C000B00395C08058823008F091C08091B30336
:1058D0009091B4038C3D23E09207A1F583E08A8385
:1058E0008AE289834FB7F894DE01139620E03EE008
:1058F00051E2E32FF0E050935700E49120FF03C002
:10590000E295EF703F5FEF708E2F90E0EA30C0F0CD
:10591000C7968D939D932F5F243159F74FBF809188
:10592000E800877F8093E8006AE270E0CE0101968C
:105930000E94ED288091E8008B778093E80057C0A3
:10594000C096E7CF6091B5037091B603AE014F5F8B
:105950005F4F0E94DF27BC01892B09F448C090915A
:10596000E800977F9093E80089819A810E944B29F3
:10597000E1CF8038E1F58091E800877F8093E800EF
:105980008091AC038093F10045CF811130C090919C
:10599000B303923060F58091E800877F8093E80040
:1059A0009093AC030E94DE298091AC03882311F010
:1059B00084E005C08091E30087FDFACF81E0809309
:1059C000B0030E948F2613C08091B303813079F415
:1059D00081E0933009F080E08093AE031092E900FB
:1059E0008091E800877F8093E8000E94DE29809103
:1059F000E80083FF0AC08091E800877F8093E80079
:105A00008091EB0080628093EB00AA96E3E00C9417
:105A1000F22D0895CF938091B0038823A1F0C09117
:105A2000E900CF709091EC00892F817090FD80E8A3
:105A3000C82B1092E9008091E80083FD0E94C22BE0
:105A4000CF70C093E900CF910895991B79E004C00D
:105A5000991F961708F0961B881F7A95C9F78095AD
:105A6000089587FB082E062687FD819567FD6195C1
:105A70000E94252D0EF4919507FC81950895AA1B8F
:105A8000BB1B51E107C0AA1FBB1FA617B70710F029
:105A9000A61BB70B881F991F5A95A9F7809590955B
:105AA000BC01CD01089597FB072E16F4009407D092
:105AB00077FD09D00E943F2D07FC05D03EF490955C
:105AC00081959F4F0895709561957F4F0895A1E24C
:105AD0001A2EAA1BBB1BFD010DC0AA1FBB1FEE1F68
