:100000000C9426010C9443010C9443010C9443017D
:100010000C9459040C9465030C942C040C94D20396
:100020000C94FF030C9438030C94A5030C94E50284
:100030000C9443010C9443010C9443010C94430130
:100040000C9443010C9443010C9443010C94430120
:100050000C9443010000010008004000000100046E
:1000600000000100080020004000800000010004A2
:10007000000E161E26252E363D3E46454E55660D73
:10008000151D242D2C353C43444D545B5D581C1BE1
:10009000232B34333B424B4C525A121A22212A3220
:1000A000313A41494A59141F112911272F14760555
:1000B00006040C030B830A01097807777B4A717CDD
:1000C000795A7069727A6B73746C757D706C7D711E
:1000D000697A756B7274007E00F1F2373F5E4810EA
:1000E0003A38302820184D153B34233221502B400C
:1000F0004B1C43221D666800686A69006B6C6D00CA
:10010000373D3B3A3C665C5D5E5F6061626365649F
:100110004D516B6C6D6E6F7071727374757677780C
:10012000797A7B7C7D7E7F8081828384005C5F5DC9
:10013000605E61373B3C636562644D00FF00000018
:100140003D003643100F1E3E2B003E02111D1F1CAA
:100150002C003F03124120422D00400413142122A1
:100160002E2F06051615242331300708171B2544AA
:1001700032000D0918452600333C460A191A272873
:1001800000340C0B67000038003A0066000E00498E
:10019000294A47480000003900645F000000000061
:1001A00000655C000000000000005E6100003B6232
:1001B00000635D60002A3500000000000037000089
:1001C00000000000FF0000003D003643100F1E3EFF
:1001D0002B00013F111D1F5C2C003F4012412042AB
:1001E0002D004041131421222E2F434216152423A3
:1001F00031304445661B5D4460004A4667455E00F9
:10020000613C46476862636500644948670000389E
:10021000003A0066005F0049294A4748000000395B
:1002200000645F000000000000655C00000000004A
:1002300000005E6100003B6200635D60002A3500E3
:1002400000000000003700000000000011241FBE65
:10025000CFE5D8E0DEBFCDBF10E0A0E6B0E0E8EE2D
:10026000F7E102C005900D92A636B107D9F712E06A
:10027000A6E6B0E001C01D92A23AB107E1F70E94E4
:1002800073090C94F20B0C940000089583B7887FD7
:10029000826083BF12BE89B7816089BF10929102CC
:1002A00010929202109293021092940208958EB5C9
:1002B000887F83608EBD1DBC1CBC89B7846089BFEC
:1002C000089585B5887F846085BD14BC89B7806436
:1002D00089BF1092990210929A0210929B0210927A
:1002E0009C02089580E090E0FC01EE0FFF1FEA59A8
:1002F000FF4F11821082019688309105A9F70E9464
:1003000046010E9457010E9461017894089593B7B5
:10031000987F982B93BF08959EB5987F982B9EBD8C
:10032000089595B5987F982B95BD089583B7E82FCC
:10033000F0E0E770F070EE0FFF1FEC5AFF4F2591D1
:100340003491C90108958EB5E82FF0E0E770F070A0
:10035000EE0FFF1FEC5AFF4F25913491C90108950C
:1003600085B5E82FF0E0E770F070EE0FFF1FE05A60
:10037000FF4F25913491C9010895883040F4E82F4A
:10038000F0E0EE0FFF1FEA59FF4F7183608308957D
:10039000883040F4E82FF0E0EE0FFF1FEA59FF4FDE
:1003A000118210820895EF92FF920F931F93CF93C3
:1003B000DF93EC0112B71092950210929602109200
:1003C00097021092980283B7E82FF0E0E770F07080
:1003D000EE0FFF1FEC5AFF4F2591349140E050E0A3
:1003E00060E07BE187EB90E00E94C30BB901CA019A
:1003F000693B2DE8720726E0820720E09207A0F40F
:1004000037E2C131D30780F49E0140E050E00E9402
:10041000630B28EE33E040E050E00E94A10BC901DD
:10042000DA01BC01CD0121C028EE33E040E050E00C
:100430000E94A10BCA01B9019E0140E050E00E9458
:10044000630B13C08091950290919602A091970240
:10045000B091980285B78F7885BF85B7806885BFD2
:10046000889585B78F7785BF08C09B01AC01210FA8
:10047000311D411D511D79018A0120919502309154
:100480009602409197025091980282B790E0A0E0C6
:10049000B0E0542F432F322F2227822B932BA42BF3
:1004A000B52B8E159F05A007B10760F2DF91CF91A4
:1004B0001F910F91FF90EF9008951092910210926A
:1004C0009202109293021092940208952091910248
:1004D000309192024091930250919402B901CA0165
:1004E00008951092990210929A0210929B02109213
:1004F0009C0208952091990230919A0240919B02AA
:1005000050919C02B901CA010895893031F48FB528
:1005100082608FBD8FB58E7F0AC08A3019F48FB587
:10052000826002C08FB58D7F8FBD8FB581608FBD1A
:100530001BBC1ABC19BC18BC08952FB52E7F2FBD4B
:100540002FB522602FBD2EB528602EBD2EB520619F
:100550002EBD97BD86BD1BBC1ABC19BC18BC089526
:100560008FB58D7F8FBD8FB58E7F8FBD8FB58F7708
:100570008FBD8FB58F7B8FBD8FB58F7D8FBD8FB5B5
:100580008F7E8FBD08958FB580688FBD8FB58F7BAF
:100590008FBD08958FB580628FBD8FB58F7E8FBD63
:1005A00008958FB58F778FBD8FB58F7B8FBD0895E1
:1005B0008FB58F7D8FBD8FB58F7E8FBD08959BBD0D
:1005C0008ABD089599BD88BD08951F920F920FB6F8
:1005D0000F9211242F933F934F935F936F937F93C9
:1005E0008F939F93AF93BF93EF93FF93809191026B
:1005F00090919202A0919302B09194020196A11D54
:10060000B11D8093910290939202A0939302B093B4
:1006100094028091950290919602A0919702B091D8
:1006200098020196A11DB11D8093950290939602A8
:10063000A0939702B0939802809166009091670012
:10064000892B29F0E0916600F09167000995FF91F0
:10065000EF91BF91AF919F918F917F916F915F913A
:100660004F913F912F910F900FBE0F901F901895B3
:100670001F920F920FB60F9211242F933F934F9317
:100680005F936F937F938F939F93AF93BF93EF93FA
:10069000FF938091680090916900892B29F0E09187
:1006A0006800F09169000995FF91EF91BF91AF91BA
:1006B0009F918F917F916F915F914F913F912F917A
:1006C0000F900FBE0F901F9018951F920F920FB6AC
:1006D0000F9211242F933F934F935F936F937F93C8
:1006E0008F939F93AF93BF93EF93FF938091990262
:1006F00090919A02A0919B02B0919C020196A11D3B
:10070000B11D8093990290939A02A0939B02B0939B
:100710009C028091700090917100892B29F0E091EA
:100720007000F09171000995FF91EF91BF91AF9129
:100730009F918F917F916F915F914F913F912F91F9
:100740000F900FBE0F901F9018951F920F920FB62B
:100750000F9211242F933F934F935F936F937F9347
:100760008F939F93AF93BF93EF93FF938091740008
:1007700090917500892B29F0E0917400F09175003B
:100780000995FF91EF91BF91AF919F918F917F91CB
:100790006F915F914F913F912F910F900FBE0F90EE
:1007A0001F9018951F920F920FB60F9211242F933E
:1007B0003F934F935F936F937F938F939F93AF93E9
:1007C000BF93EF93FF9380916A0090916B00892B08
:1007D00029F0E0916A00F0916B000995FF91EF918B
:1007E000BF91AF919F918F917F916F915F914F9149
:1007F0003F912F910F900FBE0F901F9018951F9251
:100800000F920FB60F9211242F933F934F935F9344
:100810006F937F938F939F93AF93BF93EF93FF93C8
:1008200080916C0090916D00892B29F0E0916C0013
:10083000F0916D000995FF91EF91BF91AF919F915C
:100840008F917F916F915F914F913F912F910F9079
:100850000FBE0F901F9018951F920F920FB60F9218
:1008600011242F933F934F935F936F937F938F93B5
:100870009F93AF93BF93EF93FF9380916E009091FE
:100880006F00892B29F0E0916E00F0916F000995BF
:10089000FF91EF91BF91AF919F918F917F916F9158
:1008A0005F914F913F912F910F900FBE0F901F902E
:1008B00018951F920F920FB60F9211242F933F930A
:1008C0004F935F936F937F938F939F93AF93BF9358
:1008D000EF93FF938091720090917300892B29F020
:1008E000E0917200F09173000995FF91EF91BF9133
:1008F000AF919F918F917F916F915F914F913F91B8
:100900002F910F900FBE0F901F9018958093770036
:10091000F89480919E028F7E80939E0280919E0229
:10092000886080939E0278940895F89480919E0246
:100930008B7F80939E02789480917600089580ED5D
:1009400084BD80919D02833000F58B98939A8091AD
:100950009E0280FF23C0829BA3C080919D028130B4
:1009600031F0813040F0823009F0F6C006C0839942
:1009700002C08DE096C082E094C080919E0283FF09
:10098000EBC093988B9A84E28CC080919D028A314F
:1009900008F079C080919E0280FD08C080919E027F
:1009A000816080939E028A98929A0895829B76C075
:1009B00080919D02873140F4803118F58D3061F0CF
:1009C0008F3009F055C00CC08831E1F1883158F101
:1009D000893109F04DC049C080919E028D7F4DC084
:1009E00080919E028B7F80939E02839B05C080E84E
:1009F0008093760081E014C0109279001092760006
:100A000037C080917600869580937600839B30C0B6
:100A100080917600806880937600809179008F5F66
:100A20008093790025C0839B05C0809179008F5FFA
:100A3000809379008091790080FD1AC080919E0298
:100A4000826010C0839905C080919E02826080936D
:100A50009E0280919E0281FD0BC093988B9A80919B
:100A60009E02846080939E0203C08B98939A6CC010
:100A700092988A9A80919E028E7F80939E028091A6
:100A80009D028F5F0EC080919D028F3208F064C07E
:100A900080919E0280FF10C0829906C08B98939A25
:100AA00081E080939D02089580919E028E7F8093C5
:100AB0009E0292988A9A089580919E028160809306
:100AC0009E028A98929A80919D028C3228F48532F7
:100AD00080F48432E1F507C08D3299F18D32E8F06F
:100AE0008E32A9F531C08091770080937800109202
:100AF00079008091780080FF08C08B98939A80914C
:100B000079008F5F8093790002C093988B9A8091CF
:100B100078008695809378001AC08091790080FFD4
:100B200003C093988B9A02C08B98939A80919E02EF
:100B3000877F80939E0280919E02806180939E02B7
:100B400006C08B98939A03C010929D0208958091DD
:100B50009D028F5F80939D02089510929D0281E116
:100B600080939E028A98929A8B98939A0E94610130
:100B700082E00E94910185E06FE974E00E94BD016E
:100B800080ED84BD0895282F8F3F31F410927B00B3
:100B900081E08093230108958E3F21F08D3F29F459
:100BA00010927B00109223010895809123018823E5
:100BB00051F080917B00E82FF0E0EE58FD4F20834C
:100BC0008F5F80937B00809121019091220101969B
:100BD00068EC70E00E948E0BFC01909322018093E0
:100BE000210180911F01909120018E179F0759F4D8
:100BF000009719F487EC90E001C0019790932201CF
:100C0000809321010895E755FE4F20830895209198
:100C10001F0130912001809121019091220128171C
:100C2000390711F480E00895C901019668EC70E07D
:100C30000E948E0BFC019093200180931F01E755C9
:100C4000FE4F8081089540E020911F0130912001E6
:100C500080912101909122012817390709F441E080
:100C6000842F08951092200110921F0110922201EA
:100C70001092210110927B0010927C0010927C0255
:100C800010927D0210927E0210927F02E0E8F2E064
:100C9000119282E0E139F807D9F708950895E4E266
:100CA000F1E0119281E0E93AF807D9F725EF30E059
:100CB00006C0FC01EC5DFE4F808182608083F901FB
:100CC000849190E02F5F3F4F009799F728EF30E035
:100CD00006C0FC01EC5DFE4F808184608083F901D9
:100CE000849190E02F5F3F4F009799F72CEF30E011
:100CF00006C0FC01EC5DFE4F808188608083F901B5
:100D0000849190E02F5F3F4F009799F720E031E00A
:100D100006C0FC01EC5DFE4F808181608083F9019B
:100D2000849190E02F5F3F4F009799F72DE231E0DB
:100D300006C0FC01EC5DFE4F808180618083F9017B
:100D4000849190E02F5F3F4F009799F7E0E8F2E041
:100D5000119282E0E139F807D9F708950F931F93B4
:100D6000982F8F3F09F484C0A82FB0E0FD01E0590F
:100D7000FF4F0491662309F44DC0809371021092D5
:100D80007C0210927D0210927E0210927F021092DD
:100D9000A102AC5DBE4F8C91182F81FF2EC09636FC
:100DA00021F0983609F064C00EC08FEF0E94C30591
:100DB00080EE0E94C30582E10E94C30580EE0E947E
:100DC000C3058CE723C08DEF0E94C30581EE0E940E
:100DD000C30584E10E94C30587E70E94C30581EE35
:100DE0000E94C30580EF0E94C30584E10E94C305F1
:100DF00080EF0E94C30587E736C08FEF0E94C305CE
:100E000010FF03C080EE0E94C305802F0E94C3051F
:100E10008EEF29C080917102891711F410927B0026
:100E2000E92FF0E0EC5DFE4F808181FF13C0963624
:100E3000F9F480EE0E94C30580EF0E94C3058CE7A1
:100E40000E94C30580EE0E94C30580EF0E94C30587
:100E500082E109C080FF03C080EE0E94C30580EFDD
:100E60000E94C305802F0E94C3058CEF0E94C3051A
:100E70001F910F9108956F927F928F929F92AF92E0
:100E8000BF92CF92DF92EF92FF920F931F93CF9377
:100E9000DF9300E010E061E0C62ED12C57E1652E13
:100EA000712C4FE0842E912C41C0F70184918F3F2B
:100EB00079F5A7BAB8BA81E090E00E9445018C2F7D
:100EC000C83048F429B3C6010C2E02C0880F991F00
:100ED0000A94E2F71AC08850883060F423B3C40142
:100EE0008C1B9D0BA60102C0440F551F8A95E2F78B
:100EF000CA010BC020B3C3018C1B9D0BF60102C0BD
:100F0000EE0FFF1F8A95E2F7CF012095282371F598
:100F1000219648E050E0E40EF51EC131D10509F0FC
:100F2000C4CF0F5F1F4F0830110599F0C601002E86
:100F300002C0880F991F0A94E2F7A82EB82EB09429
:100F40003CE3E32E31E0F32EE00EF11EC0E0D0E0F2
:100F5000ACCF80B390E0809590958074907026E03F
:100F6000959587952A95E1F7982F811191E0892F22
:100F7000DF91CF911F910F91FF90EF90DF90CF9075
:100F8000BF90AF909F908F907F906F9008955F92E9
:100F90006F927F928F929F92AF92BF92CF92DF9289
:100FA000EF92FF920F931F93CF93DF93AA24BB245A
:100FB000CC24DD24C0E0D0E001E0E02EF12C17E1EC
:100FC000612E712CBFE08B2E912C87010C2E02C05C
:100FD000000F111F0A94E2F707BB802F809588BB92
:100FE00081E090E00E944501ECE0F1E040E050E05B
:100FF000302F3095842F483048F429B3C701042E90
:1010000002C0880F991F0A94E2F711C088508830F7
:1010100018F423B3C40102C020B3C301841B950B91
:10102000B70102C0660F771F8A95E2F7CB012095C2
:10103000282319F00894C11CD11C9081802F89238A
:1010400019F0222329F009C0222339F0902B01C086
:1010500093239083A1E0AA2EB12C4F5F5F4F31966E
:101060004131510539F62196C830D10509F0ADCF8F
:1010700094980E94CA02809180009091810000970C
:1010800051F4809182009091830065E070E00E94AD
:101090008E0BCB010EC08230910571F480918200DD
:1010A000909183006BEF7FEF0E948E0BCB018150FC
:1010B0009F4F0E94E2020EC08130910511F003970C
:1010C00049F480918200909183000196909383006F
:1010D000809382002091800030918100243031057E
:1010E00094F480918200909183008B5F9440FCF097
:1010F0001092830010928200C901019664E070E0B2
:101100000E948E0B0FC02430310589F4809182003B
:10111000909183000A97F1F48FEF90E00E94E20231
:1011200085E090E0909381008093800013C08091CF
:10113000820090918300865F994064F0CD2831F45D
:1011400082E090E090938100809380001092830071
:10115000109282008091820090918300019690937A
:1011600083008093820080919E0281FF07C0F894E3
:1011700080919E028D7F80939E027894AB2829F007
:1011800010921E0110921D010CC080911D019091C2
:101190001E01843691052CF4019690931E018093D4
:1011A0001D010E943B07582E80911D0190911E0148
:1011B000059719F020E030E079C080E090E00E94CF
:1011C000E202109283001092820084E090E09093FB
:1011D00081008093800081E1589EE0011124F3E0BA
:1011E000CC0FDD1FFA95E1F7C45CDE4FCC24DD2483
:1011F000E1E06E2E712C35C0F801E45FFE4F908166
:101200009821F5019490F801E058FD4F80818821E4
:1012100019F0992319F012C0992381F0992071F0E7
:10122000992339F0892D61E00E94AE06F701908282
:1012300005C0F701808160E00E94AE060F5F1F4F7E
:1012400068E070E0A60EB71EE60EF71E013111052C
:1012500099F60894C11CD11C219678E0C716D104D8
:1012600091F0C3010C2C02C0880F991F0A94E2F779
:10127000882E74E8E72E70E0F72EEC0CFD1C5E0162
:1012800000E010E0B9CF20E030E0F901E058FD4F78
:10129000D901A45FBE4F8C9180832F5F3F4F2131D6
:1012A000310599F750927F0021E030E0C901DF91CC
:1012B000CF911F910F91FF90EF90DF90CF90BF9053
:1012C000AF909F908F907F906F905F9008951F9345
:1012D000162F8E3F11F08093A0020E948604109377
:1012E000A1021F9108958F929F92AF92BF92CF92C9
:1012F000DF92EF92FF920F931F938FEF87BB88BB14
:101300001ABA14BA11BA8BBB85BB82BB899A889A68
:101310008C9A919A909A949A81B38F7181BB82B37F
:10132000806E82BB0E94720188E00E94850288E084
:101330008093A1020E94AD050E944F0678948824F4
:10134000839415E0A12EB12CC12CD12CB6E99B2E93
:1013500080919E0282FFB9C080917D0090917E00B5
:101360008C3F910561F020911F0130912001809107
:101370002101909122012817390709F0A6C00E9487
:101380009504182F6091A102623009F44FC06330B8
:1013900018F4613039F444C0663009F485C0673010
:1013A00009F44DC0133F61F1143F70F41E3EB9F0D3
:1013B0001F3E20F41D3E09F086C01FC0103FD1F033
:1013C000123F09F080C00DC0163FE9F0173F08F446
:1013D0007AC01E3F61F01F3F09F075C005C08EEE58
:1013E0006FC18AEF64E06CC18AEF68E069C18091E7
:1013F000A00266C18AEF62E063C18AEF66E060C165
:101400008AEF67E05DC180926000A0926100B092B7
:101410006200C0926300D09264000E94320653C002
:10142000853F09F450C08AEF61E04AC10E9432064C
:10143000112311F060E001C063E08AEF41C1682F21
:1014400070E0CB0180769070A5E095958795AA9580
:10145000E1F780936000AB0148715070F3E055955F
:101460004795FA95E1F780E090E021E030E003C095
:10147000220F331F019684179507D4F3677070709D
:10148000269FC001279F900D369F900D1124AA27FB
:1014900097FDA095BA2F8093610090936200A0936E
:1014A0006300B09364000FC080FF02C0949A01C033
:1014B000949881FF02C0909A01C0909882FF02C068
:1014C000919A01C091988AEFFAC080919E0284FFA0
:1014D0003FCF8091A102843009F4DFC0853030F421
:1014E000882371F0833009F033CFD5C0883009F4F8
:1014F000D9C08C3009F45BC0853009F029CFD0C049
:1015000020911F01309120018091210190912201B1
:101510002817390711F40E94C7070E940706282FD1
:1015200030E030937E0020937D002C3F310509F49C
:101530000FCF232B21F060E00E9467095CC08091EF
:101540007B00882309F404CF20917C0230917D0236
:1015500040917E0250917F022F5F3F4F4F4F5F4F70
:1015600020937C0230937D0240937E0250937F0251
:1015700080916000899DC00111248A519F4FAA2744
:1015800097FDA095BA2F281739074A075B070CF477
:10159000DFCE10927C0210927D0210927E02109299
:1015A0007F0210927C008CE08093A102D1CE8091CA
:1015B0007C00882311F40E94C70780917B00882358
:1015C000C1F020911F013091200180912101909163
:1015D00022012817390769F480917C0290917D02DD
:1015E000A0917E02B0917F020197A105B10561F43F
:1015F0000FC01092A10210927C0210927D021092F4
:101600007E0210927F02A4CE80917C008823A9F0F4
:1016100090917C00E92FF0E0EE58FD4F80819F5FB4
:1016200090937C006CE00E94670960917B00809140
:101630007C000E94820B90937C00E0907C02F090F2
:101640007D0200917E0210917F020894E11CF11C42
:10165000011D111D60916100709162008091630015
:10166000909164002AE030E040E050E00E94630B7B
:101670009B01AC012D5F3F4F4F4F5F4FC801B7013A
:101680000E94C30B60937C0270937D0280937E0264
:1016900090937F025DCE82E012C08BEA65E010C0BD
:1016A00083E80DC0919A909A949A0E94320688EE2F
:1016B00093E00E94D3019198909894988AEA60E010
:1016C0000E94670945CE629FD001739FF001829FFF
:1016D000E00DF11D649FE00DF11D929FF00D839FC1
:1016E000F00D749FF00D659FF00D9927729FB00D5E
:1016F000E11DF91F639FB00DE11DF91FBD01CF0171
:1017000011240895991B79E004C0991F961708F0D9
:10171000961B881F7A95C9F78095089597FB092E27
:1017200007260AD077FD04D049D006D000201AF44D
:10173000709561957F4F0895F6F7909581959F4F2D
:101740000895A1E21A2EAA1BBB1BFD010DC0AA1F02
:10175000BB1FEE1FFF1FA217B307E407F50720F01A
:10176000A21BB30BE40BF50B661F771F881F991F95
:101770001A9469F760957095809590959B01AC01DE
:10178000BD01CF01089597FB092E05260ED057FD08
:1017900004D0D7DF0AD0001C38F45095409530951E
:1017A00021953F4F4F4F5F4F0895F6F790958095E5
:1017B000709561957F4F8F4F9F4F0895AA1BBB1B5C
:1017C00051E107C0AA1FBB1FA617B70710F0A61B41
:1017D000B70B881F991F5A95A9F780959095BC0162
:0817E000CD010895F894FFCF3C
:0617E800020500000000F4
:00000001FF
