:100000000C94C5030C940C040C940C040C940C0478
:100010000C940C040C940C040C940C040C940C0420
:100020000C940C040C940C040C94182B0C94EC2BD6
:100030000C948F250C940C040C940C040C940C045C
:100040000C940C040C940C040C940C040C940C04F0
:100050000C94A6120C94E6250C940C040C940C043D
:100060000C940C040C940C040C940C040C940C04D0
:100070000C940C040C940C040C940C040C940C04C0
:100080000C940C040C940C040C940C040C940C04B0
:100090000C940C040C940C040C940C040C940C04A0
:1000A0000C940C040C940C040C940C0429001E00F9
:1000B0001F0020002100220023002400250026002C
:1000C00027002D002E002A004C002B0014001A00DF
:1000D0000800150017001C0018000C001200130087
:1000E0002F0030003100490039410400160007009C
:1000F00009000A000B000D000E000F003300340051
:10010000320028004A00E10064001D001B000600C8
:100110001900050011001000360037003800E50016
:1001200052004D00E000E300E2002C00000000005F
:100130002C002C004600E600E700E40050005100CF
:100140004F00010001000100010001000100010059
:100150000100010001000100010001000100010097
:100160000100010001000100010001000100010087
:100170000100010001000100010001000100010077
:100180000100010001000100010001000100010067
:100190000100010001000100010001000100010057
:1001A0000100010001000100010001000100010047
:1001B0000100010001000100010001000100010037
:1001C0000100000000000100010001000100010029
:1001D0000100010001000100010001000100010017
:1001E0000100010001000100010001000100010007
:1001F00001000100010001000100010001000100F7
:1002000001000100010001000100010001000100E6
:1002100001000100010001000100010001000100D6
:1002200001000100010001000100010001000100C6
:1002300001000100010001000100010001000100B6
:1002400001000100010001000100010001000100A6
:100250000100010001000100000000000100010098
:100260000100010001000100010001000100010086
:100270000100010001000100010001000100010076
:100280000100010001000100010001000100010066
:100290000100010001000100010001000100010056
:1002A0000100010001000100010001000100010046
:1002B0000100010001000100010001000100010036
:1002C0000100010001000100010001000100010026
:1002D0000100010001000100010001000100010016
:1002E0000100010001000100010001000100000007
:1002F00000000100010001000100010001000100F7
:100300000100010000000000000000002A2B28006E
:1003100000000000000000000000000000000029B4
:10032000000000002C1E3420212224342627252EF4
:10033000362D3738271E1F2021222324252633332C
:10034000362E37381F0405060708090A0B0C0D0E58
:100350000F101112131415161718191A1B1C1D2F24
:100360003130232D350405060708090A0B0C0D0E44
:100370000F101112131415161718191A1B1C1D2F04
:100380003130354C0000000000000000000000008B
:1003900000000000000000007E0F00D4FFFFFFC738
:1003A0000000007832190A00047F3F1F6432146491
:1003B0003214783C1E1E140A052223252628292AD9
:1003C0002C2D2F3032333536383A3B3D3E404243B8
:1003D0004547494A4C4E5051535557595A5C5E60F7
:1003E00062646668696B6D6F71737577797B7D7F09
:1003F00081838587898A8C8E90929496989A9C9E08
:100400009FA1A3A5A7A8AAACAEAFB1B3B4B6B8B923
:10041000BBBCBEBFC1C2C3C5C6C7C9CACBCCCDCE8B
:10042000D0D1D2D2D3D4D5D6D7D7D8D9D9DADADB6E
:10043000DBDBDCDCDCDCDCDDDDDDDDDCDCDCDCDCFA
:10044000DBDBDBDADAD9D9D8D7D7D6D5D4D3D2D239
:10045000D1D0CECDCCCBCAC9C7C6C5C3C2C1BFBE21
:10046000BCBBB9B8B6B4B3B1AFAEACAAA8A7A5A38C
:10047000A19F9E9C9A98969492908E8C8A8987854B
:1004800083817F7D7B79777573716F6D6B6968662A
:100490006462605E5C5A5957555351504E4C4A49FC
:1004A00047454342403E3D3B3A3836353332302FA4
:1004B0002D2C2A292826252322FFAA7F554000001B
:1004C0000000000000000000000101020304050616
:1004D000080A0C0F1114181C2024292E33393F460A
:1004E0004C535B626A7179818A929AA2AAB2B9C1AD
:1004F000C8CFD5DCE1E7EBF0F4F7FAFCFDFEFFFE38
:10050000FDFCFAF7F4F0EBE7E1DCD5CFC8C1B9B2F6
:10051000AAA29A928A8179716A625B534C463F39EA
:10052000332E2924201C1814110F0C0A0806050468
:1005300003020101000000000000000000000001B3
:100540000101010101010101020202020202020293
:100550000203030303030303030404040404040465
:100560000505050505060606060607070707070829
:10057000080808090909090A0A0A0B0B0B0C0C0CDC
:100580000D0D0D0E0E0E0F0F0F1010111111121276
:1005900013131414151516161717181819191A1AF3
:1005A0001B1B1C1D1D1E1E1F202021222223242454
:1005B000252626272829292A2B2C2D2D2E2F303190
:1005C0003232333435363738393A3B3C3D3E3F40A2
:1005D0004142434445464748494A4C4D4E4F50518D
:1005E0005354555658595A5B5D5E5F616264656647
:1005F00068696B6C6D6F7072737577787A7B7D7ECE
:100600008082838587888A8C8E8F91939596989A1D
:100610009C9EA0A2A3A5A7A9ABADAFB1B3B5B7BA35
:10062000BCBEC0C2C4C6C9CBCDCFD1D4D6D8DBDD09
:10063000DFE2E4E7E9EBEEF0F3F5F8FAFDFF04039F
:100640003000000028034D006500630068006C0066
:100650006F00760069006E002000480061006E00A7
:100660006E006100680039003100300000001403A2
:100670004D006500630068006C006F007600690043
:100680006E0000000403090409025B00030100A0DE
:10069000FA09040000010301010009211101000110
:1006A0002240000705810308000A09040100020333
:1006B0000000000921110100012222000705820328
:1006C00020000107050303200001090402000103C3
:1006D00000000009211101000122320007058403F6
:1006E00020000A12011001000000084C4D03910285
:1006F00000010203010660FF0961A1010962150002
:1007000026FF009520750881020963150026FF0069
:10071000952075089102C005010980A10185031982
:10072000012AB700150126B700950175108100C098
:10073000050C0901A101850419012AA00215012651
:10074000A002950175108100C005010906A10105EF
:100750000719E029E7150025019508750181029523
:1007600001750881010507190029FF150026FF0002
:10077000950675088100050819012905950575017B
:100780009102950175039101C00011241FBECFEFA6
:10079000DAE0DEBFCDBF04B603FE27C0809196032A
:1007A00090919703A0919803B09199038730904B53
:1007B000A740B04BD1F41092960310929703109279
:1007C00098031092990314BE84B7877F84BF0FB635
:1007D000F894A895809160008861809360001092E1
:1007E00060000FBEE0E0F8E3099511E0A0E0B1E0A1
:1007F000E0EFFEE502C005900D92A63DB107D9F7E6
:1008000023E0A6EDB1E001C01D92A639B207E1F7E1
:100810000E94DD270C94202F0C940000229A509AFD
:10082000519A529A08950E941C080C940E0481FF5C
:1008300003C02A9A0C94BF052A98FCCFCF92DF926E
:10084000EF92FF926B017C010E94E2238130B1F4B0
:100850005A9AC701B6010E94E223823089F4599A5C
:10086000C701B6010E94E223833061F4589AC701A0
:10087000B601FF90EF90DF90CF9008955A98E9CF9E
:100880005998EECF5898F3CF81E0089581E008950C
:100890000C94460408950C944A041F93CF93DF935D
:1008A00000D000D00F92CDB7DEB749835A836B8357
:1008B0003091890289819A8131111DC06623B9F076
:1008C0002223A9F00E949E22182F682F89819A81E5
:1008D0000E944A2269817A81812F0F900F900F9098
:1008E0000F900F90DF91CF911F910C9419160E94D9
:1008F0007622182FEFCF0E949E2269817A81EDCF58
:10090000FC01262F408151816281738184810C9486
:100910004D04CF93DF93EC0160E00E948004BE01A0
:10092000DF91CF910C944B04FF920F931F93CF93C1
:10093000DF93E82FF0E0EC5FFC4FF490C82FC695F2
:10094000C695C695D0E0FE01EC56FC4F0491877029
:1009500010E0082E02C0159507950A94E2F7017081
:100960001127CC57DC4FFE01C491D0E002C0D595D1
:10097000C7958A95E2F7C170DD270115110519F0B9
:1009800081EE0E945A1A209719F086EE0E945A1A98
:100990008F2D0E94331BCD2B19F086EE0E94E41A96
:1009A000012B41F081EEDF91CF911F910F91FF90CC
:1009B0000C94E41ADF91CF911F910F91FF9008954D
:1009C000EF92FF920F931F93CF93DF93EC01162FBB
:1009D0000AE08881882309F454C0813009F04EC0B0
:1009E0008981813099F47E0122E0E20EF11C8A8136
:1009F0000E94331BE7012196812F815050F3EFE9CC
:100A0000FFE03197F1F700C00000F7CF823041F4EA
:100A10007E0182E0E80EF11C8A810E945A1AEACF18
:100A2000833041F47E01E2E0EE0EF11C8A810E94E7
:100A3000E41AE0CF843011F02196DDCF2A8122968E
:100A400090E080E0AE014F5F5F4F2053330B2A30C0
:100A5000310548F0019778F2EFE9FFE03197F1F7BF
:100A600000C00000F7CF089FB001099F700D11244E
:100A7000C901860F971F2981EA01E4CF0E949404DF
:100A8000BACFDF91CF911F910F91FF90EF90089512
:100A900060E00C94E0048F929F92AF92BF92CF924D
:100AA000DF92EF92FF920F931F936B017C0181E025
:100AB00090E0A0E0B0E04C015D0104C0880C991CFE
:100AC000AA1CBB1C4A95D2F7B501A4014C015D01DB
:100AD00004C0880C991CAA1CBB1C2A95D2F7482973
:100AE00059296A297B2904C0880F991FAA1FBB1F97
:100AF0000A95D2F78A019B010C211D212E213F214D
:100B0000041715072607370789F48C299D29AE2974
:100B1000BF29BC01CD011F910F91FF90EF90DF9095
:100B2000CF90BF90AF909F908F90089580959095B3
:100B3000A095B0958C219D21AE21BF21EACF0F93C6
:100B4000382F262F6091F4027091F5028091F60201
:100B50009091F702042F432F0E944B050F910C94A4
:100B600088210E9430260E943524811102C00E94F3
:100B7000DB240E9415130C9413040C941E08089592
:100B800081E008950C94C005CF93C82F0E941704EC
:100B90008C2FCF910C94C20508950E94B31D0E9422
:100BA000CC052FEF84E39CE0215080409040E1F79A
:100BB00000C000000C940A260F931F93CF93DF937D
:100BC000EC0161E00E9480048C01BE010E94AE1322
:100BD0008823B9F1BE01C8010E944804882389F125
:100BE000BE01C8010E94FE11882359F1BE01C8014F
:100BF0000E946F17882329F1BE01C8010E94C11706
:100C00008823F9F0BE01C8010E94E4188823C9F0C6
:100C1000BE01C8010E949410882399F08A8188231C
:100C200039F001158CE5180751F00E3D1C4579F09F
:100C3000CE01DF91CF911F910F910C9444040E943B
:100C4000CD0580E0DF91CF911F910F9108950E9413
:100C5000DB24F7CF90E080E008950895FC01EE0FCB
:100C6000FF1FEC55FC4F859194910895CF93DF932E
:100C70000E9419160E944207EC01811520E5920797
:100C800008F041C0811530E4930708F0B4C0803EFD
:100C9000910518F5803C910508F09DC0883A9105B2
:100CA00070F4853A910508F08EC081309105F9F015
:100CB0000097E9F00497D8F4D0E0C0E018C08F3B6B
:100CC0009105D0F7C85AD0E0CC0FDD1FCB5DDE4FC9
:100CD0000990D881C02DD4640AC08115904258F47F
:100CE000C11581E0D80718F4C83ED10528F7CE0118
:100CF000DF91CF910895C11590E3D90708F071C035
:100D0000CE019F706AC0811525E5920758F58115BF
:100D100034E5930708F09EC0811542E5940750F42E
:100D2000C11581E5D80708F469C0DC2FCC27C16F55
:100D3000D06ADDCF982F969596959E012370332724
:100D4000C115D34508F077C0C1E0D0E002C0CC0F98
:100D5000DD1F2A95E2F720E2929FC0011124C82BE3
:100D6000D92B67C0C11589E5D807A8F4C11598E546
:100D7000D90708F074C0C11526E5D20708F09CCF4A
:100D80008C2F0E94D907C82FD0E0DC2FCC27CC278E
:100D9000DF71D062ACCFC1153AE5D30708F464C067
:100DA000CE0190568115904208F086CF8D2F8F711D
:100DB0000E94D90790E0982F882788279F719C016F
:100DC0002C2BE901E6CFC55AD0E0CD5ADE4FC881C1
:100DD000D0E0D0648CCF805C91090E942E06EC019B
:100DE00086CFCE019927D3FF03C0EC01D86C7FCF0B
:100DF000EC01D06C7CCFDF70D06A79CFCE01E4E01B
:100E000096958795EA95E1F783702C2F2695269580
:100E1000237090E2299F90011124382B8C2F83702E
:100E2000C1E0D0E002C0CC0FDD1F8A95E2F7C22BF3
:100E3000D32BDC685CCFC1E0D0E002C0CC0FDD1F5B
:100E40002A95E2F730E2939FC0011124C82BD92BD9
:100E5000DA684DCFD82FCC27C46FD06A48CFDC2FAB
:100E6000CC27C06FD06A43CF8C2F8F700E94D907D8
:100E700034E0D695C7953A95E1F7CF709C2FEC01F9
:100E8000D06935CF82389105B1F1B0F48133910545
:100E900009F475C048F48932910509F469C08A32B1
:100EA000910509F473C008958533910509F459C07B
:100EB0008933910501F10895833E9105A9F138F434
:100EC000803E9105F9F0823E910549F10895863EF4
:100ED0009105A9F1873E9105C9F1843E910519F567
:100EE0002091880321FF1FC08091870384FD14C0D7
:100EF00087EE90E00895209187032370A1F080EEA3
:100F000090E008952091870320FD47C03091880329
:100F100030FF09C024FF44C090E080E004C020916D
:100F2000870322FDF7CF08952091870322FD3BC060
:100F30003091880330FDE3CF24FFF5CFEDCF209132
:100F4000870323FFF0CF24FDE7CFD2CF2091870383
:100F500023FD2CC03091880331FFEECF84EE90E06A
:100F600008952091870325FFDECF89E290E0089560
:100F70002091870325FFD7CF85E390E00895209146
:100F8000870326FFD0CF8AE290E00895209187035F
:100F900026FFC9CF81E390E0089589E390E00895AA
:100FA00083EE90E0089582EE90E0089586EE90E062
:100FB00008959091870392FF06C0282F287128304A
:100FC000F9F4877F846093FF06C0282F28712831A9
:100FD000F1F4877E84612091880320FF06C0382FBA
:100FE00038713830D9F4877F816021FF06C0282FFF
:100FF00028712831D1F4877E816194FD877E089520
:10100000282F24712430F9F68B7F8860DCCF282FBD
:101010002471243101F78B7E8861DDCF382F317147
:10102000313019F78E7F8860E0CF282F2171213170
:1010300021F78E7E8861E1CF089508950C941D08F4
:10104000E82FF0E0EE0FFF1FE15EFC4F8081918101
:101050000895089580EA8A95F1F70895CF93DF9374
:10106000A5E6B1E04AE651E0C1E0D0E08D91E82F7D
:10107000E295EF70F0E061A18F709E0101C0220F38
:101080008A95EAF7922F9095962391A382A1822BBD
:1010900082A34A175B0751F7A6E5B1E061E070E073
:1010A0008D91E82FE295EF70F0E041A18F709B01E8
:1010B00001C0220F8A95EAF7922F9095942391A36D
:1010C00082A1822B82A381E0A536B80749F710924E
:1010D0001603109215031092200310921F03109212
:1010E00018031092170310922203109221031092FA
:1010F0001A031092190310922403109223031092E2
:101100001C0310921B0310922603109225031092C9
:101110001E0310921D03109228031092270385E0EE
:101120000E941D09DF91CF910C94B1058F929F927F
:10113000AF92BF92CF92DF92EF92FF920F931F93E5
:10114000CF93DF9385E6E82E81E0F82E05E113E0EA
:10115000912CAA24A394B12CF70181917F01C82F6F
:10116000C295CF70D0E099A18F70650101C0CC0C01
:101170008A95EAF7892F8C2989A38AA18C2C8094DF
:1011800088218AA30E942A08E6E5F1E050E040E0C9
:1011900030E020E06191A62FA295AF70B0E090966C
:1011A0008C9190E06F7002C0959587956A95E2F7F3
:1011B00080FD3EC0C501042E02C0880F991F0A940D
:1011C000E2F7282B392B4F5F5F4F4F30510511F756
:1011D00089A1882289A28AA1C82ACAA2F80180818D
:1011E00091812817390739F13183208381E0982ACA
:1011F0000E5F1F4FFAE6EF16F1E0FF0609F0ACCFE5
:10120000292D45E06FE173E085E193E00E941E091E
:101210000E94BD05892DDF91CF911F910F91FF9005
:10122000EF90DF90CF90BF90AF909F908F900895F8
:1012300090E080E0C6CF80E0DACF0895FF920F9370
:101240001F93CF93DF93F82E092F162FD72FC42F7C
:10125000222349F081E08093D8010E94BF2590931A
:10126000D7018093D6018091D8018823A1F0809185
:10127000D6019091D7010E94D725069760F0EF2DF7
:10128000F02FA12FBD2F90E080E0D0E08C179D07BC
:1012900044F01092D801DF91CF911F910F91FF90F0
:1012A0000895219131912D933D930196EFCFEF92C7
:1012B000FF920F931F93CF93DF93EB01E82FD11190
:1012C00010C0442321F0F0E0E25CFA4FE4916E2F6D
:1012D0007E2F8E2FDF91CF911F910F91FF90EF9076
:1012E00008950D2F10E0282F30E0442329F0225CD0
:1012F0003A4FF901249130E0F6E0CF9FC00111246C
:10130000EFEFF0E0BF010E94C82DAB018C2F90E001
:10131000880F991FA5E5A49FB001A59F700D11240A
:10132000861B970B982F990F980FBF01601B710BAD
:10133000629FD001639FB00D729FB00D11248B2F5F
:101340009D9FB0011124672F7727EF01C61BD70B94
:10135000BE01629FE001639FD00D729FD00D1124EA
:101360007F01E91AF108E09EB001E19E700DF09E48
:10137000700D1124672F7727E61BF70BE29F800182
:10138000E39F100DF29F100D1124E12F722F4230B8
:10139000510599F048F44115510569F04130510566
:1013A00081F0EB2F8D2F07C04430510569F080F09C
:1013B00046305105B1F76E2F8DCFE22F7B2F812F55
:1013C000FACFE22F7D2FF7CFEB2F822F712FF3CFA4
:1013D0007B2F822FED2FEFCF41E00C94570908951A
:1013E000CF93DF93762FE901682F842F0E94EC09B9
:1013F000798368838A83DF91CF910895809129034F
:10140000982F9E7F29F4817082608093290308952C
:101410008635E8F381708465F8CF88E090E00C941D
:10142000C12ECF92DF92EF92FF926B017C010E945E
:10143000FE09B701A60188E090E0FF90EF90DF90F1
:10144000CF900C94DF2E6091290370912A03809134
:101450002B0390912C030C94110AE9E2F3E083E052
:10146000808311828FEF82838383148260817181F4
:10147000828193810C94110A8091290380FF02C01C
:101480008695089580E0089590912D03933018F487
:101490009F5F90932D03882351F0609129037091F1
:1014A0002A0380912B0390912C030C94110A089528
:1014B00081E00C94440A90912D03992319F09150E6
:1014C00090932D03882351F06091290370912A0392
:1014D00080912B0390912C030C94110A089581E0C4
:1014E0000C945B0A80912D03089580932D0366234D
:1014F00051F06091290370912A0380912B03909100
:101500002C030C94110A089560E00C94750A8091E4
:101510002A03089580912B03089580912C03089548
:1015200070E00C942B13609108018091290380FFD7
:101530000AC08091070123E0829FC0011124825DCF
:101540009C4F0C94900A8091090190910A0123E02C
:10155000829FF0011124E25DFC4F891750F7118240
:10156000108212828F5F3396F8CF9091290390FFFB
:1015700014C09091090120910A0133E0939FF0017A
:101580001124E25DFC4F921710F00C94930A8183B2
:10159000608342839F5F3396F6CF0895CF93DF93A6
:1015A00000D00F92CDB7DEB79091290390FF0AC00B
:1015B0009E012F5F3F4F0E94F0094B8169818A8114
:1015C0000E94B50A0F900F900F90DF91CF91089570
:1015D000CF93DF93EC01EC81F0E0E754FC4F4491B2
:1015E000E9E2F3E0628181810E94CE0A8C818F5F03
:1015F0008C83DF91CF910895CF93DF93EC01E9E2E3
:10160000F3E0438162818C810E94CE0A8C818F5FDE
:101610008C83DF91CF9108950F931F93CF93DF9326
:1016200000D00F92CDB7DEB78C018091D901811126
:101630000AC09E012F5F3F4F4FEF6FEF0E94F009EE
:101640008A818093D901F8016481613069F08091C9
:10165000D90140E0662361F040E0623011F440912E
:10166000D90180E060E004C06091D90140E080E0F1
:101670000E94B50AF801848190E0019663E070E071
:101680000E94DC2D84830F900F900F90DF91CF91FB
:101690001F910F910895AF92BF92CF92DF92EF9278
:1016A000FF920F931F93CF93DF9300D00F92CDB78C
:1016B000DEB7182FF62E042FE22E9091290390FF0B
:1016C00029C0E92FE695AE2FB0E0A659BE4F8C9108
:1016D00080936F029E7F923059F59E012F5F3F4F9E
:1016E000812F0E94F0094B8169818A810E94B50A8D
:1016F00010932A03F0922B0300932C03EE2051F059
:101700006091290370912A0380912B0390912C03FF
:101710000E94110A0F900F900F90DF91CF911F91AF
:101720000F91FF90EF90DF90CF90BF90AF90089512
:10173000823019F400912C03DBCF863019F410911C
:101740002A03D6CF8930D9F3893191F6E9518E2F0A
:101750008170D82EE695F0E0E754FB4FA590B49049
:10176000C12CBB2460910B01C61618F00E94930A8D
:10177000BFCF2C2D30E0A29EC001A39E900DB29E43
:10178000900D112470E00E94C82D812FD11013C03C
:10179000860F40910901420F532F511D9A01220FCC
:1017A000331F240F351F225D3C4F402F6F2D0E94A9
:1017B000F009C394D7CF861BECCFE9E2F3E0918127
:1017C000282F4381628188E0890F0C944B0B81E0C4
:1017D0000C94DD0BE9E2F3E09181282F43816281D3
:1017E00088EF890F0C944B0B81E00C94EA0BE9E233
:1017F000F3E0628121E1620F08F46FEF282F43814B
:1018000081810C944B0B81E00C94F70BE9E2F3E03F
:10181000628121E1621B08F460E0282F438181810D
:101820000C944B0B81E00C94060CE9E2F3E043814D
:1018300021E1420F08F44FEF282F628181810C943F
:101840004B0B81E00C94150CE9E2F3E0438121E1BC
:10185000421B08F440E0282F628181810C944B0BDD
:1018600081E00C94240C20E00C944B0BEF92FF923F
:101870001F93CF93DF93EC0110E0EE24EA94F12C58
:1018800060910B01161770F00E94930A9A818C8167
:1018900090FF27C08F5F8C83DF91CF911F91FF90C6
:1018A000EF90089520910901422F410F5527551FB0
:1018B000CA019A01220F331F280F391F225D3C4FA6
:1018C00070E0C7010E94DC2D962F8C8140912C0383
:1018D00060912B03199F800D11240E94F0091F5F56
:1018E000CFCF8150D8CFAF92BF92CF92DF92EF92FD
:1018F000FF920F931F93CF93DF93FC0182810FEF31
:1019000080FF01E010E04CE1A42E80910B0118173C
:10191000C8F00E94930A8091DB01013009F055C0A4
:10192000811102C080910B0181508093DB01DF9116
:10193000CF911F910F91FF90EF90DF90CF90BF90CC
:10194000AF900895C0910901C12ED12CCC0DDD2D91
:10195000D11DCE01880F991FC80FD91FC25DDC4F62
:10196000198218821A8234E0E32EF12CB12C809176
:10197000DB018B0D8D311CF16A2D0E94BA2D892F50
:10198000082E000C990BC816D90691F480912C03EF
:101990008E9DA0018F9D500D11245595479555950D
:1019A00047959E0160912B0380912A030E94F009C4
:1019B000B00EF1E0EF1AF108D1F61F5FA6CF87FF56
:1019C000DFCF90910B01890FDBCF90E00196609102
:1019D0000B0170E00E94DC2DA8CF0F931F93CF93D3
:1019E000DF938091090190910A0123E0829FF00129
:1019F0001124E25DFC4F891740F1C0E0D3E0609113
:101A00000B01C61740F10E94930A209105018091B5
:101A1000DA01820F8093DA0190910601920F909380
:101A20000601191654F4082E000C990B40910B0175
:101A30004150550B841795071CF021952093050103
:101A4000DF91CF911F910F91089511821082128220
:101A50008F5F3396D0CF0C2F10E070E0C8010E944A
:101A6000DC2D20910901820F482F50E02091DA01EE
:101A7000022E000C330B02171307BCF02091060155
:101A8000022E000C330B201731077CF08D9F900144
:101A90001124225D3C4F40912C0360912B038091D7
:101AA0002A030E94F009CF5FAACFFA01EE0FFF1FB1
:101AB000E40FF51FE25DFC4F118210821282F3CF1A
:101AC0008F929F92AF92BF92CF92DF92EF92FF924E
:101AD0000F931F93CF93DF93EC014C81042F10E001
:101AE0009801D8010E94272E9B01AC010E943D2E37
:101AF0004B015C01E0E2F0E0E01BF10BA5E5B0E09A
:101B0000AC019B010E943D2E6B017C019F01DF0116
:101B10000E941F2E9B01AC010E94482E9B01AC012C
:101B2000280D391D4A1D5B1DC701B6010E94F02D0D
:101B3000F22E822F90E039E23F1560F143E0249FBE
:101B40009001112435952795122F109500E085E519
:101B5000E82EEF1880910B01081758F10E94930AA4
:101B60009C8181E0992319F0903219F48FEF8093D2
:101B7000040180910401890F8C83DF91CF911F9123
:101B80000F91FF90EF90DF90CF90BF90AF909F901C
:101B90008F90089525E530E0B901681B790B9B0112
:101BA000220F331F260F371F37FFCCCF2F5F3F4F3A
:101BB000C9CF8E2D01FD8F2D20910901622F600F5D
:101BC0007727771F9B01220F331F260F371F225DB8
:101BD0003C4F412F60912B030E94F0090F5FBACF59
:101BE0000F931F93CF93DF93EC0110E000E09091EF
:101BF0000B019017110609F06CF40E94930A8C8176
:101C000090E00196817099278C83DF91CF911F918D
:101C10000F91089520910901A801420F511D9A01C9
:101C2000220F331F240F351F225D3C4F4C816091E2
:101C30002B0380912A0396959017110651F04CF0D2
:101C4000442349F040912C030E94F0090F5F1F4F7D
:101C5000CECF4423B9F340E0F7CF8F929F92AF925B
:101C6000BF92CF92DF92EF92FF920F931F93CF9389
:101C7000DF93FC01B280948081E0848300E015E072
:101C80005BE4A52E88248394EE24EA94F12C7BE473
:101C9000C72ED12C80910B01081770F0DF91CF91E6
:101CA0001F910F91FF90EF90DF90CF90BF90AF907A
:101CB0009F908F900C94930AC02FD0E01C9FF0014E
:101CC0001D9FF00D1124E452FE4F91101CC0138291
:101CD000128220910901CE01820F911D9C01220FD9
:101CE000331F280F391F225D3C4F1C9FF0011D9FA1
:101CF000F00D1124E452FE4F4281618180810E94E7
:101D0000F0090F5FC7CF2381222379F1215023836C
:101D100034818A2D821B311101C0822F1C9FF0015A
:101D20001D9FF00D1124E452FE4F90912C03899FCA
:101D3000C0011124B6010E94C82D6283211104C084
:101D4000332311F01482A38222E02B1510F21C9F82
:101D5000F0011D9FF00D1124E452FE4F80912A03E3
:101D6000808380912B038183B4CF0E949C2E82308C
:101D700091400CF0AECF82E08B1530F50E949C2E86
:101D8000B7010E94DC2D1C9FF0011D9FF00D112456
:101D9000E452FE4F808322E02B15C8F40E949C2E53
:101DA00020912B032695622F70E00E94DC2D280FD6
:101DB0001C9FF0011D9FF00D1124E452FE4F218362
:101DC0001282A382848285CF80912A03DCCF209166
:101DD0002B03EECFE9E2F3E080818E7F8083608188
:101DE0007181828193810E94110A109270022FEFFB
:101DF00080E792E0215080409040E1F700C0000071
:101E00000C94930AE9E2F3E080818E7F8083109244
:101E100070022FEF80E792E0215080409040E1F780
:101E200000C000000C94930A60912903669570E04D
:101E30004BE050E08CE091E00E94AC2E892B19F42D
:101E400081E0809370020E94BF2590936902809385
:101E5000680208959091290390FF35C09170811117
:101E600028C0926090932903662351F06091290362
:101E700070912A0380912B0390912C030E94110AE8
:101E800060912903669570E04BE050E08CE091E0B2
:101E90000E94AC2E892BA1F01092700281E08093F9
:101EA0006B0240912C0360912B0380912A030C94C8
:101EB000330C8B3210F09465D5CF880F982BD2CF8E
:101EC0000E94140FEBCF0895682F909129039695E7
:101ED00081E0890F8B3208F081E00C942A0F81E0B9
:101EE0000C94640F682F9091290396958FEF890FBA
:101EF00009F48AE20C942A0F81E00C94720F61E0DD
:101F00000C942A0FE9E2F3E080818160808386955A
:101F10000C947F0F8091290380FD0C94EA0E0C94A1
:101F2000820F60E00C942A0F80916E0281112EC006
:101F30000E943524811104C00E94DB240E942D0AD6
:101F40000E940D0A6093290370932A0380932B0348
:101F500090932C036E7F61F40E942D0A0E940D0A5B
:101F60006093290370932A0380932B0390932C038F
:101F70000E94FE09109270028091290380FF03C025
:101F800086950E94910F81E080936E020895E9E2A8
:101F9000F3E080818160808386950C94910F0F938C
:101FA0001F93CF93DF9380917002882309F49DC023
:101FB00080916F02E0912903E695E81BE0936A02A5
:101FC0008230C9F5F0E0EB54FC4FE491CE2FD0E025
:101FD00008EE1AE080916B02882389F010926B0260
:101FE0000E94BF259E0120953095820F931F9093EC
:101FF00069028093680210926D0210926C028091C7
:102000006802909169020E94D7258C179D0708F4F9
:102010006CC0E0916802F0916902CE0FDF1FD0938F
:102020006902C093680288E692E0F801DF91CF91DF
:102030001F910F910994863049F4F0E0EE54FC4F63
:10204000E491CE2FD0E00CEF1AE0C4CF893051F4E8
:10205000E695F0E0E155FC4FE491CE2FD0E006E3A9
:102060001CE0B8CF8F3051F4E695F0E0E455FC4F1A
:10207000E491CE2FD0E003E71CE0ACCF853149F4EA
:10208000F0E0E755FC4FE491CE2FD0E00DEE1CE0E0
:10209000A1CFC8E2D0E000E61DE0883109F49ACF74
:1020A000833239F4E7EAF3E0C591D4910CE01BE008
:1020B00091CFC4EFD1E000EF1DE0843209F48ACF64
:1020C000C0EDD7E00FEE19E0853209F083CF8E2FF7
:1020D00063E00E94AE2DE92FF0E0EC55FC4FE49157
:1020E000CE2FD0E00DE21EE075CFDF91CF911F9192
:1020F0000F910895FA01811101C0FB010994CF935A
:10210000DF93C82FD62F0E943C0A8C1740F00E9404
:102110003C0A8D1720F4DF91CF910C946F0F8C2F18
:10212000DF91CF910C947F0F0F931F93CF938C016E
:10213000FB01C281CC2309F465C00E943323827263
:10214000F801E25CFC45E431F10538F4EE5DF04D58
:102150000C94122E0E948A0FC0E08C2FCF911F91F9
:102160000F9108954CE75FE06FE67FE00E947A10E0
:10217000F3CF4FE65FE06CE77FE0F8CF44EF5BE042
:1021800067EE7BE0F3CF47EE5BE064EF7BE0EECF02
:1021900042E15CE063E07CE0E9CF43E05CE062E1E7
:1021A0007CE0E4CF40E35CE061E27CE0DFCF41E251
:1021B0005CE060E37CE0DACF4FE65AE068E57AE085
:1021C000D5CF48E55AE06FE67AE0D0CF81E00E94B3
:1021D0007F0FC2CF65E082E00E947F10BDCF68E034
:1021E00086E0FACF6EE089E0F7CF64E18FE0F4CFCC
:1021F00067E185E1F1CF88E1EACF62E289E1ECCFE6
:1022000083E2E5CFC1E0A9CF809182030C946724DB
:1022100080918203869586958695089580918203A4
:1022200081FD07C08260809382030E9467240C9422
:10223000911208958091820381FF07C08D7F809362
:1022400082030E9467240C949D120895809182035A
:1022500081FD0C941A110C940E11809182038695C5
:10226000817008958091170108950E94352481118D
:1022700002C00E94DB240E94632480938203803288
:1022800020F0877088618093820390918203892F68
:10229000817090FF04C0892F8695869586950C9451
:1022A000671280918203982F969596959695933014
:1022B00040F49F5F990F990F990F8770892B809336
:1022C0008203809182038160809382030E9467244D
:1022D000809182038695869586950C9467128091ED
:1022E0008203982F987F79F0885080938203887FAB
:1022F00091E009F490E08091820390FB80F9809353
:1023000082030E9467248091820386958695869534
:102310000C9467128091820380FD13C081608093CA
:102320008203813019F489E08093820380918203D3
:102330000E946724809182038695869586950C94E9
:10234000671208958091820380FF08C08E7F80937A
:1023500082030E94672480E00C94671208958091A4
:10236000820380FD0C94A2110C948A119091820337
:10237000892F8695869586958F5F8F7197708430AB
:10238000D8F4880F880F880F892B8093820380915F
:102390008203887F91E009F490E08091820390FBB2
:1023A00080F9809382030E9467248091820386953E
:1023B000869586950C94671290938203E8CF8430BB
:1023C00008F083E0909182039770282F220F220F4C
:1023D000220F922B90938203987F21E009F420E052
:1023E0009091820320FB90F9909382030C946712E2
:1023F0000E94DF11809182030C946724FC01DB01B1
:1024000012968C918823F9F0EB5BFC45E730F105DF
:10241000D8F4EA5CF04D0C94122E83E00E94F8117F
:1024200080E0089580E0FACF0E946F11F9CF0E94FA
:102430005111F6CF0E94AF11F3CF0E94B611F0CF29
:102440000E942611EDCF81E00895279A2F980895D4
:102450002F980895CF92DF92EF92FF928C3724E16C
:10246000920750F469E070E00E94C82DCB01FF9004
:10247000EF90DF90CF900895B0E0A0E0BC01CD01D7
:102480006A50774D8F4F9F4F982F872F762F662753
:1024900025EF38E241E050E00E94F02D69017A0119
:1024A000CA01B9010E949E2D9B01AC01C701B60172
:1024B0000E949E2D672F782F892F9927611571050E
:1024C00021E08207910591F66FEF7FEFCFCFCF9399
:1024D000C82F8430F0F481111DC080918000877F67
:1024E000809380000E9428122C2F30E0AFEFBFEFC6
:1024F0000E94272E23E030E040E050E00E94F02DC3
:10250000C9010E942A1290938D0080938C00CF9174
:102510000895C3E080918000886080938000E4CFBC
:102520000895109272021092710210927302EFE6F7
:10253000F0E08081816080830895EFE6F0E08081A3
:102540008E7F80830E9408110C9467121F920F9255
:102550000FB60F9211242F933F934F935F936F9376
:102560007F938F939F93AF93BF93CF93EF93FF93FB
:102570000E94321140917102509172024F5F5F4F81
:1025800094EF899F90011124CA01B9010E94C82DBE
:102590009093720280937102B901660F672F661FD4
:1025A000770B71950E94C82D6F77809173028230EE
:1025B00041F4603451F480916F008E7F80936F00FE
:1025C00004C0813011F46F37B1F3E62FF0E0E2542C
:1025D000FB4FC4910E940811282F41E051E0C49F95
:1025E000C001C59F900D112463E070E00E94C82DCA
:1025F000269FC001279F900D11240E942A129093BC
:102600008D0080938C00FF91EF91CF91BF91AF919E
:102610009F918F917F916F915F914F913F912F91FA
:102620000F900FBE0F901F9018950E9425128AE000
:102630008093800089E1809381008FEF9FEF9093DA
:102640008700809386000E9435110E942D11811110
:102650000C94911208956A9A4EB14B7F5EB154600A
:10266000EFB7F8949B01220F331F260F371F280F57
:10267000391F2817390741F4EFBF8FE594E0019720
:10268000F1F700C000000895DC016D91CD0178E004
:102690005EB9000000C067FF4EB9660F000000C0C1
:1026A00000C000C04EB900C07A9591F7E2CF82E237
:1026B00090E00E94B92E803289F483E290E00E947B
:1026C000B92E813159F484E290E00E94B92E91E054
:1026D000893109F090E0892F8170089580E0FCCF66
:1026E000CF93C82F6FEF811160E282E290E00E94E9
:1026F000CD2E6FEFC11161E183E290E00E94CD2EFB
:102700006FEFC11169E184E290E0CF910C94CD2E7E
:1027100080E00E9470130C942F24089585E290E0CD
:102720000E94B92E682F70E090E080E0089585E265
:1027300090E00C94CD2E0E948D130E9457138111AE
:102740000CC060E070E0CB010E9497130E949115CD
:102750000E947D1681E00C9470130895CF93FB01C5
:10276000C281CC2309F19C0122513F452031310522
:1027700020F582510E948D16C0E08C2FCF910895D4
:1027800081E00E94AE2143E062E081E00E949F056B
:10279000F3CF81E00E94CF2143E062E081E00E941C
:1027A0009F05EBCF82E0F6CF8031FFE59F0789F3ED
:1027B00081319F45B9F3C1E0E0CF8031EFE59E075D
:1027C000F9F281319F45C9F682E0DBCF2FEFFC01A2
:1027D00020830895CF93DF93EC018881893029F01D
:1027E0008A3079F0DF91CF9108950E9408112FEF80
:1027F000829FC001112463E070E00E94C82D6983AC
:10280000F1CF0E942D118983EDCFFC0180818930A9
:1028100019F08A3069F00895818123E0829FC00118
:1028200011246FEF70E00E94C82D862F0C94DF11E9
:102830008181811102C00C941A110C940E11CF9356
:10284000DF93EC0188818138A9F028F4803871F099
:10285000DF91CF910895823881F08338C9F70E94C3
:10286000870A89830E948A0A8A83F2CF0E948D0A8E
:102870008983EECF0E943C0AFBCF0E94720AF8CFF8
:10288000CF93DF93EC0188818138E1F028F4803820
:1028900069F0DF91CF910895823811F18338C9F73B
:1028A0000E948D0A482F6A81898108C0D9810E94BF
:1028B0008A0AC82F0E94870A4D2F6C2FDF91CF9173
:1028C0000C94330C89810E94910F8981811104C07D
:1028D000DF91CF910C94020FDF91CF910C94C70F31
:1028E0008981DF91CF910C94840ADF92EF92FF925D
:1028F0000F931F93CF93DF93EC01D62EDC01ED9164
:102900008D01E150E33108F0C9C0F0E0E35CF04D27
:102910000C94122E198289E08A836D2DCE01DF91ED
:10292000CF911F910F91FF90EF90DF900C94D126E3
:102930008981823069F0833071F08130D9F40E944E
:10294000CB250E94182E6A837B838C839D83E5CFE1
:102950000E948E13F6CF7E0110E0812F0E94200886
:10296000F701928383831F5FF2E0EF0EF11C1530B5
:10297000A1F7D3CF6D2DCE010E94E613CECF898172
:102980008230C1F76A817B818C819D810E94182EE3
:102990000E949713C2CF4B816A8189810E9463157F
:1029A0009827892798279D838C83B7CF2C813D81D9
:1029B0003227232732274B816A8189810E947C1527
:1029C000ACCF0E949115A9CFCD010E940514C8017A
:1029D0000E944014A2CFCD010E94EA13C8010E94B8
:1029E0001F149BCF0E9404110E94230A96CF0E94BD
:1029F0002616898392CF0E94281698278927982720
:102A00009A8389838ACF6B8170E089819A81AE0134
:102A10004C5F5F4F9827892798270E942B167DCF00
:102A20006B8170E089819A81AE014C5F5F4F98277E
:102A3000892798270E94521670CF0E947D166DCF6D
:102A40000E945115D6CF6B8170E089819A81AE01C9
:102A50004C5F5F4F9827892798270E94C9155DCF43
:102A60006B8170E089819A81AE014C5F5F4F98273E
:102A7000892798270E94EF1550CF0E9488134DCFC9
:102A80000E94D1262FEF81EE94E0215080409040AB
:102A9000E1F700C000000E940A263FCF8FEF888335
:102AA0003CCF84E0089550E0440F551F9EE1699F9C
:102AB000400D511D112496E9899F400D511D11248F
:102AC000CA01869608950F931F93CF93DF930E94B8
:102AD00053158C010E94B92EC82FD0E0DC2FCC27D3
:102AE000C80101960E94B92E9E01282BC901DF91D1
:102AF000CF911F910F9108950F931F93CF93DF9361
:102B0000122F032F0E945315EC01602F0E94CD2E2F
:102B1000612FCE010196DF91CF911F910F910C94FF
:102B2000CD2EAF92BF92CF92DF92EF92FF921F9382
:102B3000CF93DF938CEAC82E80E0D82ED0E07601C8
:102B4000C0E014C0F50125913491412F6C2F8D2FD9
:102B50000E947C1582E0A80EB11C1F5F1F3091F708
:102B60008EE1E80EF11CCF5FC53019F0570110E07F
:102B7000E9CFDF5F86E9C80ED11CD43001F7DF91C1
:102B8000CF911F91FF90EF90DF90CF90BF90AF90CB
:102B90000895EF92FF920F931F93CF93DF93EC0171
:102BA0008A017C01E60EF71ECE018696CE15DF0562
:102BB00039F4DF91CF911F910F91FF90EF9008951D
:102BC000C83522E0D20740F40E94B92EF801808374
:102BD0000F5F1F4F2196E8CFF8011082F9CFCF92F7
:102BE000DF92EF92FF920F931F93CF93DF937C01BD
:102BF0006A018C01060F171FEC01CE018696C017E3
:102C0000D10749F4DF91CF911F910F91FF90EF9081
:102C1000DF90CF900895C83522E0D20740F4FE013E
:102C2000EE19FF09EC0DFD1D60810E94CD2E21964D
:102C3000E4CF462F843038F4753028F46F3018F420
:102C4000672F0C94631590E080E0089580E108956B
:102C500082E891E00895EF92FF920F931F93CF9334
:102C6000DF93EC018A017C01E60EF71ECE0182584B
:102C70009D4FCE15DF0539F4DF91CF911F910F9154
:102C8000FF90EF900895C23821E0D20740F40E94EF
:102C9000B92EF80180830F5F1F4F2196E7CFF8010F
:102CA0001082F9CFCF92DF92EF92FF920F931F9392
:102CB000CF93DF937C016A018C01060F171FEC0193
:102CC000CE0182589D4FC017D10749F4DF91CF91B3
:102CD0001F910F91FF90EF90DF90CF900895C23831
:102CE00021E0D20740F4FE01EE19FF09EC0DFD1DB5
:102CF00060810E94CD2E2196E3CFCF93DF93CEE764
:102D0000D2E060E0CE010E94CD2E2196C11584E074
:102D1000D807B9F7DF91CF910895DF92EF92FF9234
:102D20000F931F93CF93DF9300D000D0CDB7DEB7C2
:102D3000F82E8FE08F1540F08FEF93E00E94B92EB0
:102D40000EE712E08823C1F00F900F900F900F90C4
:102D5000DF91CF911F910F91FF90EF90DF90089539
:102D6000011584E0180781F3C8010E94B92E811172
:102D700001C0FA940F5F1F4FF110F2CF19821A822F
:102D80001B821C82DD24D39478018FEFE81AF80AA5
:102D9000C8010E94B92E89831A828823A9F29FEF65
:102DA000980F933078F48A83D9820E5F1F4FC70142
:102DB0000E94B92E8B83882339F2CE0101960E949E
:102DC0004805E2CF8701F9CFAF92BF92CF92DF9251
:102DD000EF92FF920F931F93CF93DF937C015B01E0
:102DE000C42FD22FFC0182818823F9F04093760210
:102DF0000E94BF25909375028093740280E28C0F2D
:102E0000883008F061C0C77081E001C0880FCA95A2
:102E1000EAF7DF91CF911F910F91FF90EF90DF9034
:102E2000CF90BF90AF900C94461B10917602141374
:102E300040C080917402909175020E94D7256C0168
:102E4000B701C5010E942920C816D90690F5C0E235
:102E5000CD0F1D17B9F080E2810F883040F4177054
:102E600081E001C0880F1A95EAF70E944D1BC83017
:102E700048F481E09D2F977001C0880F9A95EAF77A
:102E80000E94461B802F0E94331BC830E8F4D77085
:102E900081E001C0880FDA95EAF7DF91CF911F91A9
:102EA0000F91FF90EF90DF90CF90BF90AF900C9478
:102EB0004D1B80E28C0F883038F4C77081E001C070
:102EC000880FCA95EAF7E9CFDF91CF911F910F9153
:102ED000FF90EF90DF90CF90BF90AF9008950F9349
:102EE0009C01CB01233F4CE5340759F1A8F4283D60
:102EF000FCE53F0701F1293D4CE53407D1F1273DC1
:102F00003C4591F406E221EE41EE67ED7CE50E943E
:102F1000E41680E00F910895253FFCE53F07E9F0B6
:102F2000B0F0263F3C45F9F0FC018281882339F15D
:102F300010927602EFCF07E225EE45EE68ED7CE5D4
:102F4000E6CF06E221EE40EE63EF7CE5E0CF07E25C
:102F500025EE44EE64EF7CE5DACF06E221EE42EEA8
:102F600065EF7CE5D4CF07E225EE46EE66EF7CE523
:102F7000CECF08E221E045EE69ED7CE5C8CF81E0E7
:102F8000C9CFCF93DF93EC01FB018281882309F441
:102F900019C1C230FCE5DF07C0F1C6319CE5D90795
:102FA00030F09E012A5F3C452930310570F50E94C2
:102FB00048249093880380938703C031ECE5DE07B3
:102FC00009F4CFC008F05BC0C8308CE5D80709F41D
:102FD000B6C088F5C430ECE5DE0709F4A8C0C0F43B
:102FE000C2308CE5D80709F49CC0809187038260C9
:102FF000C330DC4509F498C0809187039091880321
:103000000E9456240E94B31D80E0DF91CF91089565
:10301000809187038061C630ECE5DE0709F484C047
:10302000809187038860C730DC4508F47DC08091BB
:103030008703806279C0CC308CE5D80709F489C059
:1030400070F4809187038C60CA30ECE5DE0709F4E8
:103050006BC008F478C0809187038E7F65C0CE3046
:103060008CE5D80709F479C0809187038B7FCF3036
:10307000DC4508F459C0809187038F7E55C0CB3F53
:10308000ECE5DE0709F457C030F5C3318CE5D8070D
:1030900009F46FC078F4C131ECE5DE0709F465C0CE
:1030A000C231DC4509F0A8CF0E94B31D809187038F
:1030B0008F773AC0C5318CE5D80709F462C008F4AF
:1030C00076C0809188038160CA3FDC4509F094CFC7
:1030D0008093880391CFCF3FFCE5DF0709F44DC013
:1030E00088F4809188038D7FCD3F9CE5D90781F3DB
:1030F000809188038E7FCE3FDC4550F3809188031A
:103100008360E6CFC130FDE5DF0709F459C008F45C
:1031100044C080E0C230DD4509F06ECF0E94DD245E
:103120006BCF8091870381608093870365CF809107
:1031300087038460F9CF809188038260C9CF809132
:1031400087038064F1CF0E94B31D8091870380685C
:10315000EBCF809187038D7FE7CF80918703877FB7
:10316000E3CF809187038F7DDFCF809187038F7BB3
:10317000DBCF80918703837FD7CF809188038C7FBB
:10318000A7CF8091870382FB992790F921E09227AE
:1031900090FB82F990FB83F9C7CF80918803982F29
:1031A000909591708E7F892B90FB81F991CF0E9431
:1031B000B31D90918703892F97FB87F98058B4CF6F
:1031C00081E0ACCF81E021CFCF93DF93EB0186315B
:1031D0009C4511F50E9433239A81992399F08A7AAC
:1031E00091E009F490E090937702811109C089E29F
:1031F0000E940E230E947F2380E0DF91CF910895EB
:1032000085E3F6CF80917702811104C089E20E94A4
:103210001523F0CF85E3FBCF81E0EFCF90937D02C4
:1032200080937C020895E0917C02F0917D023097BA
:1032300021F00190F081E02D099480E00895E09163
:103240007C02F0917D02309721F00280F381E02D25
:103250000994089520917A0230917B02281739074A
:1032600071F090937B0280937A02E0917C02F0915E
:103270007D02309721F00680F781E02D09940895B2
:1032800020917802309179022817390771F09093D4
:10329000790280937802E0917C02F0917D02309770
:1032A00021F00084F185E02D0994089585B78068A8
:1032B00085BF85B7806885BF0895089508950C94EB
:1032C0005D1908950C9461190E9456190E945E19A7
:1032D0000C945F1981E008950C946A190E94B62538
:1032E0000E942E080E949B130E9444260E943511C2
:1032F0000E94940F0C9462199F92AF92BF92CF924A
:10330000DF92EF92FF920F931F93CF93DF93CDB78E
:10331000DEB72A970FB6F894DEBF0FBECDBF0E946E
:1033200096080E946C19882309F472C05FE7A52EE5
:1033300052E0B52E10E000E0902E802F0E94200871
:103340006C01F501E190F1905F01E816F90609F4CE
:1033500059C08091090381FD0E94290897012C25FD
:103360003D2580E0EE24E394F12CA9014E215F215C
:10337000452B09F441C08E839F82CE20DF2081E05F
:10338000CD2809F480E088870E94BF258160782FCE
:103390009A8789874E815F8168858A850E942B1A6A
:1033A000000F111FF801E158FD4F80819181E8263F
:1033B000F926F182E0820E94CF0F0E9490120E94B3
:1033C000131990917E028917A1F10E94131980931D
:1033D0007E022A960FB6F894DEBF0FBECDBFDF91F6
:1033E000CF911F910F91FF90EF90DF90CF90BF9002
:1033F000AF909F900C94C4058F5FEE0CFF1C8F3034
:1034000009F0B3CF0F5F1F4F0530110509F094CFBE
:103410008FEF89838A831B820E94BF258160782F6A
:103420009D838C8349815A816B818D810E942B1AE7
:10343000C2CF2A960FB6F894DEBF0FBECDBFDF9184
:10344000CF911F910F91FF90EF90DF90CF90BF90A1
:10345000AF909F900895CF93DF93CDB7DEB72B97B2
:103460000FB6F894DEBF0FBECDBF4F835887698774
:103470007A878B871E821D8285E0FE013796DE01EA
:10348000119601900D928A95E1F749815A816B81DD
:103490007C818D819E812B960FB6F894DEBF0FBE86
:1034A000CDBFDF91CF910C942C20FC0180819181C4
:1034B0000C94E022CF93C82F882309F483C082386C
:1034C000C1F40E94131981FD7DC089E30E940E237F
:1034D0000E947F232FEF81EE94E0215080409040A6
:1034E000E1F700C0000089E30E941523CF910C94FE
:1034F0007F238338A1F40E94131980FD63C083E504
:103500000E940E230E947F232FEF81EE94E0215032
:1035100080409040E1F700C0000083E5E5CF8438AB
:10352000A1F40E94131982FD4DC087E40E940E236E
:103530000E947F232FEF81EE94E021508040904045
:10354000E1F700C0000087E4CFCF8CEF8C0F813A09
:1035500090F46C2F80911801909119010E94F4242D
:10356000882329F08C2F0E9415230E947F238C2F03
:103570000E940E23BBCF80E28C0F883048F4C770C6
:1035800081E001C0880FCA95EAF70E943623AECFCA
:10359000EBE5EC0FE33040F4F0E0ED53FE4F8081BB
:1035A00090E0CF910C942A19C85AC73158F4EC2FE7
:1035B000F0E0EE0FFF1FEB56FE4F80819181CF911F
:1035C0000C944019CF910895882309F44BC0823898
:1035D00071F40E94131981FF45C089E30E940E23F4
:1035E0000E947F2389E30E9415230C947F23833854
:1035F00059F40E94131980FF35C083E50E940E2301
:103600000E947F2383E5EFCF843859F40E94131979
:1036100082FF28C087E40E940E230E947F2387E454
:10362000E2CF9CEF980F913AF0F290E2980F983029
:1036300050F4877091E001C0990F8A95EAF7892FBD
:103640000E943C23D2CF9BE5980F933020F490E06A
:1036500080E00C942A19885A873120F490E080E0A9
:103660000C9440190895CF93C82F0E945A1AC93359
:1036700049F42FEF87EE93E0215080409040E1F72E
:1036800000C000008C2FCF910C94E41A882321F005
:103690000E9436230C947F230895882321F00E94F2
:1036A0003C230C947F230895BF92CF92DF92EF9238
:1036B000FF920F931F93CF93DF936C01D62FC72FE9
:1036C000FC01058102950F70128111110E94532394
:1036D0000E942C23E82E882391F01123D1F08C2F07
:1036E000807F803421F080E28D0F883090F082E07E
:1036F0000E94CA230E942C2391E0E82EE926BC2ECA
:10370000B2949FE0B922EB2DF0E0E05BF04D0C9419
:10371000122EE12CF4CF0C2F0F70C07F11F0029508
:10372000007F1123A9F0002359F080E28D0F88302B
:1037300010F0D11109C0802F0E9436230E947F23F0
:103740008D2F0E945A1A14C0802F0E944623F6CF54
:103750008D2F0E94E41A002359F080E28D0F8830EB
:1037600010F0D1112CC0802F0E943C230E947F2397
:103770002B2D2850330B2430310520F40E941319CF
:103780000E94C405EE2009F493C10E94282380FD05
:103790008FC1F60112820E9422230E94AE21C6012F
:1037A0000E94791D0E942223DF91CF911F910F91DA
:1037B000FF90EF90DF90CF90BF900C94CF21802F9F
:1037C0000E944C23D3CFFC2FFF70FF2EC07FC0324E
:1037D00019F0F29480EFF822DD2369F0D13049F13D
:1037E000112391F1002351F1F601858180FFA8CFCB
:1037F0008F70858323C0112381F0011106C00E94C0
:1038000066238F290E94461BB3CF0130C1F70E9467
:1038100066238F290E946C23ABCF011106C00E9442
:1038200075238F2D0E944D1BA3CF013009F4A0CF2B
:10383000F6CF112329F0063008F09ACF8F2DE2CF72
:10384000053008F095CFEDCF002359F3D93349F473
:10385000FFEF27EE33E0F15020403040E1F700C0A9
:1038600000008D2F0E94E41A83CF8C2F86958695B9
:10387000837069F0813009F07BCF8D2F9C2F93707E
:10388000111102C090E080E00E94401971CF8D2F8D
:103890009C2F9370111102C090E080E00E942A19C1
:1038A00067CF8C2F837009F041C0111161CF4D2F6C
:1038B000429546954770440F440F0D2F0F7010E04E
:1038C00030E020E0042E04C0000F111F221F331F20
:1038D0000A94D2F760E070E0CB01D4FF0FC06FE034
:1038E00070E080E090E004C0660F771F881F991F8A
:1038F0004A95D2F76095709580959095C695C69536
:10390000C370602B712B822B932BC23049F058F47B
:10391000C13019F00E9462212BCF0E94502128CF84
:103920000E94742125CF0E944E2122CF869511231B
:1039300011F08C2F8170882309F41ACF4D2F4295F6
:1039400046954770440F440F0D2F0F7010E030E084
:1039500020E0042E04C0000F111F221F331F0A9401
:10396000D2F760E070E0CB01D4FF0FC06FE070E0F1
:1039700080E090E004C0660F771F881F991F4A956A
:10398000D2F76095709580959095C695C695C37051
:10399000602B712B822B932BC23049F058F4C1302D
:1039A00019F00E942522E4CE0E941322E1CE0E944B
:1039B0003722DECE0E948821DBCECF70112329F082
:1039C0008C2F0E94AE218D2F1DCF8D2F0E944D1B5D
:1039D0008C2F0E94CF21CCCED23F89F160F4D03F12
:1039E000C9F0D13F29F1112309F442C00111A8CE39
:1039F0008C2F8F7121C0D33F39F1D43FA1F7112310
:103A000069F1CF718C2F0E94AE2163E08C2F0E9450
:103A1000B523AECE112341F0053008F0A9CE8C2F8E
:103A20008F710E94F221A4CE063008F0A1CEF7CF0C
:103A30008C2F8F71112369F20E94AE2199CE8C2FA9
:103A40008F711123C9F3C5CF112329F08C2F8F71EA
:103A50000E9499218DCE0E9494218ACE81E00E94FD
:103A6000CA23023008F484CE82E00E94CA2380CEAA
:103A7000002359F0D93309F0F4CE8FEF97EEE3E04D
:103A800081509040E040E1F7EACE8C2F8F71A1CFBA
:103A90004C2F4F706D2FC6010E942A060E94C6202F
:103AA00067CE4C2F4F706D2FC6010E942D0660CE41
:103AB000DF91CF911F910F91FF90EF90DF90CF900A
:103AC000BF9008950F931F93CF93DF93EC0168810C
:103AD00079818A810E94EA228C010E9449220E94F7
:103AE0004D21B801CE01DF91CF911F910F910C9420
:103AF000541BCF93DF93EC018B819C81892B29F0A0
:103B00008881998189238F3F59F4DF91CF9108955E
:103B1000CE010E94621DCE01DF91CF910C948904E9
:103B2000CE010E94DC058111F3CF0E942C23882353
:103B300061F38A81882349F382E0DF91CF910C946D
:103B4000CA230E9453230E9463230E947F2390E094
:103B500080E00E942A1990E080E00C9440190E94B5
:103B60001C230C94A11D0E9443230C94AF1DE92F2C
:103B7000E295EF70E250EE3070F4F0E0E05AF04D74
:103B80000C94122E803F19F020F4883E20F481E03E
:103B90000895843FE1F380E00895883EC0F3813FBB
:103BA000D1F7F5CF93FB882780F908950E94E02292
:103BB0000C94B71DCF93DF9300D000D00F92CDB7F8
:103BC000DEB70F900F900F900F900F90DF91CF9175
:103BD0000895CF93DF9300D000D000D0CDB7DEB7EB
:103BE00026960FB6F894DEBF0FBECDBFDF91CF9102
:103BF00008951F93CF93DF93C0918A0216E08091BE
:103C00008B028C1304C0DF91CF911F910895D0E0F7
:103C10001C9FF0011D9FF00D1124E457FD4F4081C2
:103C2000518162817381848195810E94E91D219671
:103C3000C770E5CF4091BC025091BD026091BE02B9
:103C40007091BF028091C0029091C1020C94E91D55
:103C50001F93CF93DF938091C102807FA9F480915D
:103C6000BE02882389F080918A02C0918B02609104
:103C7000BC027091BD02A091BF02B091C002D62FCC
:103C8000D72316E0C81304C0DF91CF911F91089588
:103C900090E0109711F0DF3F19F401968770F2CF92
:103CA000189F9001199F300D1124F901E457FD4F21
:103CB00041814713F2CF40814613EFCF428141113A
:103CC000ECCF438154814A1B5B0B483C510528F7DC
:103CD0008091C1028F7080618093C102F901EF561B
:103CE000FD4F80818F70806180838CEB92E00E9419
:103CF000791DDF91CF911F910C94F91DAF92BF9266
:103D0000CF92DF92EF92FF920F931F93CF93DF93A7
:103D1000CDB7DEB761970FB6F894DEBF0FBECDBF4B
:103D20008C0185E0F801DE011D9601900D928A95C7
:103D3000E1F7F80140815181E2808CEBC82E82E0EE
:103D4000D82E6091BF027091C0026115710509F40F
:103D500061C19091BC022091BD02892F82238F3FC7
:103D600009F458C1A380B480F090BE02F501E61BAF
:103D7000F70BFF2009F4FCC08091C102382F307F7F
:103D8000E83CF10508F0B2C0311179C0FE2C2513D2
:103D900023C0941321C0E1101FC08F7080618093F5
:103DA000C1020E941A1EC6010E94791D8091C102A3
:103DB000F80185838F2D61960FB6F894DEBF0FBE94
:103DC000CDBFDF91CF911F910F91FF90EF90DF90CA
:103DD000CF90BF90AF900895AB2829F0842F852312
:103DE0008F3F09F033C180E0F82FF170DF2E80FFA4
:103DF0003CC080918A0220918B0236E0821315C06C
:103E00004D875E878D859E850E94E022292F229511
:103E10002F702230F0F0243018F59F70F1F0F80187
:103E20009581907FD1F4D12C1EC090E0389FF00195
:103E3000399FF00D1124E457FD4F6181651306C0D1
:103E40006081641303C062816E110FC00196877098
:103E5000D5CF9F7011F0882331F3805E883018F33E
:103E6000C8010E94791DFD2CA5CFEE2009F4A2CF38
:103E70008091C10281608093C102F12C9BCF2513F8
:103E800006C0941304C0F801EE2009F48DC04D87DC
:103E90005E878D859E850E94D61D882319F1EE20B0
:103EA00009F18091C102803270F02091BC02309102
:103EB000BD0238872F831986BB86AA868C87CE01E0
:103EC00007960E94791D86E0F801ACEBB2E0019004
:103ED0000D928A95E1F70E94281E0E941A1EFF2467
:103EE000F39468CFC8010E94791DF9CF311113C036
:103EF0007A2DB98AA88A6E2D89890E94DA1D8CEBE9
:103F000092E00E94791D86E0F60111928A95E9F708
:103F10000E941A1EB2CF25130FC094130DC0E110DA
:103F20000BC0F8018583C8010E94791D86E0F60167
:103F300011928A95E9F73ECF4D875E878D859E85E4
:103F40000E94D61D882371F2EE2061F28091C10299
:103F5000803208F4B8CF2091BC023091BD023A8380
:103F600029831B82BD82AC828E83CE010196A9CFAC
:103F7000E83CF10508F041C0FE2CEE2009F4B2CF78
:103F800025132AC0941328C08091C10280FD1BC054
:103F9000982F907FC1F0F8018583903F31F0982FE2
:103FA000907F905F8F70892B8583C8010E94791D57
:103FB00086E0F801ACEBB2E001900D928A95E1F752
:103FC0000E941A1EF7CE86E0F801ACEBB2E0019039
:103FD0000D928A95E1F7EECE4D875E878D859E85A1
:103FE0000E94D61D81116FCF8091C10281608093A4
:103FF000C102C8010E94791DDDCE7A2DB98AA88A36
:104000006E2D89890E94DA1D86E0F60111928A954B
:10401000E9F7D6CFEE2009F465CF4D875E878D8511
:104020009E850E94D61DF82E882309F45BCF86E07A
:10403000F801ACEBB2E001900D928A95E1F78CEBC0
:1040400092E00E94551A0E94281EBACF81E08E2568
:10405000CBCE88EC90E008951F93CF93DF93CDB73C
:10406000DEB72C970FB6F894DEBF0FBECDBF4F83DF
:10407000588769877A878B879C87CE0107960E942D
:104080007E1E882369F08A859B85892B39F04F81B4
:104090005885842F85238F3F09F071C016E05FC0DB
:1040A00086E0FE013796DE01119601900D928A9509
:1040B000E1F78A859B85892B89F38F8198858923F0
:1040C0008F3F61F320918B0230E0C9010196877028
:1040D000992740918A024817190671F40E94B31D6E
:1040E00010928B0210928A0286E0ECEBF2E0DF0184
:1040F0001D928A95E9F7D2CF96E0929FD001939FC7
:10410000B00D1124A457BD4FFE01319601900D92C0
:104110009A95E1F780938B020E94F91DBFCF819F92
:10412000C001112484579D4F0E947E1E8823E9F010
:10413000E0918A021E9FF0011124E457FD4F408157
:10414000518162817381848195810E94E91D8091F2
:104150008A0290E001968770992780938A02809165
:104160008A0290918B028913DACF2C960FB6F894BD
:10417000DEBF0FBECDBFDF91CF911F91089569853E
:104180007A858B859C850E94E91D88CFEF92FF92EE
:104190000F931F93CF93DF938C01892B81F0F12C28
:1041A000EE24E394E8012196F8018491843770F4B9
:1041B000843008F05FC08130B1F08230A1F1DF912E
:1041C000CF911F910F91FF90EF900895853709F4DB
:1041D0004CC008F43DC09CE7980F903780F78F776C
:1041E0000E94E41A49C00E5F1F4FFE01849190E2C5
:1041F000980F983060F48770FE2D01C0FF0F8A95EC
:10420000EAF78F2F0E9456230E947F2302C00E944C
:104210005A1A8F2D815030F2EFE9FFE03197F1F714
:1042200000C00000F7CF0E5F1F4FFE01849190E2A7
:10423000980F983050F48770FE2D01C0FF0F8A95BB
:10424000EAF78F2F0E945C23DFCF0E94E41AE1CFB0
:104250000E5F1F4FFE01C491C150D8F28FE99FE05D
:104260000197F1F700C00000F7CF0E5F1F4FFE016E
:10427000F490CFCF0E945A1A8E01CBCF08950C94A0
:104280003E210E943F216093F8027093F9028093CF
:10429000FA029093FB020C94A11D08950C94412105
:1042A0000F931F930091F8021091F9022091FA02E6
:1042B0003091FB02602B712B822B932B1F910F915E
:1042C0000C9441210F931F930091F8021091F90271
:1042D0002091FA023091FB02602371238223932301
:1042E0001F910F910C9441210F931F930091F8029D
:1042F0001091F9022091FA023091FB026027712798
:10430000822793271F910F910C9441210C941E0436
:104310000E9486216093F4027093F5028093F60266
:104320009093F7020C94A11D60E070E0CB010C9417
:1043300088210F931F9341E050E060E070E08A0114
:104340009B0104C0000F111F221F331F8A95D2F753
:10435000C901B8011F910F910C9488210F931F93ED
:1043600041E050E060E070E004C0440F551F661F5C
:10437000771F8A95D2F78091F4029091F502A0916F
:10438000F602B091F7028A019B01082B192B2A2B08
:104390003B2BC901B8011F910F910C9488210F93F9
:1043A0001F9341E050E060E070E004C0440F551FEF
:1043B000661F771F8A95D2F7CB01BA016095709579
:1043C000809590950091F4021091F5022091F602EB
:1043D0003091F70260237123822393231F910F9161
:1043E0000C9488210F931F9341E050E060E070E04F
:1043F00004C0440F551F661F771F8A95D2F780911E
:10440000F4029091F502A091F602B091F7028A01B0
:104410009B01082719272A273B27C901B8011F91AB
:104420000F910C9488210F931F930091F402109127
:10443000F5022091F6023091F702602B712B822B4E
:10444000932B1F910F910C9488210F931F93009130
:10445000F4021091F5022091F6023091F7026023E8
:104460007123822393231F910F910C9488210F9322
:104470001F930091F4021091F5022091F602309101
:10448000F70260277127822793271F910F910C94C1
:10449000882108952FE0929F800D1124982F977006
:1044A00041E001C0440F9A95EAF786958695869576
:1044B00095E0899FF0011124EE53FD4F90E080E0DC
:1044C00070E05191DF0111979B01082E02C03695D3
:1044D00027950A94E2F72170219525272423252783
:1044E0002C9301968530910561F708952FE0929FF6
:1044F000800D1124982F977086958695869525E0D6
:10450000829FF0011124EE53FD4F50E040E080E027
:10451000219130E0092E02C0369527950A94E2F7E2
:1045200021703327042E01C0220F0A94EAF7822B50
:104530004F5F5F4F4530510559F70895BF92CF92B5
:10454000DF92EF92FF920F931F93CF93DF938C0133
:10455000C090F402D090F502E090F602F090F702DD
:104560008091F8029091F902A091FA02B091FB02B9
:10457000C82AD92AEA2AFB2ACFE1D0E0BC2ED701EB
:10458000C6010C2E04C0B695A795979587950A94F9
:10459000D2F780FD0EC0219788F7B12C8B2DDF91CB
:1045A000CF911F910F91FF90EF90DF90CF90BF9030
:1045B0000895B8018C2F0E943606019761F3EECF63
:1045C000CF93DF93EC010E949E22BE01DF91CF9139
:1045D0000C9436061F93CF93DF93EB0190918902E1
:1045E000992331F0CB01DF91CF911F910C94E02200
:1045F000882379F0CB010E949E22182F682FCE01CC
:104600000E944A22BE01812FDF91CF911F910C940D
:104610003606CB010E947622182FF4CF682F8091A6
:104620001801909119010C942A25682F8091180186
:10463000909119010C942C258091180190911901E9
:104640000C942E258091FC0285958595859508957D
:104650008091FC02877008959091FC02977081E030
:1046600009F480E00895809108030895909108036B
:10467000892B8093080308958095909108039823CF
:1046800090930803089510920803089590910703EA
:10469000892B8093070308958095909107039823B1
:1046A00090930703089510920703089590910603CD
:1046B000892B809306030895809590910603982393
:1046C0009093060308951092060308958091FD02C9
:1046D000089508950C9469239091FD02981721F094
:1046E0008093FD020C946A2308958091FD02882333
:1046F00029F01092FD0280E00C946A230895E09165
:104700001801F0911901809108038083E09118014C
:10471000F0911901808190910703892B8083E091AA
:104720001801F0911901808190910603892B8083F3
:104730009091FD02992381F0E0911801F091190107
:104740008081892B808380911801909119010E94AA
:10475000E22481110E947523809118019091190122
:104760000C941F1908950C94B22398E0899F90012E
:104770001124622B6093FC020E94AE218091FC0206
:104780008595859585950C94B3231092FC0280E065
:104790000C94B3239091FC02809589238093FC02B2
:1047A000282F277071F4282F082E000C330B921736
:1047B000130639F08595859585950E94CF210C9437
:1047C000C5230895CF92DF92EF92FF926C01EE2401
:1047D000FF2420E0C114D104E104F10419F0C70161
:1047E000B60120E1C72ED82EE92EFF24C114D10432
:1047F000E104F10419F0285FC701B6016B017C01E7
:1048000054E0F694E794D794C7945A95D1F7C1141D
:10481000D104E104F10419F02C5FC701B6016B016A
:104820007C0142E0F694E794D794C7944A95D1F777
:10483000C114D104E104F10419F02E5FC701B601DF
:104840009695879577956795672B682B692B09F067
:104850002F5F822FFF90EF90DF90CF9008956FEF42
:104860007FEF90E080E00C94EB2E90E080E00E94DF
:10487000C72E21E08C3E9E4F09F020E0822F089544
:1048800082E090E00C94B92E83E090E00C94B92E75
:10489000CF9384E090E00E94B92EC82F81E290E08F
:1048A0000E94B92E982F8C2FCF910895CF93C92FA6
:1048B000682F84E090E00E94CD2E6C2F81E290E082
:1048C000CF910C94CD2E86E090E00C94B92E682FF9
:1048D00086E090E00C94CD2EAB01BC018FE090E01F
:1048E0000C94DF2EAB01BC0183E190E00C94DF2E31
:1048F00060E070E0CB010C94722460E070E0CB01CA
:104900000E946C240C9478246CEE7EEF90E080E0A2
:104910000E94EB2E60E082E090E00E94CD2E60E0ED
:1049200083E090E00E94CD2E1092F8021092F902DE
:104930001092FA021092FB0260E084E090E00E9484
:10494000CD2E60E081E290E00E94CD2E60E085E017
:1049500090E00E94CD2E60E086E090E00E94CD2E97
:104960006FEF87E090E00E94CD2E40E050E0BA016A
:1049700088E090E00E94DF2E60E08DE090E00E94F1
:10498000CD2E40E050E0BA0188E190E00E94DF2E99
:1049900060E087E190E00E94CD2E40E050E0BA0157
:1049A0008CE190E00E94DF2E60E080E290E00E94C7
:1049B000CD2E0C947D240C948424682F8EE090E0FE
:1049C0000C94CD2E9C012E5F3F4FAC01485F5F4F92
:1049D00080E02417350709F40895F90191919F01AA
:1049E0009923B9F38F5FF5CF662349F0FC01329626
:1049F00008962191261729F0E817F907D1F780E0EA
:104A0000089581E008959C01FC0132969FEF80E0BB
:104A10004191461751F09F3F19F4411101C0982F61
:104A20008F5F8630A9F79F3F09F40895290F311D44
:104A300097FD3A95F90162830895FC013296089634
:104A40002191261303C0DF0111971C92E817F90783
:104A5000B9F708950C9403250C941D25029626E0C1
:104A6000FC0111922A95E9F70895089508950C9490
:104A700036250E94372580918D03843061F1109294
:104A80000A0388E190E020E40FB6F894A89580939B
:104A900060000FBE2093600080E00E94671280E0FB
:104AA0000E94C4050E94372583B7817F846083BF3D
:104AB00083B7816083BF7894889583B78E7F83BFE7
:104AC0000FB6F894A895809160008861809360008B
:104AD000109260000FBE08950895CF930E9435256F
:104AE0000E9496080E946C25C0E08C2F0E9420082E
:104AF000892B31F4CF5FC530C1F780E0CF910895A5
:104B000081E0FCCF08950C9482250E94B31D0E9481
:104B100035110E9413190E94C4050C9483251F921D
:104B20001FB61F9211248F939F93AF93BF938091D1
:104B30000A03811113C08091830390918403A09193
:104B40008503B09186034196A11DB11D8093830317
:104B500090938403A0938503B0938603BF91AF9194
:104B60009F918F911F901FBE1F90189582E084BD6A
:104B700093E095BD9AEF97BD80936E0008952FB78F
:104B8000F8948091830390918403A0918503B09160
:104B900086032FBF08952FB7F89460918303709117
:104BA000840380918503909186032FBF08959C0113
:104BB0004FB7F8948091830390918403A09185036B
:104BC000B09186034FBF821B930B089578941F9278
:104BD0001FB61F9211248F939F93AF93BF93809121
:104BE000830390918403A0918503B091860301967D
:104BF000A11DB11D8093830390938403A09385032B
:104C0000B0938603BF91AF919F918F911F901FBE6C
:104C10001F90189581E08093E00080E28093D80097
:104C20001092C9008FE19EE40197F1F700C00000E7
:104C300087E090EBDC018093960390939703A09319
:104C40009803B093990388E19CE00FB6F894A89577
:104C5000809360000FBE90936000FFCF0C94881388
:104C60000E9496088FE39CE90197F1F700C00000CD
:104C70000E94960880E00E94200880FF04C00E94E5
:104C80002E260C940A2608950E943524811102C014
:104C90000E94DB240E944024809309030E94482440
:104CA00090938803809387030E944424682F70E0C8
:104CB00090E080E00E944E216091F4027091F50234
:104CC0008091F6029091F7020C9486218091130353
:104CD00008950895CF93DF9300D00F92CDB7DEB73C
:104CE00090918D03943011F589837B836A8390932F
:104CF000E9008FEF9091E800815095FD06C095ED99
:104D00009A95F1F700008111F5CF8091E80085FFB9
:104D10000DC050E040E063E070E0CE0101960E94DB
:104D2000BE288091E8008E778093E8000F900F9066
:104D30000F90DF91CF910895BC0184E00C946A2616
:104D4000BC0183E00C946A26CF93DF93EC0181E0F1
:104D50008093E9008FEF9091E800815095FD06C0A7
:104D600095ED9A95F1F700008111F5CF8091E8005B
:104D700085FF14C050E040E068E070E0CE010E9482
:104D8000BE288091E8008E778093E80088E0FE01DD
:104D9000ABE0B3E001900D928A95E1F7DF91CF91FE
:104DA0000895CF93FC01603221F580918D0384300A
:104DB00001F5C091E900CF702091EC00922F917025
:104DC00020FD90E8C92B82E08093E9008091E80003
:104DD00080FF0CC050E040E060E270E0CF010E9434
:104DE000BE288091E8008E778093E800CF70C09352
:104DF000E900CF91089580918C03811109C00E9430
:104E00009D2A0E94FA2A8091E20084608093E20049
:104E1000089510928C030895089508950C948525A3
:104E200042E061EC81E00E94192A42E261EC84E0F8
:104E30000E94192A42E261EC82E00E94192A42E2B1
:104E400060EC83E00C94192A80918F03833009F47D
:104E500061C030F48130D1F1823009F49DC00895F1
:104E60008A3009F489C08B3009F46FC0893009F0A9
:104E700050C080918E03813209F04BC08091920323
:104E800090919303009719F0029709F042C0809126
:104E9000E800877F8093E8008091E80082FF35C0BA
:104EA0009091F3008091F200029729F48091F10033
:104EB0008B7F813021F48091F100809313038091E6
:104EC000E8008B778093E8000C944D2A80918E0344
:104ED000813AF9F48091E800877F8093E80080911F
:104EE000920390919303892B61F468E08BE093E047
:104EF00070E00E945C298091E8008B778093E80045
:104F0000089560E090E080E0F3CF80918D038111FF
:104F1000C3CF089580918E03813AD9F7809192038F
:104F200090919303892BA9F78091E800877F809364
:104F3000E8008091E80080FFFCCF809124018093FD
:104F4000F1008091E8008E77BDCF80918E03813291
:104F500001F78091920390919303892BD1F6809170
:104F6000E800877F8093E8000E944D2A809190039B
:104F7000809324010C94B31D80918E03813249F6F5
:104F80008091E800877F8093E8000E944D2A8091FD
:104F9000910380931403089580918E03813A09F060
:104FA000B8CF8091E800877F8093E8008091E80087
:104FB00080FFFCCF80911403C2CFCDB7DEB7A0979E
:104FC0000FB6F894DEBF0FBECDBF84B7877F84BF16
:104FD0000FB6F894A8958091600088618093600076
:104FE000109260000FBE80E890E00FB6F8948093B6
:104FF0006100909361000FBE0E9464190E949D2A77
:105000000E94FA2A8091E20084608093E200789402
:105010000E94832D0E946E198AE191E00E940E1970
:1050200013E080918D03853039F10E947C198091C5
:105030008D038430B1F71093E9008091E80082FF7E
:10504000F0CF8091E80090E085FF09C050E040E09B
:1050500060E270E0CE0101960E940D2991E08091FE
:10506000E8008B778093E8009923D9F260E2CE01C3
:1050700001960E947514D5CF0E94392580918B032B
:10508000882379F20E946D25882359F20E94A8286E
:10509000C8CF0C944B28292F33272330310521F119
:1050A00068F42130310509F449C02230310509F492
:1050B0004AC090E080E030E020E029C02132310594
:1050C00081F122323105A9F76330710590F7FB01B8
:1050D000EE0FFF1FE753FE4F208131816A537E4F51
:1050E000FB01808190E013C099278130910599F0F0
:1050F000009741F08230910589F00397D1F6EEE3F5
:10510000F6E002C0E4E8F6E0849190E09F01FA0145
:10511000318320830895EEE6F6E0F6CFE4E4F6E08E
:10512000F3CF6330710528F6660F771FFB01E1535B
:10513000FE4F2081318189E090E0E9CF82E190E06B
:1051400023EE36E0E4CF8BE590E028E836E0DFCFD1
:1051500080E189BD82E189BD09B400FEFDCF809167
:10516000D8008F7D8093D8008091E000826080938A
:10517000E0008091E00081FDFCCF0895AF92BF92E6
:10518000CF92DF92FF920F931F93CF93DF936C0127
:10519000EB018A010E946C2AF82E811123C00115AF
:1051A000110539F0F80180819181C81BD90BC80E17
:1051B000D91EB12CA12C2097A9F08091E80085FD83
:1051C00022C08091E8008E778093E80001151105D8
:1051D000A1F0F80180819181A80EB91EB182A08250
:1051E00085E0F82E8F2DDF91CF911F910F91FF90C9
:1051F000DF90CF90BF90AF9008950E946C2A8823D3
:10520000D1F2F82EEFCFF60181916F018093F1007A
:105210002197FFEFAF1ABF0ACECFAF92BF92CF92C6
:10522000DF92FF920F931F93CF93DF936C01EB01FB
:105230008A010E946C2AF82E811123C001151105E4
:1052400039F0F80180819181C81BD90BC80ED91E95
:10525000B12CA12C2097A9F08091E80085FD22C0F7
:105260008091E8008B778093E80001151105A1F08B
:10527000F80180819181A80EB91EB182A08285E0DB
:10528000F82E8F2DDF91CF911F910F91FF90DF901E
:10529000CF90BF90AF9008950E946C2A8823D1F2DE
:1052A000F82EEFCF8091F100F60181936F012197E5
:1052B000FFEFAF1ABF0ACECFFC018091940390910B
:1052C000950386179707A0F06115710529F4909151
:1052D000E8009E779093E80090E06115710551F425
:1052E000911108C08091E80082FF34C080E00895E9
:1052F000BC01F2CF80918D038823C1F18530C1F1CB
:105300008091E80083FD30C08091E80082FDEACF03
:105310008091E80080FFE1CF8091F3002091F200BE
:10532000382F6115710519F02830310558F091E0DA
:105330002830310509F090E02091E8002E77209385
:10534000E800CBCF81918093F100615071092F5F0C
:105350003F4FE7CF80918D03882341F0853041F0A6
:105360008091E80083FFBECF81E0089582E0089538
:1053700083E00895FC018091940390919503861732
:105380009707A0F06115710529F48091E8008E77E8
:105390008093E80090E06115710551F4911108C007
:1053A0008091E80082FF35C080E00895BC01F2CF13
:1053B00080918D038823C9F18530C9F18091E8007F
:1053C00083FD31C08091E80082FDEACF8091E80042
:1053D00080FFE1CF8091F3002091F200382F61151A
:1053E000710519F02830310558F091E02830310569
:1053F00009F090E08091E8008E778093E800CBCFB1
:1054000084918093F1003196615071092F5F3F4F75
:10541000E6CF80918D03882341F0853041F0809163
:10542000E80083FFBDCF81E0089582E0089583E026
:105430000895982F973028F08F708093E90081E0CD
:1054400008959093E900242F762F50E0981731F0BB
:105450007091EC002091ED005091F00021FD02C010
:105460009F5FE8CF3091EB003E7F3093EB003091AF
:10547000ED003D7F3093ED003091EB0031603093D3
:10548000EB007093EC002093ED005093F00020911E
:10549000EE0027FDE5CF80E0089580918E0387FF21
:1054A00013C08091E80082FF06C08091E8008B77EE
:1054B0008093E80004C080918D038111F2CF08959C
:1054C00080918D038823D9F38091E80080FFF8CF85
:1054D0008091E8008E77ECCF2091E4003091E500D8
:1054E00095E6A9012091EC00822F817020FF06C073
:1054F0008091E80080FF06C080E008952091E800D8
:1055000022FD1AC080918D03882389F0853089F0AF
:105510008091EB0085FD0FC02091E4003091E50003
:1055200042175307F9F29150E1F684E0089582E0C2
:10553000089583E0089581E008950E940B2B0E9456
:10554000132BE0EEF0E0808181608083E8EDF0E0F5
:1055500080818F77808319BCA7EDB0E08C918E7F1E
:105560008C9380818F7E808310928C0308950F939B
:105570001F93CF93DF930E940B2B0E94132BC8ED38
:10558000D0E088818F77888388818068888388814C
:105590008F7D888319BC10928D031092890310921D
:1055A0008B0310928A0300EE10E0F80180818B7F5C
:1055B000808388818160888342E060E080E00E948F
:1055C000192AE1EEF0E080818E7F8083E2EEF0E048
:1055D000808181608083808188608083F801808100
:1055E0008E7F8083888180618883DF91CF911F9136
:1055F0000F910895E8EDF0E080818F7E8083E7EDE4
:10560000F0E080818160808384E082BF81E08093CC
:105610008C030C94B72AE8EDF0E080818E7F8083C4
:105620001092E20008951092DA001092E1000895BD
:105630001F920F920FB60F9211242F933F934F9307
:105640005F936F937F938F939F93AF93BF93EF93EA
:10565000FF938091E10082FF0BC08091E20082FF06
:1056600007C08091E1008B7F8093E1000E94822D32
:105670008091DA0080FF19C08091D80080FF15C0AA
:105680008091DA008E7F8093DA008091D90080FFCC
:1056900096C080E189BD82E189BD09B400FEFDCFDD
:1056A00081E080938D030E94FB268091E10080FFC2
:1056B00019C08091E20080FF15C08091E2008E7FCA
:1056C0008093E2008091E20080618093E20080910B
:1056D000D80080628093D80019BC85E080938D0348
:1056E0000E940D278091E10084FF2BC08091E20091
:1056F00084FF27C080E189BD82E189BD89B5982FEB
:10570000917080FFFBCF8091D8008F7D8093D8006F
:105710008091E1008F7E8093E1008091E2008F7E96
:105720008093E2008091E20081608093E2008091AA
:105730008903882309F449C084E080938D030E9483
:105740000E278091E10083FF29C08091E20083FF52
:1057500025C08091E100877F8093E10082E0809303
:105760008D03109289038091E1008E7F8093E10088
:105770008091E2008E7F8093E2008091E200806160
:105780008093E20042E060E080E00E94192A80916C
:10579000F00088608093F0000E940C27FF91EF9149
:1057A000BF91AF919F918F917F916F915F914F9139
:1057B0003F912F910F900FBE0F901F90189519BC1D
:1057C00010928D030E94092770CF8091E30087FD1E
:1057D00093E090938D03B3CF1F920F920FB60F9269
:1057E00011242F933F934F935F936F937F938F93E6
:1057F0009F93AF93BF93CF93DF93EF93FF93D0919A
:10580000E900DF708091EC00C82FC17080FDC0E816
:105810001092E9008091F000877F8093F0007894E7
:105820000E94302C1092E9008091F00088608093F3
:10583000F000CD2BCF70C093E900FF91EF91DF9185
:10584000CF91BF91AF919F918F917F916F915F9118
:105850004F913F912F910F900FBE0F901F90189571
:105860001F93CF93DF93CDB7DEB7AA970FB6F89407
:10587000DEBF0FBECDBF8EE893E02091F100FC01AA
:105880002193CF01F3E086399F07B9F70E942427BF
:105890008091E80083FF1EC180918E0390918F0359
:1058A0009A3008F017C1E92FF0E0E259F04D0C945E
:1058B000122E803899F0823809F00CC18091920341
:1058C0008F70873008F006C18093E9008091EB006B
:1058D00085FB882780F91092E90006C080918A0331
:1058E00090918B03911182609091E800977F909343
:1058F000E8008093F1001092F1008091E8008E772B
:10590000E5C0882309F4D3C0823009F0E3C0809158
:1059100090038111D6C0809192038F702FEF280FD2
:10592000263008F0D7C08093E9002091EB0020FFDB
:10593000C8C0933031F48091EB0080628093EB001B
:10594000C0C09091EB0090619093EB0021E030E0BB
:1059500001C0220F8A95EAF72093EA001092EA002C
:105960008091EB008860EACF8111B4C01091900360
:105970001F778091E3008078812B8093E3008091F2
:10598000E800877F8093E8000E944D2A8091E8001C
:1059900080FFFCCF8091E30080688093E30082E089
:1059A000111183E080938D0395C08058823008F0F8
:1059B00091C080919003909191038C3D23E09207D8
:1059C000A1F583E08A838AE289834FB7F894DE01E8
:1059D000139620E03EE051E2E32FF0E050935700B1
:1059E000E49120FF03C0E295EF703F5FEF708E2FD0
:1059F00090E0EA30C0F0C7968D939D932F5F2431DD
:105A000059F74FBF8091E800877F8093E8006AE2F2
:105A100070E0CE0101960E945C298091E8008B77AE
:105A20008093E80057C0C096E7CF609192037091D1
:105A30009303AE014F5F5F4F0E944928BC01892B41
:105A400009F448C09091E800977F9093E80089811D
:105A50009A810E94BA29E1CF8038E1F58091E8006F
:105A6000877F8093E800809189038093F10045CF80
:105A7000811130C090919003923060F58091E800E0
:105A8000877F8093E800909389030E944D2A80913C
:105A90008903882311F084E005C08091E30087FD2D
:105AA000FACF81E080938D030E94102713C080916C
:105AB0009003813079F481E0933009F080E08093A5
:105AC0008B031092E9008091E800877F8093E800C3
:105AD0000E944D2A8091E80083FF0AC08091E8006F
