:020000040800F2
:1020000000040020392200083B2200083B2200087F
:102010003B2200083B2200083B2200083B2200082C
:102020003B2200083B2200083B220008477D0008B5
:102030003B2200083B2200083B220008CF8A000810
:102040003B2200083B2200083B2200083B220008FC
:102050003B2200083B2200083B2200083B220008EC
:102060003B2200083B2200083B2200083B220008DC
:102070003B2200083B2200083B2200083B220008CC
:102080003B2200083B2200083B2200083B220008BC
:10209000E98C00083B2200083B2200083B22000894
:1020A0003B2200083B2200083B2200083B2200089C
:1020B0003B2200083B220008918C00083B220008CC
:1020C0003B2200083B2200083B2200083B2200087C
:1020D0003B2200083B2200083B2200083B2200086C
:1020E0003B2200083B2200083B2200083B2200085C
:1020F0003B2200083B2200083B2200083B2200084C
:102100003B2200083B2200083B2200083B2200083B
:102110003B2200083B2200083B2200083B2200082B
:102120003B2200083B2200083B2200083B2200081B
:102130003B2200083B2200083B2200083B2200080B
:102140003B2200083B2200083B2200083B220008FB
:102150003B2200083B2200083B2200083B220008EB
:1021600072B6274880F30888264880F309882648F5
:102170004EF60851CEF200010860022080F3148868
:10218000BFF36F8F05F0B2FB05F07FF94FF05530CC
:102190001E491B4A91423CBF41F8040BFAE71C4917
:1021A000184A91423CBF41F8040BFAE719491A4A10
:1021B0001A4B9A423EBF51F8040B42F8040BF8E761
:1021C00000201749174A91423CBF41F8040BFAE737
:1021D00005F090FB05F08BFB134C144DAC4203DA79
:1021E00054F8041B8847F9E702F0E0F8104C114D51
:1021F000AC4203DA54F8041B8847F9E705F078BBD2
:1022000000040020000C0020002000080000002036
:102210000004002078A80008000C0020180F0020FF
:10222000180F0020C018002060210008602100085D
:10223000602100086021000892E700F000F8FEE746
:102240002DE9F04FC1F80CD0C3689D46BDE8F08F72
:10225000002383F311882846A047002005F0F8FCEE
:10226000FEE705F0B0FC00DFFEE7000053B94AB915
:10227000002908BF00281CBF4FF0FF314FF0FF308E
:1022800000F00CB8ADF1080C6DE904CE07F023F8AE
:10229000DDF804E0DDE9022304B07047704700BFB9
:1022A000032A70B412D940EA0105AD0704460B4673
:1022B00020D11946204653F8045B54F8046BAE4213
:1022C00018D1043A032A20461946F2D8541E72B196
:1022D00003780A789A4208BF241806D00CE010F858
:1022E000013F11F8012F934206D1A042F7D10020FF
:1022F00070BC7047541EEBE7981A70BC704700BF63
:10230000844641EA000313F0030349D1403A23D342
:102310000B6803604B6843608B688360CB68C36065
:102320000B6903614B6943618B698361CB69C3614D
:102330000B6A03624B6A43628B6A8362CB6AC36235
:102340000B6B03634B6B43638B6B8363CB6BC3631D
:1023500040304031403ADBD230320BD30B6803605F
:102360004B6843608B688360CB68C360103010316A
:10237000103AF3D20C3205D351F8043B40F8043B39
:10238000043AF9D2043208D0D2071CBF11F8013B3D
:1023900000F8013B01D30B8803806046704700BF03
:1023A000082A13D38B07B1D010F00303AED0C3F1CA
:1023B0000403D21ADB071CBF11F8013B00F8013BF4
:1023C000A4D331F8023B20F8023B9FE7043AD9D36B
:1023D000013A11F8013B00F8013BF9D20B78037088
:1023E0004B7843708B78837060467047F0B48607F3
:1023F00046D0541E002A3CD0CAB2034602E014F173
:10240000FF3436D303F8012B9D07F8D1032C29D9CB
:10241000CDB245EA05250F2C45EA054533D9A4F18F
:102420001006360903F1200707EB061703F1100227
:1024300042E9045542E902551032BA42F8D1721C01
:1024400014F00C0F03EB021204F00F0613D0331F2D
:1024500023F003030433134442F8045B9342FBD19B
:1024600006F003042CB1C9B21C4403F8011B9C42C2
:10247000FBD1F0BC704734461346002CF3D1F8E78B
:1024800014460346C2E71A462646E0E70120704795
:102490000120704708B5FFF7FBFF08BD704708B57E
:1024A000FFF7FCFF08BD000013B502AB03E9030012
:1024B0000F4B1B78B3B99DF8023073B16AB100F0CD
:1024C0001FFE04460146009800F0D6FD2046009904
:1024D00002B0BDE8104004F07CB8009800F0F0FDB8
:1024E0000446F3E7009800F00BFE0099F0E700BF08
:1024F000180F0020034610B400885C880A4640EAA2
:102500000440998810BCFFF7CFBF0120704710B579
:1025100004460021FFF7EEFF2146FFF7C0FF10BD84
:1025200010B5012404FA01F104FA02F20A43D1B20F
:1025300002408A4204FA03F406BF2043C0B2A0431B
:1025400010BD000008B513460A460146034800784E
:10255000FFF7E6FFBDE8084000F03CBD1A0F002081
:1025600008B501F0ABFD00F073F903F047FABDE8E0
:10257000084001F0C4BD01F0C7BD704708B500F0C8
:10258000B3FCFFF7FAFF46F2A81005F066FBBDE8C2
:10259000084004F085BB000038B501210546FFF76F
:1025A000A9FF2946044603F0AEFA08B9002038BD59
:1025B00029462046FFF76EFF0028F7D0294620461F
:1025C00003F066F90028F1D02946204604F00AF904
:1025D0000028EBD02946204603F0AAFB0028E5D0CE
:1025E0002946204604F07CF80028DFD0AB787BB188
:1025F00045F65A539C4232D00ED845F601439C42D0
:1026000018D045F6DE439C4226D0B4F5B84F0ED024
:102610002846FFF73BFFCAE745F65B539C4221D0B3
:1026200045F65C539C42F3D101F0D8F9F0E7FFF78F
:10263000A5FFBBE70D4A1078C0F3000383F0010348
:1026400063F3000010F00104107003D0084802F09A
:10265000DBF9ABE70748FAE701F068FAA6E701F013
:10266000C9F9D5E701F0C9F9D2E700BFC60F0020CC
:102670004E9900085F99000808B5002003F086F91C
:10268000BDE80840002000F007B9704708B5FFF723
:10269000FCFF08BD08B502F0E3FF04F003F900F009
:1026A000FBF8FFF7F3FF08BDF8B5174B1749C20851
:1026B0001F5C174B8D5C17499B5C00F007008E5C1C
:1026C0000341054113F0010446FA00F005F001054D
:1026D00000F0010602D0E12000F012F915B1E62069
:1026E00000F00EF9384600F0A2F915B1E62000F02E
:1026F00057F914B1E12000F053F926B1BDE8F840D4
:102700002C2000F094B9F8BD919900087199000847
:10271000119A0008819900082DE9F04104460E46FF
:102720004FF00A08214F207800283DD0012838D1E9
:102730006378012B0ED1A078A51C00F078F92C4607
:1027400035460134002DEED06420013D05F085FAB8
:10275000EDB2F7E7022B04D1A078A51C00F0D0F869
:10276000EDE7032B04D1A078A51C00F019F9E6E7EA
:10277000042B01D00134E3E72246002512F8023F82
:10278000D95D1446490706D4002DD9D0642005F040
:1027900064FA013DF8E7303B08FB053512F8013FCC
:1027A000EEE7FFF781FFCBE7BDE8F0817D950008FC
:1027B0000021FFF7B1BF030943EA0013DBB2980021
:1027C0009B1003F0330300F0CC001843430040108B
:1027D00003F0AA0300F0550018437047024608B5FD
:1027E000C0B2FFF7E8FF0146100AFFF7E4FF40EA36
:1027F000012080B208BD704708B5FFF7FCFF08BD97
:102800000120704710B5C4B2FFF7FAFFC8B1E34327
:102810004FF40041DAB213F0010F0A4B14BF1961F3
:1028200059614FF40071084B12F0020F14BF196187
:10283000596112F0040F4FF40042044B14BF1A61A7
:102840005A6110BD00100140000C01400008014019
:1028500038B54FF400440F4D062228464FF400418E
:1028600006F0ECF8A5F58065C5F810440622284668
:102870004FF4007106F0E2F84FF40073A5F580659F
:10288000C5F8103406222146284606F0D7F82C61F8
:1028900038BD00BF0010014010B50446FFF7ACFF83
:1028A0002046FFF7AFFF10BD30B587B06C4684E817
:1028B00003009DF80230BDF804500BB100F0B8FFE2
:1028C0000023ADF8163094E8030004AC0490ADF892
:1028D000141094E8030002904DB14FF6FF73BDF859
:1028E00008209A4203D02046FFF70FFE18B194E863
:1028F000030000F0D3FE07B030BD008800F020BC1C
:1029000010B50446002845D0031FDBB2A02B15D814
:1029100003F08EFD00283DD11F4B2146186804F0BE
:1029200053F820B1204600F02FFF00F0C7FF2046EB
:1029300000F022FFBDE8104000F0C0BF00F120030E
:10294000DBB2072B07D800F007040120A040C0B27B
:1029500000F048FFEEE700F15B03DBB2022B05D885
:10296000BDE81040243880B203F0F0BF00F15803F6
:10297000DBB2162B06D8BDE81040084A32F8130027
:1029800003F0F4BFEF2805D902F0C0F8BDE810400D
:1029900002F090B910BD00BF040C0020229A00087C
:1029A00008B590B3021FD2B2A02A05D800F0ECFE01
:1029B000BDE8084000F082BF00F12002D2B2072A31
:1029C00007D800F0070301209840C0B200F012FFC2
:1029D000EEE700F15B02D2B2022A04D8BDE808405B
:1029E000002003F0B3BF00F15802D2B2162A04D877
:1029F000BDE80840002003F0B9BFEF2805D902F078
:102A0000E3F8BDE8084002F055B908BD38B5054601
:102A10000C46FFF775FF24B92846BDE83840FFF79C
:102A2000BFBF6420013C05F018F9A4B2F3E73928D0
:102A30000CBF50210021FFF7E9BF08B528B100F015
:102A4000D1FEBDE8084000F039BF08BD08B528B187
:102A500000F0D0FEBDE8084000F030BF08BD000027
:102A60002DE9F047877981460C46857800F0AAFE6B
:102A70003F098046C8B1A846BDB1C4F3072303F09F
:102A8000F003402B04D004F12003DBB2072B23D941
:102A9000A54B5B7858071FD4022000F05FFF00F0C1
:102AA00091FE80F001085FFA88F8C4F3033ABAF1A6
:102AB0000F0F41D8DFE81AF0130013006200620024
:102AC000C300DB0040004000E50046015501550110
:102AD000AC0140004000B5014FF00008E5E7C4F349
:102AE0000723C4F3032613F0F00F18BF3601E4B236
:102AF00085B156B104F12003DBB2072B304600D973
:102B00002CB900F06FFE00F0D9FE20465CE000F02A
:102B10007FFEF8E72046FFF743FF6EB104F1200384
:102B2000DBB2072B304600D914B900F063FE01E098
:102B300000F076FE00F0C2FEAAF1080ABAF1030F17
:102B400003D803F0AFFEFFF7A7FEB8F1000F00F0C7
:102B50006F8100F02FFE10F0010040F0698189F8CC
:102B6000020000F01FFE00F04BFA484600F076F934
:102B700000F018FEBDE8F04700F04EBAC4F307239A
:102B800003F0F003C4F30326202BE4B218BF360190
:102B900074B1012C3ED0002D44D0002F3DD099F8C7
:102BA0000630DA07B1D56FF3071389F8063034E041
:102BB0005D4B5B78590711D54DB126B1304600F019
:102BC00011FE00F07BFE0020FFF79AFEB4E72846D6
:102BD000FFF7E6FE002EAFD03046A6E785B137B945
:102BE00000F042FE3043C0B2FFF727FFA4E7012FF9
:102BF000F6D100F039FE3043C0B200F041FE9BE751
:102C00002FB900F04FFE3046FFF720FF94E7012F69
:102C100092D0F6E71DB1052F8ED83046E4E7042F99
:102C20008AD8F0E7002FEED0392C0CBF4FF4FA50C1
:102C3000012005F012F82046FFF7B2FE7CE714F4FD
:102C4000406FC4F3812308D0012B7FF475AF65B1C9
:102C5000C4F3090003F08AFE6EE725B1C4F309004E
:102C600003F074FE68E72846FAE72846F2E7E0B288
:102C700025B101F04BFF02F01DF85DE701F0A4FF64
:102C8000F9E714F4407F29D1002D7FF455AFC4F348
:102C900042108000C2B204F00F0014F0100300FADA
:102CA00002F0C5B21EBF0F209040C043C4F3812480
:102CB00018BFC3B2022C43EA050009D0032C0AD086
:102CC000012C02D000F070F936E700F065F933E727
:102CD00000F072F930E700F05CF92DE7C4F301224F
:102CE00025B312F0010F3FF427AFC4F34210800068
:102CF000C2B204F00F0014F0100300FA02F0C5B2E3
:102D00001EBF0F209040C043C4F3812418BFC3B23C
:102D1000022C43EA05000FD0032C10D0012C08D060
:102D200000F098F908E700BFDC16002012F0020F4F
:102D3000D9E700F087F9FFE600F094F9FCE600F02F
:102D400049F9F9E6E6B2C4F303241DB1204600F0C8
:102D500057F962E73046FFF779FE204600F05CF94C
:102D6000EAE6E6B2A6F1F003042B3DD8DFE803F073
:102D700003220E151E003DB1042F3FF6DDAEC4F355
:102D8000042000F053F9D7E6052FF6E7C4F304203A
:102D9000002DE3D100F034F9CEE625B1C4F30420D0
:102DA00000F027F9C8E600F021F9C5E6214B5B7871
:102DB0005B0704D5C4F30420002DCFD0EAE74DB162
:102DC000C4F30424204600F01BF90321204600F040
:102DD000A1FDB1E6012000F0C1FD012F7FF6ACAEF0
:102DE000022000F0BBFDA7E62DB10FB13046EBE6A7
:102DF000C4F30420CEE747B1392E0CBF4FF4FA508C
:102E0000012004F02AFF304616E7C4F30420A5E7AA
:102E1000C4F30322E1B2484600F06EFF00F0C0F9AF
:102E20008AE64846C4F30322E1B200F067FF83E676
:102E3000BDE8F087DC16002038B5018804468078AC
:102E400000F08AF9054600F015F900F0A1F82946CE
:102E50002046BDE83840FFF703BE000013B5044626
:102E6000014606226846FFF74BFAA388F3B14FF6F6
:102E7000FF73BDF800209A4218D02046FFF78CFB64
:102E800070B900F09FFC88B1A3787BB1084B5B78E8
:102E90005B070BD4022002B0BDE8104000F05EBD1D
:102EA0002046FFF7C9FF2046FFF731FB02B010BDF7
:102EB000DC16002008B5002003F048FD002003F0D8
:102EC00055FD00F0B5FC00F0C9FC00F0F7FC02F085
:102ED00027F8BDE8084001F0EDBE08B500F05CFC45
:102EE000BDE80840FFF7E6BF08B500F08BFCBDE881
:102EF0000840FFF7F2BF0346C3F30332023AC0B201
:102F00000D2A1CD8DFE802F007071B1B141B1B1B34
:102F10000707181B1B18F02813D004D8E7288CBF0C
:102F2000002001207047F42814BF002001207047C2
:102F3000E72806D9F128F7E7C3F3C020704700203F
:102F400070470120704708B5008800F0F9F8BDE827
:102F50000840FFF7D0BF82B002AB03E9030002B024
:102F6000704782B002AB03E9030002B070477047BC
:102F700008B5FFF7FCFF08BD08B5FFF7F9FF034BE5
:102F80001870BDE80840FFF795BF00BF190F00207B
:102F90007047FFF7F1BF0000024B1B781843FFF7A3
:102FA000EBBF00BF190F0020024B1B781840FFF742
:102FB000E3BF00BF190F0020024B1B785840FFF7FA
:102FC000DBBF00BF190F0020704708B5FFF7FCFFFB
:102FD00008BD000008B5FFF7F8FF034B1870BDE807
:102FE0000840FFF767BF00BF1A0F00200020FFF75F
:102FF000F1BF012303FA00F0C0B2FFF7EBBF0000FE
:10300000012303FA00F0034B1B781843C0B2FFF70B
:10301000E1BF00BF1A0F00200123034A834010784C
:1030200020EA0300FFF7D6BF1A0F0020012303FA9E
:1030300000F0034B1B785840C0B2FFF7CBBF00BF76
:103040001A0F0020024B1B781843FFF7C3BF00BFC5
:103050001A0F0020024B1B781840FFF7BBBF00BFC0
:103060001A0F0020024B1B785840FFF7B3BF00BF78
:103070001A0F00207047000037B501220024C0F36A
:103080000723C3EB0313184400F007039A40C0F36F
:10309000C4000A4B00EB4000D2B21844057821FA74
:1030A00004F343F300036B40134001346B40032CE3
:1030B00000F8013BF2D103B030BD00BF1B0F002070
:1030C0000022C0F30723C3EB031313B518440B49C5
:1030D00000F00704C0F3C40000EB400001441046B8
:1030E00011F8013BE34003F0010393400132184320
:1030F000032AC0B2F4D102B010BD00BF1B0F0020E4
:1031000073B507240C4BADF804001E780B4B1B78ED
:103110001E4346FA04F3DB07E5B205D4013CF8D2BE
:103120000025284602B070BD2846019900F0BAFE7D
:1031300080B20128F2D0F4E71A0F0020190F002006
:1031400007B5ADF804000198FFF7DAFF019903B065
:103150005DF804EB00F0A6BE13B5104BADF80410FB
:103160001B782BB1019802B0BDE81040FFF7E8BF13
:1031700070B10198FFF7C4FF044601460198FFF7BC
:103180007BFF2046019902B0BDE8104000F08ABEE6
:103190000198FFF795FF0446F3E700BF180F0020E2
:1031A000F8B5034660B1002501261C4614F8010B52
:1031B00074283CD00BD802282AD002D8012812D07B
:1031C000F8BD031F6F2BFBD8FFF79AFB1AE0752899
:1031D00037D000F17C03DBB26F2BF1D800F07F0019
:1031E000FFF7DEFB0EE09C1C5B7803F12002D2B2FD
:1031F000072A0BD803F007039840C0B200F01EFB6B
:1032000000F05CFB2F46FFB92346CEE71846DBE70C
:1032100058789C1C00F12003DBB2072BE0D800F0AB
:10322000070006FA00F0C0B200F010FBE8E75F7894
:103230009C1C002FE6D06420013F04F00EFDFFB27D
:10324000F7E75D789C1CDDE76420013F04F005FD95
:10325000FFB2D8E7F8B50C4B0C4E1C780C4D337808
:10326000A34200D1F8BD05EBC40335F834005F88F4
:103270009A88D98840EA074042EA01410134FFF7C1
:1032800070FE04F00704EAE7890F0020880F002091
:10329000480F0020064B10B418885C889A88D9889B
:1032A00040EA044042EA014110BCFFF75ABE00BFA9
:1032B000400F0020F7B5234CA37913F0F00F08D18D
:1032C000A37833B1204B214F1D78214E3B78AB4280
:1032D00001D103B0F0BD214606226846FFF710F881
:1032E000A18851B34FF6FF73BDF800209A4224D055
:1032F00006EBC50360785A7890421ED1207816F804
:103300003520904219D19A78BAB99A88521A11493F
:1033100092B20988914210D90121A279094861F33A
:103320000712A2719A7961F307129A71FFF796FD5D
:1033300003B0BDE8F040FFF78DBF013505F007058C
:10334000C4E700BF400F0020890F0020880F002035
:10335000480F0020000C00202DE9F04F044687B0F4
:10336000AE4D0146062202A8FEF7CAFF06222946F4
:1033700004A894F800B094F801A0A778B4F80480E9
:10338000FEF7BEFFAB88002B00F001814FF6FF7106
:10339000BDF810208A4200F0FA80AE78002E00F0CE
:1033A000F6809F49A8EB0302098895F8069092B22F
:1033B000914209F0F00940F2B5800622294604A89E
:1033C000B9F1000F71D1FEF79BFF4FF6FF71BDF809
:1033D0001020B9468A4214D02188914211D187B970
:1033E0000122AB7962F30713AB71FFF753FF284655
:1033F000FFF734FDAB79A3710026304607B0BDE876
:10340000F08F8DF808B08DF809A08DF810B08DF808
:1034100011A0B8F1000F23D04FF6FF72BDF81010C5
:1034200091421DD0F7B97F497F4A0D7812787F49C4
:10343000AA421CD10298FFF783FEC0F30332012A8F
:10344000C3B224D90E3202F00F02012A28D810F498
:10345000706F21D0A27912F0F00F1DD14E46CCE74B
:10346000002FC9D0AB7943F00103AB71C4E701EB86
:10347000C2004778574506D111F832705F4502D136
:1034800080780028B8D1013202F00702D0E710F4AA
:10349000706F01D0002BE1D02033DBB2072BDDD9D8
:1034A0002046FFF7DBFCB146D8E7FEF729FF4FF6D1
:1034B000FF72BDF81030934210D022889A420DD18D
:1034C00067B9AB792046A371FFF7C8FC08222146F3
:1034D0002846FEF715FFFFF7DDFE8EE72046FFF7D3
:1034E00032FDD8B1D7B1AB791F2B0CD92A8804A8EB
:1034F000ADF810200022ADF814808DF812208DF860
:103500001630FFF7ABFC082221464448FEF7F8FED0
:10351000FFF7D0FEFFF7BEFE01266EE72046FFF75D
:103520009DFCF9E7B9F1000F15D102AB8DF808B099
:103530008DF809A08DF80A7093E80300FFF70BFDE2
:103540002846FFF78BFC082249462846FEF74EFF27
:10355000FFF7A0FE82E70622294604A8FEF7D0FE68
:103560004FF6FF72BDF810309342B7D02A882388F7
:103570009A42B3D1002FB1D1AB792046A371FFF7A6
:103580006DFC082239462846FEF730FF35E7062253
:10359000224904A80193FEF7B3FE019B002B66D0DD
:1035A0004FF6FF79BDF810204A4560D0AE78002E66
:1035B0005DD11B4AA8EB030812881FFA88F8424520
:1035C00044D93E46002FA9D00622144904A8FEF78C
:1035D00097FEBDF810304B452AD02A8823889A429E
:1035E00026D1AB79DA0713D413F0F00210D0F02A09
:1035F000A37106D0DBB2C3F30312013262F30713E7
:10360000A3712046FFF72AFC08222146034860E701
:10361000082221460148FEF773FEEEE6400F002027
:10362000000C0020880F0020890F0020480F002088
:103630002046FFF788FC00287FF465AFAB79204671
:1036400043F00103AB71FFF709FCD6E68DF808B033
:103650008DF809A08DF80A7002AB93E80300FFF71C
:103660007AFC082231460C48FEF7C0FE33E7002FF3
:103670003FF454AF2046FFF766FC064600283FF4AF
:103680004DAF082221460448FEF73AFE0248FFF7F4
:1036900034F9FFF70FFE1EE7400F0020F0B587B0AA
:1036A0006C4684E803002046FFF756FE2E4F064680
:1036B000BDF804202D4D78B194E803000490ADF8D6
:1036C00014103AB14FF6FF73BDF810209A4201D0A2
:1036D000FFF747FC264C41E004AB94E8030083E885
:1036E00003000290002AF5D04FF6FF71BDF80840A4
:1036F00038788C422A78EDD0441C04F007049442B8
:103700000AD019461A4B082203EBC000FEF7F8FD59
:103710003C70FFF79FFDDDE7FFF7E6FB082231462F
:1037200014483E702E70FEF761FED3E704EBC00034
:10373000FFF712FEB0B12B7834F8330004EBC3036B
:103740005E889A88D98840EA064042EA0141FFF73C
:1037500008FC2B78013303F007032B7028783B78A3
:103760008342E3D107B0F0BD880F0020890F00200D
:10377000480F0020400F0020024B0146186803F05C
:10378000A7B900BF040C0020024B0146186803F0E3
:10379000B7B900BF040C0020014B186803F0C8B98A
:1037A000040C0020024B93F90000C0F3C7007047DF
:1037B000AB0F0020024B187800F00700704700BFE5
:1037C000AB0F0020034B187810F0070018BF012042
:1037D000704700BFAB0F0020014B1878704700BF47
:1037E000AD0F0020024B1A7810431870704700BFCD
:1037F000AD0F0020024A137823EA000313707047CC
:10380000AD0F00200022014B1A707047AD0F002051
:10381000024B1A7810431870704700BFAE0F00209B
:10382000024A137823EA000313707047AE0F00209A
:103830000022014B1A707047AE0F0020024B1A781D
:1038400010431870704700BFAA0F0020024A137877
:1038500023EA000313707047AA0F00200022014BD7
:103860001A707047AA0F0020014B1878704700BFEC
:10387000AC0F0020704708B5FFF7FCFF08BD000043
:10388000064A08B55278520706D4054A1178814293
:1038900002D01070FFF7EFFF08BD00BFDC1600205C
:1038A000AC0F002008B5044B1A781AB1002018702C
:1038B000FFF7E1FF08BD00BFAC0F002010B50D4BB6
:1038C0000D4A1B7812780D4C13430D4A206812786C
:1038D00013430C4A0370127832B11343037003F0A0
:1038E00055F808B1FFF7DEFF2068BDE8104002F090
:1038F000E1BF00BFAD0F0020AE0F0020040C002080
:10390000AA0F0020AC0F0020704708B5FFF7FCFF9E
:1039100008BD00000A4A10B5527852070CD4094C71
:1039200041EAC0012170FFF76BFB94F90000C0F37E
:10393000C700FFF7EAFF10BDBDE81040FFF760BB0E
:10394000DC160020AB0F0020002008B5024B1870D9
:10395000FFF7DBFF08BD00BFAB0F002008B50C4A26
:1039600092F9003023EA000040B2107042070ED1F5
:10397000DBB283420BD0074B5B785B0707D4C0F305
:10398000C700FFF749FBBDE80840FFF7DDBF08BDF2
:10399000AB0F0020DC1600200D4A10B5537804460A
:1039A000C3F38001814212D060F382035370108808
:1039B00000F050F80220FFF7D1FF064B1B78DB0721
:1039C00005D52146BDE81040034801F01DB810BDE3
:1039D000DC160020C60F0020509A0008044B5878CF
:1039E000C0F3800080F0010000F00100FFF7D4BFB9
:1039F000DC1600200120FFF7CFBF0020FFF7CCBF6F
:103A000008B501F0ABFCBDE808404FF6FF7100209F
:103A100001F0F8BA08B5002001F0A7FA4FF6E96303
:103A2000984203D1BDE8084002F01AB8002008BD52
:103A3000022001F08BBA032001F088BA10B50420EF
:103A400001F084FA0446222001F080FA44EA0020C2
:103A500080B210BD10B50446C1B2042001F0C4FA12
:103A6000210A2220BDE8104001F0BEBA01460F2015
:103A700001F0D6BA0146132001F0D2BA0020FFF7B8
:103A8000F9BF08B50020FFF7F1FFFFF7F7FF08BD0A
:103A900010B5002401F062FC4FF6E961002001F04E
:103AA000B1FA0021022001F09FFA0021032001F069
:103AB0009BFA1D4B214604201C7001F095FA21460B
:103AC000222001F091FA2146052001F08DFA2146CD
:103AD000062001F089FAFF21072001F085FA21462E
:103AE000082001F09DFA21460D2001F07DFA2146C3
:103AF000182001F095FA2146172001F075FA2146A9
:103B00001C2001F08DFA2146202001F07BFA21468D
:103B1000182001F085FA204601F0B7FF01F0D8FF28
:103B2000FFF7AFFF10BD00BF190F0020FFF7B0BFB8
:103B300001460E2001F058BA08B503F081F8024B97
:103B40001860024B186008BDB00F0020B40F0020B1
:103B50007047704708B5FFF7FCFF08BD704708B510
:103B6000FFF7FCFF08BD000008B5054800F07EFA2D
:103B700001F0F2FBFFF7ECFFFFF7ECFF08BD00BF21
:103B8000D97300080120704708B5FFF7FBFF08BD97
:103B90007047704708B5FFF7FBFFFFF7FAFF08BD56
:103BA00008B503F04BF801F0A3FF00F081FB01F032
:103BB00057FDFFF7D4FF08BD38B50E4D04462B78EE
:103BC000580711D5D9070FD50B4800F01DFF2B78EA
:103BD000DA0709D52146094800F016FF2B78DB07E4
:103BE00002D5074800F010FF2046BDE83840FEF738
:103BF00053BE00BFC60F0020659A0008789A0008DF
:103C0000519B00082DE9F74F00F06CFB08B1FFF75E
:103C100093FFDFF8D8A000255646DFF8D480EFB236
:103C2000384600F075FA3AF8024B8146844243D098
:103C300098F800309B0701D500F070FA84EA090477
:103C4000A3B20022012423425FFA82FB2FD0FFF7A8
:103C50009BFFA8B119EA040F14BF012300238DF8BC
:103C600000B08DF802308DF8017003F007F840F0D5
:103C70000100ADF8040002AB13E90300FEF714FEE7
:103C800036F815305C4026F8154001F0A9FE01F029
:103C900085F802F007FE174C2378834222D002F009
:103CA00001FE207003B0BDE8F04FFFF785BF013281
:103CB00064000F2AA4B2C6D10135062DAFD14FF64C
:103CC000FF73ADF8003000238DF8023002F0D6FF0C
:103CD00040F00100ADF8040002AB13E90300FEF769
:103CE000E3FDD2E703B0BDE8F08F00BFBA0F0020BC
:103CF000C60F0020B80F002000207047704700005A
:103D0000014B33F810007047AC9A000810B500F072
:103D1000D5F8B0F5A04F044630D2B0F5804F80F012
:103D20008980DF2812D8BF2878D8A7280AD8A428E5
:103D300068D8012804D0031F9BB2A12B28BF002400
:103D4000204610BDBF2861D10024F9E7B0F5005F1F
:103D50000BD2FF28F4D8E728F2D9A0F1F0039BB2E8
:103D60000F2BF1D840F4A04027E0B0F5405F5BD3C3
:103D70000205C3B25BD443F44044E1E7B0F5AA4F77
:103D80001DD2B0F5A84FC3B272D2B0F5A64F0AD279
:103D9000B0F5A44F63D2B0F5A24F50D34AF2F10070
:103DA00040EA0324CCE701209C0803F0030300FA57
:103DB00003F343EA441040F40A4084B2C0E7B0F58C
:103DC000B44F0FD2B0F5B24F5ED2B0F5AC4F52D374
:103DD000A0F5B0439BB2FF2BB6D84AF2F00040EA00
:103DE0000420EAE7A0F5C0439BB2B3F5005FABD275
:103DF000C0F3042000F0E2F8000200F4F850E4B24E
:103E000020433EE0243840F48040D6E7244B583429
:103E1000E4B233F8140040F4884491E7C03880B22B
:103E2000FFF76EFF04468BE7C0F30B00F8E743F49F
:103E3000484485E7C0F30B0040F4204480E7C0F31A
:103E40000114C3F38100400140EA0420012403F07F
:103E5000030304FA03F3184340F40C40ADE70120D8
:103E60009C0803F0030300FA03F343EA4410F3E76A
:103E70004AF2F40094E7C0B200F0A0F8000200F4A7
:103E8000F85040F400545BE700F00F0000F096F8A3
:103E9000C4F3031440EA042040F410408DE700BF4F
:103EA0007E9A000807B5ADF80410019902F091FB65
:103EB00003B05DF804EBFFF729BF0000E7284DD8F9
:103EC000DF2807D8312861D00ED8292857D02A28D2
:103ED00063D07047A0F1E003072B3FD8DFE803F081
:103EE000123E2126303E3A3F392804D0822802D0A3
:103EF00035283DD07047304B1B7813F0030F18BFA7
:103F0000E02070472C4A1378D9074DD4527812F02C
:103F1000010F23D013F0100F08BFE32018BF0020BB
:103F20007047254B1B7813F0040FF2E7224A1378F1
:103F300059073BD45278D2073AD413F0100FEDE76B
:103F40001D4B5A78910709D51B7813F0100F08BF45
:103F5000E720E3E7184B1B781A07F6D47047164A98
:103F60001378190726D452789207E6D5E420F5E7AE
:103F7000114B1B7813F0200F18BF292070470E4BF0
:103F80001B7813F0200F18BF352070470A4B1B78A1
:103F900013F0400F18BF2A207047074B1B7813F00F
:103FA000400F18BF3120704739207047E22070471A
:103FB000E0207047E6207047DC160020294A13787D
:103FC000590707D500F01801082927D100F0F7009C
:103FD00040F00400190707D500F01801182926D170
:103FE00000F0E70040F014005278D10707D500F048
:103FF0001801082924D100F0F70040F001009207D1
:1040000007D500F01802182A23D100F0E70040F08D
:104010001100DB0648BF00F0E700704700F0140114
:10402000042904BF00F0FB0040F00800D2E700F0D4
:104030001401142904BF00F0EB0040F01800D3E78E
:1040400000F01101012904BF00F0FE0040F008005B
:10405000D5E700F01102112A04BF00F0EE0040F095
:104060001800D6E7DC16002000207047014B1860CE
:10407000704700BF080C0020014B1B68184700BFA9
:10408000080C0020FFF7BCBC08B500F02BF940F687
:10409000B83003F0E2FD00F025F9012000F038F817
:1040A000430405D5FFF7EEFFBDE8084002F0F8BD78
:1040B00008BD08B5FFF7E8FF08BD000008B5FFF729
:1040C000A9FC08B9FFF732FDFFF7B2FC084B1870E6
:1040D000FFF7B4FC074B1880FFF7EBFFFFF7ABFCD3
:1040E000FEF757FF044B1878BDE80840FEF76DBF98
:1040F000C60F0020DC1600201A0F0020704708B5FC
:10410000FFF7FCFF08BD704708B5FFF7FCFF08BDCF
:10411000014B33F810007047EA1600202DE9F041FA
:104120000F4800F071FC00240E4DDFF83C800F4F6B
:104130000F4E2146404600F067FC384600F064FC14
:1041400035F8020BFEF74AFB0146304600F05CFCF6
:104150000134084800F058FC062CEAD1BDE8F08193
:10416000AC9A0008EA160020789A0008759A0008B0
:10417000C39A0008519B0008032003F06EBD00BFE6
:1041800000BF00BF00BF00BF00BF00BF00BF00BF37
:1041900000BF00BF00BF00BF00BF00BF00BF00BF27
:1041A00000BF704708B5FFF7E7FF08BD08B520233B
:1041B00083F31188012100F00F039940032220F0BE
:1041C0000F0004F03BFC002383F3118808BD0000BE
:1041D00038B506240B4D55F8040B421C01D0FFF7EF
:1041E000E5FF013C14F0FF04F5D10F24064D55F80E
:1041F000040B431C01D0FFF7D9FF013C14F0FF046E
:10420000F5D138BD089B0008CC9A00082DE9F84389
:10421000254F064657F821400D46631C40D020220A
:1042200082F311884FF0010824F00F0904F00F0405
:1042300008FA04F421460622484604F0FFFBC9F8B8
:104240001440002484F31188FFF799FF0F2243469E
:10425000DFF858C05CF8041B481C23D021F00F0085
:10426000806801F00F0120FA01F111F0010F0CBF7D
:1042700019460021013A0C435B0012F0FF02A4B280
:104280009BB2E7D157F82500431C01D0FFF78EFF02
:10429000211E18BF01212846FFF784FF26F815408C
:1042A000BDE8F8830021E5E7089B0008CC9A0008E8
:1042B00010B50C24FFF78CFF224600210748FEF7BB
:1042C00095F8224600210648FEF790F8062000F0F7
:1042D00033F8BDE81040FEF743B900BFEA160020EE
:1042E000DE1600201FB50024019402940394E1B26D
:1042F00001A80134FFF78AFF062CF8D10C220C48E4
:1043000001A9FDF7CDFF002814BF0124002404D02B
:104310000C22074801A9FDF7F3FF234606220549B1
:10432000034800F00BF8FEF726F9204604B010BD54
:10433000DE160020EA16002070470000F8B5064699
:104340000F4615460E4C2BB10123237002F078FC6A
:104350000C4B186023782BB10A4B186802F09AFCBA
:1043600004280AD8F8BD36F8132027F813200133A3
:104370009D42F8DC00232370F4E70023F8E700BF38
:10438000C70F0020C80F002008B503F08FF8FFF713
:1043900007FCBDE8084003F0A3B808B503F0A6F891
:1043A000FFF730FCBDE8084003F0C6B808B502F0DE
:1043B000FDFB03F078F8FFF7D7FBFFF7E5FFFFF70A
:1043C000ECFFFFF7E7FBFAE770472DE9F04F8BB002
:1043D000149C1646DDE918521F46019088469DF848
:1043E000543016980CB922F0100212F4806B00D0F1
:1043F00014B312F0200F14BF4FF041094FF06109C0
:10440000A44600240DF1080AA9F10A09BCFBF0FE3C
:1044100000FB1ECE5FFA8EF1BEF1090F94BF303162
:104420004944C9B284450AF8011B04F10104BCFBEC
:10443000F0F101D3202C0ED112F0020A1FD102F0AC
:1044400001012DB121B113B912F00C0F00D0013DC3
:104450004FF0300C08E08C46D8E7202C08D00DF146
:10446000080E0EF804C00134DDF85CE0A645F4D86F
:104470004FF0300C19B1A54201D91F2C40D9D106FB
:1044800020D5BBF1000F42D1002C40D01799A1429A
:1044900001D0AC423BD1611E38D0102841D1023C42
:1044A000910640D41F2C16D878200AA9214401F87F
:1044B000200C01341F2C0ED830200AA9214401F809
:1044C000200C01341F2C06D89BB32D200AAB1919E0
:1044D00001F8200C013493074BD0B146A144484663
:1044E000A9EB0402002C48D1BAF1000F05D0A9EBCA
:1044F0000609A94506EB090048D30BB0BDE8F08FCB
:104500000DF1080E0EF804C00134B3E70C46102874
:10451000C6D00228CED11F2CDDD80AA962202144A2
:10452000C5E70C46F5E71F2CD5D80AA95820214429
:10453000BDE7500703D50AAB2B201919C8E71107AF
:10454000C9D50AAB20201919C2E73B4641462020B5
:10455000DDF804C0E04709F101094D450BEB090204
:10456000F3D8A5EB0409A54238BF4FF00009B144C8
:10457000B4E7A146A6EB040BEFE7013C02A83B46DB
:104580004146005DDDF804C0E047A8E702463B462F
:1045900041462020019CA04709F10109A9E708B183
:1045A000FFF76ABD704700002DE9F04FB1F1000937
:1045B0008DB00693AF4B18BF034690460025169E5C
:1045C0000793069B187878B9454538BF2A46434675
:1045D00049464FF00000079C28BF08F1FF32A04772
:1045E00028460DB0BDE8F08F069B252803F1010396
:1045F000069307D02A466C1C4346079D4946A847A8
:104600002546DEE7002206E02D2B14D0302B0CD1FE
:1046100042F001020690069810F8013B2B2B0DD0BA
:10462000F2D8202B0DD0232B0ED0A3F13004092C6F
:1046300028D8002710E042F00202EBE742F0040223
:10464000E8E742F00802E5E742F01002E2E70A215B
:1046500001FB07370690303F069810F8013BA3F1A5
:104660003004092CF3D9069B1B782E2B4BD1069BCB
:1046700042F48062581C5B78A3F13004092C39D8CD
:10468000002411E02A2B08D156F8047B0690002F55
:10469000BCBF42F002027F42E5E70027E3E70A21C0
:1046A000604601FB0434303C84461CF8013BA3F116
:1046B000300EBEF1090FF2D9034613F801CBBCF15D
:1046C0006C0F29D022D8BCF1680F2ED0BCF16A0F34
:1046D00036D0034613F8010B782806938AD8612850
:1046E00031D8252886D0582884D142F020024FF0B6
:1046F000100C6FE02A2B07D156F8044B069824EAD9
:10470000E4740230D8E706980024D5E7BCF17A0FAC
:10471000DFD142F48072DDE790F801C0BCF16C0F8C
:10472000F7D142F44072831CD4E790F801C0BCF189
:10473000680F02D042F08002CCE742F0C002F2E7FC
:1047400042F40072C6E7A0F16203162B3FF652AFA7
:1047500001A151F823F000BFB547000881480008C7
:10476000B5470008F5450008F5450008F54500087F
:10477000F5450008B5470008F5450008F54500086F
:10478000F5450008F5450008F5450008B54700085F
:10479000D1490008F5450008F54500080149000821
:1047A000F5450008B5470008F5450008F54500083F
:1047B000B547000878289AD06F2800F01E8162283B
:1047C00000F01E8169284FF00A0C22F0100203D07D
:1047D000642801D022F00C02510548BF22F00102EA
:1047E000692802F4007301D0642826D1002B7FF4DD
:1047F000E8AED30506F1040A15D533680592002BFF
:104800004FEAD37204970394CDF808C00192B8BF61
:104810005B422A460093494643460798FFF7D5FD79
:1048200056460546CDE612F0400F336801D0DBB2A4
:10483000E4E7160648BF1BB2E0E7002B7FF4C1AEE9
:10484000D00506F1040A07D5059204970394CDF824
:1048500008C001933368DCE712F0400F33680BD0D7
:10486000DBB20592002204970394CDF808C00192B0
:10487000CFE700BFC9430008110648BF9BB2F0E76D
:1048800012F0020427D04FF0010A56F8040B2A4612
:1048900005F1010B43464946079DC0B2A8476CB3DA
:1048A00054465A4622E0434649462020DDF81CC0C3
:1048B000E0470AEB05020AF1010A5745F3D8002F39
:1048C00007F1FF3308BF002307F1010A1D4408BFA9
:1048D0004FF0020AD9E7A246EBE7551C434649468A
:1048E0002020DDF81CC0E0472A460134BC42F4D346
:1048F000A7EB0A03574538BF00239B445D4660E69B
:10490000334653F804AB002C089314BF23464FF0F2
:10491000FF33D34653449BF8000008B15B4511D1E7
:1049200012F48063ABEB0A0B099302D0A34528BFB6
:10493000A34612F002030A931CD1ABEB05032A46EF
:104940000B930AE00BF1010BE5E7561C4346494681
:104950002020DDF81CC0E04732460B9B1344BB42CD
:10496000F3D3A7EB0B035F4538BF00230BF1010B1B
:104970001D449B445646A5EB0A0A05E01C462A4600
:1049800043464946079DA8470AEB060516F8010B62
:1049900028B1099B002BF2D0631E002CEED10A9B9C
:1049A000A3B12A46ABEB050407E0561C4346494633
:1049B0002020DDF81CC0E0473246A318BB42F4D3E8
:1049C000A7EB0B035F4538BF00231D44089EF8E5A5
:1049D0000823049310230293002342F0210205923E
:1049E0000394019356F8043B2A46009349464346F4
:1049F0000798FFF7EAFC0546E3E54FF0080CE9E607
:104A00004FF0020CE6E600BF0FB41FB506AA52F83D
:104A1000043B02A90392009204484FF0FF32FFF7D3
:104A2000C3FD05B05DF804EB04B070479F45000876
:104A3000194B1B78D90709D5184B187800EB800063
:104A400080087F2823D820B3C0B270479A0705D5C5
:104A5000124B187800EB80004008F2E75B0704D5A2
:104A60000E4B187800EB8000EBE70D4B1B7863B121
:104A70000C4A0A49127808789342F3D2584300EB63
:104A80008000B0FBF2F080B2DBE70520DCE77F209E
:104A900070470120704700BFD60F00200E0C002089
:104AA000D70F00200F0C0020144B1B78D90705D519
:104AB000134B18788008F8B1C0B270479A0703D535
:104AC0000F4B18784008F6E75B0705D50C4B1878B4
:104AD0007F28F0D97F2070470A4B1B7853B10A4AD0
:104AE000074912780878934236BF584380B2B0FB2A
:104AF000F2F0EDE70120DFE701207047D60F00203C
:104B0000120C0020D80F0020130C0020F02808B54C
:104B100005D1FFF78DFF4042294BD87008BDF12821
:104B200002D1FFF785FFF7E7F22805D1FFF780FFF5
:104B30004042234B9870F1E7F32802D1FFF778FF4A
:104B4000F7E7F92804D1FFF7AFFF1D4B1871E5E730
:104B5000FA2803D1FFF7A8FF4042F6E7FB2805D16A
:104B6000FFF7A2FF4042164B5871D7E7FC2802D14D
:104B7000FFF79AFFF7E700F10C03DBB2042B08D82C
:104B800001230F4AF43803FA00F0537818435070A9
:104B9000C4E7FD2805D10B4A137843F001031370D5
:104BA000BCE7FE2804D1074A137843F00203F6E776
:104BB000FF28B3D1034A137843F00403EFE700BFA3
:104BC000D00F0020D60F0020364BF02893F902209A
:104BD0000AD193F9031000290CDA0021D97052B9D7
:104BE0000021314A117006E0F1280DD193F903102C
:104BF0000029F2DC72B11A795B7913435AB2002BA7
:104C00004FD12A4B1A707047F22806D1002AF1DAE8
:104C100000229A7093F90320E1E7F32802D1002AD9
:104C2000F6DCE7E7F92893F9041004D10029E1DD67
:104C300000211971DEE7FA2802D10029DADAF7E754
:104C4000FB2893F9051004D10029D3DA002159710A
:104C5000D0E7FC2802D10029F8DCCBE700F10C01F9
:104C6000C9B2042907D80121F4388140587820EAD4
:104C700001005870BEE7FD2805D10D48017821F0EC
:104C800001010170B6E7FE2804D10948017821F03E
:104C90000201F6E7FF28ADD10548017821F00401B3
:104CA000EFE77047D00F0020D70F0020D80F00206B
:104CB000D60F00202A4B10B51B782A4C13F0080F92
:104CC00039D02948FFF7A0FE61782848FFF79CFEFD
:104CD0002748FFF799FE94F902102648FFF794FE43
:104CE0002548FFF791FE94F903102248FFF78CFE48
:104CF0002148FFF789FE94F904101E48FFF784FE4F
:104D00001D48FFF781FE94F905101A48FFF77CFE55
:104D10001A48FFF779FE1A4B1A481978FFF774FE04
:104D20001948FFF771FE194B16481978FFF76CFE0A
:104D30001748FFF769FE01F0A1FFE378A27813435B
:104D400018BF144B227918BF18806379BDE8104052
:104D500013431CBF104B1880024801F0EDBD00BF8B
:104D6000C60F0020D00F0020209B0008789A000872
:104D7000439B0008459B0008B3A00008489B00081F
:104D8000D70F00204B9B00084E9B0008D60F002039
:104D9000509B0008CC0F0020CE0F002000232DE9EF
:104DA000F047564C94F9028094F9037094F904602A
:104DB00094F90550A370E3702371637158EA0703F7
:104DC00094F800A094F801900AD04D4B188801F097
:104DD0005AFF4C490B783BB34B4A127890422EDC79
:104DE00056EA05030BD0494B188801F04CFF48499F
:104DF0000B78002B4ED0474A1278904255DCE2786F
:104E0000A3781343227913436279134301D0FFF748
:104E100051FF84F800A084F8019084F80280E770C4
:104E200026716571BDE8F0874FF00A0C3A4A127896
:104E30000CFB02F29042D3DD01330B7001E0FF2B3B
:104E4000FAD1B8F1000F08D0FFF7F2FDB8F1000F6A
:104E5000CCBF0123FF235843A0703FB1FFF7E8FD0B
:104E6000002FCCBF0123FF235843E07094F90220A8
:104E7000002AB5D094F90330002BB1D0B5214A43B4
:104E80004B43121208BF01221B1208BF0123A2705C
:104E9000E370A5E74FF00A0C204A12780CFB02F2EF
:104EA0009042ACDD01330B7001E0FF2BFAD13EB133
:104EB000FFF7FAFD002ECCBF0123FF2358432071DA
:104EC0003DB1FFF7F1FD002DCCBF0123FF23584377
:104ED000607194F90420002A91D094F90530002BD8
:104EE0008DD0B5214A434B43121208BF01221B1239
:104EF00008BF01232271637181E700BFD00F00203A
:104F0000CC0F0020D70F00200D0C0020CE0F00206A
:104F1000D80F0020110C00200C0C0020100C0020D9
:104F2000062208B500210548FDF760FA0023044A6F
:104F30001370044A1370044A137008BDD00F002088
:104F4000D70F0020D80F0020D60F0020002307B570
:104F5000014601220DF107008DF8073000F000FA3C
:104F60009DF8070003B05DF804FB002307B5014678
:104F700002220DF10600ADF8063000F0F1F9BDF89F
:104F8000060003B05DF804FB07B5042200230146C8
:104F90000DEB0200019300F0E3F9019803B05DF816
:104FA00004FB07B501228DF8071001460DF107003B
:104FB00000F00EFA03B05DF804FB07B50222ADF86D
:104FC000061001460DF1060000F002FA03B05DF88C
:104FD00004FB07B50422019101460DEB020000F02D
:104FE000F7F903B05DF804FB38B50C460546FFF74A
:104FF000ADFFA04205D021462846BDE83840FFF766
:10500000D0BF38BD38B50C460546FFF7AEFFA0420D
:1050100005D021462846BDE83840FFF7CEBF38BD51
:1050200038B50C460546FFF7AFFFA04205D0214634
:105030002846BDE83840FFF7CCBF38BD10B5074C57
:1050400000F074FA064800F029FA204600F026FA2B
:1050500000F07AFA034B1C6010BD00BF00FC010891
:1050600000F80108DC1300204FF6FF7138B520F07E
:105070000104A2B204F1006404F5FC3423888B42DD
:1050800010D10A498D5AED43ADB29D420CD000F0CB
:105090004DFA2046294600F023FA044600F054FA5F
:1050A000204638BD0024FBE70524F9E7DA0F00208D
:1050B000F8B5FFF7C3FF052500F038FA0A4E0B4C90
:1050C0000B4F36F8021B39B1C943204689B200F0B4
:1050D00007FA052818BF05460234BC42F1D100F09A
:1050E00033FA2846F8BD00BFDA0F002000F80108A7
:1050F00000FC0108F8B51C4B1C4F1E5A3A68012EE3
:1051000096BF022304231A4DC3F1006394BF45EAFE
:105110004635803803F500338ABF4FF46045ADB2A1
:1051200080B29A4203D9BDE8F840FFF7C1BF45EA13
:10513000500400F0FBF938682146831C3B6000F006
:10514000CFF9B5F5604F044609D1F143386889B20B
:10515000831C3B6000F0C4F9052818BF044600F02A
:10516000F3F92046F8BD00BFDA0F0020DC13002061
:105170000080FFFF38B50D4D0D4B2A6804469A425A
:1051800003D9BDE83840FFF793BF00F0CFF9094BD2
:105190002868195D831C41EA042189B22B6000F064
:1051A0009FF9044600F0D0F9204638BDDC130020FA
:1051B000FFFF0108DA0F00201F4BF0B51D461F4A04
:1051C0001F4832F8021BC943824223F8021BF8D160
:1051D0004FF6FF7743F6FE761A4C1388BB4206D093
:1051E000180409D4190A6B540232A242F5D9164B9D
:1051F0004FF480601A60F0BD03F4C041B1F5C04FB8
:105200000FD1901CA04215D85188C94389B279B1F9
:10521000024606EA43038033B3F5806FE4D2E952D5
:10522000E2E75904E0D4C3F3403106EA4303F3E76D
:105230000246D9E70246DAE7DA0F002000F8010853
:1052400000FC0108FFFF0108DC13002008B5FFF790
:10525000F5FEBDE80840FFF7AFBF0000B0F5806F76
:1052600010B5044614D20C4B1A5C8A4212D0195461
:10527000FFF7FAFE68B97F2C04D82046BDE810403D
:10528000FFF778BF24F00100BDE81040FFF732BF00
:10529000072010BD0020FCE7DA0F0020B0F5806F7A
:1052A000F8B505460E4634D210F001040DD0C9B24F
:1052B000FFF7D4FF0446681C310A80B2FFF7CEFF27
:1052C000052818BF04462046F8BD134B1F5AB942A3
:1052D000F9D01952FFF7C8FE04460028F3D17F2DFC
:1052E00012D8FBB2F2B293420CD02846FFF742FF2D
:1052F0000446360AB6EB172FE5D0681C80B2FFF7DC
:1053000039FFDDE70524F4E72846BDE8F840FFF75C
:10531000F1BE0724D7E700BFDA0F0020B0F5806F99
:105320003ABF024B185CFF20704700BFDA0F002025
:1053300040F2FE3398420AD8064BC10703EB000245
:1053400043BF5278185C40EA0220185A70474FF663
:10535000FF707047DA0F0020FFF72EBFFFF776BF10
:105360002DE9F04705460C4616464AB1CB0707D54E
:1053700088B2FFF7D3FF4A1C144605F8010B013E23
:1053800026F0010905F0010A05F102087708A14499
:105390004C450BD16FF0010202FB076626B1A0B2AB
:1053A000FFF7BCFF05F81700BDE8F087A0B2FFF7D4
:1053B000BFFFBAF1000F05D128F8020C023408F142
:1053C0000208E5E708F8020C000A08F8010CF5E706
:1053D000F8B506460D4614464AB1CB0707D54F1C13
:1053E000A8B216F8011BFFF739FF3D46013C002724
:1053F0003A19012AA6EB07030FD86FF001026308E0
:1054000024F0010002FB0344284484B116F8131071
:1054100080B2BDE8F840FFF721BF1A785978E81B41
:1054200042EA012180B2FFF739FF023FE0E7F8BD11
:105430000B4BDA68D0070CD4DA6851070BD4DA6862
:10544000D2060AD4D86800F00100C0F10500C0B24D
:10545000704701207047022070470320704700BF4B
:105460000020024073B504460025FFF7E1FFFF2648
:1054700001280FD114B9062002B070BD0195019624
:10548000019B1BB9FFF7D4FF013CF1E7019B013BF6
:105490000193F5E7002C08BF0620EDE738B5054677
:1054A00040F6FF70FFF7DEFF052815D10B4C40F6E4
:1054B000FF70236943F0020323616561236943F0B0
:1054C00040032361FFF7CEFF06281EBF236923F0A8
:1054D000020323613423E36038BD00BF0020024093
:1054E000104B00F178429A4270B505460E4616D828
:1054F0001F20FFF7B7FF052810D10B4C1F20236991
:1055000043F0010323612E80FFF7ACFF06281EBF86
:10551000236923F0010323613423E36070BD072076
:10552000FCE700BFFEFF070000200240044B1A69A1
:10553000120641BF034A5A6002F188325A6070472E
:105540000020024023016745024A136943F08003AB
:1055500013617047002002400620FFF7F7BC0146A8
:105560000620FFF741BD0000014B1878FFF7F7BF99
:10557000F6160020044B187800F0040040F02900D3
:105580001870FFF7ECBF00BFF6160020014B18782B
:10559000C0087047F616002008B50A4B1878820735
:1055A0000FD440F002001870FFF7D9FF064B1B78AC
:1055B000DB0702D50548FFF727FABDE8084000F0F1
:1055C00011BA08BDF6160020C60F0020539B000834
:1055D00008B50B4B1878820710D56FF3410018708F
:1055E000C0B2FFF7BCFF074B1B78DB0702D50648AC
:1055F000FFF70AFABDE8084000F020BA08BD00BF76
:10560000F6160020C60F00206F9B00080A4B10B54D
:105610001C780A4BC4F340041B78DB0703D52146F2
:105620000748FFF7F1F91CB1BDE81040FFF7D0BF04
:10563000BDE81040FFF7B0BFF6160020C60F0020EF
:105640008C9B0008024B1878C0F34000704700BFE5
:10565000F6160020014B1878704700BF140C00208C
:1056600008B5FEF7D7F918B9FEF760FAFFF782FF21
:10567000FFF772FF2F2888BF0522074B187084BFE1
:1056800062F3C70018701B7813F0010018BFD80828
:1056900000F07CF908BD00BFF616002010B50F4CD5
:1056A0002378272B4FEAD3029EBF013262F3C70350
:1056B0002370207840F001002070FFF750FF084B66
:1056C0001B78DB0704D521780648C908FFF79CF949
:1056D0002078C00800F05AF910BD00BFF61600206F
:1056E000C60F0020AC9B000810B50F4C207810F0BE
:1056F000F80F0BD0083810F0F80F14BF0123002367
:1057000063F300002070C0B2FFF729FF074B1B783E
:10571000DB0704D521780648C908FFF775F920781A
:10572000C00800F033F910BDF6160020C60F0020A7
:10573000C49B000810B50E4C2378DA0717D443F049
:105740000103012B04BF1A4663F3C702237008BF8D
:1057500022702078FFF703FF064B1B78DB0702D58A
:105760000548FFF751F92078C00800F00FF910BD87
:10577000F6160020C60F0020DC9B000808B50A4B77
:105780001878C2070FD56FF300001870C0B2FFF78A
:10579000E6FE064B1B78DB0702D50548FFF734F918
:1057A000002000F0F3F808BDF6160020C60F002018
:1057B000EE9B00080A4B10B51C780A4B04F001045C
:1057C0001B78DB0703D521460748FFF71DF91CB1FD
:1057D000BDE81040FFF7D2BFBDE81040FFF7AABFF9
:1057E000F6160020C60F0020019C000810B5144CCE
:1057F0002378C3F3C402013202F01F02052A94BFCA
:1058000062F3C7036FF3C7032370207810F0F80F1B
:1058100014BF0123002363F300002070C0B2FFF720
:105820009EFE084B1B78DB0704D521780648C90883
:10583000FFF7EAF82078C00800F0A8F810BD00BF14
:10584000F6160020C60F0020179C0008052828BF68
:105850000520084A08B5137860F3C70313F0F80F62
:1058600014BF0121002161F30003137000F08EF8D2
:1058700008BD00BFF616002008B5FFF7E7FF034B91
:105880001878BDE80840FFF76ABE00BFF616002092
:1058900008B50346887800B3A3F5B9433B3B062B14
:1058A00009D8DFE803F004090B0E111417000520D6
:1058B000FFF7E2FF002008BD0020F9E7FFF714FF23
:1058C000F8E7FFF7EBFEF5E7FFF774FFF2E7FFF706
:1058D0008DFFEFE7FFF79AFEECE70120EBE7000012
:1058E00038B50546FFF7B6FE244A0102138840008A
:1058F0000133B3FBF1F401FB143380B29BB213808C
:10590000B3FBF0F31E4A03F07F03D45C05232402AB
:10591000B4FBF3F4FFF73AFE41F27B4200FB04F3E1
:105920009BB2934218D80922B3FBF2F3202282F3F0
:105930001188EA68022142F00402EA60114A28460E
:10594000926853434FF6FF72B3FBF2F203F04CF947
:10595000002383F3118838BD03F523530A4A3633F5
:105960001B02B3FBF2F303FB03F253431B0AB3F531
:10597000803F0CBF4FF6FF739BB2D7E7E0130020C8
:105980002B9C00081C180020F5280100052804D8CD
:1059900020B90221104802F018BC05200522C0EBF6
:1059A0000040B0FBF2F202F523520C4B36321202E9
:1059B000B2FBF3F202FB02F35A43130A4FF6FF72F3
:1059C000B3F5803F08BF1346034881684B4302216B
:1059D000B3FBF2F202F0E9BB1C180020F52801002D
:1059E00070470000024B034A03489A6002F0FEBB76
:1059F000180C0020E15800081C18002008B51022DF
:105A00004FF480710A4803F019F8012309490A4844
:105A1000CB6102F0B9FBFFF7B9FDFFF7B7FFFFF766
:105A200011FE18B1BDE80840FFF7DCBF08BD00BF9C
:105A3000000C0140180C00201C180020002208B5A2
:105A4000054B06489A6002F0DBFBFFF79FFDBDE8BF
:105A50000840FFF79BBF00BF180C00201C18002057
:105A6000232008B5FFF772FA212801D0002008BDD5
:105A70002420FFF76BFA1228F8D12520FFF766FAE9
:105A8000A0F1200358425841F1E710B5041E14BF9D
:105A90002121FF212320FFF7A7FA002C14BF122198
:105AA000FF212420FFF7A0FA002C18BF2021BDE819
:105AB000104008BFFF212520FFF796BA704708B5B0
:105AC0002620FFF743FA08BDC1B22620FFF78CBAA3
:105AD00008B50020FFF7D9FF0020FFF7F5FF00F021
:105AE00025FD00F0B9FDBDE808400120FFF7CDBF5E
:105AF00008B5FFF7E3FFFFF7B3FF18B9BDE80840AB
:105B0000FFF7E6BF08BD10B58C78FCB1A0F5BE4329
:105B1000123B0F2B24D81238C0B200F0A9FD00248C
:105B2000204610BD0120FDF76BFA0322022101205F
:105B3000FCF708FDF3E70120FDF76EFA03220221CE
:105B40000120FCF7FFFCEBE70220F5E745F61073B8
:105B50009842F0D045F611739842F5D00124DFE762
:105B600045F610739842DDD045F611739842D7D1AF
:105B70000220D8E7FF230370704710B5037804466E
:105B8000092B02D00A2B08D010BDFFF7FFFC00EB59
:105B9000400303EB03136370F6E7FFF753FD6070F8
:105BA000F2E70378092B02D00A2B06D07047332383
:105BB0004078B0FBF3F0FFF749BE43780BB9FFF72D
:105BC00007BDFFF7E9BCF8B5044610F8013B0D46E8
:105BD000013B122B00F2A880DFE803F00A143B4CD3
:105BE000525E616467A6A66A6E747F8A8D909B0080
:105BF000002363700923A37029462046BDE8F840BE
:105C000001F018BC6378022B0DD0032B0ED0012BB2
:105C10001AD101F015F8030EA370030CE370030A08
:105C200023716071E8E7FFF74AFFF4E72746002693
:105C3000F0B2FEF76DFA0136030A062EBB70F8705B
:105C400007F10207F4D1D7E729462046FFF792FF74
:105C5000D2E76378022BF7D1E378A07840EA0320FB
:105C6000237940EA0340637940EA036000BAFFF712
:105C70002BFFC1E7E278A178607800F03AFCCEE72C
:105C800062792379A17843EA02235BBAE2786078EB
:105C90009BB200F03CFCAFE700F048FCACE7FFF73C
:105CA00080FFA9E7FFF769FFA6E7FFF75DFCA3E721
:105CB00000F0A2FC60709FE700F0A0FC030A637094
:105CC000A07099E76078A378E17840EA032040BAB1
:105CD000221D80B200F095FC8EE76078A378E17811
:105CE00040EA032040BA221D80B200F0A1FC83E705
:105CF00000F0B2FC80E700F0F1FBDBE76078A3780E
:105D0000E17840EA032040BA221D80B200F036FC60
:105D100072E76078A378E17840EA032040BA221D58
:105D200080B200F042FC67E7FF23237064E70000C5
:105D300038B505468878002800F0E38045F6025320
:105D40009D421BD845F6F9439D4204D8A5F5B843BA
:105D5000023B132B16D8FDF771FE45F615436A4C2E
:105D60009D42208020D845F601439D420BD82088D3
:105D7000FDF770FEFDF7B8F8002003E045F661532B
:105D80009D42E8D038BDA5F5B845033D122D2AD86F
:105D9000DFE805F02E323643474B4F556165696D9C
:105DA000797D81858BA7930045F602539D420ED8DD
:105DB00045F6F9439D42DAD9A5F5B9457B3D072D56
:105DC00022D8DFE805F026585C427685989C45F697
:105DD00061539D42CBD12378C3F3001282F00102BC
:105DE00062F3041302E0237843F001032370BEE75B
:105DF000237843F00203F9E7237843F00403F5E73F
:105E0000237843F00803F1E7637843F001036370FC
:105E1000ADE7637843F00203F9E7237843F010031A
:105E2000E4E7237843F02003E0E7237843F04003DE
:105E3000DCE7FDF759F8237843F08003D6E72378B1
:105E400023F00C0343F00C03D0E7637823F0030343
:105E500043F00303DBE723786FF30003C6E72378FF
:105E60006FF34103C2E723786FF38203BEE7237821
:105E70006FF3C303BAE763786FF30003C7E7637890
:105E80006FF34103C3E723786FF30413AEE723787E
:105E90006FF34513AAE723786FF38613A6E7FDF7A0
:105EA00023F823786FF3C713A0E7237823F00C03BC
:105EB0009CE7637823F00303A9E72378C3F3800208
:105EC00082F00102D2B262F3820362F3C3038DE770
:105ED0006378DA4302F0010262F3000362F34103E4
:105EE00095E7FDF701F82378C3F3C01282F00102B1
:105EF00062F3C7137AE70120FDF71AFE37E70020A7
:105F0000FAE701203EE700BFDC1600201FB50A4B70
:105F10000A4A1B780A4902930A4B0B481B780193E3
:105F20000A4B1B7800930A4B12781B780978FEF70E
:105F30006BFD05B05DF804FB130C00200D0C002078
:105F40000C0C0020120C0020AB9C00080F0C002051
:105F50000E0C002010B5014604460648FEF754FD1D
:105F60000120A040C0B2FDF714F8BDE81040FCF7D6
:105F7000BBBF00BF289D0008F0B5431F89B03E2B72
:105F800000F21C81DFE813F09D008D00A3003F00AC
:105F90001A011A0189001A011A01CC001A01DB004A
:105FA00001011A011A011A011A01EC001A011A0161
:105FB000EA001A01B8001A011A01180118011801A3
:105FC00018011801180118011801180111011A010E
:105FD0009D0083001A011A011A011A011A011A01FF
:105FE0001A011A011A011A0111011A011A01890074
:105FF0001A011501150115011501150115011501EC
:10600000150115011101FDF716FD01466E48FEF759
:10601000FBFCFDF70DFDC0F3C0030193C0F380034B
:10602000014600F001020093C0F340036748FEF709
:10603000EBFCFDF703FDC0F3C0130793C0F380131F
:106040000693C0F340130593C0F300130493C0F309
:10605000C0030393C0F380030293C0F34023019372
:10606000C0F30023014600F001020093C0F3400397
:106070005748FEF7C9FCFFF76FFA0146C0F3C403A7
:1060800000F001025348FEF7BFFC012017E0524820
:10609000FEF7BAFCFDF74AFDF7E75048FEF7B4FCFF
:1060A000F3E74F4A4F48137823F00F031370FEF7BE
:1060B000ABFC4D48FEF7A8FC01204C4B187009B012
:1060C000F0BD4B48FEF7A0FCFCF758FADDE7444C66
:1060D0002378C3F3000282F0010262F30003DD07BC
:1060E000237001D54348D9E74348FEF78DFC237858
:1060F00023F00E032370C8E7394C2378C3F3400222
:1061000082F0010262F341039807237006D53B48F1
:10611000FEF77AFC237843F00103EBE73848BDE74C
:106120002F4C2378C3F3800282F0010262F38203D2
:106130005907237001D53348EAE73348AEE7284CC6
:106140002378C3F3C00282F0010262F3C3031A078B
:10615000237001D52D48DBE72D489FE72D489DE7AB
:1061600000F0A0FB2C4B04461E782C4B1F782C4BC8
:106170001D7800F065FDED0901903B463246214651
:1061800000952848FEF740FC7FE7FCF7ADFE244968
:106190000B78C3F3C01282F0010262F3C7130B70D5
:1061A0001B064CBF2048214878E70020FFF7D2FEAD
:1061B0006BE73938C0B2F9E71D38FBE71C48FEF73A
:1061C00023FC00207BE700BF2D9D00084A9D0008AE
:1061D000939D0008789E0008AB9E0008BC9E0008B6
:1061E000C60F00206EA0000895A00008E213002052
:1061F00099A00008B5A00008C1A00008CEA0000822
:10620000DBA00008E9A00008F8A0000808A1000829
:1062100014A1000821A10008F40E0020601600203F
:10622000DC16002023A20008A7A20008B1A20008E3
:10623000BEA20008292810B5614C55D029D81328D2
:106240005FD015D8072800F093800B2834D05D4824
:10625000A1E00A215C4B1B68002BF8D01A780A4495
:10626000FF2A40F3A380FF221A701978574858E09C
:10627000142839D0A0F11E03092BE8D81D38C0B26C
:106280002070013805286DD8DFE800F0414E545ADF
:106290006066382810D04F38C3B2032BD7D80328F4
:1062A000D5D801A353F820F0536200089D6300087D
:1062B000A3630008A96300084548FEF7A5FBFFF7A4
:1062C00025FE012205214348FEF79EFB2178002987
:1062D00070D0BDE81040404B40481A68404B002A3F
:1062E00008BF1A46FEF790BB3E48FEF78DFB2378A9
:1062F000002B64D00023344A23701360364A1360A5
:10630000E4E73948FEF780FBFFF700FEDEE72E4B9F
:10631000364A1A60304B364A1A6021780029D5D0A7
:106320003448FEF771FBD1E7274B334A1A602A4BFA
:10633000324AF1E7244B324A1A60274B314AEBE7E5
:10634000214B314A1A60244B304AE5E71E4B304A54
:106350001A60214B2F4ADFE71B4B2F4A1A601E4B56
:106360002E4AD9E7002317482370FEF74DFBD4E7E8
:106370001E221E4B2A481A7032221F4B1A700A2204
:106380001F4B1A701422204B1A700822204B1A70CF
:106390002822214B1A70FEF737FB97E76FF00901AF
:1063A00058E74FF0FF3155E7012153E7002AB8BF06
:1063B000002259E71B48BDE81040FEF725BB10BD81
:1063C000E813002006A40008EC13002013A4000822
:1063D000C0A20008D0A20008E413002019A40008FD
:1063E000BCA200089CA300089FA300080C0C00207E
:1063F000ADA30008A89B00080D0C0020B6A3000860
:106400000E0C0020C2A300080F0C0020CFA3000830
:10641000120C0020DEA30008130C0020F1A30008DA
:1064200009A4000822A4000800207047002070473B
:1064300070B5264E05463478012C14D0022C3FD07E
:10644000002C40D1FDF7C8F922280AD12846FFF7D1
:10645000EBFF18B92846FFF78FFD00E0012000F0A0
:106460000104204670BDFDF7B7F92228284605D162
:10647000FFF7DAFF0028EDD02046F0E7FFF7D6FF60
:106480000028EED1142D1ED008D80B2D0AD0102DC7
:1064900010D00F48FEF7B8FA0024E2E7292D12D0F9
:1064A000382DF6D10B48FEF7AFFA0B48FEF7ACFAE1
:1064B0000124D6E7022338203370FFF7BBFED0E774
:1064C000FFF7B8FEF4E700243470CAE7E2130020B7
:1064D000BEA200086EA0000895A000080420704726
:1064E0001E23520003FB0122B42101FB00202730B0
:1064F000704738B5FFF7F4FF0546FEF727FD0402A5
:10650000681CFEF723FDA4B2204380B238BD38B525
:106510001C46FFF7E5FF0546210AFEF765FDE1B2DF
:10652000681CBDE83840FEF75FBD00002DE9F84F5C
:106530000024DFF84480474600255FFA84FA0EE025
:10654000F2B25946504639F8023B0136FFF7DFFFF9
:106550000F2EF5D10135062D07F11E0704D0B946DF
:1065600000265FFA85FBEBE70134042C08F1B40840
:10657000E1D1BDE8F88F00BF7E960008F8B514465B
:10658000002700F127055618B44200D1F8BDA5F147
:106590002703B3F5347F06DA2846FEF7D7FC2070D0
:1065A00001350134F0E72770FAE770B5144600F1C1
:1065B00027055618B44200D170BDA5F12703B3F5E5
:1065C000347F03DA28462178FEF70EFD01340135C9
:1065D000F0E782B00328ADF804100AD89DF8051042
:1065E000052906D89DF804200E2A02D802B0FFF72C
:1065F00080BF002002B070471020704740F20910A1
:106600007047F8B51446002700F2F7255618B44233
:1066100000D1F8BDA5F2F723B3F5847F06DC284648
:10662000FEF794FC207001350134F0E72770FAE79B
:1066300070B5144600F2F7255618B44200D170BD6B
:10664000A5F2F723B3F5847F03DC28462178FEF713
:10665000CBFC01340135F0E710B540F2F7242046B9
:1066600000210134FEF7C0FCB4F5806FF7D110BDF6
:106670000F28F7B5044620D840F2FF30FEF766FC3D
:10668000D8B940F2F725D4B9012701942846FEF77E
:106690005DFC6E1C8DF804008DF8054068B1431E4A
:1066A000022B17D88DF8050030468DF80470FEF7E0
:1066B0004DFC02358DF8060068B903B0F0BDB5F5A4
:1066C000806FFAD02846FEF741FC08B9013CE4B2DD
:1066D0000135D8E7354601A8FCF76AF8D6E700008F
:1066E00045F61643984210B50C461BD1FDF774F8D9
:1066F000A2780D4B72B100F0AA00002815BF01224C
:106700000022352029201A70FDF736F8FDF7D6F85B
:10671000002010BD1B78002B14BF35202920FDF769
:1067200033F8F3E70120F4E7F0130020F8B514463E
:1067300082781D469DF81870284B92B11C7000F0AD
:106740009DFA274B188004F12003DBB2072B44D8B5
:10675000012004F00704A040C0B2BDE8F840FCF7F7
:106760006CB91E78A6422ED11D4B188800F08BFA0A
:10677000C72828D8AE4205F1200415D006F1200321
:10678000DBB2072B06D8012006F00706B040C0B2E6
:10679000FCF75CF9E3B2072B06D8012005F00703EC
:1067A0009840C0B2FCF749F93846E4B2FCF73FF92B
:1067B000072C12D8012005F00705A840C0B2BDE89B
:1067C000F840FCF743B904F12003DBB2072B04D8EF
:1067D000012004F00704A040F0E7F8BDF113002009
:1067E000F213002013B545F6F64304469C420846D2
:1067F0000FD845F6F2439C4212D845F6D8439C4246
:106800001DD045F6D9439C423ED045F6D7439C4225
:106810000FD0807800283BD000221E4B1A701CE05D
:10682000A4F5B944743C022C0ED8DFE804F0181F1C
:10683000260026230093E1231A4621460AE0272357
:106840000093E523E522F8E72623E022009345F6AE
:10685000F341E123FFF76AFF002002B010BD2723B8
:10686000E422009345F6F441E523F3E72623E222F0
:10687000009345F6F541E123ECE72723E622009358
:1068800045F6F641E523E5E7282300930123D9E700
:106890000120E2E7F1130020014B1860704700BFB0
:1068A000F4130020024B186808B1036818477047BA
:1068B000F4130020F8B5194B04461B68002B2CD0AC
:1068C000174A127842B1174A92F90020002ABFBF36
:1068D0000278427006220270134D20465B6898478A
:1068E0002B78580719D5D90702D51048FEF78CF830
:1068F0000F4F04F108062B78DA0703D538462178C4
:10690000FEF782F80134B442F5D12B78DB0704D5C9
:10691000BDE8F8400748FEF777B8F8BDF41300204B
:10692000F40E0020DC160020C60F002026A400086C
:1069300038A40008519B0008034A12681AB10221CA
:106940000170936818477047F4130020054A1188B6
:10695000814205D0044B10801B680BB1DB681847DF
:10696000704700BFFA130020F4130020054A118875
:10697000814205D0044B10801B680BB11B6918477E
:10698000704700BFF8130020F41300200C4B821C4A
:106990001B7863B10B4B93F90030002BACBF06237F
:1069A0001E230020013BDBB2FF2B02D170470623E0
:1069B000F7E712F8011B0029F4D00130C0B2F1E76B
:1069C000F40E0020DC160020F9B1124B1B78A3B1A5
:1069D000114B93F90030002B0FDAEF294FEAD10267
:1069E00013D80123104401F0070103FA01F1837861
:1069F000194214BF012000207047831C083013F88F
:106A0000012B8A4203D08342F9D100207047012034
:106A1000704700BFF40E0020DC1600204FF0FF325C
:106A2000002330B5841C14F8015B8D420ED0B2F106
:106A3000FF3F02D1002D08BF1A460133DDB2062DFB
:106A40005BB2F0D1531C01D01044817030BD0022E4
:106A500010B5831C083013F8014B8C4208BF03F8B3
:106A6000012C8342F7D110BDEF294FEAD10209D89A
:106A700001F0070301211044827801FA03F3134364
:106A800083707047034B1B78DB0702D50248FDF784
:106A9000BBBF7047C60F00203EA40008EF294FEA95
:106AA000D10209D801F007030121104499408378ED
:106AB00023EA010383707047034B1B78DB0702D581
:106AC0000248FDF7A1BF7047C60F00205CA4000874
:106AD00010B4094C034624780A463CB1074C94F99B
:106AE0000040002C02DA10BCFFF7BEBF114618466A
:106AF00010BCFFF793BF00BFF40E0020DC1600208F
:106B000010B4094C034624780A463CB1074C94F96A
:106B10000040002C02DA10BCFFF7C0BF1146184637
:106B200010BCFFF794BF00BFF40E0020DC1600205D
:106B3000074B02301B7843B1064B93F90030002B12
:106B400003DA1E220021FBF751BC0622FAE700BF40
:106B5000F40E0020DC160020704708B5FFF7FCFF9C
:106B600008BD0000002814BF0220012008B5024B18
:106B70001870FFF7F2FF08BDFC130020032008B5D2
:106B8000024B1870FFF7E9FF08BD00BFFC1300209F
:106B9000FFF7E8BF012008B5024B1870FFF7DDFFD3
:106BA00008BD00BFFC130020FFF7F4BF08B501F0DB
:106BB00019F9BDE8084000F0CBBE08B5FBF75CFD55
:106BC000BDE8084040F2A46001F047B87047704744
:106BD00010B5FFF7FBFF0024FDF784FBFFF7F7FF7D
:106BE000E0B2FDF795FA18B90134062CF8D110BDC2
:106BF0000120FCE708B5FCF705FEFCF719FEFCF7E1
:106C0000CBFDFEF78DF90020FFF7A0FE0020FFF777
:106C1000ADFEBDE80840FBF73DBD0000202383F337
:106C20001188044B1A6A002383F31188024B1A60FF
:106C3000704700BFD017002000140020FFF7EEBF00
:106C400038B5202383F31188084B00211C6A81F397
:106C500011884FF47A75064B06481B68064AE41AF9
:106C6000E4FB05010023FBF701FB38BDD017002032
:106C7000001400209F860100A086010008B5FFF7E0
:106C8000DFFF80B208BD10B50446FFF7D9FF001B37
:106C900080B210BD10B50446FFF7D2FF001B10BD37
:106CA000074B084A1A60BFF34F8F0749074BCA6862
:106CB00002F4E0621343CB60BFF34F8F00BFFDE7E8
:106CC000FC4F0020EFBEADDE00ED00E00400FA0551
:106CD0000A4A08B552F8041C094B99420DD1002309
:106CE00042F8043C83F314884FF000431A6882F39F
:106CF000088862B65B689847FEE708BD0050002030
:106D0000EFBEADDE70470000202310B583F311887D
:106D1000064C04F1D40000F051FD04F50A7000F0B7
:106D20004DFD002383F3118810BD00BF4C0C0020E3
:106D300038B5094C0D4610460021224640EA052090
:106D400042F8041F194600F0FFFB2060606800282D
:106D500018BF204638BD00BF4416002090F87A10B6
:106D6000074A0229137807D1012B01D0062B05D140
:106D70005278044B1A707047024A1370704700BF74
:106D8000A01600207816002038B505460C462023B2
:106D900083F311880F4B1A78042A03D0002383F35E
:106DA000118838BD1A89D20608D5DB694FF47A718B
:106DB00058690C3000F05EFF0130EFD0064A032323
:106DC00054700421240A03481570947001F0D1FA1C
:106DD000E4E700BF381800209A16002070B504467A
:106DE00006480D46C3680BB100F0FEFD2B46214658
:106DF000BDE87040024A014800F0DCBD6416002086
:106E0000056E000838B50446202383F31188037803
:106E1000042B03D0002383F3118838BD124B1B7859
:106E2000DB09F7D1114D2B78002BF3D0104B1B78D9
:106E3000002BEFD003899B0704D4082301210D4ABE
:106E400001F097FA28780C4B4FF47A72A0FB0303F9
:106E50000021002300F2E730FBF708FA214680000A
:106E6000FFF7BCFFD6E700BFDC160020601600204D
:106E7000F40E002079160020A086010038B590F8A5
:106E80007430044603F07F02212A6FD113F0800F83
:106E900090F8750021D0022819D003280ED00128BF
:106EA00064D194F878302BB9454AA2662022E26674
:106EB000236738BD0023A366E366F9E7B4F87830AA
:106EC000002B53D101203F4AE066A266F0E7012083
:106ED0003D4BE066A3660023EAE70A283DD00B2875
:106EE0000ED0092842D194F8783013F0FD0F3DD12F
:106EF000364BA3660223E366354B01202367D8E7B0
:106F0000B4F878302BBB94F876502E4B002D14BF7C
:106F10000121002119702F4B1A7861F3C7121A70E2
:106F200017D1294B1A78A2B1202282F31188187840
:106F3000294B4FF47A72A0FB03030021002300F2D7
:106F4000E730FBF793F921468000FFF747FF85F311
:106F500011880023A366E366CFE71E4994F87720E3
:106F60000978194BCD091A70F3D1DCE740F281633F
:106F7000B4F874209A4208D0184B93F8B620D2B9CE
:106F800093F80A32BBB9002093E794F8792061683E
:106F900094F878304D6843EA0223204694F876202E
:106FA00094F87710A8470028EDD04368A3660368DB
:106FB000E3660023A1E72046BDE8384000F0DEBBD1
:106FC00079160020F40E002060160020A016002084
:106FD0005D6D0008DC160020A08601004C0C00202E
:106FE00010B5064A064C117824784B1C03F00F03A9
:106FF0009C421EBF034C1370605410BD0717002045
:1070000008170020F716002038B504460846052961
:1070100073D8DFE801F0607218606003202585F303
:107020001188364800F088FB002484F3118885F32A
:107030001188334800F080FB84F311880520BDE8F7
:107040003840FFF7CDBF202383F311882D4D012158
:1070500020462D4A01F03BF9042120462B4A01F03D
:1070600036F9204695F8B41005F1440201F02FF9E5
:1070700095F8B510204605F1680201F028F995F859
:10708000B61021B1204605F18C0201F020F91B4811
:1070900000F05DFB20461E4A95F8081201F017F932
:1070A00095F8091220461B4A01F011F995F80A12C9
:1070B00019B12046184A01F00AF9114800F047FBBF
:1070C000002383F31188154B1B7813B10520FFF7BC
:1070D00087FF0220B3E7FFF783FF202585F31188A0
:1070E000064800F011FB002484F3118885F3118811
:1070F000034800F009FB84F3118838BD200D0020FF
:10710000740E00204C0C00207CA40008A0A40008F1
:10711000E40D0020080E00202C0E002099160020FF
:1071200070470000102208B500210448FBF75EF903
:107130000023034A1370034A137008BDF71600209A
:10714000071700200817002070B5284D284C002193
:1071500028782378274E984230D101B1207070BD35
:1071600001222370244B1A70244B93F87F10081EC1
:1071700018BF0120FFF702FDE9E7002223701E4B34
:107180001A70FFF737FD1D4B93F87F10081E18BFCC
:107190000120FFF7FDFCDAE72370184B93F87F100E
:1071A000081E18BF0120FFF7DDFCD0E70021237087
:1071B0000846F8E72370FFF7EDFCC8E71A46B25C13
:1071C0000133012103F00F03052AC4D80FF2040C88
:1071D0005CF822F0B5710008577100089971000839
:1071E000AD710008617100087B710008071700206D
:1071F00008170020F71600209916002038180020E4
:10720000F8B5254C054604F10803A36504F11C03F9
:1072100004F1D406C4F8803004F1B00704F130035F
:10722000C4F8A0303046394600F02CFA30463946D2
:1072300000F052FA04F5AE73C4F8AC3104F5B8733B
:10724000C4F8D43104F5C273C4F8F43104F50176FE
:1072500004F50A743146204600F014FA31464FF422
:10726000805620460D4C00F037FA06224FF480512C
:10727000204601F0E3FB0A48666100F0EEFC284678
:10728000084900F0E7FF02223146204601F0D6FB14
:107290000022054BDA60F8BD4C0C002000080140CC
:1072A000F0490200C4A400086416002070B5054629
:1072B0004FF480560A4C00F0E0FF062220464FF4BF
:1072C000805101F0BBFB28460649666100F0C2FF11
:1072D00031462046BDE87040022201F0AFBB00BF3E
:1072E00000080140C4A40008014B1878704700BF93
:1072F0007816002038B50546202383F311881D4CED
:107300002378042B20D11C4A238992F90020002ADB
:107310001EDA1A4A1278DAB1DA060BD420232A468A
:107320000421144801F025F8202229461448FAF7D0
:10733000E7FF09E0E3694FF0FF3158690C3000F0D6
:1073400099FC2378042BE9D0002383F3118838BDFE
:107350009B0703D408232A460121E2E723694FF063
:10736000FF3158690C3000F085FC2378042BEBD1F9
:10737000F0E700BF38180020DC160020F40E0020D3
:107380007916002010B52023044683F311880D4B95
:107390001A78042A03D0002383F3118810BD1A89B8
:1073A000D20608D5DB694FF47A7158690C3000F0C9
:1073B00061FC0130EFD0062322460421014800F091
:1073C000D8FFE8E73818002001460320FFF7DCBCAF
:1073D00001460420FFF7D8BC37B50C4C8DF80700E8
:1073E00023780B48002B50F8D43F4FF00102DD69A1
:1073F0000DF107010CBF4FF4FA730023A847B0FA50
:1074000080F340B25B09237003B030BDB816002092
:107410004C0C002010B5064888B0D0F8D43020229B
:107420001C6A69460023D430A04708B010BD00BFD5
:107430004C0C002020290A4610B409D1054BD3F882
:1074400028124C68014603F50A70234610BC184701
:1074500010BC70474C0C002010B5094888B0D0F81B
:10746000283220221C6A6946002300F50A70A047D2
:1074700018B1C1B26846FEF7A6FB08B010BD00BF48
:107480004C0C002070477047704708B5FFF7FAFFB3
:1074900001F00BFFFFF7F7FF08BD08B501F00CFF87
:1074A000FFF7F2FF08BDFFF77FBB000008B5FFF74D
:1074B00039FE0748FFF7A4FE064B074A41F2883021
:1074C0001A6000F0CAFBBDE808400448FDF79CBA0A
:1074D00038180020BC160020F80E0020D4A40008A4
:1074E000014B1868FFF7D8B9BC16002010B5104C36
:1074F000FFF72AFE2378052B18D10E48FDF784FAF2
:107500002378052B05D0FCF7D9F9BDE81040FDF72D
:10751000D1BBFFF752FBFFF75BFB0028F0D0204602
:1075200000F03AFF2046FFF7C1FEE9E710BD00BFBB
:1075300038180020E5A4000808B5FFF76BFFBDE888
:107540000840FFF789BF000010B5040A032C0FD0D4
:1075500007D8012C23D0022C07D17B20114B1360BC
:1075600010BD212C0DD0222C12D000200346F6E7AE
:10757000C0B20228F9D80C4B0C4953F82030405CBB
:10758000EDE70329F1D80A4B092053F82130E6E74B
:107590000329EAD8074B084853F82130EFE71220B7
:1075A000064BDCE720A50008ECA40008F8A40008BE
:1075B000FCA400080CA500081CA50008BDA5000837
:1075C00013B5446BE36F1A681178042915D1217A39
:1075D000022912D11979012312898B4013420CD14F
:1075E00001A904F1440000F0FBFC024628B1E06F61
:1075F000019B0179006800F0BCFE02B010BD0C30A8
:1076000000F088BC4FF0FF330C3000F083BC4430F6
:1076100000F04EBD4FF0FF33443000F049BD0C3058
:1076200000F05BBC4FF0FF310C3000F056BC443032
:1076300000F01EBD4FF0FF32443000F019BD10B510
:10764000C36F04461A681178042916D1017A0229F9
:1076500013D11979012352898B4013420DD10C307B
:1076600000F0F6FB024640B1E06FA36A4179043BAB
:107670000068BDE8104000F06ABE10BD406BFFF727
:10768000DEBF00007FB5034601260D4604460F4AC3
:1076900043F8042B43600E4B067202900193CB68B3
:1076A0000C3000934B690A6A314600F0AFFB094B7E
:1076B00031460193AB68EA69009302942B6904F1A7
:1076C000440000F06AFC04B070BD00BF2CA70008A5
:1076D0007D760008C175000820220B6882F31188AE
:1076E0000A7903EB820290624A79113243F8220050
:1076F0008A7912B103EB820398620223C167037295
:10770000002383F31188704738B504460125022110
:10771000043000F004FB04F10C006FF0010125754A
:1077200000F0DBFA84F84C5004F144006FF00101E2
:10773000BDE8384000F0D1BA10B50121044604304C
:1077400000F0EDFA0023237584F84C3010BD38B5F5
:10775000044600250C3000F070FB04F14400257550
:1077600000F032FC201D84F84C50012100F0D7FAC3
:107770002046BDE83840FFF762BF000090F8742053
:10778000034602F06002202A14D190F875200020F0
:10779000212A02D81F2A03D87047222A07D070470F
:1077A000054A9A660722DA661867012070479866CC
:1077B000D866F9E700207047100F002073B5C36F3B
:1077C00004461A681178042927D1017A022924D1A4
:1077D0001979012315898B401D401ED100F1440603
:1077E000304600F0AAFCC0B1304601A900F0F8FB19
:1077F000E36F06461A7E4AB101981A692946121AA1
:107800003044FAF7F3FDE36F1B690193E06F3246F2
:107810000179019B006800F0ACFD02B070BD00EB87
:1078200081032DE9F3419E6A04460D46FEB12023F3
:1078300083F311880821301D04EB850700F06FFAEF
:10784000FB6806F144085B691B6813B1404600F011
:10785000D4FB404601A900F0C3FB024650B1019B96
:107860002946204600F085FD002383F3118802B0ED
:10787000BDE8F081FB685A691268002AF4D01B8ABF
:10788000013B1342F0D1F36F1B7E002BECD104F1CE
:107890007402E5E7113110B550F82140C4B120233E
:1078A00083F311880421601800F039FAE26F04F1C3
:1078B0000C001368527903EB8203DB689B695968FB
:1078C00000F0D0FA2046FFF7BAFE002383F31188B8
:1078D00010BD7047024B034A1A60034A5A60704752
:1078E0000C170020C018002000500020704770477F
:1078F000FEE7000070B50825134C60682368014658
:10790000A268043B8A4219D8D31C1B1AC11E23F05B
:1079100003038A4238BF00231844E368C11EDA1CFF
:10792000121A22F00302994288BF00220021FAF7BE
:107930005DFD013D04F11004DFD170BD53F8046F0B
:1079400041F8046BDEE700BF54A70008FEE7000023
:1079500010B50D4C00F07CF800F01EF8FFF7BAFFF0
:1079600080220A49204600F030F9012344F8180C1F
:10797000037400F0F1F9002383F3118862B6BDE8C7
:107980001040034800F04CB9F8170020D4A70008B5
:10799000E0A7000800F03AB8054B03F114025A6161
:1079A0009A614FF0FF32DA6100221A62704700BF1D
:1079B000D017002010B50B4C03616369C2609A6850
:1079C00091420CD85A6881600360426010609A68E6
:1079D0005860511A99604FF0FF33E36110BD1B6886
:1079E000891AECE7D0170020036881689A680A4476
:1079F0009A60426813605A6000234FF0FF32C36000
:107A0000014BDA61704700BFD017002038B50F4C2A
:107A10002246236A0133236252F8143F934206D070
:107A200020259A68013A9A6063699A6802B138BD64
:107A30001968586801604860D968DA6082F3118873
:107A40001869884785F31188EEE700BFD01700203A
:107A50000022024B1B605B609A607047D0170020C9
:107A6000002382680374054B1B6899689142FBD21E
:107A70005A6803604260106058607047D017002059
:107A800008B5202383F31188027C0023052A06D839
:107A9000DFE802F00B050503120E426913604FF098
:107AA000FF334361FFF7DCFF002383F3118808BD38
:107AB00042699368013393604268036813605A60B7
:107AC000EDE70000002382680374054B1B6899688A
:107AD0009142FBD85A68036042601060586070475A
