:100000000C946C050C94A4050C94A4050C94A40504
:100010000C94A4050C94A4050C94A4050C94A405BC
:100020000C94A4050C94A4050C94D8330C94B0340F
:100030000C948D330C94A4050C94A4050C94A40585
:100040000C94A4050C94A4050C94A4050C94A4058C
:100050000C94A4050C94B4330C94A4050C94A4053E
:100060000C94A4050C94A4050C94A4050C94A4056C
:100070000C94A4050C94A4050C94A4050C94A4055C
:100080000C94A4050C94A4050C94A4050C94A4054C
:100090000C94A4050C94A4050C94A4050C94A4053C
:1000A0000C94A4050C94A4050C94A40505010980E6
:1000B000A101850319012AB700150126B700950192
:1000C00075108100C0050C0901A101850419012AE0
:1000D000A002150126A002950175108100C00660DE
:1000E000FF0961A1010962150026FF00952075082E
:1000F00081020963150026FF00952075089102C052
:1001000005010906A101050719E029E715002501E8
:10011000950875018102950175088101050719008F
:1001200029FF150026FF00950675088100050819AE
:10013000012905950575019102950175039101C08D
:1001400000000000000000000000000000000000AF
:10015000000000000000000000000000000000009F
:10016000000000007E0F00D4FFFFFFC700000078F2
:1001700000000000000000002A2B28000000000002
:100180000000000000000000000000290000000046
:100190002C1E3420212224342627252E362D3738B4
:1001A000271E1F202122232425263333362E3738BD
:1001B0001F0405060708090A0B0C0D0E0F1011127B
:1001C000131415161718191A1B1C1D2F3130232D47
:1001D000350405060708090A0B0C0D0E0F10111245
:1001E000131415161718191A1B1C1D2F3130354CF6
:1001F00009025B00030100A0FA09040000010301E9
:1002000001000921110100012240000705810308B6
:10021000000109040100020300000009211101008E
:1002200001222200070582032000010705030320A5
:10023000000109040200010300000009211101006E
:100240000122320007058403200001120100020090
:100250000000084C4D75080100010203011C0376E3
:1002600000690061006C003A0066003600340063EB
:1002700000320062003300630000001A0349006E80
:1002800000660069006E006900740079003800376C
:10029000002E003500000022034D00650063006859
:1002A000006C006F00760069006E002E0053007431
:1002B000007500640069006F000000040309042950
:1002C000003A003B003C003D003E003F0040004142
:1002D00000420043004400450068004600470048D3
:1002E0000035001E001F00200021002200230024F2
:1002F000002500260027002D002E002A0049004A74
:10030000004B002B0014001A000800150017001CF9
:100310000018000C00120013002F0030004C004C9D
:10032000004D004E00390004001600070009000AC5
:10033000000B000D000E000F0033003400310028C8
:1003400000000000000000E10064001D001B00062A
:10035000001900050011001000360037003800E1D8
:1003600000E100000052000000E000E300E20000B5
:1003700000000000002C00000000000000E200E38C
:10038000000151E000500051004F00010001000148
:100390000001000100010001000100010001000155
:1003A0000001000100010001000100010001000145
:1003B0000001000100010001000100010001000135
:1003C0000001000100010001000100C75CC55C01E3
:1003D0000001000100010001000100010001000115
:1003E00000010001000100010001000100C85CC61D
:1003F0005C01000100010001000100010001000199
:100400000001000100010001000100C25C000000C9
:1004100000000001000100010001000100010001D5
:1004200000010001000100010001000100010000C5
:1004300000C95C0000010001000100000000000094
:1004400000010000000000000001000100010001A7
:1004500000C45CCA5CC35C01000100010001000132
:100460000001000100010001000100010001000184
:100470000001000100010001000100010001000174
:100480000001000100010001000100010001000164
:100490000001000100010001000100010001000154
:1004A0000001000100010001000100010001000144
:1004B0000001000100010001000100010001000134
:1004C0000001000100010001000100010001000124
:1004D0000001000100010001000000000000000117
:1004E0000001000100010001000100010001000104
:1004F00000010001000100010001000000010000F6
:1005000000010001000100000000000000010000E7
:1005100000000000000100010001000100010001D5
:1005200000010001000100010001000100010001C3
:1005300000010001000100010001000100010001B3
:1005400000010001000100010001000100010001A3
:100550000001000100010001000100010001000193
:100560000001000100010001000100010001000183
:100570000001000100010001000100010001000173
:100580000001000100010001000100010001000163
:100590000001000100010001000100010001000153
:1005A0000001000100000000000000010001000146
:1005B0000001000100010001000100010001000133
:1005C0000001000100010000000100000001000125
:1005D0000001000000000000000100000000000019
:1005E0000001000100010001000100010001000004
:1005F00001010101010101010102020202020202E4
:1006000002020303030303030303040404040404B6
:10061000040505050505060606060607070707077C
:1006200008080808090909090A0A0A0B0B0B0C0C2F
:100630000C0D0D0D0E0E0E0F0F0F101011111112CB
:100640001213131414151516161717181819191A4A
:100650001A1B1B1C1D1D1E1E1F20202122222324AD
:1006600024252626272829292A2B2C2D2D2E2F30EC
:10067000313232333435363738393A3B3C3D3E3F00
:10068000404142434445464748494A4C4D4E4F50ED
:10069000515354555658595A5B5D5E5F61626465AB
:1006A0006668696B6C6D6F7072737577787A7B7D35
:1006B0007E8082838587888A8C8E8F919395969889
:1006C0009A9C9EA0A2A3A5A7A9ABADAFB1B3B5B7A5
:1006D000BABCBEC0C2C4C6C9CBCDCFD1D4D6D8DB7C
:1006E000DDDFE2E4E7E9EBEEF0F3F5F8FAFDFFFD1C
:1006F000377A585A000004E6D6B4460200210116A3
:10070000000000742FE5A3E00DCF03A55D003D8838
:1007100089C65436C3174FE4E04240FA43C57FC44C
:10072000F1BCDAF9B4721855212EED23FE8EE65B8A
:10073000FED2CB6F1B2BFDA9A5903055B3B0B62FC1
:10074000C55CCEBD54C4C2C49B5A6A065BD1318617
:100750001818CAB2B100009B19D0F29F87A5886F04
:10076000E8E62F62C7ABBD7C80588E8B77884A0E37
:10077000F4A3A9D654980B0C6E6EB8ACE317FB0F1C
:1007800079025A47D2FFB7D998ED6D925135E7E615
:100790007947191EEBD8244E6431F2FB0CF136D0A8
:1007A000611D39A4942109F7F13FB96589666BEAA7
:1007B00023A5FC94D787C9880D9DF76FDB01B5147D
:1007C00012C66241F1801B16CE9DAAF541804C7D78
:1007D00024A344CB641E6790F258EF28101EC982F0
:1007E0001EBEF2AE1613FD06E3FE107A3A5A054419
:1007F0000B898663A56F86415CB99BC6BE6322B92F
:100800005113AB9C5A91B1678002A303BC71A2AE95
:1008100041EBA66BDB1708C2AE93AF35B0FC4ECCF4
:100820007F3D18662BC1E1B28CC9B0AF50E24CF8E5
:100830009B1537ADC34B525C1CBB3A15A25379F9DB
:10084000B95DB92FDF72A3CBC172A158DA7D9EDAF0
:10085000AD0C61438350D407CF68127E873E8A3245
:10086000ACA6CFBA0F5BC7A4B80E5302333648CD3F
:1008700024BC51A369AE8C91086D98CBFF12E61D84
:100880003D46A11A9CB6C83D5F405C70842523E8B4
:100890007CDA34A5D7173CECDFE638D6B495A0DD7A
:1008A0003C6D5A2D4727C7F69D06574ACDFA786802
:1008B000A3A0BFC583EE5C9DF57B1EED08CDC228CD
:1008C0006620A2F0F2A84A3A32C71818B60EF96BA1
:1008D0007823D20EAF2FEA48FD3D36D724D2DD462D
:1008E000053EF5B00FC1B9BFB817347EC5CB611D49
:1008F000499280E04722C273037F9E48F7D1189542
:100900008DF1169BE07A5B23913425A6112C62525F
:10091000BE7ADCBE91CCA80C9881018D7D0508CAF9
:10092000AAD08C89FA3E5D7088595431CDC35F3F9F
:100930005374ACB8E31BBD4ED7360946FA12DA47FA
:100940002B17A75B4C3B8C520A11A1446F5DA47915
:1009500016609B26773BF181FFDF229A24C0E6B820
:100960005A43D0C462B7C96D2ED0F5EC1D9B7D52A1
:10097000EDDA3DA00FEC3642EA212AD0589B1CD07C
:1009800049D4B0D10F02999BC6DD85DB4FE6F92033
:10099000A703347840FE9593769CB6A6E28219931D
:1009A000E32DF1733A39C8A9DE75C551BE1FD37660
:1009B000DC25AFDBD2748CD62542F078AC05AA6278
:1009C000B57680EF5784CFCD6A62972B5E3066890B
:1009D000CE4F1323AC4916189B413D3C5FA3FFEA61
:1009E0004A0FED7C869C561DC0D323C1AAB61220A7
:1009F0003F14213C4749C82CC731BC4C150C0C0096
:100A0000905F6BF7241DD4ECB3BB61DD22773645D4
:100A1000D01E8AA41567D75E23A5EB5E0A3ECC8B59
:100A20002E3BB735D6857EAEFCD108D02CD9FE63DF
:100A3000BA10EFED305D68F91D088AA72C0CE1BDF6
:100A4000795AF40BDBB41828F8531DB41F6F65A254
:100A5000B081AE27B9989099F05EDF30A695D75750
:100A60004BD925A8AD47A103F7E4DA4BABA0CC4F97
:100A7000B8E7A280C801BBBC8EC9487D9638A701E3
:100A80007C3498C38ABFCEEDF50C98CECCEF55E8F8
:100A90007BC33A7BD821CB39A6BEBC0911BEC10E9F
:100AA0003BC45C6AEDAFEFB537445D127A15212C7B
:100AB00031F3780000000056A6230FAE54FB4F0020
:100AC00001C107D01B0000D430E69DB1C467FB0212
:100AD0000000000004595A0011241FBECFEFDAE0D5
:100AE000DEBFCDBF04B603FE18C080918404909190
:100AF0008504A0918604B09187048730904BA7406D
:100B0000B04B59F41092840410928504109286041C
:100B100010928704E0E0F8E3099524E0AAE5B2E04A
:100B200001C01D92A438B207E1F712E0A0E0B1E0E5
:100B3000E8E9FEE602C005900D92AA35B107D9F7A3
:100B40000E943D2E0C94AB360C9400009C019A95AB
:100B500081159F4118F5F901EE27F270832F8170FE
:100B6000B90166277470A9014427587034FF0CC07E
:100B70008295807FEF2B09F08062672B09F08064FB
:100B8000452B69F080680895EF2B09F08260672B90
:100B900009F08460452B19F08860089580E008957D
:100BA000CF93DF93EB010E94A605FE010995DF912B
:100BB000CF91089581FF05C05E9A82FF04C02C9AF0
:100BC00008955E98FACF2C980895292F963098F5BD
:100BD000813188F590E031E1239F800D911D112432
:100BE000282F277041E001C0440F2A95EAF723E03F
:100BF000969587952A95E1F7FC01EE0FFF1FE80F08
:100C0000F91FEE5FFB4F20E030E070E05191DF0113
:100C10001197CB01022E02C0969587950A94E2F7B0
:100C2000817081958527842385278C932F5F3F4F83
:100C30002330310559F70895292F963078F5813101
:100C400068F590E031E1239F800D911D1124682FFC
:100C5000677023E0969587952A95E1F7FC01EE0FE2
:100C6000FF1FE80FF91FEE5FFB4F40E050E080E010
:100C7000219130E0062E02C0369527950A94E2F7BE
:100C800021703327042E01C0220F0A94EAF7822B29
:100C90004F5F5F4F4330510559F7089580E0089545
:100CA00080914B0490914A04981301C008958F5F7E
:100CB0008770FACFAEE5B2E0EFEF90E02D918217AA
:100CC00051F0EF3F19F4211101C0E92F9F5F9630D9
:100CD000A9F7EF3F09F408950E2E000CFF0BE45A1C
:100CE000FD4F82830895EEE5F2E09191891303C0F0
:100CF000DF0111971C9292E0E436F907B1F70895ED
:100D0000982F909580914004892380934004089502
:100D100080913F04882331F010923F0410924904DF
:100D20001092480408959091820492FF06C0282FE3
:100D300028712830F9F4877F846093FF06C0282F3C
:100D400028712831F1F4877E84612091830420FF8B
:100D500006C0382F38713830D9F4877F816021FF81
:100D600006C0282F28712831D1F4877E816194FD37
:100D7000877E0895282F24712430F9F68B7F8860B0
:100D8000DCCF282F2471243101F78B7E8861DDCFE1
:100D9000382F3171313019F78E7F8860E0CF282FDE
:100DA0002171213121F78E7E8861E1CFCF93DF93CE
:100DB000EC01803E910509F47AC090F581339105EC
:100DC00009F4C0C088F48932910509F4B0C08A32B0
:100DD000910509F4BEC0019709F47AC0CE010497C9
:100DE000813A9105D0F474C08933910509F453C058
:100DF0008238910509F44FC08533910509F492C0FA
:100E0000883A910530F4853A910540F3A497D0646F
:100E10005FC08F3B910508F4F3C0C0E0D0E058C03C
:100E2000843E910509F463C0B0F4823E910509F453
:100E30004BC0833E910509F44FC0C11580E4D8072B
:100E400008F0E9C0C83ED10508F442C0CE019A9529
:100E50008F3F9E41C7CF863E910509F453C0873E20
:100E6000910509F454C0811523E5920708F078C074
:100E7000811542E5940708F0E6C0811550E5950715
:100E8000E0F2811561E5960708F4C8C0D82FCC2799
:100E9000C16FD06A1DC0809182048370811103C12B
:100EA0008091830483FF14C0C9E2D0E011C0809117
:100EB000820480FD44C09091830490FF09C0C3EE7A
:100EC000D0E084FDAACF04C08091820482FDF7CFD8
:100ED000CE01DF91CF9108958091820482FDE0C020
:100EE0009091830490FDDFC084FFF2CF96CF809174
:100EF000830481FFEDCF80918204C7EED0E084FDB2
:100F00008CCFE6CF8091820483FDF7CFE1CF809133
:100F1000820483FDCBC09091830491FFE5CFC4EEA2
:100F2000D0E0D6CF8091820485FFD2CFBDCF809113
:100F3000820485FDBEC08091830483FFC9CFC9E3CD
:100F4000D0E0C6CF8091820486FFC2CFCAE2D0E053
:100F5000BFCF8091820486FFBBCFC1E3D0E0B8CF82
:100F6000811549E59407A8F5811558E5950708F01E
:100F700084C0811565E59607D8F4C11584E5D807C6
:100F800008F076C08C2F8695869520E2829FC0015E
:100F90001124C370DD2721E030E0A90102C0440F15
:100FA000551FCA95E2F7EA01C82BD92BDA6890CF12
:100FB00095558F3F910511F008F02FCF8C2F0E948F
:100FC0009306C82FD0E0DC2FCC27CC27DF71D0626E
:100FD0007FCFC1158AE5D80708F454C0CE019056DA
:100FE0008115904208F019CF8D2F8F710E949306C2
:100FF00090E0982F882788279F718C2BEC01E7CFF2
:10100000C85AD0E0CC0FDD1FC55DDD4F0990D881F7
:10101000C02DD4645DCFDF70D06A5ACF8695869597
:10102000837040E2849FC0011124C37021E030E04E
:10103000A90102C0440F551FCA95E2F7EA01C82B67
:10104000D92BDD6845CF8695869550E2859FC001F6
:101050001124C370DD2721E030E0A90102C0440F54
:10106000551FCA95E2F7EA01C82BD92BDC6830CFAF
:10107000DC2FCC27C46FD06A2BCFD82FCC27C06FE2
:10108000D06A26CF8C2F8F700E94930634E0D695BD
:10109000C7953A95E1F7CF709C2FEC01D06918CF36
:1010A000C2EED0E015CFC0EED0E012CFC6EED0E059
:1010B0000FCFC5E3D0E00CCF80E00895A0E0B0E012
:1010C000E4E6F8E00C943635E82FF0E0E151FA4F11
:1010D000711109C0E4918E2F7E2F6E2FCDB7DEB730
:1010E000EAE00C945235262F30E0C72FD0E0F4917F
:1010F000EF2F86E0829F8001839F100D1124EE2444
:10110000EA94F12CC801B7010E94F934AB01220F17
:10111000331F65E5649FC001659F900D1124281B56
:10112000390B822F880F280FC7018C1B9D0BF89F4E
:10113000D001F99FB00D11248B2F2C9FB0012D9F52
:10114000700D1124672F77275701A61AB70AFA9D49
:101150006001FB9DD00C11247D2D5701A21AB1080E
:1011600095012C9F50012D9FB00C3C9FB00C112479
:10117000AB2CBB24EA18FB08FE9DE001FF9DD00DBF
:10118000112443305105C1F00C3F93E0190750F48E
:101190004130510509F4A1CF4230510589F07E2F2D
:1011A000ED2F9BCF4430510571F046305105B9F316
:1011B000EB2F8D2D7F2F91CFED2D7B2F8F2F8DCF6F
:1011C0007B2F8D2F8ACF7D2FEB2FF8CF9C0180E0D6
:1011D00090E0269F812D369F800D911D112408954A
:1011E000982FE82F96FDE0958E2F8F7096FD8F5FDC
:1011F000E695E695E695E670F0E0E35EFD4F218129
:10120000289F202D812D112422952F708295807F7B
:10121000282B8081820F97FD8195805808951F9318
:10122000182F822FE42FF0E0EE0FFF1FE156FE4F44
:10123000408124EE429F412D1124E12FF0E050E047
:101240009A01245E3F4F281B310937FF03C03195B7
:101250002195310983E0220F331F8A95E1F7CF01F1
:10126000821B930B9C0197FF02C020E030E0219F7E
:10127000212D1124822F1F910895E42FF0E0EE0F0D
:10128000FF1FE056FE4F6081621B08950F93F72FFA
:10129000B90147FD419528E330E0D901A41BB1090C
:1012A00047FDB395AA9F9001AB9F300D300D1124DF
:1012B000669FA001679F500D500D1124240F351F0C
:1012C000E22F2230310528F19FEF213EBEE13B079E
:1012D00040F4A901E5E056954795EA95E1F798E0D5
:1012E000940F61E0A62FA90FBB27BB1FAD01559539
:1012F0004795E42F449FD001459FB00DB00D1124B8
:101300002A173B0768F49FEF940F961758F7EFEFF3
:10131000E60F6E2F660F6E0F600F7F2F0F910895EF
:101320004F3FB9F361E0640FF0CF322F50E0FA0184
:10133000EE0FFF1FE056FE4F9081905297FD919562
:10134000440F551FFA01E156FE4F2081231B330B3A
:10135000290F311D97FD3A95620F08950F93CF9392
:10136000DF93D72FC82FDA01F9019B2F90783097A0
:10137000C9F037FF04C0222733272E1B3F0BBD01C6
:10138000620F731FB7FD16C0CD01821B930B55E092
:10139000880F991F5A95E1F70E940D3590E2961B30
:1013A000F7FD9195602F690F7D2F8C2FDF91CF91E5
:1013B0000F910895CB0145E0880F991F4A95E1F7F9
:1013C000B9016A1B7B0B0E940D3590E6E8CF0F93A5
:1013D0001F93522F10E0F801EE0FFF1FE056FE4F53
:1013E000A081A052BB0B9D015203F001539FF00D51
:1013F0001124000F111FD801A156BE4F2C91205768
:10140000330B4203D001439FB00D11249F012A0FDB
:101410003B1F37FF02C0215C3F4F96E03595279573
:101420009A95E1F7620F1F910F9108950E94D30AD8
:1014300008950E94DE0A0895962F209139042370A2
:101440002223A1F0882399F0853298F48F73880FB6
:10145000880F209139042370822B809339041092D5
:10146000190160913804692B60933804089581E074
:10147000EECF84E2ECCF80913904869586958F5F1C
:10148000853208F081E061E00E941C0A0895909185
:101490003904969596958FEF890F913009F484E27F
:1014A00061E00E941C0A0895922F20913904237054
:1014B000222371F080933A0460933B044D3D08F081
:1014C0004CED40933C0420913804292B20933804A0
:1014D0000895E9E3F4E0818190E021E043816281B5
:1014E00008960E94540A0895E9E3F4E0818121E01E
:1014F000438162818850990B0E94540A0895E9E360
:10150000F4E0628120E1620F08F46FEF818121E055
:10151000438190E00E94540A0895E9E3F4E0628177
:1015200020E1621B08F460E0818121E0438190E0CA
:101530000E94540A0895E9E3F4E0438120E1420F58
:1015400008F44FEF818121E0628190E00E94540A0B
:101550000895E9E3F4E0438120E1421B08F440E010
:10156000818121E0628190E00E94540A0895E9E3BC
:10157000F4E0248130E1230F08F42FEF24838091DD
:1015800038048160809338040895E9E3F4E024810D
:1015900030E1231B08F420E024838091380481602B
:1015A000809338040895FC01EE0FFF1FE80FF91F28
:1015B000EE5EFC4F6183408322830895FF920F9378
:1015C0001F93CF93DF93182F062FF42EC0E0D0E0A7
:1015D0002F2D402F612FCE010E94D30A2196CA32AF
:1015E000D105B1F7CDB7DEB7E5E00C945735FA0178
:1015F000882311F009950895FB01FCCFFC0184813B
:10160000862381110AC082818823B9F068239085DE
:1016100093FF05C081E061110FC080E00895282F7D
:1016200022952F708F70282B962F92959F706F7038
:10163000962B81E02913F1CF089581E0FDCFE09151
:10164000F803F091F903309729F00190F081E02D33
:101650000995089580E008952091830230918402D5
:101660002817390771F09093840280938302E091E8
:10167000F803F091F903309721F00680F781E02D0F
:101680000995089520918102309182022817390727
:1016900071F09093820280938102E091F803F091BF
:1016A000F903309721F00084F185E02D0995089524
:1016B0002FB7F8948091CE039091CF03A091D003DF
:1016C000B091D1032FBF0895A4E0B0E0EAE6FBE0BB
:1016D0000C943E358FB7F8942091CE033091CF0310
:1016E0004091D0035091D10329833A834B835C838B
:1016F0008FBF69817A818B819C812496E2E00C9472
:101700005A350F931F93CF93DF93D82FC92F409152
:1017100030045091310460913204709133042FB73A
:10172000F8948091CE039091CF03A091D003B09113
:10173000D1032FBF841B950BA60BB70B843F9140A1
:10174000A105B10528F560913004709131048091B4
:1017500032049091330404EF11E020E030E0609314
:10176000D6037093D7038093D8039093D903009343
:10177000D2031093D3032093D4033093D503D09393
:101780002E04C0932F04DF91CF911F910F910895E4
:101790000E94640B02E310E020E030E0E0CF809193
:1017A0008002089508950895FC019B0180917302C1
:1017B000909174028617970740F0672B29F4809167
:1017C000E8008E778093E800C90140E0009741F47B
:1017D000411106C08091E80082FF2FC080E008958B
:1017E0002091F7032223A9F12530A9F12091E800E7
:1017F00023FD2DC02091E80022FDECCF2091E800D0
:1018000020FFE4CF3091F3002091F200009719F00F
:101810002830310558F041E02830310509F040E02A
:101820002091E8002E772093E800D0CF419140939B
:10183000F10001972F5F3F4FE9CF8091F703882395
:1018400041F0853041F08091E80083FFC3CF81E013
:10185000089582E0089583E0089580916D0287FFE6
:1018600013C08091E80082FF06C08091E8008B776A
:101870008093E80004C08091F7038111F2CF0895AE
:101880008091F7038823D9F38091E80080FFF8CF97
:101890008091E8008E77ECCF2091E4003091E50054
:1018A00095E6A9018091EC008170882331F0809148
:1018B000E80080FF06C080E008952091E80022FD46
:1018C0001BC08091F703882391F0853091F08091BF
:1018D000EB0085FD10C02091E4003091E500421737
:1018E000530701F391509111DCCF84E0089582E019
:1018F000089583E0089581E00895E8EDF0E08081A7
:101900008E7F80831092E2001092DA001092E10044
:10191000A0EEB0E08C9181608C9380818F77808382
:1019200019BCA7EDB0E08C918E7F8C9380818F7E67
:10193000808310926C020895EF92FF920F931F9391
:10194000CF938C017B010E944C0CC82F81110EC0DB
:101950008091E80085FD11C08091E8008E7780932A
:10196000E8000E944C0C882399F3C82F8C2FCF914C
:101970001F910F91FF90EF900895F801808180935F
:10198000F100F1E0EF1AF108E114F10479F30F5FCF
:101990001F4FDECFA0E0B0E0E0EDFCE00C94393565
:1019A0007C01C091050189E0C89FC02D112419E078
:1019B0001C0FD12E1B3210F08AE2D82E60913D040C
:1019C0006695669521E0620F08F46FEF80919403AD
:1019D000909195030E94E608082FD0E0CD1548F0BD
:1019E00081E01A3208F080E0CDB7DEB7E7E00C9472
:1019F0005535FE01ED50FE4F8081909106018923FF
:101A0000882391F060913A0470913B0480913C04EA
:101A1000202F4C2FF70109950E945E08462F672F53
:101A2000282FCE010E94160A2196D8CFA0E0B0E060
:101A3000ECE1FDE00C9439357C01C091050189E0B1
:101A4000C89FC02D112419E01C0FD12E1B3210F09D
:101A50008AE2D82E60913D046695669521E0620F7A
:101A600008F46FEF80919403909195030E94E6082B
:101A7000082FD0E0CD15A8F0C1E0D0E020E040E094
:101A800060E0CE010E94160A2196C231D105B1F75D
:101A900081E01A3208F080E0CDB7DEB7E7E00C94C1
:101AA0005535FE01ED50FE4F80819091060189234E
:101AB000882391F060913A0470913B0480913C043A
:101AC000202F4C2FF70109950E945E08462F672FA3
:101AD000282FCE010E94160A2196CCCFA0E0B0E0BC
:101AE000E4E7FDE00C9439357C01C091050189E003
:101AF000C89FC02D112419E01C0FD12E1B3210F0ED
:101B00008AE2D82E60913D046695669521E0620FC9
:101B100008F46FEF80919403909195030E94E6087A
:101B2000082FD0E0CD15A8F0C0E0D0E020E040E0E4
:101B300060E0CE010E94160A2196CE30D105B1F7A1
:101B400081E01A3208F080E0CDB7DEB7E7E00C9410
:101B50005535FE01ED50FE4F80819091060189239D
:101B6000882339F160913A0470913B0480913C04E0
:101B7000202F4C2FF70109950E945E08462F672FF2
:101B8000282FCE010E94160A20E040E060E08FE09E
:101B900090E00E94160A20E040E060E080E190E0E2
:101BA0000E94160A20E040E060E081E190E00E949F
:101BB000160A2196B7CFA0E0B0E0E1EEFDE00C946C
:101BC00039357C01C091050189E0C89FC02D1124E1
:101BD00019E01C0FD12E1B3210F08AE2D82E609132
:101BE0003D046695669521E0620F08F46FEF8091E1
:101BF0009403909195030E94E608082FD0E0CD153C
:101C0000A8F0C0E0D0E020E040E060E0CE010E941B
:101C1000160A2196CF30D105B1F781E01A3208F0CB
:101C200080E0CDB7DEB7E7E00C945535FE01ED500E
:101C3000FE4F8081909106018923882391F0609165
:101C40003A0470913B0480913C04202F4C2FF70103
:101C500009950E945E08462F672F282FCE010E940B
:101C6000160A2196CCCFA0E0B0E0E9E3FEE00C94A8
:101C700036355C01C091050189E0C89FC02D112453
:101C800019E01C0FC12E1B3210F03AE2C32E6091F6
:101C90003D04669580919403909195030E94E60817
:101CA000D82ED0E0CE01880F991F9C0121563E4FBF
:101CB0007901CC1548F081E01A3208F080E0CDB708
:101CC000DEB7EAE00C945235FE01ED50FE4F808104
:101CD0009091060189238823C1F0F70121812052C8
:101CE000330B40814057550B60913A0470913B048F
:101CF00080913C040D2DF50109950E945E08462F48
:101D0000672F282FCE010E94160AF2E0EF0EF11C79
:101D10002196CFCFA0E0B0E0E0E9FEE00C943635AC
:101D20005C01C091050189E0C89FC02D112419E014
:101D30001C0FC12E1B3210F03AE2C32E60913D04FD
:101D4000669580919403909195030E94E608D82EA1
:101D5000D0E0CE01880F991F9C0121563E4F79019A
:101D6000CC15A8F0C1E0D0E020E040E060E0CE017A
:101D70000E94160A2196C231D105B1F781E01A32CC
:101D800008F080E0CDB7DEB7EAE00C945235FE01F2
:101D9000ED50FE4F80819091060189238823C1F088
:101DA000F70121812052330B40814057550B609140
:101DB0003A0470913B0480913C040D2DF501099586
:101DC0000E945E08462F672F282FCE010E94160A18
:101DD000F2E0EF0EF11C2196C3CFA0E0B0E0E3EFFC
:101DE000FEE00C9436355C01C091050189E0C89F86
:101DF000C02D112419E01C0FC12E1B3210F03AE245
:101E0000C32E60913D046695809194039091950353
:101E10000E94E608D82ED0E0CE01880F991F9C01C1
:101E200021563E4F7901CC15A8F0C0E0D0E020E06B
:101E300040E060E0CE010E94160A2196CE30D10526
:101E4000B1F781E01A3208F080E0CDB7DEB7EAE002
:101E50000C945235FE01ED50FE4F808190910601A9
:101E60008923882369F1F70121812052330B4081B6
:101E70004057550B60913A0470913B0480913C04AB
:101E80000D2DF50109950E945E08462F672F282F1A
:101E9000CE010E94160A20E040E060E08FE090E072
:101EA0000E94160A20E040E060E080E190E00E949D
:101EB000160A20E040E060E081E190E00E94160A0E
:101EC000F2E0EF0EF11C2196AECFA0E0B0E0EBE621
:101ED000FFE00C9436355C01C091050189E0C89F94
:101EE000C02D112419E01C0FC12E1B3210F03AE254
:101EF000C32E60913D046695809194039091950363
:101F00000E94E608D82ED0E0CE01880F991F9C01D0
:101F100021563E4F7901CC15A8F0C0E0D0E020E07A
:101F200040E060E0CE010E94160A2196CF30D10534
:101F3000B1F781E01A3208F080E0CDB7DEB7EAE011
:101F40000C945235FE01ED50FE4F808190910601B8
:101F500089238823C1F0F70121812052330B40816E
:101F60004057550B60913A0470913B0480913C04BA
:101F70000D2DF50109950E945E08462F672F282F29
:101F8000CE010E94160AF2E0EF0EF11C2196C3CF9B
:101F9000982FE42FE2709093E900891308C0762F00
:101FA000242F50E0E11111C091E0980FF4CF70910F
:101FB000EC002091ED005091F00021FD06C09F5FE4
:101FC000973049F78093E90008953091EB003E7F08
:101FD0003093EB003091ED003D7F3093ED00309178
:101FE000EB0031603093EB007093EC002093ED0038
:101FF0005093F0002091EE0027FDE1CF0895A0E07E
:10200000B0E0E5E0F0E10C943835C8EDD0E088812F
:102010008F7E8883E7EDF0E080818160808384E0BB
:1020200082BF81E080936C0288818E7F888302EE7C
:1020300010E0F80110821092DA0081EEC82ED12C47
:10204000F601108288818F778883888180688883F1
:1020500088818F7D888319BC1092F70310926B02E0
:102060001092B20310926A0290EEE92EF12CF70161
:1020700080818B7F808388818160888342E060E0FB
:1020800080E00E94C80FF60180818E7F8083F80176
:10209000808181608083808188608083F701808176
:1020A0008E7F8083888180618883CDB7DEB7E8E04A
:1020B0000C9454356A9A3EB13B7F2EB124604FB7E1
:1020C000F89482E193E0FC010196508168E02EB91A
:1020D000000000C057FF3EB9550F000000C000C00F
:1020E00000C03EB900C06A9591F753E0803995076A
:1020F00051F74FBF8FE594E00197F1F700C0000062
:10210000089581E08093E00080E28093D8001092EF
:10211000C9008FE19EE40197F1F700C0000087E05D
:1021200090EBDC018093840490938504A093860453
:10213000B093870488E19CE00FB6F894A89580934B
:1021400060000FBE90936000FFCFCF93DF93D82F36
:10215000C92F81E08093E9008FEF9091E80095FD11
:1021600007C095ED9A95F1F7000081508111F5CFE8
:102170008091E80085FD03C0DF91CF91089540E094
:1021800050E068E070E08D2F9C2F0E949C0C8091A5
:10219000E8008E778093E80088E0ED2FFC2FA8E719
:1021A000B2E001900D928A95E1F7E6CF8093750237
:1021B00070937702609376028091F7038430F9F48C
:1021C0008093E9008FEF9091E80095FD07C095EDB1
:1021D0009A95F1F7000081508111F5CF8091E800C8
:1021E00085FF0DC040E050E063E070E085E792E0DD
:1021F0000E949C0C8091E8008E778093E8000895FF
:10220000BC0183E00E94D6100895BC0184E00E94C6
:10221000D6100895882381F06DE183E290E00E945A
:102220000C3660ED84E290E00E940C366DEE85E2A3
:1022300090E00E940C3608956FEF83E290E00E94D8
:102240000C366FEF84E290E00E940C366FEFEFCF18
:102250001F93CF93DF93962F122F632F8230D8F4E2
:102260009630C8F44131B8F4C42FD0E0CC0FDD1F54
:1022700022E2929FC00DD11D11249CEC899FC00DBC
:10228000D11D1124CE0187960E940C36612FCE01FC
:1022900088960E940C36DF91CF911F910895CF93BD
:1022A000DF93CFE0D2E060E0CE010E940C362196B1
:1022B000C11584E0D807B9F7DF91CF910895CF9386
:1022C00084E090E00E94EE35C82F82E290E00E9408
:1022D000EE35982F8C2FCF91089583E290E00E94E5
:1022E000EE358D3189F484E290E00E94EE35803D38
:1022F00059F485E290E00E94EE3591E08D3E09F0C0
:1023000090E0892F8170089580E0FCCF0F931F9398
:10231000CF93DF93823030F5663020F5413110F5F0
:10232000C42FD0E0CC0FDD1F22E2629FC00DD11D73
:1023300011243CEC839FC00DD11D1124CE01879642
:102340000E94EE35082F10E0102F0027CE0188964E
:102350000E94EE359801282BC901DF91CF911F9182
:102360000F91089580E090E0F8CF462F672F2091DD
:10237000F5033091F603232B91F4703F39F4403F7D
:1023800071F480911003909111030895823038F414
:10239000763028F4413118F40E948611089580E0C7
:1023A00090E00895A0E0B0E0E8EDF1E10C9439355B
:1023B0007C010091430480914204082BC7E0D0E0E7
:1023C00010E0C8010C2E02C0959587950A94E2F79B
:1023D00080FD09C02197A8F7D12C8D2DCDB7DEB790
:1023E000E7E00C945535DC2EB7018C2F0E94B51117
:1023F0000E94D606019771F3F0CF0F931F93CF93EE
:10240000FC01828100811181882391F0662381F093
:10241000C8010E94D211C82F682FC8010E94E5058B
:10242000B8018C2F0E94B511CF911F910F91089583
:10243000C8010E941C06C82FF3CFCF93DF93D82F7B
:10244000C92F0E94D2116D2F7C2F0E94B5110E94BE
:10245000D606DF91CF910895FC0183819481892B69
:10246000C9F08181908189238F3FA1F08081918182
:102470000E941D12282F92959F70963091F060F463
:10248000925F9F70923030F481E0203F79F030F419
:10249000283E30F080E004C09A5FF3CF243FD1F7AC
:1024A000089581E0283E18F0213FF9CF089508955E
:1024B0008091400490914404892B80935C02809128
:1024C0003F04882319F10E94580B20914804309151
:1024D0004904821B930B8838934110F00E948806B0
:1024E00080915C0290913F04892B80935C0220E0F4
:1024F0008EE592E0FC013081019631112F5F32E0D0
:1025000084369307B9F721110E94880680912A0426
:10251000809590915C02892390912904892B809366
:102520005C0248E050E06AEF73E08CE592E00E94C4
:10253000CA35892BA9F088E0ECE5F2E0AAEFB3E018
:1025400001900D928A95E1F7E091F803F091F9037B
:10255000309731F00280F381E02D8CE592E009950F
:102560000895882339F090914004892B809340048A
:102570000E9458120895882339F090914404892BC1
:10258000809344040E9458120895CF93C82F882343
:1025900099F08CEF8C0F813A88F4EEE5F2E084E656
:1025A00092E02191C217A1F18E179F07D1F78C2FCE
:1025B0000E945A060E945812CF91089580E28C0F13
:1025C000883068F4C77021E030E001C0220FCA955E
:1025D000EAF780914004822B80934004EBCF8BE597
:1025E0008C0F833038F42C2F2452330BC9010E94F6
:1025F0002C0BE2CFC85AC731F8F6EC2FF0E0EE0F03
:10260000FF1FE55DFD4F808191810E94420BD4CF79
:102610008C2F0E9473060E945812C9CFCF93DF936C
:10262000EC01805E9109089720F06BEB72E1209736
:1026300011F461EB72E1CE010E94D0058C2F0E9453
:10264000C512DF91CF910895882339F19CEF980F3F
:10265000913A28F40E9473060E945812089590E25D
:10266000980F983050F4877091E001C0990F8A95C7
:10267000EAF7892F0E948006EFCF9BE5980F9330F1
:1026800028F480E090E00E942C0B0895885A87314E
:1026900020F480E090E00E94420B08950F931F9376
:1026A000CF93C82F00E010E0893311F400E510E06B
:1026B0008C2F0E94C5120115110539F48C2F0E9430
:1026C0002413CF911F910F9108958FE99FE00197F7
:1026D000F1F700C0000001501109EDCFA0E0B0E01B
:1026E000E4E7F3E10C943935EC019881992309F47E
:1026F0009CC09130E1F599818A81913021F4229634
:102700000E944E1305C0923029F422960E94C512F1
:102710002196EBCF933021F422960E942413F8CF18
:10272000943011F02196F4CF229620E030E06AE058
:10273000AE014F5F5F4F8053990B8A30910560F077
:102740002115310529F38FE99FE00197F1F700C0CA
:10275000000021503109F4CF629FF001639FF00D1A
:1027600011249C012E0F3F1F8981EA01E1CFE92F3F
:10277000F0E0E059FE4FD490292F26952695269516
:1027800030E0F901E05AFE4F84919770F901E05B67
:10279000FE4FE490F12C092E02C0F594E7940A94C0
:1027A000E2F741E0E422FF24F901E05CFE4F0491EE
:1027B00010E0092E02C0159507950A94E2F7017002
:1027C0001127E82FF0E002C0F595E7959A95E2F71A
:1027D000E0FD0CC0E114F104A1F48D2D0E944E1314
:1027E0000115110509F494CF8CE28ACF81EE0E9485
:1027F000C512E114F10479F48D2D0E944E1381EE7F
:1028000007C086EE0E94C5128D2D0E944E1386EEE3
:102810000E942413E5CF86EE0E94C5128D2D0E94E2
:102820004E1386EE0E942413EACFCDB7DEB7E7E061
:102830000C945535882321F00E9480060E9458127E
:1028400008950F931F93CF93DF93C62FD42F122F8A
:102850008823A9F0609336040E94580B9093680275
:1028600080936702C77081E001C0880FCA95EAF7BC
:102870000E94B112DF91CF911F910F910895809125
:10288000360468133DC020916702309168024FB74B
:10289000F8948091CE039091CF03A091D003B09192
:1028A000D1034FBF821B930B883C910548F56D13F4
:1028B0000CC0812F0E944E13D77081E001C0880F99
:1028C000DA95EAF70E941A14D5CFC77001E0802F7D
:1028D00001C0880FCA95EAF70E941A1480E28D0F92
:1028E000883050F48D2F877001C0000F8A95EAF769
:1028F000802F0E94B112DDCF812F0E944E13BACFDC
:10290000C77081E001C0880FCA95EAF7DBCF882342
:1029100041F08095909144048923809344040E945F
:102920005812089580E090E00E942C0B80E090E027
:102930000E94420B109244040E9458120895109273
:102940004004EEE5F2E086E0DF011D928A95E9F7AA
:102950000E94921408950E949F142FEF84E39CE03C
:10296000215080409040E1F700C0000088E19CE0E9
:102970000FB6F894A895809360000FBE9093600006
:10298000FFCFAAE2B0E0E7ECF4E10C943D358DE630
:1029900092E0FC0101962091F100208322E085372E
:1029A0009207B9F780916E02893009F456C0C8F4D5
:1029B000823009F4B3C0833009F482C0813071F1F0
:1029C0008091E80083FFE7C080916D0290916E02D4
:1029D0009A3008F0E0C0E92FF0E0E355F94C0C9490
:1029E00021358A3009F489C08B3051F780916D020E
:1029F000813231F78091710290917202892B01F737
:102A00008091E800877F8093E8000E942D0C8091E0
:102A10006F02809304010E949F14D2CF80916D02B7
:102A2000813A71F68091E800877F8093E800809179
:102A3000710290917202892B61F060E080E090E079
:102A400070E00E94D40B8091E8008B778093E800BF
:102A5000B7CF68E088E792E0F3CF80916D028132D2
:102A600009F0AECF80917102909172028D7F892B17
:102A700009F0A6CF8091E800877F8093E8008091DD
:102A8000E80082FF18C09091F3008091F200029755
:102A900031F48091F100813011F0863021F4809181
:102AA000F100809380028091E8008B778093E800AA
:102AB0000E942D0C85CF8091F7038111E0CF80CF4C
:102AC00080916D02813A09F07BCF809171029091E3
:102AD0007202892B09F074CF8091E800877F809380
:102AE000E8008091E80080FFFCCF80910401809392
:102AF000F1008091E8008E77D9CF80916D0281320C
:102B000009F05ECF8091E800877F8093E8000E9403
:102B10002D0C809170028093690252CF80916D02DA
:102B2000813A09F04DCF8091E800877F8093E800DB
:102B30008091E80080FFFCCF80916902D8CF803877
:102B400089F0823841F5809171028F70873018F5D5
:102B50008093E9008091EB0085FB882780F9109233
:102B6000E90006C080916A029091B20391118260DF
:102B70009091E800977F9093E8008093F100109285
:102B8000F1008091E8008E7723C0811116C08091FA
:102B90006F02813011F18091E80083FF0AC08091BB
:102BA000E800877F8093E8008091EB00806280934B
:102BB000EB00AA96E3E00C945935823061F78091DE
:102BC0006F02882389F01092E9008091E800877FE6
:102BD0008093E8000E942D0CDECF81E0933009F055
:102BE00080E08093B203EFCF809171028F702FEF5E
:102BF000280F263080F68093E9002091EB0020FF1B
:102C0000E2CF933031F48091EB0080628093EB004F
:102C1000DACF9091EB0090619093EB0021E030E0EF
:102C2000A90102C0440F551F8A95E2F74093EA00BC
:102C30001092EA008091EB008860E8CF8111ABCF61
:102C400010916F021F778091E3008078812B809331
:102C5000E3008091E800877F8093E8000E942D0CBC
:102C60008091E80080FFFCCF8091E3008068809332
:102C7000E30083E0111101C082E08093F7038BCF62
:102C80008058823008F087CF40916F0250917002D7
:102C90004C3D83E0580799F583E08A838AE2898373
:102CA0004FB7F894DE01139620E03EE051E2E32FA7
:102CB000F0E050935700849120FF03C082958F70FD
:102CC0003F5F8F708A30C8F0895C90E08D939D9350
:102CD0002F5F243161F74FBF8091E800877F809399
:102CE000E8006AE270E0CE0101960E94D40B809168
:102CF000E8008B778093E8004ECF805DE6CF80912F
:102D0000710290917202252F33272330310509F487
:102D10004AC078F52130310509F483C08BE590E095
:102D2000E0EFF1E02230310509F035CF2091E800E5
:102D3000277F2093E800209173023091740282175C
:102D4000930708F49C0140E02115310509F06EC09D
:102D500041116CC08091E80082FDC9CF8091F703DA
:102D6000882329F2853019F28091E80083FFF2CFA1
:102D7000BECF2132310509F445C02232310509F0B8
:102D80000ACF8330910508F006CFFC01EE0FFF1F3C
:102D9000E35DFE4F0190F081E02D865D9E4FDC01EA
:102DA0008C9190E010C0CA019927423019F183300C
:102DB000910568F4892BB1F4EBEBF2E0E4918E2FEE
:102DC00090E0EBEBF2E0009709F4E5CEAFCF03978C
:102DD00009F0E1CEEDE5F2E0E4918E2F90E0EDE533
:102DE000F2E0F1CFE7E9F2E0E4918E2F90E0E7E93D
:102DF000F2E0E9CFEBE7F2E0E4918E2F90E0EBE731
:102E0000F2E0E1CF8330910508F0C5CEFC01EE0F72
:102E1000FF1FED5CFE4F0190F081E02D89E090E016
:102E200085CF82E190E0EBE4F2E080CF8091F70380
:102E3000882309F45CCF853009F459CF8091E800EC
:102E400083FD55CF8091E80082FD84CF8091E8001A
:102E500080FF7ACF9091F3008091F2002115310527
:102E600019F08830910550F041E0089709F040E0F2
:102E70008091E8008E778093E80066CF449140937C
:102E8000F1003196215031090196E8CF803809F0E0
:102E900082CE8091E800877F8093E80080916B026A
:102EA0008093F1006ECE811176CE10916F021230B8
:102EB00008F071CE8091E800877F8093E80010933E
:102EC0006B020E942D0C1123D1F084E08093F70354
:102ED00042E061EC81E00E94C80F42E261EC84E0D4
:102EE0000E94C80F42E261EC82E00E94C80F42E2F9
:102EF00060EC83E00E94C80F8091F7034CCE809174
:102F0000E30087FDE2CF81E0E1CF809342040E949D
:102F100092140895809343040E949214089521E02E
:102F200030E001C0220F8A95EAF780914304822B9A
:102F30000E948A1708959091830492FF10C098E030
:102F4000899F90011124622B609345040E948F1782
:102F50000E94580B909347048093460408950E9462
:102F60008F17089521E030E0A90102C0440F551FDA
:102F70008A95E2F7CA0180959091430489230E94C3
:102F80008A170895209145048095822380934504F3
:102F9000982F9770911117C030E0482F082E000C21
:102FA000550B2417350779F09091830492FF0BC0DD
:102FB0008595859585950E94B217109245041092CB
:102FC0004704109246040895CF93C0918304C2FB36
:102FD000992790F9981791F080FBC2F9C093830468
:102FE0006091820484E090E00E940C366C2F82E2B3
:102FF00090E00E940C3682E00E94C217CF910895A3
:1030000080914304982F9670963021F488600E9436
:103010008A170895877FFBCF1F93CF93DF93182FD5
:10302000A0912C04B0912D04109709F44AC010927D
:103030002F0410922E0410922A041092290416963E
:10304000CD91DC911797CE019A9581159F4108F497
:10305000D07ED1E0C11101C0D0E01996ED91FC9174
:103060001A97309731F01B966D917C9180E009950D
:10307000D823DD2339F08CEF8C0F813A30F58C2F7B
:103080000E9473061123A9F0E0912C04F0912D0405
:10309000808584FD0EC080912B04882351F08081AF
:1030A00091819C0121503109203B3D4510F40E9443
:1030B000810B0E94581210922D0410922C04109231
:1030C0002B04DF91CF911F9108950E9458128C2FED
:1030D0000E942413D7CFAAE0B0E0E1E7F8E10C9416
:1030E000343508E912E086E8C82E82E0D82E9FEB3E
:1030F000E92EFF24F39427E0922E35E8A32E32E048
:10310000B32E88248394D6010D931D936D014AE05C
:1031100050E0B701CE0101960E94DE35F8013896E5
:10312000DF01892D1D928A95E9F789819A81D8015D
:1031300011969C938E938F8112968C9312978D810A
:1031400013968C931397888514968C93149789857E
:1031500015968C9315978B819C8117969C938E93D3
:1031600016978A8587FD04C01E96BC92AE921D9765
:1031700080FF02C0F801808681FF07C0D801189641
:103180009C911897926018969C9382FF04C0F80156
:1031900090859460908783FF07C0D80118969C9112
:1031A0001897986018969C9384FF04C0F801908546
:1031B0009061908785FF07C0D80118968C91189769
:1031C000806218968C93015F1F4FBAE0EB0EF11CE2
:1031D000EFE0EE16E2E0FE0609F095CF2A96ECE06D
:1031E0000C945035AAE0B0E0E8EFF8E10C943335E8
:1031F000C0901601D090170181E090E090931701E4
:1032000080931601812C912C712C5401F12C15C046
:10321000F801259134914E2D6F2D872D0E94281194
:103220000E5F1F4FE39481E1E812F2CFA1E1AA0EF5
:10323000B11CF394B6E0FB1639F08501000F111FA5
:1032400001541D4FE12CE4CF86E6880E911C7110CD
:1032500003C077247394D9CFFE01319689E0DF0152
:103260001D928A95E9F78FEF9FEF9E838D8387E00C
:103270008A870FEB11E07F014AE050E0B801C701F7
:103280000E943036065F1F4F0F30B2E01B07A1F7D8
:10329000D0921701C09216012A96EDE00C944F359A
:1032A00080E00E940A1160E086E290E00E940C3605
:1032B0000E94F2180E944F1181E00E940A110895A5
:1032C00068EE7EEF80E090E00E942A3660E082E0C7
:1032D00090E00E940C3660E083E090E00E940C36A3
:1032E0001092420460E084E090E00E940C3664E0BA
:1032F00082E290E00E940C3660E085E090E00E945F
:103300000C3660E086E090E00E940C366FEF87E0BC
:1033100090E00E940C3640E050E0BA0188E090E076
:103320000E941E3660E08DE090E00E940C3640E086
:1033300050E0BA0188E190E00E941E3660E087E12B
:1033400090E00E940C3640E050E0BA018CE190E041
:103350000E941E3660E070E080E290E00E942A3613
:1033600040E050E0BA0188E190E00E941E3680E023
:103370000E940A110E94501940E050E0BA018FE00B
:1033800090E00E941E3640E050E0BA0183E190E0F8
:103390000E941E360895A5E0B0E0E1EDF9E10C943D
:1033A0002E357C01DC019C9111968C91119713961E
:1033B0002D913C91232B09F4FDC089238F3F09F403
:1033C000F9C061E0C7010E94FD118C01F701528034
:1033D000552009F438C782519F45409718F10031B4
:1033E000FFE51F0709F4D0C001312FE5120709F4EA
:1033F000E9C00F352DE5120709F4E6C000364DE5AA
:10340000140751F00E355DE5150709F0E1C0809114
:103410001801882309F4D8C01092180180E00E9496
:103420000C18B7C08FEF93E00E94EE358111B1C048
:103430005EEED52ED00E0FE012E0D1103BC0809191
:103440001A0190911B01A0911C01B0911D0189836B
:103450009A83AB83BC8368018FEFC81AD80AC8016E
:103460000E94EE3589831A82882309F492C0813044
:1034700009F084C0580192E0A90EB11CC6010E9457
:10348000EE35D82E8A83882309F483C0C5010E94B3
:10349000EE35C82E8FEF8D0D8330D0F4CB82CC204B
:1034A00021F0CE0101960E946E135801A3E0AA0EEE
:1034B000B11C3CC0011544E0140709F46AC0C801FE
:1034C0000E94EE350F5F1F4F8111F4CFDA94B5CF14
:1034D0008BEF8D0D833060F55801B3E0AB0EB11C5E
:1034E000CB82CC2019F1C5010E94EE358C83882354
:1034F000C9F0AB80BC80E1E0AE16EFEFBE0610F085
:10350000BA2CAA24F6E0DF1651F027E0D21619F003
:10351000C5010E947523C5010E94992303C0C501FE
:103520000E947523580154E0A50EB11C850193CF6C
:1035300044E0D412FBCF580154E0A50EB11CC801E1
:1035400003960E94EE35CC2021F1882311F18150A1
:10355000990B4FEF489F9001499F300D1124AC2DDE
:10356000A150BB0B2A0F3B1F21503109F8F2EFE9A4
:10357000FFE03197F1F700C00000F6CFCE010196D1
:103580000E946E135601D2CF81E00E948F170E94D5
:103590000018809145048770882361F0D701129646
:1035A0008C91882339F08091830482FF03C082E0EC
:1035B0000E94C2172596E2E10C944A3581E00E94F0
:1035C000B217E5CF82E0E1CF81E080931801E1CF2F
:1035D00080911801882309F4FAC0480180EE881A06
:1035E00091084090410480914004482A80913F0412
:1035F000482A98E08916910408F0C9C098012770FC
:10360000332781E090E001C0880F2A95EAF7552022
:1036100009F4BAC0482AD7018D919C910E941C06DA
:1036200021E030E0190102C0220C331C8A95E2F738
:1036300060902C0470902D041D82BD81EB2FF0E072
:10364000EE0FFF1FEA57FD4FC080D180C114D10497
:1036500009F44AC1411004C0F6018281811114C1EC
:10366000D60113968C91139790E082219321892B98
:1036700009F40AC118968C91982F97709111F6C091
:10368000B8E08B16910408F003C15110F7C0F601A1
:10369000A080B1800A151B0509F4F6C0C614D70432
:1036A00009F4F2C0D6011D96ED91FC91309721F0FE
:1036B0008081882309F4E8C0642DC6010E94FE0AB7
:1036C000882309F4E1C00A151B0511F4511005C047
:1036D000A114B10409F0E4C0512C80E00E940C1840
:1036E000D0922D04C0922C0481E080932B04F6012B
:1036F000858180932A0451100DC0AB2859F0808138
:1037000091819C0124503109213A310508F0D0C043
:103710000E947306F601A680B780C5019A958115AF
:103720009F4110F420EEB22277247394C5010197D3
:10373000803B9D4508F0712CD6011996ED91FC91C6
:103740001A97309731F01B966D917C9181E0099525
:10375000782281E05826772009F4C3C0F6018681DB
:1037600097810E94A60580932904C501F8E08F1671
:10377000910408F0A0C00E94810B0E9458125110C1
:1037800029C10E94581205CF8095482244CF51107C
:103790005AC080913404909135040817190781F4B8
:1037A00010923504109234041092300410923104B7
:1037B000109232041092330410922F0410922E04AF
:1037C000E0912C04F0912D04309709F0B5C0D70199
:1037D00012968C91033FBCE51B0709F4F0C008F07A
:1037E000CBC0083DFCE51F0709F4E5C0093D2CE509
:1037F000120709F4ECC0073D4CE5140709F4D5C0E5
:10380000882309F419C11092360406319CE5190782
:1038100008F0A7C10230ACE51A0708F4DEC20E9426
:103820005F119093830480938204F801E350FC4578
:10383000809182048160E331F10508F0EBC0E95426
:10384000F94C0C94213510933504009334040E94F4
:10385000640B60933004709331048093320490932E
:10386000330410922F0410922E04D5CEE8E08E1669
:10387000910488F4552031F081FF06C0D601AD9047
:10388000BC900CCF82FD03CF9D819F5F9D83D5CEE1
:103890005110F4CFF9CF5520B9F380FFF5CFEECF1B
:1038A00080913404909135048A159B0569F714CFF3
:1038B0000E9424132FCF0497813A910530F48A2D6A
:1038C0000E945A06511083CF5CCF0E9458128FE39A
:1038D0009CE90197F1F700C000008A2D0E94C512F3
:1038E000F1CF0E945812EECF6114710409F46FCF2A
:1038F000A8E08A16910460F5642DC3010E94FE0AB7
:10390000811168C081E00E940C18F7018281811149
:10391000A0C0809140048272023CECE51E0708F4CE
:10392000AEC0F801E25CFC45E431F10508F0A7C047
:10393000E653F94C0C9421358081918108171907C1
:1039400009F045CF10922B0480E00E940C183FCF65
:10395000D3018D919C9111970817190739F45520BF
:1039600089F318968C9185FD32CFEECF552009F45E
:103970002ECFF3018085F7CF053F5CE5150719F1E0
:1039800027E245EE66EE063F9CE5190789F027E23F
:1039900045EE64EE043FACE51A0751F08111D9C041
:1039A0000D35100709F4F5CD6AC026E241EE61EE4F
:1039B0000E942114EECD27E245EE65EEF9CF26E216
:1039C00041EE60EEF5CF26E241EE62EEF1CF28E265
:1039D00041E0F3CFF701828181110DC00631FCE592
:1039E0001F0709F096CF809137048111A9C189E2A0
:1039F0000E947306C6CE1092360401362DE51207DA
:103A000009F003CF0E945F1190938304809584FB9B
:103A1000809584F9809382046091820410918304DC
:103A200084E090E00E940C36612F82E290E00E94D8
:103A30000C360E949F14ADCD06314CE5140799F267
:103A4000809140048272063DACE51A0708F0A8CFC9
:103A500063CF1092360402368DE5180708F4D5CEF0
:103A6000053ABDE51B0709F492C0C8018D5A9D4572
:103A7000039708F495C0073A1D4509F4C7C1F7013B
:103A80008281C080D180882309F4C4C1C6010E940C
:103A9000D211182F682FC6010E94E505B601812FAB
:103AA0000E94B5110E94D6068C01D7011296CC90C7
:103AB00012971596BC90B2942FE0B22280914504E3
:103AC00087708823C1F0AC2CCC20B1F0812F807F8F
:103AD000803421F080E2800F883068F08091830488
:103AE00082FF09C082E00E94C2178091450487705E
:103AF000AA24A3948111A12C812F82958F708830E4
:103B000009F490C208F0A7C1843008F088C1B12F31
:103B1000BF70DB2E823008F4AFC1107F103219F075
:103B2000D29480EFD822002309F4DDC1013009F4DA
:103B300041C2CC2009F44AC2BB2009F418C2D70103
:103B400015968C91159780FFADC18F7015968C934B
:103B50000EC21092360401365DE5150709F07BCFE1
:103B600051CFC8018A5F9C45099708F0BFC00E94E9
:103B70005F119093830480938204F801EB5FFC450E
:103B8000E830F10578F5E252F94C0C9421350E94A9
:103B90005F1190938304809580FB809580F93ACFE4
:103BA0000E945F1190938304809382048091830428
:103BB00088600D3AFDE51F07C1F00E3A2DE51207AA
:103BC00009F08DC080918304877F0FC080918204AB
:103BD000826020CF8091820484601CCF8091820417
:103BE000886018CF8091830481608093830414CF10
:103BF000809183048260F9CF8091820480610ACF32
:103C000080918204806206CF80918204806402CF1A
:103C10000E949F14809182048068FCCE809182046F
:103C20008C60F8CE809183048360DFCF8091820422
:103C30008E7FF0CE809182048D7FECCE80918204C5
:103C40008B7FE8CE80918204877FE4CE80918304CD
:103C50008E7FCBCF809183048D7FC7CF80918204EC
:103C60008F7ED8CE809182048F7DD4CE80918204C5
:103C70008F7BD0CE0E949F14809182048F77CACE12
:103C800080918204837FC6CE809183048C7FADCFE8
:103C90008091820482FB992790F921E0922790FB82
:103CA00082F990FB83F9B6CE80918304982F90958A
:103CB00091708E7F892B90FB81F997CF0E949F1482
:103CC00090918204892F97FB87F98058A3CE61E0F9
:103CD0008EE090E00E940C369FCE60E0F9CF90918C
:103CE0008304892F877F93FF88607FCF06314CE55F
:103CF0001407A9F00B355DE5150709F489C008F430
:103D000068C00C351D4509F0BACE8091830482FB52
:103D1000882780F991E089270E94E417B0CE80912E
:103D200040048A7A91E0811101C090E090933704B9
:103D3000882321F085E30E945A0623CD89E2FBCF38
:103D400085E356CE8091390491E089278093390428
:103D5000109219018091380481608093380419CC45
:103D600047E45AE06BE37AE00E94F70A12CC4BE397
:103D70005AE067E47AE0F8CF44E75AE069E67AE08F
:103D8000F3CF49E65AE064E77AE0EECF4DE85AE037
:103D90006FE77AE0E9CF4FE75AE06DE87AE0E4CFE9
:103DA00049EA5AE06BE97AE0DFCF4BE95AE069EA89
:103DB0007AE0DACF45EC5AE067EB7AE0D5CF47EB13
:103DC0005AE065EC7AE0D0CF61E081E00E941C0A05
:103DD000E0CB0E3DFCE51F07B9F081E00A352DE58B
:103DE000120709F499CF01151C4509F048CE0E942D
:103DF0009F145FEF84E39CE0515080409040E1F7D6
:103E000000C000000E9481100E9460190E94AB1443
:103E100080E082CFC6010E941C06182F3FCE84305E
:103E200009F4E5C0AA2009F4D7C18091450480FDBA
:103E3000D3C1F70112828595859585950E948F17CC
:103E4000C7010E94CB19809145048595859585957C
:103E50000E94B217C1C1893009F455C18A5F8F70C1
:103E6000823000F7023F09F05FC1812F8F71C110CE
:103E700058C10E948F1703C1103118F0D29490EFEF
:103E8000D922CC20B9F0DD2069F080E2800F8830A3
:103E900010F0011109C0809140048D2980934004E5
:103EA0000E945812802F2FC0809144048D29809346
:103EB0004404F6CF802F0E942413DD2009F4B2CFF2
:103EC00080E2800F883010F0011104C08D2D0E9417
:103ED000800606C0D094809144048D2180934404D0
:103EE0000E9458129FCF9091830492FD16C0CC205F
:103EF00069F0DD2039F0809140048D2980934004E1
:103F00000E94581280E00E94C5128CCF80E00E946F
:103F10002413DD2009F486CFD9CFCC2051F1B11084
:103F200006C080913F048D290E94B1127BCFE1E051
:103F3000BE1211C080913F0492FF74CFD82AD816C8
:103F400009F470CF0E94580B909349048093480461
:103F5000D0923F0467CFF5E0BF12E3CF0E948806FE
:103F6000909141048D2D892B8913809341048D2DCF
:103F7000DBCFB11003C00E94880613C021E0B2124B
:103F800014C0809140048D21882309F44BCF0E94F6
:103F90008806909141048D2D809589238913809303
:103FA00041048D2D0E941A143DCF45E0B41609F44A
:103FB00039CFE1CFCC2029F055E05B1508F432CFA2
:103FC000D6CF84E08B1508F42DCFEBCFBB2049F37F
:103FD000093349F4BFEFE7EEF3E0B150E040F040C1
:103FE000E1F700C00000802F0E9424131BCF812F17
:103FF000869586958370882361F0813009F012CF11
:10400000C8019370C11002C080E090E00E94420B92
:1040100009CFC8019370C11002C080E090E00E94F7
:104020002C0B00CF812F8370811136C0C11027C0A7
:10403000402F429546954770440F440F802F8F7054
:10404000042E01C0880F0A94EAF70071002341F0A2
:104050002FE030E001C0220F4A95EAF7022F0095C9
:10406000169516951370123091F0133071F020915F
:104070004204113049F0802B82230E9485170E9450
:104080001F0B0E94DA05CECE822B802BF6CF802B21
:10409000909142048927F1CFCC2051F110FFEFCF4E
:1040A000402F429546954770440F440F802F8F70E4
:1040B000042E01C0880F0A94EAF70071002341F032
:1040C0002FE030E001C0220F4A95EAF7022F009559
:1040D000169516951370123089F0133069F02091FF
:1040E0004304113041F0802B82230E948A17C7CFEE
:1040F000823028F2D5CF822B802BF7CF802B909166
:1041000043048927F2CF1F70CC2039F0812F0E9401
:104110008F17802F0E94B112B2CF802F0E941A14E5
:10412000812F0E94B217ABCF033F70F4003FB9F06C
:10413000013FB9F1CC2009F474C0BB2009F46EC072
:10414000802F0E94C5129BCF033FD9F0043F29F175
:10415000C110F3CFB11073C0812F8F71E2CFCC208B
:1041600069F024E02B1508F48ACF1F7181E090E0FC
:10417000012E01C0880F0A94EAF7C1CF45E0B416BA
:10418000F2CF80E0CC2009F4B0CF1F7181E0012E86
:1041900001C0880F0A94EAF7A8CF8091830482FDBA
:1041A00006C0812F8F71CC2009F4BBCF62CECC200A
:1041B00021F1809145048770843099F41092450470
:1041C0001092470410924604812F8F710E94B217FB
:1041D0000E941F0B0E94DA0560E0C7010E94FD11DA
:1041E000E9C954E05B15A0F31F71812F0E948F175E
:1041F00063E0812F0E949B17EBCF84E08B1550F476
:1042000010924504109247041092460464E0812FF6
:104210008F71F0CF81E00E94C217DACF812F8F71AA
:1042200028CEBB2009F498CF093349F49FEFA7EEBD
:10423000B3E09150A040B040E1F700C00000802FF3
:104240000E9424131CCF8031FFE59F0709F4B6C9F3
:1042500081319F4509F0BCC982E0B1C91F93CF935A
:10426000DF9380918104803108F04CC080917E04FE
:10427000882309F447C080914B0420914A0460913F
:104280007C0430917D04C0917F04D0918004732F11
:1042900076232817B9F190E0209709F443C016E07F
:1042A0007F3F09F43FC0189FF001199FF00D1124C2
:1042B000DF01A45BBB4F11964C91119734132CC0B6
:1042C0004C91461329C012964C91129741111EC071
:1042D00013964D915C914C1B5D0B483C5105E0F4ED
:1042E000809181048F70806180938104EF5AFB4F2D
:1042F00080818F70806180838CE794E00E94CB196D
:104300000E945006DF91CF911F910895019687700A
:1043100099272813C8CFF6CF0196877099272813BD
:10432000BFCFF0CF01968770B4CFABE0B0E0EBE940
:10433000F1E20C9434358C0185E0F801DE0117962A
:1043400001900D928A95E1F7F801C280A380B480B4
:104350008CE7882E84E0982E80917C0490917D04D7
:1043600020917F04309180042115310509F40CC19E
:10437000492F48234F3F09F407C1D0907E04A5017F
:10438000421B530BDD2009F4D2C0F0908104483C5D
:10439000510508F0ACC021815FE05F1508F46BC0E7
:1043A000EC2C291313C09081981310C0C1101EC0AB
:1043B0008F2D8F70806180938104C4010E94CB197E
:1043C00080918104F8018583E12C50C08F8198850C
:1043D000A114B10489F0282F29232F3F69F0E0911F
:1043E0004B0420914A0436E0CC20E1F08091810416
:1043F000816080938104E8CFCC2031F3F7CF4E2F3A
:1044000050E03E9FF0011124E45BFB4F6181691392
:1044100006C06081681303C062816111D5CFFA01C3
:104420003196E770E213EBCF8F8198850E941D12C1
:10443000292F22952F70903248F49F70992311F004
:104440008823A1F0805E883088F004C0225F2F703E
:10445000223028F0C8010E94CB19ED2C07C09F70B4
:10446000992381F3F8019581903160F78E2D2B9679
:10447000ECE00C945035291312C0908198130FC0B2
:10448000C1100DC0F582C8010E94CB1986E0F80169
:10449000ACE7B4E001900D928A95E1F725C0C80120
:1044A0000E942C12882309F46BC0CC2009F468C048
:1044B00080918104803270F080917C0490917D0421
:1044C0009A8389831B82BD82AC82FE82CE010196D3
:1044D0000E94CB1986E0F801ACE7B4E001900D92A0
:1044E0008A95E1F70E942E21EE24E394BFCFFFE0EE
:1044F000FF1550F08CE794E00E94CB1986E0F401A0
:1045000011928A95E9F760CFF80121819213C7CF04
:1045100090819813C4CFC110C2CFF582C8010E9408
:10452000CB1986E0F40111928A95E9F7DDCF483C7A
:10453000510520F7CC2021F12181921317C09081E1
:10454000981314C08091810480FDA0CF803108F4BD
:104550009DCF8583807F803F09F495CF8581982FFB
:10456000907F905F8F70892B85838DCFC8010E94CB
:104570002C128111AFCF80918104816080938104DE
:10458000C8010E94CB19B0CFCC20D1F3C8010E9442
:104590002C128823A9F39ECFA7E1B0E0E2EDF2E26E
:1045A0000C943D354B8B5C8B162F6D8B7E8B8F8BDC
:1045B0006111109244041A8A85E0FE017396DE01AF
:1045C0001D9601900D928A95E1F78091830482FFF8
:1045D0001FC00E94580B2091460430914704821B53
:1045E000930B8838934138F08091450482FD03C0D5
:1045F00082E00E94C2170E94580B2091480430911B
:104600004904821B930B8838934110F00E9488065E
:104610001F8786E0FE013D96DE01179601900D9200
:104620008A95E1F7CE0107960E949521811113C06A
:1046300086E0FE013796DE01119601900D928A9573
:10464000E1F78F81988520914A0440914B046A8557
:104650007B85672B59F416E080914B0490914A04B6
:10466000891331C06796E3E00C94593589238F3F55
:1046700091F330E0C90101968770992750E08417C3
:10468000950771F40E949F1410924A0410924B04F3
:1046900086E0ECE7F4E0DF011D928A95E9F7DBCFD5
:1046A00096E0929FD001939FB00D1124A45BBB4F65
:1046B000FE01319601900D929A95E1F780934A049C
:1046C0000E945006C8CF189FC0011124845B9B4FE5
:1046D0000E949521882331F280914B0490E001964D
:1046E0008770992780934B04B7CFA5E0B0E0EBE744
:1046F000F3E20C943E3590931103809310038115DF
:1047000020E2920730F40E940E132596E2E00C940A
:104710005A3580EF89838A8381E08B830E94580B0E
:104720008160782F49815A816B81892F0E94CC2228
:10473000ECCFA5E0B0E0EFE9F3E20C943C358C015E
:104740009093110380931003011580E21807B0F4D1
:10475000802F0E942413C801805E9109089728F0D9
:1047600067E874E10115110511F46AE174E1C8010B
:104770000E94D0052596E4E00C94583580EF89839B
:104780008A831B820E94580B8160782F49815A814D
:104790006B81892F0E94CC22EDCFA0E0B0E0E3ED49
:1047A000F3E20C943935EC01FC01ED50FE4F8081B1
:1047B000909106018923882349F1D0903B04009110
:1047C0003C0410913A04E12EF12C0E94B135482F9F
:1047D000C7018C549F4F68E671E00E940D358E1919
:1047E0009F0997FD039695958795959587954370B5
:1047F000612F489F600D11247D2D802F0E945E083F
:10480000462F672F282FCE010E94160ACDB7DEB79C
:10481000E7E00C945535A0E0B0E0E1E1F4E20C945F
:104820003935EC01FC01ED50FE4F8081909106017D
:1048300089238823A9F1D0903B0400913C04109176
:104840003A04E12EF12C0E94B135482FC7018C5457
:104850009F4F68E671E00E940D358E199F0997FD04
:10486000039695958795959587954370612F489FF9
:10487000600D11247D2D802F0E945E08462F672F2A
:10488000282FCE010E94160AC1E0D0E020E040E0CF
:1048900060E0CE010E94160A2196C231D105B1F71F
:1048A000CDB7DEB7E7E00C945535A0E0B0E0EBE51E
:1048B000F4E20C943935EC01FC01ED50FE4F80819F
:1048C000909106018923882309F44AC0D0903B04C3
:1048D00000913C0410913A04E12EF12C0E94B13574
:1048E000482FC7018C549F4F68E671E00E940D3538
:1048F0008E199F0997FD03969595879595958795B0
:104900004370612F489F600D11247D2D802F0E94E0
:104910005E08462F672F282FCE010E94160A20E03E
:1049200040E060E08FE090E00E94160A20E040E066
:1049300060E080E190E00E94160A20E040E060E044
:1049400081E190E00E94160AC0E0D0E020E040E063
:1049500060E0CE010E94160A2196CE30D105B1F753
:10496000CDB7DEB7E7E00C945535A0E0B0E0EBEB57
:10497000F4E20C943935EC01FC01ED50FE4F8081DE
:104980009091060189238823A9F1D0903B040091DE
:104990003C0410913A04E12EF12C0E94B135482FCD
:1049A000C7018C549F4F68E671E00E940D358E1947
:1049B0009F0997FD039695958795959587954370E3
:1049C000612F489F600D11247D2D802F0E945E086D
:1049D000462F672F282FCE010E94160AC0E0D0E094
:1049E00020E040E060E0CE010E94160A2196CF3020
:1049F000D105B1F7CDB7DEB7E7E00C945535A4E0AB
:104A0000B0E0E5E0F5E20C9435358B83809115013B
:104A10002B81821326C020913904237030E040910D
:104A2000140150E081E02417350709F480E081701B
:104A30008093070180913E0490910601981739F008
:104A40008093060140E060E080E00E94190A3B810B
:104A5000353208F0B5C6E32FF0E0EA51F94C0C947A
:104A6000213581E0E4CF80910701882309F476C7DE
:104A700040E060E080E00E94190A809105018F5FAC
:104A80008093050182E080931901809107018823BA
:104A900009F469C72496EBE00C94513500910501A7
:104AA00089E0089F002D1124800F8983C82E8B3246
:104AB00010F05AE2C52E60913A0470913B04809147
:104AC0003C040E945E08F62EE72ED82E10E00C154E
:104AD00020F081E09981993271C0F801ED50FE4FCC
:104AE0008081909106018923882331F02D2D4F2D4F
:104AF0006E2DC8010E94160A0F5F1F4FE8CF60910C
:104B00003A0470913B0480913C040E945E08F62EAA
:104B1000D72EC82E0091050189E0089F002D112491
:104B2000E9E0E00FE983EE2EEB3210F04AE2E42EEA
:104B300010E00E1538F002E110E00E1560F081E093
:104B4000F9816CC520E040E060E0C8010E94160ACF
:104B50000F5F1F4FEECF2C2D4F2D6D2DC8010E94E2
:104B6000160A2C2D4F2D6D2D80E090E00E94160A24
:104B70000F5F1F4FE2CF60913A0470913B04809128
:104B80003C040E945E08F62ED72EC82E0091050127
:104B900089E0089F002D112429E0200F2983E22EAF
:104BA0002B3210F03AE2E32E10E00E1558F002E13D
:104BB00010E00E1580F081E039813A3208F4BDC171
:104BC00080E0BBC120E040E060E0C8010E94160A1E
:104BD0000F5F1F4FEACF2C2D4F2D6D2DC8010E9466
:104BE000160A2C2D4F2D6D2D8EE090E00E94160A96
:104BF0000F5F1F4FDECF60913A0470913B048091AC
:104C00003C040E945E08E62ED72EC82E00910501B6
:104C100089E0089F002D1124800F8983F82E8B32A4
:104C200010F02AE2F22E10E00F1570F00FE010E005
:104C30000F1508F04ECF2C2D4E2D6D2DC8010E9462
:104C4000160A0F5F1F4FF4CF20E040E060E0C8017C
:104C50000E94160A0F5F1F4FE7CF0091050189E000
:104C6000089F002D1124E9E0E00FE983CE2EEB32FE
:104C700010F09AE2C92EF0903A0410913B04E090B3
:104C80003C0460913D046695669566958091940319
:104C9000909195030E94E6080E94F008805887FDD5
:104CA0008195880F282F3E2D239F212D1124822F9F
:104CB0006F2D712F0E945E08F62EE72ED82E10E081
:104CC0000C1508F006CFF801ED50FE4F8081909151
:104CD00006018923882331F02D2D4F2D6E2DC8011B
:104CE0000E94160A0F5F1F4FEBCF0091050189E06C
:104CF000089F002D1124E9E0E00FE983EE2EEB324E
:104D000010F08AE2E82E10913A04F0903B04D09023
:104D10003C0460913D046695669566958091940388
:104D2000909195030E94E6080E94F008805887FD44
:104D30008195880F282F3D2D239F212D1124822F0F
:104D4000612F7F2D0E945E08D62EF72EC82E10E010
:104D50000E1580F005E0A02E02E0B02E02E110E07A
:104D60000E1588F02C2D4D2D6F2D80E090E00E94C7
:104D7000160AE5CE20E040E060E0C8010E94160A75
:104D80000F5F1F4FE5CFF50181915F019091060103
:104D90008923882331F02C2D4D2D6F2DC8010E94C1
:104DA000160A0F5F1F4FDCCF0091050189E0089FB5
:104DB000002D112429E0200F2983E22E2B3210F040
:104DC0001AE2E12E10913A04F0903B04D0903C049A
:104DD00060913D04669566956695809194039091E7
:104DE00095030E94E6080E94F008805887FD81958F
:104DF000880F382F2D2D329F312D1124832F612FB5
:104E00007F2D0E945E086B01F82E10E00E1570F0E9
:104E1000B5E0AB2EB2E0BB2E02E110E00E1578F04B
:104E20002F2D4C2D6D2D8EE090E0A1CF20E040E0A5
:104E300060E0C8010E94160A0F5F1F4FE7CFF5011F
:104E400081915F01909106018923882331F02F2DF4
:104E50004C2D6D2DC8010E94160A0F5F1F4FDECF2B
:104E60000091050189E0089F002D112429E0200F01
:104E70002983F22E2B3210F0AAE2FA2EE0903A04A7
:104E800010913B04D0903C0460913D04669566957A
:104E9000669580919403909195030E94E6080E9484
:104EA000F008805887FD8195880F382F2D2D329F6F
:104EB000312D1124832F6E2D712F0E945E08E62E56
:104EC000D72EC82E10E00F15D0F0F2E0AF2EF2E092
:104ED000BF2E0FE010E00F1508F031CEF5018191E3
:104EE0005F01909106018923882331F02C2D4E2DEE
:104EF0006D2DC8010E94160A0F5F1F4FECCF20E0F6
:104F000040E060E0C8010E94160A0F5F1F4FDBCF30
:104F10000091050189E0089F002D112429E0200F50
:104F200029832B3210F03AE2398310E08981081787
:104F3000A0F08FE099E00E94CA0C909105019F5F5C
:104F4000909305018111A6CD82E080931901809193
:104F5000070181119FCD8B819ACD20E040E060E078
:104F6000C8010E94160A0F5F1F4FE0CF0091050194
:104F700089E0089F002D112499E0900F99839B32BE
:104F800010F0EAE2E98310E0F9810F1728F08FE0D2
:104F900099E00E94160DD1CF20E040E060E0C8010A
:104FA0000E94160A0F5F1F4FEFCF0091050189E0A5
:104FB000089F002D112429E0200F29832B3210F0A7
:104FC0003AE2398310E08981081728F08FE099E0F0
:104FD0000E946E0DB2CF20E040E060E0C8010E9468
:104FE000160A0F5F1F4FEFCF0091050189E0089F60
:104FF000002D112499E0900F99839B3210F0EAE282
:10500000E98310E0F9810F1728F08FE099E00E9402
:10501000DB0D93CF20E040E060E0C8010E94160A5B
:105020000F5F1F4FEFCF0091050189E0089F002D12
:10503000112429E0200F29832B3210F03AE2398322
:1050400010E08981081718F08DE399E074CF20E013
:1050500040E060E0C8010E94160A0F5F1F4FF1CFC9
:105060000091050189E0089F002D112499E0900F1F
:1050700099839B3210F0EAE2E98310E0F9810F177F
:1050800018F08DE399E085CF20E040E060E0C801B2
:105090000E94160A0F5F1F4FF1CF0091050189E0B2
:1050A000089F002D112429E0200F29832B3210F0B6
:1050B0003AE2398310E08981081718F08DE399E00E
:1050C00087CF20E040E060E0C8010E94160A0F5F31
:1050D0001F4FF1CF0091050189E0089F002D112499
:1050E00099E0900F99839B3210F0EAE2E98310E097
:1050F000F9810F1718F08DE399E089CF20E040E0A7
:1051000060E0C8010E94160A0F5F1F4FF1CF0091A7
:10511000050189E0089F002D112429E0200F298333
:105120002B3210F03AE2398310E08981081728F019
:1051300086E499E00E94330E00CF20E040E060E07A
:10514000C8010E94160A0F5F1F4FEFCF00910501A3
:1051500089E0089F002D112499E0900F99839B32DC
:1051600010F0EAE2E98310E0F9810F1728F086E4F5
:1051700099E00E948A0EE1CE20E040E060E0C801A4
:105180000E94160A0F5F1F4FEFCF0091050189E0C3
:10519000089F002D112429E0200F29832B3210F0C5
:1051A0003AE2398310E08981081728F086E499E013
:1051B0000E94ED0EC2CE20E040E060E0C8010E94F7
:1051C000160A0F5F1F4FEFCF0091050189E0089F7E
:1051D000002D112499E0900F99839B3210F0EAE2A0
:1051E000E98310E0F9810F1728F086E499E00E9426
:1051F000650FA3CE20E040E060E0C8010E94160ADF
:105200000F5F1F4FEFCF0091050189E0089F002D30
:10521000112429E0200F29832B3210F03AE2398340
:1052200010E08981081718F085E999E084CE20E024
:1052300040E060E0C8010E94160A0F5F1F4FF1CFE7
:105240000091050189E0089F002D112499E0900F3D
:1052500099839B3210F0EAE2E98310E0F9810F179D
:1052600018F085E999E095CE20E040E060E0C801C3
:105270000E94160A0F5F1F4FF1CF0091050189E0D0
:10528000089F002D112429E0200F29832B3210F0D4
:105290003AE2398310E08981081718F085E999E02E
:1052A00097CE20E040E060E0C8010E94160A0F5F40
:1052B0001F4FF1CF0091050189E0089F002D1124B7
:1052C00099E0900F99839B3210F0EAE2E98310E0B5
:1052D000F9810F1718F085E999E099CE20E040E0B8
:1052E00060E0C8010E94160A0F5F1F4FF1CF0091C6
:1052F000050189E0089F002D112429E0200F298352
:105300002B3210F03AE2398310E08981081718F047
:105310008EEA99E00FCF20E040E060E0C8010E94F3
:10532000160A0F5F1F4FF1CF0091050189E0089F1A
:10533000002D112499E0900F99839B3210F0EAE23E
:10534000E98310E0F9810F1718F08EEA99E011CF88
:1053500020E040E060E0C8010E94160A0F5F1F4F86
:10536000F1CF0091050189E0089F002D112429E06B
:10537000200F29832B3210F03AE2398310E0898123
:10538000081718F08EEA99E013CF20E040E060E0C3
:10539000C8010E94160A0F5F1F4FF1CF009105014F
:1053A00089E0089F002D112499E0900F99839B328A
:1053B00010F0EAE2E98310E0F9810F1718F08EEAA5
:1053C00099E015CF20E040E060E0C8010E94160A95
:1053D0000F5F1F4FF1CF0091050189E0089F002D5D
:1053E000112429E0200F29832B3210F03AE239836F
:1053F00010E08981081708F44CC0C090050119E03D
:10540000C19E102D112499E0910F9983992E9B3202
:1054100010F0EAE29E2E60913D04669566958091BB
:105420009403909195030E94E608F82E80E48F0D76
:105430000E94F00860E8B62EB80E8F2D0E94F0088A
:1054400070E8A72EA80EC12ED12CC91408F077CB76
:10545000F601ED50FE4F808190910601892388234B
:10546000A1F060913A0470913B0480913C04EF2CD0
:105470000C2D2A2D4B2D0E94E7090E945E08462F15
:10548000672F282FC6010E94160AEFEFCE1ADE0AF8
:10549000DCCF20E040E060E0C8010E94160A0F5F08
:1054A0001F4FA7CF0091050189E0089F002D11240F
:1054B00029E0200F29832B3210F03AE2398310E0E3
:1054C00089810817C0F1C090050119E0C19E102D17
:1054D000112499E0910F9983992E9B3210F05AE292
:1054E000952E60913D046695669580919403909108
:1054F00095030E94E608F82E80E48F0D0E94F008C4
:1055000030E8B32EB80E8F2D0E94F00840E8A42E8C
:10551000A80EC12ED12CC914B8F001E010E020E093
:1055200040E060E0C8010E94160A0F5F1F4F023181
:105530001105A9F704CB20E040E060E0C8010E941B
:10554000160A0F5F1F4FBCCFF601ED50FE4F808152
:105550009091060189238823A1F060913A0470910B
:105560003B0480913C04EF2C0C2D2A2D4B2D0E94E6
:10557000E7090E945E08462F672F282FC6010E9468
:10558000160AEFEFCE1ADE0AC6CF0091050189E0B8
:10559000089F002D112429E0200F29832B3210F0C1
:1055A0003AE2398310E089810817D0F1C0900501F3
:1055B00019E0C19E102D112499E0910F9A83A92E14
:1055C0009B3210F02AE2A22E60913D04669566950A
:1055D00080919403909195030E94E608F82E80E450
:1055E0008F0D0E94F00890E8B92EB80E8F2D0E9402
:1055F000F00880588983C12ED12CCA14D0F000E065
:1056000010E020E040E060E0C8010E94160A0F5F51
:105610001F4F0E301105A9F781E0FA81F932CECA89
:1056200020E040E060E0C8010E94160A0F5F1F4FB3
:10563000BACFF601ED50FE4F80819091060189238B
:10564000882349F160913A0470913B0480913C04B5
:10565000EF2C0C2D29814B2D0E94E7090E945E083A
:10566000462F672F282FC6010E94160A20E040E02F
:1056700060E08FE090E00E94160A20E040E060E0E9
:1056800080E190E00E94160A20E040E060E081E1C5
:1056900090E00E94160AEFEFCE1ADE0AAECF00911C
:1056A000050189E0089F002D112429E0200F29839E
:1056B0002B3210F03AE2398310E089810817C0F1EB
:1056C000C090050119E0C19E102D112499E0910FA1
:1056D0009C83B92E9B3210F08AE2B82E60913D0473
:1056E0006695669580919403909195030E94E608D3
:1056F000F82E80E48F0D0E94F008805889838F2D4A
:105700000E94F00880588A83C12ED12CCB14C8F097
:1057100000E010E020E040E060E0C8010E94160ACE
:105720000F5F1F4F0F301105A9F781E0FC8176CF85
:1057300020E040E060E0C8010E94160A0F5F1F4FA2
:10574000BCCFF601ED50FE4F808190910601892378
:105750008823A1F060913A0470913B0480913C044D
:10576000EF2C0C2D2A8149810E94E7090E945E08D6
:10577000462F672F282FC6010E94160AEFEFCE1A78
:10578000DE0AC4CF80910701811123C060913D04DE
:1057900020E1620F08F46FEF8091940390919503DC
:1057A0000E94E6086AE070E00E94F934892B41F417
:1057B0000E94B1356AE270E00E940D350E94CD234F
:1057C000809105018F5F8093050182E0809319012C
:1057D00061C90091050189E0089F002D112429E08D
:1057E000200F2983822F2B3208F08AE210E0C82E86
:1057F000D12C0C151D050CF0DEC9C8010E94CD236B
:105800000F5F1F4FF6CF8091070181111BC0609180
:105810003D0420E1620F08F46FEF809194039091B2
:1058200095030E94E6086AE070E00E94F934892B33
:1058300039F60E94B1356AE270E00E940D350E948F
:105840000B24BECF0091050189E0089F002D112493
:10585000800F89838B3208F08AE210E0C82ED12CA9
:105860000C151D050CF035C9C8010E940B240F5FF3
:105870001F4FF6CF8091070181111CC060913D043C
:1058800020E1620F08F46FEF8091940390919503EB
:105890000E94E6086AE070E00E94F934892B09F062
:1058A0008FCF0E94B1356AE270E00E940D350E94F0
:1058B000552486CF0091050189E0089F002D112411
:1058C000E9E0E00FE9838E2FEB3208F08AE210E086
:1058D000C82ED12C0C151D050CF031C9C8010E9431
:1058E00055240F5F1F4FF6CF8091070181111CC017
:1058F00060913D0420E1620F08F46FEF8091940302
:10590000909195030E94E6086AE070E00E94F934E5
:10591000892B09F055CF0E94B1356AE270E00E94F0
:105920000D350E94B5244CCF0091050189E0089FF8
:10593000002D112429E0200F2983822F2B3208F01B
:105940008AE210E0C82ED12C0C151D050CF033C9CD
:10595000C8010E94B5240F5F1F4FF6CF809105014B
:105960008F5F8093050183E031CF46E050E06CE12A
:1059700070E089E394E00E94FC35109238040895A9
:10598000E9E3F4E085E0808380911E0190911F019E
:10599000A091200181839283A3838FE784838FEF7B
:1059A00085830E94B52C08950E94640B282F609374
:1059B000900370939103809392039093930380914B
:1059C000B10381111EC030913904832F8370882365
:1059D00019F0832F86958695309119013230C9F0E0
:1059E00090F4311113C010920501609394037093E9
:1059F0009503209396039093970381E08093190178
:105A0000089580E0E9CF333079F008950E94FF24B3
:105A10000895809315018091390483708093140157
:105A20000E945A1083E0EACF8091380481110E94CD
:105A3000B52C409194035091950360919603709119
:105A400097032FB7F8948091CE039091CF03A09144
:105A5000D003B091D1032FBF841B950BA60BB70BBE
:105A60004097A105B10510F0109219010895A0E02A
:105A7000B0E0EDE3FDE20C94303580E090E020E012
:105A8000182FEFEFE80FE03128F4F0E0E55FF84C75
:105A90000C9421352D982F98889803C02D982F9815
:105AA000889A289A30EA3A95F1F7C12CD12C7601E0
:105AB000C394082E04C0CC0CDD1CEE1CFF1C0A9401
:105AC000D2F74601570180949094A094B094E8E9ED
:105AD000F3E0C5E2D2E030E04191519161917191E2
