:100000000C94E9020C942D030C9448030C942D03DA
:100010000C942D030C942D030C942D030C942D03A0
:100020000C942D030C94440E0C9441200C942D033D
:100030000C942D030C942D030C942D030C942D0380
:100040000C942D030C942D030C942D030C942D0370
:100050000C942D0329003A003B003C003D000000B9
:100060003E003F0040004100420043004400450084
:10007000680035001E001F00200021002200230020
:1000800024002500260027002D002E002A004A000B
:100090002B0014001A000800150017001C0018009F
:1000A0000C00120013002F00300031004B0039000B
:1000B00004001600070009000A000B000D000E00E6
:1000C0000F00330034002C0028004E00E100000037
:1000D0001D001B000600190005001100100036006D
:1000E00037003800E10052004D00E000E300E2007C
:1000F0000000000000002C00000000000000015182
:10010000E400500051004F00010001000100010017
:1001100001000000010001000100010001000100D8
:1001200001000100010001000100010001000100C7
:1001300001000100010001000100010001000100B7
:1001400001000100010001000100010001000100A7
:100150000100010001000100010001000100010097
:100160000100010001000100010001000100010087
:100170000100010001000100010001000100010077
:100180000100000001000100010001000100010068
:100190000100010001000100010001000100010057
:1001A000010001000000000000000100000000004C
:1001B0000000010001000100010001000100010038
:1001C0000100010001000000010001000100010028
:1001D0000100010001000100010001000100010017
:1001E0000100010001000100010001000100010007
:1001F00001000100010001000100010001000100F7
:1002000001000100010001000100010001000100E6
:1002100001000100010001000100010001000100D6
:1002200001000100010001000100010001000100C6
:1002300001000100010000000100010001000100B7
:1002400001000100010001000100010001000100A6
:100250000100010001000100000000000000010099
:100260000000000000000100010001000100010089
:100270000100010001000100010000000100010077
:100280000100010001000100010001000100010066
:100290000100010001000100010001000100010056
:1002A0000100010001000100010001000100010046
:1002B0000100010001000100010001000100010036
:1002C0000100010001000100010001000100010026
:1002D0000100010001000100010001000100010016
:1002E0000100010001000100010000000100010007
:1002F00001000100010001000100010001000100F6
:1003000001000100010001000100010000000000E7
:1003100000000100000000000000010001000100D9
:100320000100010000000000000000002A2B28004E
:100330000000000000000000000000000000002994
:10034000000000002C1E3420212224342627252ED4
:10035000362D3738271E1F2021222324252633330C
:10036000362E37381F0405060708090A0B0C0D0E38
:100370000F101112131415161718191A1B1C1D2F04
:100380003130232D350405060708090A0B0C0D0E24
:100390000F101112131415161718191A1B1C1D2FE4
:1003A0003130354C0000000000000000000000006B
:1003B000000000000000000000000000000000003D
:1003C00000000000000000007E0F00D4FFFFFFC708
:1003D00000000078000000000000000000000001A4
:1003E000010203040506080A0C0F1114181C20242E
:1003F000292E33393F464C535B626A7179818A9268
:100400009AA2AAB2B9C1C8CFD5DCE1E7EBF0F4F704
:10041000FAFCFDFEFFFEFDFCFAF7F4F0EBE7E1DC91
:10042000D5CFC8C1B9B2AAA29A928A8179716A62FB
:100430005B534C463F39332E2924201C1814110FCE
:100440000C0A080605040302010100000000000078
:100450000000000009025B00030100A0FA0904008B
:1004600000010301010009210101000122400007F0
:1004700005810308000109040100020300000009CE
:100480002101010001222200070584030800010761
:10049000050403080001090402000103000000092B
:1004A0002101010001227B000705830308000112DE
:1004B000011001000000084C4D750601000102000A
:1004C000010E03480065007800200034004200005F
:1004D000001E035400650061006D0020004D0065A2
:1004E00000630068006C006F00760069006E000019
:1004F00000040309040660FF0961A10109621500F7
:1005000026FF009520750881020963150026FF006B
:10051000952075089102C005010902A10185020913
:1005200001A1000509190129081500250195087583
:100530000181020501093009311581257F95027578
:1005400008810609381581257F9501750881060502
:100550000C0A38021581257F950175088106C0C0F7
:1005600005010980A101850319012AB7001501269B
:10057000B700950175108100C0050C0901A1018526
:100580000419012AA002150126A002950175108107
:1005900000C005010906A101050719E029E71500BA
:1005A00025019508750181029501750881030507EC
:1005B000190029FF150026FF009506750881000522
:1005C0000819012905950575019102950175039199
:1005D00003C011241FBECFE5D8E0DEBFCDBF04B6F7
:1005E00003FE24C08091D0029091D102A091D2024A
:1005F000B091D3028730904BA740B04BB9F4109222
:10060000D0021092D1021092D2021092D30214BEE4
:1006100084B7877F84BF0FB6F894A89581B58861A9
:1006200081BD11BC0FBEE0E0F8E3099510E0A0E643
:10063000B0E0E0EEF9E402C005900D92AE3EB107E5
:10064000D9F722E0AEEEB0E001C01D92A03DB207A6
:10065000E1F70E947D200C94B6240C940000A82F92
:10066000B92F80E090E041E050EA609530E009C0A9
:100670002D9182279795879510F084279527305ED6
:10068000C8F36F5FA8F30895EADF8D939D930895F3
:10069000CF93CFB7CF93DF93C395839BE9F7839B2A
:1006A00010C0839B0EC0839B0CC0839B0AC0839B9E
:1006B00008C0839B06C0C091A702C395C093A70240
:1006C0008EC06F93C091A602DD27C255DD4F2F93D8
:1006D00065E5839B03C02F916F91E1CF0F931F932B
:1006E0004F9320E040E15F9300B30C7003FB27F9C8
:1006F0003F9350E03BE039C01C7040642F77012FDE
:100700005F5F1EC0406810B31C702F7752501FC02F
:10071000406400B32F770C70D1F15F5F00C023C03D
:10072000406210B32F771C7091F15F5F00C025C04D
:100730000C701027515012F45D5F00001150279586
:100740002C3F10B3C8F61C700127015027952C3F91
:10075000C8F64227499300B30C7010274F7311500D
:1007600027952C3FA8F64695469510B31C7079F056
:100770000127015027952C3F98F66B5A60F33150B2
:1007800000B3B0F600C010E81ABF00271CC03B50F1
:100790003195C31BD04010E81ABF0881033C21F1FA
:1007A0000B3411F12091A3021981110F1213EDCF17
:1007B0004A81441F093679F10D3211F0013E29F7C3
:1007C0004F7009F0042F0093AC023F915F914F915D
:1007D0001F910F912F916F91CAB7C7FD5DCFDF9128
:1007E000CF91CFBFCF9118952091AC02222369F30E
:1007F0001091AA02112309F049C034300AF448C00C
:100800003093AA022093A5021091A6023BE0311B6F
:100810003093A6023DC00091AA020130BCF50AE562
:100820004F7049F43091760034FD33C00093760068
:10083000C0E8D2E032C0433059F0443091F03091FA
:100840008B0234FD26C000938B02CCE8D2E025C099
:100850003091C40234FD1DC00093C402C5ECD2E047
:100860001CC03091970234FD14C000939702C8E970
:10087000D2E013C0052710E000C0000002BB1AC080
:10088000052710E0221F1DC010E021C04AE502C06C
:1008900032ED432FC4E1D0E032E011B31C60939AF3
:1008A00002B311BB5CE020E865E320FF052702BB33
:1008B000279517951C3FF0F66695B8F7B1F720FF1E
:1008C000052702BB279517951C3FD0F6279517954E
:1008D00017FF052700001C3F02BBB0F629913A958F
:1008E00019F7037F1091AB02110FC651D04002BB24
:1008F00011F01093A30210E81ABF086011B3137F20
:10090000402F437F54E05A95F1F702BB11BB42BB25
:100910005CCF81E0089581E008950C948B040895E4
:100920000C948F041F93CF93DF9300D000D00F92CD
:10093000CDB7DEB749835A836B8330912201898119
:100940009A8131111DC06623B9F02223A9F00E94BB
:10095000651D182F682F89819A810E94111D698158
:100960007A81812F0F900F900F900F900F90DF9151
:10097000CF911F910C9410110E943D1D182FEFCFA5
:100980000E94651D69817A81EDCFFC01262F40818F
:1009900051816281738184810C949204CF93DF939F
:1009A000EC0160E00E94C504BE01DF91CF910C9480
:1009B00090048F929F92AF92BF92CF92DF92EF926C
:1009C000FF920F931F936B017C0181E090E0A0E008
:1009D000B0E04C015D0104C0880C991CAA1CBB1C32
:1009E0004A95D2F7B501A4014C015D0104C0880C01
:1009F000991CAA1CBB1C2A95D2F7482959296A2997
:100A00007B2904C0880F991FAA1FBB1F0A95D2F724
:100A10008A019B010C211D212E213F21041715075E
:100A20002607370789F48C299D29AE29BF29BC01E7
:100A3000CD011F910F91FF90EF90DF90CF90BF906D
:100A4000AF909F908F90089580959095A095B095C8
:100A50008C219D21AE21BF21EACF0F93382F262F65
:100A600060919701709198018091990190919A01FC
:100A7000042F432F0E94D9040F910C944F1C0E9405
:100A8000CC080E94A7060E94AF0E0C94F1080C94AB
:100A9000F40808950E947B180E9449052FEF84E313
:100AA0009CE0215080409040E1F700C000000C9491
:100AB00065200F931F93CF93DF938C0161E00E9419
:100AC000C504EC01B8010E94180F882309F441C045
:100AD000B801CE010E948D048823D9F1B801CE015E
:100AE0000E94A60D8823A9F1B801CE010E944712E9
:100AF000882379F1B801CE010E949912882349F127
:100B0000B801CE010E94BC13882319F1F80182813B
:100B1000882361F0CA35FDE5DF0721F170F4C115C6
:100B2000ECE5DE07A1F0CE3DDC45C9F0C801DF9160
:100B3000CF911F910F910C948904CB358DE5D80787
:100B4000A1F0CC35DD4591F70E940C1EEFCF0E943D
:100B50004A0580E0DF91CF911F910F9108950E9487
:100B6000851FF7CF0E94151EE1CF0E94181EDECF11
:100B7000DF92EF92FF920F931F93CF93DF93E82FB3
:100B8000F0E0EC5DFC4FD490282F26952695269515
:100B900030E0F901EC53FC4F0491877010E0082E0F
:100BA00002C0159507950A94E2F701701127F90123
:100BB000EC54FC4FE490F12C082E02C0F594E7941D
:100BC0000A94E2F791E0E922FF24F901EC55FC4F89
:100BD000C491D0E002C0D595C7958A95E2F7C1705F
:100BE000DD270115110519F081EE0E946615E1144B
:100BF000F10419F086EE0E9466158D2D0E94FA15FB
:100C0000EF2819F086EE0E94B415012B19F081EE41
:100C10000E94B415CD2B51F08CE2DF91CF911F9142
:100C20000F91FF90EF90DF900C94FA15DF91CF9128
:100C30001F910F91FF90EF90DF900895EF92FF9238
:100C40000F931F93CF93DF93EC01162F0AE0888157
:100C5000882309F454C0813009F04EC08981813065
:100C600099F47E0122E0E20EF11C8A810E94FA15BD
:100C7000E7012196812F815050F3EFE9FFE0319792
:100C8000F1F700C00000F7CF823041F47E0182E02E
:100C9000E80EF11C8A810E946615EACF833041F488
:100CA0007E01E2E0EE0EF11C8A810E94B415E0CFD5
:100CB000843011F02196DDCF2A81229690E080E0E9
:100CC000AE014F5F5F4F2053330B2A30310548F0A0
:100CD000019778F2EFE9FFE03197F1F700C00000EB
:100CE000F7CF089FB001099F700D1124C901860F2D
:100CF000971F2981EA01E4CF0E94B805BACFDF919E
:100D0000CF911F910F91FF90EF90089560E00C94A8
:100D10001E0608950C94890681E00895CF93C82F8C
:100D20000E948C06882359F09C2F909590FF09C053
:100D3000969A91FF08C0979A92FF07C0959ACF9113
:100D400008959698F6CF9798F7CF9598F8CF8E9A02
:100D5000969A8F9A979A8D9A959A0895CF93C82FBD
:100D60000E948A068C2FCF910C948E0690E080E032
:100D700008950895FC01EE0FFF1FEC52FC4F859182
:100D800094910895CF93DF930E9410110E94D7078A
:100D9000EC01811520E5920708F042C0811530E48E
:100DA000930708F0BDC0883E910528F5803E910567
:100DB00008F09DC0883A910588F4853A910508F0BD
:100DC0008FC08130910509F492C0009709F48FC05B
:100DD000049708F08CC0D0E0C0E089C08F3B91053B
:100DE00008F489C0805C9109C03CD105A0F30E9441
:100DF000BA06EC017CC08115904250F4C11581E027
:100E0000D80708F074C0C03FD10528F3D0656FC083
:100E1000C11590E3D90708F079C0CE019F70E7CFE4
:100E2000811525E5920758F5811534E5930708F0FB
:100E3000A6C0811542E5940750F4C11581E5D80795
:100E400008F471C0DC2FCC27C16FD06A50C0982F36
:100E5000969596959E0123703327C115D34508F0CA
:100E60007FC0C1E0D0E002C0CC0FDD1F2A95E2F7C1
:100E700020E2929FC0011124C82BD92B6FC0C1154D
:100E800089E5D807A8F4C11598E5D90708F07CC012
:100E9000C11526E5D20708F09ECF8C2F0E946E0860
:100EA000C82FD0E0DC2FCC27CC27DF71D0621FC049
:100EB000C1153AE5D30708F46CC0CE0190568115F0
:100EC000904208F088CF8D2F8F710E946E0890E0BD
:100ED000982F882788279F719C012C2BE901E6CF4A
:100EE000C55AD0E0CB55DF4FC881D0E0D064CE01E9
:100EF000DF91CF910895C85AD0E0CC0FDD1FC958BB
:100F0000DF4F0990D881C02DD464F1CFCE0199274D
:100F1000D3FF03C0EC01D86CEACFEC01D06CE7CF73
:100F2000DF70D06AE4CFCE01E4E096958795EA952C
:100F3000E1F783702C2F26952695237090E2299F48
:100F400090011124382B8C2F8370C1E0D0E002C0B7
:100F5000CC0FDD1F8A95E2F7C22BD32BDC68C7CFFD
:100F6000C1E0D0E002C0CC0FDD1F2A95E2F730E2ED
:100F7000939FC0011124C82BD92BDA68B8CFD82F82
:100F8000CC27C46FD06AB3CFDC2FCC27C06FD06A18
:100F9000AECF8C2F8F700E946E0834E0D695C79527
:100FA0003A95E1F7CF709C2FEC01D069A0CF823841
:100FB0009105B1F1B0F48133910509F475C048F49D
:100FC0008932910509F469C08A32910509F473C028
:100FD00008958533910509F459C08933910501F1CC
:100FE0000895833E9105A9F138F4803E9105F9F00A
:100FF000823E910549F10895863E9105A9F1873E0B
:101000009105C9F1843E910519F52091620221FFF5
:101010001FC08091610284FD14C087EE90E00895A6
:10102000209161022370A1F080EE90E0089520915C
:10103000610220FD47C03091620230FF09C024FFE9
:1010400044C090E080E004C02091610222FDF7CF0F
:1010500008952091610222FD3BC03091620230FD73
:10106000E3CF24FFF5CFEDCF2091610223FFF0CF36
:1010700024FDE7CFD2CF2091610223FD2CC0309117
:10108000620231FFEECF84EE90E00895209161027C
:1010900025FFDECF89E290E008952091610225FFCF
:1010A000D7CF85E390E008952091610226FFD0CF4D
:1010B0008AE290E008952091610226FFC9CF81E382
:1010C00090E0089589E390E0089583EE90E008951C
:1010D00082EE90E0089586EE90E00895909161028E
:1010E00092FF06C0282F28712830F9F4877F84608A
:1010F00093FF06C0282F28712831F1F4877E846180
:101100002091620220FF06C0382F38713830D9F4A0
:10111000877F816021FF06C0282F28712831D1F4F4
:10112000877E816194FD877E0895282F2471243065
:10113000F9F68B7F8860DCCF282F2471243101F7EA
:101140008B7E8861DDCF382F3171313019F78E7F7A
:101150008860E0CF282F2171213121F78E7E8861B0
:10116000E1CF0C94F20E0E9454092FEF86E791E034
:10117000215080409040E1F700C000000E945409D7
:1011800081E00E94F60895FF04C00E94B1080C940B
:10119000652008950C94B3080E94E01E811102C0DE
:1011A0000E94851F0E94EB1E8093AC010E94F31EDB
:1011B00090936202809361020E94CA080E94EF1E0F
:1011C000682F70E090E080E00E94131C609197010E
:1011D000709198018091990190919A010C944D1C05
:1011E00008950C94F00808950C94F308E82FF0E0AB
:1011F000EE0FFF1FE159FD4F808191810895089501
:1012000080EA8A95F1F7089500C008950C940009CA
:10121000F894E82FE295EF70F0E031A9282F2F70B5
:1012200081E090E001C0880F2A95EAF7982F909509
:10123000932391AB92A9892B82AB789408950F9355
:101240001F93CF93DF9387E60E94080982E90E94EB
:10125000080981E90E94080983E90E94080984E9D4
:101260000E94080985E90E940809C8EAD0E007EB56
:1012700010E089910E9408090C171D07D1F7E3E6D9
:10128000F2E0AFE6B2E0119211921D921D9282E05F
:10129000EF36F807C1F786E00E94D409DF91CF91BD
:1012A0001F910F910C943F05AF92BF92DF92EF9286
:1012B000FF920F931F93CF93DF93C7EBD0E003E62A
:1012C00012E0D12CEE24E394F12C8991F894E82FCC
:1012D000E295EF70F0E021A98F70A70102C0440FE2
:1012E000551F8A95E2F7CA01922F982B91AB92A9CC
:1012F0008095892382AB78940E940409E8EAF0E0A3
:1013000030E020E0B12CA12C4191A42FA295AF7028
:10131000B0E0D0968C9190E04F7002C09595879583
:101320004A95E2F780FD3BC0C701022E02C0880F3C
:10133000991F0A94E2F7A82AB92A2F5F3F4F2F304E
:10134000310511F7FE01319780810E9408090E9442
:101350000609F80180819181A816B90619F1B182B8
:10136000A08281E0D82A0E5F1F4FF0E0CD3BDF075F
:1013700009F0ABCF2D2D46E06FE672E083E692E0F8
:101380000E94D5090E9447058D2DDF91CF911F91B5
:101390000F91FF90EF90DF90BF90AF90089590E095
:1013A00080E0C9CF80E0DECF0895FF920F931F93B6
:1013B000CF93DF93F82E092F162FD72FC42F222378
:1013C00049F081E08093F2000E941A209093F1008E
:1013D0008093F0008091F2008823A1F08091F000CA
:1013E0009091F1000E943220069760F0EF2DF02FCF
:1013F000A12FBD2F90E080E0D0E08C179D0744F036
:101400001092F200DF91CF911F910F91FF900895FC
:10141000219131912D933D930196EFCF8091F90069
:1014200080FF12C06091650085E0689FB0011124C3
:10143000759567957595679560387105A8F561157F
:101440007105A1F1862F089581FF09C060916500A3
:1014500085E0689FB001112475956795EDCF609187
:10146000650082FD0AC08091F8008823D1F0909138
:10147000640060916500891728F085E0689FB001DD
:101480001124DACF869FB001112485E0869F900158
:10149000879F300D1124692F70E0C9010E94182424
:1014A000CBCF65E070E0CECF8FE7089581E008955F
:1014B0008091F90080FF0CC06091610070E075952B
:1014C0006795759567956115710549F1862F0895A2
:1014D00081FF06C06091610070E075956795F3CF5C
:1014E0006091610082FD0BC09091F7009923A1F0FB
:1014F0006091600080916100961738F0682F70E06D
:101500006038710500F38FE70895899FC0011124A9
:1015100070E00E941824F4CF61E070E0D7CF81E042
:101520000895803F31F40E940E0A81958093FD005A
:101530000895813F19F40E940E0AF8CF823F31F4DA
:101540000E940E0A81958093FC000895833F19F450
:101550000E940E0AF8CF893F29F40E94580A80930E
:10156000FE0008958A3F21F40E94580A8195F7CF22
:101570008B3F31F40E94580A81958093FF000895B3
:101580008C3F19F40E94580AF8CF9CE0980F9530D0
:1015900070F4845F990B21E030E001C0220F8A953E
:1015A000EAF78091FB00822B8093FB0008958D3F2A
:1015B00031F48091F90081608093F90008958E3FA5
:1015C00021F48091F9008260F7CF8F3FB9F78091C5
:1015D000F9008460F1CF4091FC00803F59F4809184
:1015E000FD0087FF0DC01092FD0041110BC010924D
:1015F000F80008C0813F81F48091FD0018169CF32B
:10160000442381F08091FE009091FF00892B09F026
:101610005AC01092F7000895823F49F447FFF0CF77
:101620001092FC008091FD008111ECCFE0CF833F50
:1016300019F41416ACF3E4CF9091FE00893F29F41D
:101640001916F4F61092FE00DBCF8A3F19F497FFCB
:10165000D7CFF8CF9091FF008B3F29F497FFD0CFE1
:101660001092FF00CDCF8C3F19F41916CCF3C8CFE0
:101670009CE0980F953090F4845F990B21E030E066
:10168000B90102C0660F771F8A95E2F7CB018095FA
:101690009091FB0089238093FB00B2CF8D3F31F402
:1016A0008091F9008E7F8093F900AACF8E3F21F4BC
:1016B0008091F9008D7FF7CF8F3F09F0A1CF809106
:1016C000F9008B7FF0CF08950E941A209C01909121
:1016D000FC008091FD00982B21F03093F6002093C0
:1016E000F5009091FE008091FF00982B21F030933F
:1016F000F4002093F3008AEF90E00C940214EF9230
:10170000FF920F931F93CF93DF9300D000D000D0B0
:10171000CDB7DEB786E0EAEFF0E0DE01119601908A
:101720000D928A95E1F7E090FC00F090FD000091A9
:10173000FE001091FF001092FC001092FD0010922C
:10174000FE001092FF008E2D8F2991F08091F50000
:101750009091F6000E943220AC019091F8009923FC
:1017600009F43FC0809166008417150608F447C04D
:10177000802F812B91F08091F3009091F4000E94D2
:101780003220AC019091F700992309F477C0809141
:1017900062008417150608F47FC08091FC009091C8
:1017A000FD00892B9091FE00892B9091FF00892BE1
:1017B00011F00E94640B86E0FE013196AAEFB0E0C2
:1017C00001900D928A95E1F726960FB6F894DEBF48
:1017D0000FBECDBFDF91CF911F910F91FF90EF9082
:1017E0000895209167008AE0289F90011124241712
:1017F000350708F0BDCF9F5F9093F80002C09F3F70
:10180000D1F7EE2059F00E940E0A9FEF1E140CF43F
:1018100091E0899F802D11248093FC00FF2059F0D6
:101820000E940E0A9FEF1F140CF491E0899F802DF7
:1018300011248093FD003091FC00332309F498CFEC
:101840002091FD00222309F493CF45EB3403C0011E
:101850001124992359F09093FC0045EB2403900147
:101860001124332339F03093FD0082CF81E080933F
:10187000FC00F3CF81E08093FD007ACF20916300DC
:101880008AE0289F900111242417350708F085CF9E
:101890009F5F9093F70002C09F3FD1F7002359F05C
:1018A0000E94580A9FEF10160CF491E0899F802D3A
:1018B00011248093FE00112359F00E94580A9FEFD3
:1018C00011160CF491E0899F802D11248093FF0064
:1018D0003091FE00332309F460CF2091FF002223D2
:1018E00009F45BCF45EB3403C0011124992359F06F
:1018F0009093FE0045EB240390011124332339F02B
:101900003093FF004ACF81E08093FE00F3CF81E067
:101910008093FF0042CF86E0EAEFF0E0DF011D9206
:101920008A95E9F71092F8001092F7001092F900EA
:10193000089586E090E00C947524682F86E090E08E
:101940000C94832480917B020C949D0CEBE7F2E0D5
:1019500080818470896280830C949D0C80917B02CD
:10196000869586958695089580917B0281FD07C0B6
:10197000826080937B020E949D0C0C94330E08952C
:1019800080917B0281FF07C08D7F80937B020E9444
:101990009D0C0C943D0E089580917B0281FD0C946A
:1019A000C00C0C94B40C80917B02869581700895D4
:1019B0008091680008950E94E01E811104C00E9479
:1019C000851F0E94A60C0E94990C80937B02803395
:1019D00020F08770886280937B0290917B02892F30
:1019E000817090FF04C0892F8695869586950C940A
:1019F0000F0E80917B02982F96959695969595302F
:101A000040F49F5F990F990F990F8770892B8093EE
:101A10007B0280917B02816080937B020E949D0CFF
:101A200080917B028695869586950C940F0E809109
:101A30007B02982F987F79F0885080937B02887F73
:101A400091E009F490E080917B0290FB80F9809313
:101A50007B020E949D0C80917B02869586958695DF
:101A60000C940F0E80917B0280FD13C081608093E7
:101A70007B02813019F489E080937B0280917B02A4
:101A80000E949D0C80917B028695869586950C948C
:101A90000F0E089580917B0280FF08C08E7F809397
:101AA0007B020E949D0C80E00C940F0E08958091A3
:101AB0007B0280FD0C944A0D0C94320D90917B02B8
:101AC000892F8695869586958F5F8F719770863062
:101AD000D8F4880F880F880F892B80937B02809120
:101AE0007B02887F91E009F490E080917B0290FB7B
:101AF00080F980937B020E949D0C80917B028695E9
:101B0000869586950C940F0E90937B02E8CF8630D5
:101B100008F085E090917B029770282F220F220F0A
:101B2000220F922B90937B02987F21E009F420E012
:101B300090917B0220FB90F990937B020C940F0E06
:101B40000E94870D80917B020C949D0CFC01DB01AF
:101B500012968C918823F9F0EB5BFC45E730F10598
:101B6000D8F4E854FB4D0C944E2485E00E94A00D5F
:101B700080E0089580E0FACF0E94170DF9CF0E940F
:101B8000F90CF6CF0E94570DF3CF0E945E0DF0CFF7
:101B90000E94CC0CEDCF81E008958C9A9498089522
:101BA00094980895CF92DF92EF92FF928C3724E1C0
:101BB000920750F469E070E00E940424CB01FF908A
:101BC000EF90DF90CF900895B0E0A0E0BC01CD0190
:101BD0006A50774D8F4F9F4F982F872F762F66270C
:101BE00025EF38E241E050E00E942C2469017A019F
:101BF000CA01B9010E94F4239B01AC01C701B601DF
:101C00000E94F423672F782F892F9927611571057A
:101C100021E08207910591F66FEF7FEFCFCFCF9351
:101C2000C82F8630D0F4811119C08FB58F7D8FBD3C
:101C30000E94D00D2C2F30E0AFEFBFEF0E945B244D
:101C400025E030E040E050E00E942C24C9010E94D1
:101C5000D20D99BD88BDCF910895C5E08FB5806242
:101C60008FBDE8CF089510920101109200011092EB
:101C7000020189B7846089BF089589B78B7F89BFC6
:101C80000E94AE0C0C940F0E1F920F920FB60F9283
:101C900011242F933F934F935F936F937F938F9371
:101CA0009F93AF93BF93CF93EF93FF930E94D80C72
:101CB00040910001509101014F5F5F4F94EF899F68
:101CC00090011124CA01B9010E94042490930101DA
:101CD00080930001B901660F672F661F770B71951E
:101CE0000E9404246F7780910201823031F46034C5
:101CF00041F489B78B7F89BF04C0813011F46F37FD
:101D0000C1F3E62FF0E0EC52FC4FC4910E94AE0C00
:101D1000282F41E051E0C49FC001C59F900D1124C0
:101D200065E070E00E940424269FC001279F900D6B
:101D300011240E94D20D99BD88BDFF91EF91CF91E2
:101D4000BF91AF919F918F917F916F915F914F91D3
:101D50003F912F910F900FBE0F901F9018950E94EA
:101D6000CD0D82E28FBD89E18EBD8FEF9FEF97BDD4
:101D700086BD0E94DB0C0E94D30C81110C94330EA3
:101D8000089583E290E00E947524813289F484E210
:101D900090E00E947524873059F485E290E00E941B
:101DA000752491E0843209F090E0892F81700895C4
:101DB00080E0FCCFCF93C82F6FEF811161E283E207
:101DC00090E00E9483246FEFC11167E084E290E00D
:101DD0000E9483246FEFC11164E285E290E0CF910D
:101DE0000C94832480E00E94DA0E0C94DA1E08958D
:101DF00086E290E00E947524682F70E090E080E019
:101E0000089586E290E00C9483240E94F70E0E94CD
:101E1000C10E81110CC060E070E0CB010E94010F87
:101E20000E9488100E94741181E00C94DA0E0895CB
:101E3000CF93FB01C281CC2309F19C0122513F4584
:101E40002031310520F582510E948411C0E08C2F91
:101E5000CF91089581E00E94751C43E062E081E02B
:101E60000E942D05F3CF81E00E94961C43E062E0C2
:101E700081E00E942D05EBCF82E0F6CF8031FFE5B7
:101E80009F0789F381319F45B9F3C1E0E0CF8031ED
:101E9000EFE59E07F9F281319F45C9F682E0DBCF7D
:101EA0002FEFFC0120830895CF93DF93EC0188810D
:101EB000893029F08A3079F0DF91CF9108950E941E
:101EC000AE0C2FEF829FC001112465E070E00E94EC
:101ED00004246983F1CF0E94D30C8983EDCFFC01E8
:101EE0008081893019F08A3069F00895818125E078
:101EF000829FC00111246FEF70E00E940424862F9E
:101F00000C94870D8181811102C00C94C00C0C943B
:101F1000B40CEF92FF920F931F93CF93DF93EC01DA
:101F2000062FDC01ED91CD01E150E33108F0ADC0A9
:101F3000F0E0E154FB4D0C944E24198289E08A8331
:101F4000602FCE01DF91CF911F910F91FF90EF9005
:101F50000C9496218981823069F0833071F0813050
:101F6000D9F40E9426200E9454246A837B838C83A8
:101F70009D83E6CF0E94F80EF6CF7E0110E0812F00
:101F80000E94F608F701928383831F5FF2E0EF0E51
:101F9000F11C1630A1F7D4CF602FCE010E94500F54
:101FA000CFCF89818230C1F76A817B818C819D810D
:101FB0000E9454240E94010FC3CF4B816A81898102
:101FC0000E945A109827892798279D838C83B8CF21
:101FD0002C813D813227232732274B816A818981D9
:101FE0000E947310ADCF0E948810AACF0E946F0F7D
:101FF000A7CF0E94540FA4CF0E94A20CA1CF0E9491
:102000001D1189839DCF0E941F119827892798272A
:102010009A83898395CF6B8170E089819A81AE0123
:102020004C5F5F4F9827892798270E94221188CFFD
:102030006B8170E089819A81AE014C5F5F4F982778
:10204000892798270E9449117BCF0E94741178CF6D
:102050000E944810D6CF6B8170E089819A81AE01D1
:102060004C5F5F4F9827892798270E94C01068CF40
:102070006B8170E089819A81AE014C5F5F4F982738
:10208000892798270E94E6105BCF8FEF888358CF6F
:1020900084E0089550E0440F551F9EE1699F400D74
:1020A000511D112494EB899F400D511D1124CA012B
:1020B000879608950F931F93CF93DF930E944A1042
:1020C0008C010E947524C82FD0E0DC2FCC27C801DA
:1020D00001960E9475249E01282BC901DF91CF91A2
:1020E0001F910F9108950F931F93CF93DF93122F9A
:1020F000032F0E944A10EC01602F0E948324612F5D
:10210000CE010196DF91CF911F910F910C94832402
:10211000AF92BF92CF92DF92EF92FF921F93CF9335
:10212000DF9384E5C82E80E0D82ED0E07601C0E0B1
:1021300014C0F50125913491412F6C2F8D2F0E94F1
:10214000731082E0A80EB11C1F5F1F3091F78EE163
:10215000E80EF11CCF5FC63019F0570110E0E9CF4F
:10216000DF5F84EBC80ED11CD43001F7DF91CF9133
:102170001F91FF90EF90DF90CF90BF90AF900895A8
:10218000EF92FF920F931F93CF93DF93EC018A019D
:102190007C01E60EF71ECE018796CE15DF0539F4D9
:1021A000DF91CF911F910F91FF90EF900895C03D67
:1021B00022E0D20740F40E947524F80180830F5F6B
:1021C0001F4F2196E8CFF8011082F9CFCF92DF920E
:1021D000EF92FF920F931F93CF93DF937C016A01DD
:1021E0008C01060F171FEC01CE018796C017D1078F
:1021F00049F4DF91CF911F910F91FF90EF90DF9005
:10220000CF900895C03D22E0D20740F4FE01EE19C0
:10221000FF09EC0DFD1D60810E9483242196E4CF0F
:10222000462F843038F4763028F46F3018F4672F56
:102230000C945A1090E080E0089580E1089589E0C0
:1022400091E00895EF92FF920F931F93CF93DF9346
:10225000EC018A017C01E60EF71ECE0189509D4FEC
:10226000CE15DF0539F4DF91CF911F910F91FF90CB
:10227000EF900895C93021E0D20740F40E94752400
:10228000F80180830F5F1F4F2196E7CFF80110827E
:10229000F9CFCF92DF92EF92FF920F931F93CF93DC
:1022A000DF937C016A018C01060F171FEC01CE0140
:1022B00089509D4FC017D10749F4DF91CF911F91ED
:1022C0000F91FF90EF90DF90CF900895C93021E0FB
:1022D000D20740F4FE01EE19FF09EC0DFD1D6081EF
:1022E0000E9483242196E3CFCF93DF93C7EFD2E000
:1022F00060E0CE010E9483242196C11584E0D807B6
:10230000B9F7DF91CF910895DF92EF92FF920F938B
:102310001F93CF93DF9300D000D0CDB7DEB7F82E58
:102320008FE08F1540F08FEF93E00E94752407EF48
:1023300012E08823C1F00F900F900F900F90DF9163
:10234000CF911F910F91FF90EF90DF9008950115AD
:1023500084E0180781F3C8010E947524811101C02F
:10236000FA940F5F1F4FF110F2CF19821A821B826D
:102370001C82DD24D39478018FEFE81AF80AC80193
:102380000E94752489831A828823A9F29FEF980FEF
:10239000933078F48A83D9820E5F1F4FC7010E9461
:1023A00075248B83882339F2CE0101960E9486061C
:1023B000E2CF8701F9CF0F931F93CF93DF93C42F01
:1023C000D22FFC0182818823C9F0409305010E942D
:1023D0001A20909304018093030180E28C0F8830CF
:1023E00008F050C0C77081E001C0880FCA95EAF7B5
:1023F000DF91CF911F910F910C940216109105015E
:10240000141335C080910301909104010E94322081
:10241000883C910560F5C0E2CD0F1D17B9F080E250
:10242000810F883040F4177081E001C0880F1A9541
:10243000EAF70E940916C83048F481E09D2F977092
:1024400001C0880F9A95EAF70E940216802F0E9419
:10245000FA15C830B8F4D77081E001C0880FDA955A
:10246000EAF7DF91CF911F910F910C94091680E24A
:102470008C0F883038F4C77081E001C0880FCA958E
:10248000EAF7EFCFDF91CF911F910F9108950F934E
:102490009C01CB01233F4CE5340759F1A8F4283DBA
:1024A000FCE53F0701F1293D4CE53407D1F1273D1B
:1024B0003C4591F406E221EE41EE67ED7CE50E9499
:1024C000DB1180E00F910895253FFCE53F07E9F01F
:1024D000B0F0263F3C45F9F0FC018281882339F1B8
:1024E00010920501EFCF07E225EE45EE68ED7CE5A1
:1024F000E6CF06E221EE40EE63EF7CE5E0CF07E2B7
:1025000025EE44EE64EF7CE5DACF06E221EE42EE02
:1025100065EF7CE5D4CF07E225EE46EE66EF7CE57D
:10252000CECF08E221E045EE69ED7CE5C8CF81E041
:10253000C9CFCF93DF93EC01FB018281882309F49B
:1025400019C1C230FCE5DF07C0F1C6319CE5D907EF
:1025500030F09E012A5F3C452930310570F50E941C
:10256000F31E9093620280936102C031ECE5DE07B6
:1025700009F4CFC008F05BC0C8308CE5D80709F477
:10258000B6C088F5C430ECE5DE0709F4A8C0C0F495
:10259000C2308CE5D80709F49CC08091610282604A
:1025A000C330DC4509F498C08091610290916202C9
:1025B0000E94011F0E947B1880E0DF91CF91089557
:1025C000809161028061C630ECE5DE0709F484C0C9
:1025D000809161028860C730DC4508F47DC080913D
:1025E0006102806279C0CC308CE5D80709F489C0DB
:1025F00070F4809161028C60CA30ECE5DE0709F46A
:102600006BC008F478C0809161028E7F65C0CE30C7
:102610008CE5D80709F479C0809161028B7FCF30B7
:10262000DC4508F459C0809161028F7E55C0CB3FD4
:10263000ECE5DE0709F457C030F5C3318CE5D80767
:1026400009F46FC078F4C131ECE5DE0709F465C028
:10265000C231DC4509F0A8CF0E947B18809161024D
:102660008F773AC0C5318CE5D80709F462C008F409
:1026700076C0809162028160CA3FDC4509F094CF48
:102680008093620291CFCF3FFCE5DF0709F44DC094
:1026900088F4809162028D7FCD3F9CE5D90781F35C
:1026A000809162028E7FCE3FDC4550F380916202C2
:1026B0008360E6CFC130FDE5DF0709F459C008F4B7
:1026C00044C080E0C230DD4509F06ECF0E94871F14
:1026D0006BCF8091610281608093610265CF8091B0
:1026E00061028460F9CF809162028260C9CF8091DB
:1026F00061028064F1CF0E947B1880916102806842
:10270000EBCF809161028D7FE7CF80916102877F5F
:10271000E3CF809161028F7DDFCF809161028F7B5B
:10272000DBCF80916102837FD7CF809162028C7F63
:10273000A7CF8091610282FB992790F921E092272F
:1027400090FB82F990FB83F9C7CF80916202982FAA
:10275000909591708E7F892B90FB81F991CF0E948B
:102760007B1890916102892F97FB87F98058B4CF2D
:1027700081E0ACCF81E021CFCF93DF93EB018631B5
:102780009C4511F50E941B1E9A81992399F08A7A23
:1027900091E009F490E090930601811109C089E26B
:1027A0000E94D51D0E946B1E80E0DF91CF9108959D
:1027B00085E3F6CF80910601811104C089E20E9471
:1027C000DC1DF0CF85E3FBCF81E0EFCF90930C01D0
:1027D00080930B010895E0910B01F0910C0130976B
:1027E00021F00190F081E02D099480E00895E091BE
:1027F0000B01F0910C01309721F00280F381E02D64
:1028000009940895E0910B01F0910C01309739F093
:1028100022E0DC012C930480F581E02D09940895D9
:102820002091090130910A012817390771F090931E
:102830000A0180930901E0910B01F0910C0130979E
:1028400021F00680F781E02D099408952091070179
:10285000309108012817390771F09093080180938F
:102860000701E0910B01F0910C01309721F00084F9
:10287000F185E02D099408950E94262060931E01A1
:1028800070931F01809320019093210160931A019E
:1028900070931B0180931C0190931D01089584B7D0
:1028A000806884BF84B7806884BF089508950895C0
:1028B0000C94561408950C945A140E944F1488EDE9
:1028C0009EE10E9478200E9457140C94581481E0D5
:1028D00008950C946714089508950E946B140C9445
:1028E0006C140E9413200E941F090E94050F0E9471
:1028F000DB0C0C945B148F929F92AF92BF92CF929D
:10290000DF92EF92FF920F931F93CF93DF93CDB798
:10291000DEB72A970FB6F894DEBF0FBECDBF0E9478
:10292000540981110E943C145EE0852E51E0952EE1
:1029300010E000E0A02E802F0E94F6086C01F40148
:10294000E190F1904F01E816F90609F45EC080911C
:10295000AC0181FD0E94FF08C7018C259D25B12C8B
:10296000EE24E394F12C9C012E213F21232B09F42A
:1029700046C00E9469148823A9F0BE82AF82CE208F
:10298000DF2081E0CD2809F480E088870E941A20AA
:102990008160782F9A8789874E815F8168858A85D3
:1029A0000E942F15000F111FF801E25FFE4F80817A
:1029B0009181E826F926F182E0820E94320E0E947F
:1029C0007F0B0E94EB1390910D018917A9F10E94D2
:1029D000EB1380930D012A960FB6F894DEBF0FBE5D
:1029E000CDBFDF91CF911F910F91FF90EF90DF90BE
:1029F000CF90BF90AF909F908F900C94AE06B39401
:102A0000EE0CFF1CFFE0BF12AECF0F5F1F4F063072
:102A1000110509F08FCF8FEF89838A831B820E9473
:102A20001A208160782F9D838C8349815A816B8124
:102A30008D810E942F15C1CF2A960FB6F894DEBF64
:102A40000FBECDBFDF91CF911F910F91FF90EF90FF
:102A5000DF90CF90BF90AF909F908F900895DF92BE
:102A6000EF92FF920F931F93CF93DF93CDB7DEB713
:102A70002B970FB6F894DEBF0FBECDBF7A878B873A
:102A8000F42E052F162FE72ED82E61110E943B1E23
:102A90001E821D827E2DEC82DD824F2D502F612FF4
:102AA0008D2D9E812B960FB6F894DEBF0FBECDBF45
:102AB000DF91CF911F910F91FF90EF90DF900C94D9
:102AC000F11AFC01808191810C94A71DCF93C82F2E
:102AD000882309F447C08CEF8C0F813AA0F46C2F47
:102AE0008091690090916A000E949E1F882329F0BE
:102AF0008C2F0E94DC1D0E946B1E8C2F0E94D51D06
:102B0000CF910C946B1E80E28C0F883048F4C77014
:102B100081E001C0880FCA95EAF70E941E1EF0CF1F
:102B2000EBE5EC0FE33040F4F0E0E551FF4F80813E
:102B300090E0CF910C941014E8E5EC0FE73150F4DD
:102B4000F0E0EE0FFF1FE354FF4F80819181CF91A2
:102B50000C942614C03F30F08C2F0E94910ACF9124
:102B60000C94640BCF910895882361F19CEF980F2A
:102B7000913A20F40E94DC1D0C946B1E90E2980F99
:102B8000983050F4877091E001C0990F8A95EAF768
:102B9000892F0E94241EF0CF9BE5980F933020F4DC
:102BA00090E080E00C94101498E5980F973120F491
:102BB00090E080E00C942614803F20F00E94EB0A05
:102BC0000C94640B08951F93CF93DF93182FEB01A0
:102BD0000E946615209731F4812FDF91CF911F91CC
:102BE0000C94B4158FE99FE00197F1F700C0000045
:102BF0002197F0CF70E060E0893311F460E570E078
:102C00000C94E315882321F00E941E1E0C946B1E69
:102C10000895882321F00E94241E0C946B1E0895B1
:102C2000BF92CF92DF92EF92FF920F931F93CF93B9
:102C3000DF936C01D62FC72FFC011281058102950D
:102C40000F700E94F31DE82E8823A1F0E12E1123BE
:102C500089F08C2F807F803429F080E28D0FE12C69
:102C6000883040F082E00E94BC1E0E94F31D91E07B
:102C7000E82EE926BC2EB2949FE0B922EB2DF0E0BD
:102C8000EE52FB4D0C944E240C2F0F70C07F11F0B0
:102C90000295007F1123A9F0002359F080E28D0FE7
:102CA000883010F0D11109C0802F0E941E1E0E9492
:102CB0006B1E8D2F0E94661514C0802F0E942E1E41
:102CC000F6CF8D2F0E94B415002359F080E28D0FAE
:102CD000883010F0D1112CC0802F0E94241E0E9439
:102CE0006B1E2B2D2850330B2430310520F40E940D
:102CF000EB130E94AE06EE2009F49EC10E94EF1D68
:102D000080FD9AC1F60112820E94E91D0E94751C85
:102D1000C6010E943D180E94E91DDF91CF911F91CD
:102D20000F91FF90EF90DF90CF90BF900C94961C86
:102D3000802F0E94341ED3CFFC2FFF70FF2EC07F48
:102D4000C03219F0F29480EFF822DD2369F0D1301F
:102D500049F1112391F1002351F1F601858180FFA2
:102D6000A8CF8F70858323C0112381F0011106C085
:102D70000E944E1E8F290E940216B3CF0130C1F768
:102D80000E944E1E8F290E94541EABCF011106C017
:102D90000E94611E8F2D0E940916A3CF013009F4F5
:102DA000A0CFF6CF112329F0063008F09ACF8F2D4F
:102DB000E2CF053008F095CFEDCF002359F3D9339A
:102DC00049F4FFEF27EE33E0F15020403040E1F7C7
:102DD00000C000008D2F0E94B41583CF8C2F8695E4
:102DE0008695837069F0813009F07BCF8D2F9C2F01
:102DF0009370111102C090E080E00E94261471CF00
:102E00008D2F9C2F9370111102C090E080E00E94E2
:102E1000101467CF8D2F112329F00E94910A0E9470
:102E2000640B5FCF0E94EB0AFACF8C2F837009F0FE
:102E300041C0111156CF4D2F429546954770440F12
:102E4000440F0D2F0F7010E030E020E0042E04C07E
:102E5000000F111F221F331F0A94D2F760E070E0A9
:102E6000CB01D4FF0FC06FE070E080E090E004C0C1
:102E7000660F771F881F991F4A95D2F76095709546
:102E800080959095C695C695C370602B712B822B4B
:102E9000932BC23049F058F4C13019F00E94271C1E
:102EA00020CF0E94151C1DCF0E94391C1ACF0E94F2
:102EB000131C17CF8695112311F08C2F8170882356
:102EC00009F40FCF4D2F429546954770440F440F9C
:102ED0000D2F0F7010E030E020E0042E04C0000F32
:102EE000111F221F331F0A94D2F760E070E0CB015C
:102EF000D4FF0FC06FE070E080E090E004C0660F88
:102F0000771F881F991F4A95D2F760957095809515
:102F10009095C695C695C370602B712B822B932B11
:102F2000C23049F058F4C13019F00E94EC1CD9CEDF
:102F30000E94DA1CD6CE0E94FE1CD3CE0E944F1CEB
:102F4000D0CECF70112329F08C2F0E94751C8D2FAD
:102F500012CF8D2F0E9409168C2F0E94961CC1CE75
:102F6000D23F89F160F4D03FC9F0D13F29F111235C
:102F700009F442C001119DCE8C2F8F7121C0D33F27
:102F800039F1D43FA1F7112369F1CF718C2F0E9441
:102F9000751C63E08C2F0E94A11EA3CE112341F06B
:102FA000053008F09ECE8C2F8F710E94B91C99CEEF
:102FB000063008F096CEF7CF8C2F8F71112369F26F
:102FC0000E94751C8ECE8C2F8F711123C9F3C5CF33
:102FD000112329F08C2F8F710E94601C82CE0E94D9
:102FE0005B1C7FCE81E00E94BC1E023008F479CECB
:102FF00082E00E94BC1E75CE002359F0D93309F03F
:10300000E9CE8FEF97EEE3E081509040E040E1F7AA
:10301000DFCE8C2F8F71A1CF4C2F4F706D2FC6013B
:103020000E94B6060E948B1B5CCE4C2F4F706D2FFA
:10303000C6010E94B90655CEDF91CF911F910F9125
:10304000FF90EF90DF90CF90BF9008950F931F9364
:10305000CF93DF93EC01688179818A810E94B11D51
:103060008C010E94101D0E94121CB801CE01DF913C
:10307000CF911F910F910C941016CF93DF93EC0119
:103080008B819C81892B29F08881998189238F3FAD
:1030900059F4DF91CF910895CE010E942618CE01F8
:1030A000DF91CF910C94CE04CE010E94590581117D
:1030B000F3CF0E94F31D882361F38A81882349F3AB
:1030C00082E0DF91CF910C94BC1E90E080E00E94E2
:1030D000101490E080E00E9426140E943B1E0E9483
:1030E0004B1E0E946B1E0E948B0C0C94640B0E9462
:1030F000E31D0C9465180E942B1E0C947718E92F81
:10310000E295EF70E250EE3070F4F0E0EE51FB4DDE
:103110000C944E24803F19F020F4883E20F481E086
:103120000895843FE1F380E00895883EC0F3813F35
:10313000D1F7F5CF93FB882780F908950E94A71D4A
:103140000C947F18CF93DF9300D000D00F92CDB7AF
:10315000DEB70F900F900F900F900F90DF91CF91EF
:103160000895CF93DF9300D000D000D0CDB7DEB765
:1031700026960FB6F894DEBF0FBECDBFDF91CF917C
:1031800008951F93CF93DF93C091230116E08091A0
:1031900024018C1304C0DF91CF911F910895D0E0DA
:1031A0001C9FF0011D9FF00D1124EB5DFE4F40812F
:1031B000518162817381848195810E94B118219629
:1031C000C770E5CF4091550150915601609157016C
:1031D000709158018091590190915A010C94B11845
:1031E0001F93CF93DF9380915A01807FA9F4809140
:1031F0005701882389F080912301C09124016091B7
:10320000550170915601A0915801B0915901D62FE6
:10321000D72316E0C81304C0DF91CF911F91089502
:1032200090E0109711F0DF3F19F401968770F2CF0C
:10323000189F9001199F300D1124F901EB5DFE4F8D
:1032400041814713F2CF40814613EFCF42814111B4
:10325000ECCF438154814A1B5B0B483C510528F756
:1032600080915A018F70806180935A01F901E65D67
:10327000FE4F80818F708061808385E591E00E94A0
:103280003D18DF91CF911F910C94C118AF92BF925E
:10329000CF92DF92EF92FF920F931F93CF93DF9322
:1032A000CDB7DEB761970FB6F894DEBF0FBECDBFC6
:1032B0008C0185E0F801DE011D9601900D928A9542
:1032C000E1F7F80140815181E28085E5C82E81E077
:1032D000D82E60915801709159016115710509F45A
:1032E00061C19091550120915601892F82238F3F12
:1032F00009F458C1A380B480F0905701F501E61B92
:10330000F70BFF2009F4FCC080915A01382F307F61
:10331000E83CF10508F0B2C0311179C0FE2C25134C
:1033200023C0941321C0E1101FC08F70806180936F
:103330005A010E94E218C6010E943D1880915A016C
:10334000F80185838F2D61960FB6F894DEBF0FBE0E
:10335000CDBFDF91CF911F910F91FF90EF90DF9044
:10336000CF90BF90AF900895AB2829F0842F85238C
:103370008F3F09F033C180E0F82FF170DF2E80FF1E
:103380003CC0809123012091240136E0821315C0B6
:103390004D875E878D859E850E94A71D292F2295CA
:1033A0002F702230F0F0243018F59F70F1F0F80102
:1033B0009581907FD1F4D12C1EC090E0389FF00110
:1033C000399FF00D1124EB5DFE4F6181651306C03E
:1033D0006081641303C062816E110FC00196877013
:1033E000D5CF9F7011F0882331F3805E883018F3B9
:1033F000C8010E943D18FD2CA5CFEE2009F4A2CFF4
:1034000080915A01816080935A01F12C9BCF251342
:1034100006C0941304C0F801EE2009F48DC04D8756
:103420005E878D859E850E949E18882319F1EE2067
:1034300009F180915A01803270F02091550130914C
:10344000560138872F831986BB86AA868C87CE01C2
:1034500007960E943D1886E0F801A5E5B1E00190CD
:103460000D928A95E1F70E94F0180E94E218FF245D
:10347000F39468CFC8010E943D18F9CF311113C0F1
:103480007A2DB98AA88A6E2D89890E94A21885E5AD
:1034900091E00E943D1886E0F60111928A95E9F7C5
:1034A0000E94E218B2CF25130FC094130DC0E11093
:1034B0000BC0F8018583C8010E943D1886E0F60123
:1034C00011928A95E9F73ECF4D875E878D859E855F
:1034D0000E949E18882371F2EE2061F280915A01B9
:1034E000803208F4B8CF20915501309156013A83CB
:1034F00029831B82BD82AC828E83CE010196A9CF27
:10350000E83CF10508F041C0FE2CEE2009F4B2CFF2
:1035100025132AC0941328C080915A0180FD1BC036
:10352000982F907FC1F0F8018583903F31F0982F5C
:10353000907F905F8F70892B8583C8010E943D1812
:1035400086E0F801A5E5B1E001900D928A95E1F7DA
:103550000E94E218F7CE86E0F801A5E5B1E00190FF
:103560000D928A95E1F7EECE4D875E878D859E851B
:103570000E949E1881116FCF80915A0181608093C3
:103580005A01C8010E943D18DDCE7A2DB98AA88A59
:103590006E2D89890E94A21886E0F60111928A9503
:1035A000E9F7D6CFEE2009F465CF4D875E878D858C
:1035B0009E850E949E18F82E882309F45BCF86E032
:1035C000F801A5E5B1E001900D928A95E1F785E556
:1035D00091E00E9461150E94F018BACF81E08E251B
:1035E000CBCE1F93CF93DF93CDB7DEB72C970FB61B
:1035F000F894DEBF0FBECDBF4F83588769877A87A7
:103600008B879C87CE0107960E944619882369F014
:103610008A859B85892B39F04F815885842F852396
:103620008F3F09F071C016E05FC086E0FE0137965B
:10363000DE01119601900D928A95E1F78A859B85AE
:10364000892B89F38F81988589238F3F61F320919E
:10365000240130E0C9010196877099274091230128
:103660004817190671F40E947B18109224011092D9
:10367000230186E0E5E5F1E0DF011D928A95E9F797
:10368000D2CF96E0929FD001939FB00D1124AB5DF5
:10369000BE4FFE01319601900D929A95E1F780930D
:1036A00024010E94C118BFCF819FC00111248B5DEE
:1036B0009E4F0E9446198823E9F0E09123011E9F46
:1036C000F0011124EB5DFE4F4081518162817381D5
:1036D000848195810E94B1188091230190E0019628
:1036E0008770992780932301809123019091240171
:1036F0008913DACF2C960FB6F894DEBF0FBECDBF7C
:10370000DF91CF911F91089569857A858B859C857E
:103710000E94B11888CFEF92FF920F931F93CF931F
:10372000DF938C01892B81F0F12CEE24E394E801E6
:103730002196F8018491843770F4843008F05FC0DA
:103740008130B1F08230A1F1DF91CF911F910F91C3
:10375000FF90EF900895853709F44CC008F43DC000
:103760009CE7980F903780F78F770E94B41549C077
:103770000E5F1F4FFE01849190E2980F983060F425
:103780008770FE2D01C0FF0F8A95EAF78F2F0E94E8
:103790003E1E0E946B1E02C00E9466158F2D815036
:1037A00030F2EFE9FFE03197F1F700C00000F7CF0A
:1037B0000E5F1F4FFE01849190E2980F983050F4F5
:1037C0008770FE2D01C0FF0F8A95EAF78F2F0E94A8
:1037D000441EDFCF0E94B415E1CF0E5F1F4FFE01E4
:1037E000C491C150D8F28FE99FE00197F1F700C072
:1037F0000000F7CF0E5F1F4FFE01F490CFCF0E9465
:1038000066158E01CBCF08950C94031C0E94041CF6
:1038100060939B0170939C0180939D0190939E0106
:103820000C94651808950C94061C0F931F93009137
:103830009B0110919C0120919D0130919E01602B74
:10384000712B822B932B1F910F910C94061C0F93BD
:103850001F9300919B0110919C0120919D0130913B
:103860009E0160237123822393231F910F910C9457
:10387000061C0F931F9300919B0110919C012091B6
:103880009D0130919E0160277127822793271F9108
:103890000F910C94061C0C94031C0C944B1C0E945E
:1038A0004D1C6093970170939801809399019093B8
:1038B0009A010C94651860E070E0CB010C944F1CE9
:1038C0000F931F9341E050E060E070E08A019B019C
:1038D00004C0000F111F221F331F8A95D2F7C901A0
:1038E000B8011F910F910C944F1C0F931F9341E04F
:1038F00050E060E070E004C0440F551F661F771F62
:103900008A95D2F78091970190919801A0919901A1
:10391000B0919A018A019B01082B192B2A2B3B2B72
:10392000C901B8011F910F910C944F1C0F931F9365
:1039300041E050E060E070E004C0440F551F661F96
:10394000771F8A95D2F7CB01BA0160957095809563
:1039500090950091970110919801209199013091D3
:103960009A0160237123822393231F910F910C945A
:103970004F1C0F931F9341E050E060E070E004C0E3
:10398000440F551F661F771F8A95D2F780919701C4
:1039900090919801A0919901B0919A018A019B019F
:1039A000082719272A273B27C901B8011F910F9122
:1039B0000C944F1C0F931F93009197011091980145
:1039C0002091990130919A01602B712B822B932BBE
:1039D0001F910F910C944F1C0F931F93009197010F
:1039E000109198012091990130919A0160237123DF
:1039F000822393231F910F910C944F1C0F931F93BD
:103A000000919701109198012091990130919A01AC
:103A100060277127822793271F910F910C944F1CC9
:103A200008952FE0929F800D1124982F977041E008
:103A300001C0440F9A95EAF786958695869595E09C
:103A4000899FF0011124E55AFE4F90E080E070E07C
:103A50005191DF0111979B01082E02C036952795E1
:103A60000A94E2F7217021952527242325272C93FA
:103A700001968530910561F708952FE0929F800DA2
:103A80001124982F977086958695869525E0829FBC
:103A9000F0011124E55AFE4F50E040E080E0219112
:103AA00030E0092E02C0369527950A94E2F721707E
:103AB0003327042E01C0220F0A94EAF7822B4F5FAE
:103AC0005F4F4530510559F70895BF92CF92DF926D
:103AD000EF92FF920F931F93CF93DF938C01C090CF
:103AE0009701D0909801E0909901F0909A0180910F
:103AF0009B0190919C01A0919D01B0919E01C82ACB
:103B0000D92AEA2AFB2ACFE1D0E0BC2ED701C60190
:103B10000C2E04C0B695A795979587950A94D2F771
:103B200080FD0EC0219788F7B12C8B2DDF91CF91AE
:103B30001F910F91FF90EF90DF90CF90BF9008956D
:103B4000B8018C2F0E94C206019761F3EECFCF938C
:103B5000DF93EC010E94651DBE01DF91CF910C94B3
:103B6000C2061F93CF93DF93EB019091220199231B
:103B700031F0CB01DF91CF911F910C94A71D8823C9
:103B800079F0CB010E94651D182F682FCE010E948D
:103B9000111DBE01812FDF91CF911F910C94C206A0
:103BA000CB010E943D1D182FF4CF682F8091690032
:103BB00090916A000C94D41F682F809169009091B5
:103BC0006A000C94D61F8091690090916A000C9451
:103BD000D81F80919F018595859585950895809141
:103BE0009F018770089590919F01977081E009F47B
:103BF00080E008959091620292FB222720F9281715
:103C000051F080FB92F99093620280916102909151
:103C100062020C94011F08958091620282FB882742
:103C200080F991E089270C94FA1D81E00C94FA1D2B
:103C300080E00C94FA1D8091AB0108959091AB0146
:103C4000892B8093AB01089580959091AB019823C7
:103C50009093AB0108951092AB0108959091AA0141
:103C6000892B8093AA01089580959091AA019823A9
:103C70009093AA0108951092AA0108959091A90124
:103C8000892B8093A901089580959091A90198238B
:103C90009093A90108951092A90108958091A0011F
:103CA000089508950C94511E9091620292FD08C0EF
:103CB0009091A001981721F08093A0010C94521EBE
:103CC00008958091A001882329F01092A00180E03E
:103CD0000C94521E0895E0916900F0916A00809161
:103CE000AB018083E0916900F0916A00808190913E
:103CF000AA01892B8083E0916900F0916A0080819C
:103D00009091A901892B80839091A001992381F042
:103D1000E0916900F0916A008081892B8083809115
:103D2000690090916A000E948C1F81110E94611E9F
:103D30008091690090916A000C94F71308950C9497
:103D40009E1E9091620292FD10C098E0899F9001A2
:103D50001124622B60939F010E94751C80919F012A
:103D60008595859585950C949F1E0C94751C1092D5
:103D70009F0180E00C949F1E90919F018095892364
:103D800080939F01282F277039F4282F082E000CCC
:103D9000330B9217130621F49091620292FF07C031
:103DA0008595859585950E94961C0C94B71E08955F
:103DB00080E008956FEF7FEF90E080E00C94A02406
:103DC00090E080E00E947D2421E08A3E9E4F09F031
:103DD00020E0822F089582E090E00C94752483E027
:103DE00090E00C947524CF9384E090E00E947524B9
:103DF000C82F82E290E00E947524982F8C2FCF91DB
:103E00000895CF93C92F682F84E090E00E94832407
:103E10006C2F82E290E0CF910C948324AB01BC0123
:103E20008FE090E00C949424AB01BC0183E190E01E
:103E30000C94942460E070E0CB010C94141F60E0BB
:103E400070E0CB010E940E1F0C941A1F6AEE7EEFE9
:103E500090E080E00E94A02460E082E090E00E9478
:103E6000832460E083E090E00E94832410929B0111
:103E700010929C0110929D0110929E0160E084E0DE
:103E800090E00E94832460E082E290E00E9483241C
:103E900060E085E090E00E94832460E086E090E0AE
:103EA0000E9483246FEF87E090E00E94832440E02B
:103EB00050E0BA0188E090E00E94942460E08DE038
:103EC00090E00E94832440E050E0BA0188E190E055
:103ED0000E94942460E087E190E00E94832440E007
:103EE00050E0BA018CE190E00E94942470E060E020
:103EF00080E290E00E94A02440E050E0BA0188E116
:103F000090E00E9494240C941F1F0C94261F682F8D
:103F10008EE090E00C9483249C012E5F3F4FAC0117
:103F2000485F5F4F80E02417350709F40895F901D1
:103F300091919F019923B9F38F5FF5CF662349F0E3
:103F4000FC01329608962191261729F0E817F90707
:103F5000D1F780E0089581E008959C01FC0132963C
:103F60009FEF80E04191461751F09F3F19F44111B6
:103F700001C0982F8F5F8630A9F79F3F09F40895FD
:103F8000290F311D97FD3A95F90162830895FC01CF
:103F9000329608962191261303C0DF0111971C92D7
:103FA000E817F907B9F708950C94AD1F0C94C71FD3
:103FB000029626E0FC0111922A95E9F708950895EA
:103FC00008950C94E01F8091AD01882341F00E9478
:103FD000E11F80E00E940F0E80E00C94AE06089571
:103FE0000895CF930E94DF1F0E9454090E94F01F82
:103FF000C0E08C2F0E94F608892B31F4CF5FC630C9
:10400000C1F780E0CF91089581E0FCCF08950C9432
:1040100006200E947B180E94DB0C0E94EB130E947A
:10402000AE060C9407208BE083BF8AEF8CBF82E042
:1040300089BF08952FB7F89480917C0290917D02FA
:10404000A0917E02B0917F022FBF08952FB7F89400
:1040500060917C0270917D0280917E0290917F023E
:104060002FBF08959C014FB7F89480917C029091E6
:104070007D02A0917E02B0917F024FBF821B930B05
:10408000089578941F921FB61F9211248F939F93C7
:10409000AF93BF9380917C0290917D02A0917E02AC
:1040A000B0917F020196A11DB11D80937C02909377
:1040B0007D02A0937E02B0937F02BF91AF919F914A
:1040C0008F911F901FBE1F90189588E198E00FB642
:1040D000F894A89581BD0FBE91BDA895F894D8E03D
:1040E000CEE528E3299320E0299314BEFFCF08955D
:1040F0009093EF008093EE0008950E941A20EC0147
:104100000E945D140E94D9238B9A80E0815009F0AF
:1041100047C08B9878940E9471140E94D0210E940D
:10412000E613FFEF20E732E0F15020403040E1F7A6
:1041300000C0000001E01CE08091A7028823C1F1CB
:104140001092A7020E941A20EC018091AD018823F1
:1041500021F01092AD010E9409208091AD018823C9
:10416000A9F10E94E31F0E94F11F882329F3F8940C
:1041700091B3939A892F8C6081BB82B3812782BBD4
:104180008FE7E8E3F1E08150E040F040E1F700C064
:10419000000082B3812782BB91BB93987894CCCFE7
:1041A000A895EFE9FFE03197F1F700C00000AECF2E
:1041B0008091AD018111D1CFCE010E9432200697AE
:1041C00060F20093AD010E94E31FC7CF0E94E92275
:1041D0008091AD02882329F080918B0284FD0E949A
:1041E0007B140E943D210E94E9228091AD02882328
:1041F00029F08091C40284FD0E94C4210E946D14A4
:104200009BCF809160020895CF93DF9300D00F92EF
:10421000CDB7DEB79091B001981307C02091AE01E1
:104220003091AF012617370791F08093B00170935A
:10423000AF016093AE0189837B836A838091C4025E
:1042400084FF05C063E0CE0101960E94E1220F9039
:104250000F900F90DF91CF910895BC0184E00C94F2
:104260000421BC0183E00C9404212091C40224FFAA
:1042700003C066E00C94E1220895CF93DF93CAE077
:10428000D0E080918B0284FF1AC08091DD01909173
:10429000DE01981789F028E0829FC001112468E0B0
:1042A00081529E4F0E94DD228091DD0190E00196B7
:1042B0008F7099278093DD01DF91CF9108950E943F
:1042C000E9228FE99FE00197F1F700C000002197F4
:1042D000C1F6F2CFCF93DF93EC01A091DE01B0E005
:1042E000CD0101968F7099272091DD01281779F073
:1042F00093E0AA0FBB1F9A95E1F7A152BE4F98E039
:10430000FE0101900D929A95E1F78093DE010E94E3
:10431000E9220E943D2188E0FE01A5EDB1E0019077
:104320000D928A95E1F7DF91CF9108950F931F9336
:10433000CF93DF93EC01603211F58C01005E1F4FCB
:1043400002C00E94E9228091970284FFFACF68E0C0
:10435000CE010E94E5222896C017D107A1F78091CF
:10436000970284FF09C060E090E080E0DF91CF9188
:104370001F910F910C94E5220E94E922F0CFDF916A
:10438000CF911F910F9108958091B401803239F43B
:1043900060E285EB91E00E94890F1092B4010895CC
:1043A0008BE690E00895FC01808180768032F1F404
:1043B0008181813061F484819581892BB9F485ED07
:1043C00091E09093A9028093A80288E0089582303A
:1043D00041F48FE592E09093A9028093A80281E0D6
:1043E00008958A3029F4838180935F0280E00895E4
:1043F0008930E1F7828193818115924069F484814B
:104400009581892B49F481E08093B301868197815E
:104410009093B2018093B1018FEF0895FC018091D8
:10442000B1019091B201892B61F08091B30181308B
:1044300041F49081909360021092B2011092B10108
:1044400008958FEF0895683019F01092B40108951F
:104450002091B4012931C8F7FC01A22FB0E0AB5480
:10446000BE4F089631913D93E817F907D9F7285FB9
:104470002093B4010895FC018381833089F130F4E5
:104480008130F1F0823021F180E00895813209F429
:1044900046C08232C9F7248135812130310509F4C3
:1044A0005CC02115310509F450C02230310561F797
:1044B00087E195E09093A9028093A8028BE7089585
:1044C0008FEA94E09093A9028093A80282E1089574
:1044D00084E594E09093A9028093A8028BE5089567
:1044E00082818130A1F0882351F0823069F681EC1D
:1044F00094E09093A9028093A8028EE0089581EF42
:1045000094E09093A9028093A80284E0089581ED3D
:1045100094E09093A9028093A8028EE1089582818D
:10452000813081F0882331F0823009F0ADCF8FE9FE
:1045300094E002C086E694E09093A9028093A802DA
:1045400089E008958FE794E0F7CF82E995E09093B2
:10455000A9028093A80280E4089525EF34E0309307
:10456000A9022093A80208951F93CF93DF93E82F09
:10457000792F162FEA01888184FF1CC0298188E8E1
:1045800028272983CE010296DC012E2F372F512FA9
:104590005E0FF90121912D939F01452F4E1B14169B
:1045A000C4F3612F0E9444031C5F1883DF91CF91F5
:1045B0001F9108958AE58883E5CF4BE852E00C947B
:1045C000B42244EC52E00C94B42247E952E00C943B
:1045D000B422CF93DF936091AA02635067FD12C0AB
:1045E0008091A602CCE0D0E0C81BD109C255DD4FB6
:1045F0008091A502803108F054C0CE010E94232290
:104600001092AA028091760084FF3EC080917500CE
:104610008F3FD1F1C82F893008F0C8E0982F9C1B3C
:10462000909375009091800228E8922790938002E1
:104630008823E9F08091A8029091A9022091A40218
:1046400026FFAEC0FC012C2FA1E8B2E034913D93CF
:1046500031962150D9F79C012F5F3F4F8FEF8C0F80
:10466000820F932F911D9093A9028093A8026C2F23
:1046700081E892E00E944403CC5FCC3019F08FEFC8
:1046800080937500C093760084E190B39C7031F400
:104690008150D9F71092AB021092A302DF91CF9113
:1046A00008958D3209F069C0683009F0A9CF83EC14
:1046B000809380028AE5809376001092A40288811C
:1046C000807671F0CE010E94D3218F3FC1F4988192
:1046D00097FD8E8190E89093A4028093750090CF0F
:1046E0002A81109289029981911111C010928A0237
:1046F00029E832E082E03093A9022093A8029F814A
:104700009111EBCF9E81981740F7892FE6CF953016
:1047100029F42093AB0229E832E0EDCF963099F4EA
:104720009B81913021F4CE010E943B2208C092303F
:10473000D1F39330C1F39132B1F39232A1F390E40B
:104740009093A402C2CF983089F0993019F4209345
:10475000AD02E1CF9A3071F09B30E9F69BE4909383
:104760008C029093C50290939802D5CF2DEA32E047
:1047700081E0C1CF29E832E0FBCF8091A40287FF1E
:104780003FCFCE010E940E228F3F21F48EE1809315
:10479000760036CF882309F433CF1092750030CFDE
:1047A000DC012C2FE1E8F2E03D9131932150E1F75B
:1047B00052CFCF93DF9385B7886085BF8BB7806872
:1047C0008BBFCBE8D2E08BE48983A4ECB2E01196F6
:1047D0008C931197E7E9F2E081838AE588838C93D3
:1047E0008083DF91CF910895DB018F939F930E9487
:1047F0006A24BF91AF91A29F800D911DA39F900D40
:10480000B29F900D11240895AA1BBB1B51E107C054
:10481000AA1FBB1FA617B70710F0A61BB70B881F50
:10482000991F5A95A9F780959095BC01CD010895DF
:1048300097FB072E16F4009407D077FD09D00E944D
:10484000042407FC05D03EF4909581959F4F089570
:10485000709561957F4F0895A1E21A2EAA1BBB1B8C
:10486000FD010DC0AA1FBB1FEE1FFF1FA217B3073C
:10487000E407F50720F0A21BB30BE40BF50B661F52
:10488000771F881F991F1A9469F760957095809516
:1048900090959B01AC01BD01CF010895EE0FFF1F64
:1048A0000590F491E02D09946927962769277827C8
:1048B000872778270895A29FB001B39FC001A39FC7
:1048C000700D811D1124911DB29F700D811D112449
:1048D000911D08950E945B24A59F900DB49F900D9B
:1048E000A49F800D911D11240895E199FECF9FBBD7
:1048F0008EBBE09A99278DB30895A8E1B0E042E01D
:1049000050E00C94A824262FE199FECF9FBB8EBBCC
:10491000E09A01970DB2021631F02DBB0FB6F89454
:10492000E29AE19A0FBE08950396272F0E948424ED
:104930000E948324252F0E948424242F0C948424F5
:104940000196272F0E9484240C948324DC01CB0140
:10495000FC01E199FECF06C0FFBBEEBBE09A3196A9
:104960000DB20D9241505040B8F70895F894FFCF22
:10497000B50DBA0DBC0DBF0DC20DC50DC80D9D0FF7
:10498000AA0FD10FDD0FE80FF30FF60FF90FFC0F91
:1049900045104510FF0F03100B101810251028109C
:1049A0002B103810441644169C169C16EE160A1747
:1049B000711671161517A117B017B0170C187116CC
:1049C000711615188A188A18931893189518931841
:1049D000931893188A188A189A18931893189A1883
:1049E0002808641E140A321E06A10101216A21351D
:1049F0002131212D21FF5AE200E900EA00B500B67D
:104A000000B700CD008301CC008A019201940121FE
:104A100002230224022502260227022A02B300B43E
:104A2000006F0070008182836665636261609096AA
:104A300097373635340100679291939495E200E9F7
:104A400000EA00B500B600B700CD008301CC008AB3
:104A50000192019401210223022402250226022749
:104A6000022A02B300B4006F007000818283FFFF4E
:104A7000FFFFFFFFFFFFFFFFFFFFFFFFFFFFFFFF46
:104A8000FFFFFFFFFFFFFFFFFFFFFFFFFFFFFFFF36
:104A9000FFFFFFFFFFFFFFFFFFFFFFFFFFFFFFFF26
:104AA000FFFFFFFFFFFFFFFFFFFFFFFFFFFFFFFF16
:1070000061C00000A0C0000084C0000082C0000079
:1070100080C000007EC000007CC000007AC000007C
:1070200078C0000076C0000074C0000072C000008C
:1070300070C000006EC000006CC000006AC000009C
:1070400068C0000066C0000064C0000062C00000AC
:1070500060C00000EC2DFD2DB7B6B0FCFDCF27BF02
:10706000E895B7B6B0FCFDCF21E1B7B6B6FCF4CFDA
:107070000895090212000101008032090400000095
:107080000000000012011001FF000008C016DC051E
:107090000201010200010E0355005300420061008D
:1070A000730070001C037700770077002E006600E5
:1070B00069007300630068006C002E0064006500C6
:1070C0000403090411241FBECFE5D8E0DEBFCDBF05
:1070D00024B7D8E0CEE539913833399109F03FEF44
:1070E00030939C0020939B0010E0A0E6B0E0E8E520
:1070F000F8E702C005900D92A636B107D9F720E057
:10710000A6E6B0E001C01D92AB39B207E1F77ED12F
:10711000A1C376CFA82FB92F80E090E041E050EADC
:10712000609530E009C02D9182279795879510F0E2
:1071300084279527305EC8F36F5FA8F30895EADFD0
:107140008D939D930895CF93CFB7CF93DF93C3953E
:10715000839BE9F7839B0BC0839B09C0839B07C07C
:10716000839B05C0839B03C0839B01C089C06F9331
:10717000C0917E00DD27CB57DF4F2F9365E5839BC2
:1071800003C02F916F91E6CF0F931F934F9320E091
:1071900040E15F9300B30C7003FB27F93F9350E08D
:1071A0003BE039C01C7040642F77012F5F5F1EC029
:1071B000406810B31C702F7752501FC0406400B35A
:1071C0002F770C70D1F15F5F00C023C0406210B315
:1071D0002F771C7091F15F5F00C025C00C701027E5
:1071E000515012F45D5F0000115027952C3F10B3F1
:1071F000C8F61C700127015027952C3FC8F642277E
:10720000499300B30C7010274F73115027952C3FF2
:10721000A8F64695469510B31C7079F001270150E9
:1072200027952C3F98F66B5A60F3315000B3B0F6B7
:1072300000C010E41ABF002717C03B503195C31B94
:10724000D04010E41ABF0881033CF9F00B34E9F098
:1072500020917C001981110F1213EDCF093651F1E5
:107260000D3211F0013E39F7009383003F915F9199
:107270004F911F910F912F916F91CAB7C6FD67CFA4
:10728000DF91CF91CFBFCF9118952091830022231A
:1072900069F310918100112339F534303AF13093BC
:1072A000810020937D0010917E003BE0311B3093E4
:1072B0007E001CC0009181000130B4F40AE53091D9
:1072C000610034FD14C000936100C1E7D0E013C039
:1072D000052710E000C0000002BB1AC0052710E01F
:1072E000221F1DC010E021C04AE502C032ED432F2D
:1072F000C4E1D0E032E011B31C60939A02B311BB39
:107300005CE020E865E320FF052702BB2795179581
:107310001C3FF0F66695B8F7B1F720FF052702BBD2
:10732000279517951C3FD0F62795179517FF05272A
:1073300000001C3F02BBB0F629913A9519F7037F74
:1073400010918200110FC651D04002BB11F0109372
:107350007C0010E41ABF086011B3137F402F437FF5
:1073600054E05A95F1F702BB11BB42BB7FCFDC0161
:1073700013964C91139714963C91149713968D91F4
:107380009C91149798278927982712962C911297E9
:10739000203339F43370E32FF0E0EE59FF4F808152
:1073A0000895283561F489E0E1E0F0E0442371F0CC
:1073B00089E0E3E0F0E0483049F080E008952035CE
:1073C00049F44111FACF89E0F0E0E0E08093570002
:1073D00084910895203229F4880F991FFC0184912B
:1073E0000895283221F4880F991F0196F7CF203A8B
:1073F00009F41BC2203C21F415966C911ED2DDCFFE
:107400002F3FD9F681EF80936F00D7CFBE98C69AF1
:10741000BF9AC79881E08BBF82E08BBFE0E0F1E7C5
:10742000A89531978040E1F780919B00877F21F4F8
:1074300080919C00882361F0B69B0AC0F8948B9AD7
:107440001BBE15BE81E08BBF1BBEF0E0E0E00995DE
:107450008EEF80936F0014BE0FB6F894A89581B597
:10746000886181BD11BC0FBE85B7826085BF8BB7B7
:1074700080648BBF8B9A8CE0E0E0F5E3A8953197B0
:107480008040E1F78B98789410918100135017FD9C
:107490005AC080917E00CCE0D0E0C81BD109CB5708
:1074A000DF4F80917D008D3209F00BC1183009F05B
:1074B00048C083EC809371008AE58093610010924C
:1074C00070003881832F80769981882309F49BC0CE
:1074D00046E650E05093800040937F00933069F47B
:1074E000CE0145DF8093690084E09F81911127C020
:1074F0009E81981720F5892F22C0953009F4DFC0AE
:107500009A3009F4DCC08CEF890F863008F070C027
:107510004A815B8150936E0040936D00993009F46D
:107520006EC08E8180936C002D81227020936B0041
:1075300090936A0037FF8FEF90E8909370008093EC
:107540006000109281008091610084FF36C0C0917C
:107550006000CF3F91F18C2FC93008F088E09C2F5C
:10756000981B909360009091710028E89227909367
:107570007100CC23B1F04091700047FF2FC1909172
:107580006C00C82F981708F4C92F9C1B90936C00AF
:10759000D0906A00D0E082E7E82E80E0F82EDC137D
:1075A00004C16C2F82E790E0CADDCC5FCC3019F0CB
:1075B0008FEF80936000C093610084E190B39C7072
:1075C00031F48150D9F71092820010927C008091A2
:1075D0006F00803108F41EC1B69B05C080916F001A
:1075E000805180936F0080916F0081114DCF26CF25
:1075F00080916F00923029F48E7F80936F0080E03D
:1076000074CF8160FACF2A8110927A0091110AC05A
:1076100010927B002AE730E082E0309380002093D4
:107620007F0063CF953029F4209382002AE730E071
:10763000F4CF963099F59B81913059F484E890E726
:107640009093800080937F0082E190E4909370009B
:107650004CCF923019F482E790E7F2CF9330A9F73C
:10766000211108C080EC90E79093800080937F0008
:1076700084E0EBCF213041F484EA90E790938000DE
:1076800080937F008CE1E1CF2230F9F686E990E724
:107690009093800080937F008EE0D7CF983059F090
:1076A000993019F420938400C1CF81E09A3009F415
:1076B000BDCF80E0BBCF24E830E081E0AECF81E0F9
:1076C00014CF8091700087FF3CCF00916C000117B0
:1076D00008F4102F011B00936C00F12CF11628F018
:1076E00001112FCF109260002CCF80916D009091EE
:1076F0006E0020916A00273058F069919C012F5F3D
:107700003F4F30936E0020936D0097D0F394E6CFF7
:107710008115904738F7F394F394F894E0916D0055
:10772000F0916E002991399181E009018093570011
:10773000E8951124789480916D0090916E000296E6
:1077400090936E0080936D008F779927892B51F06D
:107750000111C4CFF11608F4C1CF80916B008823CA
:1077600009F4BCCFF894E0916D00F0916E0032976F
:1077700083E080935700E895789407B600FCFDCF2E
:10778000F894E0916D00F0916E00329785E080935F
:107790005700E895789407B600FCFDCFF89481E196
:1077A00080935700E895789499CF00916D001091DF
:1077B0006E0026E02D1578F4C80137D0F7018083DC
:1077C000FFEFEF1AFF0A0F5F1F4F10936E00009339
:1077D0006D00DF5FE4CEF8018491F0CF90917F00DF
:1077E00030918000282F290FE92FF32FA2E7B0E076
:1077F00046FF0BC094919D9331962E13FBCFF093CF
:107800008000E0937F00C82FCCCE91919D932E13E2
:10781000FCCFF5CFB699E7CE80916F00823008F4A7
:10782000E2CE80916F008250DCCEE199FECF9FBB0B
:107830008EBBE09A99278DB30895262FE199FECF4C
:107840009FBB8EBB2DBB0FB6F894E29AE19A0FBE98
:1078500001960895F894FFCFFF5A1E950200FFFF8E
:10786000FFFFFFFFFFFFFFFFFFFFFFFFFFFFFFFF28
:10787000FFFFFFFFFFFFFFFFFFFFFFFFFFFFFFFF18
:10788000FFFFFFFFFFFFFFFFFFFFFFFFFFFFFFFF08
:10789000FFFFFFFFFFFFFFFFFFFFFFFFFFFFFFFFF8
:00000001FF
